{
  "contracts/Trybe.sol": {
    "Trybe": {
      "abi": [
        {
          "inputs": [
            {
              "internalType": "uint256",
              "name": "_fee",
              "type": "uint256"
            }
          ],
          "stateMutability": "nonpayable",
          "type": "constructor"
        },
        {
          "anonymous": false,
          "inputs": [
            {
              "indexed": true,
              "internalType": "address",
              "name": "creator",
              "type": "address"
            },
            {
              "indexed": false,
              "internalType": "string",
              "name": "nameOfAlbum",
              "type": "string"
            },
            {
              "indexed": false,
              "internalType": "uint256",
              "name": "albumId",
              "type": "uint256"
            }
          ],
          "name": "AlbumCreated",
          "type": "event"
        },
        {
          "anonymous": false,
          "inputs": [
            {
              "indexed": false,
              "internalType": "uint256",
              "name": "albumId",
              "type": "uint256"
            },
            {
              "indexed": false,
              "internalType": "uint256",
              "name": "imageId",
              "type": "uint256"
            }
          ],
          "name": "ImageAdded",
          "type": "event"
        },
        {
          "anonymous": false,
          "inputs": [
            {
              "indexed": false,
              "internalType": "uint256",
              "name": "albumId",
              "type": "uint256"
            },
            {
              "indexed": false,
              "internalType": "uint256",
              "name": "imageId",
              "type": "uint256"
            }
          ],
          "name": "ImageDownloaded",
          "type": "event"
        },
        {
          "anonymous": false,
          "inputs": [
            {
              "indexed": true,
              "internalType": "address",
              "name": "participant",
              "type": "address"
            },
            {
              "indexed": false,
              "internalType": "uint256",
              "name": "timeJoined",
              "type": "uint256"
            }
          ],
          "name": "JoinedAlbum",
          "type": "event"
        },
        {
          "anonymous": false,
          "inputs": [
            {
              "indexed": true,
              "internalType": "address",
              "name": "user",
              "type": "address"
            },
            {
              "indexed": false,
              "internalType": "uint256",
              "name": "createdAt",
              "type": "uint256"
            }
          ],
          "name": "Upload",
          "type": "event"
        },
        {
          "inputs": [
            {
              "internalType": "uint256",
              "name": "albumId",
              "type": "uint256"
            },
            {
              "internalType": "string[]",
              "name": "urls",
              "type": "string[]"
            },
            {
              "internalType": "string",
              "name": "description",
              "type": "string"
            },
            {
              "internalType": "uint256",
              "name": "_fee",
              "type": "uint256"
            }
          ],
          "name": "addImageToAlbum",
          "outputs": [],
          "stateMutability": "nonpayable",
          "type": "function"
        },
        {
          "inputs": [
            {
              "internalType": "string",
              "name": "_name",
              "type": "string"
            },
            {
              "internalType": "string",
              "name": "description",
              "type": "string"
            },
            {
              "internalType": "address[]",
              "name": "_participants",
              "type": "address[]"
            },
            {
              "internalType": "string",
              "name": "_image",
              "type": "string"
            },
            {
              "internalType": "bool",
              "name": "visibility",
              "type": "bool"
            },
            {
              "internalType": "uint256",
              "name": "_fee",
              "type": "uint256"
            }
          ],
          "name": "createAlbum",
          "outputs": [],
          "stateMutability": "nonpayable",
          "type": "function"
        },
        {
          "inputs": [
            {
              "internalType": "uint256",
              "name": "albumId",
              "type": "uint256"
            },
            {
              "internalType": "uint256",
              "name": "imageId",
              "type": "uint256"
            }
          ],
          "name": "download",
          "outputs": [],
          "stateMutability": "payable",
          "type": "function"
        },
        {
          "inputs": [
            {
              "internalType": "uint256",
              "name": "albumId",
              "type": "uint256"
            }
          ],
          "name": "getAlbum",
          "outputs": [
            {
              "components": [
                {
                  "internalType": "uint256",
                  "name": "id",
                  "type": "uint256"
                },
                {
                  "internalType": "bool",
                  "name": "visibility",
                  "type": "bool"
                },
                {
                  "internalType": "uint256",
                  "name": "fee",
                  "type": "uint256"
                },
                {
                  "internalType": "address",
                  "name": "owner",
                  "type": "address"
                },
                {
                  "internalType": "string",
                  "name": "name",
                  "type": "string"
                },
                {
                  "internalType": "string",
                  "name": "description",
                  "type": "string"
                },
                {
                  "internalType": "string",
                  "name": "profileImage",
                  "type": "string"
                },
                {
                  "internalType": "uint256",
                  "name": "created",
                  "type": "uint256"
                },
                {
                  "internalType": "address[]",
                  "name": "participants",
                  "type": "address[]"
                },
                {
                  "internalType": "uint256",
                  "name": "totalNoOfImages",
                  "type": "uint256"
                }
              ],
              "internalType": "struct Trybe.Album",
              "name": "",
              "type": "tuple"
            }
          ],
          "stateMutability": "view",
          "type": "function"
        },
        {
          "inputs": [],
          "name": "getAlbums",
          "outputs": [
            {
              "components": [
                {
                  "internalType": "uint256",
                  "name": "id",
                  "type": "uint256"
                },
                {
                  "internalType": "bool",
                  "name": "visibility",
                  "type": "bool"
                },
                {
                  "internalType": "uint256",
                  "name": "fee",
                  "type": "uint256"
                },
                {
                  "internalType": "address",
                  "name": "owner",
                  "type": "address"
                },
                {
                  "internalType": "string",
                  "name": "name",
                  "type": "string"
                },
                {
                  "internalType": "string",
                  "name": "description",
                  "type": "string"
                },
                {
                  "internalType": "string",
                  "name": "profileImage",
                  "type": "string"
                },
                {
                  "internalType": "uint256",
                  "name": "created",
                  "type": "uint256"
                },
                {
                  "internalType": "address[]",
                  "name": "participants",
                  "type": "address[]"
                },
                {
                  "internalType": "uint256",
                  "name": "totalNoOfImages",
                  "type": "uint256"
                }
              ],
              "internalType": "struct Trybe.Album[]",
              "name": "",
              "type": "tuple[]"
            }
          ],
          "stateMutability": "view",
          "type": "function"
        },
        {
          "inputs": [
            {
              "internalType": "uint256",
              "name": "albumId",
              "type": "uint256"
            },
            {
              "internalType": "uint256",
              "name": "imageId",
              "type": "uint256"
            }
          ],
          "name": "getImageInAlbum",
          "outputs": [
            {
              "components": [
                {
                  "internalType": "uint256",
                  "name": "id",
                  "type": "uint256"
                },
                {
                  "internalType": "string",
                  "name": "url",
                  "type": "string"
                },
                {
                  "internalType": "string",
                  "name": "description",
                  "type": "string"
                },
                {
                  "internalType": "address",
                  "name": "owner",
                  "type": "address"
                },
                {
                  "internalType": "uint256",
                  "name": "created",
                  "type": "uint256"
                },
                {
                  "internalType": "uint256",
                  "name": "fee",
                  "type": "uint256"
                }
              ],
              "internalType": "struct Trybe.Image",
              "name": "",
              "type": "tuple"
            }
          ],
          "stateMutability": "view",
          "type": "function"
        },
        {
          "inputs": [],
          "name": "getImages",
          "outputs": [
            {
              "internalType": "string[]",
              "name": "",
              "type": "string[]"
            }
          ],
          "stateMutability": "view",
          "type": "function"
        },
        {
          "inputs": [
            {
              "internalType": "uint256",
              "name": "albumId",
              "type": "uint256"
            }
          ],
          "name": "getImagesInAlbum",
          "outputs": [
            {
              "components": [
                {
                  "internalType": "uint256",
                  "name": "id",
                  "type": "uint256"
                },
                {
                  "internalType": "string",
                  "name": "url",
                  "type": "string"
                },
                {
                  "internalType": "string",
                  "name": "description",
                  "type": "string"
                },
                {
                  "internalType": "address",
                  "name": "owner",
                  "type": "address"
                },
                {
                  "internalType": "uint256",
                  "name": "created",
                  "type": "uint256"
                },
                {
                  "internalType": "uint256",
                  "name": "fee",
                  "type": "uint256"
                }
              ],
              "internalType": "struct Trybe.Image[]",
              "name": "",
              "type": "tuple[]"
            }
          ],
          "stateMutability": "view",
          "type": "function"
        },
        {
          "inputs": [
            {
              "internalType": "uint256",
              "name": "albumId",
              "type": "uint256"
            }
          ],
          "name": "getListofParticipants",
          "outputs": [
            {
              "internalType": "address[]",
              "name": "",
              "type": "address[]"
            }
          ],
          "stateMutability": "view",
          "type": "function"
        },
        {
          "inputs": [
            {
              "internalType": "uint256",
              "name": "albumId",
              "type": "uint256"
            }
          ],
          "name": "joinAlbum",
          "outputs": [],
          "stateMutability": "payable",
          "type": "function"
        },
        {
          "inputs": [],
          "name": "owner",
          "outputs": [
            {
              "internalType": "address",
              "name": "",
              "type": "address"
            }
          ],
          "stateMutability": "view",
          "type": "function"
        },
        {
          "inputs": [],
          "name": "totalNoOfAlbumsCreated",
          "outputs": [
            {
              "internalType": "uint256",
              "name": "",
              "type": "uint256"
            }
          ],
          "stateMutability": "view",
          "type": "function"
        },
        {
          "inputs": [
            {
              "internalType": "string[]",
              "name": "urls",
              "type": "string[]"
            }
          ],
          "name": "upload",
          "outputs": [],
          "stateMutability": "nonpayable",
          "type": "function"
        }
      ],
      "evm": {
        "bytecode": {
          "linkReferences": {},
          "object": "60803461006657601f611e9c38819003918201601f19168301916001600160401b0383118484101761006b578084926020946040528339810103126100665751600080546001600160a01b03191633178155600155600255604051611e1a90816100828239f35b600080fd5b634e487b7160e01b600052604160045260246000fdfe6080604052600436101561001257600080fd5b60003560e01c8063114983341461120f57806325d72e3b1461114b5780633b8f313b146110b557806345a1db6714610bfc5780635c51723414610a165780636c4860fe146107305780636d49f8cc146107125780638d84d7fc146105a05780638da5cb5b14610577578063b027a7871461039e578063bce547201461025a578063ced038d11461011b5763d6e465c9146100ab57600080fd5b34610116576020366003190112610116576004356100c7611adb565b508015158061010a575b6100da90611850565b60005260046020526101066100f26040600020611b2b565b604051918291602083526020830190611476565b0390f35b506001548111156100d1565b600080fd5b3461011657610129366115a2565b90610132611d56565b508015158061024e575b61014590611850565b81151580610233575b156101ee5760009060005b816000526004602052600860406000200180548210156101e2578161017d9161170d565b905460039190911b1c6001600160a01b0316331461019d57600101610159565b5090506101aa6001611cee565b60005260066020526040600020906000526020526101066101ce6040600020611d89565b604051918291602083526020830190611548565b5050906101aa90611cee565b60405162461bcd60e51b815260206004820152601960248201527f5468697320696d61676520646f6573206e6f74206578697374000000000000006044820152606490fd5b5080600052600460205260096040600020015482111561014e565b5060015481111561013c565b610263366115a2565b9080151580610392575b61027690611850565b806000526004602052604060002090600660205260406000208360005260205260ff60016040600020930154168015610384575b1561033f577f1af01386275a45a15be18388f65d960ec0439847260e1f66a817d80e8e5b0adf926103326000808080604097600361031f8380808060646102f46002543490611912565b04966103008834611c03565b9601546001600160a01b03969087165af1610319611c10565b50611c40565b8254165af161032c611c10565b50611c97565b82519182526020820152a1005b60405162461bcd60e51b815260206004820152601e60248201527f546869732069732061207072697661746520616c62756d20696d6167652e00006044820152606490fd5b5060058201543410156102aa565b5060015481111561026d565b346101165760208060031936011261011657600435908115158061056b575b6103c690611850565b816000526004815260406000209060009160005b84600052600483526008604060002001805482101561055d57816103fd9161170d565b905460039190911b1c6001600160a01b0316331461041d576001016103da565b50600991925061042d6001611cee565b0154916104398361137e565b92610447604051948561135d565b8084526104538161137e565b601f190160005b81811061054157505060019160015b828111156104d35750505060405191808301818452845180915260408401918060408360051b8701019601926000905b8382106104a65786880387f35b909192939483806104c2839a603f198b82030186528951611548565b999701959493919091019101610499565b8160009694965260068552604060002081600052855260406000209060001981019181831161052b576105239261050c61051d92611d89565b61051682896116e3565b52866116e3565b506118f6565b949294610469565b634e487b7160e01b600052601160045260246000fd5b849061054e969496611d56565b8282870101520194929461045a565b505061042d60099293611cee565b506001548211156103bd565b34610116576000366003190112610116576000546040516001600160a01b039091168152602090f35b60203660031901126101165760043580151580610706575b6105c190611850565b8060005260046020526040600020600191600182019060ff82541680156106f8575b156106b3576008906105f83360088601611bc8565b6000855b610665575b50505060ff919250541661063e575b6040514281527f59a4dadce245655ce4c5ea128f142c4034b1206deff52ff605866cd86433de8160203392a2005b600080808061065f94600361031f8380808060646102f46002543490611912565b80610610565b6003548110156106ae578161067982611959565b505414610688578501856105fc565b60ff9495506106a592915061069c90611959565b50339101611bc8565b82918480610601565b610601565b60405162461bcd60e51b815260206004820152601860248201527f546869732069732061207072697661746520616c62756d2e00000000000000006044820152606490fd5b5060028301543410156105e3565b506001548111156105b8565b34610116576000366003190112610116576020600154604051908152f35b34610116576080366003190112610116576001600160401b03602435818111610116576107619036906004016113f7565b906044359081116101165761077a9036906004016113b0565b90600435151580610a08575b61078f90611850565b6004356000526004602052604060002090600080600884018054915b8281106109d0575b5050501561096c576000905b8051821015610934576107d560098401546118f6565b600984015560005b60035481101561082257806107f3600192611959565b505460043514610804575b016107dd565b600961080f82611959565b500161081b81546118f6565b90556107fe565b50906009830154906108348183611905565b61083e82856116e3565b51600186015460ff1615610901576005906001946000915b6040519461086386611326565b8552602085019081526108cc604086018b81526108c26060880193338552608089019542875260a08a0197885260043560005260066020526108aa8b604060002092611905565b600052602052604060002098518955518a8901611781565b5160028701611781565b6003850190878060a01b039051166bffffffffffffffffffffffff60a01b8254161790555160048401555191015501906107bf565b670de0b6b3a764000090606435826064350204821460643515171561052b576001946103e8600593606435020491610856565b7f5138483d623eef75882d5ca6ed33e44c7ecafe842f3311844eabf67a297ce76c6040600985015481519060043582526020820152a1005b60405162461bcd60e51b815260206004820152603660248201527f4f6e6c792074686f73652077686f2068617665206a6f696e656420746865206160448201527536313ab69031b0b71030b2321030b71034b6b0b3b29760511b6064820152608490fd5b6109da818361170d565b905460039190911b1c6001600160a01b031633146109fa576001016107ab565b5050505060018480806107b3565b506001546004351115610786565b346101165760003660031901126101165760008060038054925b838110610b925750610a5a610a448361137e565b92610a52604051948561135d565b80845261137e565b60209390601f19018460005b828110610b7c57505050906000916000905b808210610add57604080518781528651818901819052600092600582901b8301810191898b01918b9085015b828710610ab15785850386f35b909192938280610acd600193603f198a82030186528851611476565b9601920196019592919092610aa4565b90929460009492945b610aef85611959565b50600880910154821015610b6d5781610b1291610b0b88611959565b500161170d565b905490871b1c6001600160a01b03163314610b2f57600101610ae6565b5094610b62600191610b4d610b478795969897611959565b50611b2b565b610b5782896116e3565b5261051d81886116e3565b915b01909291610a78565b50509490919392600190610b64565b610b84611adb565b828288010152018590610a66565b909160005b610ba083611959565b50600880910154821015610bf05781610bbc91610b0b86611959565b905490851b1c6001600160a01b03163314610bd957600101610b97565b50610be86001919392936118f6565b925b01610a30565b50509190600190610bea565b346101165760c0366003190112610116576004356001600160401b03811161011657610c2c9036906004016113b0565b6024356001600160401b03811161011657610c4b9036906004016113b0565b90604435916001600160401b0383116101165736602384011215610116578260040135610c778161137e565b93610c85604051958661135d565b8185526024602086019260051b8201019036821161011657602401915b818310611095575050506064356001600160401b03811161011657610ccb9036906004016113b0565b9160843515156084350361011657610ce4331515611697565b80511561105b57815115610fda57610cfd6001546118f6565b806001558451926001840180941161052b57610d31610d1b8561137e565b94610d29604051968761135d565b80865261137e565b601f190136602086013760005b8651811015610d6f576001906001600160a01b03610d5c828a6116e3565b5116610d6882886116e3565b5201610d3e565b5083908587610d80339151856116e3565b528360005260046020526040600020938455610dad608435600186019060ff801983541691151516179055565b60843515610faa57610dee610df79260005b60028701556003860180546001600160a01b03191633179055610de58760048801611781565b60058601611781565b60068401611781565b4260078301558051906001600160401b038211610f7757602090610e1e8360088601611925565b0160088301600052602060002060005b838110610f8d578585600981019060008255600354600160401b811015610f7757806001610e5f9201600355611959565b929092610f6157818303610eb4575b600154604080518181527fd3cc7c228a9442b3e32b7fb9e7ac4298594eeb118c36cbfbaf73feef8394627d91610ea6908201886112e6565b9260208201528033930390a2005b610f55600883600994548655610ee060ff600183015416600188019060ff801983541691151516179055565b600281015460028701556003860160018060a01b036003830154166bffffffffffffffffffffffff60a01b825416179055610f216004820160048801611994565b610f316005820160058801611994565b610f416006820160068801611994565b600781015460078701550160088501611a72565b54910155818080610e6e565b634e487b7160e01b600052600060045260246000fd5b634e487b7160e01b600052604160045260246000fd5b82516001600160a01b031681830155602090920191600101610e2e565b670de0b6b3a76400008060a435029060a43582041460a43515171561052b57610df7926103e8610dee9204610dbf565b60405162461bcd60e51b815260206004820152604d60248201527f446573637269626520796f757220616c62756d20746f206c657420746865207760448201527f6f726c64206b6e6f7720686f7720796f752066656c74207768656e20796f752060648201526c31b932b0ba32b2103a3434b99760991b608482015260a490fd5b60405162461bcd60e51b8152602060048201526012602482015271283632b0b9b29030b2321030903730b6b29760711b6044820152606490fd5b82356001600160a01b038116810361011657815260209283019201610ca2565b3461011657602080600319360112610116576004358015158061113f575b6110dc90611850565b600052600481526110f3600860406000200161189c565b906040519181839283018184528251809152816040850193019160005b82811061111f57505050500390f35b83516001600160a01b031685528695509381019392810192600101611110565b506001548111156110d3565b3461011657602080600319360112610116576004356001600160401b0381116101165761117c9036906004016113f7565b90611188331515611697565b60005b82518110156111e15733600052600582526040600020906111ac81856116e3565b51918054600160401b811015610f77576111cb9160018201815561170d565b610f61576001926111db91611781565b0161118b565b6040514281527fb782e3441c7b8dddc1c1f7273897e80478887bb10c5de03751a571614df7c7f260203392a2005b34610116576000366003190112610116573360005260206005815260406000209081549161123c8361137e565b9261124a604051948561135d565b8084528284018092600052836000206000915b8383106112c45750505050604051918083019381845251809452604083019360408160051b85010192916000955b8287106112985785850386f35b9091929382806112b4600193603f198a820301865288516112e6565b960192019601959291909261128b565b60018681926112d5859a999a6115f2565b81520192019201919095949561125d565b919082519283825260005b848110611312575050826000602080949584010152601f8019910116010190565b6020818301810151848301820152016112f1565b60c081019081106001600160401b03821117610f7757604052565b61014081019081106001600160401b03821117610f7757604052565b90601f801991011681019081106001600160401b03821117610f7757604052565b6001600160401b038111610f775760051b60200190565b6001600160401b038111610f7757601f01601f191660200190565b81601f82011215610116578035906113c782611395565b926113d5604051948561135d565b8284526020838301011161011657816000926020809301838601378301015290565b81601f82011215610116578035916020916114118461137e565b9361141f604051958661135d565b808552838086019160051b8301019280841161011657848301915b84831061144a5750505050505090565b82356001600160401b03811161011657869161146b848480948901016113b0565b81520192019161143a565b90610140918051825260209283820151151584840152604082015160408401526114ec6114da6114c860608501519360018060a01b0380951660608801526080860151908060808901528701906112e6565b60a085015186820360a08801526112e6565b60c084015185820360c08701526112e6565b60e083015160e0850152610100948584015195858303908601528080875193848152019601926000905b83821061152f5750505050506101208091015191015290565b8451811688529682019693820193600190910190611516565b908151815260a08061157e61156c602086015160c0602087015260c08601906112e6565b604086015185820360408701526112e6565b93600180831b03606082015116606085015260808101516080850152015191015290565b6040906003190112610116576004359060243590565b90600182811c921680156115e8575b60208310146115d257565b634e487b7160e01b600052602260045260246000fd5b91607f16916115c7565b90604051918260008254611605816115b8565b908184526020946001916001811690816000146116755750600114611636575b5050506116349250038361135d565b565b600090815285812095935091905b81831061165d5750506116349350820101388080611625565b85548884018501529485019487945091830191611644565b9250505061163494925060ff191682840152151560051b820101388080611625565b1561169e57565b60405162461bcd60e51b815260206004820152601a60248201527f4e6f207a65726f2061646472657373657320616c6c6f7765642e0000000000006044820152606490fd5b80518210156116f75760209160051b010190565b634e487b7160e01b600052603260045260246000fd5b80548210156116f75760005260206000200190600090565b818110611730575050565b60008155600101611725565b9190601f811161174b57505050565b611634926000526020600020906020601f840160051c83019310611777575b601f0160051c0190611725565b909150819061176a565b91909182516001600160401b038111610f77576117a8816117a284546115b8565b8461173c565b602080601f83116001146117eb575081906117dc9394956000926117e0575b50508160011b916000199060031b1c19161790565b9055565b0151905038806117c7565b90601f19831695846000526020600020926000905b8882106118385750508360019596971061181f575b505050811b019055565b015160001960f88460031b161c19169055388080611815565b80600185968294968601518155019501930190611800565b1561185757565b60405162461bcd60e51b815260206004820152601960248201527f5468697320616c62756d20646f6573206e6f74206578697374000000000000006044820152606490fd5b90604051918281549182825260209260208301916000526020600020936000905b8282106118d3575050506116349250038361135d565b85546001600160a01b0316845260019586019588955093810193909101906118bd565b600019811461052b5760010190565b9190820180921161052b57565b8181029291811591840414171561052b57565b90600160401b8111610f775781549080835581811061194357505050565b6116349260005260206000209182019101611725565b6003548110156116f757600a906003600052027fc2575a0e9e593c00f959f8c92f12db2869c3395a3b0502d05e2516446f71f85b0190600090565b90808214611a6e576119a681546115b8565b906001600160401b038211610f77576119c9826119c385546115b8565b8561173c565b600090601f8311600114611a04576117dc9291600091836119f95750508160011b916000199060031b1c19161790565b0154905038806117c7565b815260208082208483528183209291601f1985169083905b828210611a55575050908460019594939210611a3c57505050811b019055565b015460001960f88460031b161c19169055388080611815565b8495819295850154815560018091019601940190611a1c565b5050565b818114611a6e578154916001600160401b038311610f7757611a948383611925565b60005260206000209060005260206000208154916000925b848410611aba575050505050565b600191820180546001600160a01b0390921684860155939091019290611aac565b60405190611ae882611341565b8161012060009182815282602082015282604082015282606082015260606080820152606060a0820152606060c08201528260e082015260606101008201520152565b90604051611b3881611341565b82548152600183015460ff16151560208201526002830154604082015260038301546001600160a01b0316606082015291829061012090600990611b7e600482016115f2565b6080850152611b8f600582016115f2565b60a0850152611ba0600682016115f2565b60c0850152600781015460e0850152611bbb6008820161189c565b6101008501520154910152565b8054600160401b811015610f7757611be59160018201815561170d565b60018060a09493941b038084549260031b9316831b921b1916179055565b9190820391821161052b57565b3d15611c3b573d90611c2182611395565b91611c2f604051938461135d565b82523d6000602084013e565b606090565b15611c4757565b60405162461bcd60e51b815260206004820152602260248201527f466565207061796d656e7420746f20616c62756d206f776e6572206661696c65604482015261321760f11b6064820152608490fd5b15611c9e57565b60405162461bcd60e51b815260206004820152602260248201527f466565207061796d656e7420746f207472796265206f776e6572206661696c65604482015261321760f11b6064820152608490fd5b15611cf557565b60405162461bcd60e51b815260206004820152603360248201527f4f6e6c792074686f73652077686f2068617665206a6f696e656420746865206160448201527236313ab69039b2b2903a34329030b6313ab69760691b6064820152608490fd5b60405190611d6382611326565b600060a08382815260606020820152606060408201528260608201528260808201520152565b90604051611d9681611326565b60a06005829480548452611dac600182016115f2565b6020850152611dbd600282016115f2565b6040850152600180841b03600382015416606085015260048101546080850152015491015256fea2646970667358221220f00ee0c6bae9b45b7610624936feeda95cb408695a5848c3a43efcb1ab1c3fa664736f6c63430008180033",
          "opcodes": "PUSH1 0x80 CALLVALUE PUSH2 0x66 JUMPI PUSH1 0x1F PUSH2 0x1E9C CODESIZE DUP2 SWAP1 SUB SWAP2 DUP3 ADD PUSH1 0x1F NOT AND DUP4 ADD SWAP2 PUSH1 0x1 PUSH1 0x1 PUSH1 0x40 SHL SUB DUP4 GT DUP5 DUP5 LT OR PUSH2 0x6B JUMPI DUP1 DUP5 SWAP3 PUSH1 0x20 SWAP5 PUSH1 0x40 MSTORE DUP4 CODECOPY DUP2 ADD SUB SLT PUSH2 0x66 JUMPI MLOAD PUSH1 0x0 DUP1 SLOAD PUSH1 0x1 PUSH1 0x1 PUSH1 0xA0 SHL SUB NOT AND CALLER OR DUP2 SSTORE PUSH1 0x1 SSTORE PUSH1 0x2 SSTORE PUSH1 0x40 MLOAD PUSH2 0x1E1A SWAP1 DUP2 PUSH2 0x82 DUP3 CODECOPY RETURN JUMPDEST PUSH1 0x0 DUP1 REVERT JUMPDEST PUSH4 0x4E487B71 PUSH1 0xE0 SHL PUSH1 0x0 MSTORE PUSH1 0x41 PUSH1 0x4 MSTORE PUSH1 0x24 PUSH1 0x0 REVERT INVALID PUSH1 0x80 PUSH1 0x40 MSTORE PUSH1 0x4 CALLDATASIZE LT ISZERO PUSH2 0x12 JUMPI PUSH1 0x0 DUP1 REVERT JUMPDEST PUSH1 0x0 CALLDATALOAD PUSH1 0xE0 SHR DUP1 PUSH4 0x11498334 EQ PUSH2 0x120F JUMPI DUP1 PUSH4 0x25D72E3B EQ PUSH2 0x114B JUMPI DUP1 PUSH4 0x3B8F313B EQ PUSH2 0x10B5 JUMPI DUP1 PUSH4 0x45A1DB67 EQ PUSH2 0xBFC JUMPI DUP1 PUSH4 0x5C517234 EQ PUSH2 0xA16 JUMPI DUP1 PUSH4 0x6C4860FE EQ PUSH2 0x730 JUMPI DUP1 PUSH4 0x6D49F8CC EQ PUSH2 0x712 JUMPI DUP1 PUSH4 0x8D84D7FC EQ PUSH2 0x5A0 JUMPI DUP1 PUSH4 0x8DA5CB5B EQ PUSH2 0x577 JUMPI DUP1 PUSH4 0xB027A787 EQ PUSH2 0x39E JUMPI DUP1 PUSH4 0xBCE54720 EQ PUSH2 0x25A JUMPI DUP1 PUSH4 0xCED038D1 EQ PUSH2 0x11B JUMPI PUSH4 0xD6E465C9 EQ PUSH2 0xAB JUMPI PUSH1 0x0 DUP1 REVERT JUMPDEST CALLVALUE PUSH2 0x116 JUMPI PUSH1 0x20 CALLDATASIZE PUSH1 0x3 NOT ADD SLT PUSH2 0x116 JUMPI PUSH1 0x4 CALLDATALOAD PUSH2 0xC7 PUSH2 0x1ADB JUMP JUMPDEST POP DUP1 ISZERO ISZERO DUP1 PUSH2 0x10A JUMPI JUMPDEST PUSH2 0xDA SWAP1 PUSH2 0x1850 JUMP JUMPDEST PUSH1 0x0 MSTORE PUSH1 0x4 PUSH1 0x20 MSTORE PUSH2 0x106 PUSH2 0xF2 PUSH1 0x40 PUSH1 0x0 KECCAK256 PUSH2 0x1B2B JUMP JUMPDEST PUSH1 0x40 MLOAD SWAP2 DUP3 SWAP2 PUSH1 0x20 DUP4 MSTORE PUSH1 0x20 DUP4 ADD SWAP1 PUSH2 0x1476 JUMP JUMPDEST SUB SWAP1 RETURN JUMPDEST POP PUSH1 0x1 SLOAD DUP2 GT ISZERO PUSH2 0xD1 JUMP JUMPDEST PUSH1 0x0 DUP1 REVERT JUMPDEST CALLVALUE PUSH2 0x116 JUMPI PUSH2 0x129 CALLDATASIZE PUSH2 0x15A2 JUMP JUMPDEST SWAP1 PUSH2 0x132 PUSH2 0x1D56 JUMP JUMPDEST POP DUP1 ISZERO ISZERO DUP1 PUSH2 0x24E JUMPI JUMPDEST PUSH2 0x145 SWAP1 PUSH2 0x1850 JUMP JUMPDEST DUP2 ISZERO ISZERO DUP1 PUSH2 0x233 JUMPI JUMPDEST ISZERO PUSH2 0x1EE JUMPI PUSH1 0x0 SWAP1 PUSH1 0x0 JUMPDEST DUP2 PUSH1 0x0 MSTORE PUSH1 0x4 PUSH1 0x20 MSTORE PUSH1 0x8 PUSH1 0x40 PUSH1 0x0 KECCAK256 ADD DUP1 SLOAD DUP3 LT ISZERO PUSH2 0x1E2 JUMPI DUP2 PUSH2 0x17D SWAP2 PUSH2 0x170D JUMP JUMPDEST SWAP1 SLOAD PUSH1 0x3 SWAP2 SWAP1 SWAP2 SHL SHR PUSH1 0x1 PUSH1 0x1 PUSH1 0xA0 SHL SUB AND CALLER EQ PUSH2 0x19D JUMPI PUSH1 0x1 ADD PUSH2 0x159 JUMP JUMPDEST POP SWAP1 POP PUSH2 0x1AA PUSH1 0x1 PUSH2 0x1CEE JUMP JUMPDEST PUSH1 0x0 MSTORE PUSH1 0x6 PUSH1 0x20 MSTORE PUSH1 0x40 PUSH1 0x0 KECCAK256 SWAP1 PUSH1 0x0 MSTORE PUSH1 0x20 MSTORE PUSH2 0x106 PUSH2 0x1CE PUSH1 0x40 PUSH1 0x0 KECCAK256 PUSH2 0x1D89 JUMP JUMPDEST PUSH1 0x40 MLOAD SWAP2 DUP3 SWAP2 PUSH1 0x20 DUP4 MSTORE PUSH1 0x20 DUP4 ADD SWAP1 PUSH2 0x1548 JUMP JUMPDEST POP POP SWAP1 PUSH2 0x1AA SWAP1 PUSH2 0x1CEE JUMP JUMPDEST PUSH1 0x40 MLOAD PUSH3 0x461BCD PUSH1 0xE5 SHL DUP2 MSTORE PUSH1 0x20 PUSH1 0x4 DUP3 ADD MSTORE PUSH1 0x19 PUSH1 0x24 DUP3 ADD MSTORE PUSH32 0x5468697320696D61676520646F6573206E6F7420657869737400000000000000 PUSH1 0x44 DUP3 ADD MSTORE PUSH1 0x64 SWAP1 REVERT JUMPDEST POP DUP1 PUSH1 0x0 MSTORE PUSH1 0x4 PUSH1 0x20 MSTORE PUSH1 0x9 PUSH1 0x40 PUSH1 0x0 KECCAK256 ADD SLOAD DUP3 GT ISZERO PUSH2 0x14E JUMP JUMPDEST POP PUSH1 0x1 SLOAD DUP2 GT ISZERO PUSH2 0x13C JUMP JUMPDEST PUSH2 0x263 CALLDATASIZE PUSH2 0x15A2 JUMP JUMPDEST SWAP1 DUP1 ISZERO ISZERO DUP1 PUSH2 0x392 JUMPI JUMPDEST PUSH2 0x276 SWAP1 PUSH2 0x1850 JUMP JUMPDEST DUP1 PUSH1 0x0 MSTORE PUSH1 0x4 PUSH1 0x20 MSTORE PUSH1 0x40 PUSH1 0x0 KECCAK256 SWAP1 PUSH1 0x6 PUSH1 0x20 MSTORE PUSH1 0x40 PUSH1 0x0 KECCAK256 DUP4 PUSH1 0x0 MSTORE PUSH1 0x20 MSTORE PUSH1 0xFF PUSH1 0x1 PUSH1 0x40 PUSH1 0x0 KECCAK256 SWAP4 ADD SLOAD AND DUP1 ISZERO PUSH2 0x384 JUMPI JUMPDEST ISZERO PUSH2 0x33F JUMPI PUSH32 0x1AF01386275A45A15BE18388F65D960EC0439847260E1F66A817D80E8E5B0ADF SWAP3 PUSH2 0x332 PUSH1 0x0 DUP1 DUP1 DUP1 PUSH1 0x40 SWAP8 PUSH1 0x3 PUSH2 0x31F DUP4 DUP1 DUP1 DUP1 PUSH1 0x64 PUSH2 0x2F4 PUSH1 0x2 SLOAD CALLVALUE SWAP1 PUSH2 0x1912 JUMP JUMPDEST DIV SWAP7 PUSH2 0x300 DUP9 CALLVALUE PUSH2 0x1C03 JUMP JUMPDEST SWAP7 ADD SLOAD PUSH1 0x1 PUSH1 0x1 PUSH1 0xA0 SHL SUB SWAP7 SWAP1 DUP8 AND GAS CALL PUSH2 0x319 PUSH2 0x1C10 JUMP JUMPDEST POP PUSH2 0x1C40 JUMP JUMPDEST DUP3 SLOAD AND GAS CALL PUSH2 0x32C PUSH2 0x1C10 JUMP JUMPDEST POP PUSH2 0x1C97 JUMP JUMPDEST DUP3 MLOAD SWAP2 DUP3 MSTORE PUSH1 0x20 DUP3 ADD MSTORE LOG1 STOP JUMPDEST PUSH1 0x40 MLOAD PUSH3 0x461BCD PUSH1 0xE5 SHL DUP2 MSTORE PUSH1 0x20 PUSH1 0x4 DUP3 ADD MSTORE PUSH1 0x1E PUSH1 0x24 DUP3 ADD MSTORE PUSH32 0x546869732069732061207072697661746520616C62756D20696D6167652E0000 PUSH1 0x44 DUP3 ADD MSTORE PUSH1 0x64 SWAP1 REVERT JUMPDEST POP PUSH1 0x5 DUP3 ADD SLOAD CALLVALUE LT ISZERO PUSH2 0x2AA JUMP JUMPDEST POP PUSH1 0x1 SLOAD DUP2 GT ISZERO PUSH2 0x26D JUMP JUMPDEST CALLVALUE PUSH2 0x116 JUMPI PUSH1 0x20 DUP1 PUSH1 0x3 NOT CALLDATASIZE ADD SLT PUSH2 0x116 JUMPI PUSH1 0x4 CALLDATALOAD SWAP1 DUP2 ISZERO ISZERO DUP1 PUSH2 0x56B JUMPI JUMPDEST PUSH2 0x3C6 SWAP1 PUSH2 0x1850 JUMP JUMPDEST DUP2 PUSH1 0x0 MSTORE PUSH1 0x4 DUP2 MSTORE PUSH1 0x40 PUSH1 0x0 KECCAK256 SWAP1 PUSH1 0x0 SWAP2 PUSH1 0x0 JUMPDEST DUP5 PUSH1 0x0 MSTORE PUSH1 0x4 DUP4 MSTORE PUSH1 0x8 PUSH1 0x40 PUSH1 0x0 KECCAK256 ADD DUP1 SLOAD DUP3 LT ISZERO PUSH2 0x55D JUMPI DUP2 PUSH2 0x3FD SWAP2 PUSH2 0x170D JUMP JUMPDEST SWAP1 SLOAD PUSH1 0x3 SWAP2 SWAP1 SWAP2 SHL SHR PUSH1 0x1 PUSH1 0x1 PUSH1 0xA0 SHL SUB AND CALLER EQ PUSH2 0x41D JUMPI PUSH1 0x1 ADD PUSH2 0x3DA JUMP JUMPDEST POP PUSH1 0x9 SWAP2 SWAP3 POP PUSH2 0x42D PUSH1 0x1 PUSH2 0x1CEE JUMP JUMPDEST ADD SLOAD SWAP2 PUSH2 0x439 DUP4 PUSH2 0x137E JUMP JUMPDEST SWAP3 PUSH2 0x447 PUSH1 0x40 MLOAD SWAP5 DUP6 PUSH2 0x135D JUMP JUMPDEST DUP1 DUP5 MSTORE PUSH2 0x453 DUP2 PUSH2 0x137E JUMP JUMPDEST PUSH1 0x1F NOT ADD PUSH1 0x0 JUMPDEST DUP2 DUP2 LT PUSH2 0x541 JUMPI POP POP PUSH1 0x1 SWAP2 PUSH1 0x1 JUMPDEST DUP3 DUP2 GT ISZERO PUSH2 0x4D3 JUMPI POP POP POP PUSH1 0x40 MLOAD SWAP2 DUP1 DUP4 ADD DUP2 DUP5 MSTORE DUP5 MLOAD DUP1 SWAP2 MSTORE PUSH1 0x40 DUP5 ADD SWAP2 DUP1 PUSH1 0x40 DUP4 PUSH1 0x5 SHL DUP8 ADD ADD SWAP7 ADD SWAP3 PUSH1 0x0 SWAP1 JUMPDEST DUP4 DUP3 LT PUSH2 0x4A6 JUMPI DUP7 DUP9 SUB DUP8 RETURN JUMPDEST SWAP1 SWAP2 SWAP3 SWAP4 SWAP5 DUP4 DUP1 PUSH2 0x4C2 DUP4 SWAP11 PUSH1 0x3F NOT DUP12 DUP3 SUB ADD DUP7 MSTORE DUP10 MLOAD PUSH2 0x1548 JUMP JUMPDEST SWAP10 SWAP8 ADD SWAP6 SWAP5 SWAP4 SWAP2 SWAP1 SWAP2 ADD SWAP2 ADD PUSH2 0x499 JUMP JUMPDEST DUP2 PUSH1 0x0 SWAP7 SWAP5 SWAP7 MSTORE PUSH1 0x6 DUP6 MSTORE PUSH1 0x40 PUSH1 0x0 KECCAK256 DUP2 PUSH1 0x0 MSTORE DUP6 MSTORE PUSH1 0x40 PUSH1 0x0 KECCAK256 SWAP1 PUSH1 0x0 NOT DUP2 ADD SWAP2 DUP2 DUP4 GT PUSH2 0x52B JUMPI PUSH2 0x523 SWAP3 PUSH2 0x50C PUSH2 0x51D SWAP3 PUSH2 0x1D89 JUMP JUMPDEST PUSH2 0x516 DUP3 DUP10 PUSH2 0x16E3 JUMP JUMPDEST MSTORE DUP7 PUSH2 0x16E3 JUMP JUMPDEST POP PUSH2 0x18F6 JUMP JUMPDEST SWAP5 SWAP3 SWAP5 PUSH2 0x469 JUMP JUMPDEST PUSH4 0x4E487B71 PUSH1 0xE0 SHL PUSH1 0x0 MSTORE PUSH1 0x11 PUSH1 0x4 MSTORE PUSH1 0x24 PUSH1 0x0 REVERT JUMPDEST DUP5 SWAP1 PUSH2 0x54E SWAP7 SWAP5 SWAP7 PUSH2 0x1D56 JUMP JUMPDEST DUP3 DUP3 DUP8 ADD ADD MSTORE ADD SWAP5 SWAP3 SWAP5 PUSH2 0x45A JUMP JUMPDEST POP POP PUSH2 0x42D PUSH1 0x9 SWAP3 SWAP4 PUSH2 0x1CEE JUMP JUMPDEST POP PUSH1 0x1 SLOAD DUP3 GT ISZERO PUSH2 0x3BD JUMP JUMPDEST CALLVALUE PUSH2 0x116 JUMPI PUSH1 0x0 CALLDATASIZE PUSH1 0x3 NOT ADD SLT PUSH2 0x116 JUMPI PUSH1 0x0 SLOAD PUSH1 0x40 MLOAD PUSH1 0x1 PUSH1 0x1 PUSH1 0xA0 SHL SUB SWAP1 SWAP2 AND DUP2 MSTORE PUSH1 0x20 SWAP1 RETURN JUMPDEST PUSH1 0x20 CALLDATASIZE PUSH1 0x3 NOT ADD SLT PUSH2 0x116 JUMPI PUSH1 0x4 CALLDATALOAD DUP1 ISZERO ISZERO DUP1 PUSH2 0x706 JUMPI JUMPDEST PUSH2 0x5C1 SWAP1 PUSH2 0x1850 JUMP JUMPDEST DUP1 PUSH1 0x0 MSTORE PUSH1 0x4 PUSH1 0x20 MSTORE PUSH1 0x40 PUSH1 0x0 KECCAK256 PUSH1 0x1 SWAP2 PUSH1 0x1 DUP3 ADD SWAP1 PUSH1 0xFF DUP3 SLOAD AND DUP1 ISZERO PUSH2 0x6F8 JUMPI JUMPDEST ISZERO PUSH2 0x6B3 JUMPI PUSH1 0x8 SWAP1 PUSH2 0x5F8 CALLER PUSH1 0x8 DUP7 ADD PUSH2 0x1BC8 JUMP JUMPDEST PUSH1 0x0 DUP6 JUMPDEST PUSH2 0x665 JUMPI JUMPDEST POP POP POP PUSH1 0xFF SWAP2 SWAP3 POP SLOAD AND PUSH2 0x63E JUMPI JUMPDEST PUSH1 0x40 MLOAD TIMESTAMP DUP2 MSTORE PUSH32 0x59A4DADCE245655CE4C5EA128F142C4034B1206DEFF52FF605866CD86433DE81 PUSH1 0x20 CALLER SWAP3 LOG2 STOP JUMPDEST PUSH1 0x0 DUP1 DUP1 DUP1 PUSH2 0x65F SWAP5 PUSH1 0x3 PUSH2 0x31F DUP4 DUP1 DUP1 DUP1 PUSH1 0x64 PUSH2 0x2F4 PUSH1 0x2 SLOAD CALLVALUE SWAP1 PUSH2 0x1912 JUMP JUMPDEST DUP1 PUSH2 0x610 JUMP JUMPDEST PUSH1 0x3 SLOAD DUP2 LT ISZERO PUSH2 0x6AE JUMPI DUP2 PUSH2 0x679 DUP3 PUSH2 0x1959 JUMP JUMPDEST POP SLOAD EQ PUSH2 0x688 JUMPI DUP6 ADD DUP6 PUSH2 0x5FC JUMP JUMPDEST PUSH1 0xFF SWAP5 SWAP6 POP PUSH2 0x6A5 SWAP3 SWAP2 POP PUSH2 0x69C SWAP1 PUSH2 0x1959 JUMP JUMPDEST POP CALLER SWAP2 ADD PUSH2 0x1BC8 JUMP JUMPDEST DUP3 SWAP2 DUP5 DUP1 PUSH2 0x601 JUMP JUMPDEST PUSH2 0x601 JUMP JUMPDEST PUSH1 0x40 MLOAD PUSH3 0x461BCD PUSH1 0xE5 SHL DUP2 MSTORE PUSH1 0x20 PUSH1 0x4 DUP3 ADD MSTORE PUSH1 0x18 PUSH1 0x24 DUP3 ADD MSTORE PUSH32 0x546869732069732061207072697661746520616C62756D2E0000000000000000 PUSH1 0x44 DUP3 ADD MSTORE PUSH1 0x64 SWAP1 REVERT JUMPDEST POP PUSH1 0x2 DUP4 ADD SLOAD CALLVALUE LT ISZERO PUSH2 0x5E3 JUMP JUMPDEST POP PUSH1 0x1 SLOAD DUP2 GT ISZERO PUSH2 0x5B8 JUMP JUMPDEST CALLVALUE PUSH2 0x116 JUMPI PUSH1 0x0 CALLDATASIZE PUSH1 0x3 NOT ADD SLT PUSH2 0x116 JUMPI PUSH1 0x20 PUSH1 0x1 SLOAD PUSH1 0x40 MLOAD SWAP1 DUP2 MSTORE RETURN JUMPDEST CALLVALUE PUSH2 0x116 JUMPI PUSH1 0x80 CALLDATASIZE PUSH1 0x3 NOT ADD SLT PUSH2 0x116 JUMPI PUSH1 0x1 PUSH1 0x1 PUSH1 0x40 SHL SUB PUSH1 0x24 CALLDATALOAD DUP2 DUP2 GT PUSH2 0x116 JUMPI PUSH2 0x761 SWAP1 CALLDATASIZE SWAP1 PUSH1 0x4 ADD PUSH2 0x13F7 JUMP JUMPDEST SWAP1 PUSH1 0x44 CALLDATALOAD SWAP1 DUP2 GT PUSH2 0x116 JUMPI PUSH2 0x77A SWAP1 CALLDATASIZE SWAP1 PUSH1 0x4 ADD PUSH2 0x13B0 JUMP JUMPDEST SWAP1 PUSH1 0x4 CALLDATALOAD ISZERO ISZERO DUP1 PUSH2 0xA08 JUMPI JUMPDEST PUSH2 0x78F SWAP1 PUSH2 0x1850 JUMP JUMPDEST PUSH1 0x4 CALLDATALOAD PUSH1 0x0 MSTORE PUSH1 0x4 PUSH1 0x20 MSTORE PUSH1 0x40 PUSH1 0x0 KECCAK256 SWAP1 PUSH1 0x0 DUP1 PUSH1 0x8 DUP5 ADD DUP1 SLOAD SWAP2 JUMPDEST DUP3 DUP2 LT PUSH2 0x9D0 JUMPI JUMPDEST POP POP POP ISZERO PUSH2 0x96C JUMPI PUSH1 0x0 SWAP1 JUMPDEST DUP1 MLOAD DUP3 LT ISZERO PUSH2 0x934 JUMPI PUSH2 0x7D5 PUSH1 0x9 DUP5 ADD SLOAD PUSH2 0x18F6 JUMP JUMPDEST PUSH1 0x9 DUP5 ADD SSTORE PUSH1 0x0 JUMPDEST PUSH1 0x3 SLOAD DUP2 LT ISZERO PUSH2 0x822 JUMPI DUP1 PUSH2 0x7F3 PUSH1 0x1 SWAP3 PUSH2 0x1959 JUMP JUMPDEST POP SLOAD PUSH1 0x4 CALLDATALOAD EQ PUSH2 0x804 JUMPI JUMPDEST ADD PUSH2 0x7DD JUMP JUMPDEST PUSH1 0x9 PUSH2 0x80F DUP3 PUSH2 0x1959 JUMP JUMPDEST POP ADD PUSH2 0x81B DUP2 SLOAD PUSH2 0x18F6 JUMP JUMPDEST SWAP1 SSTORE PUSH2 0x7FE JUMP JUMPDEST POP SWAP1 PUSH1 0x9 DUP4 ADD SLOAD SWAP1 PUSH2 0x834 DUP2 DUP4 PUSH2 0x1905 JUMP JUMPDEST PUSH2 0x83E DUP3 DUP6 PUSH2 0x16E3 JUMP JUMPDEST MLOAD PUSH1 0x1 DUP7 ADD SLOAD PUSH1 0xFF AND ISZERO PUSH2 0x901 JUMPI PUSH1 0x5 SWAP1 PUSH1 0x1 SWAP5 PUSH1 0x0 SWAP2 JUMPDEST PUSH1 0x40 MLOAD SWAP5 PUSH2 0x863 DUP7 PUSH2 0x1326 JUMP JUMPDEST DUP6 MSTORE PUSH1 0x20 DUP6 ADD SWAP1 DUP2 MSTORE PUSH2 0x8CC PUSH1 0x40 DUP7 ADD DUP12 DUP2 MSTORE PUSH2 0x8C2 PUSH1 0x60 DUP9 ADD SWAP4 CALLER DUP6 MSTORE PUSH1 0x80 DUP10 ADD SWAP6 TIMESTAMP DUP8 MSTORE PUSH1 0xA0 DUP11 ADD SWAP8 DUP9 MSTORE PUSH1 0x4 CALLDATALOAD PUSH1 0x0 MSTORE PUSH1 0x6 PUSH1 0x20 MSTORE PUSH2 0x8AA DUP12 PUSH1 0x40 PUSH1 0x0 KECCAK256 SWAP3 PUSH2 0x1905 JUMP JUMPDEST PUSH1 0x0 MSTORE PUSH1 0x20 MSTORE PUSH1 0x40 PUSH1 0x0 KECCAK256 SWAP9 MLOAD DUP10 SSTORE MLOAD DUP11 DUP10 ADD PUSH2 0x1781 JUMP JUMPDEST MLOAD PUSH1 0x2 DUP8 ADD PUSH2 0x1781 JUMP JUMPDEST PUSH1 0x3 DUP6 ADD SWAP1 DUP8 DUP1 PUSH1 0xA0 SHL SUB SWAP1 MLOAD AND PUSH12 0xFFFFFFFFFFFFFFFFFFFFFFFF PUSH1 0xA0 SHL DUP3 SLOAD AND OR SWAP1 SSTORE MLOAD PUSH1 0x4 DUP5 ADD SSTORE MLOAD SWAP2 ADD SSTORE ADD SWAP1 PUSH2 0x7BF JUMP JUMPDEST PUSH8 0xDE0B6B3A7640000 SWAP1 PUSH1 0x64 CALLDATALOAD DUP3 PUSH1 0x64 CALLDATALOAD MUL DIV DUP3 EQ PUSH1 0x64 CALLDATALOAD ISZERO OR ISZERO PUSH2 0x52B JUMPI PUSH1 0x1 SWAP5 PUSH2 0x3E8 PUSH1 0x5 SWAP4 PUSH1 0x64 CALLDATALOAD MUL DIV SWAP2 PUSH2 0x856 JUMP JUMPDEST PUSH32 0x5138483D623EEF75882D5CA6ED33E44C7ECAFE842F3311844EABF67A297CE76C PUSH1 0x40 PUSH1 0x9 DUP6 ADD SLOAD DUP2 MLOAD SWAP1 PUSH1 0x4 CALLDATALOAD DUP3 MSTORE PUSH1 0x20 DUP3 ADD MSTORE LOG1 STOP JUMPDEST PUSH1 0x40 MLOAD PUSH3 0x461BCD PUSH1 0xE5 SHL DUP2 MSTORE PUSH1 0x20 PUSH1 0x4 DUP3 ADD MSTORE PUSH1 0x36 PUSH1 0x24 DUP3 ADD MSTORE PUSH32 0x4F6E6C792074686F73652077686F2068617665206A6F696E6564207468652061 PUSH1 0x44 DUP3 ADD MSTORE PUSH22 0x36313AB69031B0B71030B2321030B71034B6B0B3B297 PUSH1 0x51 SHL PUSH1 0x64 DUP3 ADD MSTORE PUSH1 0x84 SWAP1 REVERT JUMPDEST PUSH2 0x9DA DUP2 DUP4 PUSH2 0x170D JUMP JUMPDEST SWAP1 SLOAD PUSH1 0x3 SWAP2 SWAP1 SWAP2 SHL SHR PUSH1 0x1 PUSH1 0x1 PUSH1 0xA0 SHL SUB AND CALLER EQ PUSH2 0x9FA JUMPI PUSH1 0x1 ADD PUSH2 0x7AB JUMP JUMPDEST POP POP POP POP PUSH1 0x1 DUP5 DUP1 DUP1 PUSH2 0x7B3 JUMP JUMPDEST POP PUSH1 0x1 SLOAD PUSH1 0x4 CALLDATALOAD GT ISZERO PUSH2 0x786 JUMP JUMPDEST CALLVALUE PUSH2 0x116 JUMPI PUSH1 0x0 CALLDATASIZE PUSH1 0x3 NOT ADD SLT PUSH2 0x116 JUMPI PUSH1 0x0 DUP1 PUSH1 0x3 DUP1 SLOAD SWAP3 JUMPDEST DUP4 DUP2 LT PUSH2 0xB92 JUMPI POP PUSH2 0xA5A PUSH2 0xA44 DUP4 PUSH2 0x137E JUMP JUMPDEST SWAP3 PUSH2 0xA52 PUSH1 0x40 MLOAD SWAP5 DUP6 PUSH2 0x135D JUMP JUMPDEST DUP1 DUP5 MSTORE PUSH2 0x137E JUMP JUMPDEST PUSH1 0x20 SWAP4 SWAP1 PUSH1 0x1F NOT ADD DUP5 PUSH1 0x0 JUMPDEST DUP3 DUP2 LT PUSH2 0xB7C JUMPI POP POP POP SWAP1 PUSH1 0x0 SWAP2 PUSH1 0x0 SWAP1 JUMPDEST DUP1 DUP3 LT PUSH2 0xADD JUMPI PUSH1 0x40 DUP1 MLOAD DUP8 DUP2 MSTORE DUP7 MLOAD DUP2 DUP10 ADD DUP2 SWAP1 MSTORE PUSH1 0x0 SWAP3 PUSH1 0x5 DUP3 SWAP1 SHL DUP4 ADD DUP2 ADD SWAP2 DUP10 DUP12 ADD SWAP2 DUP12 SWAP1 DUP6 ADD JUMPDEST DUP3 DUP8 LT PUSH2 0xAB1 JUMPI DUP6 DUP6 SUB DUP7 RETURN JUMPDEST SWAP1 SWAP2 SWAP3 SWAP4 DUP3 DUP1 PUSH2 0xACD PUSH1 0x1 SWAP4 PUSH1 0x3F NOT DUP11 DUP3 SUB ADD DUP7 MSTORE DUP9 MLOAD PUSH2 0x1476 JUMP JUMPDEST SWAP7 ADD SWAP3 ADD SWAP7 ADD SWAP6 SWAP3 SWAP2 SWAP1 SWAP3 PUSH2 0xAA4 JUMP JUMPDEST SWAP1 SWAP3 SWAP5 PUSH1 0x0 SWAP5 SWAP3 SWAP5 JUMPDEST PUSH2 0xAEF DUP6 PUSH2 0x1959 JUMP JUMPDEST POP PUSH1 0x8 DUP1 SWAP2 ADD SLOAD DUP3 LT ISZERO PUSH2 0xB6D JUMPI DUP2 PUSH2 0xB12 SWAP2 PUSH2 0xB0B DUP9 PUSH2 0x1959 JUMP JUMPDEST POP ADD PUSH2 0x170D JUMP JUMPDEST SWAP1 SLOAD SWAP1 DUP8 SHL SHR PUSH1 0x1 PUSH1 0x1 PUSH1 0xA0 SHL SUB AND CALLER EQ PUSH2 0xB2F JUMPI PUSH1 0x1 ADD PUSH2 0xAE6 JUMP JUMPDEST POP SWAP5 PUSH2 0xB62 PUSH1 0x1 SWAP2 PUSH2 0xB4D PUSH2 0xB47 DUP8 SWAP6 SWAP7 SWAP9 SWAP8 PUSH2 0x1959 JUMP JUMPDEST POP PUSH2 0x1B2B JUMP JUMPDEST PUSH2 0xB57 DUP3 DUP10 PUSH2 0x16E3 JUMP JUMPDEST MSTORE PUSH2 0x51D DUP2 DUP9 PUSH2 0x16E3 JUMP JUMPDEST SWAP2 JUMPDEST ADD SWAP1 SWAP3 SWAP2 PUSH2 0xA78 JUMP JUMPDEST POP POP SWAP5 SWAP1 SWAP2 SWAP4 SWAP3 PUSH1 0x1 SWAP1 PUSH2 0xB64 JUMP JUMPDEST PUSH2 0xB84 PUSH2 0x1ADB JUMP JUMPDEST DUP3 DUP3 DUP9 ADD ADD MSTORE ADD DUP6 SWAP1 PUSH2 0xA66 JUMP JUMPDEST SWAP1 SWAP2 PUSH1 0x0 JUMPDEST PUSH2 0xBA0 DUP4 PUSH2 0x1959 JUMP JUMPDEST POP PUSH1 0x8 DUP1 SWAP2 ADD SLOAD DUP3 LT ISZERO PUSH2 0xBF0 JUMPI DUP2 PUSH2 0xBBC SWAP2 PUSH2 0xB0B DUP7 PUSH2 0x1959 JUMP JUMPDEST SWAP1 SLOAD SWAP1 DUP6 SHL SHR PUSH1 0x1 PUSH1 0x1 PUSH1 0xA0 SHL SUB AND CALLER EQ PUSH2 0xBD9 JUMPI PUSH1 0x1 ADD PUSH2 0xB97 JUMP JUMPDEST POP PUSH2 0xBE8 PUSH1 0x1 SWAP2 SWAP4 SWAP3 SWAP4 PUSH2 0x18F6 JUMP JUMPDEST SWAP3 JUMPDEST ADD PUSH2 0xA30 JUMP JUMPDEST POP POP SWAP2 SWAP1 PUSH1 0x1 SWAP1 PUSH2 0xBEA JUMP JUMPDEST CALLVALUE PUSH2 0x116 JUMPI PUSH1 0xC0 CALLDATASIZE PUSH1 0x3 NOT ADD SLT PUSH2 0x116 JUMPI PUSH1 0x4 CALLDATALOAD PUSH1 0x1 PUSH1 0x1 PUSH1 0x40 SHL SUB DUP2 GT PUSH2 0x116 JUMPI PUSH2 0xC2C SWAP1 CALLDATASIZE SWAP1 PUSH1 0x4 ADD PUSH2 0x13B0 JUMP JUMPDEST PUSH1 0x24 CALLDATALOAD PUSH1 0x1 PUSH1 0x1 PUSH1 0x40 SHL SUB DUP2 GT PUSH2 0x116 JUMPI PUSH2 0xC4B SWAP1 CALLDATASIZE SWAP1 PUSH1 0x4 ADD PUSH2 0x13B0 JUMP JUMPDEST SWAP1 PUSH1 0x44 CALLDATALOAD SWAP2 PUSH1 0x1 PUSH1 0x1 PUSH1 0x40 SHL SUB DUP4 GT PUSH2 0x116 JUMPI CALLDATASIZE PUSH1 0x23 DUP5 ADD SLT ISZERO PUSH2 0x116 JUMPI DUP3 PUSH1 0x4 ADD CALLDATALOAD PUSH2 0xC77 DUP2 PUSH2 0x137E JUMP JUMPDEST SWAP4 PUSH2 0xC85 PUSH1 0x40 MLOAD SWAP6 DUP7 PUSH2 0x135D JUMP JUMPDEST DUP2 DUP6 MSTORE PUSH1 0x24 PUSH1 0x20 DUP7 ADD SWAP3 PUSH1 0x5 SHL DUP3 ADD ADD SWAP1 CALLDATASIZE DUP3 GT PUSH2 0x116 JUMPI PUSH1 0x24 ADD SWAP2 JUMPDEST DUP2 DUP4 LT PUSH2 0x1095 JUMPI POP POP POP PUSH1 0x64 CALLDATALOAD PUSH1 0x1 PUSH1 0x1 PUSH1 0x40 SHL SUB DUP2 GT PUSH2 0x116 JUMPI PUSH2 0xCCB SWAP1 CALLDATASIZE SWAP1 PUSH1 0x4 ADD PUSH2 0x13B0 JUMP JUMPDEST SWAP2 PUSH1 0x84 CALLDATALOAD ISZERO ISZERO PUSH1 0x84 CALLDATALOAD SUB PUSH2 0x116 JUMPI PUSH2 0xCE4 CALLER ISZERO ISZERO PUSH2 0x1697 JUMP JUMPDEST DUP1 MLOAD ISZERO PUSH2 0x105B JUMPI DUP2 MLOAD ISZERO PUSH2 0xFDA JUMPI PUSH2 0xCFD PUSH1 0x1 SLOAD PUSH2 0x18F6 JUMP JUMPDEST DUP1 PUSH1 0x1 SSTORE DUP5 MLOAD SWAP3 PUSH1 0x1 DUP5 ADD DUP1 SWAP5 GT PUSH2 0x52B JUMPI PUSH2 0xD31 PUSH2 0xD1B DUP6 PUSH2 0x137E JUMP JUMPDEST SWAP5 PUSH2 0xD29 PUSH1 0x40 MLOAD SWAP7 DUP8 PUSH2 0x135D JUMP JUMPDEST DUP1 DUP7 MSTORE PUSH2 0x137E JUMP JUMPDEST PUSH1 0x1F NOT ADD CALLDATASIZE PUSH1 0x20 DUP7 ADD CALLDATACOPY PUSH1 0x0 JUMPDEST DUP7 MLOAD DUP2 LT ISZERO PUSH2 0xD6F JUMPI PUSH1 0x1 SWAP1 PUSH1 0x1 PUSH1 0x1 PUSH1 0xA0 SHL SUB PUSH2 0xD5C DUP3 DUP11 PUSH2 0x16E3 JUMP JUMPDEST MLOAD AND PUSH2 0xD68 DUP3 DUP9 PUSH2 0x16E3 JUMP JUMPDEST MSTORE ADD PUSH2 0xD3E JUMP JUMPDEST POP DUP4 SWAP1 DUP6 DUP8 PUSH2 0xD80 CALLER SWAP2 MLOAD DUP6 PUSH2 0x16E3 JUMP JUMPDEST MSTORE DUP4 PUSH1 0x0 MSTORE PUSH1 0x4 PUSH1 0x20 MSTORE PUSH1 0x40 PUSH1 0x0 KECCAK256 SWAP4 DUP5 SSTORE PUSH2 0xDAD PUSH1 0x84 CALLDATALOAD PUSH1 0x1 DUP7 ADD SWAP1 PUSH1 0xFF DUP1 NOT DUP4 SLOAD AND SWAP2 ISZERO ISZERO AND OR SWAP1 SSTORE JUMP JUMPDEST PUSH1 0x84 CALLDATALOAD ISZERO PUSH2 0xFAA JUMPI PUSH2 0xDEE PUSH2 0xDF7 SWAP3 PUSH1 0x0 JUMPDEST PUSH1 0x2 DUP8 ADD SSTORE PUSH1 0x3 DUP7 ADD DUP1 SLOAD PUSH1 0x1 PUSH1 0x1 PUSH1 0xA0 SHL SUB NOT AND CALLER OR SWAP1 SSTORE PUSH2 0xDE5 DUP8 PUSH1 0x4 DUP9 ADD PUSH2 0x1781 JUMP JUMPDEST PUSH1 0x5 DUP7 ADD PUSH2 0x1781 JUMP JUMPDEST PUSH1 0x6 DUP5 ADD PUSH2 0x1781 JUMP JUMPDEST TIMESTAMP PUSH1 0x7 DUP4 ADD SSTORE DUP1 MLOAD SWAP1 PUSH1 0x1 PUSH1 0x1 PUSH1 0x40 SHL SUB DUP3 GT PUSH2 0xF77 JUMPI PUSH1 0x20 SWAP1 PUSH2 0xE1E DUP4 PUSH1 0x8 DUP7 ADD PUSH2 0x1925 JUMP JUMPDEST ADD PUSH1 0x8 DUP4 ADD PUSH1 0x0 MSTORE PUSH1 0x20 PUSH1 0x0 KECCAK256 PUSH1 0x0 JUMPDEST DUP4 DUP2 LT PUSH2 0xF8D JUMPI DUP6 DUP6 PUSH1 0x9 DUP2 ADD SWAP1 PUSH1 0x0 DUP3 SSTORE PUSH1 0x3 SLOAD PUSH1 0x1 PUSH1 0x40 SHL DUP2 LT ISZERO PUSH2 0xF77 JUMPI DUP1 PUSH1 0x1 PUSH2 0xE5F SWAP3 ADD PUSH1 0x3 SSTORE PUSH2 0x1959 JUMP JUMPDEST SWAP3 SWAP1 SWAP3 PUSH2 0xF61 JUMPI DUP2 DUP4 SUB PUSH2 0xEB4 JUMPI JUMPDEST PUSH1 0x1 SLOAD PUSH1 0x40 DUP1 MLOAD DUP2 DUP2 MSTORE PUSH32 0xD3CC7C228A9442B3E32B7FB9E7AC4298594EEB118C36CBFBAF73FEEF8394627D SWAP2 PUSH2 0xEA6 SWAP1 DUP3 ADD DUP9 PUSH2 0x12E6 JUMP JUMPDEST SWAP3 PUSH1 0x20 DUP3 ADD MSTORE DUP1 CALLER SWAP4 SUB SWAP1 LOG2 STOP JUMPDEST PUSH2 0xF55 PUSH1 0x8 DUP4 PUSH1 0x9 SWAP5 SLOAD DUP7 SSTORE PUSH2 0xEE0 PUSH1 0xFF PUSH1 0x1 DUP4 ADD SLOAD AND PUSH1 0x1 DUP9 ADD SWAP1 PUSH1 0xFF DUP1 NOT DUP4 SLOAD AND SWAP2 ISZERO ISZERO AND OR SWAP1 SSTORE JUMP JUMPDEST PUSH1 0x2 DUP2 ADD SLOAD PUSH1 0x2 DUP8 ADD SSTORE PUSH1 0x3 DUP7 ADD PUSH1 0x1 DUP1 PUSH1 0xA0 SHL SUB PUSH1 0x3 DUP4 ADD SLOAD AND PUSH12 0xFFFFFFFFFFFFFFFFFFFFFFFF PUSH1 0xA0 SHL DUP3 SLOAD AND OR SWAP1 SSTORE PUSH2 0xF21 PUSH1 0x4 DUP3 ADD PUSH1 0x4 DUP9 ADD PUSH2 0x1994 JUMP JUMPDEST PUSH2 0xF31 PUSH1 0x5 DUP3 ADD PUSH1 0x5 DUP9 ADD PUSH2 0x1994 JUMP JUMPDEST PUSH2 0xF41 PUSH1 0x6 DUP3 ADD PUSH1 0x6 DUP9 ADD PUSH2 0x1994 JUMP JUMPDEST PUSH1 0x7 DUP2 ADD SLOAD PUSH1 0x7 DUP8 ADD SSTORE ADD PUSH1 0x8 DUP6 ADD PUSH2 0x1A72 JUMP JUMPDEST SLOAD SWAP2 ADD SSTORE DUP2 DUP1 DUP1 PUSH2 0xE6E JUMP JUMPDEST PUSH4 0x4E487B71 PUSH1 0xE0 SHL PUSH1 0x0 MSTORE PUSH1 0x0 PUSH1 0x4 MSTORE PUSH1 0x24 PUSH1 0x0 REVERT JUMPDEST PUSH4 0x4E487B71 PUSH1 0xE0 SHL PUSH1 0x0 MSTORE PUSH1 0x41 PUSH1 0x4 MSTORE PUSH1 0x24 PUSH1 0x0 REVERT JUMPDEST DUP3 MLOAD PUSH1 0x1 PUSH1 0x1 PUSH1 0xA0 SHL SUB AND DUP2 DUP4 ADD SSTORE PUSH1 0x20 SWAP1 SWAP3 ADD SWAP2 PUSH1 0x1 ADD PUSH2 0xE2E JUMP JUMPDEST PUSH8 0xDE0B6B3A7640000 DUP1 PUSH1 0xA4 CALLDATALOAD MUL SWAP1 PUSH1 0xA4 CALLDATALOAD DUP3 DIV EQ PUSH1 0xA4 CALLDATALOAD ISZERO OR ISZERO PUSH2 0x52B JUMPI PUSH2 0xDF7 SWAP3 PUSH2 0x3E8 PUSH2 0xDEE SWAP3 DIV PUSH2 0xDBF JUMP JUMPDEST PUSH1 0x40 MLOAD PUSH3 0x461BCD PUSH1 0xE5 SHL DUP2 MSTORE PUSH1 0x20 PUSH1 0x4 DUP3 ADD MSTORE PUSH1 0x4D PUSH1 0x24 DUP3 ADD MSTORE PUSH32 0x446573637269626520796F757220616C62756D20746F206C6574207468652077 PUSH1 0x44 DUP3 ADD MSTORE PUSH32 0x6F726C64206B6E6F7720686F7720796F752066656C74207768656E20796F7520 PUSH1 0x64 DUP3 ADD MSTORE PUSH13 0x31B932B0BA32B2103A3434B997 PUSH1 0x99 SHL PUSH1 0x84 DUP3 ADD MSTORE PUSH1 0xA4 SWAP1 REVERT JUMPDEST PUSH1 0x40 MLOAD PUSH3 0x461BCD PUSH1 0xE5 SHL DUP2 MSTORE PUSH1 0x20 PUSH1 0x4 DUP3 ADD MSTORE PUSH1 0x12 PUSH1 0x24 DUP3 ADD MSTORE PUSH18 0x283632B0B9B29030B2321030903730B6B297 PUSH1 0x71 SHL PUSH1 0x44 DUP3 ADD MSTORE PUSH1 0x64 SWAP1 REVERT JUMPDEST DUP3 CALLDATALOAD PUSH1 0x1 PUSH1 0x1 PUSH1 0xA0 SHL SUB DUP2 AND DUP2 SUB PUSH2 0x116 JUMPI DUP2 MSTORE PUSH1 0x20 SWAP3 DUP4 ADD SWAP3 ADD PUSH2 0xCA2 JUMP JUMPDEST CALLVALUE PUSH2 0x116 JUMPI PUSH1 0x20 DUP1 PUSH1 0x3 NOT CALLDATASIZE ADD SLT PUSH2 0x116 JUMPI PUSH1 0x4 CALLDATALOAD DUP1 ISZERO ISZERO DUP1 PUSH2 0x113F JUMPI JUMPDEST PUSH2 0x10DC SWAP1 PUSH2 0x1850 JUMP JUMPDEST PUSH1 0x0 MSTORE PUSH1 0x4 DUP2 MSTORE PUSH2 0x10F3 PUSH1 0x8 PUSH1 0x40 PUSH1 0x0 KECCAK256 ADD PUSH2 0x189C JUMP JUMPDEST SWAP1 PUSH1 0x40 MLOAD SWAP2 DUP2 DUP4 SWAP3 DUP4 ADD DUP2 DUP5 MSTORE DUP3 MLOAD DUP1 SWAP2 MSTORE DUP2 PUSH1 0x40 DUP6 ADD SWAP4 ADD SWAP2 PUSH1 0x0 JUMPDEST DUP3 DUP2 LT PUSH2 0x111F JUMPI POP POP POP POP SUB SWAP1 RETURN JUMPDEST DUP4 MLOAD PUSH1 0x1 PUSH1 0x1 PUSH1 0xA0 SHL SUB AND DUP6 MSTORE DUP7 SWAP6 POP SWAP4 DUP2 ADD SWAP4 SWAP3 DUP2 ADD SWAP3 PUSH1 0x1 ADD PUSH2 0x1110 JUMP JUMPDEST POP PUSH1 0x1 SLOAD DUP2 GT ISZERO PUSH2 0x10D3 JUMP JUMPDEST CALLVALUE PUSH2 0x116 JUMPI PUSH1 0x20 DUP1 PUSH1 0x3 NOT CALLDATASIZE ADD SLT PUSH2 0x116 JUMPI PUSH1 0x4 CALLDATALOAD PUSH1 0x1 PUSH1 0x1 PUSH1 0x40 SHL SUB DUP2 GT PUSH2 0x116 JUMPI PUSH2 0x117C SWAP1 CALLDATASIZE SWAP1 PUSH1 0x4 ADD PUSH2 0x13F7 JUMP JUMPDEST SWAP1 PUSH2 0x1188 CALLER ISZERO ISZERO PUSH2 0x1697 JUMP JUMPDEST PUSH1 0x0 JUMPDEST DUP3 MLOAD DUP2 LT ISZERO PUSH2 0x11E1 JUMPI CALLER PUSH1 0x0 MSTORE PUSH1 0x5 DUP3 MSTORE PUSH1 0x40 PUSH1 0x0 KECCAK256 SWAP1 PUSH2 0x11AC DUP2 DUP6 PUSH2 0x16E3 JUMP JUMPDEST MLOAD SWAP2 DUP1 SLOAD PUSH1 0x1 PUSH1 0x40 SHL DUP2 LT ISZERO PUSH2 0xF77 JUMPI PUSH2 0x11CB SWAP2 PUSH1 0x1 DUP3 ADD DUP2 SSTORE PUSH2 0x170D JUMP JUMPDEST PUSH2 0xF61 JUMPI PUSH1 0x1 SWAP3 PUSH2 0x11DB SWAP2 PUSH2 0x1781 JUMP JUMPDEST ADD PUSH2 0x118B JUMP JUMPDEST PUSH1 0x40 MLOAD TIMESTAMP DUP2 MSTORE PUSH32 0xB782E3441C7B8DDDC1C1F7273897E80478887BB10C5DE03751A571614DF7C7F2 PUSH1 0x20 CALLER SWAP3 LOG2 STOP JUMPDEST CALLVALUE PUSH2 0x116 JUMPI PUSH1 0x0 CALLDATASIZE PUSH1 0x3 NOT ADD SLT PUSH2 0x116 JUMPI CALLER PUSH1 0x0 MSTORE PUSH1 0x20 PUSH1 0x5 DUP2 MSTORE PUSH1 0x40 PUSH1 0x0 KECCAK256 SWAP1 DUP2 SLOAD SWAP2 PUSH2 0x123C DUP4 PUSH2 0x137E JUMP JUMPDEST SWAP3 PUSH2 0x124A PUSH1 0x40 MLOAD SWAP5 DUP6 PUSH2 0x135D JUMP JUMPDEST DUP1 DUP5 MSTORE DUP3 DUP5 ADD DUP1 SWAP3 PUSH1 0x0 MSTORE DUP4 PUSH1 0x0 KECCAK256 PUSH1 0x0 SWAP2 JUMPDEST DUP4 DUP4 LT PUSH2 0x12C4 JUMPI POP POP POP POP PUSH1 0x40 MLOAD SWAP2 DUP1 DUP4 ADD SWAP4 DUP2 DUP5 MSTORE MLOAD DUP1 SWAP5 MSTORE PUSH1 0x40 DUP4 ADD SWAP4 PUSH1 0x40 DUP2 PUSH1 0x5 SHL DUP6 ADD ADD SWAP3 SWAP2 PUSH1 0x0 SWAP6 JUMPDEST DUP3 DUP8 LT PUSH2 0x1298 JUMPI DUP6 DUP6 SUB DUP7 RETURN JUMPDEST SWAP1 SWAP2 SWAP3 SWAP4 DUP3 DUP1 PUSH2 0x12B4 PUSH1 0x1 SWAP4 PUSH1 0x3F NOT DUP11 DUP3 SUB ADD DUP7 MSTORE DUP9 MLOAD PUSH2 0x12E6 JUMP JUMPDEST SWAP7 ADD SWAP3 ADD SWAP7 ADD SWAP6 SWAP3 SWAP2 SWAP1 SWAP3 PUSH2 0x128B JUMP JUMPDEST PUSH1 0x1 DUP7 DUP2 SWAP3 PUSH2 0x12D5 DUP6 SWAP11 SWAP10 SWAP11 PUSH2 0x15F2 JUMP JUMPDEST DUP2 MSTORE ADD SWAP3 ADD SWAP3 ADD SWAP2 SWAP1 SWAP6 SWAP5 SWAP6 PUSH2 0x125D JUMP JUMPDEST SWAP2 SWAP1 DUP3 MLOAD SWAP3 DUP4 DUP3 MSTORE PUSH1 0x0 JUMPDEST DUP5 DUP2 LT PUSH2 0x1312 JUMPI POP POP DUP3 PUSH1 0x0 PUSH1 0x20 DUP1 SWAP5 SWAP6 DUP5 ADD ADD MSTORE PUSH1 0x1F DUP1 NOT SWAP2 ADD AND ADD ADD SWAP1 JUMP JUMPDEST PUSH1 0x20 DUP2 DUP4 ADD DUP2 ADD MLOAD DUP5 DUP4 ADD DUP3 ADD MSTORE ADD PUSH2 0x12F1 JUMP JUMPDEST PUSH1 0xC0 DUP2 ADD SWAP1 DUP2 LT PUSH1 0x1 PUSH1 0x1 PUSH1 0x40 SHL SUB DUP3 GT OR PUSH2 0xF77 JUMPI PUSH1 0x40 MSTORE JUMP JUMPDEST PUSH2 0x140 DUP2 ADD SWAP1 DUP2 LT PUSH1 0x1 PUSH1 0x1 PUSH1 0x40 SHL SUB DUP3 GT OR PUSH2 0xF77 JUMPI PUSH1 0x40 MSTORE JUMP JUMPDEST SWAP1 PUSH1 0x1F DUP1 NOT SWAP2 ADD AND DUP2 ADD SWAP1 DUP2 LT PUSH1 0x1 PUSH1 0x1 PUSH1 0x40 SHL SUB DUP3 GT OR PUSH2 0xF77 JUMPI PUSH1 0x40 MSTORE JUMP JUMPDEST PUSH1 0x1 PUSH1 0x1 PUSH1 0x40 SHL SUB DUP2 GT PUSH2 0xF77 JUMPI PUSH1 0x5 SHL PUSH1 0x20 ADD SWAP1 JUMP JUMPDEST PUSH1 0x1 PUSH1 0x1 PUSH1 0x40 SHL SUB DUP2 GT PUSH2 0xF77 JUMPI PUSH1 0x1F ADD PUSH1 0x1F NOT AND PUSH1 0x20 ADD SWAP1 JUMP JUMPDEST DUP2 PUSH1 0x1F DUP3 ADD SLT ISZERO PUSH2 0x116 JUMPI DUP1 CALLDATALOAD SWAP1 PUSH2 0x13C7 DUP3 PUSH2 0x1395 JUMP JUMPDEST SWAP3 PUSH2 0x13D5 PUSH1 0x40 MLOAD SWAP5 DUP6 PUSH2 0x135D JUMP JUMPDEST DUP3 DUP5 MSTORE PUSH1 0x20 DUP4 DUP4 ADD ADD GT PUSH2 0x116 JUMPI DUP2 PUSH1 0x0 SWAP3 PUSH1 0x20 DUP1 SWAP4 ADD DUP4 DUP7 ADD CALLDATACOPY DUP4 ADD ADD MSTORE SWAP1 JUMP JUMPDEST DUP2 PUSH1 0x1F DUP3 ADD SLT ISZERO PUSH2 0x116 JUMPI DUP1 CALLDATALOAD SWAP2 PUSH1 0x20 SWAP2 PUSH2 0x1411 DUP5 PUSH2 0x137E JUMP JUMPDEST SWAP4 PUSH2 0x141F PUSH1 0x40 MLOAD SWAP6 DUP7 PUSH2 0x135D JUMP JUMPDEST DUP1 DUP6 MSTORE DUP4 DUP1 DUP7 ADD SWAP2 PUSH1 0x5 SHL DUP4 ADD ADD SWAP3 DUP1 DUP5 GT PUSH2 0x116 JUMPI DUP5 DUP4 ADD SWAP2 JUMPDEST DUP5 DUP4 LT PUSH2 0x144A JUMPI POP POP POP POP POP POP SWAP1 JUMP JUMPDEST DUP3 CALLDATALOAD PUSH1 0x1 PUSH1 0x1 PUSH1 0x40 SHL SUB DUP2 GT PUSH2 0x116 JUMPI DUP7 SWAP2 PUSH2 0x146B DUP5 DUP5 DUP1 SWAP5 DUP10 ADD ADD PUSH2 0x13B0 JUMP JUMPDEST DUP2 MSTORE ADD SWAP3 ADD SWAP2 PUSH2 0x143A JUMP JUMPDEST SWAP1 PUSH2 0x140 SWAP2 DUP1 MLOAD DUP3 MSTORE PUSH1 0x20 SWAP3 DUP4 DUP3 ADD MLOAD ISZERO ISZERO DUP5 DUP5 ADD MSTORE PUSH1 0x40 DUP3 ADD MLOAD PUSH1 0x40 DUP5 ADD MSTORE PUSH2 0x14EC PUSH2 0x14DA PUSH2 0x14C8 PUSH1 0x60 DUP6 ADD MLOAD SWAP4 PUSH1 0x1 DUP1 PUSH1 0xA0 SHL SUB DUP1 SWAP6 AND PUSH1 0x60 DUP9 ADD MSTORE PUSH1 0x80 DUP7 ADD MLOAD SWAP1 DUP1 PUSH1 0x80 DUP10 ADD MSTORE DUP8 ADD SWAP1 PUSH2 0x12E6 JUMP JUMPDEST PUSH1 0xA0 DUP6 ADD MLOAD DUP7 DUP3 SUB PUSH1 0xA0 DUP9 ADD MSTORE PUSH2 0x12E6 JUMP JUMPDEST PUSH1 0xC0 DUP5 ADD MLOAD DUP6 DUP3 SUB PUSH1 0xC0 DUP8 ADD MSTORE PUSH2 0x12E6 JUMP JUMPDEST PUSH1 0xE0 DUP4 ADD MLOAD PUSH1 0xE0 DUP6 ADD MSTORE PUSH2 0x100 SWAP5 DUP6 DUP5 ADD MLOAD SWAP6 DUP6 DUP4 SUB SWAP1 DUP7 ADD MSTORE DUP1 DUP1 DUP8 MLOAD SWAP4 DUP5 DUP2 MSTORE ADD SWAP7 ADD SWAP3 PUSH1 0x0 SWAP1 JUMPDEST DUP4 DUP3 LT PUSH2 0x152F JUMPI POP POP POP POP POP PUSH2 0x120 DUP1 SWAP2 ADD MLOAD SWAP2 ADD MSTORE SWAP1 JUMP JUMPDEST DUP5 MLOAD DUP2 AND DUP9 MSTORE SWAP7 DUP3 ADD SWAP7 SWAP4 DUP3 ADD SWAP4 PUSH1 0x1 SWAP1 SWAP2 ADD SWAP1 PUSH2 0x1516 JUMP JUMPDEST SWAP1 DUP2 MLOAD DUP2 MSTORE PUSH1 0xA0 DUP1 PUSH2 0x157E PUSH2 0x156C PUSH1 0x20 DUP7 ADD MLOAD PUSH1 0xC0 PUSH1 0x20 DUP8 ADD MSTORE PUSH1 0xC0 DUP7 ADD SWAP1 PUSH2 0x12E6 JUMP JUMPDEST PUSH1 0x40 DUP7 ADD MLOAD DUP6 DUP3 SUB PUSH1 0x40 DUP8 ADD MSTORE PUSH2 0x12E6 JUMP JUMPDEST SWAP4 PUSH1 0x1 DUP1 DUP4 SHL SUB PUSH1 0x60 DUP3 ADD MLOAD AND PUSH1 0x60 DUP6 ADD MSTORE PUSH1 0x80 DUP2 ADD MLOAD PUSH1 0x80 DUP6 ADD MSTORE ADD MLOAD SWAP2 ADD MSTORE SWAP1 JUMP JUMPDEST PUSH1 0x40 SWAP1 PUSH1 0x3 NOT ADD SLT PUSH2 0x116 JUMPI PUSH1 0x4 CALLDATALOAD SWAP1 PUSH1 0x24 CALLDATALOAD SWAP1 JUMP JUMPDEST SWAP1 PUSH1 0x1 DUP3 DUP2 SHR SWAP3 AND DUP1 ISZERO PUSH2 0x15E8 JUMPI JUMPDEST PUSH1 0x20 DUP4 LT EQ PUSH2 0x15D2 JUMPI JUMP JUMPDEST PUSH4 0x4E487B71 PUSH1 0xE0 SHL PUSH1 0x0 MSTORE PUSH1 0x22 PUSH1 0x4 MSTORE PUSH1 0x24 PUSH1 0x0 REVERT JUMPDEST SWAP2 PUSH1 0x7F AND SWAP2 PUSH2 0x15C7 JUMP JUMPDEST SWAP1 PUSH1 0x40 MLOAD SWAP2 DUP3 PUSH1 0x0 DUP3 SLOAD PUSH2 0x1605 DUP2 PUSH2 0x15B8 JUMP JUMPDEST SWAP1 DUP2 DUP5 MSTORE PUSH1 0x20 SWAP5 PUSH1 0x1 SWAP2 PUSH1 0x1 DUP2 AND SWAP1 DUP2 PUSH1 0x0 EQ PUSH2 0x1675 JUMPI POP PUSH1 0x1 EQ PUSH2 0x1636 JUMPI JUMPDEST POP POP POP PUSH2 0x1634 SWAP3 POP SUB DUP4 PUSH2 0x135D JUMP JUMPDEST JUMP JUMPDEST PUSH1 0x0 SWAP1 DUP2 MSTORE DUP6 DUP2 KECCAK256 SWAP6 SWAP4 POP SWAP2 SWAP1 JUMPDEST DUP2 DUP4 LT PUSH2 0x165D JUMPI POP POP PUSH2 0x1634 SWAP4 POP DUP3 ADD ADD CODESIZE DUP1 DUP1 PUSH2 0x1625 JUMP JUMPDEST DUP6 SLOAD DUP9 DUP5 ADD DUP6 ADD MSTORE SWAP5 DUP6 ADD SWAP5 DUP8 SWAP5 POP SWAP2 DUP4 ADD SWAP2 PUSH2 0x1644 JUMP JUMPDEST SWAP3 POP POP POP PUSH2 0x1634 SWAP5 SWAP3 POP PUSH1 0xFF NOT AND DUP3 DUP5 ADD MSTORE ISZERO ISZERO PUSH1 0x5 SHL DUP3 ADD ADD CODESIZE DUP1 DUP1 PUSH2 0x1625 JUMP JUMPDEST ISZERO PUSH2 0x169E JUMPI JUMP JUMPDEST PUSH1 0x40 MLOAD PUSH3 0x461BCD PUSH1 0xE5 SHL DUP2 MSTORE PUSH1 0x20 PUSH1 0x4 DUP3 ADD MSTORE PUSH1 0x1A PUSH1 0x24 DUP3 ADD MSTORE PUSH32 0x4E6F207A65726F2061646472657373657320616C6C6F7765642E000000000000 PUSH1 0x44 DUP3 ADD MSTORE PUSH1 0x64 SWAP1 REVERT JUMPDEST DUP1 MLOAD DUP3 LT ISZERO PUSH2 0x16F7 JUMPI PUSH1 0x20 SWAP2 PUSH1 0x5 SHL ADD ADD SWAP1 JUMP JUMPDEST PUSH4 0x4E487B71 PUSH1 0xE0 SHL PUSH1 0x0 MSTORE PUSH1 0x32 PUSH1 0x4 MSTORE PUSH1 0x24 PUSH1 0x0 REVERT JUMPDEST DUP1 SLOAD DUP3 LT ISZERO PUSH2 0x16F7 JUMPI PUSH1 0x0 MSTORE PUSH1 0x20 PUSH1 0x0 KECCAK256 ADD SWAP1 PUSH1 0x0 SWAP1 JUMP JUMPDEST DUP2 DUP2 LT PUSH2 0x1730 JUMPI POP POP JUMP JUMPDEST PUSH1 0x0 DUP2 SSTORE PUSH1 0x1 ADD PUSH2 0x1725 JUMP JUMPDEST SWAP2 SWAP1 PUSH1 0x1F DUP2 GT PUSH2 0x174B JUMPI POP POP POP JUMP JUMPDEST PUSH2 0x1634 SWAP3 PUSH1 0x0 MSTORE PUSH1 0x20 PUSH1 0x0 KECCAK256 SWAP1 PUSH1 0x20 PUSH1 0x1F DUP5 ADD PUSH1 0x5 SHR DUP4 ADD SWAP4 LT PUSH2 0x1777 JUMPI JUMPDEST PUSH1 0x1F ADD PUSH1 0x5 SHR ADD SWAP1 PUSH2 0x1725 JUMP JUMPDEST SWAP1 SWAP2 POP DUP2 SWAP1 PUSH2 0x176A JUMP JUMPDEST SWAP2 SWAP1 SWAP2 DUP3 MLOAD PUSH1 0x1 PUSH1 0x1 PUSH1 0x40 SHL SUB DUP2 GT PUSH2 0xF77 JUMPI PUSH2 0x17A8 DUP2 PUSH2 0x17A2 DUP5 SLOAD PUSH2 0x15B8 JUMP JUMPDEST DUP5 PUSH2 0x173C JUMP JUMPDEST PUSH1 0x20 DUP1 PUSH1 0x1F DUP4 GT PUSH1 0x1 EQ PUSH2 0x17EB JUMPI POP DUP2 SWAP1 PUSH2 0x17DC SWAP4 SWAP5 SWAP6 PUSH1 0x0 SWAP3 PUSH2 0x17E0 JUMPI JUMPDEST POP POP DUP2 PUSH1 0x1 SHL SWAP2 PUSH1 0x0 NOT SWAP1 PUSH1 0x3 SHL SHR NOT AND OR SWAP1 JUMP JUMPDEST SWAP1 SSTORE JUMP JUMPDEST ADD MLOAD SWAP1 POP CODESIZE DUP1 PUSH2 0x17C7 JUMP JUMPDEST SWAP1 PUSH1 0x1F NOT DUP4 AND SWAP6 DUP5 PUSH1 0x0 MSTORE PUSH1 0x20 PUSH1 0x0 KECCAK256 SWAP3 PUSH1 0x0 SWAP1 JUMPDEST DUP9 DUP3 LT PUSH2 0x1838 JUMPI POP POP DUP4 PUSH1 0x1 SWAP6 SWAP7 SWAP8 LT PUSH2 0x181F JUMPI JUMPDEST POP POP POP DUP2 SHL ADD SWAP1 SSTORE JUMP JUMPDEST ADD MLOAD PUSH1 0x0 NOT PUSH1 0xF8 DUP5 PUSH1 0x3 SHL AND SHR NOT AND SWAP1 SSTORE CODESIZE DUP1 DUP1 PUSH2 0x1815 JUMP JUMPDEST DUP1 PUSH1 0x1 DUP6 SWAP7 DUP3 SWAP5 SWAP7 DUP7 ADD MLOAD DUP2 SSTORE ADD SWAP6 ADD SWAP4 ADD SWAP1 PUSH2 0x1800 JUMP JUMPDEST ISZERO PUSH2 0x1857 JUMPI JUMP JUMPDEST PUSH1 0x40 MLOAD PUSH3 0x461BCD PUSH1 0xE5 SHL DUP2 MSTORE PUSH1 0x20 PUSH1 0x4 DUP3 ADD MSTORE PUSH1 0x19 PUSH1 0x24 DUP3 ADD MSTORE PUSH32 0x5468697320616C62756D20646F6573206E6F7420657869737400000000000000 PUSH1 0x44 DUP3 ADD MSTORE PUSH1 0x64 SWAP1 REVERT JUMPDEST SWAP1 PUSH1 0x40 MLOAD SWAP2 DUP3 DUP2 SLOAD SWAP2 DUP3 DUP3 MSTORE PUSH1 0x20 SWAP3 PUSH1 0x20 DUP4 ADD SWAP2 PUSH1 0x0 MSTORE PUSH1 0x20 PUSH1 0x0 KECCAK256 SWAP4 PUSH1 0x0 SWAP1 JUMPDEST DUP3 DUP3 LT PUSH2 0x18D3 JUMPI POP POP POP PUSH2 0x1634 SWAP3 POP SUB DUP4 PUSH2 0x135D JUMP JUMPDEST DUP6 SLOAD PUSH1 0x1 PUSH1 0x1 PUSH1 0xA0 SHL SUB AND DUP5 MSTORE PUSH1 0x1 SWAP6 DUP7 ADD SWAP6 DUP9 SWAP6 POP SWAP4 DUP2 ADD SWAP4 SWAP1 SWAP2 ADD SWAP1 PUSH2 0x18BD JUMP JUMPDEST PUSH1 0x0 NOT DUP2 EQ PUSH2 0x52B JUMPI PUSH1 0x1 ADD SWAP1 JUMP JUMPDEST SWAP2 SWAP1 DUP3 ADD DUP1 SWAP3 GT PUSH2 0x52B JUMPI JUMP JUMPDEST DUP2 DUP2 MUL SWAP3 SWAP2 DUP2 ISZERO SWAP2 DUP5 DIV EQ OR ISZERO PUSH2 0x52B JUMPI JUMP JUMPDEST SWAP1 PUSH1 0x1 PUSH1 0x40 SHL DUP2 GT PUSH2 0xF77 JUMPI DUP2 SLOAD SWAP1 DUP1 DUP4 SSTORE DUP2 DUP2 LT PUSH2 0x1943 JUMPI POP POP POP JUMP JUMPDEST PUSH2 0x1634 SWAP3 PUSH1 0x0 MSTORE PUSH1 0x20 PUSH1 0x0 KECCAK256 SWAP2 DUP3 ADD SWAP2 ADD PUSH2 0x1725 JUMP JUMPDEST PUSH1 0x3 SLOAD DUP2 LT ISZERO PUSH2 0x16F7 JUMPI PUSH1 0xA SWAP1 PUSH1 0x3 PUSH1 0x0 MSTORE MUL PUSH32 0xC2575A0E9E593C00F959F8C92F12DB2869C3395A3B0502D05E2516446F71F85B ADD SWAP1 PUSH1 0x0 SWAP1 JUMP JUMPDEST SWAP1 DUP1 DUP3 EQ PUSH2 0x1A6E JUMPI PUSH2 0x19A6 DUP2 SLOAD PUSH2 0x15B8 JUMP JUMPDEST SWAP1 PUSH1 0x1 PUSH1 0x1 PUSH1 0x40 SHL SUB DUP3 GT PUSH2 0xF77 JUMPI PUSH2 0x19C9 DUP3 PUSH2 0x19C3 DUP6 SLOAD PUSH2 0x15B8 JUMP JUMPDEST DUP6 PUSH2 0x173C JUMP JUMPDEST PUSH1 0x0 SWAP1 PUSH1 0x1F DUP4 GT PUSH1 0x1 EQ PUSH2 0x1A04 JUMPI PUSH2 0x17DC SWAP3 SWAP2 PUSH1 0x0 SWAP2 DUP4 PUSH2 0x19F9 JUMPI POP POP DUP2 PUSH1 0x1 SHL SWAP2 PUSH1 0x0 NOT SWAP1 PUSH1 0x3 SHL SHR NOT AND OR SWAP1 JUMP JUMPDEST ADD SLOAD SWAP1 POP CODESIZE DUP1 PUSH2 0x17C7 JUMP JUMPDEST DUP2 MSTORE PUSH1 0x20 DUP1 DUP3 KECCAK256 DUP5 DUP4 MSTORE DUP2 DUP4 KECCAK256 SWAP3 SWAP2 PUSH1 0x1F NOT DUP6 AND SWAP1 DUP4 SWAP1 JUMPDEST DUP3 DUP3 LT PUSH2 0x1A55 JUMPI POP POP SWAP1 DUP5 PUSH1 0x1 SWAP6 SWAP5 SWAP4 SWAP3 LT PUSH2 0x1A3C JUMPI POP POP POP DUP2 SHL ADD SWAP1 SSTORE JUMP JUMPDEST ADD SLOAD PUSH1 0x0 NOT PUSH1 0xF8 DUP5 PUSH1 0x3 SHL AND SHR NOT AND SWAP1 SSTORE CODESIZE DUP1 DUP1 PUSH2 0x1815 JUMP JUMPDEST DUP5 SWAP6 DUP2 SWAP3 SWAP6 DUP6 ADD SLOAD DUP2 SSTORE PUSH1 0x1 DUP1 SWAP2 ADD SWAP7 ADD SWAP5 ADD SWAP1 PUSH2 0x1A1C JUMP JUMPDEST POP POP JUMP JUMPDEST DUP2 DUP2 EQ PUSH2 0x1A6E JUMPI DUP2 SLOAD SWAP2 PUSH1 0x1 PUSH1 0x1 PUSH1 0x40 SHL SUB DUP4 GT PUSH2 0xF77 JUMPI PUSH2 0x1A94 DUP4 DUP4 PUSH2 0x1925 JUMP JUMPDEST PUSH1 0x0 MSTORE PUSH1 0x20 PUSH1 0x0 KECCAK256 SWAP1 PUSH1 0x0 MSTORE PUSH1 0x20 PUSH1 0x0 KECCAK256 DUP2 SLOAD SWAP2 PUSH1 0x0 SWAP3 JUMPDEST DUP5 DUP5 LT PUSH2 0x1ABA JUMPI POP POP POP POP POP JUMP JUMPDEST PUSH1 0x1 SWAP2 DUP3 ADD DUP1 SLOAD PUSH1 0x1 PUSH1 0x1 PUSH1 0xA0 SHL SUB SWAP1 SWAP3 AND DUP5 DUP7 ADD SSTORE SWAP4 SWAP1 SWAP2 ADD SWAP3 SWAP1 PUSH2 0x1AAC JUMP JUMPDEST PUSH1 0x40 MLOAD SWAP1 PUSH2 0x1AE8 DUP3 PUSH2 0x1341 JUMP JUMPDEST DUP2 PUSH2 0x120 PUSH1 0x0 SWAP2 DUP3 DUP2 MSTORE DUP3 PUSH1 0x20 DUP3 ADD MSTORE DUP3 PUSH1 0x40 DUP3 ADD MSTORE DUP3 PUSH1 0x60 DUP3 ADD MSTORE PUSH1 0x60 PUSH1 0x80 DUP3 ADD MSTORE PUSH1 0x60 PUSH1 0xA0 DUP3 ADD MSTORE PUSH1 0x60 PUSH1 0xC0 DUP3 ADD MSTORE DUP3 PUSH1 0xE0 DUP3 ADD MSTORE PUSH1 0x60 PUSH2 0x100 DUP3 ADD MSTORE ADD MSTORE JUMP JUMPDEST SWAP1 PUSH1 0x40 MLOAD PUSH2 0x1B38 DUP2 PUSH2 0x1341 JUMP JUMPDEST DUP3 SLOAD DUP2 MSTORE PUSH1 0x1 DUP4 ADD SLOAD PUSH1 0xFF AND ISZERO ISZERO PUSH1 0x20 DUP3 ADD MSTORE PUSH1 0x2 DUP4 ADD SLOAD PUSH1 0x40 DUP3 ADD MSTORE PUSH1 0x3 DUP4 ADD SLOAD PUSH1 0x1 PUSH1 0x1 PUSH1 0xA0 SHL SUB AND PUSH1 0x60 DUP3 ADD MSTORE SWAP2 DUP3 SWAP1 PUSH2 0x120 SWAP1 PUSH1 0x9 SWAP1 PUSH2 0x1B7E PUSH1 0x4 DUP3 ADD PUSH2 0x15F2 JUMP JUMPDEST PUSH1 0x80 DUP6 ADD MSTORE PUSH2 0x1B8F PUSH1 0x5 DUP3 ADD PUSH2 0x15F2 JUMP JUMPDEST PUSH1 0xA0 DUP6 ADD MSTORE PUSH2 0x1BA0 PUSH1 0x6 DUP3 ADD PUSH2 0x15F2 JUMP JUMPDEST PUSH1 0xC0 DUP6 ADD MSTORE PUSH1 0x7 DUP2 ADD SLOAD PUSH1 0xE0 DUP6 ADD MSTORE PUSH2 0x1BBB PUSH1 0x8 DUP3 ADD PUSH2 0x189C JUMP JUMPDEST PUSH2 0x100 DUP6 ADD MSTORE ADD SLOAD SWAP2 ADD MSTORE JUMP JUMPDEST DUP1 SLOAD PUSH1 0x1 PUSH1 0x40 SHL DUP2 LT ISZERO PUSH2 0xF77 JUMPI PUSH2 0x1BE5 SWAP2 PUSH1 0x1 DUP3 ADD DUP2 SSTORE PUSH2 0x170D JUMP JUMPDEST PUSH1 0x1 DUP1 PUSH1 0xA0 SWAP5 SWAP4 SWAP5 SHL SUB DUP1 DUP5 SLOAD SWAP3 PUSH1 0x3 SHL SWAP4 AND DUP4 SHL SWAP3 SHL NOT AND OR SWAP1 SSTORE JUMP JUMPDEST SWAP2 SWAP1 DUP3 SUB SWAP2 DUP3 GT PUSH2 0x52B JUMPI JUMP JUMPDEST RETURNDATASIZE ISZERO PUSH2 0x1C3B JUMPI RETURNDATASIZE SWAP1 PUSH2 0x1C21 DUP3 PUSH2 0x1395 JUMP JUMPDEST SWAP2 PUSH2 0x1C2F PUSH1 0x40 MLOAD SWAP4 DUP5 PUSH2 0x135D JUMP JUMPDEST DUP3 MSTORE RETURNDATASIZE PUSH1 0x0 PUSH1 0x20 DUP5 ADD RETURNDATACOPY JUMP JUMPDEST PUSH1 0x60 SWAP1 JUMP JUMPDEST ISZERO PUSH2 0x1C47 JUMPI JUMP JUMPDEST PUSH1 0x40 MLOAD PUSH3 0x461BCD PUSH1 0xE5 SHL DUP2 MSTORE PUSH1 0x20 PUSH1 0x4 DUP3 ADD MSTORE PUSH1 0x22 PUSH1 0x24 DUP3 ADD MSTORE PUSH32 0x466565207061796D656E7420746F20616C62756D206F776E6572206661696C65 PUSH1 0x44 DUP3 ADD MSTORE PUSH2 0x3217 PUSH1 0xF1 SHL PUSH1 0x64 DUP3 ADD MSTORE PUSH1 0x84 SWAP1 REVERT JUMPDEST ISZERO PUSH2 0x1C9E JUMPI JUMP JUMPDEST PUSH1 0x40 MLOAD PUSH3 0x461BCD PUSH1 0xE5 SHL DUP2 MSTORE PUSH1 0x20 PUSH1 0x4 DUP3 ADD MSTORE PUSH1 0x22 PUSH1 0x24 DUP3 ADD MSTORE PUSH32 0x466565207061796D656E7420746F207472796265206F776E6572206661696C65 PUSH1 0x44 DUP3 ADD MSTORE PUSH2 0x3217 PUSH1 0xF1 SHL PUSH1 0x64 DUP3 ADD MSTORE PUSH1 0x84 SWAP1 REVERT JUMPDEST ISZERO PUSH2 0x1CF5 JUMPI JUMP JUMPDEST PUSH1 0x40 MLOAD PUSH3 0x461BCD PUSH1 0xE5 SHL DUP2 MSTORE PUSH1 0x20 PUSH1 0x4 DUP3 ADD MSTORE PUSH1 0x33 PUSH1 0x24 DUP3 ADD MSTORE PUSH32 0x4F6E6C792074686F73652077686F2068617665206A6F696E6564207468652061 PUSH1 0x44 DUP3 ADD MSTORE PUSH19 0x36313AB69039B2B2903A34329030B6313AB697 PUSH1 0x69 SHL PUSH1 0x64 DUP3 ADD MSTORE PUSH1 0x84 SWAP1 REVERT JUMPDEST PUSH1 0x40 MLOAD SWAP1 PUSH2 0x1D63 DUP3 PUSH2 0x1326 JUMP JUMPDEST PUSH1 0x0 PUSH1 0xA0 DUP4 DUP3 DUP2 MSTORE PUSH1 0x60 PUSH1 0x20 DUP3 ADD MSTORE PUSH1 0x60 PUSH1 0x40 DUP3 ADD MSTORE DUP3 PUSH1 0x60 DUP3 ADD MSTORE DUP3 PUSH1 0x80 DUP3 ADD MSTORE ADD MSTORE JUMP JUMPDEST SWAP1 PUSH1 0x40 MLOAD PUSH2 0x1D96 DUP2 PUSH2 0x1326 JUMP JUMPDEST PUSH1 0xA0 PUSH1 0x5 DUP3 SWAP5 DUP1 SLOAD DUP5 MSTORE PUSH2 0x1DAC PUSH1 0x1 DUP3 ADD PUSH2 0x15F2 JUMP JUMPDEST PUSH1 0x20 DUP6 ADD MSTORE PUSH2 0x1DBD PUSH1 0x2 DUP3 ADD PUSH2 0x15F2 JUMP JUMPDEST PUSH1 0x40 DUP6 ADD MSTORE PUSH1 0x1 DUP1 DUP5 SHL SUB PUSH1 0x3 DUP3 ADD SLOAD AND PUSH1 0x60 DUP6 ADD MSTORE PUSH1 0x4 DUP2 ADD SLOAD PUSH1 0x80 DUP6 ADD MSTORE ADD SLOAD SWAP2 ADD MSTORE JUMP INVALID LOG2 PUSH5 0x6970667358 0x22 SLT KECCAK256 CREATE 0xE 0xE0 0xC6 0xBA 0xE9 0xB4 JUMPDEST PUSH23 0x10624936FEEDA95CB408695A5848C3A43EFCB1AB1C3FA6 PUSH5 0x736F6C6343 STOP ADDMOD XOR STOP CALLER "
        },
        "methodIdentifiers": {
          "addImageToAlbum(uint256,string[],string,uint256)": "6c4860fe",
          "createAlbum(string,string,address[],string,bool,uint256)": "45a1db67",
          "download(uint256,uint256)": "bce54720",
          "getAlbum(uint256)": "d6e465c9",
          "getAlbums()": "5c517234",
          "getImageInAlbum(uint256,uint256)": "ced038d1",
          "getImages()": "11498334",
          "getImagesInAlbum(uint256)": "b027a787",
          "getListofParticipants(uint256)": "3b8f313b",
          "joinAlbum(uint256)": "8d84d7fc",
          "owner()": "8da5cb5b",
          "totalNoOfAlbumsCreated()": "6d49f8cc",
          "upload(string[])": "25d72e3b"
        }
      }
    }
  }
}