{
  "contracts/Trybe.sol": {
    "Trybe": {
      "abi": [
        {
          "inputs": [
            {
              "internalType": "uint256",
              "name": "_fee",
              "type": "uint256"
            }
          ],
          "stateMutability": "nonpayable",
          "type": "constructor"
        },
        {
          "anonymous": false,
          "inputs": [
            {
              "indexed": true,
              "internalType": "address",
              "name": "creator",
              "type": "address"
            },
            {
              "indexed": false,
              "internalType": "string",
              "name": "nameOfAlbum",
              "type": "string"
            },
            {
              "indexed": false,
              "internalType": "uint256",
              "name": "albumId",
              "type": "uint256"
            }
          ],
          "name": "AlbumCreated",
          "type": "event"
        },
        {
          "anonymous": false,
          "inputs": [
            {
              "indexed": false,
              "internalType": "uint256",
              "name": "albumId",
              "type": "uint256"
            },
            {
              "indexed": false,
              "internalType": "uint256",
              "name": "imageId",
              "type": "uint256"
            }
          ],
          "name": "ImageAdded",
          "type": "event"
        },
        {
          "anonymous": false,
          "inputs": [
            {
              "indexed": true,
              "internalType": "address",
              "name": "participant",
              "type": "address"
            },
            {
              "indexed": false,
              "internalType": "uint256",
              "name": "timeJoined",
              "type": "uint256"
            }
          ],
          "name": "JoinedAlbum",
          "type": "event"
        },
        {
          "anonymous": false,
          "inputs": [
            {
              "indexed": true,
              "internalType": "address",
              "name": "user",
              "type": "address"
            },
            {
              "indexed": false,
              "internalType": "string",
              "name": "url",
              "type": "string"
            },
            {
              "indexed": false,
              "internalType": "uint256",
              "name": "createdAt",
              "type": "uint256"
            }
          ],
          "name": "Upload",
          "type": "event"
        },
        {
          "inputs": [
            {
              "internalType": "uint256",
              "name": "albumId",
              "type": "uint256"
            },
            {
              "internalType": "string",
              "name": "_url",
              "type": "string"
            },
            {
              "internalType": "string",
              "name": "_description",
              "type": "string"
            }
          ],
          "name": "addImageToAlbum",
          "outputs": [],
          "stateMutability": "nonpayable",
          "type": "function"
        },
        {
          "inputs": [
            {
              "internalType": "uint256",
              "name": "",
              "type": "uint256"
            }
          ],
          "name": "album",
          "outputs": [
            {
              "internalType": "uint256",
              "name": "id",
              "type": "uint256"
            },
            {
              "internalType": "uint8",
              "name": "visibility",
              "type": "uint8"
            },
            {
              "internalType": "uint256",
              "name": "fee",
              "type": "uint256"
            },
            {
              "internalType": "address",
              "name": "owner",
              "type": "address"
            },
            {
              "internalType": "string",
              "name": "name",
              "type": "string"
            },
            {
              "internalType": "string",
              "name": "description",
              "type": "string"
            },
            {
              "internalType": "string",
              "name": "profileImage",
              "type": "string"
            },
            {
              "internalType": "uint256",
              "name": "created",
              "type": "uint256"
            },
            {
              "internalType": "uint256",
              "name": "totalNoOfImages",
              "type": "uint256"
            }
          ],
          "stateMutability": "view",
          "type": "function"
        },
        {
          "inputs": [
            {
              "internalType": "uint256",
              "name": "",
              "type": "uint256"
            }
          ],
          "name": "albums",
          "outputs": [
            {
              "internalType": "uint256",
              "name": "id",
              "type": "uint256"
            },
            {
              "internalType": "uint8",
              "name": "visibility",
              "type": "uint8"
            },
            {
              "internalType": "uint256",
              "name": "fee",
              "type": "uint256"
            },
            {
              "internalType": "address",
              "name": "owner",
              "type": "address"
            },
            {
              "internalType": "string",
              "name": "name",
              "type": "string"
            },
            {
              "internalType": "string",
              "name": "description",
              "type": "string"
            },
            {
              "internalType": "string",
              "name": "profileImage",
              "type": "string"
            },
            {
              "internalType": "uint256",
              "name": "created",
              "type": "uint256"
            },
            {
              "internalType": "uint256",
              "name": "totalNoOfImages",
              "type": "uint256"
            }
          ],
          "stateMutability": "view",
          "type": "function"
        },
        {
          "inputs": [
            {
              "internalType": "string",
              "name": "_name",
              "type": "string"
            },
            {
              "internalType": "string",
              "name": "description",
              "type": "string"
            },
            {
              "internalType": "address[]",
              "name": "_participants",
              "type": "address[]"
            },
            {
              "internalType": "string",
              "name": "_image",
              "type": "string"
            },
            {
              "internalType": "uint8",
              "name": "visibility",
              "type": "uint8"
            },
            {
              "internalType": "uint256",
              "name": "_fee",
              "type": "uint256"
            }
          ],
          "name": "createAlbum",
          "outputs": [],
          "stateMutability": "nonpayable",
          "type": "function"
        },
        {
          "inputs": [
            {
              "internalType": "uint256",
              "name": "albumId",
              "type": "uint256"
            }
          ],
          "name": "getAlbum",
          "outputs": [
            {
              "components": [
                {
                  "internalType": "uint256",
                  "name": "id",
                  "type": "uint256"
                },
                {
                  "internalType": "uint8",
                  "name": "visibility",
                  "type": "uint8"
                },
                {
                  "internalType": "uint256",
                  "name": "fee",
                  "type": "uint256"
                },
                {
                  "internalType": "address",
                  "name": "owner",
                  "type": "address"
                },
                {
                  "internalType": "string",
                  "name": "name",
                  "type": "string"
                },
                {
                  "internalType": "string",
                  "name": "description",
                  "type": "string"
                },
                {
                  "internalType": "string",
                  "name": "profileImage",
                  "type": "string"
                },
                {
                  "internalType": "uint256",
                  "name": "created",
                  "type": "uint256"
                },
                {
                  "internalType": "address[]",
                  "name": "participants",
                  "type": "address[]"
                },
                {
                  "internalType": "uint256",
                  "name": "totalNoOfImages",
                  "type": "uint256"
                }
              ],
              "internalType": "struct Trybe.Album",
              "name": "",
              "type": "tuple"
            }
          ],
          "stateMutability": "view",
          "type": "function"
        },
        {
          "inputs": [],
          "name": "getAlbums",
          "outputs": [
            {
              "components": [
                {
                  "internalType": "uint256",
                  "name": "id",
                  "type": "uint256"
                },
                {
                  "internalType": "uint8",
                  "name": "visibility",
                  "type": "uint8"
                },
                {
                  "internalType": "uint256",
                  "name": "fee",
                  "type": "uint256"
                },
                {
                  "internalType": "address",
                  "name": "owner",
                  "type": "address"
                },
                {
                  "internalType": "string",
                  "name": "name",
                  "type": "string"
                },
                {
                  "internalType": "string",
                  "name": "description",
                  "type": "string"
                },
                {
                  "internalType": "string",
                  "name": "profileImage",
                  "type": "string"
                },
                {
                  "internalType": "uint256",
                  "name": "created",
                  "type": "uint256"
                },
                {
                  "internalType": "address[]",
                  "name": "participants",
                  "type": "address[]"
                },
                {
                  "internalType": "uint256",
                  "name": "totalNoOfImages",
                  "type": "uint256"
                }
              ],
              "internalType": "struct Trybe.Album[]",
              "name": "",
              "type": "tuple[]"
            }
          ],
          "stateMutability": "view",
          "type": "function"
        },
        {
          "inputs": [
            {
              "internalType": "uint256",
              "name": "albumId",
              "type": "uint256"
            },
            {
              "internalType": "uint256",
              "name": "imageId",
              "type": "uint256"
            }
          ],
          "name": "getImageInPrivateAlbum",
          "outputs": [
            {
              "components": [
                {
                  "internalType": "uint256",
                  "name": "id",
                  "type": "uint256"
                },
                {
                  "internalType": "string",
                  "name": "url",
                  "type": "string"
                },
                {
                  "internalType": "string",
                  "name": "description",
                  "type": "string"
                },
                {
                  "internalType": "address",
                  "name": "owner",
                  "type": "address"
                }
              ],
              "internalType": "struct Trybe.Image",
              "name": "",
              "type": "tuple"
            }
          ],
          "stateMutability": "payable",
          "type": "function"
        },
        {
          "inputs": [
            {
              "internalType": "uint256",
              "name": "albumId",
              "type": "uint256"
            },
            {
              "internalType": "uint256",
              "name": "imageId",
              "type": "uint256"
            }
          ],
          "name": "getImageInPublicAlbum",
          "outputs": [
            {
              "components": [
                {
                  "internalType": "uint256",
                  "name": "id",
                  "type": "uint256"
                },
                {
                  "internalType": "string",
                  "name": "url",
                  "type": "string"
                },
                {
                  "internalType": "string",
                  "name": "description",
                  "type": "string"
                },
                {
                  "internalType": "address",
                  "name": "owner",
                  "type": "address"
                }
              ],
              "internalType": "struct Trybe.Image",
              "name": "",
              "type": "tuple"
            }
          ],
          "stateMutability": "view",
          "type": "function"
        },
        {
          "inputs": [],
          "name": "getImages",
          "outputs": [
            {
              "internalType": "string[]",
              "name": "",
              "type": "string[]"
            }
          ],
          "stateMutability": "view",
          "type": "function"
        },
        {
          "inputs": [
            {
              "internalType": "uint256",
              "name": "albumId",
              "type": "uint256"
            }
          ],
          "name": "getImagesInPrivateAlbum",
          "outputs": [
            {
              "components": [
                {
                  "internalType": "uint256",
                  "name": "id",
                  "type": "uint256"
                },
                {
                  "internalType": "string",
                  "name": "url",
                  "type": "string"
                },
                {
                  "internalType": "string",
                  "name": "description",
                  "type": "string"
                },
                {
                  "internalType": "address",
                  "name": "owner",
                  "type": "address"
                }
              ],
              "internalType": "struct Trybe.Image[]",
              "name": "",
              "type": "tuple[]"
            }
          ],
          "stateMutability": "payable",
          "type": "function"
        },
        {
          "inputs": [
            {
              "internalType": "uint256",
              "name": "albumId",
              "type": "uint256"
            }
          ],
          "name": "getImagesInPublicAlbum",
          "outputs": [
            {
              "components": [
                {
                  "internalType": "uint256",
                  "name": "id",
                  "type": "uint256"
                },
                {
                  "internalType": "string",
                  "name": "url",
                  "type": "string"
                },
                {
                  "internalType": "string",
                  "name": "description",
                  "type": "string"
                },
                {
                  "internalType": "address",
                  "name": "owner",
                  "type": "address"
                }
              ],
              "internalType": "struct Trybe.Image[]",
              "name": "",
              "type": "tuple[]"
            }
          ],
          "stateMutability": "view",
          "type": "function"
        },
        {
          "inputs": [
            {
              "internalType": "uint256",
              "name": "albumId",
              "type": "uint256"
            }
          ],
          "name": "getListofParticipants",
          "outputs": [
            {
              "internalType": "address[]",
              "name": "",
              "type": "address[]"
            }
          ],
          "stateMutability": "view",
          "type": "function"
        },
        {
          "inputs": [
            {
              "internalType": "address",
              "name": "",
              "type": "address"
            },
            {
              "internalType": "uint256",
              "name": "",
              "type": "uint256"
            }
          ],
          "name": "images",
          "outputs": [
            {
              "internalType": "string",
              "name": "",
              "type": "string"
            }
          ],
          "stateMutability": "view",
          "type": "function"
        },
        {
          "inputs": [
            {
              "internalType": "uint256",
              "name": "",
              "type": "uint256"
            },
            {
              "internalType": "uint256",
              "name": "",
              "type": "uint256"
            }
          ],
          "name": "imagesInAlbum",
          "outputs": [
            {
              "internalType": "uint256",
              "name": "id",
              "type": "uint256"
            },
            {
              "internalType": "string",
              "name": "url",
              "type": "string"
            },
            {
              "internalType": "string",
              "name": "description",
              "type": "string"
            },
            {
              "internalType": "address",
              "name": "owner",
              "type": "address"
            }
          ],
          "stateMutability": "view",
          "type": "function"
        },
        {
          "inputs": [
            {
              "internalType": "uint256",
              "name": "albumId",
              "type": "uint256"
            }
          ],
          "name": "joinAlbum",
          "outputs": [],
          "stateMutability": "payable",
          "type": "function"
        },
        {
          "inputs": [],
          "name": "owner",
          "outputs": [
            {
              "internalType": "address",
              "name": "",
              "type": "address"
            }
          ],
          "stateMutability": "view",
          "type": "function"
        },
        {
          "inputs": [],
          "name": "totalNoOfAlbumsCreated",
          "outputs": [
            {
              "internalType": "uint256",
              "name": "",
              "type": "uint256"
            }
          ],
          "stateMutability": "view",
          "type": "function"
        },
        {
          "inputs": [
            {
              "internalType": "string",
              "name": "url",
              "type": "string"
            }
          ],
          "name": "upload",
          "outputs": [],
          "stateMutability": "nonpayable",
          "type": "function"
        }
      ],
      "evm": {
        "bytecode": {
          "linkReferences": {},
          "object": "60803461006657601f6120d238819003918201601f19168301916001600160401b0383118484101761006b578084926020946040528339810103126100665751600080546001600160a01b0319163317815560015560025560405161205090816100828239f35b600080fd5b634e487b7160e01b600052604160045260246000fdfe6080604052600436101561001257600080fd5b60003560e01c80630fd59adb1461132857806311498334146112515780632ac33792146111e35780633b8f313b1461118257806340368f851461110157806342ce14881461100857806351927c6d14610f7f57806356148eb114610eb857806357d47a9d14610dce5780635c51723414610be25780636d49f8cc14610bc45780636f4e27f0146109415780638d84d7fc146107c85780638da5cb5b1461079f578063d6e465c91461067d578063e89e6a001461062f578063ea5df059146105a25763f3187157146100e257600080fd5b3461057d5760c036600319011261057d576004356001600160401b03811161057d576101129036906004016116f3565b6024356001600160401b03811161057d576101319036906004016116f3565b604435916001600160401b03831161057d573660238401121561057d57826004013561015c81611882565b9361016a60405195866115bf565b8185526024602086019260051b8201019036821161057d57602401915b818310610582575050506064356001600160401b03811161057d576101b09036906004016116f3565b906084359260ff8416840361057d576101ca331515611c02565b815115610543578051156104c2576101e3600154611aa4565b90816001558551936001850180951161049e5761021861020286611882565b9561021060405197886115bf565b808752611882565b601f190136602087013760005b8751811015610256576001906001600160a01b03610243828b611ab3565b511661024f8289611ab3565b5201610225565b50908491600160ff888a61026c33915188611ab3565b52866000526004602052604060002096875581811682198489015416178388015516146000146104b457670de0b6b3a76400008060a435029060a43582041460a43515171561049e576102f6926102ed915b60028701556003860180546001600160a01b031916331790556102e48760048801611caa565b60058601611caa565b60068401611caa565b4260078301558051906001600160401b03821161046b5760209061031d8360088601611e9f565b0160088301600052602060002060005b83811061048157858560006009820155600354600160401b81101561046b5780600161035c9201600355611847565b919091610455578082036103b1575b600154604080518181527fd3cc7c228a9442b3e32b7fb9e7ac4298594eeb118c36cbfbaf73feef8394627d916103a390820187611434565b9260208201528033930390a2005b60098181925484556001840160ff60018301541660ff19825416179055600281015460028501556003840160018060a01b036003830154166bffffffffffffffffffffffff60a01b82541617905561040f6004820160048601611ed3565b61041f6005820160058601611ed3565b61042f6006820160068601611ed3565b600781015460078501556104496008820160088601611fb1565b0154910155818061036b565b634e487b7160e01b600052600060045260246000fd5b634e487b7160e01b600052604160045260246000fd5b82516001600160a01b03168183015560209092019160010161032d565b634e487b7160e01b600052601160045260246000fd5b6102ed6102f69260006102be565b60405162461bcd60e51b815260206004820152604d60248201527f446573637269626520796f757220616c62756d20746f206c657420746865207760448201527f6f726c64206b6e6f7720686f7720796f752066656c74207768656e20796f752060648201526c31b932b0ba32b2103a3434b99760991b608482015260a490fd5b60405162461bcd60e51b8152602060048201526012602482015271283632b0b9b29030b2321030903730b6b29760711b6044820152606490fd5b600080fd5b82356001600160a01b038116810361057d57815260209283019201610187565b3461057d57602036600319011261057d5760043560035481101561057d576105c990611847565b50805460018201546002830154600384015460ff9092169361062b926001600160a01b03166105fa600483016115e0565b610606600584016115e0565b90610613600685016115e0565b926009600786015495015495604051998a998a6117db565b0390f35b3461057d57602036600319011261057d5760043560005260046020526040600020805461062b60ff6001840154169260028101549060018060a01b036003820154166105fa600483016115e0565b3461057d5760208060031936011261057d5760043561069a611d79565b5080151580610793575b6106ad90611899565b60009060005b81600052600484526008604060002001805482101561078b57816106d691611520565b905460039190911b1c6001600160a01b031633146106f6576001016106b3565b50905060015b1561072a57600052600481526107156040600020611dc9565b9061062b60405192828493845283019061173a565b60405162461bcd60e51b815260048101839052603360248201527f4f6e6c792074686f73652077686f2068617665206a6f696e656420746865206160448201527236313ab69039b2b2903a34329030b6313ab69760691b6064820152608490fd5b5050906106fc565b506001548111156106a4565b3461057d57600036600319011261057d576000546040516001600160a01b039091168152602090f35b602036600319011261057d5760043580151580610935575b6107e990611899565b806000526004602052604060002090600180600184019260ff845416158015610927575b61081990949394611bb6565b6008906108293360088801611e64565b6000945b6108d7575b5050506001915060ff90541614610872575b6040514281527f59a4dadce245655ce4c5ea128f142c4034b1206deff52ff605866cd86433de8160203392a2005b60008080806108d19460036108be8380808060646108936002543490611931565b049661089f8834611944565b9601546001600160a01b03969087165af16108b8611951565b50611981565b8254165af16108cb611951565b506119d8565b80610844565b60035485101561092257806108eb86611847565b5054146108fc57938201938261082d565b5060ff92915061091a90610911600195611847565b50339101611e64565b908480610832565b610832565b50600285015434101561080d565b506001548111156107e0565b3461057d57606036600319011261057d576004356001600160401b0360243581811161057d576109759036906004016116f3565b9060443590811161057d5761098e9036906004016116f3565b82151580610bb8575b6109a090611899565b826000526020916004835260406000209160099060098401936109c38554611aa4565b80865560089091018054600091825b828110610b80575b50505015610b1c5790610a3f969594939291610a49604051926109fc84611588565b828452878401958652604084019081526060840192338452896000526006895260406000209060005288526040600020935184556001998a965160018601611caa565b5160028401611caa565b51600391820180546001600160a01b0319166001600160a01b03929092169190911790556000965b610aa9575b7f5138483d623eef75882d5ca6ed33e44c7ecafe842f3311844eabf67a297ce76c604087878754908351928352820152a1005b8054871015610b175785610abc88611847565b505414610acd579582019582610a71565b5060409493929150610aff7f5138483d623eef75882d5ca6ed33e44c7ecafe842f3311844eabf67a297ce76c96611847565b5001610b0b8154611aa4565b90559091928580610a76565b610a76565b60405162461bcd60e51b815260048101879052603660248201527f4f6e6c792074686f73652077686f2068617665206a6f696e656420746865206160448201527536313ab69031b0b71030b2321030b71034b6b0b3b29760511b6064820152608490fd5b610b8a8183611520565b905460039190911b1c6001600160a01b03163314610baa576001016109d2565b5050505060018880806109da565b50600154831115610997565b3461057d57600036600319011261057d576020600154604051908152f35b3461057d57600036600319011261057d5760008060038054925b838110610d645750610c26610c1083611882565b92610c1e60405194856115bf565b808452611882565b60209390601f19018460005b828110610d4e57505050906000916000905b808210610ca957604080518781528651818901819052600092600582901b8301810191898b01918b9085015b828710610c7d5785850386f35b909192938280610c99600193603f198a8203018652885161173a565b9601920196019592919092610c70565b90929460009492945b610cbb85611847565b50600880910154821015610d3f5781610cde91610cd788611847565b5001611520565b905490871b1c6001600160a01b03163314610cfb57600101610cb2565b5094610d34600191610d19610d138795969897611847565b50611dc9565b610d238289611ab3565b52610d2e8188611ab3565b50611aa4565b915b01909291610c44565b50509490919392600190610d36565b610d56611d79565b828288010152018590610c32565b909160005b610d7283611847565b50600880910154821015610dc25781610d8e91610cd786611847565b905490851b1c6001600160a01b03163314610dab57600101610d69565b50610dba600191939293611aa4565b925b01610bfc565b50509190600190610dbc565b610dd7366116c2565b90610de0611a2f565b5080151580610eac575b610df390611899565b81151580610e91575b610e0590611b6a565b806000526004602052610e4b600080808060408120600160ff81830154161480610e83575b610e33906118e5565b60036108be8380808060646108936002543490611931565b600052600660205260406000209060005260205261062b610e6f6040600020611ac7565b604051918291602083526020830190611474565b506002810154341015610e2a565b50600081815260046020526040902060090154821115610dfc565b50600154811115610dea565b3461057d5760208060031936011261057d576004359081151580610f73575b610ee090611899565b81600052600460205260096040600020610f0160ff60018301541615611bb6565b015490610f0d82611a54565b9260015b83811115610f27576040518061062b87826114bc565b8160005260068352604060002081600052835260406000209060001981019181831161049e57610f6e92610f5d610d2e92611ac7565b610f67828a611ab3565b5287611ab3565b610f11565b50600154821115610ed7565b3461057d57610f8d366116c2565b90600052600660205260406000209060005260205260406000208054610fb5600183016115e0565b91610ffe610fc5600283016115e0565b91600360018060a01b039101541691610ff06040519586958652608060208701526080860190611434565b908482036040860152611434565b9060608301520390f35b3461057d57602036600319011261057d576004356001600160401b03811161057d576110389036906004016116f3565b611043331515611c02565b8051156110c85733600052600560205260406000208054600160401b81101561046b5761107591600182018155611520565b610455578161108391611caa565b7f34647a087c36357c4b77d3d7b4bc2b55d01c3ef8726dc75a70652d96e1510cc36110b960405192604084526040840190611434565b914260208201528033930390a2005b60405162461bcd60e51b8152602060048201526011602482015270283632b0b9b29030b2321030903ab9361760791b6044820152606490fd5b3461057d5761110f366116c2565b90611118611a2f565b5080151580611176575b61112b90611899565b8115158061115b575b61113d90611b6a565b806000526004602052610e4b60ff6001604060002001541615611bb6565b50600081815260046020526040902060090154821115611134565b50600154811115611122565b3461057d57602036600319011261057d57600435801515806111d7575b6111a890611899565b600052600460205261062b6111c36008604060002001611b10565b604051918291602083526020830190611685565b5060015481111561119f565b3461057d57604036600319011261057d576004356001600160a01b0381169081900361057d57602435906000526005602052604060002090815481101561057d5761122d91611520565b6104555761123d61062b916115e0565b604051918291602083526020830190611434565b3461057d57600036600319011261057d573360005260206005815260406000209081549161127e83611882565b9261128c60405194856115bf565b8084528284018092600052836000206000915b8383106113065750505050604051918083019381845251809452604083019360408160051b85010192916000955b8287106112da5785850386f35b9091929382806112f6600193603f198a82030186528851611434565b96019201960195929190926112cd565b6001868192611317859a999a6115e0565b81520192019201919095949561129f565b60208060031936011261057d576004359081151580611428575b61134b90611899565b81600052600460205260096040600020600160ff8183015416148061141a575b611374906118e5565b6113b96000808080606461138b6002543490611931565b0460036108be8380808061139f8734611944565b958d01546001600160a01b03969087165af16108b8611951565b0154906113c582611a54565b9260015b838111156113df576040518061062b87826114bc565b8160005260068352604060002081600052835260406000209060001981019181831161049e5761141592610f5d610d2e92611ac7565b6113c9565b50600281015434101561136b565b50600154821115611342565b919082519283825260005b848110611460575050826000602080949584010152601f8019910116010190565b60208183018101518483018201520161143f565b908151815260606114a96114976020850151608060208601526080850190611434565b60408501518482036040860152611434565b928101516001600160a01b031691015290565b6020808201906020835283518092526040830192602060408460051b8301019501936000915b8483106114f25750505050505090565b9091929394958480611510600193603f198682030187528a51611474565b98019301930191949392906114e2565b80548210156115385760005260206000200190600090565b634e487b7160e01b600052603260045260246000fd5b90600182811c9216801561157e575b602083101461156857565b634e487b7160e01b600052602260045260246000fd5b91607f169161155d565b608081019081106001600160401b0382111761046b57604052565b61014081019081106001600160401b0382111761046b57604052565b90601f801991011681019081106001600160401b0382111761046b57604052565b906040519182600082546115f38161154e565b908184526020946001916001811690816000146116635750600114611624575b505050611622925003836115bf565b565b600090815285812095935091905b81831061164b5750506116229350820101388080611613565b85548884018501529485019487945091830191611632565b9250505061162294925060ff191682840152151560051b820101388080611613565b90815180825260208080930193019160005b8281106116a5575050505090565b83516001600160a01b031685529381019392810192600101611697565b604090600319011261057d576004359060243590565b6001600160401b03811161046b57601f01601f191660200190565b81601f8201121561057d5780359061170a826116d8565b9261171860405194856115bf565b8284526020838301011161057d57816000926020809301838601378301015290565b906117cd6117af61179d61178b6101408651865260ff60208801511660208701526040870151604087015260018060a01b036060880151166060870152608087015190806080880152860190611434565b60a086015185820360a0870152611434565b60c085015184820360c0860152611434565b60e084015160e0840152610100808501519084830390850152611685565b916101208091015191015290565b95919461182191610100989561182f9560ff61183d999e9d9c9e610120948c521660208b015260408a015260018060a01b03166060890152806080890152870190611434565b9085820360a0870152611434565b9083820360c0850152611434565b9460e08201520152565b60035481101561153857600a906003600052027fc2575a0e9e593c00f959f8c92f12db2869c3395a3b0502d05e2516446f71f85b0190600090565b6001600160401b03811161046b5760051b60200190565b156118a057565b60405162461bcd60e51b815260206004820152601960248201527f5468697320616c62756d20646f6573206e6f74206578697374000000000000006044820152606490fd5b156118ec57565b60405162461bcd60e51b815260206004820152601b60248201527f54686973206973206e6f742061207075626c696320616c62756d2e00000000006044820152606490fd5b8181029291811591840414171561049e57565b9190820391821161049e57565b3d1561197c573d90611962826116d8565b9161197060405193846115bf565b82523d6000602084013e565b606090565b1561198857565b60405162461bcd60e51b815260206004820152602260248201527f466565207061796d656e7420746f20616c62756d206f776e6572206661696c65604482015261321760f11b6064820152608490fd5b156119df57565b60405162461bcd60e51b815260206004820152602260248201527f466565207061796d656e7420746f207472796265206f776e6572206661696c65604482015261321760f11b6064820152608490fd5b60405190611a3c82611588565b60006060838281528160208201528160408201520152565b90611a5e82611882565b611a6b60405191826115bf565b8281528092611a7c601f1991611882565b019060005b828110611a8d57505050565b602090611a98611a2f565b82828501015201611a81565b600019811461049e5760010190565b80518210156115385760209160051b010190565b90604051611ad481611588565b6060819380548352611ae8600182016115e0565b6020840152611af9600282016115e0565b6040840152600301546001600160a01b0316910152565b90604051918281549182825260209260208301916000526020600020936000905b828210611b4757505050611622925003836115bf565b85546001600160a01b031684526001958601958895509381019390910190611b31565b15611b7157565b60405162461bcd60e51b815260206004820152601960248201527f5468697320696d61676520646f6573206e6f74206578697374000000000000006044820152606490fd5b15611bbd57565b60405162461bcd60e51b815260206004820152601860248201527f546869732069732061207072697661746520616c62756d2e00000000000000006044820152606490fd5b15611c0957565b60405162461bcd60e51b815260206004820152601a60248201527f4e6f207a65726f2061646472657373657320616c6c6f7765642e0000000000006044820152606490fd5b818110611c59575050565b60008155600101611c4e565b9190601f8111611c7457505050565b611622926000526020600020906020601f840160051c83019310611ca0575b601f0160051c0190611c4e565b9091508190611c93565b91909182516001600160401b03811161046b57611cd181611ccb845461154e565b84611c65565b602080601f8311600114611d1457508190611d05939495600092611d09575b50508160011b916000199060031b1c19161790565b9055565b015190503880611cf0565b90601f19831695846000526020600020926000905b888210611d6157505083600195969710611d48575b505050811b019055565b015160001960f88460031b161c19169055388080611d3e565b80600185968294968601518155019501930190611d29565b60405190611d86826115a3565b8161012060009182815282602082015282604082015282606082015260606080820152606060a0820152606060c08201528260e082015260606101008201520152565b90604051611dd6816115a3565b82548152600183015460ff1660208201526002830154604082015260038301546001600160a01b0316606082015291829061012090600990611e1a600482016115e0565b6080850152611e2b600582016115e0565b60a0850152611e3c600682016115e0565b60c0850152600781015460e0850152611e5760088201611b10565b6101008501520154910152565b8054600160401b81101561046b57611e8191600182018155611520565b60018060a09493941b038084549260031b9316831b921b1916179055565b90600160401b811161046b57815490808355818110611ebd57505050565b6116229260005260206000209182019101611c4e565b90808214611fad57611ee5815461154e565b906001600160401b03821161046b57611f0882611f02855461154e565b85611c65565b600090601f8311600114611f4357611d05929160009183611f385750508160011b916000199060031b1c19161790565b015490503880611cf0565b815260208082208483528183209291601f1985169083905b828210611f94575050908460019594939210611f7b57505050811b019055565b015460001960f88460031b161c19169055388080611d3e565b8495819295850154815560018091019601940190611f5b565b5050565b818114611fad578154916001600160401b03831161046b57611fd38383611e9f565b60005260206000209060005260206000208154916000925b848410611ff9575050505050565b600191820180546001600160a01b0390921684860155939091019290611feb56fea2646970667358221220ca72d6f207f251d328779b0923d605fa254453f3c662e5926a5b4be9ff2426cc64736f6c63430008180033",
          "opcodes": "PUSH1 0x80 CALLVALUE PUSH2 0x66 JUMPI PUSH1 0x1F PUSH2 0x20D2 CODESIZE DUP2 SWAP1 SUB SWAP2 DUP3 ADD PUSH1 0x1F NOT AND DUP4 ADD SWAP2 PUSH1 0x1 PUSH1 0x1 PUSH1 0x40 SHL SUB DUP4 GT DUP5 DUP5 LT OR PUSH2 0x6B JUMPI DUP1 DUP5 SWAP3 PUSH1 0x20 SWAP5 PUSH1 0x40 MSTORE DUP4 CODECOPY DUP2 ADD SUB SLT PUSH2 0x66 JUMPI MLOAD PUSH1 0x0 DUP1 SLOAD PUSH1 0x1 PUSH1 0x1 PUSH1 0xA0 SHL SUB NOT AND CALLER OR DUP2 SSTORE PUSH1 0x1 SSTORE PUSH1 0x2 SSTORE PUSH1 0x40 MLOAD PUSH2 0x2050 SWAP1 DUP2 PUSH2 0x82 DUP3 CODECOPY RETURN JUMPDEST PUSH1 0x0 DUP1 REVERT JUMPDEST PUSH4 0x4E487B71 PUSH1 0xE0 SHL PUSH1 0x0 MSTORE PUSH1 0x41 PUSH1 0x4 MSTORE PUSH1 0x24 PUSH1 0x0 REVERT INVALID PUSH1 0x80 PUSH1 0x40 MSTORE PUSH1 0x4 CALLDATASIZE LT ISZERO PUSH2 0x12 JUMPI PUSH1 0x0 DUP1 REVERT JUMPDEST PUSH1 0x0 CALLDATALOAD PUSH1 0xE0 SHR DUP1 PUSH4 0xFD59ADB EQ PUSH2 0x1328 JUMPI DUP1 PUSH4 0x11498334 EQ PUSH2 0x1251 JUMPI DUP1 PUSH4 0x2AC33792 EQ PUSH2 0x11E3 JUMPI DUP1 PUSH4 0x3B8F313B EQ PUSH2 0x1182 JUMPI DUP1 PUSH4 0x40368F85 EQ PUSH2 0x1101 JUMPI DUP1 PUSH4 0x42CE1488 EQ PUSH2 0x1008 JUMPI DUP1 PUSH4 0x51927C6D EQ PUSH2 0xF7F JUMPI DUP1 PUSH4 0x56148EB1 EQ PUSH2 0xEB8 JUMPI DUP1 PUSH4 0x57D47A9D EQ PUSH2 0xDCE JUMPI DUP1 PUSH4 0x5C517234 EQ PUSH2 0xBE2 JUMPI DUP1 PUSH4 0x6D49F8CC EQ PUSH2 0xBC4 JUMPI DUP1 PUSH4 0x6F4E27F0 EQ PUSH2 0x941 JUMPI DUP1 PUSH4 0x8D84D7FC EQ PUSH2 0x7C8 JUMPI DUP1 PUSH4 0x8DA5CB5B EQ PUSH2 0x79F JUMPI DUP1 PUSH4 0xD6E465C9 EQ PUSH2 0x67D JUMPI DUP1 PUSH4 0xE89E6A00 EQ PUSH2 0x62F JUMPI DUP1 PUSH4 0xEA5DF059 EQ PUSH2 0x5A2 JUMPI PUSH4 0xF3187157 EQ PUSH2 0xE2 JUMPI PUSH1 0x0 DUP1 REVERT JUMPDEST CALLVALUE PUSH2 0x57D JUMPI PUSH1 0xC0 CALLDATASIZE PUSH1 0x3 NOT ADD SLT PUSH2 0x57D JUMPI PUSH1 0x4 CALLDATALOAD PUSH1 0x1 PUSH1 0x1 PUSH1 0x40 SHL SUB DUP2 GT PUSH2 0x57D JUMPI PUSH2 0x112 SWAP1 CALLDATASIZE SWAP1 PUSH1 0x4 ADD PUSH2 0x16F3 JUMP JUMPDEST PUSH1 0x24 CALLDATALOAD PUSH1 0x1 PUSH1 0x1 PUSH1 0x40 SHL SUB DUP2 GT PUSH2 0x57D JUMPI PUSH2 0x131 SWAP1 CALLDATASIZE SWAP1 PUSH1 0x4 ADD PUSH2 0x16F3 JUMP JUMPDEST PUSH1 0x44 CALLDATALOAD SWAP2 PUSH1 0x1 PUSH1 0x1 PUSH1 0x40 SHL SUB DUP4 GT PUSH2 0x57D JUMPI CALLDATASIZE PUSH1 0x23 DUP5 ADD SLT ISZERO PUSH2 0x57D JUMPI DUP3 PUSH1 0x4 ADD CALLDATALOAD PUSH2 0x15C DUP2 PUSH2 0x1882 JUMP JUMPDEST SWAP4 PUSH2 0x16A PUSH1 0x40 MLOAD SWAP6 DUP7 PUSH2 0x15BF JUMP JUMPDEST DUP2 DUP6 MSTORE PUSH1 0x24 PUSH1 0x20 DUP7 ADD SWAP3 PUSH1 0x5 SHL DUP3 ADD ADD SWAP1 CALLDATASIZE DUP3 GT PUSH2 0x57D JUMPI PUSH1 0x24 ADD SWAP2 JUMPDEST DUP2 DUP4 LT PUSH2 0x582 JUMPI POP POP POP PUSH1 0x64 CALLDATALOAD PUSH1 0x1 PUSH1 0x1 PUSH1 0x40 SHL SUB DUP2 GT PUSH2 0x57D JUMPI PUSH2 0x1B0 SWAP1 CALLDATASIZE SWAP1 PUSH1 0x4 ADD PUSH2 0x16F3 JUMP JUMPDEST SWAP1 PUSH1 0x84 CALLDATALOAD SWAP3 PUSH1 0xFF DUP5 AND DUP5 SUB PUSH2 0x57D JUMPI PUSH2 0x1CA CALLER ISZERO ISZERO PUSH2 0x1C02 JUMP JUMPDEST DUP2 MLOAD ISZERO PUSH2 0x543 JUMPI DUP1 MLOAD ISZERO PUSH2 0x4C2 JUMPI PUSH2 0x1E3 PUSH1 0x1 SLOAD PUSH2 0x1AA4 JUMP JUMPDEST SWAP1 DUP2 PUSH1 0x1 SSTORE DUP6 MLOAD SWAP4 PUSH1 0x1 DUP6 ADD DUP1 SWAP6 GT PUSH2 0x49E JUMPI PUSH2 0x218 PUSH2 0x202 DUP7 PUSH2 0x1882 JUMP JUMPDEST SWAP6 PUSH2 0x210 PUSH1 0x40 MLOAD SWAP8 DUP9 PUSH2 0x15BF JUMP JUMPDEST DUP1 DUP8 MSTORE PUSH2 0x1882 JUMP JUMPDEST PUSH1 0x1F NOT ADD CALLDATASIZE PUSH1 0x20 DUP8 ADD CALLDATACOPY PUSH1 0x0 JUMPDEST DUP8 MLOAD DUP2 LT ISZERO PUSH2 0x256 JUMPI PUSH1 0x1 SWAP1 PUSH1 0x1 PUSH1 0x1 PUSH1 0xA0 SHL SUB PUSH2 0x243 DUP3 DUP12 PUSH2 0x1AB3 JUMP JUMPDEST MLOAD AND PUSH2 0x24F DUP3 DUP10 PUSH2 0x1AB3 JUMP JUMPDEST MSTORE ADD PUSH2 0x225 JUMP JUMPDEST POP SWAP1 DUP5 SWAP2 PUSH1 0x1 PUSH1 0xFF DUP9 DUP11 PUSH2 0x26C CALLER SWAP2 MLOAD DUP9 PUSH2 0x1AB3 JUMP JUMPDEST MSTORE DUP7 PUSH1 0x0 MSTORE PUSH1 0x4 PUSH1 0x20 MSTORE PUSH1 0x40 PUSH1 0x0 KECCAK256 SWAP7 DUP8 SSTORE DUP2 DUP2 AND DUP3 NOT DUP5 DUP10 ADD SLOAD AND OR DUP4 DUP9 ADD SSTORE AND EQ PUSH1 0x0 EQ PUSH2 0x4B4 JUMPI PUSH8 0xDE0B6B3A7640000 DUP1 PUSH1 0xA4 CALLDATALOAD MUL SWAP1 PUSH1 0xA4 CALLDATALOAD DUP3 DIV EQ PUSH1 0xA4 CALLDATALOAD ISZERO OR ISZERO PUSH2 0x49E JUMPI PUSH2 0x2F6 SWAP3 PUSH2 0x2ED SWAP2 JUMPDEST PUSH1 0x2 DUP8 ADD SSTORE PUSH1 0x3 DUP7 ADD DUP1 SLOAD PUSH1 0x1 PUSH1 0x1 PUSH1 0xA0 SHL SUB NOT AND CALLER OR SWAP1 SSTORE PUSH2 0x2E4 DUP8 PUSH1 0x4 DUP9 ADD PUSH2 0x1CAA JUMP JUMPDEST PUSH1 0x5 DUP7 ADD PUSH2 0x1CAA JUMP JUMPDEST PUSH1 0x6 DUP5 ADD PUSH2 0x1CAA JUMP JUMPDEST TIMESTAMP PUSH1 0x7 DUP4 ADD SSTORE DUP1 MLOAD SWAP1 PUSH1 0x1 PUSH1 0x1 PUSH1 0x40 SHL SUB DUP3 GT PUSH2 0x46B JUMPI PUSH1 0x20 SWAP1 PUSH2 0x31D DUP4 PUSH1 0x8 DUP7 ADD PUSH2 0x1E9F JUMP JUMPDEST ADD PUSH1 0x8 DUP4 ADD PUSH1 0x0 MSTORE PUSH1 0x20 PUSH1 0x0 KECCAK256 PUSH1 0x0 JUMPDEST DUP4 DUP2 LT PUSH2 0x481 JUMPI DUP6 DUP6 PUSH1 0x0 PUSH1 0x9 DUP3 ADD SSTORE PUSH1 0x3 SLOAD PUSH1 0x1 PUSH1 0x40 SHL DUP2 LT ISZERO PUSH2 0x46B JUMPI DUP1 PUSH1 0x1 PUSH2 0x35C SWAP3 ADD PUSH1 0x3 SSTORE PUSH2 0x1847 JUMP JUMPDEST SWAP2 SWAP1 SWAP2 PUSH2 0x455 JUMPI DUP1 DUP3 SUB PUSH2 0x3B1 JUMPI JUMPDEST PUSH1 0x1 SLOAD PUSH1 0x40 DUP1 MLOAD DUP2 DUP2 MSTORE PUSH32 0xD3CC7C228A9442B3E32B7FB9E7AC4298594EEB118C36CBFBAF73FEEF8394627D SWAP2 PUSH2 0x3A3 SWAP1 DUP3 ADD DUP8 PUSH2 0x1434 JUMP JUMPDEST SWAP3 PUSH1 0x20 DUP3 ADD MSTORE DUP1 CALLER SWAP4 SUB SWAP1 LOG2 STOP JUMPDEST PUSH1 0x9 DUP2 DUP2 SWAP3 SLOAD DUP5 SSTORE PUSH1 0x1 DUP5 ADD PUSH1 0xFF PUSH1 0x1 DUP4 ADD SLOAD AND PUSH1 0xFF NOT DUP3 SLOAD AND OR SWAP1 SSTORE PUSH1 0x2 DUP2 ADD SLOAD PUSH1 0x2 DUP6 ADD SSTORE PUSH1 0x3 DUP5 ADD PUSH1 0x1 DUP1 PUSH1 0xA0 SHL SUB PUSH1 0x3 DUP4 ADD SLOAD AND PUSH12 0xFFFFFFFFFFFFFFFFFFFFFFFF PUSH1 0xA0 SHL DUP3 SLOAD AND OR SWAP1 SSTORE PUSH2 0x40F PUSH1 0x4 DUP3 ADD PUSH1 0x4 DUP7 ADD PUSH2 0x1ED3 JUMP JUMPDEST PUSH2 0x41F PUSH1 0x5 DUP3 ADD PUSH1 0x5 DUP7 ADD PUSH2 0x1ED3 JUMP JUMPDEST PUSH2 0x42F PUSH1 0x6 DUP3 ADD PUSH1 0x6 DUP7 ADD PUSH2 0x1ED3 JUMP JUMPDEST PUSH1 0x7 DUP2 ADD SLOAD PUSH1 0x7 DUP6 ADD SSTORE PUSH2 0x449 PUSH1 0x8 DUP3 ADD PUSH1 0x8 DUP7 ADD PUSH2 0x1FB1 JUMP JUMPDEST ADD SLOAD SWAP2 ADD SSTORE DUP2 DUP1 PUSH2 0x36B JUMP JUMPDEST PUSH4 0x4E487B71 PUSH1 0xE0 SHL PUSH1 0x0 MSTORE PUSH1 0x0 PUSH1 0x4 MSTORE PUSH1 0x24 PUSH1 0x0 REVERT JUMPDEST PUSH4 0x4E487B71 PUSH1 0xE0 SHL PUSH1 0x0 MSTORE PUSH1 0x41 PUSH1 0x4 MSTORE PUSH1 0x24 PUSH1 0x0 REVERT JUMPDEST DUP3 MLOAD PUSH1 0x1 PUSH1 0x1 PUSH1 0xA0 SHL SUB AND DUP2 DUP4 ADD SSTORE PUSH1 0x20 SWAP1 SWAP3 ADD SWAP2 PUSH1 0x1 ADD PUSH2 0x32D JUMP JUMPDEST PUSH4 0x4E487B71 PUSH1 0xE0 SHL PUSH1 0x0 MSTORE PUSH1 0x11 PUSH1 0x4 MSTORE PUSH1 0x24 PUSH1 0x0 REVERT JUMPDEST PUSH2 0x2ED PUSH2 0x2F6 SWAP3 PUSH1 0x0 PUSH2 0x2BE JUMP JUMPDEST PUSH1 0x40 MLOAD PUSH3 0x461BCD PUSH1 0xE5 SHL DUP2 MSTORE PUSH1 0x20 PUSH1 0x4 DUP3 ADD MSTORE PUSH1 0x4D PUSH1 0x24 DUP3 ADD MSTORE PUSH32 0x446573637269626520796F757220616C62756D20746F206C6574207468652077 PUSH1 0x44 DUP3 ADD MSTORE PUSH32 0x6F726C64206B6E6F7720686F7720796F752066656C74207768656E20796F7520 PUSH1 0x64 DUP3 ADD MSTORE PUSH13 0x31B932B0BA32B2103A3434B997 PUSH1 0x99 SHL PUSH1 0x84 DUP3 ADD MSTORE PUSH1 0xA4 SWAP1 REVERT JUMPDEST PUSH1 0x40 MLOAD PUSH3 0x461BCD PUSH1 0xE5 SHL DUP2 MSTORE PUSH1 0x20 PUSH1 0x4 DUP3 ADD MSTORE PUSH1 0x12 PUSH1 0x24 DUP3 ADD MSTORE PUSH18 0x283632B0B9B29030B2321030903730B6B297 PUSH1 0x71 SHL PUSH1 0x44 DUP3 ADD MSTORE PUSH1 0x64 SWAP1 REVERT JUMPDEST PUSH1 0x0 DUP1 REVERT JUMPDEST DUP3 CALLDATALOAD PUSH1 0x1 PUSH1 0x1 PUSH1 0xA0 SHL SUB DUP2 AND DUP2 SUB PUSH2 0x57D JUMPI DUP2 MSTORE PUSH1 0x20 SWAP3 DUP4 ADD SWAP3 ADD PUSH2 0x187 JUMP JUMPDEST CALLVALUE PUSH2 0x57D JUMPI PUSH1 0x20 CALLDATASIZE PUSH1 0x3 NOT ADD SLT PUSH2 0x57D JUMPI PUSH1 0x4 CALLDATALOAD PUSH1 0x3 SLOAD DUP2 LT ISZERO PUSH2 0x57D JUMPI PUSH2 0x5C9 SWAP1 PUSH2 0x1847 JUMP JUMPDEST POP DUP1 SLOAD PUSH1 0x1 DUP3 ADD SLOAD PUSH1 0x2 DUP4 ADD SLOAD PUSH1 0x3 DUP5 ADD SLOAD PUSH1 0xFF SWAP1 SWAP3 AND SWAP4 PUSH2 0x62B SWAP3 PUSH1 0x1 PUSH1 0x1 PUSH1 0xA0 SHL SUB AND PUSH2 0x5FA PUSH1 0x4 DUP4 ADD PUSH2 0x15E0 JUMP JUMPDEST PUSH2 0x606 PUSH1 0x5 DUP5 ADD PUSH2 0x15E0 JUMP JUMPDEST SWAP1 PUSH2 0x613 PUSH1 0x6 DUP6 ADD PUSH2 0x15E0 JUMP JUMPDEST SWAP3 PUSH1 0x9 PUSH1 0x7 DUP7 ADD SLOAD SWAP6 ADD SLOAD SWAP6 PUSH1 0x40 MLOAD SWAP10 DUP11 SWAP10 DUP11 PUSH2 0x17DB JUMP JUMPDEST SUB SWAP1 RETURN JUMPDEST CALLVALUE PUSH2 0x57D JUMPI PUSH1 0x20 CALLDATASIZE PUSH1 0x3 NOT ADD SLT PUSH2 0x57D JUMPI PUSH1 0x4 CALLDATALOAD PUSH1 0x0 MSTORE PUSH1 0x4 PUSH1 0x20 MSTORE PUSH1 0x40 PUSH1 0x0 KECCAK256 DUP1 SLOAD PUSH2 0x62B PUSH1 0xFF PUSH1 0x1 DUP5 ADD SLOAD AND SWAP3 PUSH1 0x2 DUP2 ADD SLOAD SWAP1 PUSH1 0x1 DUP1 PUSH1 0xA0 SHL SUB PUSH1 0x3 DUP3 ADD SLOAD AND PUSH2 0x5FA PUSH1 0x4 DUP4 ADD PUSH2 0x15E0 JUMP JUMPDEST CALLVALUE PUSH2 0x57D JUMPI PUSH1 0x20 DUP1 PUSH1 0x3 NOT CALLDATASIZE ADD SLT PUSH2 0x57D JUMPI PUSH1 0x4 CALLDATALOAD PUSH2 0x69A PUSH2 0x1D79 JUMP JUMPDEST POP DUP1 ISZERO ISZERO DUP1 PUSH2 0x793 JUMPI JUMPDEST PUSH2 0x6AD SWAP1 PUSH2 0x1899 JUMP JUMPDEST PUSH1 0x0 SWAP1 PUSH1 0x0 JUMPDEST DUP2 PUSH1 0x0 MSTORE PUSH1 0x4 DUP5 MSTORE PUSH1 0x8 PUSH1 0x40 PUSH1 0x0 KECCAK256 ADD DUP1 SLOAD DUP3 LT ISZERO PUSH2 0x78B JUMPI DUP2 PUSH2 0x6D6 SWAP2 PUSH2 0x1520 JUMP JUMPDEST SWAP1 SLOAD PUSH1 0x3 SWAP2 SWAP1 SWAP2 SHL SHR PUSH1 0x1 PUSH1 0x1 PUSH1 0xA0 SHL SUB AND CALLER EQ PUSH2 0x6F6 JUMPI PUSH1 0x1 ADD PUSH2 0x6B3 JUMP JUMPDEST POP SWAP1 POP PUSH1 0x1 JUMPDEST ISZERO PUSH2 0x72A JUMPI PUSH1 0x0 MSTORE PUSH1 0x4 DUP2 MSTORE PUSH2 0x715 PUSH1 0x40 PUSH1 0x0 KECCAK256 PUSH2 0x1DC9 JUMP JUMPDEST SWAP1 PUSH2 0x62B PUSH1 0x40 MLOAD SWAP3 DUP3 DUP5 SWAP4 DUP5 MSTORE DUP4 ADD SWAP1 PUSH2 0x173A JUMP JUMPDEST PUSH1 0x40 MLOAD PUSH3 0x461BCD PUSH1 0xE5 SHL DUP2 MSTORE PUSH1 0x4 DUP2 ADD DUP4 SWAP1 MSTORE PUSH1 0x33 PUSH1 0x24 DUP3 ADD MSTORE PUSH32 0x4F6E6C792074686F73652077686F2068617665206A6F696E6564207468652061 PUSH1 0x44 DUP3 ADD MSTORE PUSH19 0x36313AB69039B2B2903A34329030B6313AB697 PUSH1 0x69 SHL PUSH1 0x64 DUP3 ADD MSTORE PUSH1 0x84 SWAP1 REVERT JUMPDEST POP POP SWAP1 PUSH2 0x6FC JUMP JUMPDEST POP PUSH1 0x1 SLOAD DUP2 GT ISZERO PUSH2 0x6A4 JUMP JUMPDEST CALLVALUE PUSH2 0x57D JUMPI PUSH1 0x0 CALLDATASIZE PUSH1 0x3 NOT ADD SLT PUSH2 0x57D JUMPI PUSH1 0x0 SLOAD PUSH1 0x40 MLOAD PUSH1 0x1 PUSH1 0x1 PUSH1 0xA0 SHL SUB SWAP1 SWAP2 AND DUP2 MSTORE PUSH1 0x20 SWAP1 RETURN JUMPDEST PUSH1 0x20 CALLDATASIZE PUSH1 0x3 NOT ADD SLT PUSH2 0x57D JUMPI PUSH1 0x4 CALLDATALOAD DUP1 ISZERO ISZERO DUP1 PUSH2 0x935 JUMPI JUMPDEST PUSH2 0x7E9 SWAP1 PUSH2 0x1899 JUMP JUMPDEST DUP1 PUSH1 0x0 MSTORE PUSH1 0x4 PUSH1 0x20 MSTORE PUSH1 0x40 PUSH1 0x0 KECCAK256 SWAP1 PUSH1 0x1 DUP1 PUSH1 0x1 DUP5 ADD SWAP3 PUSH1 0xFF DUP5 SLOAD AND ISZERO DUP1 ISZERO PUSH2 0x927 JUMPI JUMPDEST PUSH2 0x819 SWAP1 SWAP5 SWAP4 SWAP5 PUSH2 0x1BB6 JUMP JUMPDEST PUSH1 0x8 SWAP1 PUSH2 0x829 CALLER PUSH1 0x8 DUP9 ADD PUSH2 0x1E64 JUMP JUMPDEST PUSH1 0x0 SWAP5 JUMPDEST PUSH2 0x8D7 JUMPI JUMPDEST POP POP POP PUSH1 0x1 SWAP2 POP PUSH1 0xFF SWAP1 SLOAD AND EQ PUSH2 0x872 JUMPI JUMPDEST PUSH1 0x40 MLOAD TIMESTAMP DUP2 MSTORE PUSH32 0x59A4DADCE245655CE4C5EA128F142C4034B1206DEFF52FF605866CD86433DE81 PUSH1 0x20 CALLER SWAP3 LOG2 STOP JUMPDEST PUSH1 0x0 DUP1 DUP1 DUP1 PUSH2 0x8D1 SWAP5 PUSH1 0x3 PUSH2 0x8BE DUP4 DUP1 DUP1 DUP1 PUSH1 0x64 PUSH2 0x893 PUSH1 0x2 SLOAD CALLVALUE SWAP1 PUSH2 0x1931 JUMP JUMPDEST DIV SWAP7 PUSH2 0x89F DUP9 CALLVALUE PUSH2 0x1944 JUMP JUMPDEST SWAP7 ADD SLOAD PUSH1 0x1 PUSH1 0x1 PUSH1 0xA0 SHL SUB SWAP7 SWAP1 DUP8 AND GAS CALL PUSH2 0x8B8 PUSH2 0x1951 JUMP JUMPDEST POP PUSH2 0x1981 JUMP JUMPDEST DUP3 SLOAD AND GAS CALL PUSH2 0x8CB PUSH2 0x1951 JUMP JUMPDEST POP PUSH2 0x19D8 JUMP JUMPDEST DUP1 PUSH2 0x844 JUMP JUMPDEST PUSH1 0x3 SLOAD DUP6 LT ISZERO PUSH2 0x922 JUMPI DUP1 PUSH2 0x8EB DUP7 PUSH2 0x1847 JUMP JUMPDEST POP SLOAD EQ PUSH2 0x8FC JUMPI SWAP4 DUP3 ADD SWAP4 DUP3 PUSH2 0x82D JUMP JUMPDEST POP PUSH1 0xFF SWAP3 SWAP2 POP PUSH2 0x91A SWAP1 PUSH2 0x911 PUSH1 0x1 SWAP6 PUSH2 0x1847 JUMP JUMPDEST POP CALLER SWAP2 ADD PUSH2 0x1E64 JUMP JUMPDEST SWAP1 DUP5 DUP1 PUSH2 0x832 JUMP JUMPDEST PUSH2 0x832 JUMP JUMPDEST POP PUSH1 0x2 DUP6 ADD SLOAD CALLVALUE LT ISZERO PUSH2 0x80D JUMP JUMPDEST POP PUSH1 0x1 SLOAD DUP2 GT ISZERO PUSH2 0x7E0 JUMP JUMPDEST CALLVALUE PUSH2 0x57D JUMPI PUSH1 0x60 CALLDATASIZE PUSH1 0x3 NOT ADD SLT PUSH2 0x57D JUMPI PUSH1 0x4 CALLDATALOAD PUSH1 0x1 PUSH1 0x1 PUSH1 0x40 SHL SUB PUSH1 0x24 CALLDATALOAD DUP2 DUP2 GT PUSH2 0x57D JUMPI PUSH2 0x975 SWAP1 CALLDATASIZE SWAP1 PUSH1 0x4 ADD PUSH2 0x16F3 JUMP JUMPDEST SWAP1 PUSH1 0x44 CALLDATALOAD SWAP1 DUP2 GT PUSH2 0x57D JUMPI PUSH2 0x98E SWAP1 CALLDATASIZE SWAP1 PUSH1 0x4 ADD PUSH2 0x16F3 JUMP JUMPDEST DUP3 ISZERO ISZERO DUP1 PUSH2 0xBB8 JUMPI JUMPDEST PUSH2 0x9A0 SWAP1 PUSH2 0x1899 JUMP JUMPDEST DUP3 PUSH1 0x0 MSTORE PUSH1 0x20 SWAP2 PUSH1 0x4 DUP4 MSTORE PUSH1 0x40 PUSH1 0x0 KECCAK256 SWAP2 PUSH1 0x9 SWAP1 PUSH1 0x9 DUP5 ADD SWAP4 PUSH2 0x9C3 DUP6 SLOAD PUSH2 0x1AA4 JUMP JUMPDEST DUP1 DUP7 SSTORE PUSH1 0x8 SWAP1 SWAP2 ADD DUP1 SLOAD PUSH1 0x0 SWAP2 DUP3 JUMPDEST DUP3 DUP2 LT PUSH2 0xB80 JUMPI JUMPDEST POP POP POP ISZERO PUSH2 0xB1C JUMPI SWAP1 PUSH2 0xA3F SWAP7 SWAP6 SWAP5 SWAP4 SWAP3 SWAP2 PUSH2 0xA49 PUSH1 0x40 MLOAD SWAP3 PUSH2 0x9FC DUP5 PUSH2 0x1588 JUMP JUMPDEST DUP3 DUP5 MSTORE DUP8 DUP5 ADD SWAP6 DUP7 MSTORE PUSH1 0x40 DUP5 ADD SWAP1 DUP2 MSTORE PUSH1 0x60 DUP5 ADD SWAP3 CALLER DUP5 MSTORE DUP10 PUSH1 0x0 MSTORE PUSH1 0x6 DUP10 MSTORE PUSH1 0x40 PUSH1 0x0 KECCAK256 SWAP1 PUSH1 0x0 MSTORE DUP9 MSTORE PUSH1 0x40 PUSH1 0x0 KECCAK256 SWAP4 MLOAD DUP5 SSTORE PUSH1 0x1 SWAP10 DUP11 SWAP7 MLOAD PUSH1 0x1 DUP7 ADD PUSH2 0x1CAA JUMP JUMPDEST MLOAD PUSH1 0x2 DUP5 ADD PUSH2 0x1CAA JUMP JUMPDEST MLOAD PUSH1 0x3 SWAP2 DUP3 ADD DUP1 SLOAD PUSH1 0x1 PUSH1 0x1 PUSH1 0xA0 SHL SUB NOT AND PUSH1 0x1 PUSH1 0x1 PUSH1 0xA0 SHL SUB SWAP3 SWAP1 SWAP3 AND SWAP2 SWAP1 SWAP2 OR SWAP1 SSTORE PUSH1 0x0 SWAP7 JUMPDEST PUSH2 0xAA9 JUMPI JUMPDEST PUSH32 0x5138483D623EEF75882D5CA6ED33E44C7ECAFE842F3311844EABF67A297CE76C PUSH1 0x40 DUP8 DUP8 DUP8 SLOAD SWAP1 DUP4 MLOAD SWAP3 DUP4 MSTORE DUP3 ADD MSTORE LOG1 STOP JUMPDEST DUP1 SLOAD DUP8 LT ISZERO PUSH2 0xB17 JUMPI DUP6 PUSH2 0xABC DUP9 PUSH2 0x1847 JUMP JUMPDEST POP SLOAD EQ PUSH2 0xACD JUMPI SWAP6 DUP3 ADD SWAP6 DUP3 PUSH2 0xA71 JUMP JUMPDEST POP PUSH1 0x40 SWAP5 SWAP4 SWAP3 SWAP2 POP PUSH2 0xAFF PUSH32 0x5138483D623EEF75882D5CA6ED33E44C7ECAFE842F3311844EABF67A297CE76C SWAP7 PUSH2 0x1847 JUMP JUMPDEST POP ADD PUSH2 0xB0B DUP2 SLOAD PUSH2 0x1AA4 JUMP JUMPDEST SWAP1 SSTORE SWAP1 SWAP2 SWAP3 DUP6 DUP1 PUSH2 0xA76 JUMP JUMPDEST PUSH2 0xA76 JUMP JUMPDEST PUSH1 0x40 MLOAD PUSH3 0x461BCD PUSH1 0xE5 SHL DUP2 MSTORE PUSH1 0x4 DUP2 ADD DUP8 SWAP1 MSTORE PUSH1 0x36 PUSH1 0x24 DUP3 ADD MSTORE PUSH32 0x4F6E6C792074686F73652077686F2068617665206A6F696E6564207468652061 PUSH1 0x44 DUP3 ADD MSTORE PUSH22 0x36313AB69031B0B71030B2321030B71034B6B0B3B297 PUSH1 0x51 SHL PUSH1 0x64 DUP3 ADD MSTORE PUSH1 0x84 SWAP1 REVERT JUMPDEST PUSH2 0xB8A DUP2 DUP4 PUSH2 0x1520 JUMP JUMPDEST SWAP1 SLOAD PUSH1 0x3 SWAP2 SWAP1 SWAP2 SHL SHR PUSH1 0x1 PUSH1 0x1 PUSH1 0xA0 SHL SUB AND CALLER EQ PUSH2 0xBAA JUMPI PUSH1 0x1 ADD PUSH2 0x9D2 JUMP JUMPDEST POP POP POP POP PUSH1 0x1 DUP9 DUP1 DUP1 PUSH2 0x9DA JUMP JUMPDEST POP PUSH1 0x1 SLOAD DUP4 GT ISZERO PUSH2 0x997 JUMP JUMPDEST CALLVALUE PUSH2 0x57D JUMPI PUSH1 0x0 CALLDATASIZE PUSH1 0x3 NOT ADD SLT PUSH2 0x57D JUMPI PUSH1 0x20 PUSH1 0x1 SLOAD PUSH1 0x40 MLOAD SWAP1 DUP2 MSTORE RETURN JUMPDEST CALLVALUE PUSH2 0x57D JUMPI PUSH1 0x0 CALLDATASIZE PUSH1 0x3 NOT ADD SLT PUSH2 0x57D JUMPI PUSH1 0x0 DUP1 PUSH1 0x3 DUP1 SLOAD SWAP3 JUMPDEST DUP4 DUP2 LT PUSH2 0xD64 JUMPI POP PUSH2 0xC26 PUSH2 0xC10 DUP4 PUSH2 0x1882 JUMP JUMPDEST SWAP3 PUSH2 0xC1E PUSH1 0x40 MLOAD SWAP5 DUP6 PUSH2 0x15BF JUMP JUMPDEST DUP1 DUP5 MSTORE PUSH2 0x1882 JUMP JUMPDEST PUSH1 0x20 SWAP4 SWAP1 PUSH1 0x1F NOT ADD DUP5 PUSH1 0x0 JUMPDEST DUP3 DUP2 LT PUSH2 0xD4E JUMPI POP POP POP SWAP1 PUSH1 0x0 SWAP2 PUSH1 0x0 SWAP1 JUMPDEST DUP1 DUP3 LT PUSH2 0xCA9 JUMPI PUSH1 0x40 DUP1 MLOAD DUP8 DUP2 MSTORE DUP7 MLOAD DUP2 DUP10 ADD DUP2 SWAP1 MSTORE PUSH1 0x0 SWAP3 PUSH1 0x5 DUP3 SWAP1 SHL DUP4 ADD DUP2 ADD SWAP2 DUP10 DUP12 ADD SWAP2 DUP12 SWAP1 DUP6 ADD JUMPDEST DUP3 DUP8 LT PUSH2 0xC7D JUMPI DUP6 DUP6 SUB DUP7 RETURN JUMPDEST SWAP1 SWAP2 SWAP3 SWAP4 DUP3 DUP1 PUSH2 0xC99 PUSH1 0x1 SWAP4 PUSH1 0x3F NOT DUP11 DUP3 SUB ADD DUP7 MSTORE DUP9 MLOAD PUSH2 0x173A JUMP JUMPDEST SWAP7 ADD SWAP3 ADD SWAP7 ADD SWAP6 SWAP3 SWAP2 SWAP1 SWAP3 PUSH2 0xC70 JUMP JUMPDEST SWAP1 SWAP3 SWAP5 PUSH1 0x0 SWAP5 SWAP3 SWAP5 JUMPDEST PUSH2 0xCBB DUP6 PUSH2 0x1847 JUMP JUMPDEST POP PUSH1 0x8 DUP1 SWAP2 ADD SLOAD DUP3 LT ISZERO PUSH2 0xD3F JUMPI DUP2 PUSH2 0xCDE SWAP2 PUSH2 0xCD7 DUP9 PUSH2 0x1847 JUMP JUMPDEST POP ADD PUSH2 0x1520 JUMP JUMPDEST SWAP1 SLOAD SWAP1 DUP8 SHL SHR PUSH1 0x1 PUSH1 0x1 PUSH1 0xA0 SHL SUB AND CALLER EQ PUSH2 0xCFB JUMPI PUSH1 0x1 ADD PUSH2 0xCB2 JUMP JUMPDEST POP SWAP5 PUSH2 0xD34 PUSH1 0x1 SWAP2 PUSH2 0xD19 PUSH2 0xD13 DUP8 SWAP6 SWAP7 SWAP9 SWAP8 PUSH2 0x1847 JUMP JUMPDEST POP PUSH2 0x1DC9 JUMP JUMPDEST PUSH2 0xD23 DUP3 DUP10 PUSH2 0x1AB3 JUMP JUMPDEST MSTORE PUSH2 0xD2E DUP2 DUP9 PUSH2 0x1AB3 JUMP JUMPDEST POP PUSH2 0x1AA4 JUMP JUMPDEST SWAP2 JUMPDEST ADD SWAP1 SWAP3 SWAP2 PUSH2 0xC44 JUMP JUMPDEST POP POP SWAP5 SWAP1 SWAP2 SWAP4 SWAP3 PUSH1 0x1 SWAP1 PUSH2 0xD36 JUMP JUMPDEST PUSH2 0xD56 PUSH2 0x1D79 JUMP JUMPDEST DUP3 DUP3 DUP9 ADD ADD MSTORE ADD DUP6 SWAP1 PUSH2 0xC32 JUMP JUMPDEST SWAP1 SWAP2 PUSH1 0x0 JUMPDEST PUSH2 0xD72 DUP4 PUSH2 0x1847 JUMP JUMPDEST POP PUSH1 0x8 DUP1 SWAP2 ADD SLOAD DUP3 LT ISZERO PUSH2 0xDC2 JUMPI DUP2 PUSH2 0xD8E SWAP2 PUSH2 0xCD7 DUP7 PUSH2 0x1847 JUMP JUMPDEST SWAP1 SLOAD SWAP1 DUP6 SHL SHR PUSH1 0x1 PUSH1 0x1 PUSH1 0xA0 SHL SUB AND CALLER EQ PUSH2 0xDAB JUMPI PUSH1 0x1 ADD PUSH2 0xD69 JUMP JUMPDEST POP PUSH2 0xDBA PUSH1 0x1 SWAP2 SWAP4 SWAP3 SWAP4 PUSH2 0x1AA4 JUMP JUMPDEST SWAP3 JUMPDEST ADD PUSH2 0xBFC JUMP JUMPDEST POP POP SWAP2 SWAP1 PUSH1 0x1 SWAP1 PUSH2 0xDBC JUMP JUMPDEST PUSH2 0xDD7 CALLDATASIZE PUSH2 0x16C2 JUMP JUMPDEST SWAP1 PUSH2 0xDE0 PUSH2 0x1A2F JUMP JUMPDEST POP DUP1 ISZERO ISZERO DUP1 PUSH2 0xEAC JUMPI JUMPDEST PUSH2 0xDF3 SWAP1 PUSH2 0x1899 JUMP JUMPDEST DUP2 ISZERO ISZERO DUP1 PUSH2 0xE91 JUMPI JUMPDEST PUSH2 0xE05 SWAP1 PUSH2 0x1B6A JUMP JUMPDEST DUP1 PUSH1 0x0 MSTORE PUSH1 0x4 PUSH1 0x20 MSTORE PUSH2 0xE4B PUSH1 0x0 DUP1 DUP1 DUP1 PUSH1 0x40 DUP2 KECCAK256 PUSH1 0x1 PUSH1 0xFF DUP2 DUP4 ADD SLOAD AND EQ DUP1 PUSH2 0xE83 JUMPI JUMPDEST PUSH2 0xE33 SWAP1 PUSH2 0x18E5 JUMP JUMPDEST PUSH1 0x3 PUSH2 0x8BE DUP4 DUP1 DUP1 DUP1 PUSH1 0x64 PUSH2 0x893 PUSH1 0x2 SLOAD CALLVALUE SWAP1 PUSH2 0x1931 JUMP JUMPDEST PUSH1 0x0 MSTORE PUSH1 0x6 PUSH1 0x20 MSTORE PUSH1 0x40 PUSH1 0x0 KECCAK256 SWAP1 PUSH1 0x0 MSTORE PUSH1 0x20 MSTORE PUSH2 0x62B PUSH2 0xE6F PUSH1 0x40 PUSH1 0x0 KECCAK256 PUSH2 0x1AC7 JUMP JUMPDEST PUSH1 0x40 MLOAD SWAP2 DUP3 SWAP2 PUSH1 0x20 DUP4 MSTORE PUSH1 0x20 DUP4 ADD SWAP1 PUSH2 0x1474 JUMP JUMPDEST POP PUSH1 0x2 DUP2 ADD SLOAD CALLVALUE LT ISZERO PUSH2 0xE2A JUMP JUMPDEST POP PUSH1 0x0 DUP2 DUP2 MSTORE PUSH1 0x4 PUSH1 0x20 MSTORE PUSH1 0x40 SWAP1 KECCAK256 PUSH1 0x9 ADD SLOAD DUP3 GT ISZERO PUSH2 0xDFC JUMP JUMPDEST POP PUSH1 0x1 SLOAD DUP2 GT ISZERO PUSH2 0xDEA JUMP JUMPDEST CALLVALUE PUSH2 0x57D JUMPI PUSH1 0x20 DUP1 PUSH1 0x3 NOT CALLDATASIZE ADD SLT PUSH2 0x57D JUMPI PUSH1 0x4 CALLDATALOAD SWAP1 DUP2 ISZERO ISZERO DUP1 PUSH2 0xF73 JUMPI JUMPDEST PUSH2 0xEE0 SWAP1 PUSH2 0x1899 JUMP JUMPDEST DUP2 PUSH1 0x0 MSTORE PUSH1 0x4 PUSH1 0x20 MSTORE PUSH1 0x9 PUSH1 0x40 PUSH1 0x0 KECCAK256 PUSH2 0xF01 PUSH1 0xFF PUSH1 0x1 DUP4 ADD SLOAD AND ISZERO PUSH2 0x1BB6 JUMP JUMPDEST ADD SLOAD SWAP1 PUSH2 0xF0D DUP3 PUSH2 0x1A54 JUMP JUMPDEST SWAP3 PUSH1 0x1 JUMPDEST DUP4 DUP2 GT ISZERO PUSH2 0xF27 JUMPI PUSH1 0x40 MLOAD DUP1 PUSH2 0x62B DUP8 DUP3 PUSH2 0x14BC JUMP JUMPDEST DUP2 PUSH1 0x0 MSTORE PUSH1 0x6 DUP4 MSTORE PUSH1 0x40 PUSH1 0x0 KECCAK256 DUP2 PUSH1 0x0 MSTORE DUP4 MSTORE PUSH1 0x40 PUSH1 0x0 KECCAK256 SWAP1 PUSH1 0x0 NOT DUP2 ADD SWAP2 DUP2 DUP4 GT PUSH2 0x49E JUMPI PUSH2 0xF6E SWAP3 PUSH2 0xF5D PUSH2 0xD2E SWAP3 PUSH2 0x1AC7 JUMP JUMPDEST PUSH2 0xF67 DUP3 DUP11 PUSH2 0x1AB3 JUMP JUMPDEST MSTORE DUP8 PUSH2 0x1AB3 JUMP JUMPDEST PUSH2 0xF11 JUMP JUMPDEST POP PUSH1 0x1 SLOAD DUP3 GT ISZERO PUSH2 0xED7 JUMP JUMPDEST CALLVALUE PUSH2 0x57D JUMPI PUSH2 0xF8D CALLDATASIZE PUSH2 0x16C2 JUMP JUMPDEST SWAP1 PUSH1 0x0 MSTORE PUSH1 0x6 PUSH1 0x20 MSTORE PUSH1 0x40 PUSH1 0x0 KECCAK256 SWAP1 PUSH1 0x0 MSTORE PUSH1 0x20 MSTORE PUSH1 0x40 PUSH1 0x0 KECCAK256 DUP1 SLOAD PUSH2 0xFB5 PUSH1 0x1 DUP4 ADD PUSH2 0x15E0 JUMP JUMPDEST SWAP2 PUSH2 0xFFE PUSH2 0xFC5 PUSH1 0x2 DUP4 ADD PUSH2 0x15E0 JUMP JUMPDEST SWAP2 PUSH1 0x3 PUSH1 0x1 DUP1 PUSH1 0xA0 SHL SUB SWAP2 ADD SLOAD AND SWAP2 PUSH2 0xFF0 PUSH1 0x40 MLOAD SWAP6 DUP7 SWAP6 DUP7 MSTORE PUSH1 0x80 PUSH1 0x20 DUP8 ADD MSTORE PUSH1 0x80 DUP7 ADD SWAP1 PUSH2 0x1434 JUMP JUMPDEST SWAP1 DUP5 DUP3 SUB PUSH1 0x40 DUP7 ADD MSTORE PUSH2 0x1434 JUMP JUMPDEST SWAP1 PUSH1 0x60 DUP4 ADD MSTORE SUB SWAP1 RETURN JUMPDEST CALLVALUE PUSH2 0x57D JUMPI PUSH1 0x20 CALLDATASIZE PUSH1 0x3 NOT ADD SLT PUSH2 0x57D JUMPI PUSH1 0x4 CALLDATALOAD PUSH1 0x1 PUSH1 0x1 PUSH1 0x40 SHL SUB DUP2 GT PUSH2 0x57D JUMPI PUSH2 0x1038 SWAP1 CALLDATASIZE SWAP1 PUSH1 0x4 ADD PUSH2 0x16F3 JUMP JUMPDEST PUSH2 0x1043 CALLER ISZERO ISZERO PUSH2 0x1C02 JUMP JUMPDEST DUP1 MLOAD ISZERO PUSH2 0x10C8 JUMPI CALLER PUSH1 0x0 MSTORE PUSH1 0x5 PUSH1 0x20 MSTORE PUSH1 0x40 PUSH1 0x0 KECCAK256 DUP1 SLOAD PUSH1 0x1 PUSH1 0x40 SHL DUP2 LT ISZERO PUSH2 0x46B JUMPI PUSH2 0x1075 SWAP2 PUSH1 0x1 DUP3 ADD DUP2 SSTORE PUSH2 0x1520 JUMP JUMPDEST PUSH2 0x455 JUMPI DUP2 PUSH2 0x1083 SWAP2 PUSH2 0x1CAA JUMP JUMPDEST PUSH32 0x34647A087C36357C4B77D3D7B4BC2B55D01C3EF8726DC75A70652D96E1510CC3 PUSH2 0x10B9 PUSH1 0x40 MLOAD SWAP3 PUSH1 0x40 DUP5 MSTORE PUSH1 0x40 DUP5 ADD SWAP1 PUSH2 0x1434 JUMP JUMPDEST SWAP2 TIMESTAMP PUSH1 0x20 DUP3 ADD MSTORE DUP1 CALLER SWAP4 SUB SWAP1 LOG2 STOP JUMPDEST PUSH1 0x40 MLOAD PUSH3 0x461BCD PUSH1 0xE5 SHL DUP2 MSTORE PUSH1 0x20 PUSH1 0x4 DUP3 ADD MSTORE PUSH1 0x11 PUSH1 0x24 DUP3 ADD MSTORE PUSH17 0x283632B0B9B29030B2321030903AB93617 PUSH1 0x79 SHL PUSH1 0x44 DUP3 ADD MSTORE PUSH1 0x64 SWAP1 REVERT JUMPDEST CALLVALUE PUSH2 0x57D JUMPI PUSH2 0x110F CALLDATASIZE PUSH2 0x16C2 JUMP JUMPDEST SWAP1 PUSH2 0x1118 PUSH2 0x1A2F JUMP JUMPDEST POP DUP1 ISZERO ISZERO DUP1 PUSH2 0x1176 JUMPI JUMPDEST PUSH2 0x112B SWAP1 PUSH2 0x1899 JUMP JUMPDEST DUP2 ISZERO ISZERO DUP1 PUSH2 0x115B JUMPI JUMPDEST PUSH2 0x113D SWAP1 PUSH2 0x1B6A JUMP JUMPDEST DUP1 PUSH1 0x0 MSTORE PUSH1 0x4 PUSH1 0x20 MSTORE PUSH2 0xE4B PUSH1 0xFF PUSH1 0x1 PUSH1 0x40 PUSH1 0x0 KECCAK256 ADD SLOAD AND ISZERO PUSH2 0x1BB6 JUMP JUMPDEST POP PUSH1 0x0 DUP2 DUP2 MSTORE PUSH1 0x4 PUSH1 0x20 MSTORE PUSH1 0x40 SWAP1 KECCAK256 PUSH1 0x9 ADD SLOAD DUP3 GT ISZERO PUSH2 0x1134 JUMP JUMPDEST POP PUSH1 0x1 SLOAD DUP2 GT ISZERO PUSH2 0x1122 JUMP JUMPDEST CALLVALUE PUSH2 0x57D JUMPI PUSH1 0x20 CALLDATASIZE PUSH1 0x3 NOT ADD SLT PUSH2 0x57D JUMPI PUSH1 0x4 CALLDATALOAD DUP1 ISZERO ISZERO DUP1 PUSH2 0x11D7 JUMPI JUMPDEST PUSH2 0x11A8 SWAP1 PUSH2 0x1899 JUMP JUMPDEST PUSH1 0x0 MSTORE PUSH1 0x4 PUSH1 0x20 MSTORE PUSH2 0x62B PUSH2 0x11C3 PUSH1 0x8 PUSH1 0x40 PUSH1 0x0 KECCAK256 ADD PUSH2 0x1B10 JUMP JUMPDEST PUSH1 0x40 MLOAD SWAP2 DUP3 SWAP2 PUSH1 0x20 DUP4 MSTORE PUSH1 0x20 DUP4 ADD SWAP1 PUSH2 0x1685 JUMP JUMPDEST POP PUSH1 0x1 SLOAD DUP2 GT ISZERO PUSH2 0x119F JUMP JUMPDEST CALLVALUE PUSH2 0x57D JUMPI PUSH1 0x40 CALLDATASIZE PUSH1 0x3 NOT ADD SLT PUSH2 0x57D JUMPI PUSH1 0x4 CALLDATALOAD PUSH1 0x1 PUSH1 0x1 PUSH1 0xA0 SHL SUB DUP2 AND SWAP1 DUP2 SWAP1 SUB PUSH2 0x57D JUMPI PUSH1 0x24 CALLDATALOAD SWAP1 PUSH1 0x0 MSTORE PUSH1 0x5 PUSH1 0x20 MSTORE PUSH1 0x40 PUSH1 0x0 KECCAK256 SWAP1 DUP2 SLOAD DUP2 LT ISZERO PUSH2 0x57D JUMPI PUSH2 0x122D SWAP2 PUSH2 0x1520 JUMP JUMPDEST PUSH2 0x455 JUMPI PUSH2 0x123D PUSH2 0x62B SWAP2 PUSH2 0x15E0 JUMP JUMPDEST PUSH1 0x40 MLOAD SWAP2 DUP3 SWAP2 PUSH1 0x20 DUP4 MSTORE PUSH1 0x20 DUP4 ADD SWAP1 PUSH2 0x1434 JUMP JUMPDEST CALLVALUE PUSH2 0x57D JUMPI PUSH1 0x0 CALLDATASIZE PUSH1 0x3 NOT ADD SLT PUSH2 0x57D JUMPI CALLER PUSH1 0x0 MSTORE PUSH1 0x20 PUSH1 0x5 DUP2 MSTORE PUSH1 0x40 PUSH1 0x0 KECCAK256 SWAP1 DUP2 SLOAD SWAP2 PUSH2 0x127E DUP4 PUSH2 0x1882 JUMP JUMPDEST SWAP3 PUSH2 0x128C PUSH1 0x40 MLOAD SWAP5 DUP6 PUSH2 0x15BF JUMP JUMPDEST DUP1 DUP5 MSTORE DUP3 DUP5 ADD DUP1 SWAP3 PUSH1 0x0 MSTORE DUP4 PUSH1 0x0 KECCAK256 PUSH1 0x0 SWAP2 JUMPDEST DUP4 DUP4 LT PUSH2 0x1306 JUMPI POP POP POP POP PUSH1 0x40 MLOAD SWAP2 DUP1 DUP4 ADD SWAP4 DUP2 DUP5 MSTORE MLOAD DUP1 SWAP5 MSTORE PUSH1 0x40 DUP4 ADD SWAP4 PUSH1 0x40 DUP2 PUSH1 0x5 SHL DUP6 ADD ADD SWAP3 SWAP2 PUSH1 0x0 SWAP6 JUMPDEST DUP3 DUP8 LT PUSH2 0x12DA JUMPI DUP6 DUP6 SUB DUP7 RETURN JUMPDEST SWAP1 SWAP2 SWAP3 SWAP4 DUP3 DUP1 PUSH2 0x12F6 PUSH1 0x1 SWAP4 PUSH1 0x3F NOT DUP11 DUP3 SUB ADD DUP7 MSTORE DUP9 MLOAD PUSH2 0x1434 JUMP JUMPDEST SWAP7 ADD SWAP3 ADD SWAP7 ADD SWAP6 SWAP3 SWAP2 SWAP1 SWAP3 PUSH2 0x12CD JUMP JUMPDEST PUSH1 0x1 DUP7 DUP2 SWAP3 PUSH2 0x1317 DUP6 SWAP11 SWAP10 SWAP11 PUSH2 0x15E0 JUMP JUMPDEST DUP2 MSTORE ADD SWAP3 ADD SWAP3 ADD SWAP2 SWAP1 SWAP6 SWAP5 SWAP6 PUSH2 0x129F JUMP JUMPDEST PUSH1 0x20 DUP1 PUSH1 0x3 NOT CALLDATASIZE ADD SLT PUSH2 0x57D JUMPI PUSH1 0x4 CALLDATALOAD SWAP1 DUP2 ISZERO ISZERO DUP1 PUSH2 0x1428 JUMPI JUMPDEST PUSH2 0x134B SWAP1 PUSH2 0x1899 JUMP JUMPDEST DUP2 PUSH1 0x0 MSTORE PUSH1 0x4 PUSH1 0x20 MSTORE PUSH1 0x9 PUSH1 0x40 PUSH1 0x0 KECCAK256 PUSH1 0x1 PUSH1 0xFF DUP2 DUP4 ADD SLOAD AND EQ DUP1 PUSH2 0x141A JUMPI JUMPDEST PUSH2 0x1374 SWAP1 PUSH2 0x18E5 JUMP JUMPDEST PUSH2 0x13B9 PUSH1 0x0 DUP1 DUP1 DUP1 PUSH1 0x64 PUSH2 0x138B PUSH1 0x2 SLOAD CALLVALUE SWAP1 PUSH2 0x1931 JUMP JUMPDEST DIV PUSH1 0x3 PUSH2 0x8BE DUP4 DUP1 DUP1 DUP1 PUSH2 0x139F DUP8 CALLVALUE PUSH2 0x1944 JUMP JUMPDEST SWAP6 DUP14 ADD SLOAD PUSH1 0x1 PUSH1 0x1 PUSH1 0xA0 SHL SUB SWAP7 SWAP1 DUP8 AND GAS CALL PUSH2 0x8B8 PUSH2 0x1951 JUMP JUMPDEST ADD SLOAD SWAP1 PUSH2 0x13C5 DUP3 PUSH2 0x1A54 JUMP JUMPDEST SWAP3 PUSH1 0x1 JUMPDEST DUP4 DUP2 GT ISZERO PUSH2 0x13DF JUMPI PUSH1 0x40 MLOAD DUP1 PUSH2 0x62B DUP8 DUP3 PUSH2 0x14BC JUMP JUMPDEST DUP2 PUSH1 0x0 MSTORE PUSH1 0x6 DUP4 MSTORE PUSH1 0x40 PUSH1 0x0 KECCAK256 DUP2 PUSH1 0x0 MSTORE DUP4 MSTORE PUSH1 0x40 PUSH1 0x0 KECCAK256 SWAP1 PUSH1 0x0 NOT DUP2 ADD SWAP2 DUP2 DUP4 GT PUSH2 0x49E JUMPI PUSH2 0x1415 SWAP3 PUSH2 0xF5D PUSH2 0xD2E SWAP3 PUSH2 0x1AC7 JUMP JUMPDEST PUSH2 0x13C9 JUMP JUMPDEST POP PUSH1 0x2 DUP2 ADD SLOAD CALLVALUE LT ISZERO PUSH2 0x136B JUMP JUMPDEST POP PUSH1 0x1 SLOAD DUP3 GT ISZERO PUSH2 0x1342 JUMP JUMPDEST SWAP2 SWAP1 DUP3 MLOAD SWAP3 DUP4 DUP3 MSTORE PUSH1 0x0 JUMPDEST DUP5 DUP2 LT PUSH2 0x1460 JUMPI POP POP DUP3 PUSH1 0x0 PUSH1 0x20 DUP1 SWAP5 SWAP6 DUP5 ADD ADD MSTORE PUSH1 0x1F DUP1 NOT SWAP2 ADD AND ADD ADD SWAP1 JUMP JUMPDEST PUSH1 0x20 DUP2 DUP4 ADD DUP2 ADD MLOAD DUP5 DUP4 ADD DUP3 ADD MSTORE ADD PUSH2 0x143F JUMP JUMPDEST SWAP1 DUP2 MLOAD DUP2 MSTORE PUSH1 0x60 PUSH2 0x14A9 PUSH2 0x1497 PUSH1 0x20 DUP6 ADD MLOAD PUSH1 0x80 PUSH1 0x20 DUP7 ADD MSTORE PUSH1 0x80 DUP6 ADD SWAP1 PUSH2 0x1434 JUMP JUMPDEST PUSH1 0x40 DUP6 ADD MLOAD DUP5 DUP3 SUB PUSH1 0x40 DUP7 ADD MSTORE PUSH2 0x1434 JUMP JUMPDEST SWAP3 DUP2 ADD MLOAD PUSH1 0x1 PUSH1 0x1 PUSH1 0xA0 SHL SUB AND SWAP2 ADD MSTORE SWAP1 JUMP JUMPDEST PUSH1 0x20 DUP1 DUP3 ADD SWAP1 PUSH1 0x20 DUP4 MSTORE DUP4 MLOAD DUP1 SWAP3 MSTORE PUSH1 0x40 DUP4 ADD SWAP3 PUSH1 0x20 PUSH1 0x40 DUP5 PUSH1 0x5 SHL DUP4 ADD ADD SWAP6 ADD SWAP4 PUSH1 0x0 SWAP2 JUMPDEST DUP5 DUP4 LT PUSH2 0x14F2 JUMPI POP POP POP POP POP POP SWAP1 JUMP JUMPDEST SWAP1 SWAP2 SWAP3 SWAP4 SWAP5 SWAP6 DUP5 DUP1 PUSH2 0x1510 PUSH1 0x1 SWAP4 PUSH1 0x3F NOT DUP7 DUP3 SUB ADD DUP8 MSTORE DUP11 MLOAD PUSH2 0x1474 JUMP JUMPDEST SWAP9 ADD SWAP4 ADD SWAP4 ADD SWAP2 SWAP5 SWAP4 SWAP3 SWAP1 PUSH2 0x14E2 JUMP JUMPDEST DUP1 SLOAD DUP3 LT ISZERO PUSH2 0x1538 JUMPI PUSH1 0x0 MSTORE PUSH1 0x20 PUSH1 0x0 KECCAK256 ADD SWAP1 PUSH1 0x0 SWAP1 JUMP JUMPDEST PUSH4 0x4E487B71 PUSH1 0xE0 SHL PUSH1 0x0 MSTORE PUSH1 0x32 PUSH1 0x4 MSTORE PUSH1 0x24 PUSH1 0x0 REVERT JUMPDEST SWAP1 PUSH1 0x1 DUP3 DUP2 SHR SWAP3 AND DUP1 ISZERO PUSH2 0x157E JUMPI JUMPDEST PUSH1 0x20 DUP4 LT EQ PUSH2 0x1568 JUMPI JUMP JUMPDEST PUSH4 0x4E487B71 PUSH1 0xE0 SHL PUSH1 0x0 MSTORE PUSH1 0x22 PUSH1 0x4 MSTORE PUSH1 0x24 PUSH1 0x0 REVERT JUMPDEST SWAP2 PUSH1 0x7F AND SWAP2 PUSH2 0x155D JUMP JUMPDEST PUSH1 0x80 DUP2 ADD SWAP1 DUP2 LT PUSH1 0x1 PUSH1 0x1 PUSH1 0x40 SHL SUB DUP3 GT OR PUSH2 0x46B JUMPI PUSH1 0x40 MSTORE JUMP JUMPDEST PUSH2 0x140 DUP2 ADD SWAP1 DUP2 LT PUSH1 0x1 PUSH1 0x1 PUSH1 0x40 SHL SUB DUP3 GT OR PUSH2 0x46B JUMPI PUSH1 0x40 MSTORE JUMP JUMPDEST SWAP1 PUSH1 0x1F DUP1 NOT SWAP2 ADD AND DUP2 ADD SWAP1 DUP2 LT PUSH1 0x1 PUSH1 0x1 PUSH1 0x40 SHL SUB DUP3 GT OR PUSH2 0x46B JUMPI PUSH1 0x40 MSTORE JUMP JUMPDEST SWAP1 PUSH1 0x40 MLOAD SWAP2 DUP3 PUSH1 0x0 DUP3 SLOAD PUSH2 0x15F3 DUP2 PUSH2 0x154E JUMP JUMPDEST SWAP1 DUP2 DUP5 MSTORE PUSH1 0x20 SWAP5 PUSH1 0x1 SWAP2 PUSH1 0x1 DUP2 AND SWAP1 DUP2 PUSH1 0x0 EQ PUSH2 0x1663 JUMPI POP PUSH1 0x1 EQ PUSH2 0x1624 JUMPI JUMPDEST POP POP POP PUSH2 0x1622 SWAP3 POP SUB DUP4 PUSH2 0x15BF JUMP JUMPDEST JUMP JUMPDEST PUSH1 0x0 SWAP1 DUP2 MSTORE DUP6 DUP2 KECCAK256 SWAP6 SWAP4 POP SWAP2 SWAP1 JUMPDEST DUP2 DUP4 LT PUSH2 0x164B JUMPI POP POP PUSH2 0x1622 SWAP4 POP DUP3 ADD ADD CODESIZE DUP1 DUP1 PUSH2 0x1613 JUMP JUMPDEST DUP6 SLOAD DUP9 DUP5 ADD DUP6 ADD MSTORE SWAP5 DUP6 ADD SWAP5 DUP8 SWAP5 POP SWAP2 DUP4 ADD SWAP2 PUSH2 0x1632 JUMP JUMPDEST SWAP3 POP POP POP PUSH2 0x1622 SWAP5 SWAP3 POP PUSH1 0xFF NOT AND DUP3 DUP5 ADD MSTORE ISZERO ISZERO PUSH1 0x5 SHL DUP3 ADD ADD CODESIZE DUP1 DUP1 PUSH2 0x1613 JUMP JUMPDEST SWAP1 DUP2 MLOAD DUP1 DUP3 MSTORE PUSH1 0x20 DUP1 DUP1 SWAP4 ADD SWAP4 ADD SWAP2 PUSH1 0x0 JUMPDEST DUP3 DUP2 LT PUSH2 0x16A5 JUMPI POP POP POP POP SWAP1 JUMP JUMPDEST DUP4 MLOAD PUSH1 0x1 PUSH1 0x1 PUSH1 0xA0 SHL SUB AND DUP6 MSTORE SWAP4 DUP2 ADD SWAP4 SWAP3 DUP2 ADD SWAP3 PUSH1 0x1 ADD PUSH2 0x1697 JUMP JUMPDEST PUSH1 0x40 SWAP1 PUSH1 0x3 NOT ADD SLT PUSH2 0x57D JUMPI PUSH1 0x4 CALLDATALOAD SWAP1 PUSH1 0x24 CALLDATALOAD SWAP1 JUMP JUMPDEST PUSH1 0x1 PUSH1 0x1 PUSH1 0x40 SHL SUB DUP2 GT PUSH2 0x46B JUMPI PUSH1 0x1F ADD PUSH1 0x1F NOT AND PUSH1 0x20 ADD SWAP1 JUMP JUMPDEST DUP2 PUSH1 0x1F DUP3 ADD SLT ISZERO PUSH2 0x57D JUMPI DUP1 CALLDATALOAD SWAP1 PUSH2 0x170A DUP3 PUSH2 0x16D8 JUMP JUMPDEST SWAP3 PUSH2 0x1718 PUSH1 0x40 MLOAD SWAP5 DUP6 PUSH2 0x15BF JUMP JUMPDEST DUP3 DUP5 MSTORE PUSH1 0x20 DUP4 DUP4 ADD ADD GT PUSH2 0x57D JUMPI DUP2 PUSH1 0x0 SWAP3 PUSH1 0x20 DUP1 SWAP4 ADD DUP4 DUP7 ADD CALLDATACOPY DUP4 ADD ADD MSTORE SWAP1 JUMP JUMPDEST SWAP1 PUSH2 0x17CD PUSH2 0x17AF PUSH2 0x179D PUSH2 0x178B PUSH2 0x140 DUP7 MLOAD DUP7 MSTORE PUSH1 0xFF PUSH1 0x20 DUP9 ADD MLOAD AND PUSH1 0x20 DUP8 ADD MSTORE PUSH1 0x40 DUP8 ADD MLOAD PUSH1 0x40 DUP8 ADD MSTORE PUSH1 0x1 DUP1 PUSH1 0xA0 SHL SUB PUSH1 0x60 DUP9 ADD MLOAD AND PUSH1 0x60 DUP8 ADD MSTORE PUSH1 0x80 DUP8 ADD MLOAD SWAP1 DUP1 PUSH1 0x80 DUP9 ADD MSTORE DUP7 ADD SWAP1 PUSH2 0x1434 JUMP JUMPDEST PUSH1 0xA0 DUP7 ADD MLOAD DUP6 DUP3 SUB PUSH1 0xA0 DUP8 ADD MSTORE PUSH2 0x1434 JUMP JUMPDEST PUSH1 0xC0 DUP6 ADD MLOAD DUP5 DUP3 SUB PUSH1 0xC0 DUP7 ADD MSTORE PUSH2 0x1434 JUMP JUMPDEST PUSH1 0xE0 DUP5 ADD MLOAD PUSH1 0xE0 DUP5 ADD MSTORE PUSH2 0x100 DUP1 DUP6 ADD MLOAD SWAP1 DUP5 DUP4 SUB SWAP1 DUP6 ADD MSTORE PUSH2 0x1685 JUMP JUMPDEST SWAP2 PUSH2 0x120 DUP1 SWAP2 ADD MLOAD SWAP2 ADD MSTORE SWAP1 JUMP JUMPDEST SWAP6 SWAP2 SWAP5 PUSH2 0x1821 SWAP2 PUSH2 0x100 SWAP9 SWAP6 PUSH2 0x182F SWAP6 PUSH1 0xFF PUSH2 0x183D SWAP10 SWAP15 SWAP14 SWAP13 SWAP15 PUSH2 0x120 SWAP5 DUP13 MSTORE AND PUSH1 0x20 DUP12 ADD MSTORE PUSH1 0x40 DUP11 ADD MSTORE PUSH1 0x1 DUP1 PUSH1 0xA0 SHL SUB AND PUSH1 0x60 DUP10 ADD MSTORE DUP1 PUSH1 0x80 DUP10 ADD MSTORE DUP8 ADD SWAP1 PUSH2 0x1434 JUMP JUMPDEST SWAP1 DUP6 DUP3 SUB PUSH1 0xA0 DUP8 ADD MSTORE PUSH2 0x1434 JUMP JUMPDEST SWAP1 DUP4 DUP3 SUB PUSH1 0xC0 DUP6 ADD MSTORE PUSH2 0x1434 JUMP JUMPDEST SWAP5 PUSH1 0xE0 DUP3 ADD MSTORE ADD MSTORE JUMP JUMPDEST PUSH1 0x3 SLOAD DUP2 LT ISZERO PUSH2 0x1538 JUMPI PUSH1 0xA SWAP1 PUSH1 0x3 PUSH1 0x0 MSTORE MUL PUSH32 0xC2575A0E9E593C00F959F8C92F12DB2869C3395A3B0502D05E2516446F71F85B ADD SWAP1 PUSH1 0x0 SWAP1 JUMP JUMPDEST PUSH1 0x1 PUSH1 0x1 PUSH1 0x40 SHL SUB DUP2 GT PUSH2 0x46B JUMPI PUSH1 0x5 SHL PUSH1 0x20 ADD SWAP1 JUMP JUMPDEST ISZERO PUSH2 0x18A0 JUMPI JUMP JUMPDEST PUSH1 0x40 MLOAD PUSH3 0x461BCD PUSH1 0xE5 SHL DUP2 MSTORE PUSH1 0x20 PUSH1 0x4 DUP3 ADD MSTORE PUSH1 0x19 PUSH1 0x24 DUP3 ADD MSTORE PUSH32 0x5468697320616C62756D20646F6573206E6F7420657869737400000000000000 PUSH1 0x44 DUP3 ADD MSTORE PUSH1 0x64 SWAP1 REVERT JUMPDEST ISZERO PUSH2 0x18EC JUMPI JUMP JUMPDEST PUSH1 0x40 MLOAD PUSH3 0x461BCD PUSH1 0xE5 SHL DUP2 MSTORE PUSH1 0x20 PUSH1 0x4 DUP3 ADD MSTORE PUSH1 0x1B PUSH1 0x24 DUP3 ADD MSTORE PUSH32 0x54686973206973206E6F742061207075626C696320616C62756D2E0000000000 PUSH1 0x44 DUP3 ADD MSTORE PUSH1 0x64 SWAP1 REVERT JUMPDEST DUP2 DUP2 MUL SWAP3 SWAP2 DUP2 ISZERO SWAP2 DUP5 DIV EQ OR ISZERO PUSH2 0x49E JUMPI JUMP JUMPDEST SWAP2 SWAP1 DUP3 SUB SWAP2 DUP3 GT PUSH2 0x49E JUMPI JUMP JUMPDEST RETURNDATASIZE ISZERO PUSH2 0x197C JUMPI RETURNDATASIZE SWAP1 PUSH2 0x1962 DUP3 PUSH2 0x16D8 JUMP JUMPDEST SWAP2 PUSH2 0x1970 PUSH1 0x40 MLOAD SWAP4 DUP5 PUSH2 0x15BF JUMP JUMPDEST DUP3 MSTORE RETURNDATASIZE PUSH1 0x0 PUSH1 0x20 DUP5 ADD RETURNDATACOPY JUMP JUMPDEST PUSH1 0x60 SWAP1 JUMP JUMPDEST ISZERO PUSH2 0x1988 JUMPI JUMP JUMPDEST PUSH1 0x40 MLOAD PUSH3 0x461BCD PUSH1 0xE5 SHL DUP2 MSTORE PUSH1 0x20 PUSH1 0x4 DUP3 ADD MSTORE PUSH1 0x22 PUSH1 0x24 DUP3 ADD MSTORE PUSH32 0x466565207061796D656E7420746F20616C62756D206F776E6572206661696C65 PUSH1 0x44 DUP3 ADD MSTORE PUSH2 0x3217 PUSH1 0xF1 SHL PUSH1 0x64 DUP3 ADD MSTORE PUSH1 0x84 SWAP1 REVERT JUMPDEST ISZERO PUSH2 0x19DF JUMPI JUMP JUMPDEST PUSH1 0x40 MLOAD PUSH3 0x461BCD PUSH1 0xE5 SHL DUP2 MSTORE PUSH1 0x20 PUSH1 0x4 DUP3 ADD MSTORE PUSH1 0x22 PUSH1 0x24 DUP3 ADD MSTORE PUSH32 0x466565207061796D656E7420746F207472796265206F776E6572206661696C65 PUSH1 0x44 DUP3 ADD MSTORE PUSH2 0x3217 PUSH1 0xF1 SHL PUSH1 0x64 DUP3 ADD MSTORE PUSH1 0x84 SWAP1 REVERT JUMPDEST PUSH1 0x40 MLOAD SWAP1 PUSH2 0x1A3C DUP3 PUSH2 0x1588 JUMP JUMPDEST PUSH1 0x0 PUSH1 0x60 DUP4 DUP3 DUP2 MSTORE DUP2 PUSH1 0x20 DUP3 ADD MSTORE DUP2 PUSH1 0x40 DUP3 ADD MSTORE ADD MSTORE JUMP JUMPDEST SWAP1 PUSH2 0x1A5E DUP3 PUSH2 0x1882 JUMP JUMPDEST PUSH2 0x1A6B PUSH1 0x40 MLOAD SWAP2 DUP3 PUSH2 0x15BF JUMP JUMPDEST DUP3 DUP2 MSTORE DUP1 SWAP3 PUSH2 0x1A7C PUSH1 0x1F NOT SWAP2 PUSH2 0x1882 JUMP JUMPDEST ADD SWAP1 PUSH1 0x0 JUMPDEST DUP3 DUP2 LT PUSH2 0x1A8D JUMPI POP POP POP JUMP JUMPDEST PUSH1 0x20 SWAP1 PUSH2 0x1A98 PUSH2 0x1A2F JUMP JUMPDEST DUP3 DUP3 DUP6 ADD ADD MSTORE ADD PUSH2 0x1A81 JUMP JUMPDEST PUSH1 0x0 NOT DUP2 EQ PUSH2 0x49E JUMPI PUSH1 0x1 ADD SWAP1 JUMP JUMPDEST DUP1 MLOAD DUP3 LT ISZERO PUSH2 0x1538 JUMPI PUSH1 0x20 SWAP2 PUSH1 0x5 SHL ADD ADD SWAP1 JUMP JUMPDEST SWAP1 PUSH1 0x40 MLOAD PUSH2 0x1AD4 DUP2 PUSH2 0x1588 JUMP JUMPDEST PUSH1 0x60 DUP2 SWAP4 DUP1 SLOAD DUP4 MSTORE PUSH2 0x1AE8 PUSH1 0x1 DUP3 ADD PUSH2 0x15E0 JUMP JUMPDEST PUSH1 0x20 DUP5 ADD MSTORE PUSH2 0x1AF9 PUSH1 0x2 DUP3 ADD PUSH2 0x15E0 JUMP JUMPDEST PUSH1 0x40 DUP5 ADD MSTORE PUSH1 0x3 ADD SLOAD PUSH1 0x1 PUSH1 0x1 PUSH1 0xA0 SHL SUB AND SWAP2 ADD MSTORE JUMP JUMPDEST SWAP1 PUSH1 0x40 MLOAD SWAP2 DUP3 DUP2 SLOAD SWAP2 DUP3 DUP3 MSTORE PUSH1 0x20 SWAP3 PUSH1 0x20 DUP4 ADD SWAP2 PUSH1 0x0 MSTORE PUSH1 0x20 PUSH1 0x0 KECCAK256 SWAP4 PUSH1 0x0 SWAP1 JUMPDEST DUP3 DUP3 LT PUSH2 0x1B47 JUMPI POP POP POP PUSH2 0x1622 SWAP3 POP SUB DUP4 PUSH2 0x15BF JUMP JUMPDEST DUP6 SLOAD PUSH1 0x1 PUSH1 0x1 PUSH1 0xA0 SHL SUB AND DUP5 MSTORE PUSH1 0x1 SWAP6 DUP7 ADD SWAP6 DUP9 SWAP6 POP SWAP4 DUP2 ADD SWAP4 SWAP1 SWAP2 ADD SWAP1 PUSH2 0x1B31 JUMP JUMPDEST ISZERO PUSH2 0x1B71 JUMPI JUMP JUMPDEST PUSH1 0x40 MLOAD PUSH3 0x461BCD PUSH1 0xE5 SHL DUP2 MSTORE PUSH1 0x20 PUSH1 0x4 DUP3 ADD MSTORE PUSH1 0x19 PUSH1 0x24 DUP3 ADD MSTORE PUSH32 0x5468697320696D61676520646F6573206E6F7420657869737400000000000000 PUSH1 0x44 DUP3 ADD MSTORE PUSH1 0x64 SWAP1 REVERT JUMPDEST ISZERO PUSH2 0x1BBD JUMPI JUMP JUMPDEST PUSH1 0x40 MLOAD PUSH3 0x461BCD PUSH1 0xE5 SHL DUP2 MSTORE PUSH1 0x20 PUSH1 0x4 DUP3 ADD MSTORE PUSH1 0x18 PUSH1 0x24 DUP3 ADD MSTORE PUSH32 0x546869732069732061207072697661746520616C62756D2E0000000000000000 PUSH1 0x44 DUP3 ADD MSTORE PUSH1 0x64 SWAP1 REVERT JUMPDEST ISZERO PUSH2 0x1C09 JUMPI JUMP JUMPDEST PUSH1 0x40 MLOAD PUSH3 0x461BCD PUSH1 0xE5 SHL DUP2 MSTORE PUSH1 0x20 PUSH1 0x4 DUP3 ADD MSTORE PUSH1 0x1A PUSH1 0x24 DUP3 ADD MSTORE PUSH32 0x4E6F207A65726F2061646472657373657320616C6C6F7765642E000000000000 PUSH1 0x44 DUP3 ADD MSTORE PUSH1 0x64 SWAP1 REVERT JUMPDEST DUP2 DUP2 LT PUSH2 0x1C59 JUMPI POP POP JUMP JUMPDEST PUSH1 0x0 DUP2 SSTORE PUSH1 0x1 ADD PUSH2 0x1C4E JUMP JUMPDEST SWAP2 SWAP1 PUSH1 0x1F DUP2 GT PUSH2 0x1C74 JUMPI POP POP POP JUMP JUMPDEST PUSH2 0x1622 SWAP3 PUSH1 0x0 MSTORE PUSH1 0x20 PUSH1 0x0 KECCAK256 SWAP1 PUSH1 0x20 PUSH1 0x1F DUP5 ADD PUSH1 0x5 SHR DUP4 ADD SWAP4 LT PUSH2 0x1CA0 JUMPI JUMPDEST PUSH1 0x1F ADD PUSH1 0x5 SHR ADD SWAP1 PUSH2 0x1C4E JUMP JUMPDEST SWAP1 SWAP2 POP DUP2 SWAP1 PUSH2 0x1C93 JUMP JUMPDEST SWAP2 SWAP1 SWAP2 DUP3 MLOAD PUSH1 0x1 PUSH1 0x1 PUSH1 0x40 SHL SUB DUP2 GT PUSH2 0x46B JUMPI PUSH2 0x1CD1 DUP2 PUSH2 0x1CCB DUP5 SLOAD PUSH2 0x154E JUMP JUMPDEST DUP5 PUSH2 0x1C65 JUMP JUMPDEST PUSH1 0x20 DUP1 PUSH1 0x1F DUP4 GT PUSH1 0x1 EQ PUSH2 0x1D14 JUMPI POP DUP2 SWAP1 PUSH2 0x1D05 SWAP4 SWAP5 SWAP6 PUSH1 0x0 SWAP3 PUSH2 0x1D09 JUMPI JUMPDEST POP POP DUP2 PUSH1 0x1 SHL SWAP2 PUSH1 0x0 NOT SWAP1 PUSH1 0x3 SHL SHR NOT AND OR SWAP1 JUMP JUMPDEST SWAP1 SSTORE JUMP JUMPDEST ADD MLOAD SWAP1 POP CODESIZE DUP1 PUSH2 0x1CF0 JUMP JUMPDEST SWAP1 PUSH1 0x1F NOT DUP4 AND SWAP6 DUP5 PUSH1 0x0 MSTORE PUSH1 0x20 PUSH1 0x0 KECCAK256 SWAP3 PUSH1 0x0 SWAP1 JUMPDEST DUP9 DUP3 LT PUSH2 0x1D61 JUMPI POP POP DUP4 PUSH1 0x1 SWAP6 SWAP7 SWAP8 LT PUSH2 0x1D48 JUMPI JUMPDEST POP POP POP DUP2 SHL ADD SWAP1 SSTORE JUMP JUMPDEST ADD MLOAD PUSH1 0x0 NOT PUSH1 0xF8 DUP5 PUSH1 0x3 SHL AND SHR NOT AND SWAP1 SSTORE CODESIZE DUP1 DUP1 PUSH2 0x1D3E JUMP JUMPDEST DUP1 PUSH1 0x1 DUP6 SWAP7 DUP3 SWAP5 SWAP7 DUP7 ADD MLOAD DUP2 SSTORE ADD SWAP6 ADD SWAP4 ADD SWAP1 PUSH2 0x1D29 JUMP JUMPDEST PUSH1 0x40 MLOAD SWAP1 PUSH2 0x1D86 DUP3 PUSH2 0x15A3 JUMP JUMPDEST DUP2 PUSH2 0x120 PUSH1 0x0 SWAP2 DUP3 DUP2 MSTORE DUP3 PUSH1 0x20 DUP3 ADD MSTORE DUP3 PUSH1 0x40 DUP3 ADD MSTORE DUP3 PUSH1 0x60 DUP3 ADD MSTORE PUSH1 0x60 PUSH1 0x80 DUP3 ADD MSTORE PUSH1 0x60 PUSH1 0xA0 DUP3 ADD MSTORE PUSH1 0x60 PUSH1 0xC0 DUP3 ADD MSTORE DUP3 PUSH1 0xE0 DUP3 ADD MSTORE PUSH1 0x60 PUSH2 0x100 DUP3 ADD MSTORE ADD MSTORE JUMP JUMPDEST SWAP1 PUSH1 0x40 MLOAD PUSH2 0x1DD6 DUP2 PUSH2 0x15A3 JUMP JUMPDEST DUP3 SLOAD DUP2 MSTORE PUSH1 0x1 DUP4 ADD SLOAD PUSH1 0xFF AND PUSH1 0x20 DUP3 ADD MSTORE PUSH1 0x2 DUP4 ADD SLOAD PUSH1 0x40 DUP3 ADD MSTORE PUSH1 0x3 DUP4 ADD SLOAD PUSH1 0x1 PUSH1 0x1 PUSH1 0xA0 SHL SUB AND PUSH1 0x60 DUP3 ADD MSTORE SWAP2 DUP3 SWAP1 PUSH2 0x120 SWAP1 PUSH1 0x9 SWAP1 PUSH2 0x1E1A PUSH1 0x4 DUP3 ADD PUSH2 0x15E0 JUMP JUMPDEST PUSH1 0x80 DUP6 ADD MSTORE PUSH2 0x1E2B PUSH1 0x5 DUP3 ADD PUSH2 0x15E0 JUMP JUMPDEST PUSH1 0xA0 DUP6 ADD MSTORE PUSH2 0x1E3C PUSH1 0x6 DUP3 ADD PUSH2 0x15E0 JUMP JUMPDEST PUSH1 0xC0 DUP6 ADD MSTORE PUSH1 0x7 DUP2 ADD SLOAD PUSH1 0xE0 DUP6 ADD MSTORE PUSH2 0x1E57 PUSH1 0x8 DUP3 ADD PUSH2 0x1B10 JUMP JUMPDEST PUSH2 0x100 DUP6 ADD MSTORE ADD SLOAD SWAP2 ADD MSTORE JUMP JUMPDEST DUP1 SLOAD PUSH1 0x1 PUSH1 0x40 SHL DUP2 LT ISZERO PUSH2 0x46B JUMPI PUSH2 0x1E81 SWAP2 PUSH1 0x1 DUP3 ADD DUP2 SSTORE PUSH2 0x1520 JUMP JUMPDEST PUSH1 0x1 DUP1 PUSH1 0xA0 SWAP5 SWAP4 SWAP5 SHL SUB DUP1 DUP5 SLOAD SWAP3 PUSH1 0x3 SHL SWAP4 AND DUP4 SHL SWAP3 SHL NOT AND OR SWAP1 SSTORE JUMP JUMPDEST SWAP1 PUSH1 0x1 PUSH1 0x40 SHL DUP2 GT PUSH2 0x46B JUMPI DUP2 SLOAD SWAP1 DUP1 DUP4 SSTORE DUP2 DUP2 LT PUSH2 0x1EBD JUMPI POP POP POP JUMP JUMPDEST PUSH2 0x1622 SWAP3 PUSH1 0x0 MSTORE PUSH1 0x20 PUSH1 0x0 KECCAK256 SWAP2 DUP3 ADD SWAP2 ADD PUSH2 0x1C4E JUMP JUMPDEST SWAP1 DUP1 DUP3 EQ PUSH2 0x1FAD JUMPI PUSH2 0x1EE5 DUP2 SLOAD PUSH2 0x154E JUMP JUMPDEST SWAP1 PUSH1 0x1 PUSH1 0x1 PUSH1 0x40 SHL SUB DUP3 GT PUSH2 0x46B JUMPI PUSH2 0x1F08 DUP3 PUSH2 0x1F02 DUP6 SLOAD PUSH2 0x154E JUMP JUMPDEST DUP6 PUSH2 0x1C65 JUMP JUMPDEST PUSH1 0x0 SWAP1 PUSH1 0x1F DUP4 GT PUSH1 0x1 EQ PUSH2 0x1F43 JUMPI PUSH2 0x1D05 SWAP3 SWAP2 PUSH1 0x0 SWAP2 DUP4 PUSH2 0x1F38 JUMPI POP POP DUP2 PUSH1 0x1 SHL SWAP2 PUSH1 0x0 NOT SWAP1 PUSH1 0x3 SHL SHR NOT AND OR SWAP1 JUMP JUMPDEST ADD SLOAD SWAP1 POP CODESIZE DUP1 PUSH2 0x1CF0 JUMP JUMPDEST DUP2 MSTORE PUSH1 0x20 DUP1 DUP3 KECCAK256 DUP5 DUP4 MSTORE DUP2 DUP4 KECCAK256 SWAP3 SWAP2 PUSH1 0x1F NOT DUP6 AND SWAP1 DUP4 SWAP1 JUMPDEST DUP3 DUP3 LT PUSH2 0x1F94 JUMPI POP POP SWAP1 DUP5 PUSH1 0x1 SWAP6 SWAP5 SWAP4 SWAP3 LT PUSH2 0x1F7B JUMPI POP POP POP DUP2 SHL ADD SWAP1 SSTORE JUMP JUMPDEST ADD SLOAD PUSH1 0x0 NOT PUSH1 0xF8 DUP5 PUSH1 0x3 SHL AND SHR NOT AND SWAP1 SSTORE CODESIZE DUP1 DUP1 PUSH2 0x1D3E JUMP JUMPDEST DUP5 SWAP6 DUP2 SWAP3 SWAP6 DUP6 ADD SLOAD DUP2 SSTORE PUSH1 0x1 DUP1 SWAP2 ADD SWAP7 ADD SWAP5 ADD SWAP1 PUSH2 0x1F5B JUMP JUMPDEST POP POP JUMP JUMPDEST DUP2 DUP2 EQ PUSH2 0x1FAD JUMPI DUP2 SLOAD SWAP2 PUSH1 0x1 PUSH1 0x1 PUSH1 0x40 SHL SUB DUP4 GT PUSH2 0x46B JUMPI PUSH2 0x1FD3 DUP4 DUP4 PUSH2 0x1E9F JUMP JUMPDEST PUSH1 0x0 MSTORE PUSH1 0x20 PUSH1 0x0 KECCAK256 SWAP1 PUSH1 0x0 MSTORE PUSH1 0x20 PUSH1 0x0 KECCAK256 DUP2 SLOAD SWAP2 PUSH1 0x0 SWAP3 JUMPDEST DUP5 DUP5 LT PUSH2 0x1FF9 JUMPI POP POP POP POP POP JUMP JUMPDEST PUSH1 0x1 SWAP2 DUP3 ADD DUP1 SLOAD PUSH1 0x1 PUSH1 0x1 PUSH1 0xA0 SHL SUB SWAP1 SWAP3 AND DUP5 DUP7 ADD SSTORE SWAP4 SWAP1 SWAP2 ADD SWAP3 SWAP1 PUSH2 0x1FEB JUMP INVALID LOG2 PUSH5 0x6970667358 0x22 SLT KECCAK256 0xCA PUSH19 0xD6F207F251D328779B0923D605FA254453F3C6 PUSH3 0xE5926A JUMPDEST 0x4B 0xE9 SELFDESTRUCT 0x24 0x26 0xCC PUSH5 0x736F6C6343 STOP ADDMOD XOR STOP CALLER "
        },
        "methodIdentifiers": {
          "addImageToAlbum(uint256,string,string)": "6f4e27f0",
          "album(uint256)": "e89e6a00",
          "albums(uint256)": "ea5df059",
          "createAlbum(string,string,address[],string,uint8,uint256)": "f3187157",
          "getAlbum(uint256)": "d6e465c9",
          "getAlbums()": "5c517234",
          "getImageInPrivateAlbum(uint256,uint256)": "57d47a9d",
          "getImageInPublicAlbum(uint256,uint256)": "40368f85",
          "getImages()": "11498334",
          "getImagesInPrivateAlbum(uint256)": "0fd59adb",
          "getImagesInPublicAlbum(uint256)": "56148eb1",
          "getListofParticipants(uint256)": "3b8f313b",
          "images(address,uint256)": "2ac33792",
          "imagesInAlbum(uint256,uint256)": "51927c6d",
          "joinAlbum(uint256)": "8d84d7fc",
          "owner()": "8da5cb5b",
          "totalNoOfAlbumsCreated()": "6d49f8cc",
          "upload(string)": "42ce1488"
        }
      }
    }
  }
}