{
  "contracts/Trybe.sol": {
    "Trybe": {
      "abi": [
        {
          "inputs": [
            {
              "internalType": "uint256",
              "name": "_fee",
              "type": "uint256"
            }
          ],
          "stateMutability": "nonpayable",
          "type": "constructor"
        },
        {
          "anonymous": false,
          "inputs": [
            {
              "indexed": true,
              "internalType": "address",
              "name": "creator",
              "type": "address"
            },
            {
              "indexed": false,
              "internalType": "string",
              "name": "nameOfAlbum",
              "type": "string"
            },
            {
              "indexed": false,
              "internalType": "uint256",
              "name": "albumId",
              "type": "uint256"
            }
          ],
          "name": "AlbumCreated",
          "type": "event"
        },
        {
          "anonymous": false,
          "inputs": [
            {
              "indexed": false,
              "internalType": "uint256",
              "name": "albumId",
              "type": "uint256"
            },
            {
              "indexed": false,
              "internalType": "uint256",
              "name": "imageId",
              "type": "uint256"
            }
          ],
          "name": "ImageAdded",
          "type": "event"
        },
        {
          "anonymous": false,
          "inputs": [
            {
              "indexed": false,
              "internalType": "uint256",
              "name": "albumId",
              "type": "uint256"
            },
            {
              "indexed": false,
              "internalType": "uint256",
              "name": "imageId",
              "type": "uint256"
            }
          ],
          "name": "ImageDownloaded",
          "type": "event"
        },
        {
          "anonymous": false,
          "inputs": [
            {
              "indexed": true,
              "internalType": "address",
              "name": "participant",
              "type": "address"
            },
            {
              "indexed": false,
              "internalType": "uint256",
              "name": "timeJoined",
              "type": "uint256"
            }
          ],
          "name": "JoinedAlbum",
          "type": "event"
        },
        {
          "anonymous": false,
          "inputs": [
            {
              "indexed": true,
              "internalType": "address",
              "name": "user",
              "type": "address"
            },
            {
              "indexed": false,
              "internalType": "uint256",
              "name": "createdAt",
              "type": "uint256"
            }
          ],
          "name": "Upload",
          "type": "event"
        },
        {
          "inputs": [
            {
              "internalType": "uint256",
              "name": "albumId",
              "type": "uint256"
            },
            {
              "internalType": "string[]",
              "name": "urls",
              "type": "string[]"
            },
            {
              "internalType": "string",
              "name": "description",
              "type": "string"
            },
            {
              "internalType": "uint256",
              "name": "_fee",
              "type": "uint256"
            }
          ],
          "name": "addImageToAlbum",
          "outputs": [],
          "stateMutability": "nonpayable",
          "type": "function"
        },
        {
          "inputs": [
            {
              "internalType": "string",
              "name": "_name",
              "type": "string"
            },
            {
              "internalType": "string",
              "name": "description",
              "type": "string"
            },
            {
              "internalType": "address[]",
              "name": "_participants",
              "type": "address[]"
            },
            {
              "internalType": "string",
              "name": "_image",
              "type": "string"
            },
            {
              "internalType": "bool",
              "name": "visibility",
              "type": "bool"
            },
            {
              "internalType": "uint256",
              "name": "_fee",
              "type": "uint256"
            }
          ],
          "name": "createAlbum",
          "outputs": [],
          "stateMutability": "nonpayable",
          "type": "function"
        },
        {
          "inputs": [
            {
              "internalType": "uint256",
              "name": "albumId",
              "type": "uint256"
            },
            {
              "internalType": "uint256",
              "name": "imageId",
              "type": "uint256"
            }
          ],
          "name": "download",
          "outputs": [],
          "stateMutability": "payable",
          "type": "function"
        },
        {
          "inputs": [
            {
              "internalType": "uint256",
              "name": "albumId",
              "type": "uint256"
            }
          ],
          "name": "getAlbum",
          "outputs": [
            {
              "components": [
                {
                  "internalType": "uint256",
                  "name": "id",
                  "type": "uint256"
                },
                {
                  "internalType": "bool",
                  "name": "visibility",
                  "type": "bool"
                },
                {
                  "internalType": "uint256",
                  "name": "fee",
                  "type": "uint256"
                },
                {
                  "internalType": "address",
                  "name": "owner",
                  "type": "address"
                },
                {
                  "internalType": "string",
                  "name": "name",
                  "type": "string"
                },
                {
                  "internalType": "string",
                  "name": "description",
                  "type": "string"
                },
                {
                  "internalType": "string",
                  "name": "profileImage",
                  "type": "string"
                },
                {
                  "internalType": "uint256",
                  "name": "created",
                  "type": "uint256"
                },
                {
                  "internalType": "address[]",
                  "name": "participants",
                  "type": "address[]"
                },
                {
                  "internalType": "uint256",
                  "name": "totalNoOfImages",
                  "type": "uint256"
                }
              ],
              "internalType": "struct Trybe.Album",
              "name": "",
              "type": "tuple"
            }
          ],
          "stateMutability": "view",
          "type": "function"
        },
        {
          "inputs": [],
          "name": "getAlbums",
          "outputs": [
            {
              "components": [
                {
                  "internalType": "uint256",
                  "name": "id",
                  "type": "uint256"
                },
                {
                  "internalType": "bool",
                  "name": "visibility",
                  "type": "bool"
                },
                {
                  "internalType": "uint256",
                  "name": "fee",
                  "type": "uint256"
                },
                {
                  "internalType": "address",
                  "name": "owner",
                  "type": "address"
                },
                {
                  "internalType": "string",
                  "name": "name",
                  "type": "string"
                },
                {
                  "internalType": "string",
                  "name": "description",
                  "type": "string"
                },
                {
                  "internalType": "string",
                  "name": "profileImage",
                  "type": "string"
                },
                {
                  "internalType": "uint256",
                  "name": "created",
                  "type": "uint256"
                },
                {
                  "internalType": "address[]",
                  "name": "participants",
                  "type": "address[]"
                },
                {
                  "internalType": "uint256",
                  "name": "totalNoOfImages",
                  "type": "uint256"
                }
              ],
              "internalType": "struct Trybe.Album[]",
              "name": "",
              "type": "tuple[]"
            }
          ],
          "stateMutability": "view",
          "type": "function"
        },
        {
          "inputs": [
            {
              "internalType": "uint256",
              "name": "albumId",
              "type": "uint256"
            },
            {
              "internalType": "uint256",
              "name": "imageId",
              "type": "uint256"
            }
          ],
          "name": "getImageInAlbum",
          "outputs": [
            {
              "components": [
                {
                  "internalType": "uint256",
                  "name": "id",
                  "type": "uint256"
                },
                {
                  "internalType": "string",
                  "name": "url",
                  "type": "string"
                },
                {
                  "internalType": "string",
                  "name": "description",
                  "type": "string"
                },
                {
                  "internalType": "address",
                  "name": "owner",
                  "type": "address"
                },
                {
                  "internalType": "uint256",
                  "name": "created",
                  "type": "uint256"
                },
                {
                  "internalType": "uint256",
                  "name": "fee",
                  "type": "uint256"
                }
              ],
              "internalType": "struct Trybe.Image",
              "name": "",
              "type": "tuple"
            }
          ],
          "stateMutability": "view",
          "type": "function"
        },
        {
          "inputs": [],
          "name": "getImages",
          "outputs": [
            {
              "internalType": "string[]",
              "name": "",
              "type": "string[]"
            }
          ],
          "stateMutability": "view",
          "type": "function"
        },
        {
          "inputs": [
            {
              "internalType": "uint256",
              "name": "albumId",
              "type": "uint256"
            }
          ],
          "name": "getImagesInAlbum",
          "outputs": [
            {
              "components": [
                {
                  "internalType": "uint256",
                  "name": "id",
                  "type": "uint256"
                },
                {
                  "internalType": "string",
                  "name": "url",
                  "type": "string"
                },
                {
                  "internalType": "string",
                  "name": "description",
                  "type": "string"
                },
                {
                  "internalType": "address",
                  "name": "owner",
                  "type": "address"
                },
                {
                  "internalType": "uint256",
                  "name": "created",
                  "type": "uint256"
                },
                {
                  "internalType": "uint256",
                  "name": "fee",
                  "type": "uint256"
                }
              ],
              "internalType": "struct Trybe.Image[]",
              "name": "",
              "type": "tuple[]"
            }
          ],
          "stateMutability": "view",
          "type": "function"
        },
        {
          "inputs": [
            {
              "internalType": "uint256",
              "name": "albumId",
              "type": "uint256"
            }
          ],
          "name": "getListofParticipants",
          "outputs": [
            {
              "internalType": "address[]",
              "name": "",
              "type": "address[]"
            }
          ],
          "stateMutability": "view",
          "type": "function"
        },
        {
          "inputs": [
            {
              "internalType": "uint256",
              "name": "albumId",
              "type": "uint256"
            }
          ],
          "name": "joinAlbum",
          "outputs": [],
          "stateMutability": "payable",
          "type": "function"
        },
        {
          "inputs": [],
          "name": "owner",
          "outputs": [
            {
              "internalType": "address",
              "name": "",
              "type": "address"
            }
          ],
          "stateMutability": "view",
          "type": "function"
        },
        {
          "inputs": [],
          "name": "totalNoOfAlbumsCreated",
          "outputs": [
            {
              "internalType": "uint256",
              "name": "",
              "type": "uint256"
            }
          ],
          "stateMutability": "view",
          "type": "function"
        },
        {
          "inputs": [
            {
              "internalType": "string[]",
              "name": "urls",
              "type": "string[]"
            }
          ],
          "name": "upload",
          "outputs": [],
          "stateMutability": "nonpayable",
          "type": "function"
        }
      ],
      "evm": {
        "bytecode": {
          "linkReferences": {},
          "object": "60803461006657601f611e7c38819003918201601f19168301916001600160401b0383118484101761006b578084926020946040528339810103126100665751600080546001600160a01b03191633178155600155600255604051611dfa90816100828239f35b600080fd5b634e487b7160e01b600052604160045260246000fdfe6080604052600436101561001257600080fd5b60003560e01c806311498334146111fc57806325d72e3b146111385780633b8f313b146110a257806345a1db6714610be95780635c51723414610a035780636c4860fe146107305780636d49f8cc146107125780638d84d7fc146105a05780638da5cb5b14610577578063b027a7871461039e578063bce547201461025a578063ced038d11461011b5763d6e465c9146100ab57600080fd5b34610116576020366003190112610116576004356100c7611abb565b508015158061010a575b6100da9061183d565b60005260046020526101066100f26040600020611b0b565b604051918291602083526020830190611463565b0390f35b506001548111156100d1565b600080fd5b34610116576101293661158f565b90610132611d36565b508015158061024e575b6101459061183d565b81151580610233575b156101ee5760009060005b816000526004602052600860406000200180548210156101e2578161017d916116fa565b905460039190911b1c6001600160a01b0316331461019d57600101610159565b5090506101aa6001611cce565b60005260066020526040600020906000526020526101066101ce6040600020611d69565b604051918291602083526020830190611535565b5050906101aa90611cce565b60405162461bcd60e51b815260206004820152601960248201527f5468697320696d61676520646f6573206e6f74206578697374000000000000006044820152606490fd5b5080600052600460205260096040600020015482111561014e565b5060015481111561013c565b6102633661158f565b9080151580610392575b6102769061183d565b806000526004602052604060002090600660205260406000208360005260205260ff60016040600020930154168015610384575b1561033f577f1af01386275a45a15be18388f65d960ec0439847260e1f66a817d80e8e5b0adf926103326000808080604097600361031f8380808060646102f460025434906118f2565b04966103008834611be3565b9601546001600160a01b03969087165af1610319611bf0565b50611c20565b8254165af161032c611bf0565b50611c77565b82519182526020820152a1005b60405162461bcd60e51b815260206004820152601e60248201527f546869732069732061207072697661746520616c62756d20696d6167652e00006044820152606490fd5b5060058201543410156102aa565b5060015481111561026d565b346101165760208060031936011261011657600435908115158061056b575b6103c69061183d565b816000526004815260406000209060009160005b84600052600483526008604060002001805482101561055d57816103fd916116fa565b905460039190911b1c6001600160a01b0316331461041d576001016103da565b50600991925061042d6001611cce565b0154916104398361136b565b92610447604051948561134a565b8084526104538161136b565b601f190160005b81811061054157505060019160015b828111156104d35750505060405191808301818452845180915260408401918060408360051b8701019601926000905b8382106104a65786880387f35b909192939483806104c2839a603f198b82030186528951611535565b999701959493919091019101610499565b8160009694965260068552604060002081600052855260406000209060001981019181831161052b576105239261050c61051d92611d69565b61051682896116d0565b52866116d0565b506118e3565b949294610469565b634e487b7160e01b600052601160045260246000fd5b849061054e969496611d36565b8282870101520194929461045a565b505061042d60099293611cce565b506001548211156103bd565b34610116576000366003190112610116576000546040516001600160a01b039091168152602090f35b60203660031901126101165760043580151580610706575b6105c19061183d565b8060005260046020526040600020600191600182019060ff82541680156106f8575b156106b3576008906105f83360088601611ba8565b6000855b610665575b50505060ff919250541661063e575b6040514281527f59a4dadce245655ce4c5ea128f142c4034b1206deff52ff605866cd86433de8160203392a2005b600080808061065f94600361031f8380808060646102f460025434906118f2565b80610610565b6003548110156106ae578161067982611939565b505414610688578501856105fc565b60ff9495506106a592915061069c90611939565b50339101611ba8565b82918480610601565b610601565b60405162461bcd60e51b815260206004820152601860248201527f546869732069732061207072697661746520616c62756d2e00000000000000006044820152606490fd5b5060028301543410156105e3565b506001548111156105b8565b34610116576000366003190112610116576020600154604051908152f35b34610116576080366003190112610116576001600160401b03602435818111610116576107619036906004016113e4565b906044359081116101165761077a90369060040161139d565b6004351515806109f5575b61078e9061183d565b6004356000526004602052604060002090600080600884018054915b8281106109bd575b50505015610959576000905b8351821015610921576107d460098401546118e3565b600984015560005b60035481101561091a576107ef81611939565b505460043514610801576001016107dc565b61080f600991939293611939565b500161081b81546118e3565b90555b60098301549061082e81866116d0565b51600185015460ff16156108e85760056001936000905b6040519361085285611313565b818552602085019081526108b3604086018981526108a96060880193338552608089019542875260a08a019788526004356000526006602052604060002090600052602052604060002098518955518a890161176e565b516002870161176e565b6003850190878060a01b039051166bffffffffffffffffffffffff60a01b8254161790555160048401555191015501906107be565b670de0b6b3a7640000606435816064350204811460643515171561052b576001936103e8600592606435020490610845565b509061081e565b7f5138483d623eef75882d5ca6ed33e44c7ecafe842f3311844eabf67a297ce76c6040600985015481519060043582526020820152a1005b60405162461bcd60e51b815260206004820152603660248201527f4f6e6c792074686f73652077686f2068617665206a6f696e656420746865206160448201527536313ab69031b0b71030b2321030b71034b6b0b3b29760511b6064820152608490fd5b6109c781836116fa565b905460039190911b1c6001600160a01b031633146109e7576001016107aa565b5050505060018480806107b2565b506001546004351115610785565b346101165760003660031901126101165760008060038054925b838110610b7f5750610a47610a318361136b565b92610a3f604051948561134a565b80845261136b565b60209390601f19018460005b828110610b6957505050906000916000905b808210610aca57604080518781528651818901819052600092600582901b8301810191898b01918b9085015b828710610a9e5785850386f35b909192938280610aba600193603f198a82030186528851611463565b9601920196019592919092610a91565b90929460009492945b610adc85611939565b50600880910154821015610b5a5781610aff91610af888611939565b50016116fa565b905490871b1c6001600160a01b03163314610b1c57600101610ad3565b5094610b4f600191610b3a610b348795969897611939565b50611b0b565b610b4482896116d0565b5261051d81886116d0565b915b01909291610a65565b50509490919392600190610b51565b610b71611abb565b828288010152018590610a53565b909160005b610b8d83611939565b50600880910154821015610bdd5781610ba991610af886611939565b905490851b1c6001600160a01b03163314610bc657600101610b84565b50610bd56001919392936118e3565b925b01610a1d565b50509190600190610bd7565b346101165760c0366003190112610116576004356001600160401b03811161011657610c1990369060040161139d565b6024356001600160401b03811161011657610c3890369060040161139d565b90604435916001600160401b0383116101165736602384011215610116578260040135610c648161136b565b93610c72604051958661134a565b8185526024602086019260051b8201019036821161011657602401915b818310611082575050506064356001600160401b03811161011657610cb890369060040161139d565b9160843515156084350361011657610cd1331515611684565b80511561104857815115610fc757610cea6001546118e3565b806001558451926001840180941161052b57610d1e610d088561136b565b94610d16604051968761134a565b80865261136b565b601f190136602086013760005b8651811015610d5c576001906001600160a01b03610d49828a6116d0565b5116610d5582886116d0565b5201610d2b565b5083908587610d6d339151856116d0565b528360005260046020526040600020938455610d9a608435600186019060ff801983541691151516179055565b60843515610f9757610ddb610de49260005b60028701556003860180546001600160a01b03191633179055610dd2876004880161176e565b6005860161176e565b6006840161176e565b4260078301558051906001600160401b038211610f6457602090610e0b8360088601611905565b0160088301600052602060002060005b838110610f7a578585600981019060008255600354600160401b811015610f6457806001610e4c9201600355611939565b929092610f4e57818303610ea1575b600154604080518181527fd3cc7c228a9442b3e32b7fb9e7ac4298594eeb118c36cbfbaf73feef8394627d91610e93908201886112d3565b9260208201528033930390a2005b610f42600883600994548655610ecd60ff600183015416600188019060ff801983541691151516179055565b600281015460028701556003860160018060a01b036003830154166bffffffffffffffffffffffff60a01b825416179055610f0e6004820160048801611974565b610f1e6005820160058801611974565b610f2e6006820160068801611974565b600781015460078701550160088501611a52565b54910155818080610e5b565b634e487b7160e01b600052600060045260246000fd5b634e487b7160e01b600052604160045260246000fd5b82516001600160a01b031681830155602090920191600101610e1b565b670de0b6b3a76400008060a435029060a43582041460a43515171561052b57610de4926103e8610ddb9204610dac565b60405162461bcd60e51b815260206004820152604d60248201527f446573637269626520796f757220616c62756d20746f206c657420746865207760448201527f6f726c64206b6e6f7720686f7720796f752066656c74207768656e20796f752060648201526c31b932b0ba32b2103a3434b99760991b608482015260a490fd5b60405162461bcd60e51b8152602060048201526012602482015271283632b0b9b29030b2321030903730b6b29760711b6044820152606490fd5b82356001600160a01b038116810361011657815260209283019201610c8f565b3461011657602080600319360112610116576004358015158061112c575b6110c99061183d565b600052600481526110e06008604060002001611889565b906040519181839283018184528251809152816040850193019160005b82811061110c57505050500390f35b83516001600160a01b0316855286955093810193928101926001016110fd565b506001548111156110c0565b3461011657602080600319360112610116576004356001600160401b038111610116576111699036906004016113e4565b90611175331515611684565b60005b82518110156111ce57336000526005825260406000209061119981856116d0565b51918054600160401b811015610f64576111b8916001820181556116fa565b610f4e576001926111c89161176e565b01611178565b6040514281527fb782e3441c7b8dddc1c1f7273897e80478887bb10c5de03751a571614df7c7f260203392a2005b3461011657600036600319011261011657336000526020600581526040600020908154916112298361136b565b92611237604051948561134a565b8084528284018092600052836000206000915b8383106112b15750505050604051918083019381845251809452604083019360408160051b85010192916000955b8287106112855785850386f35b9091929382806112a1600193603f198a820301865288516112d3565b9601920196019592919092611278565b60018681926112c2859a999a6115df565b81520192019201919095949561124a565b919082519283825260005b8481106112ff575050826000602080949584010152601f8019910116010190565b6020818301810151848301820152016112de565b60c081019081106001600160401b03821117610f6457604052565b61014081019081106001600160401b03821117610f6457604052565b90601f801991011681019081106001600160401b03821117610f6457604052565b6001600160401b038111610f645760051b60200190565b6001600160401b038111610f6457601f01601f191660200190565b81601f82011215610116578035906113b482611382565b926113c2604051948561134a565b8284526020838301011161011657816000926020809301838601378301015290565b81601f82011215610116578035916020916113fe8461136b565b9361140c604051958661134a565b808552838086019160051b8301019280841161011657848301915b8483106114375750505050505090565b82356001600160401b0381116101165786916114588484809489010161139d565b815201920191611427565b90610140918051825260209283820151151584840152604082015160408401526114d96114c76114b560608501519360018060a01b0380951660608801526080860151908060808901528701906112d3565b60a085015186820360a08801526112d3565b60c084015185820360c08701526112d3565b60e083015160e0850152610100948584015195858303908601528080875193848152019601926000905b83821061151c5750505050506101208091015191015290565b8451811688529682019693820193600190910190611503565b908151815260a08061156b611559602086015160c0602087015260c08601906112d3565b604086015185820360408701526112d3565b93600180831b03606082015116606085015260808101516080850152015191015290565b6040906003190112610116576004359060243590565b90600182811c921680156115d5575b60208310146115bf57565b634e487b7160e01b600052602260045260246000fd5b91607f16916115b4565b906040519182600082546115f2816115a5565b908184526020946001916001811690816000146116625750600114611623575b5050506116219250038361134a565b565b600090815285812095935091905b81831061164a5750506116219350820101388080611612565b85548884018501529485019487945091830191611631565b9250505061162194925060ff191682840152151560051b820101388080611612565b1561168b57565b60405162461bcd60e51b815260206004820152601a60248201527f4e6f207a65726f2061646472657373657320616c6c6f7765642e0000000000006044820152606490fd5b80518210156116e45760209160051b010190565b634e487b7160e01b600052603260045260246000fd5b80548210156116e45760005260206000200190600090565b81811061171d575050565b60008155600101611712565b9190601f811161173857505050565b611621926000526020600020906020601f840160051c83019310611764575b601f0160051c0190611712565b9091508190611757565b91909182516001600160401b038111610f64576117958161178f84546115a5565b84611729565b602080601f83116001146117d8575081906117c99394956000926117cd575b50508160011b916000199060031b1c19161790565b9055565b0151905038806117b4565b90601f19831695846000526020600020926000905b8882106118255750508360019596971061180c575b505050811b019055565b015160001960f88460031b161c19169055388080611802565b806001859682949686015181550195019301906117ed565b1561184457565b60405162461bcd60e51b815260206004820152601960248201527f5468697320616c62756d20646f6573206e6f74206578697374000000000000006044820152606490fd5b90604051918281549182825260209260208301916000526020600020936000905b8282106118c0575050506116219250038361134a565b85546001600160a01b0316845260019586019588955093810193909101906118aa565b600019811461052b5760010190565b8181029291811591840414171561052b57565b90600160401b8111610f645781549080835581811061192357505050565b6116219260005260206000209182019101611712565b6003548110156116e457600a906003600052027fc2575a0e9e593c00f959f8c92f12db2869c3395a3b0502d05e2516446f71f85b0190600090565b90808214611a4e5761198681546115a5565b906001600160401b038211610f64576119a9826119a385546115a5565b85611729565b600090601f83116001146119e4576117c99291600091836119d95750508160011b916000199060031b1c19161790565b0154905038806117b4565b815260208082208483528183209291601f1985169083905b828210611a35575050908460019594939210611a1c57505050811b019055565b015460001960f88460031b161c19169055388080611802565b84958192958501548155600180910196019401906119fc565b5050565b818114611a4e578154916001600160401b038311610f6457611a748383611905565b60005260206000209060005260206000208154916000925b848410611a9a575050505050565b600191820180546001600160a01b0390921684860155939091019290611a8c565b60405190611ac88261132e565b8161012060009182815282602082015282604082015282606082015260606080820152606060a0820152606060c08201528260e082015260606101008201520152565b90604051611b188161132e565b82548152600183015460ff16151560208201526002830154604082015260038301546001600160a01b0316606082015291829061012090600990611b5e600482016115df565b6080850152611b6f600582016115df565b60a0850152611b80600682016115df565b60c0850152600781015460e0850152611b9b60088201611889565b6101008501520154910152565b8054600160401b811015610f6457611bc5916001820181556116fa565b60018060a09493941b038084549260031b9316831b921b1916179055565b9190820391821161052b57565b3d15611c1b573d90611c0182611382565b91611c0f604051938461134a565b82523d6000602084013e565b606090565b15611c2757565b60405162461bcd60e51b815260206004820152602260248201527f466565207061796d656e7420746f20616c62756d206f776e6572206661696c65604482015261321760f11b6064820152608490fd5b15611c7e57565b60405162461bcd60e51b815260206004820152602260248201527f466565207061796d656e7420746f207472796265206f776e6572206661696c65604482015261321760f11b6064820152608490fd5b15611cd557565b60405162461bcd60e51b815260206004820152603360248201527f4f6e6c792074686f73652077686f2068617665206a6f696e656420746865206160448201527236313ab69039b2b2903a34329030b6313ab69760691b6064820152608490fd5b60405190611d4382611313565b600060a08382815260606020820152606060408201528260608201528260808201520152565b90604051611d7681611313565b60a06005829480548452611d8c600182016115df565b6020850152611d9d600282016115df565b6040850152600180841b03600382015416606085015260048101546080850152015491015256fea2646970667358221220f74447b3913b6cb4c34a340de6886910d2628a3d022bf5af4558cadfde06d99364736f6c63430008180033",
          "opcodes": "PUSH1 0x80 CALLVALUE PUSH2 0x66 JUMPI PUSH1 0x1F PUSH2 0x1E7C CODESIZE DUP2 SWAP1 SUB SWAP2 DUP3 ADD PUSH1 0x1F NOT AND DUP4 ADD SWAP2 PUSH1 0x1 PUSH1 0x1 PUSH1 0x40 SHL SUB DUP4 GT DUP5 DUP5 LT OR PUSH2 0x6B JUMPI DUP1 DUP5 SWAP3 PUSH1 0x20 SWAP5 PUSH1 0x40 MSTORE DUP4 CODECOPY DUP2 ADD SUB SLT PUSH2 0x66 JUMPI MLOAD PUSH1 0x0 DUP1 SLOAD PUSH1 0x1 PUSH1 0x1 PUSH1 0xA0 SHL SUB NOT AND CALLER OR DUP2 SSTORE PUSH1 0x1 SSTORE PUSH1 0x2 SSTORE PUSH1 0x40 MLOAD PUSH2 0x1DFA SWAP1 DUP2 PUSH2 0x82 DUP3 CODECOPY RETURN JUMPDEST PUSH1 0x0 DUP1 REVERT JUMPDEST PUSH4 0x4E487B71 PUSH1 0xE0 SHL PUSH1 0x0 MSTORE PUSH1 0x41 PUSH1 0x4 MSTORE PUSH1 0x24 PUSH1 0x0 REVERT INVALID PUSH1 0x80 PUSH1 0x40 MSTORE PUSH1 0x4 CALLDATASIZE LT ISZERO PUSH2 0x12 JUMPI PUSH1 0x0 DUP1 REVERT JUMPDEST PUSH1 0x0 CALLDATALOAD PUSH1 0xE0 SHR DUP1 PUSH4 0x11498334 EQ PUSH2 0x11FC JUMPI DUP1 PUSH4 0x25D72E3B EQ PUSH2 0x1138 JUMPI DUP1 PUSH4 0x3B8F313B EQ PUSH2 0x10A2 JUMPI DUP1 PUSH4 0x45A1DB67 EQ PUSH2 0xBE9 JUMPI DUP1 PUSH4 0x5C517234 EQ PUSH2 0xA03 JUMPI DUP1 PUSH4 0x6C4860FE EQ PUSH2 0x730 JUMPI DUP1 PUSH4 0x6D49F8CC EQ PUSH2 0x712 JUMPI DUP1 PUSH4 0x8D84D7FC EQ PUSH2 0x5A0 JUMPI DUP1 PUSH4 0x8DA5CB5B EQ PUSH2 0x577 JUMPI DUP1 PUSH4 0xB027A787 EQ PUSH2 0x39E JUMPI DUP1 PUSH4 0xBCE54720 EQ PUSH2 0x25A JUMPI DUP1 PUSH4 0xCED038D1 EQ PUSH2 0x11B JUMPI PUSH4 0xD6E465C9 EQ PUSH2 0xAB JUMPI PUSH1 0x0 DUP1 REVERT JUMPDEST CALLVALUE PUSH2 0x116 JUMPI PUSH1 0x20 CALLDATASIZE PUSH1 0x3 NOT ADD SLT PUSH2 0x116 JUMPI PUSH1 0x4 CALLDATALOAD PUSH2 0xC7 PUSH2 0x1ABB JUMP JUMPDEST POP DUP1 ISZERO ISZERO DUP1 PUSH2 0x10A JUMPI JUMPDEST PUSH2 0xDA SWAP1 PUSH2 0x183D JUMP JUMPDEST PUSH1 0x0 MSTORE PUSH1 0x4 PUSH1 0x20 MSTORE PUSH2 0x106 PUSH2 0xF2 PUSH1 0x40 PUSH1 0x0 KECCAK256 PUSH2 0x1B0B JUMP JUMPDEST PUSH1 0x40 MLOAD SWAP2 DUP3 SWAP2 PUSH1 0x20 DUP4 MSTORE PUSH1 0x20 DUP4 ADD SWAP1 PUSH2 0x1463 JUMP JUMPDEST SUB SWAP1 RETURN JUMPDEST POP PUSH1 0x1 SLOAD DUP2 GT ISZERO PUSH2 0xD1 JUMP JUMPDEST PUSH1 0x0 DUP1 REVERT JUMPDEST CALLVALUE PUSH2 0x116 JUMPI PUSH2 0x129 CALLDATASIZE PUSH2 0x158F JUMP JUMPDEST SWAP1 PUSH2 0x132 PUSH2 0x1D36 JUMP JUMPDEST POP DUP1 ISZERO ISZERO DUP1 PUSH2 0x24E JUMPI JUMPDEST PUSH2 0x145 SWAP1 PUSH2 0x183D JUMP JUMPDEST DUP2 ISZERO ISZERO DUP1 PUSH2 0x233 JUMPI JUMPDEST ISZERO PUSH2 0x1EE JUMPI PUSH1 0x0 SWAP1 PUSH1 0x0 JUMPDEST DUP2 PUSH1 0x0 MSTORE PUSH1 0x4 PUSH1 0x20 MSTORE PUSH1 0x8 PUSH1 0x40 PUSH1 0x0 KECCAK256 ADD DUP1 SLOAD DUP3 LT ISZERO PUSH2 0x1E2 JUMPI DUP2 PUSH2 0x17D SWAP2 PUSH2 0x16FA JUMP JUMPDEST SWAP1 SLOAD PUSH1 0x3 SWAP2 SWAP1 SWAP2 SHL SHR PUSH1 0x1 PUSH1 0x1 PUSH1 0xA0 SHL SUB AND CALLER EQ PUSH2 0x19D JUMPI PUSH1 0x1 ADD PUSH2 0x159 JUMP JUMPDEST POP SWAP1 POP PUSH2 0x1AA PUSH1 0x1 PUSH2 0x1CCE JUMP JUMPDEST PUSH1 0x0 MSTORE PUSH1 0x6 PUSH1 0x20 MSTORE PUSH1 0x40 PUSH1 0x0 KECCAK256 SWAP1 PUSH1 0x0 MSTORE PUSH1 0x20 MSTORE PUSH2 0x106 PUSH2 0x1CE PUSH1 0x40 PUSH1 0x0 KECCAK256 PUSH2 0x1D69 JUMP JUMPDEST PUSH1 0x40 MLOAD SWAP2 DUP3 SWAP2 PUSH1 0x20 DUP4 MSTORE PUSH1 0x20 DUP4 ADD SWAP1 PUSH2 0x1535 JUMP JUMPDEST POP POP SWAP1 PUSH2 0x1AA SWAP1 PUSH2 0x1CCE JUMP JUMPDEST PUSH1 0x40 MLOAD PUSH3 0x461BCD PUSH1 0xE5 SHL DUP2 MSTORE PUSH1 0x20 PUSH1 0x4 DUP3 ADD MSTORE PUSH1 0x19 PUSH1 0x24 DUP3 ADD MSTORE PUSH32 0x5468697320696D61676520646F6573206E6F7420657869737400000000000000 PUSH1 0x44 DUP3 ADD MSTORE PUSH1 0x64 SWAP1 REVERT JUMPDEST POP DUP1 PUSH1 0x0 MSTORE PUSH1 0x4 PUSH1 0x20 MSTORE PUSH1 0x9 PUSH1 0x40 PUSH1 0x0 KECCAK256 ADD SLOAD DUP3 GT ISZERO PUSH2 0x14E JUMP JUMPDEST POP PUSH1 0x1 SLOAD DUP2 GT ISZERO PUSH2 0x13C JUMP JUMPDEST PUSH2 0x263 CALLDATASIZE PUSH2 0x158F JUMP JUMPDEST SWAP1 DUP1 ISZERO ISZERO DUP1 PUSH2 0x392 JUMPI JUMPDEST PUSH2 0x276 SWAP1 PUSH2 0x183D JUMP JUMPDEST DUP1 PUSH1 0x0 MSTORE PUSH1 0x4 PUSH1 0x20 MSTORE PUSH1 0x40 PUSH1 0x0 KECCAK256 SWAP1 PUSH1 0x6 PUSH1 0x20 MSTORE PUSH1 0x40 PUSH1 0x0 KECCAK256 DUP4 PUSH1 0x0 MSTORE PUSH1 0x20 MSTORE PUSH1 0xFF PUSH1 0x1 PUSH1 0x40 PUSH1 0x0 KECCAK256 SWAP4 ADD SLOAD AND DUP1 ISZERO PUSH2 0x384 JUMPI JUMPDEST ISZERO PUSH2 0x33F JUMPI PUSH32 0x1AF01386275A45A15BE18388F65D960EC0439847260E1F66A817D80E8E5B0ADF SWAP3 PUSH2 0x332 PUSH1 0x0 DUP1 DUP1 DUP1 PUSH1 0x40 SWAP8 PUSH1 0x3 PUSH2 0x31F DUP4 DUP1 DUP1 DUP1 PUSH1 0x64 PUSH2 0x2F4 PUSH1 0x2 SLOAD CALLVALUE SWAP1 PUSH2 0x18F2 JUMP JUMPDEST DIV SWAP7 PUSH2 0x300 DUP9 CALLVALUE PUSH2 0x1BE3 JUMP JUMPDEST SWAP7 ADD SLOAD PUSH1 0x1 PUSH1 0x1 PUSH1 0xA0 SHL SUB SWAP7 SWAP1 DUP8 AND GAS CALL PUSH2 0x319 PUSH2 0x1BF0 JUMP JUMPDEST POP PUSH2 0x1C20 JUMP JUMPDEST DUP3 SLOAD AND GAS CALL PUSH2 0x32C PUSH2 0x1BF0 JUMP JUMPDEST POP PUSH2 0x1C77 JUMP JUMPDEST DUP3 MLOAD SWAP2 DUP3 MSTORE PUSH1 0x20 DUP3 ADD MSTORE LOG1 STOP JUMPDEST PUSH1 0x40 MLOAD PUSH3 0x461BCD PUSH1 0xE5 SHL DUP2 MSTORE PUSH1 0x20 PUSH1 0x4 DUP3 ADD MSTORE PUSH1 0x1E PUSH1 0x24 DUP3 ADD MSTORE PUSH32 0x546869732069732061207072697661746520616C62756D20696D6167652E0000 PUSH1 0x44 DUP3 ADD MSTORE PUSH1 0x64 SWAP1 REVERT JUMPDEST POP PUSH1 0x5 DUP3 ADD SLOAD CALLVALUE LT ISZERO PUSH2 0x2AA JUMP JUMPDEST POP PUSH1 0x1 SLOAD DUP2 GT ISZERO PUSH2 0x26D JUMP JUMPDEST CALLVALUE PUSH2 0x116 JUMPI PUSH1 0x20 DUP1 PUSH1 0x3 NOT CALLDATASIZE ADD SLT PUSH2 0x116 JUMPI PUSH1 0x4 CALLDATALOAD SWAP1 DUP2 ISZERO ISZERO DUP1 PUSH2 0x56B JUMPI JUMPDEST PUSH2 0x3C6 SWAP1 PUSH2 0x183D JUMP JUMPDEST DUP2 PUSH1 0x0 MSTORE PUSH1 0x4 DUP2 MSTORE PUSH1 0x40 PUSH1 0x0 KECCAK256 SWAP1 PUSH1 0x0 SWAP2 PUSH1 0x0 JUMPDEST DUP5 PUSH1 0x0 MSTORE PUSH1 0x4 DUP4 MSTORE PUSH1 0x8 PUSH1 0x40 PUSH1 0x0 KECCAK256 ADD DUP1 SLOAD DUP3 LT ISZERO PUSH2 0x55D JUMPI DUP2 PUSH2 0x3FD SWAP2 PUSH2 0x16FA JUMP JUMPDEST SWAP1 SLOAD PUSH1 0x3 SWAP2 SWAP1 SWAP2 SHL SHR PUSH1 0x1 PUSH1 0x1 PUSH1 0xA0 SHL SUB AND CALLER EQ PUSH2 0x41D JUMPI PUSH1 0x1 ADD PUSH2 0x3DA JUMP JUMPDEST POP PUSH1 0x9 SWAP2 SWAP3 POP PUSH2 0x42D PUSH1 0x1 PUSH2 0x1CCE JUMP JUMPDEST ADD SLOAD SWAP2 PUSH2 0x439 DUP4 PUSH2 0x136B JUMP JUMPDEST SWAP3 PUSH2 0x447 PUSH1 0x40 MLOAD SWAP5 DUP6 PUSH2 0x134A JUMP JUMPDEST DUP1 DUP5 MSTORE PUSH2 0x453 DUP2 PUSH2 0x136B JUMP JUMPDEST PUSH1 0x1F NOT ADD PUSH1 0x0 JUMPDEST DUP2 DUP2 LT PUSH2 0x541 JUMPI POP POP PUSH1 0x1 SWAP2 PUSH1 0x1 JUMPDEST DUP3 DUP2 GT ISZERO PUSH2 0x4D3 JUMPI POP POP POP PUSH1 0x40 MLOAD SWAP2 DUP1 DUP4 ADD DUP2 DUP5 MSTORE DUP5 MLOAD DUP1 SWAP2 MSTORE PUSH1 0x40 DUP5 ADD SWAP2 DUP1 PUSH1 0x40 DUP4 PUSH1 0x5 SHL DUP8 ADD ADD SWAP7 ADD SWAP3 PUSH1 0x0 SWAP1 JUMPDEST DUP4 DUP3 LT PUSH2 0x4A6 JUMPI DUP7 DUP9 SUB DUP8 RETURN JUMPDEST SWAP1 SWAP2 SWAP3 SWAP4 SWAP5 DUP4 DUP1 PUSH2 0x4C2 DUP4 SWAP11 PUSH1 0x3F NOT DUP12 DUP3 SUB ADD DUP7 MSTORE DUP10 MLOAD PUSH2 0x1535 JUMP JUMPDEST SWAP10 SWAP8 ADD SWAP6 SWAP5 SWAP4 SWAP2 SWAP1 SWAP2 ADD SWAP2 ADD PUSH2 0x499 JUMP JUMPDEST DUP2 PUSH1 0x0 SWAP7 SWAP5 SWAP7 MSTORE PUSH1 0x6 DUP6 MSTORE PUSH1 0x40 PUSH1 0x0 KECCAK256 DUP2 PUSH1 0x0 MSTORE DUP6 MSTORE PUSH1 0x40 PUSH1 0x0 KECCAK256 SWAP1 PUSH1 0x0 NOT DUP2 ADD SWAP2 DUP2 DUP4 GT PUSH2 0x52B JUMPI PUSH2 0x523 SWAP3 PUSH2 0x50C PUSH2 0x51D SWAP3 PUSH2 0x1D69 JUMP JUMPDEST PUSH2 0x516 DUP3 DUP10 PUSH2 0x16D0 JUMP JUMPDEST MSTORE DUP7 PUSH2 0x16D0 JUMP JUMPDEST POP PUSH2 0x18E3 JUMP JUMPDEST SWAP5 SWAP3 SWAP5 PUSH2 0x469 JUMP JUMPDEST PUSH4 0x4E487B71 PUSH1 0xE0 SHL PUSH1 0x0 MSTORE PUSH1 0x11 PUSH1 0x4 MSTORE PUSH1 0x24 PUSH1 0x0 REVERT JUMPDEST DUP5 SWAP1 PUSH2 0x54E SWAP7 SWAP5 SWAP7 PUSH2 0x1D36 JUMP JUMPDEST DUP3 DUP3 DUP8 ADD ADD MSTORE ADD SWAP5 SWAP3 SWAP5 PUSH2 0x45A JUMP JUMPDEST POP POP PUSH2 0x42D PUSH1 0x9 SWAP3 SWAP4 PUSH2 0x1CCE JUMP JUMPDEST POP PUSH1 0x1 SLOAD DUP3 GT ISZERO PUSH2 0x3BD JUMP JUMPDEST CALLVALUE PUSH2 0x116 JUMPI PUSH1 0x0 CALLDATASIZE PUSH1 0x3 NOT ADD SLT PUSH2 0x116 JUMPI PUSH1 0x0 SLOAD PUSH1 0x40 MLOAD PUSH1 0x1 PUSH1 0x1 PUSH1 0xA0 SHL SUB SWAP1 SWAP2 AND DUP2 MSTORE PUSH1 0x20 SWAP1 RETURN JUMPDEST PUSH1 0x20 CALLDATASIZE PUSH1 0x3 NOT ADD SLT PUSH2 0x116 JUMPI PUSH1 0x4 CALLDATALOAD DUP1 ISZERO ISZERO DUP1 PUSH2 0x706 JUMPI JUMPDEST PUSH2 0x5C1 SWAP1 PUSH2 0x183D JUMP JUMPDEST DUP1 PUSH1 0x0 MSTORE PUSH1 0x4 PUSH1 0x20 MSTORE PUSH1 0x40 PUSH1 0x0 KECCAK256 PUSH1 0x1 SWAP2 PUSH1 0x1 DUP3 ADD SWAP1 PUSH1 0xFF DUP3 SLOAD AND DUP1 ISZERO PUSH2 0x6F8 JUMPI JUMPDEST ISZERO PUSH2 0x6B3 JUMPI PUSH1 0x8 SWAP1 PUSH2 0x5F8 CALLER PUSH1 0x8 DUP7 ADD PUSH2 0x1BA8 JUMP JUMPDEST PUSH1 0x0 DUP6 JUMPDEST PUSH2 0x665 JUMPI JUMPDEST POP POP POP PUSH1 0xFF SWAP2 SWAP3 POP SLOAD AND PUSH2 0x63E JUMPI JUMPDEST PUSH1 0x40 MLOAD TIMESTAMP DUP2 MSTORE PUSH32 0x59A4DADCE245655CE4C5EA128F142C4034B1206DEFF52FF605866CD86433DE81 PUSH1 0x20 CALLER SWAP3 LOG2 STOP JUMPDEST PUSH1 0x0 DUP1 DUP1 DUP1 PUSH2 0x65F SWAP5 PUSH1 0x3 PUSH2 0x31F DUP4 DUP1 DUP1 DUP1 PUSH1 0x64 PUSH2 0x2F4 PUSH1 0x2 SLOAD CALLVALUE SWAP1 PUSH2 0x18F2 JUMP JUMPDEST DUP1 PUSH2 0x610 JUMP JUMPDEST PUSH1 0x3 SLOAD DUP2 LT ISZERO PUSH2 0x6AE JUMPI DUP2 PUSH2 0x679 DUP3 PUSH2 0x1939 JUMP JUMPDEST POP SLOAD EQ PUSH2 0x688 JUMPI DUP6 ADD DUP6 PUSH2 0x5FC JUMP JUMPDEST PUSH1 0xFF SWAP5 SWAP6 POP PUSH2 0x6A5 SWAP3 SWAP2 POP PUSH2 0x69C SWAP1 PUSH2 0x1939 JUMP JUMPDEST POP CALLER SWAP2 ADD PUSH2 0x1BA8 JUMP JUMPDEST DUP3 SWAP2 DUP5 DUP1 PUSH2 0x601 JUMP JUMPDEST PUSH2 0x601 JUMP JUMPDEST PUSH1 0x40 MLOAD PUSH3 0x461BCD PUSH1 0xE5 SHL DUP2 MSTORE PUSH1 0x20 PUSH1 0x4 DUP3 ADD MSTORE PUSH1 0x18 PUSH1 0x24 DUP3 ADD MSTORE PUSH32 0x546869732069732061207072697661746520616C62756D2E0000000000000000 PUSH1 0x44 DUP3 ADD MSTORE PUSH1 0x64 SWAP1 REVERT JUMPDEST POP PUSH1 0x2 DUP4 ADD SLOAD CALLVALUE LT ISZERO PUSH2 0x5E3 JUMP JUMPDEST POP PUSH1 0x1 SLOAD DUP2 GT ISZERO PUSH2 0x5B8 JUMP JUMPDEST CALLVALUE PUSH2 0x116 JUMPI PUSH1 0x0 CALLDATASIZE PUSH1 0x3 NOT ADD SLT PUSH2 0x116 JUMPI PUSH1 0x20 PUSH1 0x1 SLOAD PUSH1 0x40 MLOAD SWAP1 DUP2 MSTORE RETURN JUMPDEST CALLVALUE PUSH2 0x116 JUMPI PUSH1 0x80 CALLDATASIZE PUSH1 0x3 NOT ADD SLT PUSH2 0x116 JUMPI PUSH1 0x1 PUSH1 0x1 PUSH1 0x40 SHL SUB PUSH1 0x24 CALLDATALOAD DUP2 DUP2 GT PUSH2 0x116 JUMPI PUSH2 0x761 SWAP1 CALLDATASIZE SWAP1 PUSH1 0x4 ADD PUSH2 0x13E4 JUMP JUMPDEST SWAP1 PUSH1 0x44 CALLDATALOAD SWAP1 DUP2 GT PUSH2 0x116 JUMPI PUSH2 0x77A SWAP1 CALLDATASIZE SWAP1 PUSH1 0x4 ADD PUSH2 0x139D JUMP JUMPDEST PUSH1 0x4 CALLDATALOAD ISZERO ISZERO DUP1 PUSH2 0x9F5 JUMPI JUMPDEST PUSH2 0x78E SWAP1 PUSH2 0x183D JUMP JUMPDEST PUSH1 0x4 CALLDATALOAD PUSH1 0x0 MSTORE PUSH1 0x4 PUSH1 0x20 MSTORE PUSH1 0x40 PUSH1 0x0 KECCAK256 SWAP1 PUSH1 0x0 DUP1 PUSH1 0x8 DUP5 ADD DUP1 SLOAD SWAP2 JUMPDEST DUP3 DUP2 LT PUSH2 0x9BD JUMPI JUMPDEST POP POP POP ISZERO PUSH2 0x959 JUMPI PUSH1 0x0 SWAP1 JUMPDEST DUP4 MLOAD DUP3 LT ISZERO PUSH2 0x921 JUMPI PUSH2 0x7D4 PUSH1 0x9 DUP5 ADD SLOAD PUSH2 0x18E3 JUMP JUMPDEST PUSH1 0x9 DUP5 ADD SSTORE PUSH1 0x0 JUMPDEST PUSH1 0x3 SLOAD DUP2 LT ISZERO PUSH2 0x91A JUMPI PUSH2 0x7EF DUP2 PUSH2 0x1939 JUMP JUMPDEST POP SLOAD PUSH1 0x4 CALLDATALOAD EQ PUSH2 0x801 JUMPI PUSH1 0x1 ADD PUSH2 0x7DC JUMP JUMPDEST PUSH2 0x80F PUSH1 0x9 SWAP2 SWAP4 SWAP3 SWAP4 PUSH2 0x1939 JUMP JUMPDEST POP ADD PUSH2 0x81B DUP2 SLOAD PUSH2 0x18E3 JUMP JUMPDEST SWAP1 SSTORE JUMPDEST PUSH1 0x9 DUP4 ADD SLOAD SWAP1 PUSH2 0x82E DUP2 DUP7 PUSH2 0x16D0 JUMP JUMPDEST MLOAD PUSH1 0x1 DUP6 ADD SLOAD PUSH1 0xFF AND ISZERO PUSH2 0x8E8 JUMPI PUSH1 0x5 PUSH1 0x1 SWAP4 PUSH1 0x0 SWAP1 JUMPDEST PUSH1 0x40 MLOAD SWAP4 PUSH2 0x852 DUP6 PUSH2 0x1313 JUMP JUMPDEST DUP2 DUP6 MSTORE PUSH1 0x20 DUP6 ADD SWAP1 DUP2 MSTORE PUSH2 0x8B3 PUSH1 0x40 DUP7 ADD DUP10 DUP2 MSTORE PUSH2 0x8A9 PUSH1 0x60 DUP9 ADD SWAP4 CALLER DUP6 MSTORE PUSH1 0x80 DUP10 ADD SWAP6 TIMESTAMP DUP8 MSTORE PUSH1 0xA0 DUP11 ADD SWAP8 DUP9 MSTORE PUSH1 0x4 CALLDATALOAD PUSH1 0x0 MSTORE PUSH1 0x6 PUSH1 0x20 MSTORE PUSH1 0x40 PUSH1 0x0 KECCAK256 SWAP1 PUSH1 0x0 MSTORE PUSH1 0x20 MSTORE PUSH1 0x40 PUSH1 0x0 KECCAK256 SWAP9 MLOAD DUP10 SSTORE MLOAD DUP11 DUP10 ADD PUSH2 0x176E JUMP JUMPDEST MLOAD PUSH1 0x2 DUP8 ADD PUSH2 0x176E JUMP JUMPDEST PUSH1 0x3 DUP6 ADD SWAP1 DUP8 DUP1 PUSH1 0xA0 SHL SUB SWAP1 MLOAD AND PUSH12 0xFFFFFFFFFFFFFFFFFFFFFFFF PUSH1 0xA0 SHL DUP3 SLOAD AND OR SWAP1 SSTORE MLOAD PUSH1 0x4 DUP5 ADD SSTORE MLOAD SWAP2 ADD SSTORE ADD SWAP1 PUSH2 0x7BE JUMP JUMPDEST PUSH8 0xDE0B6B3A7640000 PUSH1 0x64 CALLDATALOAD DUP2 PUSH1 0x64 CALLDATALOAD MUL DIV DUP2 EQ PUSH1 0x64 CALLDATALOAD ISZERO OR ISZERO PUSH2 0x52B JUMPI PUSH1 0x1 SWAP4 PUSH2 0x3E8 PUSH1 0x5 SWAP3 PUSH1 0x64 CALLDATALOAD MUL DIV SWAP1 PUSH2 0x845 JUMP JUMPDEST POP SWAP1 PUSH2 0x81E JUMP JUMPDEST PUSH32 0x5138483D623EEF75882D5CA6ED33E44C7ECAFE842F3311844EABF67A297CE76C PUSH1 0x40 PUSH1 0x9 DUP6 ADD SLOAD DUP2 MLOAD SWAP1 PUSH1 0x4 CALLDATALOAD DUP3 MSTORE PUSH1 0x20 DUP3 ADD MSTORE LOG1 STOP JUMPDEST PUSH1 0x40 MLOAD PUSH3 0x461BCD PUSH1 0xE5 SHL DUP2 MSTORE PUSH1 0x20 PUSH1 0x4 DUP3 ADD MSTORE PUSH1 0x36 PUSH1 0x24 DUP3 ADD MSTORE PUSH32 0x4F6E6C792074686F73652077686F2068617665206A6F696E6564207468652061 PUSH1 0x44 DUP3 ADD MSTORE PUSH22 0x36313AB69031B0B71030B2321030B71034B6B0B3B297 PUSH1 0x51 SHL PUSH1 0x64 DUP3 ADD MSTORE PUSH1 0x84 SWAP1 REVERT JUMPDEST PUSH2 0x9C7 DUP2 DUP4 PUSH2 0x16FA JUMP JUMPDEST SWAP1 SLOAD PUSH1 0x3 SWAP2 SWAP1 SWAP2 SHL SHR PUSH1 0x1 PUSH1 0x1 PUSH1 0xA0 SHL SUB AND CALLER EQ PUSH2 0x9E7 JUMPI PUSH1 0x1 ADD PUSH2 0x7AA JUMP JUMPDEST POP POP POP POP PUSH1 0x1 DUP5 DUP1 DUP1 PUSH2 0x7B2 JUMP JUMPDEST POP PUSH1 0x1 SLOAD PUSH1 0x4 CALLDATALOAD GT ISZERO PUSH2 0x785 JUMP JUMPDEST CALLVALUE PUSH2 0x116 JUMPI PUSH1 0x0 CALLDATASIZE PUSH1 0x3 NOT ADD SLT PUSH2 0x116 JUMPI PUSH1 0x0 DUP1 PUSH1 0x3 DUP1 SLOAD SWAP3 JUMPDEST DUP4 DUP2 LT PUSH2 0xB7F JUMPI POP PUSH2 0xA47 PUSH2 0xA31 DUP4 PUSH2 0x136B JUMP JUMPDEST SWAP3 PUSH2 0xA3F PUSH1 0x40 MLOAD SWAP5 DUP6 PUSH2 0x134A JUMP JUMPDEST DUP1 DUP5 MSTORE PUSH2 0x136B JUMP JUMPDEST PUSH1 0x20 SWAP4 SWAP1 PUSH1 0x1F NOT ADD DUP5 PUSH1 0x0 JUMPDEST DUP3 DUP2 LT PUSH2 0xB69 JUMPI POP POP POP SWAP1 PUSH1 0x0 SWAP2 PUSH1 0x0 SWAP1 JUMPDEST DUP1 DUP3 LT PUSH2 0xACA JUMPI PUSH1 0x40 DUP1 MLOAD DUP8 DUP2 MSTORE DUP7 MLOAD DUP2 DUP10 ADD DUP2 SWAP1 MSTORE PUSH1 0x0 SWAP3 PUSH1 0x5 DUP3 SWAP1 SHL DUP4 ADD DUP2 ADD SWAP2 DUP10 DUP12 ADD SWAP2 DUP12 SWAP1 DUP6 ADD JUMPDEST DUP3 DUP8 LT PUSH2 0xA9E JUMPI DUP6 DUP6 SUB DUP7 RETURN JUMPDEST SWAP1 SWAP2 SWAP3 SWAP4 DUP3 DUP1 PUSH2 0xABA PUSH1 0x1 SWAP4 PUSH1 0x3F NOT DUP11 DUP3 SUB ADD DUP7 MSTORE DUP9 MLOAD PUSH2 0x1463 JUMP JUMPDEST SWAP7 ADD SWAP3 ADD SWAP7 ADD SWAP6 SWAP3 SWAP2 SWAP1 SWAP3 PUSH2 0xA91 JUMP JUMPDEST SWAP1 SWAP3 SWAP5 PUSH1 0x0 SWAP5 SWAP3 SWAP5 JUMPDEST PUSH2 0xADC DUP6 PUSH2 0x1939 JUMP JUMPDEST POP PUSH1 0x8 DUP1 SWAP2 ADD SLOAD DUP3 LT ISZERO PUSH2 0xB5A JUMPI DUP2 PUSH2 0xAFF SWAP2 PUSH2 0xAF8 DUP9 PUSH2 0x1939 JUMP JUMPDEST POP ADD PUSH2 0x16FA JUMP JUMPDEST SWAP1 SLOAD SWAP1 DUP8 SHL SHR PUSH1 0x1 PUSH1 0x1 PUSH1 0xA0 SHL SUB AND CALLER EQ PUSH2 0xB1C JUMPI PUSH1 0x1 ADD PUSH2 0xAD3 JUMP JUMPDEST POP SWAP5 PUSH2 0xB4F PUSH1 0x1 SWAP2 PUSH2 0xB3A PUSH2 0xB34 DUP8 SWAP6 SWAP7 SWAP9 SWAP8 PUSH2 0x1939 JUMP JUMPDEST POP PUSH2 0x1B0B JUMP JUMPDEST PUSH2 0xB44 DUP3 DUP10 PUSH2 0x16D0 JUMP JUMPDEST MSTORE PUSH2 0x51D DUP2 DUP9 PUSH2 0x16D0 JUMP JUMPDEST SWAP2 JUMPDEST ADD SWAP1 SWAP3 SWAP2 PUSH2 0xA65 JUMP JUMPDEST POP POP SWAP5 SWAP1 SWAP2 SWAP4 SWAP3 PUSH1 0x1 SWAP1 PUSH2 0xB51 JUMP JUMPDEST PUSH2 0xB71 PUSH2 0x1ABB JUMP JUMPDEST DUP3 DUP3 DUP9 ADD ADD MSTORE ADD DUP6 SWAP1 PUSH2 0xA53 JUMP JUMPDEST SWAP1 SWAP2 PUSH1 0x0 JUMPDEST PUSH2 0xB8D DUP4 PUSH2 0x1939 JUMP JUMPDEST POP PUSH1 0x8 DUP1 SWAP2 ADD SLOAD DUP3 LT ISZERO PUSH2 0xBDD JUMPI DUP2 PUSH2 0xBA9 SWAP2 PUSH2 0xAF8 DUP7 PUSH2 0x1939 JUMP JUMPDEST SWAP1 SLOAD SWAP1 DUP6 SHL SHR PUSH1 0x1 PUSH1 0x1 PUSH1 0xA0 SHL SUB AND CALLER EQ PUSH2 0xBC6 JUMPI PUSH1 0x1 ADD PUSH2 0xB84 JUMP JUMPDEST POP PUSH2 0xBD5 PUSH1 0x1 SWAP2 SWAP4 SWAP3 SWAP4 PUSH2 0x18E3 JUMP JUMPDEST SWAP3 JUMPDEST ADD PUSH2 0xA1D JUMP JUMPDEST POP POP SWAP2 SWAP1 PUSH1 0x1 SWAP1 PUSH2 0xBD7 JUMP JUMPDEST CALLVALUE PUSH2 0x116 JUMPI PUSH1 0xC0 CALLDATASIZE PUSH1 0x3 NOT ADD SLT PUSH2 0x116 JUMPI PUSH1 0x4 CALLDATALOAD PUSH1 0x1 PUSH1 0x1 PUSH1 0x40 SHL SUB DUP2 GT PUSH2 0x116 JUMPI PUSH2 0xC19 SWAP1 CALLDATASIZE SWAP1 PUSH1 0x4 ADD PUSH2 0x139D JUMP JUMPDEST PUSH1 0x24 CALLDATALOAD PUSH1 0x1 PUSH1 0x1 PUSH1 0x40 SHL SUB DUP2 GT PUSH2 0x116 JUMPI PUSH2 0xC38 SWAP1 CALLDATASIZE SWAP1 PUSH1 0x4 ADD PUSH2 0x139D JUMP JUMPDEST SWAP1 PUSH1 0x44 CALLDATALOAD SWAP2 PUSH1 0x1 PUSH1 0x1 PUSH1 0x40 SHL SUB DUP4 GT PUSH2 0x116 JUMPI CALLDATASIZE PUSH1 0x23 DUP5 ADD SLT ISZERO PUSH2 0x116 JUMPI DUP3 PUSH1 0x4 ADD CALLDATALOAD PUSH2 0xC64 DUP2 PUSH2 0x136B JUMP JUMPDEST SWAP4 PUSH2 0xC72 PUSH1 0x40 MLOAD SWAP6 DUP7 PUSH2 0x134A JUMP JUMPDEST DUP2 DUP6 MSTORE PUSH1 0x24 PUSH1 0x20 DUP7 ADD SWAP3 PUSH1 0x5 SHL DUP3 ADD ADD SWAP1 CALLDATASIZE DUP3 GT PUSH2 0x116 JUMPI PUSH1 0x24 ADD SWAP2 JUMPDEST DUP2 DUP4 LT PUSH2 0x1082 JUMPI POP POP POP PUSH1 0x64 CALLDATALOAD PUSH1 0x1 PUSH1 0x1 PUSH1 0x40 SHL SUB DUP2 GT PUSH2 0x116 JUMPI PUSH2 0xCB8 SWAP1 CALLDATASIZE SWAP1 PUSH1 0x4 ADD PUSH2 0x139D JUMP JUMPDEST SWAP2 PUSH1 0x84 CALLDATALOAD ISZERO ISZERO PUSH1 0x84 CALLDATALOAD SUB PUSH2 0x116 JUMPI PUSH2 0xCD1 CALLER ISZERO ISZERO PUSH2 0x1684 JUMP JUMPDEST DUP1 MLOAD ISZERO PUSH2 0x1048 JUMPI DUP2 MLOAD ISZERO PUSH2 0xFC7 JUMPI PUSH2 0xCEA PUSH1 0x1 SLOAD PUSH2 0x18E3 JUMP JUMPDEST DUP1 PUSH1 0x1 SSTORE DUP5 MLOAD SWAP3 PUSH1 0x1 DUP5 ADD DUP1 SWAP5 GT PUSH2 0x52B JUMPI PUSH2 0xD1E PUSH2 0xD08 DUP6 PUSH2 0x136B JUMP JUMPDEST SWAP5 PUSH2 0xD16 PUSH1 0x40 MLOAD SWAP7 DUP8 PUSH2 0x134A JUMP JUMPDEST DUP1 DUP7 MSTORE PUSH2 0x136B JUMP JUMPDEST PUSH1 0x1F NOT ADD CALLDATASIZE PUSH1 0x20 DUP7 ADD CALLDATACOPY PUSH1 0x0 JUMPDEST DUP7 MLOAD DUP2 LT ISZERO PUSH2 0xD5C JUMPI PUSH1 0x1 SWAP1 PUSH1 0x1 PUSH1 0x1 PUSH1 0xA0 SHL SUB PUSH2 0xD49 DUP3 DUP11 PUSH2 0x16D0 JUMP JUMPDEST MLOAD AND PUSH2 0xD55 DUP3 DUP9 PUSH2 0x16D0 JUMP JUMPDEST MSTORE ADD PUSH2 0xD2B JUMP JUMPDEST POP DUP4 SWAP1 DUP6 DUP8 PUSH2 0xD6D CALLER SWAP2 MLOAD DUP6 PUSH2 0x16D0 JUMP JUMPDEST MSTORE DUP4 PUSH1 0x0 MSTORE PUSH1 0x4 PUSH1 0x20 MSTORE PUSH1 0x40 PUSH1 0x0 KECCAK256 SWAP4 DUP5 SSTORE PUSH2 0xD9A PUSH1 0x84 CALLDATALOAD PUSH1 0x1 DUP7 ADD SWAP1 PUSH1 0xFF DUP1 NOT DUP4 SLOAD AND SWAP2 ISZERO ISZERO AND OR SWAP1 SSTORE JUMP JUMPDEST PUSH1 0x84 CALLDATALOAD ISZERO PUSH2 0xF97 JUMPI PUSH2 0xDDB PUSH2 0xDE4 SWAP3 PUSH1 0x0 JUMPDEST PUSH1 0x2 DUP8 ADD SSTORE PUSH1 0x3 DUP7 ADD DUP1 SLOAD PUSH1 0x1 PUSH1 0x1 PUSH1 0xA0 SHL SUB NOT AND CALLER OR SWAP1 SSTORE PUSH2 0xDD2 DUP8 PUSH1 0x4 DUP9 ADD PUSH2 0x176E JUMP JUMPDEST PUSH1 0x5 DUP7 ADD PUSH2 0x176E JUMP JUMPDEST PUSH1 0x6 DUP5 ADD PUSH2 0x176E JUMP JUMPDEST TIMESTAMP PUSH1 0x7 DUP4 ADD SSTORE DUP1 MLOAD SWAP1 PUSH1 0x1 PUSH1 0x1 PUSH1 0x40 SHL SUB DUP3 GT PUSH2 0xF64 JUMPI PUSH1 0x20 SWAP1 PUSH2 0xE0B DUP4 PUSH1 0x8 DUP7 ADD PUSH2 0x1905 JUMP JUMPDEST ADD PUSH1 0x8 DUP4 ADD PUSH1 0x0 MSTORE PUSH1 0x20 PUSH1 0x0 KECCAK256 PUSH1 0x0 JUMPDEST DUP4 DUP2 LT PUSH2 0xF7A JUMPI DUP6 DUP6 PUSH1 0x9 DUP2 ADD SWAP1 PUSH1 0x0 DUP3 SSTORE PUSH1 0x3 SLOAD PUSH1 0x1 PUSH1 0x40 SHL DUP2 LT ISZERO PUSH2 0xF64 JUMPI DUP1 PUSH1 0x1 PUSH2 0xE4C SWAP3 ADD PUSH1 0x3 SSTORE PUSH2 0x1939 JUMP JUMPDEST SWAP3 SWAP1 SWAP3 PUSH2 0xF4E JUMPI DUP2 DUP4 SUB PUSH2 0xEA1 JUMPI JUMPDEST PUSH1 0x1 SLOAD PUSH1 0x40 DUP1 MLOAD DUP2 DUP2 MSTORE PUSH32 0xD3CC7C228A9442B3E32B7FB9E7AC4298594EEB118C36CBFBAF73FEEF8394627D SWAP2 PUSH2 0xE93 SWAP1 DUP3 ADD DUP9 PUSH2 0x12D3 JUMP JUMPDEST SWAP3 PUSH1 0x20 DUP3 ADD MSTORE DUP1 CALLER SWAP4 SUB SWAP1 LOG2 STOP JUMPDEST PUSH2 0xF42 PUSH1 0x8 DUP4 PUSH1 0x9 SWAP5 SLOAD DUP7 SSTORE PUSH2 0xECD PUSH1 0xFF PUSH1 0x1 DUP4 ADD SLOAD AND PUSH1 0x1 DUP9 ADD SWAP1 PUSH1 0xFF DUP1 NOT DUP4 SLOAD AND SWAP2 ISZERO ISZERO AND OR SWAP1 SSTORE JUMP JUMPDEST PUSH1 0x2 DUP2 ADD SLOAD PUSH1 0x2 DUP8 ADD SSTORE PUSH1 0x3 DUP7 ADD PUSH1 0x1 DUP1 PUSH1 0xA0 SHL SUB PUSH1 0x3 DUP4 ADD SLOAD AND PUSH12 0xFFFFFFFFFFFFFFFFFFFFFFFF PUSH1 0xA0 SHL DUP3 SLOAD AND OR SWAP1 SSTORE PUSH2 0xF0E PUSH1 0x4 DUP3 ADD PUSH1 0x4 DUP9 ADD PUSH2 0x1974 JUMP JUMPDEST PUSH2 0xF1E PUSH1 0x5 DUP3 ADD PUSH1 0x5 DUP9 ADD PUSH2 0x1974 JUMP JUMPDEST PUSH2 0xF2E PUSH1 0x6 DUP3 ADD PUSH1 0x6 DUP9 ADD PUSH2 0x1974 JUMP JUMPDEST PUSH1 0x7 DUP2 ADD SLOAD PUSH1 0x7 DUP8 ADD SSTORE ADD PUSH1 0x8 DUP6 ADD PUSH2 0x1A52 JUMP JUMPDEST SLOAD SWAP2 ADD SSTORE DUP2 DUP1 DUP1 PUSH2 0xE5B JUMP JUMPDEST PUSH4 0x4E487B71 PUSH1 0xE0 SHL PUSH1 0x0 MSTORE PUSH1 0x0 PUSH1 0x4 MSTORE PUSH1 0x24 PUSH1 0x0 REVERT JUMPDEST PUSH4 0x4E487B71 PUSH1 0xE0 SHL PUSH1 0x0 MSTORE PUSH1 0x41 PUSH1 0x4 MSTORE PUSH1 0x24 PUSH1 0x0 REVERT JUMPDEST DUP3 MLOAD PUSH1 0x1 PUSH1 0x1 PUSH1 0xA0 SHL SUB AND DUP2 DUP4 ADD SSTORE PUSH1 0x20 SWAP1 SWAP3 ADD SWAP2 PUSH1 0x1 ADD PUSH2 0xE1B JUMP JUMPDEST PUSH8 0xDE0B6B3A7640000 DUP1 PUSH1 0xA4 CALLDATALOAD MUL SWAP1 PUSH1 0xA4 CALLDATALOAD DUP3 DIV EQ PUSH1 0xA4 CALLDATALOAD ISZERO OR ISZERO PUSH2 0x52B JUMPI PUSH2 0xDE4 SWAP3 PUSH2 0x3E8 PUSH2 0xDDB SWAP3 DIV PUSH2 0xDAC JUMP JUMPDEST PUSH1 0x40 MLOAD PUSH3 0x461BCD PUSH1 0xE5 SHL DUP2 MSTORE PUSH1 0x20 PUSH1 0x4 DUP3 ADD MSTORE PUSH1 0x4D PUSH1 0x24 DUP3 ADD MSTORE PUSH32 0x446573637269626520796F757220616C62756D20746F206C6574207468652077 PUSH1 0x44 DUP3 ADD MSTORE PUSH32 0x6F726C64206B6E6F7720686F7720796F752066656C74207768656E20796F7520 PUSH1 0x64 DUP3 ADD MSTORE PUSH13 0x31B932B0BA32B2103A3434B997 PUSH1 0x99 SHL PUSH1 0x84 DUP3 ADD MSTORE PUSH1 0xA4 SWAP1 REVERT JUMPDEST PUSH1 0x40 MLOAD PUSH3 0x461BCD PUSH1 0xE5 SHL DUP2 MSTORE PUSH1 0x20 PUSH1 0x4 DUP3 ADD MSTORE PUSH1 0x12 PUSH1 0x24 DUP3 ADD MSTORE PUSH18 0x283632B0B9B29030B2321030903730B6B297 PUSH1 0x71 SHL PUSH1 0x44 DUP3 ADD MSTORE PUSH1 0x64 SWAP1 REVERT JUMPDEST DUP3 CALLDATALOAD PUSH1 0x1 PUSH1 0x1 PUSH1 0xA0 SHL SUB DUP2 AND DUP2 SUB PUSH2 0x116 JUMPI DUP2 MSTORE PUSH1 0x20 SWAP3 DUP4 ADD SWAP3 ADD PUSH2 0xC8F JUMP JUMPDEST CALLVALUE PUSH2 0x116 JUMPI PUSH1 0x20 DUP1 PUSH1 0x3 NOT CALLDATASIZE ADD SLT PUSH2 0x116 JUMPI PUSH1 0x4 CALLDATALOAD DUP1 ISZERO ISZERO DUP1 PUSH2 0x112C JUMPI JUMPDEST PUSH2 0x10C9 SWAP1 PUSH2 0x183D JUMP JUMPDEST PUSH1 0x0 MSTORE PUSH1 0x4 DUP2 MSTORE PUSH2 0x10E0 PUSH1 0x8 PUSH1 0x40 PUSH1 0x0 KECCAK256 ADD PUSH2 0x1889 JUMP JUMPDEST SWAP1 PUSH1 0x40 MLOAD SWAP2 DUP2 DUP4 SWAP3 DUP4 ADD DUP2 DUP5 MSTORE DUP3 MLOAD DUP1 SWAP2 MSTORE DUP2 PUSH1 0x40 DUP6 ADD SWAP4 ADD SWAP2 PUSH1 0x0 JUMPDEST DUP3 DUP2 LT PUSH2 0x110C JUMPI POP POP POP POP SUB SWAP1 RETURN JUMPDEST DUP4 MLOAD PUSH1 0x1 PUSH1 0x1 PUSH1 0xA0 SHL SUB AND DUP6 MSTORE DUP7 SWAP6 POP SWAP4 DUP2 ADD SWAP4 SWAP3 DUP2 ADD SWAP3 PUSH1 0x1 ADD PUSH2 0x10FD JUMP JUMPDEST POP PUSH1 0x1 SLOAD DUP2 GT ISZERO PUSH2 0x10C0 JUMP JUMPDEST CALLVALUE PUSH2 0x116 JUMPI PUSH1 0x20 DUP1 PUSH1 0x3 NOT CALLDATASIZE ADD SLT PUSH2 0x116 JUMPI PUSH1 0x4 CALLDATALOAD PUSH1 0x1 PUSH1 0x1 PUSH1 0x40 SHL SUB DUP2 GT PUSH2 0x116 JUMPI PUSH2 0x1169 SWAP1 CALLDATASIZE SWAP1 PUSH1 0x4 ADD PUSH2 0x13E4 JUMP JUMPDEST SWAP1 PUSH2 0x1175 CALLER ISZERO ISZERO PUSH2 0x1684 JUMP JUMPDEST PUSH1 0x0 JUMPDEST DUP3 MLOAD DUP2 LT ISZERO PUSH2 0x11CE JUMPI CALLER PUSH1 0x0 MSTORE PUSH1 0x5 DUP3 MSTORE PUSH1 0x40 PUSH1 0x0 KECCAK256 SWAP1 PUSH2 0x1199 DUP2 DUP6 PUSH2 0x16D0 JUMP JUMPDEST MLOAD SWAP2 DUP1 SLOAD PUSH1 0x1 PUSH1 0x40 SHL DUP2 LT ISZERO PUSH2 0xF64 JUMPI PUSH2 0x11B8 SWAP2 PUSH1 0x1 DUP3 ADD DUP2 SSTORE PUSH2 0x16FA JUMP JUMPDEST PUSH2 0xF4E JUMPI PUSH1 0x1 SWAP3 PUSH2 0x11C8 SWAP2 PUSH2 0x176E JUMP JUMPDEST ADD PUSH2 0x1178 JUMP JUMPDEST PUSH1 0x40 MLOAD TIMESTAMP DUP2 MSTORE PUSH32 0xB782E3441C7B8DDDC1C1F7273897E80478887BB10C5DE03751A571614DF7C7F2 PUSH1 0x20 CALLER SWAP3 LOG2 STOP JUMPDEST CALLVALUE PUSH2 0x116 JUMPI PUSH1 0x0 CALLDATASIZE PUSH1 0x3 NOT ADD SLT PUSH2 0x116 JUMPI CALLER PUSH1 0x0 MSTORE PUSH1 0x20 PUSH1 0x5 DUP2 MSTORE PUSH1 0x40 PUSH1 0x0 KECCAK256 SWAP1 DUP2 SLOAD SWAP2 PUSH2 0x1229 DUP4 PUSH2 0x136B JUMP JUMPDEST SWAP3 PUSH2 0x1237 PUSH1 0x40 MLOAD SWAP5 DUP6 PUSH2 0x134A JUMP JUMPDEST DUP1 DUP5 MSTORE DUP3 DUP5 ADD DUP1 SWAP3 PUSH1 0x0 MSTORE DUP4 PUSH1 0x0 KECCAK256 PUSH1 0x0 SWAP2 JUMPDEST DUP4 DUP4 LT PUSH2 0x12B1 JUMPI POP POP POP POP PUSH1 0x40 MLOAD SWAP2 DUP1 DUP4 ADD SWAP4 DUP2 DUP5 MSTORE MLOAD DUP1 SWAP5 MSTORE PUSH1 0x40 DUP4 ADD SWAP4 PUSH1 0x40 DUP2 PUSH1 0x5 SHL DUP6 ADD ADD SWAP3 SWAP2 PUSH1 0x0 SWAP6 JUMPDEST DUP3 DUP8 LT PUSH2 0x1285 JUMPI DUP6 DUP6 SUB DUP7 RETURN JUMPDEST SWAP1 SWAP2 SWAP3 SWAP4 DUP3 DUP1 PUSH2 0x12A1 PUSH1 0x1 SWAP4 PUSH1 0x3F NOT DUP11 DUP3 SUB ADD DUP7 MSTORE DUP9 MLOAD PUSH2 0x12D3 JUMP JUMPDEST SWAP7 ADD SWAP3 ADD SWAP7 ADD SWAP6 SWAP3 SWAP2 SWAP1 SWAP3 PUSH2 0x1278 JUMP JUMPDEST PUSH1 0x1 DUP7 DUP2 SWAP3 PUSH2 0x12C2 DUP6 SWAP11 SWAP10 SWAP11 PUSH2 0x15DF JUMP JUMPDEST DUP2 MSTORE ADD SWAP3 ADD SWAP3 ADD SWAP2 SWAP1 SWAP6 SWAP5 SWAP6 PUSH2 0x124A JUMP JUMPDEST SWAP2 SWAP1 DUP3 MLOAD SWAP3 DUP4 DUP3 MSTORE PUSH1 0x0 JUMPDEST DUP5 DUP2 LT PUSH2 0x12FF JUMPI POP POP DUP3 PUSH1 0x0 PUSH1 0x20 DUP1 SWAP5 SWAP6 DUP5 ADD ADD MSTORE PUSH1 0x1F DUP1 NOT SWAP2 ADD AND ADD ADD SWAP1 JUMP JUMPDEST PUSH1 0x20 DUP2 DUP4 ADD DUP2 ADD MLOAD DUP5 DUP4 ADD DUP3 ADD MSTORE ADD PUSH2 0x12DE JUMP JUMPDEST PUSH1 0xC0 DUP2 ADD SWAP1 DUP2 LT PUSH1 0x1 PUSH1 0x1 PUSH1 0x40 SHL SUB DUP3 GT OR PUSH2 0xF64 JUMPI PUSH1 0x40 MSTORE JUMP JUMPDEST PUSH2 0x140 DUP2 ADD SWAP1 DUP2 LT PUSH1 0x1 PUSH1 0x1 PUSH1 0x40 SHL SUB DUP3 GT OR PUSH2 0xF64 JUMPI PUSH1 0x40 MSTORE JUMP JUMPDEST SWAP1 PUSH1 0x1F DUP1 NOT SWAP2 ADD AND DUP2 ADD SWAP1 DUP2 LT PUSH1 0x1 PUSH1 0x1 PUSH1 0x40 SHL SUB DUP3 GT OR PUSH2 0xF64 JUMPI PUSH1 0x40 MSTORE JUMP JUMPDEST PUSH1 0x1 PUSH1 0x1 PUSH1 0x40 SHL SUB DUP2 GT PUSH2 0xF64 JUMPI PUSH1 0x5 SHL PUSH1 0x20 ADD SWAP1 JUMP JUMPDEST PUSH1 0x1 PUSH1 0x1 PUSH1 0x40 SHL SUB DUP2 GT PUSH2 0xF64 JUMPI PUSH1 0x1F ADD PUSH1 0x1F NOT AND PUSH1 0x20 ADD SWAP1 JUMP JUMPDEST DUP2 PUSH1 0x1F DUP3 ADD SLT ISZERO PUSH2 0x116 JUMPI DUP1 CALLDATALOAD SWAP1 PUSH2 0x13B4 DUP3 PUSH2 0x1382 JUMP JUMPDEST SWAP3 PUSH2 0x13C2 PUSH1 0x40 MLOAD SWAP5 DUP6 PUSH2 0x134A JUMP JUMPDEST DUP3 DUP5 MSTORE PUSH1 0x20 DUP4 DUP4 ADD ADD GT PUSH2 0x116 JUMPI DUP2 PUSH1 0x0 SWAP3 PUSH1 0x20 DUP1 SWAP4 ADD DUP4 DUP7 ADD CALLDATACOPY DUP4 ADD ADD MSTORE SWAP1 JUMP JUMPDEST DUP2 PUSH1 0x1F DUP3 ADD SLT ISZERO PUSH2 0x116 JUMPI DUP1 CALLDATALOAD SWAP2 PUSH1 0x20 SWAP2 PUSH2 0x13FE DUP5 PUSH2 0x136B JUMP JUMPDEST SWAP4 PUSH2 0x140C PUSH1 0x40 MLOAD SWAP6 DUP7 PUSH2 0x134A JUMP JUMPDEST DUP1 DUP6 MSTORE DUP4 DUP1 DUP7 ADD SWAP2 PUSH1 0x5 SHL DUP4 ADD ADD SWAP3 DUP1 DUP5 GT PUSH2 0x116 JUMPI DUP5 DUP4 ADD SWAP2 JUMPDEST DUP5 DUP4 LT PUSH2 0x1437 JUMPI POP POP POP POP POP POP SWAP1 JUMP JUMPDEST DUP3 CALLDATALOAD PUSH1 0x1 PUSH1 0x1 PUSH1 0x40 SHL SUB DUP2 GT PUSH2 0x116 JUMPI DUP7 SWAP2 PUSH2 0x1458 DUP5 DUP5 DUP1 SWAP5 DUP10 ADD ADD PUSH2 0x139D JUMP JUMPDEST DUP2 MSTORE ADD SWAP3 ADD SWAP2 PUSH2 0x1427 JUMP JUMPDEST SWAP1 PUSH2 0x140 SWAP2 DUP1 MLOAD DUP3 MSTORE PUSH1 0x20 SWAP3 DUP4 DUP3 ADD MLOAD ISZERO ISZERO DUP5 DUP5 ADD MSTORE PUSH1 0x40 DUP3 ADD MLOAD PUSH1 0x40 DUP5 ADD MSTORE PUSH2 0x14D9 PUSH2 0x14C7 PUSH2 0x14B5 PUSH1 0x60 DUP6 ADD MLOAD SWAP4 PUSH1 0x1 DUP1 PUSH1 0xA0 SHL SUB DUP1 SWAP6 AND PUSH1 0x60 DUP9 ADD MSTORE PUSH1 0x80 DUP7 ADD MLOAD SWAP1 DUP1 PUSH1 0x80 DUP10 ADD MSTORE DUP8 ADD SWAP1 PUSH2 0x12D3 JUMP JUMPDEST PUSH1 0xA0 DUP6 ADD MLOAD DUP7 DUP3 SUB PUSH1 0xA0 DUP9 ADD MSTORE PUSH2 0x12D3 JUMP JUMPDEST PUSH1 0xC0 DUP5 ADD MLOAD DUP6 DUP3 SUB PUSH1 0xC0 DUP8 ADD MSTORE PUSH2 0x12D3 JUMP JUMPDEST PUSH1 0xE0 DUP4 ADD MLOAD PUSH1 0xE0 DUP6 ADD MSTORE PUSH2 0x100 SWAP5 DUP6 DUP5 ADD MLOAD SWAP6 DUP6 DUP4 SUB SWAP1 DUP7 ADD MSTORE DUP1 DUP1 DUP8 MLOAD SWAP4 DUP5 DUP2 MSTORE ADD SWAP7 ADD SWAP3 PUSH1 0x0 SWAP1 JUMPDEST DUP4 DUP3 LT PUSH2 0x151C JUMPI POP POP POP POP POP PUSH2 0x120 DUP1 SWAP2 ADD MLOAD SWAP2 ADD MSTORE SWAP1 JUMP JUMPDEST DUP5 MLOAD DUP2 AND DUP9 MSTORE SWAP7 DUP3 ADD SWAP7 SWAP4 DUP3 ADD SWAP4 PUSH1 0x1 SWAP1 SWAP2 ADD SWAP1 PUSH2 0x1503 JUMP JUMPDEST SWAP1 DUP2 MLOAD DUP2 MSTORE PUSH1 0xA0 DUP1 PUSH2 0x156B PUSH2 0x1559 PUSH1 0x20 DUP7 ADD MLOAD PUSH1 0xC0 PUSH1 0x20 DUP8 ADD MSTORE PUSH1 0xC0 DUP7 ADD SWAP1 PUSH2 0x12D3 JUMP JUMPDEST PUSH1 0x40 DUP7 ADD MLOAD DUP6 DUP3 SUB PUSH1 0x40 DUP8 ADD MSTORE PUSH2 0x12D3 JUMP JUMPDEST SWAP4 PUSH1 0x1 DUP1 DUP4 SHL SUB PUSH1 0x60 DUP3 ADD MLOAD AND PUSH1 0x60 DUP6 ADD MSTORE PUSH1 0x80 DUP2 ADD MLOAD PUSH1 0x80 DUP6 ADD MSTORE ADD MLOAD SWAP2 ADD MSTORE SWAP1 JUMP JUMPDEST PUSH1 0x40 SWAP1 PUSH1 0x3 NOT ADD SLT PUSH2 0x116 JUMPI PUSH1 0x4 CALLDATALOAD SWAP1 PUSH1 0x24 CALLDATALOAD SWAP1 JUMP JUMPDEST SWAP1 PUSH1 0x1 DUP3 DUP2 SHR SWAP3 AND DUP1 ISZERO PUSH2 0x15D5 JUMPI JUMPDEST PUSH1 0x20 DUP4 LT EQ PUSH2 0x15BF JUMPI JUMP JUMPDEST PUSH4 0x4E487B71 PUSH1 0xE0 SHL PUSH1 0x0 MSTORE PUSH1 0x22 PUSH1 0x4 MSTORE PUSH1 0x24 PUSH1 0x0 REVERT JUMPDEST SWAP2 PUSH1 0x7F AND SWAP2 PUSH2 0x15B4 JUMP JUMPDEST SWAP1 PUSH1 0x40 MLOAD SWAP2 DUP3 PUSH1 0x0 DUP3 SLOAD PUSH2 0x15F2 DUP2 PUSH2 0x15A5 JUMP JUMPDEST SWAP1 DUP2 DUP5 MSTORE PUSH1 0x20 SWAP5 PUSH1 0x1 SWAP2 PUSH1 0x1 DUP2 AND SWAP1 DUP2 PUSH1 0x0 EQ PUSH2 0x1662 JUMPI POP PUSH1 0x1 EQ PUSH2 0x1623 JUMPI JUMPDEST POP POP POP PUSH2 0x1621 SWAP3 POP SUB DUP4 PUSH2 0x134A JUMP JUMPDEST JUMP JUMPDEST PUSH1 0x0 SWAP1 DUP2 MSTORE DUP6 DUP2 KECCAK256 SWAP6 SWAP4 POP SWAP2 SWAP1 JUMPDEST DUP2 DUP4 LT PUSH2 0x164A JUMPI POP POP PUSH2 0x1621 SWAP4 POP DUP3 ADD ADD CODESIZE DUP1 DUP1 PUSH2 0x1612 JUMP JUMPDEST DUP6 SLOAD DUP9 DUP5 ADD DUP6 ADD MSTORE SWAP5 DUP6 ADD SWAP5 DUP8 SWAP5 POP SWAP2 DUP4 ADD SWAP2 PUSH2 0x1631 JUMP JUMPDEST SWAP3 POP POP POP PUSH2 0x1621 SWAP5 SWAP3 POP PUSH1 0xFF NOT AND DUP3 DUP5 ADD MSTORE ISZERO ISZERO PUSH1 0x5 SHL DUP3 ADD ADD CODESIZE DUP1 DUP1 PUSH2 0x1612 JUMP JUMPDEST ISZERO PUSH2 0x168B JUMPI JUMP JUMPDEST PUSH1 0x40 MLOAD PUSH3 0x461BCD PUSH1 0xE5 SHL DUP2 MSTORE PUSH1 0x20 PUSH1 0x4 DUP3 ADD MSTORE PUSH1 0x1A PUSH1 0x24 DUP3 ADD MSTORE PUSH32 0x4E6F207A65726F2061646472657373657320616C6C6F7765642E000000000000 PUSH1 0x44 DUP3 ADD MSTORE PUSH1 0x64 SWAP1 REVERT JUMPDEST DUP1 MLOAD DUP3 LT ISZERO PUSH2 0x16E4 JUMPI PUSH1 0x20 SWAP2 PUSH1 0x5 SHL ADD ADD SWAP1 JUMP JUMPDEST PUSH4 0x4E487B71 PUSH1 0xE0 SHL PUSH1 0x0 MSTORE PUSH1 0x32 PUSH1 0x4 MSTORE PUSH1 0x24 PUSH1 0x0 REVERT JUMPDEST DUP1 SLOAD DUP3 LT ISZERO PUSH2 0x16E4 JUMPI PUSH1 0x0 MSTORE PUSH1 0x20 PUSH1 0x0 KECCAK256 ADD SWAP1 PUSH1 0x0 SWAP1 JUMP JUMPDEST DUP2 DUP2 LT PUSH2 0x171D JUMPI POP POP JUMP JUMPDEST PUSH1 0x0 DUP2 SSTORE PUSH1 0x1 ADD PUSH2 0x1712 JUMP JUMPDEST SWAP2 SWAP1 PUSH1 0x1F DUP2 GT PUSH2 0x1738 JUMPI POP POP POP JUMP JUMPDEST PUSH2 0x1621 SWAP3 PUSH1 0x0 MSTORE PUSH1 0x20 PUSH1 0x0 KECCAK256 SWAP1 PUSH1 0x20 PUSH1 0x1F DUP5 ADD PUSH1 0x5 SHR DUP4 ADD SWAP4 LT PUSH2 0x1764 JUMPI JUMPDEST PUSH1 0x1F ADD PUSH1 0x5 SHR ADD SWAP1 PUSH2 0x1712 JUMP JUMPDEST SWAP1 SWAP2 POP DUP2 SWAP1 PUSH2 0x1757 JUMP JUMPDEST SWAP2 SWAP1 SWAP2 DUP3 MLOAD PUSH1 0x1 PUSH1 0x1 PUSH1 0x40 SHL SUB DUP2 GT PUSH2 0xF64 JUMPI PUSH2 0x1795 DUP2 PUSH2 0x178F DUP5 SLOAD PUSH2 0x15A5 JUMP JUMPDEST DUP5 PUSH2 0x1729 JUMP JUMPDEST PUSH1 0x20 DUP1 PUSH1 0x1F DUP4 GT PUSH1 0x1 EQ PUSH2 0x17D8 JUMPI POP DUP2 SWAP1 PUSH2 0x17C9 SWAP4 SWAP5 SWAP6 PUSH1 0x0 SWAP3 PUSH2 0x17CD JUMPI JUMPDEST POP POP DUP2 PUSH1 0x1 SHL SWAP2 PUSH1 0x0 NOT SWAP1 PUSH1 0x3 SHL SHR NOT AND OR SWAP1 JUMP JUMPDEST SWAP1 SSTORE JUMP JUMPDEST ADD MLOAD SWAP1 POP CODESIZE DUP1 PUSH2 0x17B4 JUMP JUMPDEST SWAP1 PUSH1 0x1F NOT DUP4 AND SWAP6 DUP5 PUSH1 0x0 MSTORE PUSH1 0x20 PUSH1 0x0 KECCAK256 SWAP3 PUSH1 0x0 SWAP1 JUMPDEST DUP9 DUP3 LT PUSH2 0x1825 JUMPI POP POP DUP4 PUSH1 0x1 SWAP6 SWAP7 SWAP8 LT PUSH2 0x180C JUMPI JUMPDEST POP POP POP DUP2 SHL ADD SWAP1 SSTORE JUMP JUMPDEST ADD MLOAD PUSH1 0x0 NOT PUSH1 0xF8 DUP5 PUSH1 0x3 SHL AND SHR NOT AND SWAP1 SSTORE CODESIZE DUP1 DUP1 PUSH2 0x1802 JUMP JUMPDEST DUP1 PUSH1 0x1 DUP6 SWAP7 DUP3 SWAP5 SWAP7 DUP7 ADD MLOAD DUP2 SSTORE ADD SWAP6 ADD SWAP4 ADD SWAP1 PUSH2 0x17ED JUMP JUMPDEST ISZERO PUSH2 0x1844 JUMPI JUMP JUMPDEST PUSH1 0x40 MLOAD PUSH3 0x461BCD PUSH1 0xE5 SHL DUP2 MSTORE PUSH1 0x20 PUSH1 0x4 DUP3 ADD MSTORE PUSH1 0x19 PUSH1 0x24 DUP3 ADD MSTORE PUSH32 0x5468697320616C62756D20646F6573206E6F7420657869737400000000000000 PUSH1 0x44 DUP3 ADD MSTORE PUSH1 0x64 SWAP1 REVERT JUMPDEST SWAP1 PUSH1 0x40 MLOAD SWAP2 DUP3 DUP2 SLOAD SWAP2 DUP3 DUP3 MSTORE PUSH1 0x20 SWAP3 PUSH1 0x20 DUP4 ADD SWAP2 PUSH1 0x0 MSTORE PUSH1 0x20 PUSH1 0x0 KECCAK256 SWAP4 PUSH1 0x0 SWAP1 JUMPDEST DUP3 DUP3 LT PUSH2 0x18C0 JUMPI POP POP POP PUSH2 0x1621 SWAP3 POP SUB DUP4 PUSH2 0x134A JUMP JUMPDEST DUP6 SLOAD PUSH1 0x1 PUSH1 0x1 PUSH1 0xA0 SHL SUB AND DUP5 MSTORE PUSH1 0x1 SWAP6 DUP7 ADD SWAP6 DUP9 SWAP6 POP SWAP4 DUP2 ADD SWAP4 SWAP1 SWAP2 ADD SWAP1 PUSH2 0x18AA JUMP JUMPDEST PUSH1 0x0 NOT DUP2 EQ PUSH2 0x52B JUMPI PUSH1 0x1 ADD SWAP1 JUMP JUMPDEST DUP2 DUP2 MUL SWAP3 SWAP2 DUP2 ISZERO SWAP2 DUP5 DIV EQ OR ISZERO PUSH2 0x52B JUMPI JUMP JUMPDEST SWAP1 PUSH1 0x1 PUSH1 0x40 SHL DUP2 GT PUSH2 0xF64 JUMPI DUP2 SLOAD SWAP1 DUP1 DUP4 SSTORE DUP2 DUP2 LT PUSH2 0x1923 JUMPI POP POP POP JUMP JUMPDEST PUSH2 0x1621 SWAP3 PUSH1 0x0 MSTORE PUSH1 0x20 PUSH1 0x0 KECCAK256 SWAP2 DUP3 ADD SWAP2 ADD PUSH2 0x1712 JUMP JUMPDEST PUSH1 0x3 SLOAD DUP2 LT ISZERO PUSH2 0x16E4 JUMPI PUSH1 0xA SWAP1 PUSH1 0x3 PUSH1 0x0 MSTORE MUL PUSH32 0xC2575A0E9E593C00F959F8C92F12DB2869C3395A3B0502D05E2516446F71F85B ADD SWAP1 PUSH1 0x0 SWAP1 JUMP JUMPDEST SWAP1 DUP1 DUP3 EQ PUSH2 0x1A4E JUMPI PUSH2 0x1986 DUP2 SLOAD PUSH2 0x15A5 JUMP JUMPDEST SWAP1 PUSH1 0x1 PUSH1 0x1 PUSH1 0x40 SHL SUB DUP3 GT PUSH2 0xF64 JUMPI PUSH2 0x19A9 DUP3 PUSH2 0x19A3 DUP6 SLOAD PUSH2 0x15A5 JUMP JUMPDEST DUP6 PUSH2 0x1729 JUMP JUMPDEST PUSH1 0x0 SWAP1 PUSH1 0x1F DUP4 GT PUSH1 0x1 EQ PUSH2 0x19E4 JUMPI PUSH2 0x17C9 SWAP3 SWAP2 PUSH1 0x0 SWAP2 DUP4 PUSH2 0x19D9 JUMPI POP POP DUP2 PUSH1 0x1 SHL SWAP2 PUSH1 0x0 NOT SWAP1 PUSH1 0x3 SHL SHR NOT AND OR SWAP1 JUMP JUMPDEST ADD SLOAD SWAP1 POP CODESIZE DUP1 PUSH2 0x17B4 JUMP JUMPDEST DUP2 MSTORE PUSH1 0x20 DUP1 DUP3 KECCAK256 DUP5 DUP4 MSTORE DUP2 DUP4 KECCAK256 SWAP3 SWAP2 PUSH1 0x1F NOT DUP6 AND SWAP1 DUP4 SWAP1 JUMPDEST DUP3 DUP3 LT PUSH2 0x1A35 JUMPI POP POP SWAP1 DUP5 PUSH1 0x1 SWAP6 SWAP5 SWAP4 SWAP3 LT PUSH2 0x1A1C JUMPI POP POP POP DUP2 SHL ADD SWAP1 SSTORE JUMP JUMPDEST ADD SLOAD PUSH1 0x0 NOT PUSH1 0xF8 DUP5 PUSH1 0x3 SHL AND SHR NOT AND SWAP1 SSTORE CODESIZE DUP1 DUP1 PUSH2 0x1802 JUMP JUMPDEST DUP5 SWAP6 DUP2 SWAP3 SWAP6 DUP6 ADD SLOAD DUP2 SSTORE PUSH1 0x1 DUP1 SWAP2 ADD SWAP7 ADD SWAP5 ADD SWAP1 PUSH2 0x19FC JUMP JUMPDEST POP POP JUMP JUMPDEST DUP2 DUP2 EQ PUSH2 0x1A4E JUMPI DUP2 SLOAD SWAP2 PUSH1 0x1 PUSH1 0x1 PUSH1 0x40 SHL SUB DUP4 GT PUSH2 0xF64 JUMPI PUSH2 0x1A74 DUP4 DUP4 PUSH2 0x1905 JUMP JUMPDEST PUSH1 0x0 MSTORE PUSH1 0x20 PUSH1 0x0 KECCAK256 SWAP1 PUSH1 0x0 MSTORE PUSH1 0x20 PUSH1 0x0 KECCAK256 DUP2 SLOAD SWAP2 PUSH1 0x0 SWAP3 JUMPDEST DUP5 DUP5 LT PUSH2 0x1A9A JUMPI POP POP POP POP POP JUMP JUMPDEST PUSH1 0x1 SWAP2 DUP3 ADD DUP1 SLOAD PUSH1 0x1 PUSH1 0x1 PUSH1 0xA0 SHL SUB SWAP1 SWAP3 AND DUP5 DUP7 ADD SSTORE SWAP4 SWAP1 SWAP2 ADD SWAP3 SWAP1 PUSH2 0x1A8C JUMP JUMPDEST PUSH1 0x40 MLOAD SWAP1 PUSH2 0x1AC8 DUP3 PUSH2 0x132E JUMP JUMPDEST DUP2 PUSH2 0x120 PUSH1 0x0 SWAP2 DUP3 DUP2 MSTORE DUP3 PUSH1 0x20 DUP3 ADD MSTORE DUP3 PUSH1 0x40 DUP3 ADD MSTORE DUP3 PUSH1 0x60 DUP3 ADD MSTORE PUSH1 0x60 PUSH1 0x80 DUP3 ADD MSTORE PUSH1 0x60 PUSH1 0xA0 DUP3 ADD MSTORE PUSH1 0x60 PUSH1 0xC0 DUP3 ADD MSTORE DUP3 PUSH1 0xE0 DUP3 ADD MSTORE PUSH1 0x60 PUSH2 0x100 DUP3 ADD MSTORE ADD MSTORE JUMP JUMPDEST SWAP1 PUSH1 0x40 MLOAD PUSH2 0x1B18 DUP2 PUSH2 0x132E JUMP JUMPDEST DUP3 SLOAD DUP2 MSTORE PUSH1 0x1 DUP4 ADD SLOAD PUSH1 0xFF AND ISZERO ISZERO PUSH1 0x20 DUP3 ADD MSTORE PUSH1 0x2 DUP4 ADD SLOAD PUSH1 0x40 DUP3 ADD MSTORE PUSH1 0x3 DUP4 ADD SLOAD PUSH1 0x1 PUSH1 0x1 PUSH1 0xA0 SHL SUB AND PUSH1 0x60 DUP3 ADD MSTORE SWAP2 DUP3 SWAP1 PUSH2 0x120 SWAP1 PUSH1 0x9 SWAP1 PUSH2 0x1B5E PUSH1 0x4 DUP3 ADD PUSH2 0x15DF JUMP JUMPDEST PUSH1 0x80 DUP6 ADD MSTORE PUSH2 0x1B6F PUSH1 0x5 DUP3 ADD PUSH2 0x15DF JUMP JUMPDEST PUSH1 0xA0 DUP6 ADD MSTORE PUSH2 0x1B80 PUSH1 0x6 DUP3 ADD PUSH2 0x15DF JUMP JUMPDEST PUSH1 0xC0 DUP6 ADD MSTORE PUSH1 0x7 DUP2 ADD SLOAD PUSH1 0xE0 DUP6 ADD MSTORE PUSH2 0x1B9B PUSH1 0x8 DUP3 ADD PUSH2 0x1889 JUMP JUMPDEST PUSH2 0x100 DUP6 ADD MSTORE ADD SLOAD SWAP2 ADD MSTORE JUMP JUMPDEST DUP1 SLOAD PUSH1 0x1 PUSH1 0x40 SHL DUP2 LT ISZERO PUSH2 0xF64 JUMPI PUSH2 0x1BC5 SWAP2 PUSH1 0x1 DUP3 ADD DUP2 SSTORE PUSH2 0x16FA JUMP JUMPDEST PUSH1 0x1 DUP1 PUSH1 0xA0 SWAP5 SWAP4 SWAP5 SHL SUB DUP1 DUP5 SLOAD SWAP3 PUSH1 0x3 SHL SWAP4 AND DUP4 SHL SWAP3 SHL NOT AND OR SWAP1 SSTORE JUMP JUMPDEST SWAP2 SWAP1 DUP3 SUB SWAP2 DUP3 GT PUSH2 0x52B JUMPI JUMP JUMPDEST RETURNDATASIZE ISZERO PUSH2 0x1C1B JUMPI RETURNDATASIZE SWAP1 PUSH2 0x1C01 DUP3 PUSH2 0x1382 JUMP JUMPDEST SWAP2 PUSH2 0x1C0F PUSH1 0x40 MLOAD SWAP4 DUP5 PUSH2 0x134A JUMP JUMPDEST DUP3 MSTORE RETURNDATASIZE PUSH1 0x0 PUSH1 0x20 DUP5 ADD RETURNDATACOPY JUMP JUMPDEST PUSH1 0x60 SWAP1 JUMP JUMPDEST ISZERO PUSH2 0x1C27 JUMPI JUMP JUMPDEST PUSH1 0x40 MLOAD PUSH3 0x461BCD PUSH1 0xE5 SHL DUP2 MSTORE PUSH1 0x20 PUSH1 0x4 DUP3 ADD MSTORE PUSH1 0x22 PUSH1 0x24 DUP3 ADD MSTORE PUSH32 0x466565207061796D656E7420746F20616C62756D206F776E6572206661696C65 PUSH1 0x44 DUP3 ADD MSTORE PUSH2 0x3217 PUSH1 0xF1 SHL PUSH1 0x64 DUP3 ADD MSTORE PUSH1 0x84 SWAP1 REVERT JUMPDEST ISZERO PUSH2 0x1C7E JUMPI JUMP JUMPDEST PUSH1 0x40 MLOAD PUSH3 0x461BCD PUSH1 0xE5 SHL DUP2 MSTORE PUSH1 0x20 PUSH1 0x4 DUP3 ADD MSTORE PUSH1 0x22 PUSH1 0x24 DUP3 ADD MSTORE PUSH32 0x466565207061796D656E7420746F207472796265206F776E6572206661696C65 PUSH1 0x44 DUP3 ADD MSTORE PUSH2 0x3217 PUSH1 0xF1 SHL PUSH1 0x64 DUP3 ADD MSTORE PUSH1 0x84 SWAP1 REVERT JUMPDEST ISZERO PUSH2 0x1CD5 JUMPI JUMP JUMPDEST PUSH1 0x40 MLOAD PUSH3 0x461BCD PUSH1 0xE5 SHL DUP2 MSTORE PUSH1 0x20 PUSH1 0x4 DUP3 ADD MSTORE PUSH1 0x33 PUSH1 0x24 DUP3 ADD MSTORE PUSH32 0x4F6E6C792074686F73652077686F2068617665206A6F696E6564207468652061 PUSH1 0x44 DUP3 ADD MSTORE PUSH19 0x36313AB69039B2B2903A34329030B6313AB697 PUSH1 0x69 SHL PUSH1 0x64 DUP3 ADD MSTORE PUSH1 0x84 SWAP1 REVERT JUMPDEST PUSH1 0x40 MLOAD SWAP1 PUSH2 0x1D43 DUP3 PUSH2 0x1313 JUMP JUMPDEST PUSH1 0x0 PUSH1 0xA0 DUP4 DUP3 DUP2 MSTORE PUSH1 0x60 PUSH1 0x20 DUP3 ADD MSTORE PUSH1 0x60 PUSH1 0x40 DUP3 ADD MSTORE DUP3 PUSH1 0x60 DUP3 ADD MSTORE DUP3 PUSH1 0x80 DUP3 ADD MSTORE ADD MSTORE JUMP JUMPDEST SWAP1 PUSH1 0x40 MLOAD PUSH2 0x1D76 DUP2 PUSH2 0x1313 JUMP JUMPDEST PUSH1 0xA0 PUSH1 0x5 DUP3 SWAP5 DUP1 SLOAD DUP5 MSTORE PUSH2 0x1D8C PUSH1 0x1 DUP3 ADD PUSH2 0x15DF JUMP JUMPDEST PUSH1 0x20 DUP6 ADD MSTORE PUSH2 0x1D9D PUSH1 0x2 DUP3 ADD PUSH2 0x15DF JUMP JUMPDEST PUSH1 0x40 DUP6 ADD MSTORE PUSH1 0x1 DUP1 DUP5 SHL SUB PUSH1 0x3 DUP3 ADD SLOAD AND PUSH1 0x60 DUP6 ADD MSTORE PUSH1 0x4 DUP2 ADD SLOAD PUSH1 0x80 DUP6 ADD MSTORE ADD SLOAD SWAP2 ADD MSTORE JUMP INVALID LOG2 PUSH5 0x6970667358 0x22 SLT KECCAK256 0xF7 PREVRANDAO SELFBALANCE 0xB3 SWAP2 EXTCODESIZE PUSH13 0xB4C34A340DE6886910D2628A3D MUL 0x2B CREATE2 0xAF GASLIMIT PC 0xCA 0xDF 0xDE MOD 0xD9 SWAP4 PUSH5 0x736F6C6343 STOP ADDMOD XOR STOP CALLER "
        },
        "methodIdentifiers": {
          "addImageToAlbum(uint256,string[],string,uint256)": "6c4860fe",
          "createAlbum(string,string,address[],string,bool,uint256)": "45a1db67",
          "download(uint256,uint256)": "bce54720",
          "getAlbum(uint256)": "d6e465c9",
          "getAlbums()": "5c517234",
          "getImageInAlbum(uint256,uint256)": "ced038d1",
          "getImages()": "11498334",
          "getImagesInAlbum(uint256)": "b027a787",
          "getListofParticipants(uint256)": "3b8f313b",
          "joinAlbum(uint256)": "8d84d7fc",
          "owner()": "8da5cb5b",
          "totalNoOfAlbumsCreated()": "6d49f8cc",
          "upload(string[])": "25d72e3b"
        }
      }
    }
  }
}