{
  "contracts/Trybe.sol": {
    "Trybe": {
      "abi": [
        {
          "inputs": [
            {
              "internalType": "uint256",
              "name": "_fee",
              "type": "uint256"
            }
          ],
          "stateMutability": "nonpayable",
          "type": "constructor"
        },
        {
          "anonymous": false,
          "inputs": [
            {
              "indexed": true,
              "internalType": "address",
              "name": "creator",
              "type": "address"
            },
            {
              "indexed": false,
              "internalType": "string",
              "name": "nameOfAlbum",
              "type": "string"
            },
            {
              "indexed": false,
              "internalType": "uint256",
              "name": "albumId",
              "type": "uint256"
            }
          ],
          "name": "AlbumCreated",
          "type": "event"
        },
        {
          "anonymous": false,
          "inputs": [
            {
              "indexed": false,
              "internalType": "uint256",
              "name": "albumId",
              "type": "uint256"
            },
            {
              "indexed": false,
              "internalType": "uint256",
              "name": "imageId",
              "type": "uint256"
            }
          ],
          "name": "ImageAdded",
          "type": "event"
        },
        {
          "anonymous": false,
          "inputs": [
            {
              "indexed": false,
              "internalType": "uint256",
              "name": "albumId",
              "type": "uint256"
            },
            {
              "indexed": false,
              "internalType": "uint256",
              "name": "imageId",
              "type": "uint256"
            }
          ],
          "name": "ImageDownloaded",
          "type": "event"
        },
        {
          "anonymous": false,
          "inputs": [
            {
              "indexed": true,
              "internalType": "address",
              "name": "participant",
              "type": "address"
            },
            {
              "indexed": false,
              "internalType": "uint256",
              "name": "timeJoined",
              "type": "uint256"
            }
          ],
          "name": "JoinedAlbum",
          "type": "event"
        },
        {
          "anonymous": false,
          "inputs": [
            {
              "indexed": true,
              "internalType": "address",
              "name": "user",
              "type": "address"
            },
            {
              "indexed": false,
              "internalType": "string",
              "name": "url",
              "type": "string"
            },
            {
              "indexed": false,
              "internalType": "uint256",
              "name": "createdAt",
              "type": "uint256"
            }
          ],
          "name": "Upload",
          "type": "event"
        },
        {
          "inputs": [
            {
              "internalType": "uint256",
              "name": "albumId",
              "type": "uint256"
            },
            {
              "internalType": "string",
              "name": "url",
              "type": "string"
            },
            {
              "internalType": "string",
              "name": "description",
              "type": "string"
            },
            {
              "internalType": "uint256",
              "name": "_fee",
              "type": "uint256"
            }
          ],
          "name": "addImageToAlbum",
          "outputs": [],
          "stateMutability": "nonpayable",
          "type": "function"
        },
        {
          "inputs": [
            {
              "internalType": "string",
              "name": "_name",
              "type": "string"
            },
            {
              "internalType": "string",
              "name": "description",
              "type": "string"
            },
            {
              "internalType": "address[]",
              "name": "_participants",
              "type": "address[]"
            },
            {
              "internalType": "string",
              "name": "_image",
              "type": "string"
            },
            {
              "internalType": "bool",
              "name": "visibility",
              "type": "bool"
            },
            {
              "internalType": "uint256",
              "name": "_fee",
              "type": "uint256"
            }
          ],
          "name": "createAlbum",
          "outputs": [],
          "stateMutability": "nonpayable",
          "type": "function"
        },
        {
          "inputs": [
            {
              "internalType": "uint256",
              "name": "albumId",
              "type": "uint256"
            },
            {
              "internalType": "uint256",
              "name": "imageId",
              "type": "uint256"
            }
          ],
          "name": "download",
          "outputs": [],
          "stateMutability": "payable",
          "type": "function"
        },
        {
          "inputs": [
            {
              "internalType": "uint256",
              "name": "albumId",
              "type": "uint256"
            }
          ],
          "name": "getAlbum",
          "outputs": [
            {
              "components": [
                {
                  "internalType": "uint256",
                  "name": "id",
                  "type": "uint256"
                },
                {
                  "internalType": "bool",
                  "name": "visibility",
                  "type": "bool"
                },
                {
                  "internalType": "uint256",
                  "name": "fee",
                  "type": "uint256"
                },
                {
                  "internalType": "address",
                  "name": "owner",
                  "type": "address"
                },
                {
                  "internalType": "string",
                  "name": "name",
                  "type": "string"
                },
                {
                  "internalType": "string",
                  "name": "description",
                  "type": "string"
                },
                {
                  "internalType": "string",
                  "name": "profileImage",
                  "type": "string"
                },
                {
                  "internalType": "uint256",
                  "name": "created",
                  "type": "uint256"
                },
                {
                  "internalType": "address[]",
                  "name": "participants",
                  "type": "address[]"
                },
                {
                  "internalType": "uint256",
                  "name": "totalNoOfImages",
                  "type": "uint256"
                }
              ],
              "internalType": "struct Trybe.Album",
              "name": "",
              "type": "tuple"
            }
          ],
          "stateMutability": "view",
          "type": "function"
        },
        {
          "inputs": [],
          "name": "getAlbums",
          "outputs": [
            {
              "components": [
                {
                  "internalType": "uint256",
                  "name": "id",
                  "type": "uint256"
                },
                {
                  "internalType": "bool",
                  "name": "visibility",
                  "type": "bool"
                },
                {
                  "internalType": "uint256",
                  "name": "fee",
                  "type": "uint256"
                },
                {
                  "internalType": "address",
                  "name": "owner",
                  "type": "address"
                },
                {
                  "internalType": "string",
                  "name": "name",
                  "type": "string"
                },
                {
                  "internalType": "string",
                  "name": "description",
                  "type": "string"
                },
                {
                  "internalType": "string",
                  "name": "profileImage",
                  "type": "string"
                },
                {
                  "internalType": "uint256",
                  "name": "created",
                  "type": "uint256"
                },
                {
                  "internalType": "address[]",
                  "name": "participants",
                  "type": "address[]"
                },
                {
                  "internalType": "uint256",
                  "name": "totalNoOfImages",
                  "type": "uint256"
                }
              ],
              "internalType": "struct Trybe.Album[]",
              "name": "",
              "type": "tuple[]"
            }
          ],
          "stateMutability": "view",
          "type": "function"
        },
        {
          "inputs": [
            {
              "internalType": "uint256",
              "name": "albumId",
              "type": "uint256"
            },
            {
              "internalType": "uint256",
              "name": "imageId",
              "type": "uint256"
            }
          ],
          "name": "getImageInAlbum",
          "outputs": [
            {
              "components": [
                {
                  "internalType": "uint256",
                  "name": "id",
                  "type": "uint256"
                },
                {
                  "internalType": "string",
                  "name": "url",
                  "type": "string"
                },
                {
                  "internalType": "string",
                  "name": "description",
                  "type": "string"
                },
                {
                  "internalType": "address",
                  "name": "owner",
                  "type": "address"
                },
                {
                  "internalType": "uint256",
                  "name": "created",
                  "type": "uint256"
                },
                {
                  "internalType": "uint256",
                  "name": "fee",
                  "type": "uint256"
                }
              ],
              "internalType": "struct Trybe.Image",
              "name": "",
              "type": "tuple"
            }
          ],
          "stateMutability": "view",
          "type": "function"
        },
        {
          "inputs": [],
          "name": "getImages",
          "outputs": [
            {
              "internalType": "string[]",
              "name": "",
              "type": "string[]"
            }
          ],
          "stateMutability": "view",
          "type": "function"
        },
        {
          "inputs": [
            {
              "internalType": "uint256",
              "name": "albumId",
              "type": "uint256"
            }
          ],
          "name": "getImagesInAlbum",
          "outputs": [
            {
              "components": [
                {
                  "internalType": "uint256",
                  "name": "id",
                  "type": "uint256"
                },
                {
                  "internalType": "string",
                  "name": "url",
                  "type": "string"
                },
                {
                  "internalType": "string",
                  "name": "description",
                  "type": "string"
                },
                {
                  "internalType": "address",
                  "name": "owner",
                  "type": "address"
                },
                {
                  "internalType": "uint256",
                  "name": "created",
                  "type": "uint256"
                },
                {
                  "internalType": "uint256",
                  "name": "fee",
                  "type": "uint256"
                }
              ],
              "internalType": "struct Trybe.Image[]",
              "name": "",
              "type": "tuple[]"
            }
          ],
          "stateMutability": "view",
          "type": "function"
        },
        {
          "inputs": [
            {
              "internalType": "uint256",
              "name": "albumId",
              "type": "uint256"
            }
          ],
          "name": "getListofParticipants",
          "outputs": [
            {
              "internalType": "address[]",
              "name": "",
              "type": "address[]"
            }
          ],
          "stateMutability": "view",
          "type": "function"
        },
        {
          "inputs": [
            {
              "internalType": "uint256",
              "name": "albumId",
              "type": "uint256"
            }
          ],
          "name": "joinAlbum",
          "outputs": [],
          "stateMutability": "payable",
          "type": "function"
        },
        {
          "inputs": [],
          "name": "owner",
          "outputs": [
            {
              "internalType": "address",
              "name": "",
              "type": "address"
            }
          ],
          "stateMutability": "view",
          "type": "function"
        },
        {
          "inputs": [],
          "name": "totalNoOfAlbumsCreated",
          "outputs": [
            {
              "internalType": "uint256",
              "name": "",
              "type": "uint256"
            }
          ],
          "stateMutability": "view",
          "type": "function"
        },
        {
          "inputs": [
            {
              "internalType": "string",
              "name": "url",
              "type": "string"
            }
          ],
          "name": "upload",
          "outputs": [],
          "stateMutability": "nonpayable",
          "type": "function"
        }
      ],
      "evm": {
        "bytecode": {
          "linkReferences": {},
          "object": "60803461006657601f611df038819003918201601f19168301916001600160401b0383118484101761006b578084926020946040528339810103126100665751600080546001600160a01b03191633178155600155600255604051611d6e90816100828239f35b600080fd5b634e487b7160e01b600052604160045260246000fdfe6080604052600436101561001257600080fd5b60003560e01c806311498334146111ef5780633b8f313b1461115957806342ce1488146110a057806345a1db6714610be75780635c51723414610a015780636d49f8cc146109e35780637446434b146107125780638d84d7fc146105a05780638da5cb5b14610577578063b027a7871461039e578063bce547201461025a578063ced038d11461011b5763d6e465c9146100ab57600080fd5b34610116576020366003190112610116576004356100c7611a2f565b508015158061010a575b6100da906115f8565b60005260046020526101066100f26040600020611a7f565b6040519182916020835260208301906113d7565b0390f35b506001548111156100d1565b600080fd5b346101165761012936611503565b90610132611caa565b508015158061024e575b610145906115f8565b81151580610233575b156101ee5760009060005b816000526004602052600860406000200180548210156101e2578161017d916116ea565b905460039190911b1c6001600160a01b0316331461019d57600101610159565b5090506101aa6001611c42565b60005260066020526040600020906000526020526101066101ce6040600020611cdd565b6040519182916020835260208301906114a9565b5050906101aa90611c42565b60405162461bcd60e51b815260206004820152601960248201527f5468697320696d61676520646f6573206e6f74206578697374000000000000006044820152606490fd5b5080600052600460205260096040600020015482111561014e565b5060015481111561013c565b61026336611503565b9080151580610392575b610276906115f8565b806000526004602052604060002090600660205260406000208360005260205260ff60016040600020930154168015610384575b1561033f577f1af01386275a45a15be18388f65d960ec0439847260e1f66a817d80e8e5b0adf926103326000808080604097600361031f8380808060646102f46002543490611866565b04966103008834611b57565b9601546001600160a01b03969087165af1610319611b64565b50611b94565b8254165af161032c611b64565b50611beb565b82519182526020820152a1005b60405162461bcd60e51b815260206004820152601e60248201527f546869732069732061207072697661746520616c62756d20696d6167652e00006044820152606490fd5b5060058201543410156102aa565b5060015481111561026d565b346101165760208060031936011261011657600435908115158061056b575b6103c6906115f8565b816000526004815260406000209060009160005b84600052600483526008604060002001805482101561055d57816103fd916116ea565b905460039190911b1c6001600160a01b0316331461041d576001016103da565b50600991925061042d6001611c42565b015491610439836113c0565b92610447604051948561133d565b808452610453816113c0565b601f190160005b81811061054157505060019160015b828111156104d35750505060405191808301818452845180915260408401918060408360051b8701019601926000905b8382106104a65786880387f35b909192939483806104c2839a603f198b820301865289516114a9565b999701959493919091019101610499565b8160009694965260068552604060002081600052855260406000209060001981019181831161052b576105239261050c61051d92611cdd565b6105168289611852565b5286611852565b50611843565b949294610469565b634e487b7160e01b600052601160045260246000fd5b849061054e969496611caa565b8282870101520194929461045a565b505061042d60099293611c42565b506001548211156103bd565b34610116576000366003190112610116576000546040516001600160a01b039091168152602090f35b60203660031901126101165760043580151580610706575b6105c1906115f8565b8060005260046020526040600020600191600182019060ff82541680156106f8575b156106b3576008906105f83360088601611b1c565b6000855b610665575b50505060ff919250541661063e575b6040514281527f59a4dadce245655ce4c5ea128f142c4034b1206deff52ff605866cd86433de8160203392a2005b600080808061065f94600361031f8380808060646102f46002543490611866565b80610610565b6003548110156106ae5781610679826118ad565b505414610688578501856105fc565b60ff9495506106a592915061069c906118ad565b50339101611b1c565b82918480610601565b610601565b60405162461bcd60e51b815260206004820152601860248201527f546869732069732061207072697661746520616c62756d2e00000000000000006044820152606490fd5b5060028301543410156105e3565b506001548111156105b8565b34610116576080366003190112610116576001600160401b0360043560243582811161011657610746903690600401611379565b916044359081116101165761075f903690600401611379565b90606435811515806109d7575b610775906115f8565b816000526020906004825260406000209360099460098101926107988454611843565b8455600080600884018054915b82811061099f575b5050501561093b5760005b60035481101561092e57866107cc826118ad565b5054146107db576001016107b8565b6107ec9097919293949596976118ad565b50016107f88154611843565b90555b60ff60018554930154166000146108dc57509060057f5138483d623eef75882d5ca6ed33e44c7ecafe842f3311844eabf67a297ce76c966040969594936000915b6108a289519561084b87611306565b8387528887019283528a87019081526108986060880193338552608089019542875260a08a019788528c60005260068c528d600020906000528b528c600020985189555160018901611774565b5160028701611774565b516003850180546001600160a01b0319166001600160a01b03929092169190911790555160048401555191015554835192835290820152a1005b670de0b6b3a76400009594939291959081810291818304149015171561052b577f5138483d623eef75882d5ca6ed33e44c7ecafe842f3311844eabf67a297ce76c966040966103e8600593049161083c565b50909192939495506107fb565b60405162461bcd60e51b815260048101869052603660248201527f4f6e6c792074686f73652077686f2068617665206a6f696e656420746865206160448201527536313ab69031b0b71030b2321030b71034b6b0b3b29760511b6064820152608490fd5b6109a981836116ea565b905460039190911b1c6001600160a01b031633146109c9576001016107a5565b5050505060018980806107ad565b5060015482111561076c565b34610116576000366003190112610116576020600154604051908152f35b346101165760003660031901126101165760008060038054925b838110610b7d5750610a45610a2f836113c0565b92610a3d604051948561133d565b8084526113c0565b60209390601f19018460005b828110610b6757505050906000916000905b808210610ac857604080518781528651818901819052600092600582901b8301810191898b01918b9085015b828710610a9c5785850386f35b909192938280610ab8600193603f198a820301865288516113d7565b9601920196019592919092610a8f565b90929460009492945b610ada856118ad565b50600880910154821015610b585781610afd91610af6886118ad565b50016116ea565b905490871b1c6001600160a01b03163314610b1a57600101610ad1565b5094610b4d600191610b38610b3287959698976118ad565b50611a7f565b610b428289611852565b5261051d8188611852565b915b01909291610a63565b50509490919392600190610b4f565b610b6f611a2f565b828288010152018590610a51565b909160005b610b8b836118ad565b50600880910154821015610bdb5781610ba791610af6866118ad565b905490851b1c6001600160a01b03163314610bc457600101610b82565b50610bd3600191939293611843565b925b01610a1b565b50509190600190610bd5565b346101165760c0366003190112610116576004356001600160401b03811161011657610c17903690600401611379565b6024356001600160401b03811161011657610c36903690600401611379565b90604435916001600160401b0383116101165736602384011215610116578260040135610c62816113c0565b93610c70604051958661133d565b8185526024602086019260051b8201019036821161011657602401915b818310611080575050506064356001600160401b03811161011657610cb6903690600401611379565b9160843515156084350361011657610ccf33151561169e565b80511561104657815115610fc557610ce8600154611843565b806001558451926001840180941161052b57610d1c610d06856113c0565b94610d14604051968761133d565b8086526113c0565b601f190136602086013760005b8651811015610d5a576001906001600160a01b03610d47828a611852565b5116610d538288611852565b5201610d29565b5083908587610d6b33915185611852565b528360005260046020526040600020938455610d98608435600186019060ff801983541691151516179055565b60843515610f9557610dd9610de29260005b60028701556003860180546001600160a01b03191633179055610dd08760048801611774565b60058601611774565b60068401611774565b4260078301558051906001600160401b038211610f6257602090610e098360088601611879565b0160088301600052602060002060005b838110610f78578585600981019060008255600354600160401b811015610f6257806001610e4a92016003556118ad565b929092610f4c57818303610e9f575b600154604080518181527fd3cc7c228a9442b3e32b7fb9e7ac4298594eeb118c36cbfbaf73feef8394627d91610e91908201886112c6565b9260208201528033930390a2005b610f40600883600994548655610ecb60ff600183015416600188019060ff801983541691151516179055565b600281015460028701556003860160018060a01b036003830154166bffffffffffffffffffffffff60a01b825416179055610f0c60048201600488016118e8565b610f1c60058201600588016118e8565b610f2c60068201600688016118e8565b6007810154600787015501600885016119c6565b54910155818080610e59565b634e487b7160e01b600052600060045260246000fd5b634e487b7160e01b600052604160045260246000fd5b82516001600160a01b031681830155602090920191600101610e19565b670de0b6b3a76400008060a435029060a43582041460a43515171561052b57610de2926103e8610dd99204610daa565b60405162461bcd60e51b815260206004820152604d60248201527f446573637269626520796f757220616c62756d20746f206c657420746865207760448201527f6f726c64206b6e6f7720686f7720796f752066656c74207768656e20796f752060648201526c31b932b0ba32b2103a3434b99760991b608482015260a490fd5b60405162461bcd60e51b8152602060048201526012602482015271283632b0b9b29030b2321030903730b6b29760711b6044820152606490fd5b82356001600160a01b038116810361011657815260209283019201610c8d565b34610116576020366003190112610116576004356001600160401b038111610116576110d0903690600401611379565b6110db33151561169e565b33600052600560205260406000208054600160401b811015610f6257611106916001820181556116ea565b610f4c578161111491611774565b7f34647a087c36357c4b77d3d7b4bc2b55d01c3ef8726dc75a70652d96e1510cc361114a604051926040845260408401906112c6565b914260208201528033930390a2005b346101165760208060031936011261011657600435801515806111e3575b611180906115f8565b600052600481526111976008604060002001611644565b906040519181839283018184528251809152816040850193019160005b8281106111c357505050500390f35b83516001600160a01b0316855286955093810193928101926001016111b4565b50600154811115611177565b34610116576000366003190112610116573360005260206005815260406000209081549161121c836113c0565b9261122a604051948561133d565b8084528284018092600052836000206000915b8383106112a45750505050604051918083019381845251809452604083019360408160051b85010192916000955b8287106112785785850386f35b909192938280611294600193603f198a820301865288516112c6565b960192019601959291909261126b565b60018681926112b5859a999a611553565b81520192019201919095949561123d565b919082519283825260005b8481106112f2575050826000602080949584010152601f8019910116010190565b6020818301810151848301820152016112d1565b60c081019081106001600160401b03821117610f6257604052565b61014081019081106001600160401b03821117610f6257604052565b90601f801991011681019081106001600160401b03821117610f6257604052565b6001600160401b038111610f6257601f01601f191660200190565b81601f82011215610116578035906113908261135e565b9261139e604051948561133d565b8284526020838301011161011657816000926020809301838601378301015290565b6001600160401b038111610f625760051b60200190565b906101409180518252602092838201511515848401526040820151604084015261144d61143b61142960608501519360018060a01b0380951660608801526080860151908060808901528701906112c6565b60a085015186820360a08801526112c6565b60c084015185820360c08701526112c6565b60e083015160e0850152610100948584015195858303908601528080875193848152019601926000905b8382106114905750505050506101208091015191015290565b8451811688529682019693820193600190910190611477565b908151815260a0806114df6114cd602086015160c0602087015260c08601906112c6565b604086015185820360408701526112c6565b93600180831b03606082015116606085015260808101516080850152015191015290565b6040906003190112610116576004359060243590565b90600182811c92168015611549575b602083101461153357565b634e487b7160e01b600052602260045260246000fd5b91607f1691611528565b9060405191826000825461156681611519565b908184526020946001916001811690816000146115d65750600114611597575b5050506115959250038361133d565b565b600090815285812095935091905b8183106115be5750506115959350820101388080611586565b855488840185015294850194879450918301916115a5565b9250505061159594925060ff191682840152151560051b820101388080611586565b156115ff57565b60405162461bcd60e51b815260206004820152601960248201527f5468697320616c62756d20646f6573206e6f74206578697374000000000000006044820152606490fd5b90604051918281549182825260209260208301916000526020600020936000905b82821061167b575050506115959250038361133d565b85546001600160a01b031684526001958601958895509381019390910190611665565b156116a557565b60405162461bcd60e51b815260206004820152601a60248201527f4e6f207a65726f2061646472657373657320616c6c6f7765642e0000000000006044820152606490fd5b80548210156117025760005260206000200190600090565b634e487b7160e01b600052603260045260246000fd5b818110611723575050565b60008155600101611718565b9190601f811161173e57505050565b611595926000526020600020906020601f840160051c8301931061176a575b601f0160051c0190611718565b909150819061175d565b91909182516001600160401b038111610f625761179b816117958454611519565b8461172f565b602080601f83116001146117de575081906117cf9394956000926117d3575b50508160011b916000199060031b1c19161790565b9055565b0151905038806117ba565b90601f19831695846000526020600020926000905b88821061182b57505083600195969710611812575b505050811b019055565b015160001960f88460031b161c19169055388080611808565b806001859682949686015181550195019301906117f3565b600019811461052b5760010190565b80518210156117025760209160051b010190565b8181029291811591840414171561052b57565b90600160401b8111610f625781549080835581811061189757505050565b6115959260005260206000209182019101611718565b60035481101561170257600a906003600052027fc2575a0e9e593c00f959f8c92f12db2869c3395a3b0502d05e2516446f71f85b0190600090565b908082146119c2576118fa8154611519565b906001600160401b038211610f625761191d826119178554611519565b8561172f565b600090601f8311600114611958576117cf92916000918361194d5750508160011b916000199060031b1c19161790565b0154905038806117ba565b815260208082208483528183209291601f1985169083905b8282106119a957505090846001959493921061199057505050811b019055565b015460001960f88460031b161c19169055388080611808565b8495819295850154815560018091019601940190611970565b5050565b8181146119c2578154916001600160401b038311610f62576119e88383611879565b60005260206000209060005260206000208154916000925b848410611a0e575050505050565b600191820180546001600160a01b0390921684860155939091019290611a00565b60405190611a3c82611321565b8161012060009182815282602082015282604082015282606082015260606080820152606060a0820152606060c08201528260e082015260606101008201520152565b90604051611a8c81611321565b82548152600183015460ff16151560208201526002830154604082015260038301546001600160a01b0316606082015291829061012090600990611ad260048201611553565b6080850152611ae360058201611553565b60a0850152611af460068201611553565b60c0850152600781015460e0850152611b0f60088201611644565b6101008501520154910152565b8054600160401b811015610f6257611b39916001820181556116ea565b60018060a09493941b038084549260031b9316831b921b1916179055565b9190820391821161052b57565b3d15611b8f573d90611b758261135e565b91611b83604051938461133d565b82523d6000602084013e565b606090565b15611b9b57565b60405162461bcd60e51b815260206004820152602260248201527f466565207061796d656e7420746f20616c62756d206f776e6572206661696c65604482015261321760f11b6064820152608490fd5b15611bf257565b60405162461bcd60e51b815260206004820152602260248201527f466565207061796d656e7420746f207472796265206f776e6572206661696c65604482015261321760f11b6064820152608490fd5b15611c4957565b60405162461bcd60e51b815260206004820152603360248201527f4f6e6c792074686f73652077686f2068617665206a6f696e656420746865206160448201527236313ab69039b2b2903a34329030b6313ab69760691b6064820152608490fd5b60405190611cb782611306565b600060a08382815260606020820152606060408201528260608201528260808201520152565b90604051611cea81611306565b60a06005829480548452611d0060018201611553565b6020850152611d1160028201611553565b6040850152600180841b03600382015416606085015260048101546080850152015491015256fea26469706673582212204e9d0422a8ebc6b0f9be09f889f9a868b1fcb55c4b6a731393c25f3ddd53c64e64736f6c63430008180033",
          "opcodes": "PUSH1 0x80 CALLVALUE PUSH2 0x66 JUMPI PUSH1 0x1F PUSH2 0x1DF0 CODESIZE DUP2 SWAP1 SUB SWAP2 DUP3 ADD PUSH1 0x1F NOT AND DUP4 ADD SWAP2 PUSH1 0x1 PUSH1 0x1 PUSH1 0x40 SHL SUB DUP4 GT DUP5 DUP5 LT OR PUSH2 0x6B JUMPI DUP1 DUP5 SWAP3 PUSH1 0x20 SWAP5 PUSH1 0x40 MSTORE DUP4 CODECOPY DUP2 ADD SUB SLT PUSH2 0x66 JUMPI MLOAD PUSH1 0x0 DUP1 SLOAD PUSH1 0x1 PUSH1 0x1 PUSH1 0xA0 SHL SUB NOT AND CALLER OR DUP2 SSTORE PUSH1 0x1 SSTORE PUSH1 0x2 SSTORE PUSH1 0x40 MLOAD PUSH2 0x1D6E SWAP1 DUP2 PUSH2 0x82 DUP3 CODECOPY RETURN JUMPDEST PUSH1 0x0 DUP1 REVERT JUMPDEST PUSH4 0x4E487B71 PUSH1 0xE0 SHL PUSH1 0x0 MSTORE PUSH1 0x41 PUSH1 0x4 MSTORE PUSH1 0x24 PUSH1 0x0 REVERT INVALID PUSH1 0x80 PUSH1 0x40 MSTORE PUSH1 0x4 CALLDATASIZE LT ISZERO PUSH2 0x12 JUMPI PUSH1 0x0 DUP1 REVERT JUMPDEST PUSH1 0x0 CALLDATALOAD PUSH1 0xE0 SHR DUP1 PUSH4 0x11498334 EQ PUSH2 0x11EF JUMPI DUP1 PUSH4 0x3B8F313B EQ PUSH2 0x1159 JUMPI DUP1 PUSH4 0x42CE1488 EQ PUSH2 0x10A0 JUMPI DUP1 PUSH4 0x45A1DB67 EQ PUSH2 0xBE7 JUMPI DUP1 PUSH4 0x5C517234 EQ PUSH2 0xA01 JUMPI DUP1 PUSH4 0x6D49F8CC EQ PUSH2 0x9E3 JUMPI DUP1 PUSH4 0x7446434B EQ PUSH2 0x712 JUMPI DUP1 PUSH4 0x8D84D7FC EQ PUSH2 0x5A0 JUMPI DUP1 PUSH4 0x8DA5CB5B EQ PUSH2 0x577 JUMPI DUP1 PUSH4 0xB027A787 EQ PUSH2 0x39E JUMPI DUP1 PUSH4 0xBCE54720 EQ PUSH2 0x25A JUMPI DUP1 PUSH4 0xCED038D1 EQ PUSH2 0x11B JUMPI PUSH4 0xD6E465C9 EQ PUSH2 0xAB JUMPI PUSH1 0x0 DUP1 REVERT JUMPDEST CALLVALUE PUSH2 0x116 JUMPI PUSH1 0x20 CALLDATASIZE PUSH1 0x3 NOT ADD SLT PUSH2 0x116 JUMPI PUSH1 0x4 CALLDATALOAD PUSH2 0xC7 PUSH2 0x1A2F JUMP JUMPDEST POP DUP1 ISZERO ISZERO DUP1 PUSH2 0x10A JUMPI JUMPDEST PUSH2 0xDA SWAP1 PUSH2 0x15F8 JUMP JUMPDEST PUSH1 0x0 MSTORE PUSH1 0x4 PUSH1 0x20 MSTORE PUSH2 0x106 PUSH2 0xF2 PUSH1 0x40 PUSH1 0x0 KECCAK256 PUSH2 0x1A7F JUMP JUMPDEST PUSH1 0x40 MLOAD SWAP2 DUP3 SWAP2 PUSH1 0x20 DUP4 MSTORE PUSH1 0x20 DUP4 ADD SWAP1 PUSH2 0x13D7 JUMP JUMPDEST SUB SWAP1 RETURN JUMPDEST POP PUSH1 0x1 SLOAD DUP2 GT ISZERO PUSH2 0xD1 JUMP JUMPDEST PUSH1 0x0 DUP1 REVERT JUMPDEST CALLVALUE PUSH2 0x116 JUMPI PUSH2 0x129 CALLDATASIZE PUSH2 0x1503 JUMP JUMPDEST SWAP1 PUSH2 0x132 PUSH2 0x1CAA JUMP JUMPDEST POP DUP1 ISZERO ISZERO DUP1 PUSH2 0x24E JUMPI JUMPDEST PUSH2 0x145 SWAP1 PUSH2 0x15F8 JUMP JUMPDEST DUP2 ISZERO ISZERO DUP1 PUSH2 0x233 JUMPI JUMPDEST ISZERO PUSH2 0x1EE JUMPI PUSH1 0x0 SWAP1 PUSH1 0x0 JUMPDEST DUP2 PUSH1 0x0 MSTORE PUSH1 0x4 PUSH1 0x20 MSTORE PUSH1 0x8 PUSH1 0x40 PUSH1 0x0 KECCAK256 ADD DUP1 SLOAD DUP3 LT ISZERO PUSH2 0x1E2 JUMPI DUP2 PUSH2 0x17D SWAP2 PUSH2 0x16EA JUMP JUMPDEST SWAP1 SLOAD PUSH1 0x3 SWAP2 SWAP1 SWAP2 SHL SHR PUSH1 0x1 PUSH1 0x1 PUSH1 0xA0 SHL SUB AND CALLER EQ PUSH2 0x19D JUMPI PUSH1 0x1 ADD PUSH2 0x159 JUMP JUMPDEST POP SWAP1 POP PUSH2 0x1AA PUSH1 0x1 PUSH2 0x1C42 JUMP JUMPDEST PUSH1 0x0 MSTORE PUSH1 0x6 PUSH1 0x20 MSTORE PUSH1 0x40 PUSH1 0x0 KECCAK256 SWAP1 PUSH1 0x0 MSTORE PUSH1 0x20 MSTORE PUSH2 0x106 PUSH2 0x1CE PUSH1 0x40 PUSH1 0x0 KECCAK256 PUSH2 0x1CDD JUMP JUMPDEST PUSH1 0x40 MLOAD SWAP2 DUP3 SWAP2 PUSH1 0x20 DUP4 MSTORE PUSH1 0x20 DUP4 ADD SWAP1 PUSH2 0x14A9 JUMP JUMPDEST POP POP SWAP1 PUSH2 0x1AA SWAP1 PUSH2 0x1C42 JUMP JUMPDEST PUSH1 0x40 MLOAD PUSH3 0x461BCD PUSH1 0xE5 SHL DUP2 MSTORE PUSH1 0x20 PUSH1 0x4 DUP3 ADD MSTORE PUSH1 0x19 PUSH1 0x24 DUP3 ADD MSTORE PUSH32 0x5468697320696D61676520646F6573206E6F7420657869737400000000000000 PUSH1 0x44 DUP3 ADD MSTORE PUSH1 0x64 SWAP1 REVERT JUMPDEST POP DUP1 PUSH1 0x0 MSTORE PUSH1 0x4 PUSH1 0x20 MSTORE PUSH1 0x9 PUSH1 0x40 PUSH1 0x0 KECCAK256 ADD SLOAD DUP3 GT ISZERO PUSH2 0x14E JUMP JUMPDEST POP PUSH1 0x1 SLOAD DUP2 GT ISZERO PUSH2 0x13C JUMP JUMPDEST PUSH2 0x263 CALLDATASIZE PUSH2 0x1503 JUMP JUMPDEST SWAP1 DUP1 ISZERO ISZERO DUP1 PUSH2 0x392 JUMPI JUMPDEST PUSH2 0x276 SWAP1 PUSH2 0x15F8 JUMP JUMPDEST DUP1 PUSH1 0x0 MSTORE PUSH1 0x4 PUSH1 0x20 MSTORE PUSH1 0x40 PUSH1 0x0 KECCAK256 SWAP1 PUSH1 0x6 PUSH1 0x20 MSTORE PUSH1 0x40 PUSH1 0x0 KECCAK256 DUP4 PUSH1 0x0 MSTORE PUSH1 0x20 MSTORE PUSH1 0xFF PUSH1 0x1 PUSH1 0x40 PUSH1 0x0 KECCAK256 SWAP4 ADD SLOAD AND DUP1 ISZERO PUSH2 0x384 JUMPI JUMPDEST ISZERO PUSH2 0x33F JUMPI PUSH32 0x1AF01386275A45A15BE18388F65D960EC0439847260E1F66A817D80E8E5B0ADF SWAP3 PUSH2 0x332 PUSH1 0x0 DUP1 DUP1 DUP1 PUSH1 0x40 SWAP8 PUSH1 0x3 PUSH2 0x31F DUP4 DUP1 DUP1 DUP1 PUSH1 0x64 PUSH2 0x2F4 PUSH1 0x2 SLOAD CALLVALUE SWAP1 PUSH2 0x1866 JUMP JUMPDEST DIV SWAP7 PUSH2 0x300 DUP9 CALLVALUE PUSH2 0x1B57 JUMP JUMPDEST SWAP7 ADD SLOAD PUSH1 0x1 PUSH1 0x1 PUSH1 0xA0 SHL SUB SWAP7 SWAP1 DUP8 AND GAS CALL PUSH2 0x319 PUSH2 0x1B64 JUMP JUMPDEST POP PUSH2 0x1B94 JUMP JUMPDEST DUP3 SLOAD AND GAS CALL PUSH2 0x32C PUSH2 0x1B64 JUMP JUMPDEST POP PUSH2 0x1BEB JUMP JUMPDEST DUP3 MLOAD SWAP2 DUP3 MSTORE PUSH1 0x20 DUP3 ADD MSTORE LOG1 STOP JUMPDEST PUSH1 0x40 MLOAD PUSH3 0x461BCD PUSH1 0xE5 SHL DUP2 MSTORE PUSH1 0x20 PUSH1 0x4 DUP3 ADD MSTORE PUSH1 0x1E PUSH1 0x24 DUP3 ADD MSTORE PUSH32 0x546869732069732061207072697661746520616C62756D20696D6167652E0000 PUSH1 0x44 DUP3 ADD MSTORE PUSH1 0x64 SWAP1 REVERT JUMPDEST POP PUSH1 0x5 DUP3 ADD SLOAD CALLVALUE LT ISZERO PUSH2 0x2AA JUMP JUMPDEST POP PUSH1 0x1 SLOAD DUP2 GT ISZERO PUSH2 0x26D JUMP JUMPDEST CALLVALUE PUSH2 0x116 JUMPI PUSH1 0x20 DUP1 PUSH1 0x3 NOT CALLDATASIZE ADD SLT PUSH2 0x116 JUMPI PUSH1 0x4 CALLDATALOAD SWAP1 DUP2 ISZERO ISZERO DUP1 PUSH2 0x56B JUMPI JUMPDEST PUSH2 0x3C6 SWAP1 PUSH2 0x15F8 JUMP JUMPDEST DUP2 PUSH1 0x0 MSTORE PUSH1 0x4 DUP2 MSTORE PUSH1 0x40 PUSH1 0x0 KECCAK256 SWAP1 PUSH1 0x0 SWAP2 PUSH1 0x0 JUMPDEST DUP5 PUSH1 0x0 MSTORE PUSH1 0x4 DUP4 MSTORE PUSH1 0x8 PUSH1 0x40 PUSH1 0x0 KECCAK256 ADD DUP1 SLOAD DUP3 LT ISZERO PUSH2 0x55D JUMPI DUP2 PUSH2 0x3FD SWAP2 PUSH2 0x16EA JUMP JUMPDEST SWAP1 SLOAD PUSH1 0x3 SWAP2 SWAP1 SWAP2 SHL SHR PUSH1 0x1 PUSH1 0x1 PUSH1 0xA0 SHL SUB AND CALLER EQ PUSH2 0x41D JUMPI PUSH1 0x1 ADD PUSH2 0x3DA JUMP JUMPDEST POP PUSH1 0x9 SWAP2 SWAP3 POP PUSH2 0x42D PUSH1 0x1 PUSH2 0x1C42 JUMP JUMPDEST ADD SLOAD SWAP2 PUSH2 0x439 DUP4 PUSH2 0x13C0 JUMP JUMPDEST SWAP3 PUSH2 0x447 PUSH1 0x40 MLOAD SWAP5 DUP6 PUSH2 0x133D JUMP JUMPDEST DUP1 DUP5 MSTORE PUSH2 0x453 DUP2 PUSH2 0x13C0 JUMP JUMPDEST PUSH1 0x1F NOT ADD PUSH1 0x0 JUMPDEST DUP2 DUP2 LT PUSH2 0x541 JUMPI POP POP PUSH1 0x1 SWAP2 PUSH1 0x1 JUMPDEST DUP3 DUP2 GT ISZERO PUSH2 0x4D3 JUMPI POP POP POP PUSH1 0x40 MLOAD SWAP2 DUP1 DUP4 ADD DUP2 DUP5 MSTORE DUP5 MLOAD DUP1 SWAP2 MSTORE PUSH1 0x40 DUP5 ADD SWAP2 DUP1 PUSH1 0x40 DUP4 PUSH1 0x5 SHL DUP8 ADD ADD SWAP7 ADD SWAP3 PUSH1 0x0 SWAP1 JUMPDEST DUP4 DUP3 LT PUSH2 0x4A6 JUMPI DUP7 DUP9 SUB DUP8 RETURN JUMPDEST SWAP1 SWAP2 SWAP3 SWAP4 SWAP5 DUP4 DUP1 PUSH2 0x4C2 DUP4 SWAP11 PUSH1 0x3F NOT DUP12 DUP3 SUB ADD DUP7 MSTORE DUP10 MLOAD PUSH2 0x14A9 JUMP JUMPDEST SWAP10 SWAP8 ADD SWAP6 SWAP5 SWAP4 SWAP2 SWAP1 SWAP2 ADD SWAP2 ADD PUSH2 0x499 JUMP JUMPDEST DUP2 PUSH1 0x0 SWAP7 SWAP5 SWAP7 MSTORE PUSH1 0x6 DUP6 MSTORE PUSH1 0x40 PUSH1 0x0 KECCAK256 DUP2 PUSH1 0x0 MSTORE DUP6 MSTORE PUSH1 0x40 PUSH1 0x0 KECCAK256 SWAP1 PUSH1 0x0 NOT DUP2 ADD SWAP2 DUP2 DUP4 GT PUSH2 0x52B JUMPI PUSH2 0x523 SWAP3 PUSH2 0x50C PUSH2 0x51D SWAP3 PUSH2 0x1CDD JUMP JUMPDEST PUSH2 0x516 DUP3 DUP10 PUSH2 0x1852 JUMP JUMPDEST MSTORE DUP7 PUSH2 0x1852 JUMP JUMPDEST POP PUSH2 0x1843 JUMP JUMPDEST SWAP5 SWAP3 SWAP5 PUSH2 0x469 JUMP JUMPDEST PUSH4 0x4E487B71 PUSH1 0xE0 SHL PUSH1 0x0 MSTORE PUSH1 0x11 PUSH1 0x4 MSTORE PUSH1 0x24 PUSH1 0x0 REVERT JUMPDEST DUP5 SWAP1 PUSH2 0x54E SWAP7 SWAP5 SWAP7 PUSH2 0x1CAA JUMP JUMPDEST DUP3 DUP3 DUP8 ADD ADD MSTORE ADD SWAP5 SWAP3 SWAP5 PUSH2 0x45A JUMP JUMPDEST POP POP PUSH2 0x42D PUSH1 0x9 SWAP3 SWAP4 PUSH2 0x1C42 JUMP JUMPDEST POP PUSH1 0x1 SLOAD DUP3 GT ISZERO PUSH2 0x3BD JUMP JUMPDEST CALLVALUE PUSH2 0x116 JUMPI PUSH1 0x0 CALLDATASIZE PUSH1 0x3 NOT ADD SLT PUSH2 0x116 JUMPI PUSH1 0x0 SLOAD PUSH1 0x40 MLOAD PUSH1 0x1 PUSH1 0x1 PUSH1 0xA0 SHL SUB SWAP1 SWAP2 AND DUP2 MSTORE PUSH1 0x20 SWAP1 RETURN JUMPDEST PUSH1 0x20 CALLDATASIZE PUSH1 0x3 NOT ADD SLT PUSH2 0x116 JUMPI PUSH1 0x4 CALLDATALOAD DUP1 ISZERO ISZERO DUP1 PUSH2 0x706 JUMPI JUMPDEST PUSH2 0x5C1 SWAP1 PUSH2 0x15F8 JUMP JUMPDEST DUP1 PUSH1 0x0 MSTORE PUSH1 0x4 PUSH1 0x20 MSTORE PUSH1 0x40 PUSH1 0x0 KECCAK256 PUSH1 0x1 SWAP2 PUSH1 0x1 DUP3 ADD SWAP1 PUSH1 0xFF DUP3 SLOAD AND DUP1 ISZERO PUSH2 0x6F8 JUMPI JUMPDEST ISZERO PUSH2 0x6B3 JUMPI PUSH1 0x8 SWAP1 PUSH2 0x5F8 CALLER PUSH1 0x8 DUP7 ADD PUSH2 0x1B1C JUMP JUMPDEST PUSH1 0x0 DUP6 JUMPDEST PUSH2 0x665 JUMPI JUMPDEST POP POP POP PUSH1 0xFF SWAP2 SWAP3 POP SLOAD AND PUSH2 0x63E JUMPI JUMPDEST PUSH1 0x40 MLOAD TIMESTAMP DUP2 MSTORE PUSH32 0x59A4DADCE245655CE4C5EA128F142C4034B1206DEFF52FF605866CD86433DE81 PUSH1 0x20 CALLER SWAP3 LOG2 STOP JUMPDEST PUSH1 0x0 DUP1 DUP1 DUP1 PUSH2 0x65F SWAP5 PUSH1 0x3 PUSH2 0x31F DUP4 DUP1 DUP1 DUP1 PUSH1 0x64 PUSH2 0x2F4 PUSH1 0x2 SLOAD CALLVALUE SWAP1 PUSH2 0x1866 JUMP JUMPDEST DUP1 PUSH2 0x610 JUMP JUMPDEST PUSH1 0x3 SLOAD DUP2 LT ISZERO PUSH2 0x6AE JUMPI DUP2 PUSH2 0x679 DUP3 PUSH2 0x18AD JUMP JUMPDEST POP SLOAD EQ PUSH2 0x688 JUMPI DUP6 ADD DUP6 PUSH2 0x5FC JUMP JUMPDEST PUSH1 0xFF SWAP5 SWAP6 POP PUSH2 0x6A5 SWAP3 SWAP2 POP PUSH2 0x69C SWAP1 PUSH2 0x18AD JUMP JUMPDEST POP CALLER SWAP2 ADD PUSH2 0x1B1C JUMP JUMPDEST DUP3 SWAP2 DUP5 DUP1 PUSH2 0x601 JUMP JUMPDEST PUSH2 0x601 JUMP JUMPDEST PUSH1 0x40 MLOAD PUSH3 0x461BCD PUSH1 0xE5 SHL DUP2 MSTORE PUSH1 0x20 PUSH1 0x4 DUP3 ADD MSTORE PUSH1 0x18 PUSH1 0x24 DUP3 ADD MSTORE PUSH32 0x546869732069732061207072697661746520616C62756D2E0000000000000000 PUSH1 0x44 DUP3 ADD MSTORE PUSH1 0x64 SWAP1 REVERT JUMPDEST POP PUSH1 0x2 DUP4 ADD SLOAD CALLVALUE LT ISZERO PUSH2 0x5E3 JUMP JUMPDEST POP PUSH1 0x1 SLOAD DUP2 GT ISZERO PUSH2 0x5B8 JUMP JUMPDEST CALLVALUE PUSH2 0x116 JUMPI PUSH1 0x80 CALLDATASIZE PUSH1 0x3 NOT ADD SLT PUSH2 0x116 JUMPI PUSH1 0x1 PUSH1 0x1 PUSH1 0x40 SHL SUB PUSH1 0x4 CALLDATALOAD PUSH1 0x24 CALLDATALOAD DUP3 DUP2 GT PUSH2 0x116 JUMPI PUSH2 0x746 SWAP1 CALLDATASIZE SWAP1 PUSH1 0x4 ADD PUSH2 0x1379 JUMP JUMPDEST SWAP2 PUSH1 0x44 CALLDATALOAD SWAP1 DUP2 GT PUSH2 0x116 JUMPI PUSH2 0x75F SWAP1 CALLDATASIZE SWAP1 PUSH1 0x4 ADD PUSH2 0x1379 JUMP JUMPDEST SWAP1 PUSH1 0x64 CALLDATALOAD DUP2 ISZERO ISZERO DUP1 PUSH2 0x9D7 JUMPI JUMPDEST PUSH2 0x775 SWAP1 PUSH2 0x15F8 JUMP JUMPDEST DUP2 PUSH1 0x0 MSTORE PUSH1 0x20 SWAP1 PUSH1 0x4 DUP3 MSTORE PUSH1 0x40 PUSH1 0x0 KECCAK256 SWAP4 PUSH1 0x9 SWAP5 PUSH1 0x9 DUP2 ADD SWAP3 PUSH2 0x798 DUP5 SLOAD PUSH2 0x1843 JUMP JUMPDEST DUP5 SSTORE PUSH1 0x0 DUP1 PUSH1 0x8 DUP5 ADD DUP1 SLOAD SWAP2 JUMPDEST DUP3 DUP2 LT PUSH2 0x99F JUMPI JUMPDEST POP POP POP ISZERO PUSH2 0x93B JUMPI PUSH1 0x0 JUMPDEST PUSH1 0x3 SLOAD DUP2 LT ISZERO PUSH2 0x92E JUMPI DUP7 PUSH2 0x7CC DUP3 PUSH2 0x18AD JUMP JUMPDEST POP SLOAD EQ PUSH2 0x7DB JUMPI PUSH1 0x1 ADD PUSH2 0x7B8 JUMP JUMPDEST PUSH2 0x7EC SWAP1 SWAP8 SWAP2 SWAP3 SWAP4 SWAP5 SWAP6 SWAP7 SWAP8 PUSH2 0x18AD JUMP JUMPDEST POP ADD PUSH2 0x7F8 DUP2 SLOAD PUSH2 0x1843 JUMP JUMPDEST SWAP1 SSTORE JUMPDEST PUSH1 0xFF PUSH1 0x1 DUP6 SLOAD SWAP4 ADD SLOAD AND PUSH1 0x0 EQ PUSH2 0x8DC JUMPI POP SWAP1 PUSH1 0x5 PUSH32 0x5138483D623EEF75882D5CA6ED33E44C7ECAFE842F3311844EABF67A297CE76C SWAP7 PUSH1 0x40 SWAP7 SWAP6 SWAP5 SWAP4 PUSH1 0x0 SWAP2 JUMPDEST PUSH2 0x8A2 DUP10 MLOAD SWAP6 PUSH2 0x84B DUP8 PUSH2 0x1306 JUMP JUMPDEST DUP4 DUP8 MSTORE DUP9 DUP8 ADD SWAP3 DUP4 MSTORE DUP11 DUP8 ADD SWAP1 DUP2 MSTORE PUSH2 0x898 PUSH1 0x60 DUP9 ADD SWAP4 CALLER DUP6 MSTORE PUSH1 0x80 DUP10 ADD SWAP6 TIMESTAMP DUP8 MSTORE PUSH1 0xA0 DUP11 ADD SWAP8 DUP9 MSTORE DUP13 PUSH1 0x0 MSTORE PUSH1 0x6 DUP13 MSTORE DUP14 PUSH1 0x0 KECCAK256 SWAP1 PUSH1 0x0 MSTORE DUP12 MSTORE DUP13 PUSH1 0x0 KECCAK256 SWAP9 MLOAD DUP10 SSTORE MLOAD PUSH1 0x1 DUP10 ADD PUSH2 0x1774 JUMP JUMPDEST MLOAD PUSH1 0x2 DUP8 ADD PUSH2 0x1774 JUMP JUMPDEST MLOAD PUSH1 0x3 DUP6 ADD DUP1 SLOAD PUSH1 0x1 PUSH1 0x1 PUSH1 0xA0 SHL SUB NOT AND PUSH1 0x1 PUSH1 0x1 PUSH1 0xA0 SHL SUB SWAP3 SWAP1 SWAP3 AND SWAP2 SWAP1 SWAP2 OR SWAP1 SSTORE MLOAD PUSH1 0x4 DUP5 ADD SSTORE MLOAD SWAP2 ADD SSTORE SLOAD DUP4 MLOAD SWAP3 DUP4 MSTORE SWAP1 DUP3 ADD MSTORE LOG1 STOP JUMPDEST PUSH8 0xDE0B6B3A7640000 SWAP6 SWAP5 SWAP4 SWAP3 SWAP2 SWAP6 SWAP1 DUP2 DUP2 MUL SWAP2 DUP2 DUP4 DIV EQ SWAP1 ISZERO OR ISZERO PUSH2 0x52B JUMPI PUSH32 0x5138483D623EEF75882D5CA6ED33E44C7ECAFE842F3311844EABF67A297CE76C SWAP7 PUSH1 0x40 SWAP7 PUSH2 0x3E8 PUSH1 0x5 SWAP4 DIV SWAP2 PUSH2 0x83C JUMP JUMPDEST POP SWAP1 SWAP2 SWAP3 SWAP4 SWAP5 SWAP6 POP PUSH2 0x7FB JUMP JUMPDEST PUSH1 0x40 MLOAD PUSH3 0x461BCD PUSH1 0xE5 SHL DUP2 MSTORE PUSH1 0x4 DUP2 ADD DUP7 SWAP1 MSTORE PUSH1 0x36 PUSH1 0x24 DUP3 ADD MSTORE PUSH32 0x4F6E6C792074686F73652077686F2068617665206A6F696E6564207468652061 PUSH1 0x44 DUP3 ADD MSTORE PUSH22 0x36313AB69031B0B71030B2321030B71034B6B0B3B297 PUSH1 0x51 SHL PUSH1 0x64 DUP3 ADD MSTORE PUSH1 0x84 SWAP1 REVERT JUMPDEST PUSH2 0x9A9 DUP2 DUP4 PUSH2 0x16EA JUMP JUMPDEST SWAP1 SLOAD PUSH1 0x3 SWAP2 SWAP1 SWAP2 SHL SHR PUSH1 0x1 PUSH1 0x1 PUSH1 0xA0 SHL SUB AND CALLER EQ PUSH2 0x9C9 JUMPI PUSH1 0x1 ADD PUSH2 0x7A5 JUMP JUMPDEST POP POP POP POP PUSH1 0x1 DUP10 DUP1 DUP1 PUSH2 0x7AD JUMP JUMPDEST POP PUSH1 0x1 SLOAD DUP3 GT ISZERO PUSH2 0x76C JUMP JUMPDEST CALLVALUE PUSH2 0x116 JUMPI PUSH1 0x0 CALLDATASIZE PUSH1 0x3 NOT ADD SLT PUSH2 0x116 JUMPI PUSH1 0x20 PUSH1 0x1 SLOAD PUSH1 0x40 MLOAD SWAP1 DUP2 MSTORE RETURN JUMPDEST CALLVALUE PUSH2 0x116 JUMPI PUSH1 0x0 CALLDATASIZE PUSH1 0x3 NOT ADD SLT PUSH2 0x116 JUMPI PUSH1 0x0 DUP1 PUSH1 0x3 DUP1 SLOAD SWAP3 JUMPDEST DUP4 DUP2 LT PUSH2 0xB7D JUMPI POP PUSH2 0xA45 PUSH2 0xA2F DUP4 PUSH2 0x13C0 JUMP JUMPDEST SWAP3 PUSH2 0xA3D PUSH1 0x40 MLOAD SWAP5 DUP6 PUSH2 0x133D JUMP JUMPDEST DUP1 DUP5 MSTORE PUSH2 0x13C0 JUMP JUMPDEST PUSH1 0x20 SWAP4 SWAP1 PUSH1 0x1F NOT ADD DUP5 PUSH1 0x0 JUMPDEST DUP3 DUP2 LT PUSH2 0xB67 JUMPI POP POP POP SWAP1 PUSH1 0x0 SWAP2 PUSH1 0x0 SWAP1 JUMPDEST DUP1 DUP3 LT PUSH2 0xAC8 JUMPI PUSH1 0x40 DUP1 MLOAD DUP8 DUP2 MSTORE DUP7 MLOAD DUP2 DUP10 ADD DUP2 SWAP1 MSTORE PUSH1 0x0 SWAP3 PUSH1 0x5 DUP3 SWAP1 SHL DUP4 ADD DUP2 ADD SWAP2 DUP10 DUP12 ADD SWAP2 DUP12 SWAP1 DUP6 ADD JUMPDEST DUP3 DUP8 LT PUSH2 0xA9C JUMPI DUP6 DUP6 SUB DUP7 RETURN JUMPDEST SWAP1 SWAP2 SWAP3 SWAP4 DUP3 DUP1 PUSH2 0xAB8 PUSH1 0x1 SWAP4 PUSH1 0x3F NOT DUP11 DUP3 SUB ADD DUP7 MSTORE DUP9 MLOAD PUSH2 0x13D7 JUMP JUMPDEST SWAP7 ADD SWAP3 ADD SWAP7 ADD SWAP6 SWAP3 SWAP2 SWAP1 SWAP3 PUSH2 0xA8F JUMP JUMPDEST SWAP1 SWAP3 SWAP5 PUSH1 0x0 SWAP5 SWAP3 SWAP5 JUMPDEST PUSH2 0xADA DUP6 PUSH2 0x18AD JUMP JUMPDEST POP PUSH1 0x8 DUP1 SWAP2 ADD SLOAD DUP3 LT ISZERO PUSH2 0xB58 JUMPI DUP2 PUSH2 0xAFD SWAP2 PUSH2 0xAF6 DUP9 PUSH2 0x18AD JUMP JUMPDEST POP ADD PUSH2 0x16EA JUMP JUMPDEST SWAP1 SLOAD SWAP1 DUP8 SHL SHR PUSH1 0x1 PUSH1 0x1 PUSH1 0xA0 SHL SUB AND CALLER EQ PUSH2 0xB1A JUMPI PUSH1 0x1 ADD PUSH2 0xAD1 JUMP JUMPDEST POP SWAP5 PUSH2 0xB4D PUSH1 0x1 SWAP2 PUSH2 0xB38 PUSH2 0xB32 DUP8 SWAP6 SWAP7 SWAP9 SWAP8 PUSH2 0x18AD JUMP JUMPDEST POP PUSH2 0x1A7F JUMP JUMPDEST PUSH2 0xB42 DUP3 DUP10 PUSH2 0x1852 JUMP JUMPDEST MSTORE PUSH2 0x51D DUP2 DUP9 PUSH2 0x1852 JUMP JUMPDEST SWAP2 JUMPDEST ADD SWAP1 SWAP3 SWAP2 PUSH2 0xA63 JUMP JUMPDEST POP POP SWAP5 SWAP1 SWAP2 SWAP4 SWAP3 PUSH1 0x1 SWAP1 PUSH2 0xB4F JUMP JUMPDEST PUSH2 0xB6F PUSH2 0x1A2F JUMP JUMPDEST DUP3 DUP3 DUP9 ADD ADD MSTORE ADD DUP6 SWAP1 PUSH2 0xA51 JUMP JUMPDEST SWAP1 SWAP2 PUSH1 0x0 JUMPDEST PUSH2 0xB8B DUP4 PUSH2 0x18AD JUMP JUMPDEST POP PUSH1 0x8 DUP1 SWAP2 ADD SLOAD DUP3 LT ISZERO PUSH2 0xBDB JUMPI DUP2 PUSH2 0xBA7 SWAP2 PUSH2 0xAF6 DUP7 PUSH2 0x18AD JUMP JUMPDEST SWAP1 SLOAD SWAP1 DUP6 SHL SHR PUSH1 0x1 PUSH1 0x1 PUSH1 0xA0 SHL SUB AND CALLER EQ PUSH2 0xBC4 JUMPI PUSH1 0x1 ADD PUSH2 0xB82 JUMP JUMPDEST POP PUSH2 0xBD3 PUSH1 0x1 SWAP2 SWAP4 SWAP3 SWAP4 PUSH2 0x1843 JUMP JUMPDEST SWAP3 JUMPDEST ADD PUSH2 0xA1B JUMP JUMPDEST POP POP SWAP2 SWAP1 PUSH1 0x1 SWAP1 PUSH2 0xBD5 JUMP JUMPDEST CALLVALUE PUSH2 0x116 JUMPI PUSH1 0xC0 CALLDATASIZE PUSH1 0x3 NOT ADD SLT PUSH2 0x116 JUMPI PUSH1 0x4 CALLDATALOAD PUSH1 0x1 PUSH1 0x1 PUSH1 0x40 SHL SUB DUP2 GT PUSH2 0x116 JUMPI PUSH2 0xC17 SWAP1 CALLDATASIZE SWAP1 PUSH1 0x4 ADD PUSH2 0x1379 JUMP JUMPDEST PUSH1 0x24 CALLDATALOAD PUSH1 0x1 PUSH1 0x1 PUSH1 0x40 SHL SUB DUP2 GT PUSH2 0x116 JUMPI PUSH2 0xC36 SWAP1 CALLDATASIZE SWAP1 PUSH1 0x4 ADD PUSH2 0x1379 JUMP JUMPDEST SWAP1 PUSH1 0x44 CALLDATALOAD SWAP2 PUSH1 0x1 PUSH1 0x1 PUSH1 0x40 SHL SUB DUP4 GT PUSH2 0x116 JUMPI CALLDATASIZE PUSH1 0x23 DUP5 ADD SLT ISZERO PUSH2 0x116 JUMPI DUP3 PUSH1 0x4 ADD CALLDATALOAD PUSH2 0xC62 DUP2 PUSH2 0x13C0 JUMP JUMPDEST SWAP4 PUSH2 0xC70 PUSH1 0x40 MLOAD SWAP6 DUP7 PUSH2 0x133D JUMP JUMPDEST DUP2 DUP6 MSTORE PUSH1 0x24 PUSH1 0x20 DUP7 ADD SWAP3 PUSH1 0x5 SHL DUP3 ADD ADD SWAP1 CALLDATASIZE DUP3 GT PUSH2 0x116 JUMPI PUSH1 0x24 ADD SWAP2 JUMPDEST DUP2 DUP4 LT PUSH2 0x1080 JUMPI POP POP POP PUSH1 0x64 CALLDATALOAD PUSH1 0x1 PUSH1 0x1 PUSH1 0x40 SHL SUB DUP2 GT PUSH2 0x116 JUMPI PUSH2 0xCB6 SWAP1 CALLDATASIZE SWAP1 PUSH1 0x4 ADD PUSH2 0x1379 JUMP JUMPDEST SWAP2 PUSH1 0x84 CALLDATALOAD ISZERO ISZERO PUSH1 0x84 CALLDATALOAD SUB PUSH2 0x116 JUMPI PUSH2 0xCCF CALLER ISZERO ISZERO PUSH2 0x169E JUMP JUMPDEST DUP1 MLOAD ISZERO PUSH2 0x1046 JUMPI DUP2 MLOAD ISZERO PUSH2 0xFC5 JUMPI PUSH2 0xCE8 PUSH1 0x1 SLOAD PUSH2 0x1843 JUMP JUMPDEST DUP1 PUSH1 0x1 SSTORE DUP5 MLOAD SWAP3 PUSH1 0x1 DUP5 ADD DUP1 SWAP5 GT PUSH2 0x52B JUMPI PUSH2 0xD1C PUSH2 0xD06 DUP6 PUSH2 0x13C0 JUMP JUMPDEST SWAP5 PUSH2 0xD14 PUSH1 0x40 MLOAD SWAP7 DUP8 PUSH2 0x133D JUMP JUMPDEST DUP1 DUP7 MSTORE PUSH2 0x13C0 JUMP JUMPDEST PUSH1 0x1F NOT ADD CALLDATASIZE PUSH1 0x20 DUP7 ADD CALLDATACOPY PUSH1 0x0 JUMPDEST DUP7 MLOAD DUP2 LT ISZERO PUSH2 0xD5A JUMPI PUSH1 0x1 SWAP1 PUSH1 0x1 PUSH1 0x1 PUSH1 0xA0 SHL SUB PUSH2 0xD47 DUP3 DUP11 PUSH2 0x1852 JUMP JUMPDEST MLOAD AND PUSH2 0xD53 DUP3 DUP9 PUSH2 0x1852 JUMP JUMPDEST MSTORE ADD PUSH2 0xD29 JUMP JUMPDEST POP DUP4 SWAP1 DUP6 DUP8 PUSH2 0xD6B CALLER SWAP2 MLOAD DUP6 PUSH2 0x1852 JUMP JUMPDEST MSTORE DUP4 PUSH1 0x0 MSTORE PUSH1 0x4 PUSH1 0x20 MSTORE PUSH1 0x40 PUSH1 0x0 KECCAK256 SWAP4 DUP5 SSTORE PUSH2 0xD98 PUSH1 0x84 CALLDATALOAD PUSH1 0x1 DUP7 ADD SWAP1 PUSH1 0xFF DUP1 NOT DUP4 SLOAD AND SWAP2 ISZERO ISZERO AND OR SWAP1 SSTORE JUMP JUMPDEST PUSH1 0x84 CALLDATALOAD ISZERO PUSH2 0xF95 JUMPI PUSH2 0xDD9 PUSH2 0xDE2 SWAP3 PUSH1 0x0 JUMPDEST PUSH1 0x2 DUP8 ADD SSTORE PUSH1 0x3 DUP7 ADD DUP1 SLOAD PUSH1 0x1 PUSH1 0x1 PUSH1 0xA0 SHL SUB NOT AND CALLER OR SWAP1 SSTORE PUSH2 0xDD0 DUP8 PUSH1 0x4 DUP9 ADD PUSH2 0x1774 JUMP JUMPDEST PUSH1 0x5 DUP7 ADD PUSH2 0x1774 JUMP JUMPDEST PUSH1 0x6 DUP5 ADD PUSH2 0x1774 JUMP JUMPDEST TIMESTAMP PUSH1 0x7 DUP4 ADD SSTORE DUP1 MLOAD SWAP1 PUSH1 0x1 PUSH1 0x1 PUSH1 0x40 SHL SUB DUP3 GT PUSH2 0xF62 JUMPI PUSH1 0x20 SWAP1 PUSH2 0xE09 DUP4 PUSH1 0x8 DUP7 ADD PUSH2 0x1879 JUMP JUMPDEST ADD PUSH1 0x8 DUP4 ADD PUSH1 0x0 MSTORE PUSH1 0x20 PUSH1 0x0 KECCAK256 PUSH1 0x0 JUMPDEST DUP4 DUP2 LT PUSH2 0xF78 JUMPI DUP6 DUP6 PUSH1 0x9 DUP2 ADD SWAP1 PUSH1 0x0 DUP3 SSTORE PUSH1 0x3 SLOAD PUSH1 0x1 PUSH1 0x40 SHL DUP2 LT ISZERO PUSH2 0xF62 JUMPI DUP1 PUSH1 0x1 PUSH2 0xE4A SWAP3 ADD PUSH1 0x3 SSTORE PUSH2 0x18AD JUMP JUMPDEST SWAP3 SWAP1 SWAP3 PUSH2 0xF4C JUMPI DUP2 DUP4 SUB PUSH2 0xE9F JUMPI JUMPDEST PUSH1 0x1 SLOAD PUSH1 0x40 DUP1 MLOAD DUP2 DUP2 MSTORE PUSH32 0xD3CC7C228A9442B3E32B7FB9E7AC4298594EEB118C36CBFBAF73FEEF8394627D SWAP2 PUSH2 0xE91 SWAP1 DUP3 ADD DUP9 PUSH2 0x12C6 JUMP JUMPDEST SWAP3 PUSH1 0x20 DUP3 ADD MSTORE DUP1 CALLER SWAP4 SUB SWAP1 LOG2 STOP JUMPDEST PUSH2 0xF40 PUSH1 0x8 DUP4 PUSH1 0x9 SWAP5 SLOAD DUP7 SSTORE PUSH2 0xECB PUSH1 0xFF PUSH1 0x1 DUP4 ADD SLOAD AND PUSH1 0x1 DUP9 ADD SWAP1 PUSH1 0xFF DUP1 NOT DUP4 SLOAD AND SWAP2 ISZERO ISZERO AND OR SWAP1 SSTORE JUMP JUMPDEST PUSH1 0x2 DUP2 ADD SLOAD PUSH1 0x2 DUP8 ADD SSTORE PUSH1 0x3 DUP7 ADD PUSH1 0x1 DUP1 PUSH1 0xA0 SHL SUB PUSH1 0x3 DUP4 ADD SLOAD AND PUSH12 0xFFFFFFFFFFFFFFFFFFFFFFFF PUSH1 0xA0 SHL DUP3 SLOAD AND OR SWAP1 SSTORE PUSH2 0xF0C PUSH1 0x4 DUP3 ADD PUSH1 0x4 DUP9 ADD PUSH2 0x18E8 JUMP JUMPDEST PUSH2 0xF1C PUSH1 0x5 DUP3 ADD PUSH1 0x5 DUP9 ADD PUSH2 0x18E8 JUMP JUMPDEST PUSH2 0xF2C PUSH1 0x6 DUP3 ADD PUSH1 0x6 DUP9 ADD PUSH2 0x18E8 JUMP JUMPDEST PUSH1 0x7 DUP2 ADD SLOAD PUSH1 0x7 DUP8 ADD SSTORE ADD PUSH1 0x8 DUP6 ADD PUSH2 0x19C6 JUMP JUMPDEST SLOAD SWAP2 ADD SSTORE DUP2 DUP1 DUP1 PUSH2 0xE59 JUMP JUMPDEST PUSH4 0x4E487B71 PUSH1 0xE0 SHL PUSH1 0x0 MSTORE PUSH1 0x0 PUSH1 0x4 MSTORE PUSH1 0x24 PUSH1 0x0 REVERT JUMPDEST PUSH4 0x4E487B71 PUSH1 0xE0 SHL PUSH1 0x0 MSTORE PUSH1 0x41 PUSH1 0x4 MSTORE PUSH1 0x24 PUSH1 0x0 REVERT JUMPDEST DUP3 MLOAD PUSH1 0x1 PUSH1 0x1 PUSH1 0xA0 SHL SUB AND DUP2 DUP4 ADD SSTORE PUSH1 0x20 SWAP1 SWAP3 ADD SWAP2 PUSH1 0x1 ADD PUSH2 0xE19 JUMP JUMPDEST PUSH8 0xDE0B6B3A7640000 DUP1 PUSH1 0xA4 CALLDATALOAD MUL SWAP1 PUSH1 0xA4 CALLDATALOAD DUP3 DIV EQ PUSH1 0xA4 CALLDATALOAD ISZERO OR ISZERO PUSH2 0x52B JUMPI PUSH2 0xDE2 SWAP3 PUSH2 0x3E8 PUSH2 0xDD9 SWAP3 DIV PUSH2 0xDAA JUMP JUMPDEST PUSH1 0x40 MLOAD PUSH3 0x461BCD PUSH1 0xE5 SHL DUP2 MSTORE PUSH1 0x20 PUSH1 0x4 DUP3 ADD MSTORE PUSH1 0x4D PUSH1 0x24 DUP3 ADD MSTORE PUSH32 0x446573637269626520796F757220616C62756D20746F206C6574207468652077 PUSH1 0x44 DUP3 ADD MSTORE PUSH32 0x6F726C64206B6E6F7720686F7720796F752066656C74207768656E20796F7520 PUSH1 0x64 DUP3 ADD MSTORE PUSH13 0x31B932B0BA32B2103A3434B997 PUSH1 0x99 SHL PUSH1 0x84 DUP3 ADD MSTORE PUSH1 0xA4 SWAP1 REVERT JUMPDEST PUSH1 0x40 MLOAD PUSH3 0x461BCD PUSH1 0xE5 SHL DUP2 MSTORE PUSH1 0x20 PUSH1 0x4 DUP3 ADD MSTORE PUSH1 0x12 PUSH1 0x24 DUP3 ADD MSTORE PUSH18 0x283632B0B9B29030B2321030903730B6B297 PUSH1 0x71 SHL PUSH1 0x44 DUP3 ADD MSTORE PUSH1 0x64 SWAP1 REVERT JUMPDEST DUP3 CALLDATALOAD PUSH1 0x1 PUSH1 0x1 PUSH1 0xA0 SHL SUB DUP2 AND DUP2 SUB PUSH2 0x116 JUMPI DUP2 MSTORE PUSH1 0x20 SWAP3 DUP4 ADD SWAP3 ADD PUSH2 0xC8D JUMP JUMPDEST CALLVALUE PUSH2 0x116 JUMPI PUSH1 0x20 CALLDATASIZE PUSH1 0x3 NOT ADD SLT PUSH2 0x116 JUMPI PUSH1 0x4 CALLDATALOAD PUSH1 0x1 PUSH1 0x1 PUSH1 0x40 SHL SUB DUP2 GT PUSH2 0x116 JUMPI PUSH2 0x10D0 SWAP1 CALLDATASIZE SWAP1 PUSH1 0x4 ADD PUSH2 0x1379 JUMP JUMPDEST PUSH2 0x10DB CALLER ISZERO ISZERO PUSH2 0x169E JUMP JUMPDEST CALLER PUSH1 0x0 MSTORE PUSH1 0x5 PUSH1 0x20 MSTORE PUSH1 0x40 PUSH1 0x0 KECCAK256 DUP1 SLOAD PUSH1 0x1 PUSH1 0x40 SHL DUP2 LT ISZERO PUSH2 0xF62 JUMPI PUSH2 0x1106 SWAP2 PUSH1 0x1 DUP3 ADD DUP2 SSTORE PUSH2 0x16EA JUMP JUMPDEST PUSH2 0xF4C JUMPI DUP2 PUSH2 0x1114 SWAP2 PUSH2 0x1774 JUMP JUMPDEST PUSH32 0x34647A087C36357C4B77D3D7B4BC2B55D01C3EF8726DC75A70652D96E1510CC3 PUSH2 0x114A PUSH1 0x40 MLOAD SWAP3 PUSH1 0x40 DUP5 MSTORE PUSH1 0x40 DUP5 ADD SWAP1 PUSH2 0x12C6 JUMP JUMPDEST SWAP2 TIMESTAMP PUSH1 0x20 DUP3 ADD MSTORE DUP1 CALLER SWAP4 SUB SWAP1 LOG2 STOP JUMPDEST CALLVALUE PUSH2 0x116 JUMPI PUSH1 0x20 DUP1 PUSH1 0x3 NOT CALLDATASIZE ADD SLT PUSH2 0x116 JUMPI PUSH1 0x4 CALLDATALOAD DUP1 ISZERO ISZERO DUP1 PUSH2 0x11E3 JUMPI JUMPDEST PUSH2 0x1180 SWAP1 PUSH2 0x15F8 JUMP JUMPDEST PUSH1 0x0 MSTORE PUSH1 0x4 DUP2 MSTORE PUSH2 0x1197 PUSH1 0x8 PUSH1 0x40 PUSH1 0x0 KECCAK256 ADD PUSH2 0x1644 JUMP JUMPDEST SWAP1 PUSH1 0x40 MLOAD SWAP2 DUP2 DUP4 SWAP3 DUP4 ADD DUP2 DUP5 MSTORE DUP3 MLOAD DUP1 SWAP2 MSTORE DUP2 PUSH1 0x40 DUP6 ADD SWAP4 ADD SWAP2 PUSH1 0x0 JUMPDEST DUP3 DUP2 LT PUSH2 0x11C3 JUMPI POP POP POP POP SUB SWAP1 RETURN JUMPDEST DUP4 MLOAD PUSH1 0x1 PUSH1 0x1 PUSH1 0xA0 SHL SUB AND DUP6 MSTORE DUP7 SWAP6 POP SWAP4 DUP2 ADD SWAP4 SWAP3 DUP2 ADD SWAP3 PUSH1 0x1 ADD PUSH2 0x11B4 JUMP JUMPDEST POP PUSH1 0x1 SLOAD DUP2 GT ISZERO PUSH2 0x1177 JUMP JUMPDEST CALLVALUE PUSH2 0x116 JUMPI PUSH1 0x0 CALLDATASIZE PUSH1 0x3 NOT ADD SLT PUSH2 0x116 JUMPI CALLER PUSH1 0x0 MSTORE PUSH1 0x20 PUSH1 0x5 DUP2 MSTORE PUSH1 0x40 PUSH1 0x0 KECCAK256 SWAP1 DUP2 SLOAD SWAP2 PUSH2 0x121C DUP4 PUSH2 0x13C0 JUMP JUMPDEST SWAP3 PUSH2 0x122A PUSH1 0x40 MLOAD SWAP5 DUP6 PUSH2 0x133D JUMP JUMPDEST DUP1 DUP5 MSTORE DUP3 DUP5 ADD DUP1 SWAP3 PUSH1 0x0 MSTORE DUP4 PUSH1 0x0 KECCAK256 PUSH1 0x0 SWAP2 JUMPDEST DUP4 DUP4 LT PUSH2 0x12A4 JUMPI POP POP POP POP PUSH1 0x40 MLOAD SWAP2 DUP1 DUP4 ADD SWAP4 DUP2 DUP5 MSTORE MLOAD DUP1 SWAP5 MSTORE PUSH1 0x40 DUP4 ADD SWAP4 PUSH1 0x40 DUP2 PUSH1 0x5 SHL DUP6 ADD ADD SWAP3 SWAP2 PUSH1 0x0 SWAP6 JUMPDEST DUP3 DUP8 LT PUSH2 0x1278 JUMPI DUP6 DUP6 SUB DUP7 RETURN JUMPDEST SWAP1 SWAP2 SWAP3 SWAP4 DUP3 DUP1 PUSH2 0x1294 PUSH1 0x1 SWAP4 PUSH1 0x3F NOT DUP11 DUP3 SUB ADD DUP7 MSTORE DUP9 MLOAD PUSH2 0x12C6 JUMP JUMPDEST SWAP7 ADD SWAP3 ADD SWAP7 ADD SWAP6 SWAP3 SWAP2 SWAP1 SWAP3 PUSH2 0x126B JUMP JUMPDEST PUSH1 0x1 DUP7 DUP2 SWAP3 PUSH2 0x12B5 DUP6 SWAP11 SWAP10 SWAP11 PUSH2 0x1553 JUMP JUMPDEST DUP2 MSTORE ADD SWAP3 ADD SWAP3 ADD SWAP2 SWAP1 SWAP6 SWAP5 SWAP6 PUSH2 0x123D JUMP JUMPDEST SWAP2 SWAP1 DUP3 MLOAD SWAP3 DUP4 DUP3 MSTORE PUSH1 0x0 JUMPDEST DUP5 DUP2 LT PUSH2 0x12F2 JUMPI POP POP DUP3 PUSH1 0x0 PUSH1 0x20 DUP1 SWAP5 SWAP6 DUP5 ADD ADD MSTORE PUSH1 0x1F DUP1 NOT SWAP2 ADD AND ADD ADD SWAP1 JUMP JUMPDEST PUSH1 0x20 DUP2 DUP4 ADD DUP2 ADD MLOAD DUP5 DUP4 ADD DUP3 ADD MSTORE ADD PUSH2 0x12D1 JUMP JUMPDEST PUSH1 0xC0 DUP2 ADD SWAP1 DUP2 LT PUSH1 0x1 PUSH1 0x1 PUSH1 0x40 SHL SUB DUP3 GT OR PUSH2 0xF62 JUMPI PUSH1 0x40 MSTORE JUMP JUMPDEST PUSH2 0x140 DUP2 ADD SWAP1 DUP2 LT PUSH1 0x1 PUSH1 0x1 PUSH1 0x40 SHL SUB DUP3 GT OR PUSH2 0xF62 JUMPI PUSH1 0x40 MSTORE JUMP JUMPDEST SWAP1 PUSH1 0x1F DUP1 NOT SWAP2 ADD AND DUP2 ADD SWAP1 DUP2 LT PUSH1 0x1 PUSH1 0x1 PUSH1 0x40 SHL SUB DUP3 GT OR PUSH2 0xF62 JUMPI PUSH1 0x40 MSTORE JUMP JUMPDEST PUSH1 0x1 PUSH1 0x1 PUSH1 0x40 SHL SUB DUP2 GT PUSH2 0xF62 JUMPI PUSH1 0x1F ADD PUSH1 0x1F NOT AND PUSH1 0x20 ADD SWAP1 JUMP JUMPDEST DUP2 PUSH1 0x1F DUP3 ADD SLT ISZERO PUSH2 0x116 JUMPI DUP1 CALLDATALOAD SWAP1 PUSH2 0x1390 DUP3 PUSH2 0x135E JUMP JUMPDEST SWAP3 PUSH2 0x139E PUSH1 0x40 MLOAD SWAP5 DUP6 PUSH2 0x133D JUMP JUMPDEST DUP3 DUP5 MSTORE PUSH1 0x20 DUP4 DUP4 ADD ADD GT PUSH2 0x116 JUMPI DUP2 PUSH1 0x0 SWAP3 PUSH1 0x20 DUP1 SWAP4 ADD DUP4 DUP7 ADD CALLDATACOPY DUP4 ADD ADD MSTORE SWAP1 JUMP JUMPDEST PUSH1 0x1 PUSH1 0x1 PUSH1 0x40 SHL SUB DUP2 GT PUSH2 0xF62 JUMPI PUSH1 0x5 SHL PUSH1 0x20 ADD SWAP1 JUMP JUMPDEST SWAP1 PUSH2 0x140 SWAP2 DUP1 MLOAD DUP3 MSTORE PUSH1 0x20 SWAP3 DUP4 DUP3 ADD MLOAD ISZERO ISZERO DUP5 DUP5 ADD MSTORE PUSH1 0x40 DUP3 ADD MLOAD PUSH1 0x40 DUP5 ADD MSTORE PUSH2 0x144D PUSH2 0x143B PUSH2 0x1429 PUSH1 0x60 DUP6 ADD MLOAD SWAP4 PUSH1 0x1 DUP1 PUSH1 0xA0 SHL SUB DUP1 SWAP6 AND PUSH1 0x60 DUP9 ADD MSTORE PUSH1 0x80 DUP7 ADD MLOAD SWAP1 DUP1 PUSH1 0x80 DUP10 ADD MSTORE DUP8 ADD SWAP1 PUSH2 0x12C6 JUMP JUMPDEST PUSH1 0xA0 DUP6 ADD MLOAD DUP7 DUP3 SUB PUSH1 0xA0 DUP9 ADD MSTORE PUSH2 0x12C6 JUMP JUMPDEST PUSH1 0xC0 DUP5 ADD MLOAD DUP6 DUP3 SUB PUSH1 0xC0 DUP8 ADD MSTORE PUSH2 0x12C6 JUMP JUMPDEST PUSH1 0xE0 DUP4 ADD MLOAD PUSH1 0xE0 DUP6 ADD MSTORE PUSH2 0x100 SWAP5 DUP6 DUP5 ADD MLOAD SWAP6 DUP6 DUP4 SUB SWAP1 DUP7 ADD MSTORE DUP1 DUP1 DUP8 MLOAD SWAP4 DUP5 DUP2 MSTORE ADD SWAP7 ADD SWAP3 PUSH1 0x0 SWAP1 JUMPDEST DUP4 DUP3 LT PUSH2 0x1490 JUMPI POP POP POP POP POP PUSH2 0x120 DUP1 SWAP2 ADD MLOAD SWAP2 ADD MSTORE SWAP1 JUMP JUMPDEST DUP5 MLOAD DUP2 AND DUP9 MSTORE SWAP7 DUP3 ADD SWAP7 SWAP4 DUP3 ADD SWAP4 PUSH1 0x1 SWAP1 SWAP2 ADD SWAP1 PUSH2 0x1477 JUMP JUMPDEST SWAP1 DUP2 MLOAD DUP2 MSTORE PUSH1 0xA0 DUP1 PUSH2 0x14DF PUSH2 0x14CD PUSH1 0x20 DUP7 ADD MLOAD PUSH1 0xC0 PUSH1 0x20 DUP8 ADD MSTORE PUSH1 0xC0 DUP7 ADD SWAP1 PUSH2 0x12C6 JUMP JUMPDEST PUSH1 0x40 DUP7 ADD MLOAD DUP6 DUP3 SUB PUSH1 0x40 DUP8 ADD MSTORE PUSH2 0x12C6 JUMP JUMPDEST SWAP4 PUSH1 0x1 DUP1 DUP4 SHL SUB PUSH1 0x60 DUP3 ADD MLOAD AND PUSH1 0x60 DUP6 ADD MSTORE PUSH1 0x80 DUP2 ADD MLOAD PUSH1 0x80 DUP6 ADD MSTORE ADD MLOAD SWAP2 ADD MSTORE SWAP1 JUMP JUMPDEST PUSH1 0x40 SWAP1 PUSH1 0x3 NOT ADD SLT PUSH2 0x116 JUMPI PUSH1 0x4 CALLDATALOAD SWAP1 PUSH1 0x24 CALLDATALOAD SWAP1 JUMP JUMPDEST SWAP1 PUSH1 0x1 DUP3 DUP2 SHR SWAP3 AND DUP1 ISZERO PUSH2 0x1549 JUMPI JUMPDEST PUSH1 0x20 DUP4 LT EQ PUSH2 0x1533 JUMPI JUMP JUMPDEST PUSH4 0x4E487B71 PUSH1 0xE0 SHL PUSH1 0x0 MSTORE PUSH1 0x22 PUSH1 0x4 MSTORE PUSH1 0x24 PUSH1 0x0 REVERT JUMPDEST SWAP2 PUSH1 0x7F AND SWAP2 PUSH2 0x1528 JUMP JUMPDEST SWAP1 PUSH1 0x40 MLOAD SWAP2 DUP3 PUSH1 0x0 DUP3 SLOAD PUSH2 0x1566 DUP2 PUSH2 0x1519 JUMP JUMPDEST SWAP1 DUP2 DUP5 MSTORE PUSH1 0x20 SWAP5 PUSH1 0x1 SWAP2 PUSH1 0x1 DUP2 AND SWAP1 DUP2 PUSH1 0x0 EQ PUSH2 0x15D6 JUMPI POP PUSH1 0x1 EQ PUSH2 0x1597 JUMPI JUMPDEST POP POP POP PUSH2 0x1595 SWAP3 POP SUB DUP4 PUSH2 0x133D JUMP JUMPDEST JUMP JUMPDEST PUSH1 0x0 SWAP1 DUP2 MSTORE DUP6 DUP2 KECCAK256 SWAP6 SWAP4 POP SWAP2 SWAP1 JUMPDEST DUP2 DUP4 LT PUSH2 0x15BE JUMPI POP POP PUSH2 0x1595 SWAP4 POP DUP3 ADD ADD CODESIZE DUP1 DUP1 PUSH2 0x1586 JUMP JUMPDEST DUP6 SLOAD DUP9 DUP5 ADD DUP6 ADD MSTORE SWAP5 DUP6 ADD SWAP5 DUP8 SWAP5 POP SWAP2 DUP4 ADD SWAP2 PUSH2 0x15A5 JUMP JUMPDEST SWAP3 POP POP POP PUSH2 0x1595 SWAP5 SWAP3 POP PUSH1 0xFF NOT AND DUP3 DUP5 ADD MSTORE ISZERO ISZERO PUSH1 0x5 SHL DUP3 ADD ADD CODESIZE DUP1 DUP1 PUSH2 0x1586 JUMP JUMPDEST ISZERO PUSH2 0x15FF JUMPI JUMP JUMPDEST PUSH1 0x40 MLOAD PUSH3 0x461BCD PUSH1 0xE5 SHL DUP2 MSTORE PUSH1 0x20 PUSH1 0x4 DUP3 ADD MSTORE PUSH1 0x19 PUSH1 0x24 DUP3 ADD MSTORE PUSH32 0x5468697320616C62756D20646F6573206E6F7420657869737400000000000000 PUSH1 0x44 DUP3 ADD MSTORE PUSH1 0x64 SWAP1 REVERT JUMPDEST SWAP1 PUSH1 0x40 MLOAD SWAP2 DUP3 DUP2 SLOAD SWAP2 DUP3 DUP3 MSTORE PUSH1 0x20 SWAP3 PUSH1 0x20 DUP4 ADD SWAP2 PUSH1 0x0 MSTORE PUSH1 0x20 PUSH1 0x0 KECCAK256 SWAP4 PUSH1 0x0 SWAP1 JUMPDEST DUP3 DUP3 LT PUSH2 0x167B JUMPI POP POP POP PUSH2 0x1595 SWAP3 POP SUB DUP4 PUSH2 0x133D JUMP JUMPDEST DUP6 SLOAD PUSH1 0x1 PUSH1 0x1 PUSH1 0xA0 SHL SUB AND DUP5 MSTORE PUSH1 0x1 SWAP6 DUP7 ADD SWAP6 DUP9 SWAP6 POP SWAP4 DUP2 ADD SWAP4 SWAP1 SWAP2 ADD SWAP1 PUSH2 0x1665 JUMP JUMPDEST ISZERO PUSH2 0x16A5 JUMPI JUMP JUMPDEST PUSH1 0x40 MLOAD PUSH3 0x461BCD PUSH1 0xE5 SHL DUP2 MSTORE PUSH1 0x20 PUSH1 0x4 DUP3 ADD MSTORE PUSH1 0x1A PUSH1 0x24 DUP3 ADD MSTORE PUSH32 0x4E6F207A65726F2061646472657373657320616C6C6F7765642E000000000000 PUSH1 0x44 DUP3 ADD MSTORE PUSH1 0x64 SWAP1 REVERT JUMPDEST DUP1 SLOAD DUP3 LT ISZERO PUSH2 0x1702 JUMPI PUSH1 0x0 MSTORE PUSH1 0x20 PUSH1 0x0 KECCAK256 ADD SWAP1 PUSH1 0x0 SWAP1 JUMP JUMPDEST PUSH4 0x4E487B71 PUSH1 0xE0 SHL PUSH1 0x0 MSTORE PUSH1 0x32 PUSH1 0x4 MSTORE PUSH1 0x24 PUSH1 0x0 REVERT JUMPDEST DUP2 DUP2 LT PUSH2 0x1723 JUMPI POP POP JUMP JUMPDEST PUSH1 0x0 DUP2 SSTORE PUSH1 0x1 ADD PUSH2 0x1718 JUMP JUMPDEST SWAP2 SWAP1 PUSH1 0x1F DUP2 GT PUSH2 0x173E JUMPI POP POP POP JUMP JUMPDEST PUSH2 0x1595 SWAP3 PUSH1 0x0 MSTORE PUSH1 0x20 PUSH1 0x0 KECCAK256 SWAP1 PUSH1 0x20 PUSH1 0x1F DUP5 ADD PUSH1 0x5 SHR DUP4 ADD SWAP4 LT PUSH2 0x176A JUMPI JUMPDEST PUSH1 0x1F ADD PUSH1 0x5 SHR ADD SWAP1 PUSH2 0x1718 JUMP JUMPDEST SWAP1 SWAP2 POP DUP2 SWAP1 PUSH2 0x175D JUMP JUMPDEST SWAP2 SWAP1 SWAP2 DUP3 MLOAD PUSH1 0x1 PUSH1 0x1 PUSH1 0x40 SHL SUB DUP2 GT PUSH2 0xF62 JUMPI PUSH2 0x179B DUP2 PUSH2 0x1795 DUP5 SLOAD PUSH2 0x1519 JUMP JUMPDEST DUP5 PUSH2 0x172F JUMP JUMPDEST PUSH1 0x20 DUP1 PUSH1 0x1F DUP4 GT PUSH1 0x1 EQ PUSH2 0x17DE JUMPI POP DUP2 SWAP1 PUSH2 0x17CF SWAP4 SWAP5 SWAP6 PUSH1 0x0 SWAP3 PUSH2 0x17D3 JUMPI JUMPDEST POP POP DUP2 PUSH1 0x1 SHL SWAP2 PUSH1 0x0 NOT SWAP1 PUSH1 0x3 SHL SHR NOT AND OR SWAP1 JUMP JUMPDEST SWAP1 SSTORE JUMP JUMPDEST ADD MLOAD SWAP1 POP CODESIZE DUP1 PUSH2 0x17BA JUMP JUMPDEST SWAP1 PUSH1 0x1F NOT DUP4 AND SWAP6 DUP5 PUSH1 0x0 MSTORE PUSH1 0x20 PUSH1 0x0 KECCAK256 SWAP3 PUSH1 0x0 SWAP1 JUMPDEST DUP9 DUP3 LT PUSH2 0x182B JUMPI POP POP DUP4 PUSH1 0x1 SWAP6 SWAP7 SWAP8 LT PUSH2 0x1812 JUMPI JUMPDEST POP POP POP DUP2 SHL ADD SWAP1 SSTORE JUMP JUMPDEST ADD MLOAD PUSH1 0x0 NOT PUSH1 0xF8 DUP5 PUSH1 0x3 SHL AND SHR NOT AND SWAP1 SSTORE CODESIZE DUP1 DUP1 PUSH2 0x1808 JUMP JUMPDEST DUP1 PUSH1 0x1 DUP6 SWAP7 DUP3 SWAP5 SWAP7 DUP7 ADD MLOAD DUP2 SSTORE ADD SWAP6 ADD SWAP4 ADD SWAP1 PUSH2 0x17F3 JUMP JUMPDEST PUSH1 0x0 NOT DUP2 EQ PUSH2 0x52B JUMPI PUSH1 0x1 ADD SWAP1 JUMP JUMPDEST DUP1 MLOAD DUP3 LT ISZERO PUSH2 0x1702 JUMPI PUSH1 0x20 SWAP2 PUSH1 0x5 SHL ADD ADD SWAP1 JUMP JUMPDEST DUP2 DUP2 MUL SWAP3 SWAP2 DUP2 ISZERO SWAP2 DUP5 DIV EQ OR ISZERO PUSH2 0x52B JUMPI JUMP JUMPDEST SWAP1 PUSH1 0x1 PUSH1 0x40 SHL DUP2 GT PUSH2 0xF62 JUMPI DUP2 SLOAD SWAP1 DUP1 DUP4 SSTORE DUP2 DUP2 LT PUSH2 0x1897 JUMPI POP POP POP JUMP JUMPDEST PUSH2 0x1595 SWAP3 PUSH1 0x0 MSTORE PUSH1 0x20 PUSH1 0x0 KECCAK256 SWAP2 DUP3 ADD SWAP2 ADD PUSH2 0x1718 JUMP JUMPDEST PUSH1 0x3 SLOAD DUP2 LT ISZERO PUSH2 0x1702 JUMPI PUSH1 0xA SWAP1 PUSH1 0x3 PUSH1 0x0 MSTORE MUL PUSH32 0xC2575A0E9E593C00F959F8C92F12DB2869C3395A3B0502D05E2516446F71F85B ADD SWAP1 PUSH1 0x0 SWAP1 JUMP JUMPDEST SWAP1 DUP1 DUP3 EQ PUSH2 0x19C2 JUMPI PUSH2 0x18FA DUP2 SLOAD PUSH2 0x1519 JUMP JUMPDEST SWAP1 PUSH1 0x1 PUSH1 0x1 PUSH1 0x40 SHL SUB DUP3 GT PUSH2 0xF62 JUMPI PUSH2 0x191D DUP3 PUSH2 0x1917 DUP6 SLOAD PUSH2 0x1519 JUMP JUMPDEST DUP6 PUSH2 0x172F JUMP JUMPDEST PUSH1 0x0 SWAP1 PUSH1 0x1F DUP4 GT PUSH1 0x1 EQ PUSH2 0x1958 JUMPI PUSH2 0x17CF SWAP3 SWAP2 PUSH1 0x0 SWAP2 DUP4 PUSH2 0x194D JUMPI POP POP DUP2 PUSH1 0x1 SHL SWAP2 PUSH1 0x0 NOT SWAP1 PUSH1 0x3 SHL SHR NOT AND OR SWAP1 JUMP JUMPDEST ADD SLOAD SWAP1 POP CODESIZE DUP1 PUSH2 0x17BA JUMP JUMPDEST DUP2 MSTORE PUSH1 0x20 DUP1 DUP3 KECCAK256 DUP5 DUP4 MSTORE DUP2 DUP4 KECCAK256 SWAP3 SWAP2 PUSH1 0x1F NOT DUP6 AND SWAP1 DUP4 SWAP1 JUMPDEST DUP3 DUP3 LT PUSH2 0x19A9 JUMPI POP POP SWAP1 DUP5 PUSH1 0x1 SWAP6 SWAP5 SWAP4 SWAP3 LT PUSH2 0x1990 JUMPI POP POP POP DUP2 SHL ADD SWAP1 SSTORE JUMP JUMPDEST ADD SLOAD PUSH1 0x0 NOT PUSH1 0xF8 DUP5 PUSH1 0x3 SHL AND SHR NOT AND SWAP1 SSTORE CODESIZE DUP1 DUP1 PUSH2 0x1808 JUMP JUMPDEST DUP5 SWAP6 DUP2 SWAP3 SWAP6 DUP6 ADD SLOAD DUP2 SSTORE PUSH1 0x1 DUP1 SWAP2 ADD SWAP7 ADD SWAP5 ADD SWAP1 PUSH2 0x1970 JUMP JUMPDEST POP POP JUMP JUMPDEST DUP2 DUP2 EQ PUSH2 0x19C2 JUMPI DUP2 SLOAD SWAP2 PUSH1 0x1 PUSH1 0x1 PUSH1 0x40 SHL SUB DUP4 GT PUSH2 0xF62 JUMPI PUSH2 0x19E8 DUP4 DUP4 PUSH2 0x1879 JUMP JUMPDEST PUSH1 0x0 MSTORE PUSH1 0x20 PUSH1 0x0 KECCAK256 SWAP1 PUSH1 0x0 MSTORE PUSH1 0x20 PUSH1 0x0 KECCAK256 DUP2 SLOAD SWAP2 PUSH1 0x0 SWAP3 JUMPDEST DUP5 DUP5 LT PUSH2 0x1A0E JUMPI POP POP POP POP POP JUMP JUMPDEST PUSH1 0x1 SWAP2 DUP3 ADD DUP1 SLOAD PUSH1 0x1 PUSH1 0x1 PUSH1 0xA0 SHL SUB SWAP1 SWAP3 AND DUP5 DUP7 ADD SSTORE SWAP4 SWAP1 SWAP2 ADD SWAP3 SWAP1 PUSH2 0x1A00 JUMP JUMPDEST PUSH1 0x40 MLOAD SWAP1 PUSH2 0x1A3C DUP3 PUSH2 0x1321 JUMP JUMPDEST DUP2 PUSH2 0x120 PUSH1 0x0 SWAP2 DUP3 DUP2 MSTORE DUP3 PUSH1 0x20 DUP3 ADD MSTORE DUP3 PUSH1 0x40 DUP3 ADD MSTORE DUP3 PUSH1 0x60 DUP3 ADD MSTORE PUSH1 0x60 PUSH1 0x80 DUP3 ADD MSTORE PUSH1 0x60 PUSH1 0xA0 DUP3 ADD MSTORE PUSH1 0x60 PUSH1 0xC0 DUP3 ADD MSTORE DUP3 PUSH1 0xE0 DUP3 ADD MSTORE PUSH1 0x60 PUSH2 0x100 DUP3 ADD MSTORE ADD MSTORE JUMP JUMPDEST SWAP1 PUSH1 0x40 MLOAD PUSH2 0x1A8C DUP2 PUSH2 0x1321 JUMP JUMPDEST DUP3 SLOAD DUP2 MSTORE PUSH1 0x1 DUP4 ADD SLOAD PUSH1 0xFF AND ISZERO ISZERO PUSH1 0x20 DUP3 ADD MSTORE PUSH1 0x2 DUP4 ADD SLOAD PUSH1 0x40 DUP3 ADD MSTORE PUSH1 0x3 DUP4 ADD SLOAD PUSH1 0x1 PUSH1 0x1 PUSH1 0xA0 SHL SUB AND PUSH1 0x60 DUP3 ADD MSTORE SWAP2 DUP3 SWAP1 PUSH2 0x120 SWAP1 PUSH1 0x9 SWAP1 PUSH2 0x1AD2 PUSH1 0x4 DUP3 ADD PUSH2 0x1553 JUMP JUMPDEST PUSH1 0x80 DUP6 ADD MSTORE PUSH2 0x1AE3 PUSH1 0x5 DUP3 ADD PUSH2 0x1553 JUMP JUMPDEST PUSH1 0xA0 DUP6 ADD MSTORE PUSH2 0x1AF4 PUSH1 0x6 DUP3 ADD PUSH2 0x1553 JUMP JUMPDEST PUSH1 0xC0 DUP6 ADD MSTORE PUSH1 0x7 DUP2 ADD SLOAD PUSH1 0xE0 DUP6 ADD MSTORE PUSH2 0x1B0F PUSH1 0x8 DUP3 ADD PUSH2 0x1644 JUMP JUMPDEST PUSH2 0x100 DUP6 ADD MSTORE ADD SLOAD SWAP2 ADD MSTORE JUMP JUMPDEST DUP1 SLOAD PUSH1 0x1 PUSH1 0x40 SHL DUP2 LT ISZERO PUSH2 0xF62 JUMPI PUSH2 0x1B39 SWAP2 PUSH1 0x1 DUP3 ADD DUP2 SSTORE PUSH2 0x16EA JUMP JUMPDEST PUSH1 0x1 DUP1 PUSH1 0xA0 SWAP5 SWAP4 SWAP5 SHL SUB DUP1 DUP5 SLOAD SWAP3 PUSH1 0x3 SHL SWAP4 AND DUP4 SHL SWAP3 SHL NOT AND OR SWAP1 SSTORE JUMP JUMPDEST SWAP2 SWAP1 DUP3 SUB SWAP2 DUP3 GT PUSH2 0x52B JUMPI JUMP JUMPDEST RETURNDATASIZE ISZERO PUSH2 0x1B8F JUMPI RETURNDATASIZE SWAP1 PUSH2 0x1B75 DUP3 PUSH2 0x135E JUMP JUMPDEST SWAP2 PUSH2 0x1B83 PUSH1 0x40 MLOAD SWAP4 DUP5 PUSH2 0x133D JUMP JUMPDEST DUP3 MSTORE RETURNDATASIZE PUSH1 0x0 PUSH1 0x20 DUP5 ADD RETURNDATACOPY JUMP JUMPDEST PUSH1 0x60 SWAP1 JUMP JUMPDEST ISZERO PUSH2 0x1B9B JUMPI JUMP JUMPDEST PUSH1 0x40 MLOAD PUSH3 0x461BCD PUSH1 0xE5 SHL DUP2 MSTORE PUSH1 0x20 PUSH1 0x4 DUP3 ADD MSTORE PUSH1 0x22 PUSH1 0x24 DUP3 ADD MSTORE PUSH32 0x466565207061796D656E7420746F20616C62756D206F776E6572206661696C65 PUSH1 0x44 DUP3 ADD MSTORE PUSH2 0x3217 PUSH1 0xF1 SHL PUSH1 0x64 DUP3 ADD MSTORE PUSH1 0x84 SWAP1 REVERT JUMPDEST ISZERO PUSH2 0x1BF2 JUMPI JUMP JUMPDEST PUSH1 0x40 MLOAD PUSH3 0x461BCD PUSH1 0xE5 SHL DUP2 MSTORE PUSH1 0x20 PUSH1 0x4 DUP3 ADD MSTORE PUSH1 0x22 PUSH1 0x24 DUP3 ADD MSTORE PUSH32 0x466565207061796D656E7420746F207472796265206F776E6572206661696C65 PUSH1 0x44 DUP3 ADD MSTORE PUSH2 0x3217 PUSH1 0xF1 SHL PUSH1 0x64 DUP3 ADD MSTORE PUSH1 0x84 SWAP1 REVERT JUMPDEST ISZERO PUSH2 0x1C49 JUMPI JUMP JUMPDEST PUSH1 0x40 MLOAD PUSH3 0x461BCD PUSH1 0xE5 SHL DUP2 MSTORE PUSH1 0x20 PUSH1 0x4 DUP3 ADD MSTORE PUSH1 0x33 PUSH1 0x24 DUP3 ADD MSTORE PUSH32 0x4F6E6C792074686F73652077686F2068617665206A6F696E6564207468652061 PUSH1 0x44 DUP3 ADD MSTORE PUSH19 0x36313AB69039B2B2903A34329030B6313AB697 PUSH1 0x69 SHL PUSH1 0x64 DUP3 ADD MSTORE PUSH1 0x84 SWAP1 REVERT JUMPDEST PUSH1 0x40 MLOAD SWAP1 PUSH2 0x1CB7 DUP3 PUSH2 0x1306 JUMP JUMPDEST PUSH1 0x0 PUSH1 0xA0 DUP4 DUP3 DUP2 MSTORE PUSH1 0x60 PUSH1 0x20 DUP3 ADD MSTORE PUSH1 0x60 PUSH1 0x40 DUP3 ADD MSTORE DUP3 PUSH1 0x60 DUP3 ADD MSTORE DUP3 PUSH1 0x80 DUP3 ADD MSTORE ADD MSTORE JUMP JUMPDEST SWAP1 PUSH1 0x40 MLOAD PUSH2 0x1CEA DUP2 PUSH2 0x1306 JUMP JUMPDEST PUSH1 0xA0 PUSH1 0x5 DUP3 SWAP5 DUP1 SLOAD DUP5 MSTORE PUSH2 0x1D00 PUSH1 0x1 DUP3 ADD PUSH2 0x1553 JUMP JUMPDEST PUSH1 0x20 DUP6 ADD MSTORE PUSH2 0x1D11 PUSH1 0x2 DUP3 ADD PUSH2 0x1553 JUMP JUMPDEST PUSH1 0x40 DUP6 ADD MSTORE PUSH1 0x1 DUP1 DUP5 SHL SUB PUSH1 0x3 DUP3 ADD SLOAD AND PUSH1 0x60 DUP6 ADD MSTORE PUSH1 0x4 DUP2 ADD SLOAD PUSH1 0x80 DUP6 ADD MSTORE ADD SLOAD SWAP2 ADD MSTORE JUMP INVALID LOG2 PUSH5 0x6970667358 0x22 SLT KECCAK256 0x4E SWAP14 DIV 0x22 0xA8 0xEB 0xC6 0xB0 0xF9 0xBE MULMOD 0xF8 DUP10 0xF9 0xA8 PUSH9 0xB1FCB55C4B6A731393 0xC2 PUSH0 RETURNDATASIZE 0xDD MSTORE8 0xC6 0x4E PUSH5 0x736F6C6343 STOP ADDMOD XOR STOP CALLER "
        },
        "methodIdentifiers": {
          "addImageToAlbum(uint256,string,string,uint256)": "7446434b",
          "createAlbum(string,string,address[],string,bool,uint256)": "45a1db67",
          "download(uint256,uint256)": "bce54720",
          "getAlbum(uint256)": "d6e465c9",
          "getAlbums()": "5c517234",
          "getImageInAlbum(uint256,uint256)": "ced038d1",
          "getImages()": "11498334",
          "getImagesInAlbum(uint256)": "b027a787",
          "getListofParticipants(uint256)": "3b8f313b",
          "joinAlbum(uint256)": "8d84d7fc",
          "owner()": "8da5cb5b",
          "totalNoOfAlbumsCreated()": "6d49f8cc",
          "upload(string)": "42ce1488"
        }
      }
    }
  }
}