{
  "contracts/Trybe.sol": {
    "Trybe": {
      "abi": [
        {
          "inputs": [
            {
              "internalType": "uint256",
              "name": "_fee",
              "type": "uint256"
            }
          ],
          "stateMutability": "nonpayable",
          "type": "constructor"
        },
        {
          "anonymous": false,
          "inputs": [
            {
              "indexed": true,
              "internalType": "address",
              "name": "creator",
              "type": "address"
            },
            {
              "indexed": false,
              "internalType": "string",
              "name": "nameOfAlbum",
              "type": "string"
            },
            {
              "indexed": false,
              "internalType": "uint256",
              "name": "albumId",
              "type": "uint256"
            }
          ],
          "name": "AlbumCreated",
          "type": "event"
        },
        {
          "anonymous": false,
          "inputs": [
            {
              "indexed": false,
              "internalType": "uint256",
              "name": "albumId",
              "type": "uint256"
            },
            {
              "indexed": false,
              "internalType": "uint256",
              "name": "imageId",
              "type": "uint256"
            }
          ],
          "name": "ImageAdded",
          "type": "event"
        },
        {
          "anonymous": false,
          "inputs": [
            {
              "indexed": true,
              "internalType": "address",
              "name": "participant",
              "type": "address"
            },
            {
              "indexed": false,
              "internalType": "uint256",
              "name": "timeJoined",
              "type": "uint256"
            }
          ],
          "name": "JoinedAlbum",
          "type": "event"
        },
        {
          "anonymous": false,
          "inputs": [
            {
              "indexed": true,
              "internalType": "address",
              "name": "user",
              "type": "address"
            },
            {
              "indexed": false,
              "internalType": "string",
              "name": "url",
              "type": "string"
            },
            {
              "indexed": false,
              "internalType": "uint256",
              "name": "createdAt",
              "type": "uint256"
            }
          ],
          "name": "Upload",
          "type": "event"
        },
        {
          "inputs": [
            {
              "internalType": "uint256",
              "name": "albumId",
              "type": "uint256"
            },
            {
              "internalType": "string",
              "name": "_url",
              "type": "string"
            },
            {
              "internalType": "string",
              "name": "_description",
              "type": "string"
            }
          ],
          "name": "addImageToAlbum",
          "outputs": [],
          "stateMutability": "nonpayable",
          "type": "function"
        },
        {
          "inputs": [
            {
              "internalType": "string",
              "name": "_name",
              "type": "string"
            },
            {
              "internalType": "string",
              "name": "description",
              "type": "string"
            },
            {
              "internalType": "address[]",
              "name": "_participants",
              "type": "address[]"
            },
            {
              "internalType": "string",
              "name": "_image",
              "type": "string"
            },
            {
              "internalType": "uint8",
              "name": "visibility",
              "type": "uint8"
            },
            {
              "internalType": "uint256",
              "name": "_fee",
              "type": "uint256"
            }
          ],
          "name": "createAlbum",
          "outputs": [],
          "stateMutability": "nonpayable",
          "type": "function"
        },
        {
          "inputs": [
            {
              "internalType": "uint256",
              "name": "albumId",
              "type": "uint256"
            }
          ],
          "name": "download",
          "outputs": [],
          "stateMutability": "payable",
          "type": "function"
        },
        {
          "inputs": [
            {
              "internalType": "uint256",
              "name": "albumId",
              "type": "uint256"
            }
          ],
          "name": "getAlbum",
          "outputs": [
            {
              "components": [
                {
                  "internalType": "uint256",
                  "name": "id",
                  "type": "uint256"
                },
                {
                  "internalType": "uint8",
                  "name": "visibility",
                  "type": "uint8"
                },
                {
                  "internalType": "uint256",
                  "name": "fee",
                  "type": "uint256"
                },
                {
                  "internalType": "address",
                  "name": "owner",
                  "type": "address"
                },
                {
                  "internalType": "string",
                  "name": "name",
                  "type": "string"
                },
                {
                  "internalType": "string",
                  "name": "description",
                  "type": "string"
                },
                {
                  "internalType": "string",
                  "name": "profileImage",
                  "type": "string"
                },
                {
                  "internalType": "uint256",
                  "name": "created",
                  "type": "uint256"
                },
                {
                  "internalType": "address[]",
                  "name": "participants",
                  "type": "address[]"
                },
                {
                  "internalType": "uint256",
                  "name": "totalNoOfImages",
                  "type": "uint256"
                }
              ],
              "internalType": "struct Trybe.Album",
              "name": "",
              "type": "tuple"
            }
          ],
          "stateMutability": "view",
          "type": "function"
        },
        {
          "inputs": [],
          "name": "getAlbums",
          "outputs": [
            {
              "components": [
                {
                  "internalType": "uint256",
                  "name": "id",
                  "type": "uint256"
                },
                {
                  "internalType": "uint8",
                  "name": "visibility",
                  "type": "uint8"
                },
                {
                  "internalType": "uint256",
                  "name": "fee",
                  "type": "uint256"
                },
                {
                  "internalType": "address",
                  "name": "owner",
                  "type": "address"
                },
                {
                  "internalType": "string",
                  "name": "name",
                  "type": "string"
                },
                {
                  "internalType": "string",
                  "name": "description",
                  "type": "string"
                },
                {
                  "internalType": "string",
                  "name": "profileImage",
                  "type": "string"
                },
                {
                  "internalType": "uint256",
                  "name": "created",
                  "type": "uint256"
                },
                {
                  "internalType": "address[]",
                  "name": "participants",
                  "type": "address[]"
                },
                {
                  "internalType": "uint256",
                  "name": "totalNoOfImages",
                  "type": "uint256"
                }
              ],
              "internalType": "struct Trybe.Album[]",
              "name": "",
              "type": "tuple[]"
            }
          ],
          "stateMutability": "view",
          "type": "function"
        },
        {
          "inputs": [
            {
              "internalType": "uint256",
              "name": "albumId",
              "type": "uint256"
            },
            {
              "internalType": "uint256",
              "name": "imageId",
              "type": "uint256"
            }
          ],
          "name": "getImageInAlbum",
          "outputs": [
            {
              "components": [
                {
                  "internalType": "uint256",
                  "name": "id",
                  "type": "uint256"
                },
                {
                  "internalType": "string",
                  "name": "url",
                  "type": "string"
                },
                {
                  "internalType": "string",
                  "name": "description",
                  "type": "string"
                },
                {
                  "internalType": "address",
                  "name": "owner",
                  "type": "address"
                },
                {
                  "internalType": "uint256",
                  "name": "created",
                  "type": "uint256"
                }
              ],
              "internalType": "struct Trybe.Image",
              "name": "",
              "type": "tuple"
            }
          ],
          "stateMutability": "view",
          "type": "function"
        },
        {
          "inputs": [],
          "name": "getImages",
          "outputs": [
            {
              "internalType": "string[]",
              "name": "",
              "type": "string[]"
            }
          ],
          "stateMutability": "view",
          "type": "function"
        },
        {
          "inputs": [
            {
              "internalType": "uint256",
              "name": "albumId",
              "type": "uint256"
            }
          ],
          "name": "getImagesInAlbum",
          "outputs": [
            {
              "components": [
                {
                  "internalType": "uint256",
                  "name": "id",
                  "type": "uint256"
                },
                {
                  "internalType": "string",
                  "name": "url",
                  "type": "string"
                },
                {
                  "internalType": "string",
                  "name": "description",
                  "type": "string"
                },
                {
                  "internalType": "address",
                  "name": "owner",
                  "type": "address"
                },
                {
                  "internalType": "uint256",
                  "name": "created",
                  "type": "uint256"
                }
              ],
              "internalType": "struct Trybe.Image[]",
              "name": "",
              "type": "tuple[]"
            }
          ],
          "stateMutability": "view",
          "type": "function"
        },
        {
          "inputs": [
            {
              "internalType": "uint256",
              "name": "albumId",
              "type": "uint256"
            }
          ],
          "name": "getListofParticipants",
          "outputs": [
            {
              "internalType": "address[]",
              "name": "",
              "type": "address[]"
            }
          ],
          "stateMutability": "view",
          "type": "function"
        },
        {
          "inputs": [
            {
              "internalType": "uint256",
              "name": "albumId",
              "type": "uint256"
            }
          ],
          "name": "joinAlbum",
          "outputs": [],
          "stateMutability": "payable",
          "type": "function"
        },
        {
          "inputs": [],
          "name": "owner",
          "outputs": [
            {
              "internalType": "address",
              "name": "",
              "type": "address"
            }
          ],
          "stateMutability": "view",
          "type": "function"
        },
        {
          "inputs": [],
          "name": "totalNoOfAlbumsCreated",
          "outputs": [
            {
              "internalType": "uint256",
              "name": "",
              "type": "uint256"
            }
          ],
          "stateMutability": "view",
          "type": "function"
        },
        {
          "inputs": [
            {
              "internalType": "string",
              "name": "url",
              "type": "string"
            }
          ],
          "name": "upload",
          "outputs": [],
          "stateMutability": "nonpayable",
          "type": "function"
        }
      ],
      "evm": {
        "bytecode": {
          "linkReferences": {},
          "object": "60803461006657601f611d8738819003918201601f19168301916001600160401b0383118484101761006b578084926020946040528339810103126100665751600080546001600160a01b03191633178155600155600255604051611d0590816100828239f35b600080fd5b634e487b7160e01b600052604160045260246000fdfe6080604052600436101561001257600080fd5b60003560e01c806311498334146111b35780633b8f313b1461111d57806342ce1488146110245780635c51723414610e3e5780636d49f8cc14610e205780636f4e27f014610b8b57806387b9c24d14610ac65780638d84d7fc1461090d5780638da5cb5b146108e4578063b027a78714610721578063ced038d1146105da578063d6e465c91461056f5763f3187157146100ab57600080fd5b3461054a5760c036600319011261054a576004356001600160401b03811161054a576100db90369060040161133d565b6024356001600160401b03811161054a576100fa90369060040161133d565b604435916001600160401b03831161054a573660238401121561054a578260040135610125816114a9565b936101336040519586611301565b8185526024602086019260051b8201019036821161054a57602401915b81831061054f575050506064356001600160401b03811161054a5761017990369060040161133d565b906084359260ff8416840361054a57610193331515611645565b8151156105105780511561048f576101ac600154611825565b90816001558551936001850180951161046b576101e16101cb866114a9565b956101d96040519788611301565b8087526114a9565b601f190136602087013760005b875181101561021f576001906001600160a01b0361020c828b611884565b51166102188289611884565b52016101ee565b50908491600160ff888a61023533915188611884565b528660005260046020526040600020968755818116821984890154161783880155161460001461048157670de0b6b3a76400008060a435029060a43582041460a43515171561046b576102c3926103e86102ba92045b60028701556003860180546001600160a01b031916331790556102b1876004880161171b565b6005860161171b565b6006840161171b565b4260078301558051906001600160401b038211610438576020906102ea8360088601611b54565b0160088301600052602060002060005b83811061044e57858560006009820155600354600160401b8110156104385780600161032992016003556117ea565b9190916104225780820361037e575b600154604080518181527fd3cc7c228a9442b3e32b7fb9e7ac4298594eeb118c36cbfbaf73feef8394627d916103709082018761128a565b9260208201528033930390a2005b60098181925484556001840160ff60018301541660ff19825416179055600281015460028501556003840160018060a01b036003830154166bffffffffffffffffffffffff60a01b8254161790556103dc6004820160048601611b88565b6103ec6005820160058601611b88565b6103fc6006820160068601611b88565b600781015460078501556104166008820160088601611c66565b01549101558180610338565b634e487b7160e01b600052600060045260246000fd5b634e487b7160e01b600052604160045260246000fd5b82516001600160a01b0316818301556020909201916001016102fa565b634e487b7160e01b600052601160045260246000fd5b6102ba6102c392600061028b565b60405162461bcd60e51b815260206004820152604d60248201527f446573637269626520796f757220616c62756d20746f206c657420746865207760448201527f6f726c64206b6e6f7720686f7720796f752066656c74207768656e20796f752060648201526c31b932b0ba32b2103a3434b99760991b608482015260a490fd5b60405162461bcd60e51b8152602060048201526012602482015271283632b0b9b29030b2321030903730b6b29760711b6044820152606490fd5b600080fd5b82356001600160a01b038116810361054a57815260209283019201610150565b3461054a57602036600319011261054a5760043561058b611834565b50801515806105ce575b61059e9061159f565b60005260046020526105ca6105b66040600020611898565b604051918291602083526020830190611384565b0390f35b50600154811115610595565b3461054a57604036600319011261054a576024356004356105f9611ad4565b5080151580610715575b61060c9061159f565b811515806106fa575b156106b55760009060005b816000526004602052600860406000200180548210156106a9578161064491611691565b905460039190911b1c6001600160a01b0316331461066457600101610620565b5090506106716001611a6c565b60005260066020526040600020906000526020526105ca6106956040600020611b01565b604051918291602083526020830190611457565b50509061067190611a6c565b60405162461bcd60e51b815260206004820152601960248201527f5468697320696d61676520646f6573206e6f74206578697374000000000000006044820152606490fd5b50806000526004602052600960406000200154821115610615565b50600154811115610603565b3461054a5760208060031936011261054a5760043590811515806108d8575b6107499061159f565b816000526004815260406000209060009160005b8460005260048352600860406000200180548210156108ca578161078091611691565b905460039190911b1c6001600160a01b031633146107a05760010161075d565b5060099192506107b06001611a6c565b0154916107bc836114a9565b926107ca6040519485611301565b8084526107d6816114a9565b601f190160005b8181106108ae57505060019160015b828111156108565750505060405191808301818452845180915260408401918060408360051b8701019601926000905b8382106108295786880387f35b90919293948380610845839a603f198b82030186528951611457565b99970195949391909101910161081c565b8160009694965260068552604060002081600052855260406000209060001981019181831161046b576108a69261088f6108a092611b01565b6108998289611884565b5286611884565b50611825565b9492946107ec565b84906108bb969496611ad4565b828287010152019492946107dd565b50506107b060099293611a6c565b50600154821115610740565b3461054a57600036600319011261054a576000546040516001600160a01b039091168152602090f35b602036600319011261054a5760043580151580610aba575b61092e9061159f565b80600052600460205260406000209060018083019160ff835416158015610aac575b15610a6757908092916008906109693360088801611a31565b6000945b610a17575b5050506001915060ff905416146109b2575b6040514281527f59a4dadce245655ce4c5ea128f142c4034b1206deff52ff605866cd86433de8160203392a2005b6000808080610a119460036109fe8380808060646109d36002543490611933565b04966109df8834611946565b9601546001600160a01b03969087165af16109f8611953565b50611983565b8254165af1610a0b611953565b506119da565b80610984565b600354851015610a625780610a2b866117ea565b505414610a3c57938201938261096d565b5060ff929150610a5a90610a516001956117ea565b50339101611a31565b908480610972565b610972565b60405162461bcd60e51b815260206004820152601860248201527f546869732069732061207072697661746520616c62756d2e00000000000000006044820152606490fd5b506002840154341015610950565b50600154811115610925565b602036600319011261054a5760043580151580610b7f575b610ae79061159f565b6000526004602052604060002060ff600182015416158015610b71575b15610b2c576000808080610b2a9460036109fe8380808060646109d36002543490611933565b005b60405162461bcd60e51b815260206004820152601e60248201527f546869732069732061207072697661746520616c62756d20696d6167652e00006044820152606490fd5b506002810154341015610b04565b50600154811115610ade565b3461054a57606036600319011261054a576004356001600160401b0360243581811161054a57610bbf90369060040161133d565b9060443590811161054a57610bd890369060040161133d565b82151580610e14575b610bea9061159f565b82600052602091600483526040600020916009906009840193610c0d8554611825565b80865560089091018054600091825b828110610ddc575b50505015610d785790610c93969594939291600460405191610c45836112ca565b80835287830195865260408301938452610c9d606084019433865260808501924284528b60005260068b526040600020906000528a5260406000209451855560019b8c98516001870161171b565b516002850161171b565b600393600384019060018060a01b039051166bffffffffffffffffffffffff60a01b825416179055519101556000965b610d05575b7f5138483d623eef75882d5ca6ed33e44c7ecafe842f3311844eabf67a297ce76c604087878754908351928352820152a1005b8054871015610d735785610d18886117ea565b505414610d29579582019582610ccd565b5060409493929150610d5b7f5138483d623eef75882d5ca6ed33e44c7ecafe842f3311844eabf67a297ce76c966117ea565b5001610d678154611825565b90559091928580610cd2565b610cd2565b60405162461bcd60e51b815260048101879052603660248201527f4f6e6c792074686f73652077686f2068617665206a6f696e656420746865206160448201527536313ab69031b0b71030b2321030b71034b6b0b3b29760511b6064820152608490fd5b610de68183611691565b905460039190911b1c6001600160a01b03163314610e0657600101610c1c565b505050506001888080610c24565b50600154831115610be1565b3461054a57600036600319011261054a576020600154604051908152f35b3461054a57600036600319011261054a5760008060038054925b838110610fba5750610e82610e6c836114a9565b92610e7a6040519485611301565b8084526114a9565b60209390601f19018460005b828110610fa457505050906000916000905b808210610f0557604080518781528651818901819052600092600582901b8301810191898b01918b9085015b828710610ed95785850386f35b909192938280610ef5600193603f198a82030186528851611384565b9601920196019592919092610ecc565b90929460009492945b610f17856117ea565b50600880910154821015610f955781610f3a91610f33886117ea565b5001611691565b905490871b1c6001600160a01b03163314610f5757600101610f0e565b5094610f8a600191610f75610f6f87959698976117ea565b50611898565b610f7f8289611884565b526108a08188611884565b915b01909291610ea0565b50509490919392600190610f8c565b610fac611834565b828288010152018590610e8e565b909160005b610fc8836117ea565b506008809101548210156110185781610fe491610f33866117ea565b905490851b1c6001600160a01b0316331461100157600101610fbf565b50611010600191939293611825565b925b01610e58565b50509190600190611012565b3461054a57602036600319011261054a576004356001600160401b03811161054a5761105490369060040161133d565b61105f331515611645565b8051156110e45733600052600560205260406000208054600160401b8110156104385761109191600182018155611691565b610422578161109f9161171b565b7f34647a087c36357c4b77d3d7b4bc2b55d01c3ef8726dc75a70652d96e1510cc36110d56040519260408452604084019061128a565b914260208201528033930390a2005b60405162461bcd60e51b8152602060048201526011602482015270283632b0b9b29030b2321030903ab9361760791b6044820152606490fd5b3461054a5760208060031936011261054a57600435801515806111a7575b6111449061159f565b6000526004815261115b60086040600020016115eb565b906040519181839283018184528251809152816040850193019160005b82811061118757505050500390f35b83516001600160a01b031685528695509381019392810192600101611178565b5060015481111561113b565b3461054a57600036600319011261054a57336000526020600581526040600020908154916111e0836114a9565b926111ee6040519485611301565b8084528284018092600052836000206000915b8383106112685750505050604051918083019381845251809452604083019360408160051b85010192916000955b82871061123c5785850386f35b909192938280611258600193603f198a8203018652885161128a565b960192019601959291909261122f565b6001868192611279859a999a6114fa565b815201920192019190959495611201565b919082519283825260005b8481106112b6575050826000602080949584010152601f8019910116010190565b602081830181015184830182015201611295565b60a081019081106001600160401b0382111761043857604052565b61014081019081106001600160401b0382111761043857604052565b90601f801991011681019081106001600160401b0382111761043857604052565b6001600160401b03811161043857601f01601f191660200190565b81601f8201121561054a5780359061135482611322565b926113626040519485611301565b8284526020838301011161054a57816000926020809301838601378301015290565b90610140918051825260209260ff848301511684840152604082015160408401526113fb6113e96113d760608501519360018060a01b03809516606088015260808601519080608089015287019061128a565b60a085015186820360a088015261128a565b60c084015185820360c087015261128a565b60e083015160e0850152610100948584015195858303908601528080875193848152019601926000905b83821061143e5750505050506101208091015191015290565b8451811688529682019693820193600190910190611425565b908151815260808061148d61147b602086015160a0602087015260a086019061128a565b6040860151858203604087015261128a565b6060808601516001600160a01b03169085015293015191015290565b6001600160401b0381116104385760051b60200190565b90600182811c921680156114f0575b60208310146114da57565b634e487b7160e01b600052602260045260246000fd5b91607f16916114cf565b9060405191826000825461150d816114c0565b9081845260209460019160018116908160001461157d575060011461153e575b50505061153c92500383611301565b565b600090815285812095935091905b81831061156557505061153c935082010138808061152d565b8554888401850152948501948794509183019161154c565b9250505061153c94925060ff191682840152151560051b82010138808061152d565b156115a657565b60405162461bcd60e51b815260206004820152601960248201527f5468697320616c62756d20646f6573206e6f74206578697374000000000000006044820152606490fd5b90604051918281549182825260209260208301916000526020600020936000905b8282106116225750505061153c92500383611301565b85546001600160a01b03168452600195860195889550938101939091019061160c565b1561164c57565b60405162461bcd60e51b815260206004820152601a60248201527f4e6f207a65726f2061646472657373657320616c6c6f7765642e0000000000006044820152606490fd5b80548210156116a95760005260206000200190600090565b634e487b7160e01b600052603260045260246000fd5b8181106116ca575050565b600081556001016116bf565b9190601f81116116e557505050565b61153c926000526020600020906020601f840160051c83019310611711575b601f0160051c01906116bf565b9091508190611704565b91909182516001600160401b038111610438576117428161173c84546114c0565b846116d6565b602080601f83116001146117855750819061177693949560009261177a575b50508160011b916000199060031b1c19161790565b9055565b015190503880611761565b90601f19831695846000526020600020926000905b8882106117d2575050836001959697106117b9575b505050811b019055565b015160001960f88460031b161c191690553880806117af565b8060018596829496860151815501950193019061179a565b6003548110156116a957600a906003600052027fc2575a0e9e593c00f959f8c92f12db2869c3395a3b0502d05e2516446f71f85b0190600090565b600019811461046b5760010190565b60405190611841826112e5565b8161012060009182815282602082015282604082015282606082015260606080820152606060a0820152606060c08201528260e082015260606101008201520152565b80518210156116a95760209160051b010190565b906040516118a5816112e5565b82548152600183015460ff1660208201526002830154604082015260038301546001600160a01b03166060820152918290610120906009906118e9600482016114fa565b60808501526118fa600582016114fa565b60a085015261190b600682016114fa565b60c0850152600781015460e0850152611926600882016115eb565b6101008501520154910152565b8181029291811591840414171561046b57565b9190820391821161046b57565b3d1561197e573d9061196482611322565b916119726040519384611301565b82523d6000602084013e565b606090565b1561198a57565b60405162461bcd60e51b815260206004820152602260248201527f466565207061796d656e7420746f20616c62756d206f776e6572206661696c65604482015261321760f11b6064820152608490fd5b156119e157565b60405162461bcd60e51b815260206004820152602260248201527f466565207061796d656e7420746f207472796265206f776e6572206661696c65604482015261321760f11b6064820152608490fd5b8054600160401b81101561043857611a4e91600182018155611691565b60018060a09493941b038084549260031b9316831b921b1916179055565b15611a7357565b60405162461bcd60e51b815260206004820152603360248201527f4f6e6c792074686f73652077686f2068617665206a6f696e656420746865206160448201527236313ab69039b2b2903a34329030b6313ab69760691b6064820152608490fd5b60405190611ae1826112ca565b600060808382815260606020820152606060408201528260608201520152565b90604051611b0e816112ca565b60806004829480548452611b24600182016114fa565b6020850152611b35600282016114fa565b604085015260038101546001600160a01b031660608501520154910152565b90600160401b811161043857815490808355818110611b7257505050565b61153c92600052602060002091820191016116bf565b90808214611c6257611b9a81546114c0565b906001600160401b03821161043857611bbd82611bb785546114c0565b856116d6565b600090601f8311600114611bf857611776929160009183611bed5750508160011b916000199060031b1c19161790565b015490503880611761565b815260208082208483528183209291601f1985169083905b828210611c49575050908460019594939210611c3057505050811b019055565b015460001960f88460031b161c191690553880806117af565b8495819295850154815560018091019601940190611c10565b5050565b818114611c62578154916001600160401b03831161043857611c888383611b54565b60005260206000209060005260206000208154916000925b848410611cae575050505050565b600191820180546001600160a01b0390921684860155939091019290611ca056fea26469706673582212204bd3cdf8b9bd722b539cd23c354b6d531965bca4b2d001c134ee9ae9934cc4ae64736f6c63430008180033",
          "opcodes": "PUSH1 0x80 CALLVALUE PUSH2 0x66 JUMPI PUSH1 0x1F PUSH2 0x1D87 CODESIZE DUP2 SWAP1 SUB SWAP2 DUP3 ADD PUSH1 0x1F NOT AND DUP4 ADD SWAP2 PUSH1 0x1 PUSH1 0x1 PUSH1 0x40 SHL SUB DUP4 GT DUP5 DUP5 LT OR PUSH2 0x6B JUMPI DUP1 DUP5 SWAP3 PUSH1 0x20 SWAP5 PUSH1 0x40 MSTORE DUP4 CODECOPY DUP2 ADD SUB SLT PUSH2 0x66 JUMPI MLOAD PUSH1 0x0 DUP1 SLOAD PUSH1 0x1 PUSH1 0x1 PUSH1 0xA0 SHL SUB NOT AND CALLER OR DUP2 SSTORE PUSH1 0x1 SSTORE PUSH1 0x2 SSTORE PUSH1 0x40 MLOAD PUSH2 0x1D05 SWAP1 DUP2 PUSH2 0x82 DUP3 CODECOPY RETURN JUMPDEST PUSH1 0x0 DUP1 REVERT JUMPDEST PUSH4 0x4E487B71 PUSH1 0xE0 SHL PUSH1 0x0 MSTORE PUSH1 0x41 PUSH1 0x4 MSTORE PUSH1 0x24 PUSH1 0x0 REVERT INVALID PUSH1 0x80 PUSH1 0x40 MSTORE PUSH1 0x4 CALLDATASIZE LT ISZERO PUSH2 0x12 JUMPI PUSH1 0x0 DUP1 REVERT JUMPDEST PUSH1 0x0 CALLDATALOAD PUSH1 0xE0 SHR DUP1 PUSH4 0x11498334 EQ PUSH2 0x11B3 JUMPI DUP1 PUSH4 0x3B8F313B EQ PUSH2 0x111D JUMPI DUP1 PUSH4 0x42CE1488 EQ PUSH2 0x1024 JUMPI DUP1 PUSH4 0x5C517234 EQ PUSH2 0xE3E JUMPI DUP1 PUSH4 0x6D49F8CC EQ PUSH2 0xE20 JUMPI DUP1 PUSH4 0x6F4E27F0 EQ PUSH2 0xB8B JUMPI DUP1 PUSH4 0x87B9C24D EQ PUSH2 0xAC6 JUMPI DUP1 PUSH4 0x8D84D7FC EQ PUSH2 0x90D JUMPI DUP1 PUSH4 0x8DA5CB5B EQ PUSH2 0x8E4 JUMPI DUP1 PUSH4 0xB027A787 EQ PUSH2 0x721 JUMPI DUP1 PUSH4 0xCED038D1 EQ PUSH2 0x5DA JUMPI DUP1 PUSH4 0xD6E465C9 EQ PUSH2 0x56F JUMPI PUSH4 0xF3187157 EQ PUSH2 0xAB JUMPI PUSH1 0x0 DUP1 REVERT JUMPDEST CALLVALUE PUSH2 0x54A JUMPI PUSH1 0xC0 CALLDATASIZE PUSH1 0x3 NOT ADD SLT PUSH2 0x54A JUMPI PUSH1 0x4 CALLDATALOAD PUSH1 0x1 PUSH1 0x1 PUSH1 0x40 SHL SUB DUP2 GT PUSH2 0x54A JUMPI PUSH2 0xDB SWAP1 CALLDATASIZE SWAP1 PUSH1 0x4 ADD PUSH2 0x133D JUMP JUMPDEST PUSH1 0x24 CALLDATALOAD PUSH1 0x1 PUSH1 0x1 PUSH1 0x40 SHL SUB DUP2 GT PUSH2 0x54A JUMPI PUSH2 0xFA SWAP1 CALLDATASIZE SWAP1 PUSH1 0x4 ADD PUSH2 0x133D JUMP JUMPDEST PUSH1 0x44 CALLDATALOAD SWAP2 PUSH1 0x1 PUSH1 0x1 PUSH1 0x40 SHL SUB DUP4 GT PUSH2 0x54A JUMPI CALLDATASIZE PUSH1 0x23 DUP5 ADD SLT ISZERO PUSH2 0x54A JUMPI DUP3 PUSH1 0x4 ADD CALLDATALOAD PUSH2 0x125 DUP2 PUSH2 0x14A9 JUMP JUMPDEST SWAP4 PUSH2 0x133 PUSH1 0x40 MLOAD SWAP6 DUP7 PUSH2 0x1301 JUMP JUMPDEST DUP2 DUP6 MSTORE PUSH1 0x24 PUSH1 0x20 DUP7 ADD SWAP3 PUSH1 0x5 SHL DUP3 ADD ADD SWAP1 CALLDATASIZE DUP3 GT PUSH2 0x54A JUMPI PUSH1 0x24 ADD SWAP2 JUMPDEST DUP2 DUP4 LT PUSH2 0x54F JUMPI POP POP POP PUSH1 0x64 CALLDATALOAD PUSH1 0x1 PUSH1 0x1 PUSH1 0x40 SHL SUB DUP2 GT PUSH2 0x54A JUMPI PUSH2 0x179 SWAP1 CALLDATASIZE SWAP1 PUSH1 0x4 ADD PUSH2 0x133D JUMP JUMPDEST SWAP1 PUSH1 0x84 CALLDATALOAD SWAP3 PUSH1 0xFF DUP5 AND DUP5 SUB PUSH2 0x54A JUMPI PUSH2 0x193 CALLER ISZERO ISZERO PUSH2 0x1645 JUMP JUMPDEST DUP2 MLOAD ISZERO PUSH2 0x510 JUMPI DUP1 MLOAD ISZERO PUSH2 0x48F JUMPI PUSH2 0x1AC PUSH1 0x1 SLOAD PUSH2 0x1825 JUMP JUMPDEST SWAP1 DUP2 PUSH1 0x1 SSTORE DUP6 MLOAD SWAP4 PUSH1 0x1 DUP6 ADD DUP1 SWAP6 GT PUSH2 0x46B JUMPI PUSH2 0x1E1 PUSH2 0x1CB DUP7 PUSH2 0x14A9 JUMP JUMPDEST SWAP6 PUSH2 0x1D9 PUSH1 0x40 MLOAD SWAP8 DUP9 PUSH2 0x1301 JUMP JUMPDEST DUP1 DUP8 MSTORE PUSH2 0x14A9 JUMP JUMPDEST PUSH1 0x1F NOT ADD CALLDATASIZE PUSH1 0x20 DUP8 ADD CALLDATACOPY PUSH1 0x0 JUMPDEST DUP8 MLOAD DUP2 LT ISZERO PUSH2 0x21F JUMPI PUSH1 0x1 SWAP1 PUSH1 0x1 PUSH1 0x1 PUSH1 0xA0 SHL SUB PUSH2 0x20C DUP3 DUP12 PUSH2 0x1884 JUMP JUMPDEST MLOAD AND PUSH2 0x218 DUP3 DUP10 PUSH2 0x1884 JUMP JUMPDEST MSTORE ADD PUSH2 0x1EE JUMP JUMPDEST POP SWAP1 DUP5 SWAP2 PUSH1 0x1 PUSH1 0xFF DUP9 DUP11 PUSH2 0x235 CALLER SWAP2 MLOAD DUP9 PUSH2 0x1884 JUMP JUMPDEST MSTORE DUP7 PUSH1 0x0 MSTORE PUSH1 0x4 PUSH1 0x20 MSTORE PUSH1 0x40 PUSH1 0x0 KECCAK256 SWAP7 DUP8 SSTORE DUP2 DUP2 AND DUP3 NOT DUP5 DUP10 ADD SLOAD AND OR DUP4 DUP9 ADD SSTORE AND EQ PUSH1 0x0 EQ PUSH2 0x481 JUMPI PUSH8 0xDE0B6B3A7640000 DUP1 PUSH1 0xA4 CALLDATALOAD MUL SWAP1 PUSH1 0xA4 CALLDATALOAD DUP3 DIV EQ PUSH1 0xA4 CALLDATALOAD ISZERO OR ISZERO PUSH2 0x46B JUMPI PUSH2 0x2C3 SWAP3 PUSH2 0x3E8 PUSH2 0x2BA SWAP3 DIV JUMPDEST PUSH1 0x2 DUP8 ADD SSTORE PUSH1 0x3 DUP7 ADD DUP1 SLOAD PUSH1 0x1 PUSH1 0x1 PUSH1 0xA0 SHL SUB NOT AND CALLER OR SWAP1 SSTORE PUSH2 0x2B1 DUP8 PUSH1 0x4 DUP9 ADD PUSH2 0x171B JUMP JUMPDEST PUSH1 0x5 DUP7 ADD PUSH2 0x171B JUMP JUMPDEST PUSH1 0x6 DUP5 ADD PUSH2 0x171B JUMP JUMPDEST TIMESTAMP PUSH1 0x7 DUP4 ADD SSTORE DUP1 MLOAD SWAP1 PUSH1 0x1 PUSH1 0x1 PUSH1 0x40 SHL SUB DUP3 GT PUSH2 0x438 JUMPI PUSH1 0x20 SWAP1 PUSH2 0x2EA DUP4 PUSH1 0x8 DUP7 ADD PUSH2 0x1B54 JUMP JUMPDEST ADD PUSH1 0x8 DUP4 ADD PUSH1 0x0 MSTORE PUSH1 0x20 PUSH1 0x0 KECCAK256 PUSH1 0x0 JUMPDEST DUP4 DUP2 LT PUSH2 0x44E JUMPI DUP6 DUP6 PUSH1 0x0 PUSH1 0x9 DUP3 ADD SSTORE PUSH1 0x3 SLOAD PUSH1 0x1 PUSH1 0x40 SHL DUP2 LT ISZERO PUSH2 0x438 JUMPI DUP1 PUSH1 0x1 PUSH2 0x329 SWAP3 ADD PUSH1 0x3 SSTORE PUSH2 0x17EA JUMP JUMPDEST SWAP2 SWAP1 SWAP2 PUSH2 0x422 JUMPI DUP1 DUP3 SUB PUSH2 0x37E JUMPI JUMPDEST PUSH1 0x1 SLOAD PUSH1 0x40 DUP1 MLOAD DUP2 DUP2 MSTORE PUSH32 0xD3CC7C228A9442B3E32B7FB9E7AC4298594EEB118C36CBFBAF73FEEF8394627D SWAP2 PUSH2 0x370 SWAP1 DUP3 ADD DUP8 PUSH2 0x128A JUMP JUMPDEST SWAP3 PUSH1 0x20 DUP3 ADD MSTORE DUP1 CALLER SWAP4 SUB SWAP1 LOG2 STOP JUMPDEST PUSH1 0x9 DUP2 DUP2 SWAP3 SLOAD DUP5 SSTORE PUSH1 0x1 DUP5 ADD PUSH1 0xFF PUSH1 0x1 DUP4 ADD SLOAD AND PUSH1 0xFF NOT DUP3 SLOAD AND OR SWAP1 SSTORE PUSH1 0x2 DUP2 ADD SLOAD PUSH1 0x2 DUP6 ADD SSTORE PUSH1 0x3 DUP5 ADD PUSH1 0x1 DUP1 PUSH1 0xA0 SHL SUB PUSH1 0x3 DUP4 ADD SLOAD AND PUSH12 0xFFFFFFFFFFFFFFFFFFFFFFFF PUSH1 0xA0 SHL DUP3 SLOAD AND OR SWAP1 SSTORE PUSH2 0x3DC PUSH1 0x4 DUP3 ADD PUSH1 0x4 DUP7 ADD PUSH2 0x1B88 JUMP JUMPDEST PUSH2 0x3EC PUSH1 0x5 DUP3 ADD PUSH1 0x5 DUP7 ADD PUSH2 0x1B88 JUMP JUMPDEST PUSH2 0x3FC PUSH1 0x6 DUP3 ADD PUSH1 0x6 DUP7 ADD PUSH2 0x1B88 JUMP JUMPDEST PUSH1 0x7 DUP2 ADD SLOAD PUSH1 0x7 DUP6 ADD SSTORE PUSH2 0x416 PUSH1 0x8 DUP3 ADD PUSH1 0x8 DUP7 ADD PUSH2 0x1C66 JUMP JUMPDEST ADD SLOAD SWAP2 ADD SSTORE DUP2 DUP1 PUSH2 0x338 JUMP JUMPDEST PUSH4 0x4E487B71 PUSH1 0xE0 SHL PUSH1 0x0 MSTORE PUSH1 0x0 PUSH1 0x4 MSTORE PUSH1 0x24 PUSH1 0x0 REVERT JUMPDEST PUSH4 0x4E487B71 PUSH1 0xE0 SHL PUSH1 0x0 MSTORE PUSH1 0x41 PUSH1 0x4 MSTORE PUSH1 0x24 PUSH1 0x0 REVERT JUMPDEST DUP3 MLOAD PUSH1 0x1 PUSH1 0x1 PUSH1 0xA0 SHL SUB AND DUP2 DUP4 ADD SSTORE PUSH1 0x20 SWAP1 SWAP3 ADD SWAP2 PUSH1 0x1 ADD PUSH2 0x2FA JUMP JUMPDEST PUSH4 0x4E487B71 PUSH1 0xE0 SHL PUSH1 0x0 MSTORE PUSH1 0x11 PUSH1 0x4 MSTORE PUSH1 0x24 PUSH1 0x0 REVERT JUMPDEST PUSH2 0x2BA PUSH2 0x2C3 SWAP3 PUSH1 0x0 PUSH2 0x28B JUMP JUMPDEST PUSH1 0x40 MLOAD PUSH3 0x461BCD PUSH1 0xE5 SHL DUP2 MSTORE PUSH1 0x20 PUSH1 0x4 DUP3 ADD MSTORE PUSH1 0x4D PUSH1 0x24 DUP3 ADD MSTORE PUSH32 0x446573637269626520796F757220616C62756D20746F206C6574207468652077 PUSH1 0x44 DUP3 ADD MSTORE PUSH32 0x6F726C64206B6E6F7720686F7720796F752066656C74207768656E20796F7520 PUSH1 0x64 DUP3 ADD MSTORE PUSH13 0x31B932B0BA32B2103A3434B997 PUSH1 0x99 SHL PUSH1 0x84 DUP3 ADD MSTORE PUSH1 0xA4 SWAP1 REVERT JUMPDEST PUSH1 0x40 MLOAD PUSH3 0x461BCD PUSH1 0xE5 SHL DUP2 MSTORE PUSH1 0x20 PUSH1 0x4 DUP3 ADD MSTORE PUSH1 0x12 PUSH1 0x24 DUP3 ADD MSTORE PUSH18 0x283632B0B9B29030B2321030903730B6B297 PUSH1 0x71 SHL PUSH1 0x44 DUP3 ADD MSTORE PUSH1 0x64 SWAP1 REVERT JUMPDEST PUSH1 0x0 DUP1 REVERT JUMPDEST DUP3 CALLDATALOAD PUSH1 0x1 PUSH1 0x1 PUSH1 0xA0 SHL SUB DUP2 AND DUP2 SUB PUSH2 0x54A JUMPI DUP2 MSTORE PUSH1 0x20 SWAP3 DUP4 ADD SWAP3 ADD PUSH2 0x150 JUMP JUMPDEST CALLVALUE PUSH2 0x54A JUMPI PUSH1 0x20 CALLDATASIZE PUSH1 0x3 NOT ADD SLT PUSH2 0x54A JUMPI PUSH1 0x4 CALLDATALOAD PUSH2 0x58B PUSH2 0x1834 JUMP JUMPDEST POP DUP1 ISZERO ISZERO DUP1 PUSH2 0x5CE JUMPI JUMPDEST PUSH2 0x59E SWAP1 PUSH2 0x159F JUMP JUMPDEST PUSH1 0x0 MSTORE PUSH1 0x4 PUSH1 0x20 MSTORE PUSH2 0x5CA PUSH2 0x5B6 PUSH1 0x40 PUSH1 0x0 KECCAK256 PUSH2 0x1898 JUMP JUMPDEST PUSH1 0x40 MLOAD SWAP2 DUP3 SWAP2 PUSH1 0x20 DUP4 MSTORE PUSH1 0x20 DUP4 ADD SWAP1 PUSH2 0x1384 JUMP JUMPDEST SUB SWAP1 RETURN JUMPDEST POP PUSH1 0x1 SLOAD DUP2 GT ISZERO PUSH2 0x595 JUMP JUMPDEST CALLVALUE PUSH2 0x54A JUMPI PUSH1 0x40 CALLDATASIZE PUSH1 0x3 NOT ADD SLT PUSH2 0x54A JUMPI PUSH1 0x24 CALLDATALOAD PUSH1 0x4 CALLDATALOAD PUSH2 0x5F9 PUSH2 0x1AD4 JUMP JUMPDEST POP DUP1 ISZERO ISZERO DUP1 PUSH2 0x715 JUMPI JUMPDEST PUSH2 0x60C SWAP1 PUSH2 0x159F JUMP JUMPDEST DUP2 ISZERO ISZERO DUP1 PUSH2 0x6FA JUMPI JUMPDEST ISZERO PUSH2 0x6B5 JUMPI PUSH1 0x0 SWAP1 PUSH1 0x0 JUMPDEST DUP2 PUSH1 0x0 MSTORE PUSH1 0x4 PUSH1 0x20 MSTORE PUSH1 0x8 PUSH1 0x40 PUSH1 0x0 KECCAK256 ADD DUP1 SLOAD DUP3 LT ISZERO PUSH2 0x6A9 JUMPI DUP2 PUSH2 0x644 SWAP2 PUSH2 0x1691 JUMP JUMPDEST SWAP1 SLOAD PUSH1 0x3 SWAP2 SWAP1 SWAP2 SHL SHR PUSH1 0x1 PUSH1 0x1 PUSH1 0xA0 SHL SUB AND CALLER EQ PUSH2 0x664 JUMPI PUSH1 0x1 ADD PUSH2 0x620 JUMP JUMPDEST POP SWAP1 POP PUSH2 0x671 PUSH1 0x1 PUSH2 0x1A6C JUMP JUMPDEST PUSH1 0x0 MSTORE PUSH1 0x6 PUSH1 0x20 MSTORE PUSH1 0x40 PUSH1 0x0 KECCAK256 SWAP1 PUSH1 0x0 MSTORE PUSH1 0x20 MSTORE PUSH2 0x5CA PUSH2 0x695 PUSH1 0x40 PUSH1 0x0 KECCAK256 PUSH2 0x1B01 JUMP JUMPDEST PUSH1 0x40 MLOAD SWAP2 DUP3 SWAP2 PUSH1 0x20 DUP4 MSTORE PUSH1 0x20 DUP4 ADD SWAP1 PUSH2 0x1457 JUMP JUMPDEST POP POP SWAP1 PUSH2 0x671 SWAP1 PUSH2 0x1A6C JUMP JUMPDEST PUSH1 0x40 MLOAD PUSH3 0x461BCD PUSH1 0xE5 SHL DUP2 MSTORE PUSH1 0x20 PUSH1 0x4 DUP3 ADD MSTORE PUSH1 0x19 PUSH1 0x24 DUP3 ADD MSTORE PUSH32 0x5468697320696D61676520646F6573206E6F7420657869737400000000000000 PUSH1 0x44 DUP3 ADD MSTORE PUSH1 0x64 SWAP1 REVERT JUMPDEST POP DUP1 PUSH1 0x0 MSTORE PUSH1 0x4 PUSH1 0x20 MSTORE PUSH1 0x9 PUSH1 0x40 PUSH1 0x0 KECCAK256 ADD SLOAD DUP3 GT ISZERO PUSH2 0x615 JUMP JUMPDEST POP PUSH1 0x1 SLOAD DUP2 GT ISZERO PUSH2 0x603 JUMP JUMPDEST CALLVALUE PUSH2 0x54A JUMPI PUSH1 0x20 DUP1 PUSH1 0x3 NOT CALLDATASIZE ADD SLT PUSH2 0x54A JUMPI PUSH1 0x4 CALLDATALOAD SWAP1 DUP2 ISZERO ISZERO DUP1 PUSH2 0x8D8 JUMPI JUMPDEST PUSH2 0x749 SWAP1 PUSH2 0x159F JUMP JUMPDEST DUP2 PUSH1 0x0 MSTORE PUSH1 0x4 DUP2 MSTORE PUSH1 0x40 PUSH1 0x0 KECCAK256 SWAP1 PUSH1 0x0 SWAP2 PUSH1 0x0 JUMPDEST DUP5 PUSH1 0x0 MSTORE PUSH1 0x4 DUP4 MSTORE PUSH1 0x8 PUSH1 0x40 PUSH1 0x0 KECCAK256 ADD DUP1 SLOAD DUP3 LT ISZERO PUSH2 0x8CA JUMPI DUP2 PUSH2 0x780 SWAP2 PUSH2 0x1691 JUMP JUMPDEST SWAP1 SLOAD PUSH1 0x3 SWAP2 SWAP1 SWAP2 SHL SHR PUSH1 0x1 PUSH1 0x1 PUSH1 0xA0 SHL SUB AND CALLER EQ PUSH2 0x7A0 JUMPI PUSH1 0x1 ADD PUSH2 0x75D JUMP JUMPDEST POP PUSH1 0x9 SWAP2 SWAP3 POP PUSH2 0x7B0 PUSH1 0x1 PUSH2 0x1A6C JUMP JUMPDEST ADD SLOAD SWAP2 PUSH2 0x7BC DUP4 PUSH2 0x14A9 JUMP JUMPDEST SWAP3 PUSH2 0x7CA PUSH1 0x40 MLOAD SWAP5 DUP6 PUSH2 0x1301 JUMP JUMPDEST DUP1 DUP5 MSTORE PUSH2 0x7D6 DUP2 PUSH2 0x14A9 JUMP JUMPDEST PUSH1 0x1F NOT ADD PUSH1 0x0 JUMPDEST DUP2 DUP2 LT PUSH2 0x8AE JUMPI POP POP PUSH1 0x1 SWAP2 PUSH1 0x1 JUMPDEST DUP3 DUP2 GT ISZERO PUSH2 0x856 JUMPI POP POP POP PUSH1 0x40 MLOAD SWAP2 DUP1 DUP4 ADD DUP2 DUP5 MSTORE DUP5 MLOAD DUP1 SWAP2 MSTORE PUSH1 0x40 DUP5 ADD SWAP2 DUP1 PUSH1 0x40 DUP4 PUSH1 0x5 SHL DUP8 ADD ADD SWAP7 ADD SWAP3 PUSH1 0x0 SWAP1 JUMPDEST DUP4 DUP3 LT PUSH2 0x829 JUMPI DUP7 DUP9 SUB DUP8 RETURN JUMPDEST SWAP1 SWAP2 SWAP3 SWAP4 SWAP5 DUP4 DUP1 PUSH2 0x845 DUP4 SWAP11 PUSH1 0x3F NOT DUP12 DUP3 SUB ADD DUP7 MSTORE DUP10 MLOAD PUSH2 0x1457 JUMP JUMPDEST SWAP10 SWAP8 ADD SWAP6 SWAP5 SWAP4 SWAP2 SWAP1 SWAP2 ADD SWAP2 ADD PUSH2 0x81C JUMP JUMPDEST DUP2 PUSH1 0x0 SWAP7 SWAP5 SWAP7 MSTORE PUSH1 0x6 DUP6 MSTORE PUSH1 0x40 PUSH1 0x0 KECCAK256 DUP2 PUSH1 0x0 MSTORE DUP6 MSTORE PUSH1 0x40 PUSH1 0x0 KECCAK256 SWAP1 PUSH1 0x0 NOT DUP2 ADD SWAP2 DUP2 DUP4 GT PUSH2 0x46B JUMPI PUSH2 0x8A6 SWAP3 PUSH2 0x88F PUSH2 0x8A0 SWAP3 PUSH2 0x1B01 JUMP JUMPDEST PUSH2 0x899 DUP3 DUP10 PUSH2 0x1884 JUMP JUMPDEST MSTORE DUP7 PUSH2 0x1884 JUMP JUMPDEST POP PUSH2 0x1825 JUMP JUMPDEST SWAP5 SWAP3 SWAP5 PUSH2 0x7EC JUMP JUMPDEST DUP5 SWAP1 PUSH2 0x8BB SWAP7 SWAP5 SWAP7 PUSH2 0x1AD4 JUMP JUMPDEST DUP3 DUP3 DUP8 ADD ADD MSTORE ADD SWAP5 SWAP3 SWAP5 PUSH2 0x7DD JUMP JUMPDEST POP POP PUSH2 0x7B0 PUSH1 0x9 SWAP3 SWAP4 PUSH2 0x1A6C JUMP JUMPDEST POP PUSH1 0x1 SLOAD DUP3 GT ISZERO PUSH2 0x740 JUMP JUMPDEST CALLVALUE PUSH2 0x54A JUMPI PUSH1 0x0 CALLDATASIZE PUSH1 0x3 NOT ADD SLT PUSH2 0x54A JUMPI PUSH1 0x0 SLOAD PUSH1 0x40 MLOAD PUSH1 0x1 PUSH1 0x1 PUSH1 0xA0 SHL SUB SWAP1 SWAP2 AND DUP2 MSTORE PUSH1 0x20 SWAP1 RETURN JUMPDEST PUSH1 0x20 CALLDATASIZE PUSH1 0x3 NOT ADD SLT PUSH2 0x54A JUMPI PUSH1 0x4 CALLDATALOAD DUP1 ISZERO ISZERO DUP1 PUSH2 0xABA JUMPI JUMPDEST PUSH2 0x92E SWAP1 PUSH2 0x159F JUMP JUMPDEST DUP1 PUSH1 0x0 MSTORE PUSH1 0x4 PUSH1 0x20 MSTORE PUSH1 0x40 PUSH1 0x0 KECCAK256 SWAP1 PUSH1 0x1 DUP1 DUP4 ADD SWAP2 PUSH1 0xFF DUP4 SLOAD AND ISZERO DUP1 ISZERO PUSH2 0xAAC JUMPI JUMPDEST ISZERO PUSH2 0xA67 JUMPI SWAP1 DUP1 SWAP3 SWAP2 PUSH1 0x8 SWAP1 PUSH2 0x969 CALLER PUSH1 0x8 DUP9 ADD PUSH2 0x1A31 JUMP JUMPDEST PUSH1 0x0 SWAP5 JUMPDEST PUSH2 0xA17 JUMPI JUMPDEST POP POP POP PUSH1 0x1 SWAP2 POP PUSH1 0xFF SWAP1 SLOAD AND EQ PUSH2 0x9B2 JUMPI JUMPDEST PUSH1 0x40 MLOAD TIMESTAMP DUP2 MSTORE PUSH32 0x59A4DADCE245655CE4C5EA128F142C4034B1206DEFF52FF605866CD86433DE81 PUSH1 0x20 CALLER SWAP3 LOG2 STOP JUMPDEST PUSH1 0x0 DUP1 DUP1 DUP1 PUSH2 0xA11 SWAP5 PUSH1 0x3 PUSH2 0x9FE DUP4 DUP1 DUP1 DUP1 PUSH1 0x64 PUSH2 0x9D3 PUSH1 0x2 SLOAD CALLVALUE SWAP1 PUSH2 0x1933 JUMP JUMPDEST DIV SWAP7 PUSH2 0x9DF DUP9 CALLVALUE PUSH2 0x1946 JUMP JUMPDEST SWAP7 ADD SLOAD PUSH1 0x1 PUSH1 0x1 PUSH1 0xA0 SHL SUB SWAP7 SWAP1 DUP8 AND GAS CALL PUSH2 0x9F8 PUSH2 0x1953 JUMP JUMPDEST POP PUSH2 0x1983 JUMP JUMPDEST DUP3 SLOAD AND GAS CALL PUSH2 0xA0B PUSH2 0x1953 JUMP JUMPDEST POP PUSH2 0x19DA JUMP JUMPDEST DUP1 PUSH2 0x984 JUMP JUMPDEST PUSH1 0x3 SLOAD DUP6 LT ISZERO PUSH2 0xA62 JUMPI DUP1 PUSH2 0xA2B DUP7 PUSH2 0x17EA JUMP JUMPDEST POP SLOAD EQ PUSH2 0xA3C JUMPI SWAP4 DUP3 ADD SWAP4 DUP3 PUSH2 0x96D JUMP JUMPDEST POP PUSH1 0xFF SWAP3 SWAP2 POP PUSH2 0xA5A SWAP1 PUSH2 0xA51 PUSH1 0x1 SWAP6 PUSH2 0x17EA JUMP JUMPDEST POP CALLER SWAP2 ADD PUSH2 0x1A31 JUMP JUMPDEST SWAP1 DUP5 DUP1 PUSH2 0x972 JUMP JUMPDEST PUSH2 0x972 JUMP JUMPDEST PUSH1 0x40 MLOAD PUSH3 0x461BCD PUSH1 0xE5 SHL DUP2 MSTORE PUSH1 0x20 PUSH1 0x4 DUP3 ADD MSTORE PUSH1 0x18 PUSH1 0x24 DUP3 ADD MSTORE PUSH32 0x546869732069732061207072697661746520616C62756D2E0000000000000000 PUSH1 0x44 DUP3 ADD MSTORE PUSH1 0x64 SWAP1 REVERT JUMPDEST POP PUSH1 0x2 DUP5 ADD SLOAD CALLVALUE LT ISZERO PUSH2 0x950 JUMP JUMPDEST POP PUSH1 0x1 SLOAD DUP2 GT ISZERO PUSH2 0x925 JUMP JUMPDEST PUSH1 0x20 CALLDATASIZE PUSH1 0x3 NOT ADD SLT PUSH2 0x54A JUMPI PUSH1 0x4 CALLDATALOAD DUP1 ISZERO ISZERO DUP1 PUSH2 0xB7F JUMPI JUMPDEST PUSH2 0xAE7 SWAP1 PUSH2 0x159F JUMP JUMPDEST PUSH1 0x0 MSTORE PUSH1 0x4 PUSH1 0x20 MSTORE PUSH1 0x40 PUSH1 0x0 KECCAK256 PUSH1 0xFF PUSH1 0x1 DUP3 ADD SLOAD AND ISZERO DUP1 ISZERO PUSH2 0xB71 JUMPI JUMPDEST ISZERO PUSH2 0xB2C JUMPI PUSH1 0x0 DUP1 DUP1 DUP1 PUSH2 0xB2A SWAP5 PUSH1 0x3 PUSH2 0x9FE DUP4 DUP1 DUP1 DUP1 PUSH1 0x64 PUSH2 0x9D3 PUSH1 0x2 SLOAD CALLVALUE SWAP1 PUSH2 0x1933 JUMP JUMPDEST STOP JUMPDEST PUSH1 0x40 MLOAD PUSH3 0x461BCD PUSH1 0xE5 SHL DUP2 MSTORE PUSH1 0x20 PUSH1 0x4 DUP3 ADD MSTORE PUSH1 0x1E PUSH1 0x24 DUP3 ADD MSTORE PUSH32 0x546869732069732061207072697661746520616C62756D20696D6167652E0000 PUSH1 0x44 DUP3 ADD MSTORE PUSH1 0x64 SWAP1 REVERT JUMPDEST POP PUSH1 0x2 DUP2 ADD SLOAD CALLVALUE LT ISZERO PUSH2 0xB04 JUMP JUMPDEST POP PUSH1 0x1 SLOAD DUP2 GT ISZERO PUSH2 0xADE JUMP JUMPDEST CALLVALUE PUSH2 0x54A JUMPI PUSH1 0x60 CALLDATASIZE PUSH1 0x3 NOT ADD SLT PUSH2 0x54A JUMPI PUSH1 0x4 CALLDATALOAD PUSH1 0x1 PUSH1 0x1 PUSH1 0x40 SHL SUB PUSH1 0x24 CALLDATALOAD DUP2 DUP2 GT PUSH2 0x54A JUMPI PUSH2 0xBBF SWAP1 CALLDATASIZE SWAP1 PUSH1 0x4 ADD PUSH2 0x133D JUMP JUMPDEST SWAP1 PUSH1 0x44 CALLDATALOAD SWAP1 DUP2 GT PUSH2 0x54A JUMPI PUSH2 0xBD8 SWAP1 CALLDATASIZE SWAP1 PUSH1 0x4 ADD PUSH2 0x133D JUMP JUMPDEST DUP3 ISZERO ISZERO DUP1 PUSH2 0xE14 JUMPI JUMPDEST PUSH2 0xBEA SWAP1 PUSH2 0x159F JUMP JUMPDEST DUP3 PUSH1 0x0 MSTORE PUSH1 0x20 SWAP2 PUSH1 0x4 DUP4 MSTORE PUSH1 0x40 PUSH1 0x0 KECCAK256 SWAP2 PUSH1 0x9 SWAP1 PUSH1 0x9 DUP5 ADD SWAP4 PUSH2 0xC0D DUP6 SLOAD PUSH2 0x1825 JUMP JUMPDEST DUP1 DUP7 SSTORE PUSH1 0x8 SWAP1 SWAP2 ADD DUP1 SLOAD PUSH1 0x0 SWAP2 DUP3 JUMPDEST DUP3 DUP2 LT PUSH2 0xDDC JUMPI JUMPDEST POP POP POP ISZERO PUSH2 0xD78 JUMPI SWAP1 PUSH2 0xC93 SWAP7 SWAP6 SWAP5 SWAP4 SWAP3 SWAP2 PUSH1 0x4 PUSH1 0x40 MLOAD SWAP2 PUSH2 0xC45 DUP4 PUSH2 0x12CA JUMP JUMPDEST DUP1 DUP4 MSTORE DUP8 DUP4 ADD SWAP6 DUP7 MSTORE PUSH1 0x40 DUP4 ADD SWAP4 DUP5 MSTORE PUSH2 0xC9D PUSH1 0x60 DUP5 ADD SWAP5 CALLER DUP7 MSTORE PUSH1 0x80 DUP6 ADD SWAP3 TIMESTAMP DUP5 MSTORE DUP12 PUSH1 0x0 MSTORE PUSH1 0x6 DUP12 MSTORE PUSH1 0x40 PUSH1 0x0 KECCAK256 SWAP1 PUSH1 0x0 MSTORE DUP11 MSTORE PUSH1 0x40 PUSH1 0x0 KECCAK256 SWAP5 MLOAD DUP6 SSTORE PUSH1 0x1 SWAP12 DUP13 SWAP9 MLOAD PUSH1 0x1 DUP8 ADD PUSH2 0x171B JUMP JUMPDEST MLOAD PUSH1 0x2 DUP6 ADD PUSH2 0x171B JUMP JUMPDEST PUSH1 0x3 SWAP4 PUSH1 0x3 DUP5 ADD SWAP1 PUSH1 0x1 DUP1 PUSH1 0xA0 SHL SUB SWAP1 MLOAD AND PUSH12 0xFFFFFFFFFFFFFFFFFFFFFFFF PUSH1 0xA0 SHL DUP3 SLOAD AND OR SWAP1 SSTORE MLOAD SWAP2 ADD SSTORE PUSH1 0x0 SWAP7 JUMPDEST PUSH2 0xD05 JUMPI JUMPDEST PUSH32 0x5138483D623EEF75882D5CA6ED33E44C7ECAFE842F3311844EABF67A297CE76C PUSH1 0x40 DUP8 DUP8 DUP8 SLOAD SWAP1 DUP4 MLOAD SWAP3 DUP4 MSTORE DUP3 ADD MSTORE LOG1 STOP JUMPDEST DUP1 SLOAD DUP8 LT ISZERO PUSH2 0xD73 JUMPI DUP6 PUSH2 0xD18 DUP9 PUSH2 0x17EA JUMP JUMPDEST POP SLOAD EQ PUSH2 0xD29 JUMPI SWAP6 DUP3 ADD SWAP6 DUP3 PUSH2 0xCCD JUMP JUMPDEST POP PUSH1 0x40 SWAP5 SWAP4 SWAP3 SWAP2 POP PUSH2 0xD5B PUSH32 0x5138483D623EEF75882D5CA6ED33E44C7ECAFE842F3311844EABF67A297CE76C SWAP7 PUSH2 0x17EA JUMP JUMPDEST POP ADD PUSH2 0xD67 DUP2 SLOAD PUSH2 0x1825 JUMP JUMPDEST SWAP1 SSTORE SWAP1 SWAP2 SWAP3 DUP6 DUP1 PUSH2 0xCD2 JUMP JUMPDEST PUSH2 0xCD2 JUMP JUMPDEST PUSH1 0x40 MLOAD PUSH3 0x461BCD PUSH1 0xE5 SHL DUP2 MSTORE PUSH1 0x4 DUP2 ADD DUP8 SWAP1 MSTORE PUSH1 0x36 PUSH1 0x24 DUP3 ADD MSTORE PUSH32 0x4F6E6C792074686F73652077686F2068617665206A6F696E6564207468652061 PUSH1 0x44 DUP3 ADD MSTORE PUSH22 0x36313AB69031B0B71030B2321030B71034B6B0B3B297 PUSH1 0x51 SHL PUSH1 0x64 DUP3 ADD MSTORE PUSH1 0x84 SWAP1 REVERT JUMPDEST PUSH2 0xDE6 DUP2 DUP4 PUSH2 0x1691 JUMP JUMPDEST SWAP1 SLOAD PUSH1 0x3 SWAP2 SWAP1 SWAP2 SHL SHR PUSH1 0x1 PUSH1 0x1 PUSH1 0xA0 SHL SUB AND CALLER EQ PUSH2 0xE06 JUMPI PUSH1 0x1 ADD PUSH2 0xC1C JUMP JUMPDEST POP POP POP POP PUSH1 0x1 DUP9 DUP1 DUP1 PUSH2 0xC24 JUMP JUMPDEST POP PUSH1 0x1 SLOAD DUP4 GT ISZERO PUSH2 0xBE1 JUMP JUMPDEST CALLVALUE PUSH2 0x54A JUMPI PUSH1 0x0 CALLDATASIZE PUSH1 0x3 NOT ADD SLT PUSH2 0x54A JUMPI PUSH1 0x20 PUSH1 0x1 SLOAD PUSH1 0x40 MLOAD SWAP1 DUP2 MSTORE RETURN JUMPDEST CALLVALUE PUSH2 0x54A JUMPI PUSH1 0x0 CALLDATASIZE PUSH1 0x3 NOT ADD SLT PUSH2 0x54A JUMPI PUSH1 0x0 DUP1 PUSH1 0x3 DUP1 SLOAD SWAP3 JUMPDEST DUP4 DUP2 LT PUSH2 0xFBA JUMPI POP PUSH2 0xE82 PUSH2 0xE6C DUP4 PUSH2 0x14A9 JUMP JUMPDEST SWAP3 PUSH2 0xE7A PUSH1 0x40 MLOAD SWAP5 DUP6 PUSH2 0x1301 JUMP JUMPDEST DUP1 DUP5 MSTORE PUSH2 0x14A9 JUMP JUMPDEST PUSH1 0x20 SWAP4 SWAP1 PUSH1 0x1F NOT ADD DUP5 PUSH1 0x0 JUMPDEST DUP3 DUP2 LT PUSH2 0xFA4 JUMPI POP POP POP SWAP1 PUSH1 0x0 SWAP2 PUSH1 0x0 SWAP1 JUMPDEST DUP1 DUP3 LT PUSH2 0xF05 JUMPI PUSH1 0x40 DUP1 MLOAD DUP8 DUP2 MSTORE DUP7 MLOAD DUP2 DUP10 ADD DUP2 SWAP1 MSTORE PUSH1 0x0 SWAP3 PUSH1 0x5 DUP3 SWAP1 SHL DUP4 ADD DUP2 ADD SWAP2 DUP10 DUP12 ADD SWAP2 DUP12 SWAP1 DUP6 ADD JUMPDEST DUP3 DUP8 LT PUSH2 0xED9 JUMPI DUP6 DUP6 SUB DUP7 RETURN JUMPDEST SWAP1 SWAP2 SWAP3 SWAP4 DUP3 DUP1 PUSH2 0xEF5 PUSH1 0x1 SWAP4 PUSH1 0x3F NOT DUP11 DUP3 SUB ADD DUP7 MSTORE DUP9 MLOAD PUSH2 0x1384 JUMP JUMPDEST SWAP7 ADD SWAP3 ADD SWAP7 ADD SWAP6 SWAP3 SWAP2 SWAP1 SWAP3 PUSH2 0xECC JUMP JUMPDEST SWAP1 SWAP3 SWAP5 PUSH1 0x0 SWAP5 SWAP3 SWAP5 JUMPDEST PUSH2 0xF17 DUP6 PUSH2 0x17EA JUMP JUMPDEST POP PUSH1 0x8 DUP1 SWAP2 ADD SLOAD DUP3 LT ISZERO PUSH2 0xF95 JUMPI DUP2 PUSH2 0xF3A SWAP2 PUSH2 0xF33 DUP9 PUSH2 0x17EA JUMP JUMPDEST POP ADD PUSH2 0x1691 JUMP JUMPDEST SWAP1 SLOAD SWAP1 DUP8 SHL SHR PUSH1 0x1 PUSH1 0x1 PUSH1 0xA0 SHL SUB AND CALLER EQ PUSH2 0xF57 JUMPI PUSH1 0x1 ADD PUSH2 0xF0E JUMP JUMPDEST POP SWAP5 PUSH2 0xF8A PUSH1 0x1 SWAP2 PUSH2 0xF75 PUSH2 0xF6F DUP8 SWAP6 SWAP7 SWAP9 SWAP8 PUSH2 0x17EA JUMP JUMPDEST POP PUSH2 0x1898 JUMP JUMPDEST PUSH2 0xF7F DUP3 DUP10 PUSH2 0x1884 JUMP JUMPDEST MSTORE PUSH2 0x8A0 DUP2 DUP9 PUSH2 0x1884 JUMP JUMPDEST SWAP2 JUMPDEST ADD SWAP1 SWAP3 SWAP2 PUSH2 0xEA0 JUMP JUMPDEST POP POP SWAP5 SWAP1 SWAP2 SWAP4 SWAP3 PUSH1 0x1 SWAP1 PUSH2 0xF8C JUMP JUMPDEST PUSH2 0xFAC PUSH2 0x1834 JUMP JUMPDEST DUP3 DUP3 DUP9 ADD ADD MSTORE ADD DUP6 SWAP1 PUSH2 0xE8E JUMP JUMPDEST SWAP1 SWAP2 PUSH1 0x0 JUMPDEST PUSH2 0xFC8 DUP4 PUSH2 0x17EA JUMP JUMPDEST POP PUSH1 0x8 DUP1 SWAP2 ADD SLOAD DUP3 LT ISZERO PUSH2 0x1018 JUMPI DUP2 PUSH2 0xFE4 SWAP2 PUSH2 0xF33 DUP7 PUSH2 0x17EA JUMP JUMPDEST SWAP1 SLOAD SWAP1 DUP6 SHL SHR PUSH1 0x1 PUSH1 0x1 PUSH1 0xA0 SHL SUB AND CALLER EQ PUSH2 0x1001 JUMPI PUSH1 0x1 ADD PUSH2 0xFBF JUMP JUMPDEST POP PUSH2 0x1010 PUSH1 0x1 SWAP2 SWAP4 SWAP3 SWAP4 PUSH2 0x1825 JUMP JUMPDEST SWAP3 JUMPDEST ADD PUSH2 0xE58 JUMP JUMPDEST POP POP SWAP2 SWAP1 PUSH1 0x1 SWAP1 PUSH2 0x1012 JUMP JUMPDEST CALLVALUE PUSH2 0x54A JUMPI PUSH1 0x20 CALLDATASIZE PUSH1 0x3 NOT ADD SLT PUSH2 0x54A JUMPI PUSH1 0x4 CALLDATALOAD PUSH1 0x1 PUSH1 0x1 PUSH1 0x40 SHL SUB DUP2 GT PUSH2 0x54A JUMPI PUSH2 0x1054 SWAP1 CALLDATASIZE SWAP1 PUSH1 0x4 ADD PUSH2 0x133D JUMP JUMPDEST PUSH2 0x105F CALLER ISZERO ISZERO PUSH2 0x1645 JUMP JUMPDEST DUP1 MLOAD ISZERO PUSH2 0x10E4 JUMPI CALLER PUSH1 0x0 MSTORE PUSH1 0x5 PUSH1 0x20 MSTORE PUSH1 0x40 PUSH1 0x0 KECCAK256 DUP1 SLOAD PUSH1 0x1 PUSH1 0x40 SHL DUP2 LT ISZERO PUSH2 0x438 JUMPI PUSH2 0x1091 SWAP2 PUSH1 0x1 DUP3 ADD DUP2 SSTORE PUSH2 0x1691 JUMP JUMPDEST PUSH2 0x422 JUMPI DUP2 PUSH2 0x109F SWAP2 PUSH2 0x171B JUMP JUMPDEST PUSH32 0x34647A087C36357C4B77D3D7B4BC2B55D01C3EF8726DC75A70652D96E1510CC3 PUSH2 0x10D5 PUSH1 0x40 MLOAD SWAP3 PUSH1 0x40 DUP5 MSTORE PUSH1 0x40 DUP5 ADD SWAP1 PUSH2 0x128A JUMP JUMPDEST SWAP2 TIMESTAMP PUSH1 0x20 DUP3 ADD MSTORE DUP1 CALLER SWAP4 SUB SWAP1 LOG2 STOP JUMPDEST PUSH1 0x40 MLOAD PUSH3 0x461BCD PUSH1 0xE5 SHL DUP2 MSTORE PUSH1 0x20 PUSH1 0x4 DUP3 ADD MSTORE PUSH1 0x11 PUSH1 0x24 DUP3 ADD MSTORE PUSH17 0x283632B0B9B29030B2321030903AB93617 PUSH1 0x79 SHL PUSH1 0x44 DUP3 ADD MSTORE PUSH1 0x64 SWAP1 REVERT JUMPDEST CALLVALUE PUSH2 0x54A JUMPI PUSH1 0x20 DUP1 PUSH1 0x3 NOT CALLDATASIZE ADD SLT PUSH2 0x54A JUMPI PUSH1 0x4 CALLDATALOAD DUP1 ISZERO ISZERO DUP1 PUSH2 0x11A7 JUMPI JUMPDEST PUSH2 0x1144 SWAP1 PUSH2 0x159F JUMP JUMPDEST PUSH1 0x0 MSTORE PUSH1 0x4 DUP2 MSTORE PUSH2 0x115B PUSH1 0x8 PUSH1 0x40 PUSH1 0x0 KECCAK256 ADD PUSH2 0x15EB JUMP JUMPDEST SWAP1 PUSH1 0x40 MLOAD SWAP2 DUP2 DUP4 SWAP3 DUP4 ADD DUP2 DUP5 MSTORE DUP3 MLOAD DUP1 SWAP2 MSTORE DUP2 PUSH1 0x40 DUP6 ADD SWAP4 ADD SWAP2 PUSH1 0x0 JUMPDEST DUP3 DUP2 LT PUSH2 0x1187 JUMPI POP POP POP POP SUB SWAP1 RETURN JUMPDEST DUP4 MLOAD PUSH1 0x1 PUSH1 0x1 PUSH1 0xA0 SHL SUB AND DUP6 MSTORE DUP7 SWAP6 POP SWAP4 DUP2 ADD SWAP4 SWAP3 DUP2 ADD SWAP3 PUSH1 0x1 ADD PUSH2 0x1178 JUMP JUMPDEST POP PUSH1 0x1 SLOAD DUP2 GT ISZERO PUSH2 0x113B JUMP JUMPDEST CALLVALUE PUSH2 0x54A JUMPI PUSH1 0x0 CALLDATASIZE PUSH1 0x3 NOT ADD SLT PUSH2 0x54A JUMPI CALLER PUSH1 0x0 MSTORE PUSH1 0x20 PUSH1 0x5 DUP2 MSTORE PUSH1 0x40 PUSH1 0x0 KECCAK256 SWAP1 DUP2 SLOAD SWAP2 PUSH2 0x11E0 DUP4 PUSH2 0x14A9 JUMP JUMPDEST SWAP3 PUSH2 0x11EE PUSH1 0x40 MLOAD SWAP5 DUP6 PUSH2 0x1301 JUMP JUMPDEST DUP1 DUP5 MSTORE DUP3 DUP5 ADD DUP1 SWAP3 PUSH1 0x0 MSTORE DUP4 PUSH1 0x0 KECCAK256 PUSH1 0x0 SWAP2 JUMPDEST DUP4 DUP4 LT PUSH2 0x1268 JUMPI POP POP POP POP PUSH1 0x40 MLOAD SWAP2 DUP1 DUP4 ADD SWAP4 DUP2 DUP5 MSTORE MLOAD DUP1 SWAP5 MSTORE PUSH1 0x40 DUP4 ADD SWAP4 PUSH1 0x40 DUP2 PUSH1 0x5 SHL DUP6 ADD ADD SWAP3 SWAP2 PUSH1 0x0 SWAP6 JUMPDEST DUP3 DUP8 LT PUSH2 0x123C JUMPI DUP6 DUP6 SUB DUP7 RETURN JUMPDEST SWAP1 SWAP2 SWAP3 SWAP4 DUP3 DUP1 PUSH2 0x1258 PUSH1 0x1 SWAP4 PUSH1 0x3F NOT DUP11 DUP3 SUB ADD DUP7 MSTORE DUP9 MLOAD PUSH2 0x128A JUMP JUMPDEST SWAP7 ADD SWAP3 ADD SWAP7 ADD SWAP6 SWAP3 SWAP2 SWAP1 SWAP3 PUSH2 0x122F JUMP JUMPDEST PUSH1 0x1 DUP7 DUP2 SWAP3 PUSH2 0x1279 DUP6 SWAP11 SWAP10 SWAP11 PUSH2 0x14FA JUMP JUMPDEST DUP2 MSTORE ADD SWAP3 ADD SWAP3 ADD SWAP2 SWAP1 SWAP6 SWAP5 SWAP6 PUSH2 0x1201 JUMP JUMPDEST SWAP2 SWAP1 DUP3 MLOAD SWAP3 DUP4 DUP3 MSTORE PUSH1 0x0 JUMPDEST DUP5 DUP2 LT PUSH2 0x12B6 JUMPI POP POP DUP3 PUSH1 0x0 PUSH1 0x20 DUP1 SWAP5 SWAP6 DUP5 ADD ADD MSTORE PUSH1 0x1F DUP1 NOT SWAP2 ADD AND ADD ADD SWAP1 JUMP JUMPDEST PUSH1 0x20 DUP2 DUP4 ADD DUP2 ADD MLOAD DUP5 DUP4 ADD DUP3 ADD MSTORE ADD PUSH2 0x1295 JUMP JUMPDEST PUSH1 0xA0 DUP2 ADD SWAP1 DUP2 LT PUSH1 0x1 PUSH1 0x1 PUSH1 0x40 SHL SUB DUP3 GT OR PUSH2 0x438 JUMPI PUSH1 0x40 MSTORE JUMP JUMPDEST PUSH2 0x140 DUP2 ADD SWAP1 DUP2 LT PUSH1 0x1 PUSH1 0x1 PUSH1 0x40 SHL SUB DUP3 GT OR PUSH2 0x438 JUMPI PUSH1 0x40 MSTORE JUMP JUMPDEST SWAP1 PUSH1 0x1F DUP1 NOT SWAP2 ADD AND DUP2 ADD SWAP1 DUP2 LT PUSH1 0x1 PUSH1 0x1 PUSH1 0x40 SHL SUB DUP3 GT OR PUSH2 0x438 JUMPI PUSH1 0x40 MSTORE JUMP JUMPDEST PUSH1 0x1 PUSH1 0x1 PUSH1 0x40 SHL SUB DUP2 GT PUSH2 0x438 JUMPI PUSH1 0x1F ADD PUSH1 0x1F NOT AND PUSH1 0x20 ADD SWAP1 JUMP JUMPDEST DUP2 PUSH1 0x1F DUP3 ADD SLT ISZERO PUSH2 0x54A JUMPI DUP1 CALLDATALOAD SWAP1 PUSH2 0x1354 DUP3 PUSH2 0x1322 JUMP JUMPDEST SWAP3 PUSH2 0x1362 PUSH1 0x40 MLOAD SWAP5 DUP6 PUSH2 0x1301 JUMP JUMPDEST DUP3 DUP5 MSTORE PUSH1 0x20 DUP4 DUP4 ADD ADD GT PUSH2 0x54A JUMPI DUP2 PUSH1 0x0 SWAP3 PUSH1 0x20 DUP1 SWAP4 ADD DUP4 DUP7 ADD CALLDATACOPY DUP4 ADD ADD MSTORE SWAP1 JUMP JUMPDEST SWAP1 PUSH2 0x140 SWAP2 DUP1 MLOAD DUP3 MSTORE PUSH1 0x20 SWAP3 PUSH1 0xFF DUP5 DUP4 ADD MLOAD AND DUP5 DUP5 ADD MSTORE PUSH1 0x40 DUP3 ADD MLOAD PUSH1 0x40 DUP5 ADD MSTORE PUSH2 0x13FB PUSH2 0x13E9 PUSH2 0x13D7 PUSH1 0x60 DUP6 ADD MLOAD SWAP4 PUSH1 0x1 DUP1 PUSH1 0xA0 SHL SUB DUP1 SWAP6 AND PUSH1 0x60 DUP9 ADD MSTORE PUSH1 0x80 DUP7 ADD MLOAD SWAP1 DUP1 PUSH1 0x80 DUP10 ADD MSTORE DUP8 ADD SWAP1 PUSH2 0x128A JUMP JUMPDEST PUSH1 0xA0 DUP6 ADD MLOAD DUP7 DUP3 SUB PUSH1 0xA0 DUP9 ADD MSTORE PUSH2 0x128A JUMP JUMPDEST PUSH1 0xC0 DUP5 ADD MLOAD DUP6 DUP3 SUB PUSH1 0xC0 DUP8 ADD MSTORE PUSH2 0x128A JUMP JUMPDEST PUSH1 0xE0 DUP4 ADD MLOAD PUSH1 0xE0 DUP6 ADD MSTORE PUSH2 0x100 SWAP5 DUP6 DUP5 ADD MLOAD SWAP6 DUP6 DUP4 SUB SWAP1 DUP7 ADD MSTORE DUP1 DUP1 DUP8 MLOAD SWAP4 DUP5 DUP2 MSTORE ADD SWAP7 ADD SWAP3 PUSH1 0x0 SWAP1 JUMPDEST DUP4 DUP3 LT PUSH2 0x143E JUMPI POP POP POP POP POP PUSH2 0x120 DUP1 SWAP2 ADD MLOAD SWAP2 ADD MSTORE SWAP1 JUMP JUMPDEST DUP5 MLOAD DUP2 AND DUP9 MSTORE SWAP7 DUP3 ADD SWAP7 SWAP4 DUP3 ADD SWAP4 PUSH1 0x1 SWAP1 SWAP2 ADD SWAP1 PUSH2 0x1425 JUMP JUMPDEST SWAP1 DUP2 MLOAD DUP2 MSTORE PUSH1 0x80 DUP1 PUSH2 0x148D PUSH2 0x147B PUSH1 0x20 DUP7 ADD MLOAD PUSH1 0xA0 PUSH1 0x20 DUP8 ADD MSTORE PUSH1 0xA0 DUP7 ADD SWAP1 PUSH2 0x128A JUMP JUMPDEST PUSH1 0x40 DUP7 ADD MLOAD DUP6 DUP3 SUB PUSH1 0x40 DUP8 ADD MSTORE PUSH2 0x128A JUMP JUMPDEST PUSH1 0x60 DUP1 DUP7 ADD MLOAD PUSH1 0x1 PUSH1 0x1 PUSH1 0xA0 SHL SUB AND SWAP1 DUP6 ADD MSTORE SWAP4 ADD MLOAD SWAP2 ADD MSTORE SWAP1 JUMP JUMPDEST PUSH1 0x1 PUSH1 0x1 PUSH1 0x40 SHL SUB DUP2 GT PUSH2 0x438 JUMPI PUSH1 0x5 SHL PUSH1 0x20 ADD SWAP1 JUMP JUMPDEST SWAP1 PUSH1 0x1 DUP3 DUP2 SHR SWAP3 AND DUP1 ISZERO PUSH2 0x14F0 JUMPI JUMPDEST PUSH1 0x20 DUP4 LT EQ PUSH2 0x14DA JUMPI JUMP JUMPDEST PUSH4 0x4E487B71 PUSH1 0xE0 SHL PUSH1 0x0 MSTORE PUSH1 0x22 PUSH1 0x4 MSTORE PUSH1 0x24 PUSH1 0x0 REVERT JUMPDEST SWAP2 PUSH1 0x7F AND SWAP2 PUSH2 0x14CF JUMP JUMPDEST SWAP1 PUSH1 0x40 MLOAD SWAP2 DUP3 PUSH1 0x0 DUP3 SLOAD PUSH2 0x150D DUP2 PUSH2 0x14C0 JUMP JUMPDEST SWAP1 DUP2 DUP5 MSTORE PUSH1 0x20 SWAP5 PUSH1 0x1 SWAP2 PUSH1 0x1 DUP2 AND SWAP1 DUP2 PUSH1 0x0 EQ PUSH2 0x157D JUMPI POP PUSH1 0x1 EQ PUSH2 0x153E JUMPI JUMPDEST POP POP POP PUSH2 0x153C SWAP3 POP SUB DUP4 PUSH2 0x1301 JUMP JUMPDEST JUMP JUMPDEST PUSH1 0x0 SWAP1 DUP2 MSTORE DUP6 DUP2 KECCAK256 SWAP6 SWAP4 POP SWAP2 SWAP1 JUMPDEST DUP2 DUP4 LT PUSH2 0x1565 JUMPI POP POP PUSH2 0x153C SWAP4 POP DUP3 ADD ADD CODESIZE DUP1 DUP1 PUSH2 0x152D JUMP JUMPDEST DUP6 SLOAD DUP9 DUP5 ADD DUP6 ADD MSTORE SWAP5 DUP6 ADD SWAP5 DUP8 SWAP5 POP SWAP2 DUP4 ADD SWAP2 PUSH2 0x154C JUMP JUMPDEST SWAP3 POP POP POP PUSH2 0x153C SWAP5 SWAP3 POP PUSH1 0xFF NOT AND DUP3 DUP5 ADD MSTORE ISZERO ISZERO PUSH1 0x5 SHL DUP3 ADD ADD CODESIZE DUP1 DUP1 PUSH2 0x152D JUMP JUMPDEST ISZERO PUSH2 0x15A6 JUMPI JUMP JUMPDEST PUSH1 0x40 MLOAD PUSH3 0x461BCD PUSH1 0xE5 SHL DUP2 MSTORE PUSH1 0x20 PUSH1 0x4 DUP3 ADD MSTORE PUSH1 0x19 PUSH1 0x24 DUP3 ADD MSTORE PUSH32 0x5468697320616C62756D20646F6573206E6F7420657869737400000000000000 PUSH1 0x44 DUP3 ADD MSTORE PUSH1 0x64 SWAP1 REVERT JUMPDEST SWAP1 PUSH1 0x40 MLOAD SWAP2 DUP3 DUP2 SLOAD SWAP2 DUP3 DUP3 MSTORE PUSH1 0x20 SWAP3 PUSH1 0x20 DUP4 ADD SWAP2 PUSH1 0x0 MSTORE PUSH1 0x20 PUSH1 0x0 KECCAK256 SWAP4 PUSH1 0x0 SWAP1 JUMPDEST DUP3 DUP3 LT PUSH2 0x1622 JUMPI POP POP POP PUSH2 0x153C SWAP3 POP SUB DUP4 PUSH2 0x1301 JUMP JUMPDEST DUP6 SLOAD PUSH1 0x1 PUSH1 0x1 PUSH1 0xA0 SHL SUB AND DUP5 MSTORE PUSH1 0x1 SWAP6 DUP7 ADD SWAP6 DUP9 SWAP6 POP SWAP4 DUP2 ADD SWAP4 SWAP1 SWAP2 ADD SWAP1 PUSH2 0x160C JUMP JUMPDEST ISZERO PUSH2 0x164C JUMPI JUMP JUMPDEST PUSH1 0x40 MLOAD PUSH3 0x461BCD PUSH1 0xE5 SHL DUP2 MSTORE PUSH1 0x20 PUSH1 0x4 DUP3 ADD MSTORE PUSH1 0x1A PUSH1 0x24 DUP3 ADD MSTORE PUSH32 0x4E6F207A65726F2061646472657373657320616C6C6F7765642E000000000000 PUSH1 0x44 DUP3 ADD MSTORE PUSH1 0x64 SWAP1 REVERT JUMPDEST DUP1 SLOAD DUP3 LT ISZERO PUSH2 0x16A9 JUMPI PUSH1 0x0 MSTORE PUSH1 0x20 PUSH1 0x0 KECCAK256 ADD SWAP1 PUSH1 0x0 SWAP1 JUMP JUMPDEST PUSH4 0x4E487B71 PUSH1 0xE0 SHL PUSH1 0x0 MSTORE PUSH1 0x32 PUSH1 0x4 MSTORE PUSH1 0x24 PUSH1 0x0 REVERT JUMPDEST DUP2 DUP2 LT PUSH2 0x16CA JUMPI POP POP JUMP JUMPDEST PUSH1 0x0 DUP2 SSTORE PUSH1 0x1 ADD PUSH2 0x16BF JUMP JUMPDEST SWAP2 SWAP1 PUSH1 0x1F DUP2 GT PUSH2 0x16E5 JUMPI POP POP POP JUMP JUMPDEST PUSH2 0x153C SWAP3 PUSH1 0x0 MSTORE PUSH1 0x20 PUSH1 0x0 KECCAK256 SWAP1 PUSH1 0x20 PUSH1 0x1F DUP5 ADD PUSH1 0x5 SHR DUP4 ADD SWAP4 LT PUSH2 0x1711 JUMPI JUMPDEST PUSH1 0x1F ADD PUSH1 0x5 SHR ADD SWAP1 PUSH2 0x16BF JUMP JUMPDEST SWAP1 SWAP2 POP DUP2 SWAP1 PUSH2 0x1704 JUMP JUMPDEST SWAP2 SWAP1 SWAP2 DUP3 MLOAD PUSH1 0x1 PUSH1 0x1 PUSH1 0x40 SHL SUB DUP2 GT PUSH2 0x438 JUMPI PUSH2 0x1742 DUP2 PUSH2 0x173C DUP5 SLOAD PUSH2 0x14C0 JUMP JUMPDEST DUP5 PUSH2 0x16D6 JUMP JUMPDEST PUSH1 0x20 DUP1 PUSH1 0x1F DUP4 GT PUSH1 0x1 EQ PUSH2 0x1785 JUMPI POP DUP2 SWAP1 PUSH2 0x1776 SWAP4 SWAP5 SWAP6 PUSH1 0x0 SWAP3 PUSH2 0x177A JUMPI JUMPDEST POP POP DUP2 PUSH1 0x1 SHL SWAP2 PUSH1 0x0 NOT SWAP1 PUSH1 0x3 SHL SHR NOT AND OR SWAP1 JUMP JUMPDEST SWAP1 SSTORE JUMP JUMPDEST ADD MLOAD SWAP1 POP CODESIZE DUP1 PUSH2 0x1761 JUMP JUMPDEST SWAP1 PUSH1 0x1F NOT DUP4 AND SWAP6 DUP5 PUSH1 0x0 MSTORE PUSH1 0x20 PUSH1 0x0 KECCAK256 SWAP3 PUSH1 0x0 SWAP1 JUMPDEST DUP9 DUP3 LT PUSH2 0x17D2 JUMPI POP POP DUP4 PUSH1 0x1 SWAP6 SWAP7 SWAP8 LT PUSH2 0x17B9 JUMPI JUMPDEST POP POP POP DUP2 SHL ADD SWAP1 SSTORE JUMP JUMPDEST ADD MLOAD PUSH1 0x0 NOT PUSH1 0xF8 DUP5 PUSH1 0x3 SHL AND SHR NOT AND SWAP1 SSTORE CODESIZE DUP1 DUP1 PUSH2 0x17AF JUMP JUMPDEST DUP1 PUSH1 0x1 DUP6 SWAP7 DUP3 SWAP5 SWAP7 DUP7 ADD MLOAD DUP2 SSTORE ADD SWAP6 ADD SWAP4 ADD SWAP1 PUSH2 0x179A JUMP JUMPDEST PUSH1 0x3 SLOAD DUP2 LT ISZERO PUSH2 0x16A9 JUMPI PUSH1 0xA SWAP1 PUSH1 0x3 PUSH1 0x0 MSTORE MUL PUSH32 0xC2575A0E9E593C00F959F8C92F12DB2869C3395A3B0502D05E2516446F71F85B ADD SWAP1 PUSH1 0x0 SWAP1 JUMP JUMPDEST PUSH1 0x0 NOT DUP2 EQ PUSH2 0x46B JUMPI PUSH1 0x1 ADD SWAP1 JUMP JUMPDEST PUSH1 0x40 MLOAD SWAP1 PUSH2 0x1841 DUP3 PUSH2 0x12E5 JUMP JUMPDEST DUP2 PUSH2 0x120 PUSH1 0x0 SWAP2 DUP3 DUP2 MSTORE DUP3 PUSH1 0x20 DUP3 ADD MSTORE DUP3 PUSH1 0x40 DUP3 ADD MSTORE DUP3 PUSH1 0x60 DUP3 ADD MSTORE PUSH1 0x60 PUSH1 0x80 DUP3 ADD MSTORE PUSH1 0x60 PUSH1 0xA0 DUP3 ADD MSTORE PUSH1 0x60 PUSH1 0xC0 DUP3 ADD MSTORE DUP3 PUSH1 0xE0 DUP3 ADD MSTORE PUSH1 0x60 PUSH2 0x100 DUP3 ADD MSTORE ADD MSTORE JUMP JUMPDEST DUP1 MLOAD DUP3 LT ISZERO PUSH2 0x16A9 JUMPI PUSH1 0x20 SWAP2 PUSH1 0x5 SHL ADD ADD SWAP1 JUMP JUMPDEST SWAP1 PUSH1 0x40 MLOAD PUSH2 0x18A5 DUP2 PUSH2 0x12E5 JUMP JUMPDEST DUP3 SLOAD DUP2 MSTORE PUSH1 0x1 DUP4 ADD SLOAD PUSH1 0xFF AND PUSH1 0x20 DUP3 ADD MSTORE PUSH1 0x2 DUP4 ADD SLOAD PUSH1 0x40 DUP3 ADD MSTORE PUSH1 0x3 DUP4 ADD SLOAD PUSH1 0x1 PUSH1 0x1 PUSH1 0xA0 SHL SUB AND PUSH1 0x60 DUP3 ADD MSTORE SWAP2 DUP3 SWAP1 PUSH2 0x120 SWAP1 PUSH1 0x9 SWAP1 PUSH2 0x18E9 PUSH1 0x4 DUP3 ADD PUSH2 0x14FA JUMP JUMPDEST PUSH1 0x80 DUP6 ADD MSTORE PUSH2 0x18FA PUSH1 0x5 DUP3 ADD PUSH2 0x14FA JUMP JUMPDEST PUSH1 0xA0 DUP6 ADD MSTORE PUSH2 0x190B PUSH1 0x6 DUP3 ADD PUSH2 0x14FA JUMP JUMPDEST PUSH1 0xC0 DUP6 ADD MSTORE PUSH1 0x7 DUP2 ADD SLOAD PUSH1 0xE0 DUP6 ADD MSTORE PUSH2 0x1926 PUSH1 0x8 DUP3 ADD PUSH2 0x15EB JUMP JUMPDEST PUSH2 0x100 DUP6 ADD MSTORE ADD SLOAD SWAP2 ADD MSTORE JUMP JUMPDEST DUP2 DUP2 MUL SWAP3 SWAP2 DUP2 ISZERO SWAP2 DUP5 DIV EQ OR ISZERO PUSH2 0x46B JUMPI JUMP JUMPDEST SWAP2 SWAP1 DUP3 SUB SWAP2 DUP3 GT PUSH2 0x46B JUMPI JUMP JUMPDEST RETURNDATASIZE ISZERO PUSH2 0x197E JUMPI RETURNDATASIZE SWAP1 PUSH2 0x1964 DUP3 PUSH2 0x1322 JUMP JUMPDEST SWAP2 PUSH2 0x1972 PUSH1 0x40 MLOAD SWAP4 DUP5 PUSH2 0x1301 JUMP JUMPDEST DUP3 MSTORE RETURNDATASIZE PUSH1 0x0 PUSH1 0x20 DUP5 ADD RETURNDATACOPY JUMP JUMPDEST PUSH1 0x60 SWAP1 JUMP JUMPDEST ISZERO PUSH2 0x198A JUMPI JUMP JUMPDEST PUSH1 0x40 MLOAD PUSH3 0x461BCD PUSH1 0xE5 SHL DUP2 MSTORE PUSH1 0x20 PUSH1 0x4 DUP3 ADD MSTORE PUSH1 0x22 PUSH1 0x24 DUP3 ADD MSTORE PUSH32 0x466565207061796D656E7420746F20616C62756D206F776E6572206661696C65 PUSH1 0x44 DUP3 ADD MSTORE PUSH2 0x3217 PUSH1 0xF1 SHL PUSH1 0x64 DUP3 ADD MSTORE PUSH1 0x84 SWAP1 REVERT JUMPDEST ISZERO PUSH2 0x19E1 JUMPI JUMP JUMPDEST PUSH1 0x40 MLOAD PUSH3 0x461BCD PUSH1 0xE5 SHL DUP2 MSTORE PUSH1 0x20 PUSH1 0x4 DUP3 ADD MSTORE PUSH1 0x22 PUSH1 0x24 DUP3 ADD MSTORE PUSH32 0x466565207061796D656E7420746F207472796265206F776E6572206661696C65 PUSH1 0x44 DUP3 ADD MSTORE PUSH2 0x3217 PUSH1 0xF1 SHL PUSH1 0x64 DUP3 ADD MSTORE PUSH1 0x84 SWAP1 REVERT JUMPDEST DUP1 SLOAD PUSH1 0x1 PUSH1 0x40 SHL DUP2 LT ISZERO PUSH2 0x438 JUMPI PUSH2 0x1A4E SWAP2 PUSH1 0x1 DUP3 ADD DUP2 SSTORE PUSH2 0x1691 JUMP JUMPDEST PUSH1 0x1 DUP1 PUSH1 0xA0 SWAP5 SWAP4 SWAP5 SHL SUB DUP1 DUP5 SLOAD SWAP3 PUSH1 0x3 SHL SWAP4 AND DUP4 SHL SWAP3 SHL NOT AND OR SWAP1 SSTORE JUMP JUMPDEST ISZERO PUSH2 0x1A73 JUMPI JUMP JUMPDEST PUSH1 0x40 MLOAD PUSH3 0x461BCD PUSH1 0xE5 SHL DUP2 MSTORE PUSH1 0x20 PUSH1 0x4 DUP3 ADD MSTORE PUSH1 0x33 PUSH1 0x24 DUP3 ADD MSTORE PUSH32 0x4F6E6C792074686F73652077686F2068617665206A6F696E6564207468652061 PUSH1 0x44 DUP3 ADD MSTORE PUSH19 0x36313AB69039B2B2903A34329030B6313AB697 PUSH1 0x69 SHL PUSH1 0x64 DUP3 ADD MSTORE PUSH1 0x84 SWAP1 REVERT JUMPDEST PUSH1 0x40 MLOAD SWAP1 PUSH2 0x1AE1 DUP3 PUSH2 0x12CA JUMP JUMPDEST PUSH1 0x0 PUSH1 0x80 DUP4 DUP3 DUP2 MSTORE PUSH1 0x60 PUSH1 0x20 DUP3 ADD MSTORE PUSH1 0x60 PUSH1 0x40 DUP3 ADD MSTORE DUP3 PUSH1 0x60 DUP3 ADD MSTORE ADD MSTORE JUMP JUMPDEST SWAP1 PUSH1 0x40 MLOAD PUSH2 0x1B0E DUP2 PUSH2 0x12CA JUMP JUMPDEST PUSH1 0x80 PUSH1 0x4 DUP3 SWAP5 DUP1 SLOAD DUP5 MSTORE PUSH2 0x1B24 PUSH1 0x1 DUP3 ADD PUSH2 0x14FA JUMP JUMPDEST PUSH1 0x20 DUP6 ADD MSTORE PUSH2 0x1B35 PUSH1 0x2 DUP3 ADD PUSH2 0x14FA JUMP JUMPDEST PUSH1 0x40 DUP6 ADD MSTORE PUSH1 0x3 DUP2 ADD SLOAD PUSH1 0x1 PUSH1 0x1 PUSH1 0xA0 SHL SUB AND PUSH1 0x60 DUP6 ADD MSTORE ADD SLOAD SWAP2 ADD MSTORE JUMP JUMPDEST SWAP1 PUSH1 0x1 PUSH1 0x40 SHL DUP2 GT PUSH2 0x438 JUMPI DUP2 SLOAD SWAP1 DUP1 DUP4 SSTORE DUP2 DUP2 LT PUSH2 0x1B72 JUMPI POP POP POP JUMP JUMPDEST PUSH2 0x153C SWAP3 PUSH1 0x0 MSTORE PUSH1 0x20 PUSH1 0x0 KECCAK256 SWAP2 DUP3 ADD SWAP2 ADD PUSH2 0x16BF JUMP JUMPDEST SWAP1 DUP1 DUP3 EQ PUSH2 0x1C62 JUMPI PUSH2 0x1B9A DUP2 SLOAD PUSH2 0x14C0 JUMP JUMPDEST SWAP1 PUSH1 0x1 PUSH1 0x1 PUSH1 0x40 SHL SUB DUP3 GT PUSH2 0x438 JUMPI PUSH2 0x1BBD DUP3 PUSH2 0x1BB7 DUP6 SLOAD PUSH2 0x14C0 JUMP JUMPDEST DUP6 PUSH2 0x16D6 JUMP JUMPDEST PUSH1 0x0 SWAP1 PUSH1 0x1F DUP4 GT PUSH1 0x1 EQ PUSH2 0x1BF8 JUMPI PUSH2 0x1776 SWAP3 SWAP2 PUSH1 0x0 SWAP2 DUP4 PUSH2 0x1BED JUMPI POP POP DUP2 PUSH1 0x1 SHL SWAP2 PUSH1 0x0 NOT SWAP1 PUSH1 0x3 SHL SHR NOT AND OR SWAP1 JUMP JUMPDEST ADD SLOAD SWAP1 POP CODESIZE DUP1 PUSH2 0x1761 JUMP JUMPDEST DUP2 MSTORE PUSH1 0x20 DUP1 DUP3 KECCAK256 DUP5 DUP4 MSTORE DUP2 DUP4 KECCAK256 SWAP3 SWAP2 PUSH1 0x1F NOT DUP6 AND SWAP1 DUP4 SWAP1 JUMPDEST DUP3 DUP3 LT PUSH2 0x1C49 JUMPI POP POP SWAP1 DUP5 PUSH1 0x1 SWAP6 SWAP5 SWAP4 SWAP3 LT PUSH2 0x1C30 JUMPI POP POP POP DUP2 SHL ADD SWAP1 SSTORE JUMP JUMPDEST ADD SLOAD PUSH1 0x0 NOT PUSH1 0xF8 DUP5 PUSH1 0x3 SHL AND SHR NOT AND SWAP1 SSTORE CODESIZE DUP1 DUP1 PUSH2 0x17AF JUMP JUMPDEST DUP5 SWAP6 DUP2 SWAP3 SWAP6 DUP6 ADD SLOAD DUP2 SSTORE PUSH1 0x1 DUP1 SWAP2 ADD SWAP7 ADD SWAP5 ADD SWAP1 PUSH2 0x1C10 JUMP JUMPDEST POP POP JUMP JUMPDEST DUP2 DUP2 EQ PUSH2 0x1C62 JUMPI DUP2 SLOAD SWAP2 PUSH1 0x1 PUSH1 0x1 PUSH1 0x40 SHL SUB DUP4 GT PUSH2 0x438 JUMPI PUSH2 0x1C88 DUP4 DUP4 PUSH2 0x1B54 JUMP JUMPDEST PUSH1 0x0 MSTORE PUSH1 0x20 PUSH1 0x0 KECCAK256 SWAP1 PUSH1 0x0 MSTORE PUSH1 0x20 PUSH1 0x0 KECCAK256 DUP2 SLOAD SWAP2 PUSH1 0x0 SWAP3 JUMPDEST DUP5 DUP5 LT PUSH2 0x1CAE JUMPI POP POP POP POP POP JUMP JUMPDEST PUSH1 0x1 SWAP2 DUP3 ADD DUP1 SLOAD PUSH1 0x1 PUSH1 0x1 PUSH1 0xA0 SHL SUB SWAP1 SWAP3 AND DUP5 DUP7 ADD SSTORE SWAP4 SWAP1 SWAP2 ADD SWAP3 SWAP1 PUSH2 0x1CA0 JUMP INVALID LOG2 PUSH5 0x6970667358 0x22 SLT KECCAK256 0x4B 0xD3 0xCD 0xF8 0xB9 0xBD PUSH19 0x2B539CD23C354B6D531965BCA4B2D001C134EE SWAP11 0xE9 SWAP4 0x4C 0xC4 0xAE PUSH5 0x736F6C6343 STOP ADDMOD XOR STOP CALLER "
        },
        "methodIdentifiers": {
          "addImageToAlbum(uint256,string,string)": "6f4e27f0",
          "createAlbum(string,string,address[],string,uint8,uint256)": "f3187157",
          "download(uint256)": "87b9c24d",
          "getAlbum(uint256)": "d6e465c9",
          "getAlbums()": "5c517234",
          "getImageInAlbum(uint256,uint256)": "ced038d1",
          "getImages()": "11498334",
          "getImagesInAlbum(uint256)": "b027a787",
          "getListofParticipants(uint256)": "3b8f313b",
          "joinAlbum(uint256)": "8d84d7fc",
          "owner()": "8da5cb5b",
          "totalNoOfAlbumsCreated()": "6d49f8cc",
          "upload(string)": "42ce1488"
        }
      }
    }
  }
}