{
  "contracts/Trybe.sol": {
    "Trybe": {
      "abi": [
        {
          "inputs": [
            {
              "internalType": "uint256",
              "name": "_fee",
              "type": "uint256"
            }
          ],
          "stateMutability": "nonpayable",
          "type": "constructor"
        },
        {
          "anonymous": false,
          "inputs": [
            {
              "indexed": true,
              "internalType": "address",
              "name": "creator",
              "type": "address"
            },
            {
              "indexed": false,
              "internalType": "string",
              "name": "nameOfAlbum",
              "type": "string"
            },
            {
              "indexed": false,
              "internalType": "uint256",
              "name": "albumId",
              "type": "uint256"
            }
          ],
          "name": "AlbumCreated",
          "type": "event"
        },
        {
          "anonymous": false,
          "inputs": [
            {
              "indexed": false,
              "internalType": "uint256",
              "name": "albumId",
              "type": "uint256"
            },
            {
              "indexed": false,
              "internalType": "uint256",
              "name": "imageId",
              "type": "uint256"
            }
          ],
          "name": "ImageAdded",
          "type": "event"
        },
        {
          "anonymous": false,
          "inputs": [
            {
              "indexed": false,
              "internalType": "uint256",
              "name": "albumId",
              "type": "uint256"
            },
            {
              "indexed": false,
              "internalType": "uint256",
              "name": "imageId",
              "type": "uint256"
            }
          ],
          "name": "ImageDownloaded",
          "type": "event"
        },
        {
          "anonymous": false,
          "inputs": [
            {
              "indexed": true,
              "internalType": "address",
              "name": "participant",
              "type": "address"
            },
            {
              "indexed": false,
              "internalType": "uint256",
              "name": "timeJoined",
              "type": "uint256"
            }
          ],
          "name": "JoinedAlbum",
          "type": "event"
        },
        {
          "anonymous": false,
          "inputs": [
            {
              "indexed": true,
              "internalType": "address",
              "name": "user",
              "type": "address"
            },
            {
              "indexed": false,
              "internalType": "string",
              "name": "url",
              "type": "string"
            },
            {
              "indexed": false,
              "internalType": "uint256",
              "name": "createdAt",
              "type": "uint256"
            }
          ],
          "name": "Upload",
          "type": "event"
        },
        {
          "inputs": [
            {
              "internalType": "uint256",
              "name": "albumId",
              "type": "uint256"
            },
            {
              "internalType": "string",
              "name": "_url",
              "type": "string"
            },
            {
              "internalType": "string",
              "name": "_description",
              "type": "string"
            }
          ],
          "name": "addImageToAlbum",
          "outputs": [],
          "stateMutability": "nonpayable",
          "type": "function"
        },
        {
          "inputs": [
            {
              "internalType": "string",
              "name": "_name",
              "type": "string"
            },
            {
              "internalType": "string",
              "name": "description",
              "type": "string"
            },
            {
              "internalType": "address[]",
              "name": "_participants",
              "type": "address[]"
            },
            {
              "internalType": "string",
              "name": "_image",
              "type": "string"
            },
            {
              "internalType": "bool",
              "name": "visibility",
              "type": "bool"
            },
            {
              "internalType": "uint256",
              "name": "_fee",
              "type": "uint256"
            }
          ],
          "name": "createAlbum",
          "outputs": [],
          "stateMutability": "nonpayable",
          "type": "function"
        },
        {
          "inputs": [
            {
              "internalType": "uint256",
              "name": "albumId",
              "type": "uint256"
            },
            {
              "internalType": "uint256",
              "name": "imageId",
              "type": "uint256"
            }
          ],
          "name": "download",
          "outputs": [],
          "stateMutability": "payable",
          "type": "function"
        },
        {
          "inputs": [
            {
              "internalType": "uint256",
              "name": "albumId",
              "type": "uint256"
            }
          ],
          "name": "getAlbum",
          "outputs": [
            {
              "components": [
                {
                  "internalType": "uint256",
                  "name": "id",
                  "type": "uint256"
                },
                {
                  "internalType": "bool",
                  "name": "visibility",
                  "type": "bool"
                },
                {
                  "internalType": "uint256",
                  "name": "fee",
                  "type": "uint256"
                },
                {
                  "internalType": "address",
                  "name": "owner",
                  "type": "address"
                },
                {
                  "internalType": "string",
                  "name": "name",
                  "type": "string"
                },
                {
                  "internalType": "string",
                  "name": "description",
                  "type": "string"
                },
                {
                  "internalType": "string",
                  "name": "profileImage",
                  "type": "string"
                },
                {
                  "internalType": "uint256",
                  "name": "created",
                  "type": "uint256"
                },
                {
                  "internalType": "address[]",
                  "name": "participants",
                  "type": "address[]"
                },
                {
                  "internalType": "uint256",
                  "name": "totalNoOfImages",
                  "type": "uint256"
                }
              ],
              "internalType": "struct Trybe.Album",
              "name": "",
              "type": "tuple"
            }
          ],
          "stateMutability": "view",
          "type": "function"
        },
        {
          "inputs": [],
          "name": "getAlbums",
          "outputs": [
            {
              "components": [
                {
                  "internalType": "uint256",
                  "name": "id",
                  "type": "uint256"
                },
                {
                  "internalType": "bool",
                  "name": "visibility",
                  "type": "bool"
                },
                {
                  "internalType": "uint256",
                  "name": "fee",
                  "type": "uint256"
                },
                {
                  "internalType": "address",
                  "name": "owner",
                  "type": "address"
                },
                {
                  "internalType": "string",
                  "name": "name",
                  "type": "string"
                },
                {
                  "internalType": "string",
                  "name": "description",
                  "type": "string"
                },
                {
                  "internalType": "string",
                  "name": "profileImage",
                  "type": "string"
                },
                {
                  "internalType": "uint256",
                  "name": "created",
                  "type": "uint256"
                },
                {
                  "internalType": "address[]",
                  "name": "participants",
                  "type": "address[]"
                },
                {
                  "internalType": "uint256",
                  "name": "totalNoOfImages",
                  "type": "uint256"
                }
              ],
              "internalType": "struct Trybe.Album[]",
              "name": "",
              "type": "tuple[]"
            }
          ],
          "stateMutability": "view",
          "type": "function"
        },
        {
          "inputs": [
            {
              "internalType": "uint256",
              "name": "albumId",
              "type": "uint256"
            },
            {
              "internalType": "uint256",
              "name": "imageId",
              "type": "uint256"
            }
          ],
          "name": "getImageInAlbum",
          "outputs": [
            {
              "components": [
                {
                  "internalType": "uint256",
                  "name": "id",
                  "type": "uint256"
                },
                {
                  "internalType": "string",
                  "name": "url",
                  "type": "string"
                },
                {
                  "internalType": "string",
                  "name": "description",
                  "type": "string"
                },
                {
                  "internalType": "address",
                  "name": "owner",
                  "type": "address"
                },
                {
                  "internalType": "uint256",
                  "name": "created",
                  "type": "uint256"
                }
              ],
              "internalType": "struct Trybe.Image",
              "name": "",
              "type": "tuple"
            }
          ],
          "stateMutability": "view",
          "type": "function"
        },
        {
          "inputs": [],
          "name": "getImages",
          "outputs": [
            {
              "internalType": "string[]",
              "name": "",
              "type": "string[]"
            }
          ],
          "stateMutability": "view",
          "type": "function"
        },
        {
          "inputs": [
            {
              "internalType": "uint256",
              "name": "albumId",
              "type": "uint256"
            }
          ],
          "name": "getImagesInAlbum",
          "outputs": [
            {
              "components": [
                {
                  "internalType": "uint256",
                  "name": "id",
                  "type": "uint256"
                },
                {
                  "internalType": "string",
                  "name": "url",
                  "type": "string"
                },
                {
                  "internalType": "string",
                  "name": "description",
                  "type": "string"
                },
                {
                  "internalType": "address",
                  "name": "owner",
                  "type": "address"
                },
                {
                  "internalType": "uint256",
                  "name": "created",
                  "type": "uint256"
                }
              ],
              "internalType": "struct Trybe.Image[]",
              "name": "",
              "type": "tuple[]"
            }
          ],
          "stateMutability": "view",
          "type": "function"
        },
        {
          "inputs": [
            {
              "internalType": "uint256",
              "name": "albumId",
              "type": "uint256"
            }
          ],
          "name": "getListofParticipants",
          "outputs": [
            {
              "internalType": "address[]",
              "name": "",
              "type": "address[]"
            }
          ],
          "stateMutability": "view",
          "type": "function"
        },
        {
          "inputs": [
            {
              "internalType": "uint256",
              "name": "albumId",
              "type": "uint256"
            }
          ],
          "name": "joinAlbum",
          "outputs": [],
          "stateMutability": "payable",
          "type": "function"
        },
        {
          "inputs": [],
          "name": "owner",
          "outputs": [
            {
              "internalType": "address",
              "name": "",
              "type": "address"
            }
          ],
          "stateMutability": "view",
          "type": "function"
        },
        {
          "inputs": [],
          "name": "totalNoOfAlbumsCreated",
          "outputs": [
            {
              "internalType": "uint256",
              "name": "",
              "type": "uint256"
            }
          ],
          "stateMutability": "view",
          "type": "function"
        },
        {
          "inputs": [
            {
              "internalType": "string",
              "name": "url",
              "type": "string"
            }
          ],
          "name": "upload",
          "outputs": [],
          "stateMutability": "nonpayable",
          "type": "function"
        }
      ],
      "evm": {
        "bytecode": {
          "linkReferences": {},
          "object": "60803461006657601f611dc838819003918201601f19168301916001600160401b0383118484101761006b578084926020946040528339810103126100665751600080546001600160a01b03191633178155600155600255604051611d4690816100828239f35b600080fd5b634e487b7160e01b600052604160045260246000fdfe6080604052600436101561001257600080fd5b60003560e01c806311498334146111dd5780633b8f313b1461114757806342ce14881461104e57806345a1db6714610b955780635c517234146109af5780636d49f8cc146109915780636f4e27f0146106fc5780638d84d7fc1461058a5780638da5cb5b14610561578063b027a78714610388578063bce547201461025a578063ced038d11461011b5763d6e465c9146100ab57600080fd5b34610116576020366003190112610116576004356100c7611a15565b508015158061010a575b6100da906115de565b60005260046020526101066100f26040600020611a65565b6040519182916020835260208301906113c5565b0390f35b506001548111156100d1565b600080fd5b3461011657610129366114e9565b90610132611c90565b508015158061024e575b610145906115de565b81151580610233575b156101ee5760009060005b816000526004602052600860406000200180548210156101e2578161017d916116d0565b905460039190911b1c6001600160a01b0316331461019d57600101610159565b5090506101aa6001611c28565b60005260066020526040600020906000526020526101066101ce6040600020611cbd565b604051918291602083526020830190611497565b5050906101aa90611c28565b60405162461bcd60e51b815260206004820152601960248201527f5468697320696d61676520646f6573206e6f74206578697374000000000000006044820152606490fd5b5080600052600460205260096040600020015482111561014e565b5060015481111561013c565b610263366114e9565b908015158061037c575b610276906115de565b80600052600460205260406000209060ff600183015416801561036e575b15610329577f1af01386275a45a15be18388f65d960ec0439847260e1f66a817d80e8e5b0adf9261031c600080808060409760036103098380808060646102de600254349061184c565b04966102ea8834611b3d565b9601546001600160a01b03969087165af1610303611b4a565b50611b7a565b8254165af1610316611b4a565b50611bd1565b82519182526020820152a1005b60405162461bcd60e51b815260206004820152601e60248201527f546869732069732061207072697661746520616c62756d20696d6167652e00006044820152606490fd5b506002820154341015610294565b5060015481111561026d565b3461011657602080600319360112610116576004359081151580610555575b6103b0906115de565b816000526004815260406000209060009160005b84600052600483526008604060002001805482101561054757816103e7916116d0565b905460039190911b1c6001600160a01b03163314610407576001016103c4565b5060099192506104176001611c28565b015491610423836113ae565b92610431604051948561132b565b80845261043d816113ae565b601f190160005b81811061052b57505060019160015b828111156104bd5750505060405191808301818452845180915260408401918060408360051b8701019601926000905b8382106104905786880387f35b909192939483806104ac839a603f198b82030186528951611497565b999701959493919091019101610483565b816000969496526006855260406000208160005285526040600020906000198101918183116105155761050d926104f661050792611cbd565b6105008289611838565b5286611838565b50611829565b949294610453565b634e487b7160e01b600052601160045260246000fd5b8490610538969496611c90565b82828701015201949294610444565b505061041760099293611c28565b506001548211156103a7565b34610116576000366003190112610116576000546040516001600160a01b039091168152602090f35b602036600319011261011657600435801515806106f0575b6105ab906115de565b8060005260046020526040600020600191600182019060ff82541680156106e2575b1561069d576008906105e23360088601611b02565b6000855b61064f575b50505060ff9192505416610628575b6040514281527f59a4dadce245655ce4c5ea128f142c4034b1206deff52ff605866cd86433de8160203392a2005b60008080806106499460036103098380808060646102de600254349061184c565b806105fa565b600354811015610698578161066382611893565b505414610672578501856105e6565b60ff94955061068f92915061068690611893565b50339101611b02565b829184806105eb565b6105eb565b60405162461bcd60e51b815260206004820152601860248201527f546869732069732061207072697661746520616c62756d2e00000000000000006044820152606490fd5b5060028301543410156105cd565b506001548111156105a2565b34610116576060366003190112610116576004356001600160401b0360243581811161011657610730903690600401611367565b9060443590811161011657610749903690600401611367565b82151580610985575b61075b906115de565b8260005260209160048352604060002091600990600984019361077e8554611829565b80865560089091018054600091825b82811061094d575b505050156108e957906108049695949392916004604051916107b6836112f4565b8083528783019586526040830193845261080e606084019433865260808501924284528b60005260068b526040600020906000528a5260406000209451855560019b8c98516001870161175a565b516002850161175a565b600393600384019060018060a01b039051166bffffffffffffffffffffffff60a01b825416179055519101556000965b610876575b7f5138483d623eef75882d5ca6ed33e44c7ecafe842f3311844eabf67a297ce76c604087878754908351928352820152a1005b80548710156108e4578561088988611893565b50541461089a57958201958261083e565b50604094939291506108cc7f5138483d623eef75882d5ca6ed33e44c7ecafe842f3311844eabf67a297ce76c96611893565b50016108d88154611829565b90559091928580610843565b610843565b60405162461bcd60e51b815260048101879052603660248201527f4f6e6c792074686f73652077686f2068617665206a6f696e656420746865206160448201527536313ab69031b0b71030b2321030b71034b6b0b3b29760511b6064820152608490fd5b61095781836116d0565b905460039190911b1c6001600160a01b031633146109775760010161078d565b505050506001888080610795565b50600154831115610752565b34610116576000366003190112610116576020600154604051908152f35b346101165760003660031901126101165760008060038054925b838110610b2b57506109f36109dd836113ae565b926109eb604051948561132b565b8084526113ae565b60209390601f19018460005b828110610b1557505050906000916000905b808210610a7657604080518781528651818901819052600092600582901b8301810191898b01918b9085015b828710610a4a5785850386f35b909192938280610a66600193603f198a820301865288516113c5565b9601920196019592919092610a3d565b90929460009492945b610a8885611893565b50600880910154821015610b065781610aab91610aa488611893565b50016116d0565b905490871b1c6001600160a01b03163314610ac857600101610a7f565b5094610afb600191610ae6610ae08795969897611893565b50611a65565b610af08289611838565b526105078188611838565b915b01909291610a11565b50509490919392600190610afd565b610b1d611a15565b8282880101520185906109ff565b909160005b610b3983611893565b50600880910154821015610b895781610b5591610aa486611893565b905490851b1c6001600160a01b03163314610b7257600101610b30565b50610b81600191939293611829565b925b016109c9565b50509190600190610b83565b346101165760c0366003190112610116576004356001600160401b03811161011657610bc5903690600401611367565b6024356001600160401b03811161011657610be4903690600401611367565b90604435916001600160401b0383116101165736602384011215610116578260040135610c10816113ae565b93610c1e604051958661132b565b8185526024602086019260051b8201019036821161011657602401915b81831061102e575050506064356001600160401b03811161011657610c64903690600401611367565b9160843515156084350361011657610c7d331515611684565b805115610ff457815115610f7357610c96600154611829565b806001558451926001840180941161051557610cca610cb4856113ae565b94610cc2604051968761132b565b8086526113ae565b601f190136602086013760005b8651811015610d08576001906001600160a01b03610cf5828a611838565b5116610d018288611838565b5201610cd7565b5083908587610d1933915185611838565b528360005260046020526040600020938455610d46608435600186019060ff801983541691151516179055565b60843515610f4357610d87610d909260005b60028701556003860180546001600160a01b03191633179055610d7e876004880161175a565b6005860161175a565b6006840161175a565b4260078301558051906001600160401b038211610f1057602090610db7836008860161185f565b0160088301600052602060002060005b838110610f26578585600981019060008255600354600160401b811015610f1057806001610df89201600355611893565b929092610efa57818303610e4d575b600154604080518181527fd3cc7c228a9442b3e32b7fb9e7ac4298594eeb118c36cbfbaf73feef8394627d91610e3f908201886112b4565b9260208201528033930390a2005b610eee600883600994548655610e7960ff600183015416600188019060ff801983541691151516179055565b600281015460028701556003860160018060a01b036003830154166bffffffffffffffffffffffff60a01b825416179055610eba60048201600488016118ce565b610eca60058201600588016118ce565b610eda60068201600688016118ce565b6007810154600787015501600885016119ac565b54910155818080610e07565b634e487b7160e01b600052600060045260246000fd5b634e487b7160e01b600052604160045260246000fd5b82516001600160a01b031681830155602090920191600101610dc7565b670de0b6b3a76400008060a435029060a43582041460a43515171561051557610d90926103e8610d879204610d58565b60405162461bcd60e51b815260206004820152604d60248201527f446573637269626520796f757220616c62756d20746f206c657420746865207760448201527f6f726c64206b6e6f7720686f7720796f752066656c74207768656e20796f752060648201526c31b932b0ba32b2103a3434b99760991b608482015260a490fd5b60405162461bcd60e51b8152602060048201526012602482015271283632b0b9b29030b2321030903730b6b29760711b6044820152606490fd5b82356001600160a01b038116810361011657815260209283019201610c3b565b34610116576020366003190112610116576004356001600160401b0381116101165761107e903690600401611367565b611089331515611684565b80511561110e5733600052600560205260406000208054600160401b811015610f10576110bb916001820181556116d0565b610efa57816110c99161175a565b7f34647a087c36357c4b77d3d7b4bc2b55d01c3ef8726dc75a70652d96e1510cc36110ff604051926040845260408401906112b4565b914260208201528033930390a2005b60405162461bcd60e51b8152602060048201526011602482015270283632b0b9b29030b2321030903ab9361760791b6044820152606490fd5b346101165760208060031936011261011657600435801515806111d1575b61116e906115de565b60005260048152611185600860406000200161162a565b906040519181839283018184528251809152816040850193019160005b8281106111b157505050500390f35b83516001600160a01b0316855286955093810193928101926001016111a2565b50600154811115611165565b34610116576000366003190112610116573360005260206005815260406000209081549161120a836113ae565b92611218604051948561132b565b8084528284018092600052836000206000915b8383106112925750505050604051918083019381845251809452604083019360408160051b85010192916000955b8287106112665785850386f35b909192938280611282600193603f198a820301865288516112b4565b9601920196019592919092611259565b60018681926112a3859a999a611539565b81520192019201919095949561122b565b919082519283825260005b8481106112e0575050826000602080949584010152601f8019910116010190565b6020818301810151848301820152016112bf565b60a081019081106001600160401b03821117610f1057604052565b61014081019081106001600160401b03821117610f1057604052565b90601f801991011681019081106001600160401b03821117610f1057604052565b6001600160401b038111610f1057601f01601f191660200190565b81601f820112156101165780359061137e8261134c565b9261138c604051948561132b565b8284526020838301011161011657816000926020809301838601378301015290565b6001600160401b038111610f105760051b60200190565b906101409180518252602092838201511515848401526040820151604084015261143b61142961141760608501519360018060a01b0380951660608801526080860151908060808901528701906112b4565b60a085015186820360a08801526112b4565b60c084015185820360c08701526112b4565b60e083015160e0850152610100948584015195858303908601528080875193848152019601926000905b83821061147e5750505050506101208091015191015290565b8451811688529682019693820193600190910190611465565b90815181526080806114cd6114bb602086015160a0602087015260a08601906112b4565b604086015185820360408701526112b4565b6060808601516001600160a01b03169085015293015191015290565b6040906003190112610116576004359060243590565b90600182811c9216801561152f575b602083101461151957565b634e487b7160e01b600052602260045260246000fd5b91607f169161150e565b9060405191826000825461154c816114ff565b908184526020946001916001811690816000146115bc575060011461157d575b50505061157b9250038361132b565b565b600090815285812095935091905b8183106115a457505061157b935082010138808061156c565b8554888401850152948501948794509183019161158b565b9250505061157b94925060ff191682840152151560051b82010138808061156c565b156115e557565b60405162461bcd60e51b815260206004820152601960248201527f5468697320616c62756d20646f6573206e6f74206578697374000000000000006044820152606490fd5b90604051918281549182825260209260208301916000526020600020936000905b8282106116615750505061157b9250038361132b565b85546001600160a01b03168452600195860195889550938101939091019061164b565b1561168b57565b60405162461bcd60e51b815260206004820152601a60248201527f4e6f207a65726f2061646472657373657320616c6c6f7765642e0000000000006044820152606490fd5b80548210156116e85760005260206000200190600090565b634e487b7160e01b600052603260045260246000fd5b818110611709575050565b600081556001016116fe565b9190601f811161172457505050565b61157b926000526020600020906020601f840160051c83019310611750575b601f0160051c01906116fe565b9091508190611743565b91909182516001600160401b038111610f10576117818161177b84546114ff565b84611715565b602080601f83116001146117c4575081906117b59394956000926117b9575b50508160011b916000199060031b1c19161790565b9055565b0151905038806117a0565b90601f19831695846000526020600020926000905b888210611811575050836001959697106117f8575b505050811b019055565b015160001960f88460031b161c191690553880806117ee565b806001859682949686015181550195019301906117d9565b60001981146105155760010190565b80518210156116e85760209160051b010190565b8181029291811591840414171561051557565b90600160401b8111610f105781549080835581811061187d57505050565b61157b92600052602060002091820191016116fe565b6003548110156116e857600a906003600052027fc2575a0e9e593c00f959f8c92f12db2869c3395a3b0502d05e2516446f71f85b0190600090565b908082146119a8576118e081546114ff565b906001600160401b038211610f1057611903826118fd85546114ff565b85611715565b600090601f831160011461193e576117b59291600091836119335750508160011b916000199060031b1c19161790565b0154905038806117a0565b815260208082208483528183209291601f1985169083905b82821061198f57505090846001959493921061197657505050811b019055565b015460001960f88460031b161c191690553880806117ee565b8495819295850154815560018091019601940190611956565b5050565b8181146119a8578154916001600160401b038311610f10576119ce838361185f565b60005260206000209060005260206000208154916000925b8484106119f4575050505050565b600191820180546001600160a01b03909216848601559390910192906119e6565b60405190611a228261130f565b8161012060009182815282602082015282604082015282606082015260606080820152606060a0820152606060c08201528260e082015260606101008201520152565b90604051611a728161130f565b82548152600183015460ff16151560208201526002830154604082015260038301546001600160a01b0316606082015291829061012090600990611ab860048201611539565b6080850152611ac960058201611539565b60a0850152611ada60068201611539565b60c0850152600781015460e0850152611af56008820161162a565b6101008501520154910152565b8054600160401b811015610f1057611b1f916001820181556116d0565b60018060a09493941b038084549260031b9316831b921b1916179055565b9190820391821161051557565b3d15611b75573d90611b5b8261134c565b91611b69604051938461132b565b82523d6000602084013e565b606090565b15611b8157565b60405162461bcd60e51b815260206004820152602260248201527f466565207061796d656e7420746f20616c62756d206f776e6572206661696c65604482015261321760f11b6064820152608490fd5b15611bd857565b60405162461bcd60e51b815260206004820152602260248201527f466565207061796d656e7420746f207472796265206f776e6572206661696c65604482015261321760f11b6064820152608490fd5b15611c2f57565b60405162461bcd60e51b815260206004820152603360248201527f4f6e6c792074686f73652077686f2068617665206a6f696e656420746865206160448201527236313ab69039b2b2903a34329030b6313ab69760691b6064820152608490fd5b60405190611c9d826112f4565b600060808382815260606020820152606060408201528260608201520152565b90604051611cca816112f4565b60806004829480548452611ce060018201611539565b6020850152611cf160028201611539565b604085015260038101546001600160a01b03166060850152015491015256fea264697066735822122017c31cc88fca0a8719352a1a10f1c5c17d038d25989cab99ca0c3d78d3c822a564736f6c63430008180033",
          "opcodes": "PUSH1 0x80 CALLVALUE PUSH2 0x66 JUMPI PUSH1 0x1F PUSH2 0x1DC8 CODESIZE DUP2 SWAP1 SUB SWAP2 DUP3 ADD PUSH1 0x1F NOT AND DUP4 ADD SWAP2 PUSH1 0x1 PUSH1 0x1 PUSH1 0x40 SHL SUB DUP4 GT DUP5 DUP5 LT OR PUSH2 0x6B JUMPI DUP1 DUP5 SWAP3 PUSH1 0x20 SWAP5 PUSH1 0x40 MSTORE DUP4 CODECOPY DUP2 ADD SUB SLT PUSH2 0x66 JUMPI MLOAD PUSH1 0x0 DUP1 SLOAD PUSH1 0x1 PUSH1 0x1 PUSH1 0xA0 SHL SUB NOT AND CALLER OR DUP2 SSTORE PUSH1 0x1 SSTORE PUSH1 0x2 SSTORE PUSH1 0x40 MLOAD PUSH2 0x1D46 SWAP1 DUP2 PUSH2 0x82 DUP3 CODECOPY RETURN JUMPDEST PUSH1 0x0 DUP1 REVERT JUMPDEST PUSH4 0x4E487B71 PUSH1 0xE0 SHL PUSH1 0x0 MSTORE PUSH1 0x41 PUSH1 0x4 MSTORE PUSH1 0x24 PUSH1 0x0 REVERT INVALID PUSH1 0x80 PUSH1 0x40 MSTORE PUSH1 0x4 CALLDATASIZE LT ISZERO PUSH2 0x12 JUMPI PUSH1 0x0 DUP1 REVERT JUMPDEST PUSH1 0x0 CALLDATALOAD PUSH1 0xE0 SHR DUP1 PUSH4 0x11498334 EQ PUSH2 0x11DD JUMPI DUP1 PUSH4 0x3B8F313B EQ PUSH2 0x1147 JUMPI DUP1 PUSH4 0x42CE1488 EQ PUSH2 0x104E JUMPI DUP1 PUSH4 0x45A1DB67 EQ PUSH2 0xB95 JUMPI DUP1 PUSH4 0x5C517234 EQ PUSH2 0x9AF JUMPI DUP1 PUSH4 0x6D49F8CC EQ PUSH2 0x991 JUMPI DUP1 PUSH4 0x6F4E27F0 EQ PUSH2 0x6FC JUMPI DUP1 PUSH4 0x8D84D7FC EQ PUSH2 0x58A JUMPI DUP1 PUSH4 0x8DA5CB5B EQ PUSH2 0x561 JUMPI DUP1 PUSH4 0xB027A787 EQ PUSH2 0x388 JUMPI DUP1 PUSH4 0xBCE54720 EQ PUSH2 0x25A JUMPI DUP1 PUSH4 0xCED038D1 EQ PUSH2 0x11B JUMPI PUSH4 0xD6E465C9 EQ PUSH2 0xAB JUMPI PUSH1 0x0 DUP1 REVERT JUMPDEST CALLVALUE PUSH2 0x116 JUMPI PUSH1 0x20 CALLDATASIZE PUSH1 0x3 NOT ADD SLT PUSH2 0x116 JUMPI PUSH1 0x4 CALLDATALOAD PUSH2 0xC7 PUSH2 0x1A15 JUMP JUMPDEST POP DUP1 ISZERO ISZERO DUP1 PUSH2 0x10A JUMPI JUMPDEST PUSH2 0xDA SWAP1 PUSH2 0x15DE JUMP JUMPDEST PUSH1 0x0 MSTORE PUSH1 0x4 PUSH1 0x20 MSTORE PUSH2 0x106 PUSH2 0xF2 PUSH1 0x40 PUSH1 0x0 KECCAK256 PUSH2 0x1A65 JUMP JUMPDEST PUSH1 0x40 MLOAD SWAP2 DUP3 SWAP2 PUSH1 0x20 DUP4 MSTORE PUSH1 0x20 DUP4 ADD SWAP1 PUSH2 0x13C5 JUMP JUMPDEST SUB SWAP1 RETURN JUMPDEST POP PUSH1 0x1 SLOAD DUP2 GT ISZERO PUSH2 0xD1 JUMP JUMPDEST PUSH1 0x0 DUP1 REVERT JUMPDEST CALLVALUE PUSH2 0x116 JUMPI PUSH2 0x129 CALLDATASIZE PUSH2 0x14E9 JUMP JUMPDEST SWAP1 PUSH2 0x132 PUSH2 0x1C90 JUMP JUMPDEST POP DUP1 ISZERO ISZERO DUP1 PUSH2 0x24E JUMPI JUMPDEST PUSH2 0x145 SWAP1 PUSH2 0x15DE JUMP JUMPDEST DUP2 ISZERO ISZERO DUP1 PUSH2 0x233 JUMPI JUMPDEST ISZERO PUSH2 0x1EE JUMPI PUSH1 0x0 SWAP1 PUSH1 0x0 JUMPDEST DUP2 PUSH1 0x0 MSTORE PUSH1 0x4 PUSH1 0x20 MSTORE PUSH1 0x8 PUSH1 0x40 PUSH1 0x0 KECCAK256 ADD DUP1 SLOAD DUP3 LT ISZERO PUSH2 0x1E2 JUMPI DUP2 PUSH2 0x17D SWAP2 PUSH2 0x16D0 JUMP JUMPDEST SWAP1 SLOAD PUSH1 0x3 SWAP2 SWAP1 SWAP2 SHL SHR PUSH1 0x1 PUSH1 0x1 PUSH1 0xA0 SHL SUB AND CALLER EQ PUSH2 0x19D JUMPI PUSH1 0x1 ADD PUSH2 0x159 JUMP JUMPDEST POP SWAP1 POP PUSH2 0x1AA PUSH1 0x1 PUSH2 0x1C28 JUMP JUMPDEST PUSH1 0x0 MSTORE PUSH1 0x6 PUSH1 0x20 MSTORE PUSH1 0x40 PUSH1 0x0 KECCAK256 SWAP1 PUSH1 0x0 MSTORE PUSH1 0x20 MSTORE PUSH2 0x106 PUSH2 0x1CE PUSH1 0x40 PUSH1 0x0 KECCAK256 PUSH2 0x1CBD JUMP JUMPDEST PUSH1 0x40 MLOAD SWAP2 DUP3 SWAP2 PUSH1 0x20 DUP4 MSTORE PUSH1 0x20 DUP4 ADD SWAP1 PUSH2 0x1497 JUMP JUMPDEST POP POP SWAP1 PUSH2 0x1AA SWAP1 PUSH2 0x1C28 JUMP JUMPDEST PUSH1 0x40 MLOAD PUSH3 0x461BCD PUSH1 0xE5 SHL DUP2 MSTORE PUSH1 0x20 PUSH1 0x4 DUP3 ADD MSTORE PUSH1 0x19 PUSH1 0x24 DUP3 ADD MSTORE PUSH32 0x5468697320696D61676520646F6573206E6F7420657869737400000000000000 PUSH1 0x44 DUP3 ADD MSTORE PUSH1 0x64 SWAP1 REVERT JUMPDEST POP DUP1 PUSH1 0x0 MSTORE PUSH1 0x4 PUSH1 0x20 MSTORE PUSH1 0x9 PUSH1 0x40 PUSH1 0x0 KECCAK256 ADD SLOAD DUP3 GT ISZERO PUSH2 0x14E JUMP JUMPDEST POP PUSH1 0x1 SLOAD DUP2 GT ISZERO PUSH2 0x13C JUMP JUMPDEST PUSH2 0x263 CALLDATASIZE PUSH2 0x14E9 JUMP JUMPDEST SWAP1 DUP1 ISZERO ISZERO DUP1 PUSH2 0x37C JUMPI JUMPDEST PUSH2 0x276 SWAP1 PUSH2 0x15DE JUMP JUMPDEST DUP1 PUSH1 0x0 MSTORE PUSH1 0x4 PUSH1 0x20 MSTORE PUSH1 0x40 PUSH1 0x0 KECCAK256 SWAP1 PUSH1 0xFF PUSH1 0x1 DUP4 ADD SLOAD AND DUP1 ISZERO PUSH2 0x36E JUMPI JUMPDEST ISZERO PUSH2 0x329 JUMPI PUSH32 0x1AF01386275A45A15BE18388F65D960EC0439847260E1F66A817D80E8E5B0ADF SWAP3 PUSH2 0x31C PUSH1 0x0 DUP1 DUP1 DUP1 PUSH1 0x40 SWAP8 PUSH1 0x3 PUSH2 0x309 DUP4 DUP1 DUP1 DUP1 PUSH1 0x64 PUSH2 0x2DE PUSH1 0x2 SLOAD CALLVALUE SWAP1 PUSH2 0x184C JUMP JUMPDEST DIV SWAP7 PUSH2 0x2EA DUP9 CALLVALUE PUSH2 0x1B3D JUMP JUMPDEST SWAP7 ADD SLOAD PUSH1 0x1 PUSH1 0x1 PUSH1 0xA0 SHL SUB SWAP7 SWAP1 DUP8 AND GAS CALL PUSH2 0x303 PUSH2 0x1B4A JUMP JUMPDEST POP PUSH2 0x1B7A JUMP JUMPDEST DUP3 SLOAD AND GAS CALL PUSH2 0x316 PUSH2 0x1B4A JUMP JUMPDEST POP PUSH2 0x1BD1 JUMP JUMPDEST DUP3 MLOAD SWAP2 DUP3 MSTORE PUSH1 0x20 DUP3 ADD MSTORE LOG1 STOP JUMPDEST PUSH1 0x40 MLOAD PUSH3 0x461BCD PUSH1 0xE5 SHL DUP2 MSTORE PUSH1 0x20 PUSH1 0x4 DUP3 ADD MSTORE PUSH1 0x1E PUSH1 0x24 DUP3 ADD MSTORE PUSH32 0x546869732069732061207072697661746520616C62756D20696D6167652E0000 PUSH1 0x44 DUP3 ADD MSTORE PUSH1 0x64 SWAP1 REVERT JUMPDEST POP PUSH1 0x2 DUP3 ADD SLOAD CALLVALUE LT ISZERO PUSH2 0x294 JUMP JUMPDEST POP PUSH1 0x1 SLOAD DUP2 GT ISZERO PUSH2 0x26D JUMP JUMPDEST CALLVALUE PUSH2 0x116 JUMPI PUSH1 0x20 DUP1 PUSH1 0x3 NOT CALLDATASIZE ADD SLT PUSH2 0x116 JUMPI PUSH1 0x4 CALLDATALOAD SWAP1 DUP2 ISZERO ISZERO DUP1 PUSH2 0x555 JUMPI JUMPDEST PUSH2 0x3B0 SWAP1 PUSH2 0x15DE JUMP JUMPDEST DUP2 PUSH1 0x0 MSTORE PUSH1 0x4 DUP2 MSTORE PUSH1 0x40 PUSH1 0x0 KECCAK256 SWAP1 PUSH1 0x0 SWAP2 PUSH1 0x0 JUMPDEST DUP5 PUSH1 0x0 MSTORE PUSH1 0x4 DUP4 MSTORE PUSH1 0x8 PUSH1 0x40 PUSH1 0x0 KECCAK256 ADD DUP1 SLOAD DUP3 LT ISZERO PUSH2 0x547 JUMPI DUP2 PUSH2 0x3E7 SWAP2 PUSH2 0x16D0 JUMP JUMPDEST SWAP1 SLOAD PUSH1 0x3 SWAP2 SWAP1 SWAP2 SHL SHR PUSH1 0x1 PUSH1 0x1 PUSH1 0xA0 SHL SUB AND CALLER EQ PUSH2 0x407 JUMPI PUSH1 0x1 ADD PUSH2 0x3C4 JUMP JUMPDEST POP PUSH1 0x9 SWAP2 SWAP3 POP PUSH2 0x417 PUSH1 0x1 PUSH2 0x1C28 JUMP JUMPDEST ADD SLOAD SWAP2 PUSH2 0x423 DUP4 PUSH2 0x13AE JUMP JUMPDEST SWAP3 PUSH2 0x431 PUSH1 0x40 MLOAD SWAP5 DUP6 PUSH2 0x132B JUMP JUMPDEST DUP1 DUP5 MSTORE PUSH2 0x43D DUP2 PUSH2 0x13AE JUMP JUMPDEST PUSH1 0x1F NOT ADD PUSH1 0x0 JUMPDEST DUP2 DUP2 LT PUSH2 0x52B JUMPI POP POP PUSH1 0x1 SWAP2 PUSH1 0x1 JUMPDEST DUP3 DUP2 GT ISZERO PUSH2 0x4BD JUMPI POP POP POP PUSH1 0x40 MLOAD SWAP2 DUP1 DUP4 ADD DUP2 DUP5 MSTORE DUP5 MLOAD DUP1 SWAP2 MSTORE PUSH1 0x40 DUP5 ADD SWAP2 DUP1 PUSH1 0x40 DUP4 PUSH1 0x5 SHL DUP8 ADD ADD SWAP7 ADD SWAP3 PUSH1 0x0 SWAP1 JUMPDEST DUP4 DUP3 LT PUSH2 0x490 JUMPI DUP7 DUP9 SUB DUP8 RETURN JUMPDEST SWAP1 SWAP2 SWAP3 SWAP4 SWAP5 DUP4 DUP1 PUSH2 0x4AC DUP4 SWAP11 PUSH1 0x3F NOT DUP12 DUP3 SUB ADD DUP7 MSTORE DUP10 MLOAD PUSH2 0x1497 JUMP JUMPDEST SWAP10 SWAP8 ADD SWAP6 SWAP5 SWAP4 SWAP2 SWAP1 SWAP2 ADD SWAP2 ADD PUSH2 0x483 JUMP JUMPDEST DUP2 PUSH1 0x0 SWAP7 SWAP5 SWAP7 MSTORE PUSH1 0x6 DUP6 MSTORE PUSH1 0x40 PUSH1 0x0 KECCAK256 DUP2 PUSH1 0x0 MSTORE DUP6 MSTORE PUSH1 0x40 PUSH1 0x0 KECCAK256 SWAP1 PUSH1 0x0 NOT DUP2 ADD SWAP2 DUP2 DUP4 GT PUSH2 0x515 JUMPI PUSH2 0x50D SWAP3 PUSH2 0x4F6 PUSH2 0x507 SWAP3 PUSH2 0x1CBD JUMP JUMPDEST PUSH2 0x500 DUP3 DUP10 PUSH2 0x1838 JUMP JUMPDEST MSTORE DUP7 PUSH2 0x1838 JUMP JUMPDEST POP PUSH2 0x1829 JUMP JUMPDEST SWAP5 SWAP3 SWAP5 PUSH2 0x453 JUMP JUMPDEST PUSH4 0x4E487B71 PUSH1 0xE0 SHL PUSH1 0x0 MSTORE PUSH1 0x11 PUSH1 0x4 MSTORE PUSH1 0x24 PUSH1 0x0 REVERT JUMPDEST DUP5 SWAP1 PUSH2 0x538 SWAP7 SWAP5 SWAP7 PUSH2 0x1C90 JUMP JUMPDEST DUP3 DUP3 DUP8 ADD ADD MSTORE ADD SWAP5 SWAP3 SWAP5 PUSH2 0x444 JUMP JUMPDEST POP POP PUSH2 0x417 PUSH1 0x9 SWAP3 SWAP4 PUSH2 0x1C28 JUMP JUMPDEST POP PUSH1 0x1 SLOAD DUP3 GT ISZERO PUSH2 0x3A7 JUMP JUMPDEST CALLVALUE PUSH2 0x116 JUMPI PUSH1 0x0 CALLDATASIZE PUSH1 0x3 NOT ADD SLT PUSH2 0x116 JUMPI PUSH1 0x0 SLOAD PUSH1 0x40 MLOAD PUSH1 0x1 PUSH1 0x1 PUSH1 0xA0 SHL SUB SWAP1 SWAP2 AND DUP2 MSTORE PUSH1 0x20 SWAP1 RETURN JUMPDEST PUSH1 0x20 CALLDATASIZE PUSH1 0x3 NOT ADD SLT PUSH2 0x116 JUMPI PUSH1 0x4 CALLDATALOAD DUP1 ISZERO ISZERO DUP1 PUSH2 0x6F0 JUMPI JUMPDEST PUSH2 0x5AB SWAP1 PUSH2 0x15DE JUMP JUMPDEST DUP1 PUSH1 0x0 MSTORE PUSH1 0x4 PUSH1 0x20 MSTORE PUSH1 0x40 PUSH1 0x0 KECCAK256 PUSH1 0x1 SWAP2 PUSH1 0x1 DUP3 ADD SWAP1 PUSH1 0xFF DUP3 SLOAD AND DUP1 ISZERO PUSH2 0x6E2 JUMPI JUMPDEST ISZERO PUSH2 0x69D JUMPI PUSH1 0x8 SWAP1 PUSH2 0x5E2 CALLER PUSH1 0x8 DUP7 ADD PUSH2 0x1B02 JUMP JUMPDEST PUSH1 0x0 DUP6 JUMPDEST PUSH2 0x64F JUMPI JUMPDEST POP POP POP PUSH1 0xFF SWAP2 SWAP3 POP SLOAD AND PUSH2 0x628 JUMPI JUMPDEST PUSH1 0x40 MLOAD TIMESTAMP DUP2 MSTORE PUSH32 0x59A4DADCE245655CE4C5EA128F142C4034B1206DEFF52FF605866CD86433DE81 PUSH1 0x20 CALLER SWAP3 LOG2 STOP JUMPDEST PUSH1 0x0 DUP1 DUP1 DUP1 PUSH2 0x649 SWAP5 PUSH1 0x3 PUSH2 0x309 DUP4 DUP1 DUP1 DUP1 PUSH1 0x64 PUSH2 0x2DE PUSH1 0x2 SLOAD CALLVALUE SWAP1 PUSH2 0x184C JUMP JUMPDEST DUP1 PUSH2 0x5FA JUMP JUMPDEST PUSH1 0x3 SLOAD DUP2 LT ISZERO PUSH2 0x698 JUMPI DUP2 PUSH2 0x663 DUP3 PUSH2 0x1893 JUMP JUMPDEST POP SLOAD EQ PUSH2 0x672 JUMPI DUP6 ADD DUP6 PUSH2 0x5E6 JUMP JUMPDEST PUSH1 0xFF SWAP5 SWAP6 POP PUSH2 0x68F SWAP3 SWAP2 POP PUSH2 0x686 SWAP1 PUSH2 0x1893 JUMP JUMPDEST POP CALLER SWAP2 ADD PUSH2 0x1B02 JUMP JUMPDEST DUP3 SWAP2 DUP5 DUP1 PUSH2 0x5EB JUMP JUMPDEST PUSH2 0x5EB JUMP JUMPDEST PUSH1 0x40 MLOAD PUSH3 0x461BCD PUSH1 0xE5 SHL DUP2 MSTORE PUSH1 0x20 PUSH1 0x4 DUP3 ADD MSTORE PUSH1 0x18 PUSH1 0x24 DUP3 ADD MSTORE PUSH32 0x546869732069732061207072697661746520616C62756D2E0000000000000000 PUSH1 0x44 DUP3 ADD MSTORE PUSH1 0x64 SWAP1 REVERT JUMPDEST POP PUSH1 0x2 DUP4 ADD SLOAD CALLVALUE LT ISZERO PUSH2 0x5CD JUMP JUMPDEST POP PUSH1 0x1 SLOAD DUP2 GT ISZERO PUSH2 0x5A2 JUMP JUMPDEST CALLVALUE PUSH2 0x116 JUMPI PUSH1 0x60 CALLDATASIZE PUSH1 0x3 NOT ADD SLT PUSH2 0x116 JUMPI PUSH1 0x4 CALLDATALOAD PUSH1 0x1 PUSH1 0x1 PUSH1 0x40 SHL SUB PUSH1 0x24 CALLDATALOAD DUP2 DUP2 GT PUSH2 0x116 JUMPI PUSH2 0x730 SWAP1 CALLDATASIZE SWAP1 PUSH1 0x4 ADD PUSH2 0x1367 JUMP JUMPDEST SWAP1 PUSH1 0x44 CALLDATALOAD SWAP1 DUP2 GT PUSH2 0x116 JUMPI PUSH2 0x749 SWAP1 CALLDATASIZE SWAP1 PUSH1 0x4 ADD PUSH2 0x1367 JUMP JUMPDEST DUP3 ISZERO ISZERO DUP1 PUSH2 0x985 JUMPI JUMPDEST PUSH2 0x75B SWAP1 PUSH2 0x15DE JUMP JUMPDEST DUP3 PUSH1 0x0 MSTORE PUSH1 0x20 SWAP2 PUSH1 0x4 DUP4 MSTORE PUSH1 0x40 PUSH1 0x0 KECCAK256 SWAP2 PUSH1 0x9 SWAP1 PUSH1 0x9 DUP5 ADD SWAP4 PUSH2 0x77E DUP6 SLOAD PUSH2 0x1829 JUMP JUMPDEST DUP1 DUP7 SSTORE PUSH1 0x8 SWAP1 SWAP2 ADD DUP1 SLOAD PUSH1 0x0 SWAP2 DUP3 JUMPDEST DUP3 DUP2 LT PUSH2 0x94D JUMPI JUMPDEST POP POP POP ISZERO PUSH2 0x8E9 JUMPI SWAP1 PUSH2 0x804 SWAP7 SWAP6 SWAP5 SWAP4 SWAP3 SWAP2 PUSH1 0x4 PUSH1 0x40 MLOAD SWAP2 PUSH2 0x7B6 DUP4 PUSH2 0x12F4 JUMP JUMPDEST DUP1 DUP4 MSTORE DUP8 DUP4 ADD SWAP6 DUP7 MSTORE PUSH1 0x40 DUP4 ADD SWAP4 DUP5 MSTORE PUSH2 0x80E PUSH1 0x60 DUP5 ADD SWAP5 CALLER DUP7 MSTORE PUSH1 0x80 DUP6 ADD SWAP3 TIMESTAMP DUP5 MSTORE DUP12 PUSH1 0x0 MSTORE PUSH1 0x6 DUP12 MSTORE PUSH1 0x40 PUSH1 0x0 KECCAK256 SWAP1 PUSH1 0x0 MSTORE DUP11 MSTORE PUSH1 0x40 PUSH1 0x0 KECCAK256 SWAP5 MLOAD DUP6 SSTORE PUSH1 0x1 SWAP12 DUP13 SWAP9 MLOAD PUSH1 0x1 DUP8 ADD PUSH2 0x175A JUMP JUMPDEST MLOAD PUSH1 0x2 DUP6 ADD PUSH2 0x175A JUMP JUMPDEST PUSH1 0x3 SWAP4 PUSH1 0x3 DUP5 ADD SWAP1 PUSH1 0x1 DUP1 PUSH1 0xA0 SHL SUB SWAP1 MLOAD AND PUSH12 0xFFFFFFFFFFFFFFFFFFFFFFFF PUSH1 0xA0 SHL DUP3 SLOAD AND OR SWAP1 SSTORE MLOAD SWAP2 ADD SSTORE PUSH1 0x0 SWAP7 JUMPDEST PUSH2 0x876 JUMPI JUMPDEST PUSH32 0x5138483D623EEF75882D5CA6ED33E44C7ECAFE842F3311844EABF67A297CE76C PUSH1 0x40 DUP8 DUP8 DUP8 SLOAD SWAP1 DUP4 MLOAD SWAP3 DUP4 MSTORE DUP3 ADD MSTORE LOG1 STOP JUMPDEST DUP1 SLOAD DUP8 LT ISZERO PUSH2 0x8E4 JUMPI DUP6 PUSH2 0x889 DUP9 PUSH2 0x1893 JUMP JUMPDEST POP SLOAD EQ PUSH2 0x89A JUMPI SWAP6 DUP3 ADD SWAP6 DUP3 PUSH2 0x83E JUMP JUMPDEST POP PUSH1 0x40 SWAP5 SWAP4 SWAP3 SWAP2 POP PUSH2 0x8CC PUSH32 0x5138483D623EEF75882D5CA6ED33E44C7ECAFE842F3311844EABF67A297CE76C SWAP7 PUSH2 0x1893 JUMP JUMPDEST POP ADD PUSH2 0x8D8 DUP2 SLOAD PUSH2 0x1829 JUMP JUMPDEST SWAP1 SSTORE SWAP1 SWAP2 SWAP3 DUP6 DUP1 PUSH2 0x843 JUMP JUMPDEST PUSH2 0x843 JUMP JUMPDEST PUSH1 0x40 MLOAD PUSH3 0x461BCD PUSH1 0xE5 SHL DUP2 MSTORE PUSH1 0x4 DUP2 ADD DUP8 SWAP1 MSTORE PUSH1 0x36 PUSH1 0x24 DUP3 ADD MSTORE PUSH32 0x4F6E6C792074686F73652077686F2068617665206A6F696E6564207468652061 PUSH1 0x44 DUP3 ADD MSTORE PUSH22 0x36313AB69031B0B71030B2321030B71034B6B0B3B297 PUSH1 0x51 SHL PUSH1 0x64 DUP3 ADD MSTORE PUSH1 0x84 SWAP1 REVERT JUMPDEST PUSH2 0x957 DUP2 DUP4 PUSH2 0x16D0 JUMP JUMPDEST SWAP1 SLOAD PUSH1 0x3 SWAP2 SWAP1 SWAP2 SHL SHR PUSH1 0x1 PUSH1 0x1 PUSH1 0xA0 SHL SUB AND CALLER EQ PUSH2 0x977 JUMPI PUSH1 0x1 ADD PUSH2 0x78D JUMP JUMPDEST POP POP POP POP PUSH1 0x1 DUP9 DUP1 DUP1 PUSH2 0x795 JUMP JUMPDEST POP PUSH1 0x1 SLOAD DUP4 GT ISZERO PUSH2 0x752 JUMP JUMPDEST CALLVALUE PUSH2 0x116 JUMPI PUSH1 0x0 CALLDATASIZE PUSH1 0x3 NOT ADD SLT PUSH2 0x116 JUMPI PUSH1 0x20 PUSH1 0x1 SLOAD PUSH1 0x40 MLOAD SWAP1 DUP2 MSTORE RETURN JUMPDEST CALLVALUE PUSH2 0x116 JUMPI PUSH1 0x0 CALLDATASIZE PUSH1 0x3 NOT ADD SLT PUSH2 0x116 JUMPI PUSH1 0x0 DUP1 PUSH1 0x3 DUP1 SLOAD SWAP3 JUMPDEST DUP4 DUP2 LT PUSH2 0xB2B JUMPI POP PUSH2 0x9F3 PUSH2 0x9DD DUP4 PUSH2 0x13AE JUMP JUMPDEST SWAP3 PUSH2 0x9EB PUSH1 0x40 MLOAD SWAP5 DUP6 PUSH2 0x132B JUMP JUMPDEST DUP1 DUP5 MSTORE PUSH2 0x13AE JUMP JUMPDEST PUSH1 0x20 SWAP4 SWAP1 PUSH1 0x1F NOT ADD DUP5 PUSH1 0x0 JUMPDEST DUP3 DUP2 LT PUSH2 0xB15 JUMPI POP POP POP SWAP1 PUSH1 0x0 SWAP2 PUSH1 0x0 SWAP1 JUMPDEST DUP1 DUP3 LT PUSH2 0xA76 JUMPI PUSH1 0x40 DUP1 MLOAD DUP8 DUP2 MSTORE DUP7 MLOAD DUP2 DUP10 ADD DUP2 SWAP1 MSTORE PUSH1 0x0 SWAP3 PUSH1 0x5 DUP3 SWAP1 SHL DUP4 ADD DUP2 ADD SWAP2 DUP10 DUP12 ADD SWAP2 DUP12 SWAP1 DUP6 ADD JUMPDEST DUP3 DUP8 LT PUSH2 0xA4A JUMPI DUP6 DUP6 SUB DUP7 RETURN JUMPDEST SWAP1 SWAP2 SWAP3 SWAP4 DUP3 DUP1 PUSH2 0xA66 PUSH1 0x1 SWAP4 PUSH1 0x3F NOT DUP11 DUP3 SUB ADD DUP7 MSTORE DUP9 MLOAD PUSH2 0x13C5 JUMP JUMPDEST SWAP7 ADD SWAP3 ADD SWAP7 ADD SWAP6 SWAP3 SWAP2 SWAP1 SWAP3 PUSH2 0xA3D JUMP JUMPDEST SWAP1 SWAP3 SWAP5 PUSH1 0x0 SWAP5 SWAP3 SWAP5 JUMPDEST PUSH2 0xA88 DUP6 PUSH2 0x1893 JUMP JUMPDEST POP PUSH1 0x8 DUP1 SWAP2 ADD SLOAD DUP3 LT ISZERO PUSH2 0xB06 JUMPI DUP2 PUSH2 0xAAB SWAP2 PUSH2 0xAA4 DUP9 PUSH2 0x1893 JUMP JUMPDEST POP ADD PUSH2 0x16D0 JUMP JUMPDEST SWAP1 SLOAD SWAP1 DUP8 SHL SHR PUSH1 0x1 PUSH1 0x1 PUSH1 0xA0 SHL SUB AND CALLER EQ PUSH2 0xAC8 JUMPI PUSH1 0x1 ADD PUSH2 0xA7F JUMP JUMPDEST POP SWAP5 PUSH2 0xAFB PUSH1 0x1 SWAP2 PUSH2 0xAE6 PUSH2 0xAE0 DUP8 SWAP6 SWAP7 SWAP9 SWAP8 PUSH2 0x1893 JUMP JUMPDEST POP PUSH2 0x1A65 JUMP JUMPDEST PUSH2 0xAF0 DUP3 DUP10 PUSH2 0x1838 JUMP JUMPDEST MSTORE PUSH2 0x507 DUP2 DUP9 PUSH2 0x1838 JUMP JUMPDEST SWAP2 JUMPDEST ADD SWAP1 SWAP3 SWAP2 PUSH2 0xA11 JUMP JUMPDEST POP POP SWAP5 SWAP1 SWAP2 SWAP4 SWAP3 PUSH1 0x1 SWAP1 PUSH2 0xAFD JUMP JUMPDEST PUSH2 0xB1D PUSH2 0x1A15 JUMP JUMPDEST DUP3 DUP3 DUP9 ADD ADD MSTORE ADD DUP6 SWAP1 PUSH2 0x9FF JUMP JUMPDEST SWAP1 SWAP2 PUSH1 0x0 JUMPDEST PUSH2 0xB39 DUP4 PUSH2 0x1893 JUMP JUMPDEST POP PUSH1 0x8 DUP1 SWAP2 ADD SLOAD DUP3 LT ISZERO PUSH2 0xB89 JUMPI DUP2 PUSH2 0xB55 SWAP2 PUSH2 0xAA4 DUP7 PUSH2 0x1893 JUMP JUMPDEST SWAP1 SLOAD SWAP1 DUP6 SHL SHR PUSH1 0x1 PUSH1 0x1 PUSH1 0xA0 SHL SUB AND CALLER EQ PUSH2 0xB72 JUMPI PUSH1 0x1 ADD PUSH2 0xB30 JUMP JUMPDEST POP PUSH2 0xB81 PUSH1 0x1 SWAP2 SWAP4 SWAP3 SWAP4 PUSH2 0x1829 JUMP JUMPDEST SWAP3 JUMPDEST ADD PUSH2 0x9C9 JUMP JUMPDEST POP POP SWAP2 SWAP1 PUSH1 0x1 SWAP1 PUSH2 0xB83 JUMP JUMPDEST CALLVALUE PUSH2 0x116 JUMPI PUSH1 0xC0 CALLDATASIZE PUSH1 0x3 NOT ADD SLT PUSH2 0x116 JUMPI PUSH1 0x4 CALLDATALOAD PUSH1 0x1 PUSH1 0x1 PUSH1 0x40 SHL SUB DUP2 GT PUSH2 0x116 JUMPI PUSH2 0xBC5 SWAP1 CALLDATASIZE SWAP1 PUSH1 0x4 ADD PUSH2 0x1367 JUMP JUMPDEST PUSH1 0x24 CALLDATALOAD PUSH1 0x1 PUSH1 0x1 PUSH1 0x40 SHL SUB DUP2 GT PUSH2 0x116 JUMPI PUSH2 0xBE4 SWAP1 CALLDATASIZE SWAP1 PUSH1 0x4 ADD PUSH2 0x1367 JUMP JUMPDEST SWAP1 PUSH1 0x44 CALLDATALOAD SWAP2 PUSH1 0x1 PUSH1 0x1 PUSH1 0x40 SHL SUB DUP4 GT PUSH2 0x116 JUMPI CALLDATASIZE PUSH1 0x23 DUP5 ADD SLT ISZERO PUSH2 0x116 JUMPI DUP3 PUSH1 0x4 ADD CALLDATALOAD PUSH2 0xC10 DUP2 PUSH2 0x13AE JUMP JUMPDEST SWAP4 PUSH2 0xC1E PUSH1 0x40 MLOAD SWAP6 DUP7 PUSH2 0x132B JUMP JUMPDEST DUP2 DUP6 MSTORE PUSH1 0x24 PUSH1 0x20 DUP7 ADD SWAP3 PUSH1 0x5 SHL DUP3 ADD ADD SWAP1 CALLDATASIZE DUP3 GT PUSH2 0x116 JUMPI PUSH1 0x24 ADD SWAP2 JUMPDEST DUP2 DUP4 LT PUSH2 0x102E JUMPI POP POP POP PUSH1 0x64 CALLDATALOAD PUSH1 0x1 PUSH1 0x1 PUSH1 0x40 SHL SUB DUP2 GT PUSH2 0x116 JUMPI PUSH2 0xC64 SWAP1 CALLDATASIZE SWAP1 PUSH1 0x4 ADD PUSH2 0x1367 JUMP JUMPDEST SWAP2 PUSH1 0x84 CALLDATALOAD ISZERO ISZERO PUSH1 0x84 CALLDATALOAD SUB PUSH2 0x116 JUMPI PUSH2 0xC7D CALLER ISZERO ISZERO PUSH2 0x1684 JUMP JUMPDEST DUP1 MLOAD ISZERO PUSH2 0xFF4 JUMPI DUP2 MLOAD ISZERO PUSH2 0xF73 JUMPI PUSH2 0xC96 PUSH1 0x1 SLOAD PUSH2 0x1829 JUMP JUMPDEST DUP1 PUSH1 0x1 SSTORE DUP5 MLOAD SWAP3 PUSH1 0x1 DUP5 ADD DUP1 SWAP5 GT PUSH2 0x515 JUMPI PUSH2 0xCCA PUSH2 0xCB4 DUP6 PUSH2 0x13AE JUMP JUMPDEST SWAP5 PUSH2 0xCC2 PUSH1 0x40 MLOAD SWAP7 DUP8 PUSH2 0x132B JUMP JUMPDEST DUP1 DUP7 MSTORE PUSH2 0x13AE JUMP JUMPDEST PUSH1 0x1F NOT ADD CALLDATASIZE PUSH1 0x20 DUP7 ADD CALLDATACOPY PUSH1 0x0 JUMPDEST DUP7 MLOAD DUP2 LT ISZERO PUSH2 0xD08 JUMPI PUSH1 0x1 SWAP1 PUSH1 0x1 PUSH1 0x1 PUSH1 0xA0 SHL SUB PUSH2 0xCF5 DUP3 DUP11 PUSH2 0x1838 JUMP JUMPDEST MLOAD AND PUSH2 0xD01 DUP3 DUP9 PUSH2 0x1838 JUMP JUMPDEST MSTORE ADD PUSH2 0xCD7 JUMP JUMPDEST POP DUP4 SWAP1 DUP6 DUP8 PUSH2 0xD19 CALLER SWAP2 MLOAD DUP6 PUSH2 0x1838 JUMP JUMPDEST MSTORE DUP4 PUSH1 0x0 MSTORE PUSH1 0x4 PUSH1 0x20 MSTORE PUSH1 0x40 PUSH1 0x0 KECCAK256 SWAP4 DUP5 SSTORE PUSH2 0xD46 PUSH1 0x84 CALLDATALOAD PUSH1 0x1 DUP7 ADD SWAP1 PUSH1 0xFF DUP1 NOT DUP4 SLOAD AND SWAP2 ISZERO ISZERO AND OR SWAP1 SSTORE JUMP JUMPDEST PUSH1 0x84 CALLDATALOAD ISZERO PUSH2 0xF43 JUMPI PUSH2 0xD87 PUSH2 0xD90 SWAP3 PUSH1 0x0 JUMPDEST PUSH1 0x2 DUP8 ADD SSTORE PUSH1 0x3 DUP7 ADD DUP1 SLOAD PUSH1 0x1 PUSH1 0x1 PUSH1 0xA0 SHL SUB NOT AND CALLER OR SWAP1 SSTORE PUSH2 0xD7E DUP8 PUSH1 0x4 DUP9 ADD PUSH2 0x175A JUMP JUMPDEST PUSH1 0x5 DUP7 ADD PUSH2 0x175A JUMP JUMPDEST PUSH1 0x6 DUP5 ADD PUSH2 0x175A JUMP JUMPDEST TIMESTAMP PUSH1 0x7 DUP4 ADD SSTORE DUP1 MLOAD SWAP1 PUSH1 0x1 PUSH1 0x1 PUSH1 0x40 SHL SUB DUP3 GT PUSH2 0xF10 JUMPI PUSH1 0x20 SWAP1 PUSH2 0xDB7 DUP4 PUSH1 0x8 DUP7 ADD PUSH2 0x185F JUMP JUMPDEST ADD PUSH1 0x8 DUP4 ADD PUSH1 0x0 MSTORE PUSH1 0x20 PUSH1 0x0 KECCAK256 PUSH1 0x0 JUMPDEST DUP4 DUP2 LT PUSH2 0xF26 JUMPI DUP6 DUP6 PUSH1 0x9 DUP2 ADD SWAP1 PUSH1 0x0 DUP3 SSTORE PUSH1 0x3 SLOAD PUSH1 0x1 PUSH1 0x40 SHL DUP2 LT ISZERO PUSH2 0xF10 JUMPI DUP1 PUSH1 0x1 PUSH2 0xDF8 SWAP3 ADD PUSH1 0x3 SSTORE PUSH2 0x1893 JUMP JUMPDEST SWAP3 SWAP1 SWAP3 PUSH2 0xEFA JUMPI DUP2 DUP4 SUB PUSH2 0xE4D JUMPI JUMPDEST PUSH1 0x1 SLOAD PUSH1 0x40 DUP1 MLOAD DUP2 DUP2 MSTORE PUSH32 0xD3CC7C228A9442B3E32B7FB9E7AC4298594EEB118C36CBFBAF73FEEF8394627D SWAP2 PUSH2 0xE3F SWAP1 DUP3 ADD DUP9 PUSH2 0x12B4 JUMP JUMPDEST SWAP3 PUSH1 0x20 DUP3 ADD MSTORE DUP1 CALLER SWAP4 SUB SWAP1 LOG2 STOP JUMPDEST PUSH2 0xEEE PUSH1 0x8 DUP4 PUSH1 0x9 SWAP5 SLOAD DUP7 SSTORE PUSH2 0xE79 PUSH1 0xFF PUSH1 0x1 DUP4 ADD SLOAD AND PUSH1 0x1 DUP9 ADD SWAP1 PUSH1 0xFF DUP1 NOT DUP4 SLOAD AND SWAP2 ISZERO ISZERO AND OR SWAP1 SSTORE JUMP JUMPDEST PUSH1 0x2 DUP2 ADD SLOAD PUSH1 0x2 DUP8 ADD SSTORE PUSH1 0x3 DUP7 ADD PUSH1 0x1 DUP1 PUSH1 0xA0 SHL SUB PUSH1 0x3 DUP4 ADD SLOAD AND PUSH12 0xFFFFFFFFFFFFFFFFFFFFFFFF PUSH1 0xA0 SHL DUP3 SLOAD AND OR SWAP1 SSTORE PUSH2 0xEBA PUSH1 0x4 DUP3 ADD PUSH1 0x4 DUP9 ADD PUSH2 0x18CE JUMP JUMPDEST PUSH2 0xECA PUSH1 0x5 DUP3 ADD PUSH1 0x5 DUP9 ADD PUSH2 0x18CE JUMP JUMPDEST PUSH2 0xEDA PUSH1 0x6 DUP3 ADD PUSH1 0x6 DUP9 ADD PUSH2 0x18CE JUMP JUMPDEST PUSH1 0x7 DUP2 ADD SLOAD PUSH1 0x7 DUP8 ADD SSTORE ADD PUSH1 0x8 DUP6 ADD PUSH2 0x19AC JUMP JUMPDEST SLOAD SWAP2 ADD SSTORE DUP2 DUP1 DUP1 PUSH2 0xE07 JUMP JUMPDEST PUSH4 0x4E487B71 PUSH1 0xE0 SHL PUSH1 0x0 MSTORE PUSH1 0x0 PUSH1 0x4 MSTORE PUSH1 0x24 PUSH1 0x0 REVERT JUMPDEST PUSH4 0x4E487B71 PUSH1 0xE0 SHL PUSH1 0x0 MSTORE PUSH1 0x41 PUSH1 0x4 MSTORE PUSH1 0x24 PUSH1 0x0 REVERT JUMPDEST DUP3 MLOAD PUSH1 0x1 PUSH1 0x1 PUSH1 0xA0 SHL SUB AND DUP2 DUP4 ADD SSTORE PUSH1 0x20 SWAP1 SWAP3 ADD SWAP2 PUSH1 0x1 ADD PUSH2 0xDC7 JUMP JUMPDEST PUSH8 0xDE0B6B3A7640000 DUP1 PUSH1 0xA4 CALLDATALOAD MUL SWAP1 PUSH1 0xA4 CALLDATALOAD DUP3 DIV EQ PUSH1 0xA4 CALLDATALOAD ISZERO OR ISZERO PUSH2 0x515 JUMPI PUSH2 0xD90 SWAP3 PUSH2 0x3E8 PUSH2 0xD87 SWAP3 DIV PUSH2 0xD58 JUMP JUMPDEST PUSH1 0x40 MLOAD PUSH3 0x461BCD PUSH1 0xE5 SHL DUP2 MSTORE PUSH1 0x20 PUSH1 0x4 DUP3 ADD MSTORE PUSH1 0x4D PUSH1 0x24 DUP3 ADD MSTORE PUSH32 0x446573637269626520796F757220616C62756D20746F206C6574207468652077 PUSH1 0x44 DUP3 ADD MSTORE PUSH32 0x6F726C64206B6E6F7720686F7720796F752066656C74207768656E20796F7520 PUSH1 0x64 DUP3 ADD MSTORE PUSH13 0x31B932B0BA32B2103A3434B997 PUSH1 0x99 SHL PUSH1 0x84 DUP3 ADD MSTORE PUSH1 0xA4 SWAP1 REVERT JUMPDEST PUSH1 0x40 MLOAD PUSH3 0x461BCD PUSH1 0xE5 SHL DUP2 MSTORE PUSH1 0x20 PUSH1 0x4 DUP3 ADD MSTORE PUSH1 0x12 PUSH1 0x24 DUP3 ADD MSTORE PUSH18 0x283632B0B9B29030B2321030903730B6B297 PUSH1 0x71 SHL PUSH1 0x44 DUP3 ADD MSTORE PUSH1 0x64 SWAP1 REVERT JUMPDEST DUP3 CALLDATALOAD PUSH1 0x1 PUSH1 0x1 PUSH1 0xA0 SHL SUB DUP2 AND DUP2 SUB PUSH2 0x116 JUMPI DUP2 MSTORE PUSH1 0x20 SWAP3 DUP4 ADD SWAP3 ADD PUSH2 0xC3B JUMP JUMPDEST CALLVALUE PUSH2 0x116 JUMPI PUSH1 0x20 CALLDATASIZE PUSH1 0x3 NOT ADD SLT PUSH2 0x116 JUMPI PUSH1 0x4 CALLDATALOAD PUSH1 0x1 PUSH1 0x1 PUSH1 0x40 SHL SUB DUP2 GT PUSH2 0x116 JUMPI PUSH2 0x107E SWAP1 CALLDATASIZE SWAP1 PUSH1 0x4 ADD PUSH2 0x1367 JUMP JUMPDEST PUSH2 0x1089 CALLER ISZERO ISZERO PUSH2 0x1684 JUMP JUMPDEST DUP1 MLOAD ISZERO PUSH2 0x110E JUMPI CALLER PUSH1 0x0 MSTORE PUSH1 0x5 PUSH1 0x20 MSTORE PUSH1 0x40 PUSH1 0x0 KECCAK256 DUP1 SLOAD PUSH1 0x1 PUSH1 0x40 SHL DUP2 LT ISZERO PUSH2 0xF10 JUMPI PUSH2 0x10BB SWAP2 PUSH1 0x1 DUP3 ADD DUP2 SSTORE PUSH2 0x16D0 JUMP JUMPDEST PUSH2 0xEFA JUMPI DUP2 PUSH2 0x10C9 SWAP2 PUSH2 0x175A JUMP JUMPDEST PUSH32 0x34647A087C36357C4B77D3D7B4BC2B55D01C3EF8726DC75A70652D96E1510CC3 PUSH2 0x10FF PUSH1 0x40 MLOAD SWAP3 PUSH1 0x40 DUP5 MSTORE PUSH1 0x40 DUP5 ADD SWAP1 PUSH2 0x12B4 JUMP JUMPDEST SWAP2 TIMESTAMP PUSH1 0x20 DUP3 ADD MSTORE DUP1 CALLER SWAP4 SUB SWAP1 LOG2 STOP JUMPDEST PUSH1 0x40 MLOAD PUSH3 0x461BCD PUSH1 0xE5 SHL DUP2 MSTORE PUSH1 0x20 PUSH1 0x4 DUP3 ADD MSTORE PUSH1 0x11 PUSH1 0x24 DUP3 ADD MSTORE PUSH17 0x283632B0B9B29030B2321030903AB93617 PUSH1 0x79 SHL PUSH1 0x44 DUP3 ADD MSTORE PUSH1 0x64 SWAP1 REVERT JUMPDEST CALLVALUE PUSH2 0x116 JUMPI PUSH1 0x20 DUP1 PUSH1 0x3 NOT CALLDATASIZE ADD SLT PUSH2 0x116 JUMPI PUSH1 0x4 CALLDATALOAD DUP1 ISZERO ISZERO DUP1 PUSH2 0x11D1 JUMPI JUMPDEST PUSH2 0x116E SWAP1 PUSH2 0x15DE JUMP JUMPDEST PUSH1 0x0 MSTORE PUSH1 0x4 DUP2 MSTORE PUSH2 0x1185 PUSH1 0x8 PUSH1 0x40 PUSH1 0x0 KECCAK256 ADD PUSH2 0x162A JUMP JUMPDEST SWAP1 PUSH1 0x40 MLOAD SWAP2 DUP2 DUP4 SWAP3 DUP4 ADD DUP2 DUP5 MSTORE DUP3 MLOAD DUP1 SWAP2 MSTORE DUP2 PUSH1 0x40 DUP6 ADD SWAP4 ADD SWAP2 PUSH1 0x0 JUMPDEST DUP3 DUP2 LT PUSH2 0x11B1 JUMPI POP POP POP POP SUB SWAP1 RETURN JUMPDEST DUP4 MLOAD PUSH1 0x1 PUSH1 0x1 PUSH1 0xA0 SHL SUB AND DUP6 MSTORE DUP7 SWAP6 POP SWAP4 DUP2 ADD SWAP4 SWAP3 DUP2 ADD SWAP3 PUSH1 0x1 ADD PUSH2 0x11A2 JUMP JUMPDEST POP PUSH1 0x1 SLOAD DUP2 GT ISZERO PUSH2 0x1165 JUMP JUMPDEST CALLVALUE PUSH2 0x116 JUMPI PUSH1 0x0 CALLDATASIZE PUSH1 0x3 NOT ADD SLT PUSH2 0x116 JUMPI CALLER PUSH1 0x0 MSTORE PUSH1 0x20 PUSH1 0x5 DUP2 MSTORE PUSH1 0x40 PUSH1 0x0 KECCAK256 SWAP1 DUP2 SLOAD SWAP2 PUSH2 0x120A DUP4 PUSH2 0x13AE JUMP JUMPDEST SWAP3 PUSH2 0x1218 PUSH1 0x40 MLOAD SWAP5 DUP6 PUSH2 0x132B JUMP JUMPDEST DUP1 DUP5 MSTORE DUP3 DUP5 ADD DUP1 SWAP3 PUSH1 0x0 MSTORE DUP4 PUSH1 0x0 KECCAK256 PUSH1 0x0 SWAP2 JUMPDEST DUP4 DUP4 LT PUSH2 0x1292 JUMPI POP POP POP POP PUSH1 0x40 MLOAD SWAP2 DUP1 DUP4 ADD SWAP4 DUP2 DUP5 MSTORE MLOAD DUP1 SWAP5 MSTORE PUSH1 0x40 DUP4 ADD SWAP4 PUSH1 0x40 DUP2 PUSH1 0x5 SHL DUP6 ADD ADD SWAP3 SWAP2 PUSH1 0x0 SWAP6 JUMPDEST DUP3 DUP8 LT PUSH2 0x1266 JUMPI DUP6 DUP6 SUB DUP7 RETURN JUMPDEST SWAP1 SWAP2 SWAP3 SWAP4 DUP3 DUP1 PUSH2 0x1282 PUSH1 0x1 SWAP4 PUSH1 0x3F NOT DUP11 DUP3 SUB ADD DUP7 MSTORE DUP9 MLOAD PUSH2 0x12B4 JUMP JUMPDEST SWAP7 ADD SWAP3 ADD SWAP7 ADD SWAP6 SWAP3 SWAP2 SWAP1 SWAP3 PUSH2 0x1259 JUMP JUMPDEST PUSH1 0x1 DUP7 DUP2 SWAP3 PUSH2 0x12A3 DUP6 SWAP11 SWAP10 SWAP11 PUSH2 0x1539 JUMP JUMPDEST DUP2 MSTORE ADD SWAP3 ADD SWAP3 ADD SWAP2 SWAP1 SWAP6 SWAP5 SWAP6 PUSH2 0x122B JUMP JUMPDEST SWAP2 SWAP1 DUP3 MLOAD SWAP3 DUP4 DUP3 MSTORE PUSH1 0x0 JUMPDEST DUP5 DUP2 LT PUSH2 0x12E0 JUMPI POP POP DUP3 PUSH1 0x0 PUSH1 0x20 DUP1 SWAP5 SWAP6 DUP5 ADD ADD MSTORE PUSH1 0x1F DUP1 NOT SWAP2 ADD AND ADD ADD SWAP1 JUMP JUMPDEST PUSH1 0x20 DUP2 DUP4 ADD DUP2 ADD MLOAD DUP5 DUP4 ADD DUP3 ADD MSTORE ADD PUSH2 0x12BF JUMP JUMPDEST PUSH1 0xA0 DUP2 ADD SWAP1 DUP2 LT PUSH1 0x1 PUSH1 0x1 PUSH1 0x40 SHL SUB DUP3 GT OR PUSH2 0xF10 JUMPI PUSH1 0x40 MSTORE JUMP JUMPDEST PUSH2 0x140 DUP2 ADD SWAP1 DUP2 LT PUSH1 0x1 PUSH1 0x1 PUSH1 0x40 SHL SUB DUP3 GT OR PUSH2 0xF10 JUMPI PUSH1 0x40 MSTORE JUMP JUMPDEST SWAP1 PUSH1 0x1F DUP1 NOT SWAP2 ADD AND DUP2 ADD SWAP1 DUP2 LT PUSH1 0x1 PUSH1 0x1 PUSH1 0x40 SHL SUB DUP3 GT OR PUSH2 0xF10 JUMPI PUSH1 0x40 MSTORE JUMP JUMPDEST PUSH1 0x1 PUSH1 0x1 PUSH1 0x40 SHL SUB DUP2 GT PUSH2 0xF10 JUMPI PUSH1 0x1F ADD PUSH1 0x1F NOT AND PUSH1 0x20 ADD SWAP1 JUMP JUMPDEST DUP2 PUSH1 0x1F DUP3 ADD SLT ISZERO PUSH2 0x116 JUMPI DUP1 CALLDATALOAD SWAP1 PUSH2 0x137E DUP3 PUSH2 0x134C JUMP JUMPDEST SWAP3 PUSH2 0x138C PUSH1 0x40 MLOAD SWAP5 DUP6 PUSH2 0x132B JUMP JUMPDEST DUP3 DUP5 MSTORE PUSH1 0x20 DUP4 DUP4 ADD ADD GT PUSH2 0x116 JUMPI DUP2 PUSH1 0x0 SWAP3 PUSH1 0x20 DUP1 SWAP4 ADD DUP4 DUP7 ADD CALLDATACOPY DUP4 ADD ADD MSTORE SWAP1 JUMP JUMPDEST PUSH1 0x1 PUSH1 0x1 PUSH1 0x40 SHL SUB DUP2 GT PUSH2 0xF10 JUMPI PUSH1 0x5 SHL PUSH1 0x20 ADD SWAP1 JUMP JUMPDEST SWAP1 PUSH2 0x140 SWAP2 DUP1 MLOAD DUP3 MSTORE PUSH1 0x20 SWAP3 DUP4 DUP3 ADD MLOAD ISZERO ISZERO DUP5 DUP5 ADD MSTORE PUSH1 0x40 DUP3 ADD MLOAD PUSH1 0x40 DUP5 ADD MSTORE PUSH2 0x143B PUSH2 0x1429 PUSH2 0x1417 PUSH1 0x60 DUP6 ADD MLOAD SWAP4 PUSH1 0x1 DUP1 PUSH1 0xA0 SHL SUB DUP1 SWAP6 AND PUSH1 0x60 DUP9 ADD MSTORE PUSH1 0x80 DUP7 ADD MLOAD SWAP1 DUP1 PUSH1 0x80 DUP10 ADD MSTORE DUP8 ADD SWAP1 PUSH2 0x12B4 JUMP JUMPDEST PUSH1 0xA0 DUP6 ADD MLOAD DUP7 DUP3 SUB PUSH1 0xA0 DUP9 ADD MSTORE PUSH2 0x12B4 JUMP JUMPDEST PUSH1 0xC0 DUP5 ADD MLOAD DUP6 DUP3 SUB PUSH1 0xC0 DUP8 ADD MSTORE PUSH2 0x12B4 JUMP JUMPDEST PUSH1 0xE0 DUP4 ADD MLOAD PUSH1 0xE0 DUP6 ADD MSTORE PUSH2 0x100 SWAP5 DUP6 DUP5 ADD MLOAD SWAP6 DUP6 DUP4 SUB SWAP1 DUP7 ADD MSTORE DUP1 DUP1 DUP8 MLOAD SWAP4 DUP5 DUP2 MSTORE ADD SWAP7 ADD SWAP3 PUSH1 0x0 SWAP1 JUMPDEST DUP4 DUP3 LT PUSH2 0x147E JUMPI POP POP POP POP POP PUSH2 0x120 DUP1 SWAP2 ADD MLOAD SWAP2 ADD MSTORE SWAP1 JUMP JUMPDEST DUP5 MLOAD DUP2 AND DUP9 MSTORE SWAP7 DUP3 ADD SWAP7 SWAP4 DUP3 ADD SWAP4 PUSH1 0x1 SWAP1 SWAP2 ADD SWAP1 PUSH2 0x1465 JUMP JUMPDEST SWAP1 DUP2 MLOAD DUP2 MSTORE PUSH1 0x80 DUP1 PUSH2 0x14CD PUSH2 0x14BB PUSH1 0x20 DUP7 ADD MLOAD PUSH1 0xA0 PUSH1 0x20 DUP8 ADD MSTORE PUSH1 0xA0 DUP7 ADD SWAP1 PUSH2 0x12B4 JUMP JUMPDEST PUSH1 0x40 DUP7 ADD MLOAD DUP6 DUP3 SUB PUSH1 0x40 DUP8 ADD MSTORE PUSH2 0x12B4 JUMP JUMPDEST PUSH1 0x60 DUP1 DUP7 ADD MLOAD PUSH1 0x1 PUSH1 0x1 PUSH1 0xA0 SHL SUB AND SWAP1 DUP6 ADD MSTORE SWAP4 ADD MLOAD SWAP2 ADD MSTORE SWAP1 JUMP JUMPDEST PUSH1 0x40 SWAP1 PUSH1 0x3 NOT ADD SLT PUSH2 0x116 JUMPI PUSH1 0x4 CALLDATALOAD SWAP1 PUSH1 0x24 CALLDATALOAD SWAP1 JUMP JUMPDEST SWAP1 PUSH1 0x1 DUP3 DUP2 SHR SWAP3 AND DUP1 ISZERO PUSH2 0x152F JUMPI JUMPDEST PUSH1 0x20 DUP4 LT EQ PUSH2 0x1519 JUMPI JUMP JUMPDEST PUSH4 0x4E487B71 PUSH1 0xE0 SHL PUSH1 0x0 MSTORE PUSH1 0x22 PUSH1 0x4 MSTORE PUSH1 0x24 PUSH1 0x0 REVERT JUMPDEST SWAP2 PUSH1 0x7F AND SWAP2 PUSH2 0x150E JUMP JUMPDEST SWAP1 PUSH1 0x40 MLOAD SWAP2 DUP3 PUSH1 0x0 DUP3 SLOAD PUSH2 0x154C DUP2 PUSH2 0x14FF JUMP JUMPDEST SWAP1 DUP2 DUP5 MSTORE PUSH1 0x20 SWAP5 PUSH1 0x1 SWAP2 PUSH1 0x1 DUP2 AND SWAP1 DUP2 PUSH1 0x0 EQ PUSH2 0x15BC JUMPI POP PUSH1 0x1 EQ PUSH2 0x157D JUMPI JUMPDEST POP POP POP PUSH2 0x157B SWAP3 POP SUB DUP4 PUSH2 0x132B JUMP JUMPDEST JUMP JUMPDEST PUSH1 0x0 SWAP1 DUP2 MSTORE DUP6 DUP2 KECCAK256 SWAP6 SWAP4 POP SWAP2 SWAP1 JUMPDEST DUP2 DUP4 LT PUSH2 0x15A4 JUMPI POP POP PUSH2 0x157B SWAP4 POP DUP3 ADD ADD CODESIZE DUP1 DUP1 PUSH2 0x156C JUMP JUMPDEST DUP6 SLOAD DUP9 DUP5 ADD DUP6 ADD MSTORE SWAP5 DUP6 ADD SWAP5 DUP8 SWAP5 POP SWAP2 DUP4 ADD SWAP2 PUSH2 0x158B JUMP JUMPDEST SWAP3 POP POP POP PUSH2 0x157B SWAP5 SWAP3 POP PUSH1 0xFF NOT AND DUP3 DUP5 ADD MSTORE ISZERO ISZERO PUSH1 0x5 SHL DUP3 ADD ADD CODESIZE DUP1 DUP1 PUSH2 0x156C JUMP JUMPDEST ISZERO PUSH2 0x15E5 JUMPI JUMP JUMPDEST PUSH1 0x40 MLOAD PUSH3 0x461BCD PUSH1 0xE5 SHL DUP2 MSTORE PUSH1 0x20 PUSH1 0x4 DUP3 ADD MSTORE PUSH1 0x19 PUSH1 0x24 DUP3 ADD MSTORE PUSH32 0x5468697320616C62756D20646F6573206E6F7420657869737400000000000000 PUSH1 0x44 DUP3 ADD MSTORE PUSH1 0x64 SWAP1 REVERT JUMPDEST SWAP1 PUSH1 0x40 MLOAD SWAP2 DUP3 DUP2 SLOAD SWAP2 DUP3 DUP3 MSTORE PUSH1 0x20 SWAP3 PUSH1 0x20 DUP4 ADD SWAP2 PUSH1 0x0 MSTORE PUSH1 0x20 PUSH1 0x0 KECCAK256 SWAP4 PUSH1 0x0 SWAP1 JUMPDEST DUP3 DUP3 LT PUSH2 0x1661 JUMPI POP POP POP PUSH2 0x157B SWAP3 POP SUB DUP4 PUSH2 0x132B JUMP JUMPDEST DUP6 SLOAD PUSH1 0x1 PUSH1 0x1 PUSH1 0xA0 SHL SUB AND DUP5 MSTORE PUSH1 0x1 SWAP6 DUP7 ADD SWAP6 DUP9 SWAP6 POP SWAP4 DUP2 ADD SWAP4 SWAP1 SWAP2 ADD SWAP1 PUSH2 0x164B JUMP JUMPDEST ISZERO PUSH2 0x168B JUMPI JUMP JUMPDEST PUSH1 0x40 MLOAD PUSH3 0x461BCD PUSH1 0xE5 SHL DUP2 MSTORE PUSH1 0x20 PUSH1 0x4 DUP3 ADD MSTORE PUSH1 0x1A PUSH1 0x24 DUP3 ADD MSTORE PUSH32 0x4E6F207A65726F2061646472657373657320616C6C6F7765642E000000000000 PUSH1 0x44 DUP3 ADD MSTORE PUSH1 0x64 SWAP1 REVERT JUMPDEST DUP1 SLOAD DUP3 LT ISZERO PUSH2 0x16E8 JUMPI PUSH1 0x0 MSTORE PUSH1 0x20 PUSH1 0x0 KECCAK256 ADD SWAP1 PUSH1 0x0 SWAP1 JUMP JUMPDEST PUSH4 0x4E487B71 PUSH1 0xE0 SHL PUSH1 0x0 MSTORE PUSH1 0x32 PUSH1 0x4 MSTORE PUSH1 0x24 PUSH1 0x0 REVERT JUMPDEST DUP2 DUP2 LT PUSH2 0x1709 JUMPI POP POP JUMP JUMPDEST PUSH1 0x0 DUP2 SSTORE PUSH1 0x1 ADD PUSH2 0x16FE JUMP JUMPDEST SWAP2 SWAP1 PUSH1 0x1F DUP2 GT PUSH2 0x1724 JUMPI POP POP POP JUMP JUMPDEST PUSH2 0x157B SWAP3 PUSH1 0x0 MSTORE PUSH1 0x20 PUSH1 0x0 KECCAK256 SWAP1 PUSH1 0x20 PUSH1 0x1F DUP5 ADD PUSH1 0x5 SHR DUP4 ADD SWAP4 LT PUSH2 0x1750 JUMPI JUMPDEST PUSH1 0x1F ADD PUSH1 0x5 SHR ADD SWAP1 PUSH2 0x16FE JUMP JUMPDEST SWAP1 SWAP2 POP DUP2 SWAP1 PUSH2 0x1743 JUMP JUMPDEST SWAP2 SWAP1 SWAP2 DUP3 MLOAD PUSH1 0x1 PUSH1 0x1 PUSH1 0x40 SHL SUB DUP2 GT PUSH2 0xF10 JUMPI PUSH2 0x1781 DUP2 PUSH2 0x177B DUP5 SLOAD PUSH2 0x14FF JUMP JUMPDEST DUP5 PUSH2 0x1715 JUMP JUMPDEST PUSH1 0x20 DUP1 PUSH1 0x1F DUP4 GT PUSH1 0x1 EQ PUSH2 0x17C4 JUMPI POP DUP2 SWAP1 PUSH2 0x17B5 SWAP4 SWAP5 SWAP6 PUSH1 0x0 SWAP3 PUSH2 0x17B9 JUMPI JUMPDEST POP POP DUP2 PUSH1 0x1 SHL SWAP2 PUSH1 0x0 NOT SWAP1 PUSH1 0x3 SHL SHR NOT AND OR SWAP1 JUMP JUMPDEST SWAP1 SSTORE JUMP JUMPDEST ADD MLOAD SWAP1 POP CODESIZE DUP1 PUSH2 0x17A0 JUMP JUMPDEST SWAP1 PUSH1 0x1F NOT DUP4 AND SWAP6 DUP5 PUSH1 0x0 MSTORE PUSH1 0x20 PUSH1 0x0 KECCAK256 SWAP3 PUSH1 0x0 SWAP1 JUMPDEST DUP9 DUP3 LT PUSH2 0x1811 JUMPI POP POP DUP4 PUSH1 0x1 SWAP6 SWAP7 SWAP8 LT PUSH2 0x17F8 JUMPI JUMPDEST POP POP POP DUP2 SHL ADD SWAP1 SSTORE JUMP JUMPDEST ADD MLOAD PUSH1 0x0 NOT PUSH1 0xF8 DUP5 PUSH1 0x3 SHL AND SHR NOT AND SWAP1 SSTORE CODESIZE DUP1 DUP1 PUSH2 0x17EE JUMP JUMPDEST DUP1 PUSH1 0x1 DUP6 SWAP7 DUP3 SWAP5 SWAP7 DUP7 ADD MLOAD DUP2 SSTORE ADD SWAP6 ADD SWAP4 ADD SWAP1 PUSH2 0x17D9 JUMP JUMPDEST PUSH1 0x0 NOT DUP2 EQ PUSH2 0x515 JUMPI PUSH1 0x1 ADD SWAP1 JUMP JUMPDEST DUP1 MLOAD DUP3 LT ISZERO PUSH2 0x16E8 JUMPI PUSH1 0x20 SWAP2 PUSH1 0x5 SHL ADD ADD SWAP1 JUMP JUMPDEST DUP2 DUP2 MUL SWAP3 SWAP2 DUP2 ISZERO SWAP2 DUP5 DIV EQ OR ISZERO PUSH2 0x515 JUMPI JUMP JUMPDEST SWAP1 PUSH1 0x1 PUSH1 0x40 SHL DUP2 GT PUSH2 0xF10 JUMPI DUP2 SLOAD SWAP1 DUP1 DUP4 SSTORE DUP2 DUP2 LT PUSH2 0x187D JUMPI POP POP POP JUMP JUMPDEST PUSH2 0x157B SWAP3 PUSH1 0x0 MSTORE PUSH1 0x20 PUSH1 0x0 KECCAK256 SWAP2 DUP3 ADD SWAP2 ADD PUSH2 0x16FE JUMP JUMPDEST PUSH1 0x3 SLOAD DUP2 LT ISZERO PUSH2 0x16E8 JUMPI PUSH1 0xA SWAP1 PUSH1 0x3 PUSH1 0x0 MSTORE MUL PUSH32 0xC2575A0E9E593C00F959F8C92F12DB2869C3395A3B0502D05E2516446F71F85B ADD SWAP1 PUSH1 0x0 SWAP1 JUMP JUMPDEST SWAP1 DUP1 DUP3 EQ PUSH2 0x19A8 JUMPI PUSH2 0x18E0 DUP2 SLOAD PUSH2 0x14FF JUMP JUMPDEST SWAP1 PUSH1 0x1 PUSH1 0x1 PUSH1 0x40 SHL SUB DUP3 GT PUSH2 0xF10 JUMPI PUSH2 0x1903 DUP3 PUSH2 0x18FD DUP6 SLOAD PUSH2 0x14FF JUMP JUMPDEST DUP6 PUSH2 0x1715 JUMP JUMPDEST PUSH1 0x0 SWAP1 PUSH1 0x1F DUP4 GT PUSH1 0x1 EQ PUSH2 0x193E JUMPI PUSH2 0x17B5 SWAP3 SWAP2 PUSH1 0x0 SWAP2 DUP4 PUSH2 0x1933 JUMPI POP POP DUP2 PUSH1 0x1 SHL SWAP2 PUSH1 0x0 NOT SWAP1 PUSH1 0x3 SHL SHR NOT AND OR SWAP1 JUMP JUMPDEST ADD SLOAD SWAP1 POP CODESIZE DUP1 PUSH2 0x17A0 JUMP JUMPDEST DUP2 MSTORE PUSH1 0x20 DUP1 DUP3 KECCAK256 DUP5 DUP4 MSTORE DUP2 DUP4 KECCAK256 SWAP3 SWAP2 PUSH1 0x1F NOT DUP6 AND SWAP1 DUP4 SWAP1 JUMPDEST DUP3 DUP3 LT PUSH2 0x198F JUMPI POP POP SWAP1 DUP5 PUSH1 0x1 SWAP6 SWAP5 SWAP4 SWAP3 LT PUSH2 0x1976 JUMPI POP POP POP DUP2 SHL ADD SWAP1 SSTORE JUMP JUMPDEST ADD SLOAD PUSH1 0x0 NOT PUSH1 0xF8 DUP5 PUSH1 0x3 SHL AND SHR NOT AND SWAP1 SSTORE CODESIZE DUP1 DUP1 PUSH2 0x17EE JUMP JUMPDEST DUP5 SWAP6 DUP2 SWAP3 SWAP6 DUP6 ADD SLOAD DUP2 SSTORE PUSH1 0x1 DUP1 SWAP2 ADD SWAP7 ADD SWAP5 ADD SWAP1 PUSH2 0x1956 JUMP JUMPDEST POP POP JUMP JUMPDEST DUP2 DUP2 EQ PUSH2 0x19A8 JUMPI DUP2 SLOAD SWAP2 PUSH1 0x1 PUSH1 0x1 PUSH1 0x40 SHL SUB DUP4 GT PUSH2 0xF10 JUMPI PUSH2 0x19CE DUP4 DUP4 PUSH2 0x185F JUMP JUMPDEST PUSH1 0x0 MSTORE PUSH1 0x20 PUSH1 0x0 KECCAK256 SWAP1 PUSH1 0x0 MSTORE PUSH1 0x20 PUSH1 0x0 KECCAK256 DUP2 SLOAD SWAP2 PUSH1 0x0 SWAP3 JUMPDEST DUP5 DUP5 LT PUSH2 0x19F4 JUMPI POP POP POP POP POP JUMP JUMPDEST PUSH1 0x1 SWAP2 DUP3 ADD DUP1 SLOAD PUSH1 0x1 PUSH1 0x1 PUSH1 0xA0 SHL SUB SWAP1 SWAP3 AND DUP5 DUP7 ADD SSTORE SWAP4 SWAP1 SWAP2 ADD SWAP3 SWAP1 PUSH2 0x19E6 JUMP JUMPDEST PUSH1 0x40 MLOAD SWAP1 PUSH2 0x1A22 DUP3 PUSH2 0x130F JUMP JUMPDEST DUP2 PUSH2 0x120 PUSH1 0x0 SWAP2 DUP3 DUP2 MSTORE DUP3 PUSH1 0x20 DUP3 ADD MSTORE DUP3 PUSH1 0x40 DUP3 ADD MSTORE DUP3 PUSH1 0x60 DUP3 ADD MSTORE PUSH1 0x60 PUSH1 0x80 DUP3 ADD MSTORE PUSH1 0x60 PUSH1 0xA0 DUP3 ADD MSTORE PUSH1 0x60 PUSH1 0xC0 DUP3 ADD MSTORE DUP3 PUSH1 0xE0 DUP3 ADD MSTORE PUSH1 0x60 PUSH2 0x100 DUP3 ADD MSTORE ADD MSTORE JUMP JUMPDEST SWAP1 PUSH1 0x40 MLOAD PUSH2 0x1A72 DUP2 PUSH2 0x130F JUMP JUMPDEST DUP3 SLOAD DUP2 MSTORE PUSH1 0x1 DUP4 ADD SLOAD PUSH1 0xFF AND ISZERO ISZERO PUSH1 0x20 DUP3 ADD MSTORE PUSH1 0x2 DUP4 ADD SLOAD PUSH1 0x40 DUP3 ADD MSTORE PUSH1 0x3 DUP4 ADD SLOAD PUSH1 0x1 PUSH1 0x1 PUSH1 0xA0 SHL SUB AND PUSH1 0x60 DUP3 ADD MSTORE SWAP2 DUP3 SWAP1 PUSH2 0x120 SWAP1 PUSH1 0x9 SWAP1 PUSH2 0x1AB8 PUSH1 0x4 DUP3 ADD PUSH2 0x1539 JUMP JUMPDEST PUSH1 0x80 DUP6 ADD MSTORE PUSH2 0x1AC9 PUSH1 0x5 DUP3 ADD PUSH2 0x1539 JUMP JUMPDEST PUSH1 0xA0 DUP6 ADD MSTORE PUSH2 0x1ADA PUSH1 0x6 DUP3 ADD PUSH2 0x1539 JUMP JUMPDEST PUSH1 0xC0 DUP6 ADD MSTORE PUSH1 0x7 DUP2 ADD SLOAD PUSH1 0xE0 DUP6 ADD MSTORE PUSH2 0x1AF5 PUSH1 0x8 DUP3 ADD PUSH2 0x162A JUMP JUMPDEST PUSH2 0x100 DUP6 ADD MSTORE ADD SLOAD SWAP2 ADD MSTORE JUMP JUMPDEST DUP1 SLOAD PUSH1 0x1 PUSH1 0x40 SHL DUP2 LT ISZERO PUSH2 0xF10 JUMPI PUSH2 0x1B1F SWAP2 PUSH1 0x1 DUP3 ADD DUP2 SSTORE PUSH2 0x16D0 JUMP JUMPDEST PUSH1 0x1 DUP1 PUSH1 0xA0 SWAP5 SWAP4 SWAP5 SHL SUB DUP1 DUP5 SLOAD SWAP3 PUSH1 0x3 SHL SWAP4 AND DUP4 SHL SWAP3 SHL NOT AND OR SWAP1 SSTORE JUMP JUMPDEST SWAP2 SWAP1 DUP3 SUB SWAP2 DUP3 GT PUSH2 0x515 JUMPI JUMP JUMPDEST RETURNDATASIZE ISZERO PUSH2 0x1B75 JUMPI RETURNDATASIZE SWAP1 PUSH2 0x1B5B DUP3 PUSH2 0x134C JUMP JUMPDEST SWAP2 PUSH2 0x1B69 PUSH1 0x40 MLOAD SWAP4 DUP5 PUSH2 0x132B JUMP JUMPDEST DUP3 MSTORE RETURNDATASIZE PUSH1 0x0 PUSH1 0x20 DUP5 ADD RETURNDATACOPY JUMP JUMPDEST PUSH1 0x60 SWAP1 JUMP JUMPDEST ISZERO PUSH2 0x1B81 JUMPI JUMP JUMPDEST PUSH1 0x40 MLOAD PUSH3 0x461BCD PUSH1 0xE5 SHL DUP2 MSTORE PUSH1 0x20 PUSH1 0x4 DUP3 ADD MSTORE PUSH1 0x22 PUSH1 0x24 DUP3 ADD MSTORE PUSH32 0x466565207061796D656E7420746F20616C62756D206F776E6572206661696C65 PUSH1 0x44 DUP3 ADD MSTORE PUSH2 0x3217 PUSH1 0xF1 SHL PUSH1 0x64 DUP3 ADD MSTORE PUSH1 0x84 SWAP1 REVERT JUMPDEST ISZERO PUSH2 0x1BD8 JUMPI JUMP JUMPDEST PUSH1 0x40 MLOAD PUSH3 0x461BCD PUSH1 0xE5 SHL DUP2 MSTORE PUSH1 0x20 PUSH1 0x4 DUP3 ADD MSTORE PUSH1 0x22 PUSH1 0x24 DUP3 ADD MSTORE PUSH32 0x466565207061796D656E7420746F207472796265206F776E6572206661696C65 PUSH1 0x44 DUP3 ADD MSTORE PUSH2 0x3217 PUSH1 0xF1 SHL PUSH1 0x64 DUP3 ADD MSTORE PUSH1 0x84 SWAP1 REVERT JUMPDEST ISZERO PUSH2 0x1C2F JUMPI JUMP JUMPDEST PUSH1 0x40 MLOAD PUSH3 0x461BCD PUSH1 0xE5 SHL DUP2 MSTORE PUSH1 0x20 PUSH1 0x4 DUP3 ADD MSTORE PUSH1 0x33 PUSH1 0x24 DUP3 ADD MSTORE PUSH32 0x4F6E6C792074686F73652077686F2068617665206A6F696E6564207468652061 PUSH1 0x44 DUP3 ADD MSTORE PUSH19 0x36313AB69039B2B2903A34329030B6313AB697 PUSH1 0x69 SHL PUSH1 0x64 DUP3 ADD MSTORE PUSH1 0x84 SWAP1 REVERT JUMPDEST PUSH1 0x40 MLOAD SWAP1 PUSH2 0x1C9D DUP3 PUSH2 0x12F4 JUMP JUMPDEST PUSH1 0x0 PUSH1 0x80 DUP4 DUP3 DUP2 MSTORE PUSH1 0x60 PUSH1 0x20 DUP3 ADD MSTORE PUSH1 0x60 PUSH1 0x40 DUP3 ADD MSTORE DUP3 PUSH1 0x60 DUP3 ADD MSTORE ADD MSTORE JUMP JUMPDEST SWAP1 PUSH1 0x40 MLOAD PUSH2 0x1CCA DUP2 PUSH2 0x12F4 JUMP JUMPDEST PUSH1 0x80 PUSH1 0x4 DUP3 SWAP5 DUP1 SLOAD DUP5 MSTORE PUSH2 0x1CE0 PUSH1 0x1 DUP3 ADD PUSH2 0x1539 JUMP JUMPDEST PUSH1 0x20 DUP6 ADD MSTORE PUSH2 0x1CF1 PUSH1 0x2 DUP3 ADD PUSH2 0x1539 JUMP JUMPDEST PUSH1 0x40 DUP6 ADD MSTORE PUSH1 0x3 DUP2 ADD SLOAD PUSH1 0x1 PUSH1 0x1 PUSH1 0xA0 SHL SUB AND PUSH1 0x60 DUP6 ADD MSTORE ADD SLOAD SWAP2 ADD MSTORE JUMP INVALID LOG2 PUSH5 0x6970667358 0x22 SLT KECCAK256 OR 0xC3 SHR 0xC8 DUP16 0xCA EXP DUP8 NOT CALLDATALOAD 0x2A BYTE LT CALL 0xC5 0xC1 PUSH30 0x38D25989CAB99CA0C3D78D3C822A564736F6C6343000818003300000000 "
        },
        "methodIdentifiers": {
          "addImageToAlbum(uint256,string,string)": "6f4e27f0",
          "createAlbum(string,string,address[],string,bool,uint256)": "45a1db67",
          "download(uint256,uint256)": "bce54720",
          "getAlbum(uint256)": "d6e465c9",
          "getAlbums()": "5c517234",
          "getImageInAlbum(uint256,uint256)": "ced038d1",
          "getImages()": "11498334",
          "getImagesInAlbum(uint256)": "b027a787",
          "getListofParticipants(uint256)": "3b8f313b",
          "joinAlbum(uint256)": "8d84d7fc",
          "owner()": "8da5cb5b",
          "totalNoOfAlbumsCreated()": "6d49f8cc",
          "upload(string)": "42ce1488"
        }
      }
    }
  }
}