{
  "contracts/Trybe.sol": {
    "Trybe": {
      "abi": [
        {
          "inputs": [
            {
              "internalType": "uint256",
              "name": "_fee",
              "type": "uint256"
            }
          ],
          "stateMutability": "nonpayable",
          "type": "constructor"
        },
        {
          "anonymous": false,
          "inputs": [
            {
              "indexed": true,
              "internalType": "address",
              "name": "creator",
              "type": "address"
            },
            {
              "indexed": false,
              "internalType": "string",
              "name": "nameOfAlbum",
              "type": "string"
            },
            {
              "indexed": false,
              "internalType": "uint256",
              "name": "albumId",
              "type": "uint256"
            }
          ],
          "name": "AlbumCreated",
          "type": "event"
        },
        {
          "anonymous": false,
          "inputs": [
            {
              "indexed": false,
              "internalType": "uint256",
              "name": "albumId",
              "type": "uint256"
            },
            {
              "indexed": false,
              "internalType": "uint256",
              "name": "imageId",
              "type": "uint256"
            }
          ],
          "name": "ImageAdded",
          "type": "event"
        },
        {
          "anonymous": false,
          "inputs": [
            {
              "indexed": true,
              "internalType": "address",
              "name": "participant",
              "type": "address"
            },
            {
              "indexed": false,
              "internalType": "uint256",
              "name": "timeJoined",
              "type": "uint256"
            }
          ],
          "name": "JoinedAlbum",
          "type": "event"
        },
        {
          "anonymous": false,
          "inputs": [
            {
              "indexed": true,
              "internalType": "address",
              "name": "user",
              "type": "address"
            },
            {
              "indexed": false,
              "internalType": "string",
              "name": "url",
              "type": "string"
            },
            {
              "indexed": false,
              "internalType": "uint256",
              "name": "createdAt",
              "type": "uint256"
            }
          ],
          "name": "Upload",
          "type": "event"
        },
        {
          "inputs": [
            {
              "internalType": "uint256",
              "name": "albumId",
              "type": "uint256"
            },
            {
              "internalType": "string",
              "name": "_url",
              "type": "string"
            },
            {
              "internalType": "string",
              "name": "_description",
              "type": "string"
            }
          ],
          "name": "addImageToAlbum",
          "outputs": [],
          "stateMutability": "nonpayable",
          "type": "function"
        },
        {
          "inputs": [
            {
              "internalType": "string",
              "name": "_name",
              "type": "string"
            },
            {
              "internalType": "string",
              "name": "description",
              "type": "string"
            },
            {
              "internalType": "address[]",
              "name": "_participants",
              "type": "address[]"
            },
            {
              "internalType": "string",
              "name": "_image",
              "type": "string"
            },
            {
              "internalType": "uint8",
              "name": "visibility",
              "type": "uint8"
            },
            {
              "internalType": "uint256",
              "name": "_fee",
              "type": "uint256"
            }
          ],
          "name": "createAlbum",
          "outputs": [],
          "stateMutability": "nonpayable",
          "type": "function"
        },
        {
          "inputs": [
            {
              "internalType": "uint256",
              "name": "albumId",
              "type": "uint256"
            }
          ],
          "name": "download",
          "outputs": [],
          "stateMutability": "payable",
          "type": "function"
        },
        {
          "inputs": [
            {
              "internalType": "uint256",
              "name": "albumId",
              "type": "uint256"
            }
          ],
          "name": "getAlbum",
          "outputs": [
            {
              "components": [
                {
                  "internalType": "uint256",
                  "name": "id",
                  "type": "uint256"
                },
                {
                  "internalType": "uint8",
                  "name": "visibility",
                  "type": "uint8"
                },
                {
                  "internalType": "uint256",
                  "name": "fee",
                  "type": "uint256"
                },
                {
                  "internalType": "address",
                  "name": "owner",
                  "type": "address"
                },
                {
                  "internalType": "string",
                  "name": "name",
                  "type": "string"
                },
                {
                  "internalType": "string",
                  "name": "description",
                  "type": "string"
                },
                {
                  "internalType": "string",
                  "name": "profileImage",
                  "type": "string"
                },
                {
                  "internalType": "uint256",
                  "name": "created",
                  "type": "uint256"
                },
                {
                  "internalType": "address[]",
                  "name": "participants",
                  "type": "address[]"
                },
                {
                  "internalType": "uint256",
                  "name": "totalNoOfImages",
                  "type": "uint256"
                }
              ],
              "internalType": "struct Trybe.Album",
              "name": "",
              "type": "tuple"
            }
          ],
          "stateMutability": "view",
          "type": "function"
        },
        {
          "inputs": [],
          "name": "getAlbums",
          "outputs": [
            {
              "components": [
                {
                  "internalType": "uint256",
                  "name": "id",
                  "type": "uint256"
                },
                {
                  "internalType": "uint8",
                  "name": "visibility",
                  "type": "uint8"
                },
                {
                  "internalType": "uint256",
                  "name": "fee",
                  "type": "uint256"
                },
                {
                  "internalType": "address",
                  "name": "owner",
                  "type": "address"
                },
                {
                  "internalType": "string",
                  "name": "name",
                  "type": "string"
                },
                {
                  "internalType": "string",
                  "name": "description",
                  "type": "string"
                },
                {
                  "internalType": "string",
                  "name": "profileImage",
                  "type": "string"
                },
                {
                  "internalType": "uint256",
                  "name": "created",
                  "type": "uint256"
                },
                {
                  "internalType": "address[]",
                  "name": "participants",
                  "type": "address[]"
                },
                {
                  "internalType": "uint256",
                  "name": "totalNoOfImages",
                  "type": "uint256"
                }
              ],
              "internalType": "struct Trybe.Album[]",
              "name": "",
              "type": "tuple[]"
            }
          ],
          "stateMutability": "view",
          "type": "function"
        },
        {
          "inputs": [
            {
              "internalType": "uint256",
              "name": "albumId",
              "type": "uint256"
            },
            {
              "internalType": "uint256",
              "name": "imageId",
              "type": "uint256"
            }
          ],
          "name": "getImageInAlbum",
          "outputs": [
            {
              "components": [
                {
                  "internalType": "uint256",
                  "name": "id",
                  "type": "uint256"
                },
                {
                  "internalType": "string",
                  "name": "url",
                  "type": "string"
                },
                {
                  "internalType": "string",
                  "name": "description",
                  "type": "string"
                },
                {
                  "internalType": "address",
                  "name": "owner",
                  "type": "address"
                }
              ],
              "internalType": "struct Trybe.Image",
              "name": "",
              "type": "tuple"
            }
          ],
          "stateMutability": "view",
          "type": "function"
        },
        {
          "inputs": [],
          "name": "getImages",
          "outputs": [
            {
              "internalType": "string[]",
              "name": "",
              "type": "string[]"
            }
          ],
          "stateMutability": "view",
          "type": "function"
        },
        {
          "inputs": [
            {
              "internalType": "uint256",
              "name": "albumId",
              "type": "uint256"
            }
          ],
          "name": "getImagesInAlbum",
          "outputs": [
            {
              "components": [
                {
                  "internalType": "uint256",
                  "name": "id",
                  "type": "uint256"
                },
                {
                  "internalType": "string",
                  "name": "url",
                  "type": "string"
                },
                {
                  "internalType": "string",
                  "name": "description",
                  "type": "string"
                },
                {
                  "internalType": "address",
                  "name": "owner",
                  "type": "address"
                }
              ],
              "internalType": "struct Trybe.Image[]",
              "name": "",
              "type": "tuple[]"
            }
          ],
          "stateMutability": "view",
          "type": "function"
        },
        {
          "inputs": [
            {
              "internalType": "uint256",
              "name": "albumId",
              "type": "uint256"
            }
          ],
          "name": "getListofParticipants",
          "outputs": [
            {
              "internalType": "address[]",
              "name": "",
              "type": "address[]"
            }
          ],
          "stateMutability": "view",
          "type": "function"
        },
        {
          "inputs": [
            {
              "internalType": "uint256",
              "name": "albumId",
              "type": "uint256"
            }
          ],
          "name": "joinAlbum",
          "outputs": [],
          "stateMutability": "payable",
          "type": "function"
        },
        {
          "inputs": [],
          "name": "owner",
          "outputs": [
            {
              "internalType": "address",
              "name": "",
              "type": "address"
            }
          ],
          "stateMutability": "view",
          "type": "function"
        },
        {
          "inputs": [],
          "name": "totalNoOfAlbumsCreated",
          "outputs": [
            {
              "internalType": "uint256",
              "name": "",
              "type": "uint256"
            }
          ],
          "stateMutability": "view",
          "type": "function"
        },
        {
          "inputs": [
            {
              "internalType": "string",
              "name": "url",
              "type": "string"
            }
          ],
          "name": "upload",
          "outputs": [],
          "stateMutability": "nonpayable",
          "type": "function"
        }
      ],
      "evm": {
        "bytecode": {
          "linkReferences": {},
          "object": "60803461006657601f611d5538819003918201601f19168301916001600160401b0383118484101761006b578084926020946040528339810103126100665751600080546001600160a01b03191633178155600155600255604051611cd390816100828239f35b600080fd5b634e487b7160e01b600052604160045260246000fdfe6080604052600436101561001257600080fd5b60003560e01c8063114983341461119d5780633b8f313b1461110757806342ce14881461100e5780635c51723414610e285780636d49f8cc14610e0a5780636f4e27f014610b8757806387b9c24d14610ac25780638d84d7fc146109095780638da5cb5b146108e0578063b027a7871461071d578063ced038d1146105d6578063d6e465c91461056b5763f3187157146100ab57600080fd5b346105465760c0366003190112610546576004356001600160401b038111610546576100db903690600401611327565b6024356001600160401b038111610546576100fa903690600401611327565b604435916001600160401b038311610546573660238401121561054657826004013561012581611489565b9361013360405195866112eb565b8185526024602086019260051b8201019036821161054657602401915b81831061054b575050506064356001600160401b03811161054657610179903690600401611327565b906084359260ff8416840361054657610193331515611625565b81511561050c5780511561048b576101ac600154611805565b908160015585519360018501809511610467576101e16101cb86611489565b956101d960405197886112eb565b808752611489565b601f190136602087013760005b875181101561021f576001906001600160a01b0361020c828b611864565b51166102188289611864565b52016101ee565b50908491600160ff888a61023533915188611864565b528660005260046020526040600020968755818116821984890154161783880155161460001461047d57670de0b6b3a76400008060a435029060a43582041460a435151715610467576102bf926102b6915b60028701556003860180546001600160a01b031916331790556102ad87600488016116fb565b600586016116fb565b600684016116fb565b4260078301558051906001600160401b038211610434576020906102e68360088601611b22565b0160088301600052602060002060005b83811061044a57858560006009820155600354600160401b8110156104345780600161032592016003556117ca565b91909161041e5780820361037a575b600154604080518181527fd3cc7c228a9442b3e32b7fb9e7ac4298594eeb118c36cbfbaf73feef8394627d9161036c90820187611274565b9260208201528033930390a2005b60098181925484556001840160ff60018301541660ff19825416179055600281015460028501556003840160018060a01b036003830154166bffffffffffffffffffffffff60a01b8254161790556103d86004820160048601611b56565b6103e86005820160058601611b56565b6103f86006820160068601611b56565b600781015460078501556104126008820160088601611c34565b01549101558180610334565b634e487b7160e01b600052600060045260246000fd5b634e487b7160e01b600052604160045260246000fd5b82516001600160a01b0316818301556020909201916001016102f6565b634e487b7160e01b600052601160045260246000fd5b6102b66102bf926000610287565b60405162461bcd60e51b815260206004820152604d60248201527f446573637269626520796f757220616c62756d20746f206c657420746865207760448201527f6f726c64206b6e6f7720686f7720796f752066656c74207768656e20796f752060648201526c31b932b0ba32b2103a3434b99760991b608482015260a490fd5b60405162461bcd60e51b8152602060048201526012602482015271283632b0b9b29030b2321030903730b6b29760711b6044820152606490fd5b600080fd5b82356001600160a01b038116810361054657815260209283019201610150565b3461054657602036600319011261054657600435610587611814565b50801515806105ca575b61059a9061157f565b60005260046020526105c66105b26040600020611878565b60405191829160208352602083019061136e565b0390f35b50600154811115610591565b34610546576040366003190112610546576024356004356105f5611ab4565b5080151580610711575b6106089061157f565b811515806106f6575b156106b15760009060005b816000526004602052600860406000200180548210156106a5578161064091611671565b905460039190911b1c6001600160a01b031633146106605760010161061c565b50905061066d6001611a4c565b60005260066020526040600020906000526020526105c66106916040600020611ad9565b604051918291602083526020830190611441565b50509061066d90611a4c565b60405162461bcd60e51b815260206004820152601960248201527f5468697320696d61676520646f6573206e6f74206578697374000000000000006044820152606490fd5b50806000526004602052600960406000200154821115610611565b506001548111156105ff565b34610546576020806003193601126105465760043590811515806108d4575b6107459061157f565b816000526004815260406000209060009160005b8460005260048352600860406000200180548210156108c6578161077c91611671565b905460039190911b1c6001600160a01b0316331461079c57600101610759565b5060099192506107ac6001611a4c565b0154916107b883611489565b926107c660405194856112eb565b8084526107d281611489565b601f190160005b8181106108aa57505060019160015b828111156108525750505060405191808301818452845180915260408401918060408360051b8701019601926000905b8382106108255786880387f35b90919293948380610841839a603f198b82030186528951611441565b999701959493919091019101610818565b81600096949652600685526040600020816000528552604060002090600019810191818311610467576108a29261088b61089c92611ad9565b6108958289611864565b5286611864565b50611805565b9492946107e8565b84906108b7969496611ab4565b828287010152019492946107d9565b50506107ac60099293611a4c565b5060015482111561073c565b34610546576000366003190112610546576000546040516001600160a01b039091168152602090f35b60203660031901126105465760043580151580610ab6575b61092a9061157f565b80600052600460205260406000209060018083019160ff835416158015610aa8575b15610a6357908092916008906109653360088801611a11565b6000945b610a13575b5050506001915060ff905416146109ae575b6040514281527f59a4dadce245655ce4c5ea128f142c4034b1206deff52ff605866cd86433de8160203392a2005b6000808080610a0d9460036109fa8380808060646109cf6002543490611913565b04966109db8834611926565b9601546001600160a01b03969087165af16109f4611933565b50611963565b8254165af1610a07611933565b506119ba565b80610980565b600354851015610a5e5780610a27866117ca565b505414610a38579382019382610969565b5060ff929150610a5690610a4d6001956117ca565b50339101611a11565b90848061096e565b61096e565b60405162461bcd60e51b815260206004820152601860248201527f546869732069732061207072697661746520616c62756d2e00000000000000006044820152606490fd5b50600284015434101561094c565b50600154811115610921565b60203660031901126105465760043580151580610b7b575b610ae39061157f565b6000526004602052604060002060ff600182015416158015610b6d575b15610b28576000808080610b269460036109fa8380808060646109cf6002543490611913565b005b60405162461bcd60e51b815260206004820152601e60248201527f546869732069732061207072697661746520616c62756d20696d6167652e00006044820152606490fd5b506002810154341015610b00565b50600154811115610ada565b34610546576060366003190112610546576004356001600160401b0360243581811161054657610bbb903690600401611327565b9060443590811161054657610bd4903690600401611327565b82151580610dfe575b610be69061157f565b82600052602091600483526040600020916009906009840193610c098554611805565b80865560089091018054600091825b828110610dc6575b50505015610d625790610c85969594939291610c8f60405192610c42846112b4565b828452878401958652604084019081526060840192338452896000526006895260406000209060005288526040600020935184556001998a9651600186016116fb565b51600284016116fb565b51600391820180546001600160a01b0319166001600160a01b03929092169190911790556000965b610cef575b7f5138483d623eef75882d5ca6ed33e44c7ecafe842f3311844eabf67a297ce76c604087878754908351928352820152a1005b8054871015610d5d5785610d02886117ca565b505414610d13579582019582610cb7565b5060409493929150610d457f5138483d623eef75882d5ca6ed33e44c7ecafe842f3311844eabf67a297ce76c966117ca565b5001610d518154611805565b90559091928580610cbc565b610cbc565b60405162461bcd60e51b815260048101879052603660248201527f4f6e6c792074686f73652077686f2068617665206a6f696e656420746865206160448201527536313ab69031b0b71030b2321030b71034b6b0b3b29760511b6064820152608490fd5b610dd08183611671565b905460039190911b1c6001600160a01b03163314610df057600101610c18565b505050506001888080610c20565b50600154831115610bdd565b34610546576000366003190112610546576020600154604051908152f35b346105465760003660031901126105465760008060038054925b838110610fa45750610e6c610e5683611489565b92610e6460405194856112eb565b808452611489565b60209390601f19018460005b828110610f8e57505050906000916000905b808210610eef57604080518781528651818901819052600092600582901b8301810191898b01918b9085015b828710610ec35785850386f35b909192938280610edf600193603f198a8203018652885161136e565b9601920196019592919092610eb6565b90929460009492945b610f01856117ca565b50600880910154821015610f7f5781610f2491610f1d886117ca565b5001611671565b905490871b1c6001600160a01b03163314610f4157600101610ef8565b5094610f74600191610f5f610f5987959698976117ca565b50611878565b610f698289611864565b5261089c8188611864565b915b01909291610e8a565b50509490919392600190610f76565b610f96611814565b828288010152018590610e78565b909160005b610fb2836117ca565b506008809101548210156110025781610fce91610f1d866117ca565b905490851b1c6001600160a01b03163314610feb57600101610fa9565b50610ffa600191939293611805565b925b01610e42565b50509190600190610ffc565b34610546576020366003190112610546576004356001600160401b0381116105465761103e903690600401611327565b611049331515611625565b8051156110ce5733600052600560205260406000208054600160401b8110156104345761107b91600182018155611671565b61041e5781611089916116fb565b7f34647a087c36357c4b77d3d7b4bc2b55d01c3ef8726dc75a70652d96e1510cc36110bf60405192604084526040840190611274565b914260208201528033930390a2005b60405162461bcd60e51b8152602060048201526011602482015270283632b0b9b29030b2321030903ab9361760791b6044820152606490fd5b34610546576020806003193601126105465760043580151580611191575b61112e9061157f565b6000526004815261114560086040600020016115cb565b906040519181839283018184528251809152816040850193019160005b82811061117157505050500390f35b83516001600160a01b031685528695509381019392810192600101611162565b50600154811115611125565b3461054657600036600319011261054657336000526020600581526040600020908154916111ca83611489565b926111d860405194856112eb565b8084528284018092600052836000206000915b8383106112525750505050604051918083019381845251809452604083019360408160051b85010192916000955b8287106112265785850386f35b909192938280611242600193603f198a82030186528851611274565b9601920196019592919092611219565b6001868192611263859a999a6114da565b8152019201920191909594956111eb565b919082519283825260005b8481106112a0575050826000602080949584010152601f8019910116010190565b60208183018101518483018201520161127f565b608081019081106001600160401b0382111761043457604052565b61014081019081106001600160401b0382111761043457604052565b90601f801991011681019081106001600160401b0382111761043457604052565b6001600160401b03811161043457601f01601f191660200190565b81601f820112156105465780359061133e8261130c565b9261134c60405194856112eb565b8284526020838301011161054657816000926020809301838601378301015290565b90610140918051825260209260ff848301511684840152604082015160408401526113e56113d36113c160608501519360018060a01b038095166060880152608086015190806080890152870190611274565b60a085015186820360a0880152611274565b60c084015185820360c0870152611274565b60e083015160e0850152610100948584015195858303908601528080875193848152019601926000905b8382106114285750505050506101208091015191015290565b845181168852968201969382019360019091019061140f565b908151815260606114766114646020850151608060208601526080850190611274565b60408501518482036040860152611274565b928101516001600160a01b031691015290565b6001600160401b0381116104345760051b60200190565b90600182811c921680156114d0575b60208310146114ba57565b634e487b7160e01b600052602260045260246000fd5b91607f16916114af565b906040519182600082546114ed816114a0565b9081845260209460019160018116908160001461155d575060011461151e575b50505061151c925003836112eb565b565b600090815285812095935091905b81831061154557505061151c935082010138808061150d565b8554888401850152948501948794509183019161152c565b9250505061151c94925060ff191682840152151560051b82010138808061150d565b1561158657565b60405162461bcd60e51b815260206004820152601960248201527f5468697320616c62756d20646f6573206e6f74206578697374000000000000006044820152606490fd5b90604051918281549182825260209260208301916000526020600020936000905b8282106116025750505061151c925003836112eb565b85546001600160a01b0316845260019586019588955093810193909101906115ec565b1561162c57565b60405162461bcd60e51b815260206004820152601a60248201527f4e6f207a65726f2061646472657373657320616c6c6f7765642e0000000000006044820152606490fd5b80548210156116895760005260206000200190600090565b634e487b7160e01b600052603260045260246000fd5b8181106116aa575050565b6000815560010161169f565b9190601f81116116c557505050565b61151c926000526020600020906020601f840160051c830193106116f1575b601f0160051c019061169f565b90915081906116e4565b91909182516001600160401b038111610434576117228161171c84546114a0565b846116b6565b602080601f83116001146117655750819061175693949560009261175a575b50508160011b916000199060031b1c19161790565b9055565b015190503880611741565b90601f19831695846000526020600020926000905b8882106117b257505083600195969710611799575b505050811b019055565b015160001960f88460031b161c1916905538808061178f565b8060018596829496860151815501950193019061177a565b60035481101561168957600a906003600052027fc2575a0e9e593c00f959f8c92f12db2869c3395a3b0502d05e2516446f71f85b0190600090565b60001981146104675760010190565b60405190611821826112cf565b8161012060009182815282602082015282604082015282606082015260606080820152606060a0820152606060c08201528260e082015260606101008201520152565b80518210156116895760209160051b010190565b90604051611885816112cf565b82548152600183015460ff1660208201526002830154604082015260038301546001600160a01b03166060820152918290610120906009906118c9600482016114da565b60808501526118da600582016114da565b60a08501526118eb600682016114da565b60c0850152600781015460e0850152611906600882016115cb565b6101008501520154910152565b8181029291811591840414171561046757565b9190820391821161046757565b3d1561195e573d906119448261130c565b9161195260405193846112eb565b82523d6000602084013e565b606090565b1561196a57565b60405162461bcd60e51b815260206004820152602260248201527f466565207061796d656e7420746f20616c62756d206f776e6572206661696c65604482015261321760f11b6064820152608490fd5b156119c157565b60405162461bcd60e51b815260206004820152602260248201527f466565207061796d656e7420746f207472796265206f776e6572206661696c65604482015261321760f11b6064820152608490fd5b8054600160401b81101561043457611a2e91600182018155611671565b60018060a09493941b038084549260031b9316831b921b1916179055565b15611a5357565b60405162461bcd60e51b815260206004820152603360248201527f4f6e6c792074686f73652077686f2068617665206a6f696e656420746865206160448201527236313ab69039b2b2903a34329030b6313ab69760691b6064820152608490fd5b60405190611ac1826112b4565b60006060838281528160208201528160408201520152565b90604051611ae6816112b4565b6060819380548352611afa600182016114da565b6020840152611b0b600282016114da565b6040840152600301546001600160a01b0316910152565b90600160401b811161043457815490808355818110611b4057505050565b61151c926000526020600020918201910161169f565b90808214611c3057611b6881546114a0565b906001600160401b03821161043457611b8b82611b8585546114a0565b856116b6565b600090601f8311600114611bc657611756929160009183611bbb5750508160011b916000199060031b1c19161790565b015490503880611741565b815260208082208483528183209291601f1985169083905b828210611c17575050908460019594939210611bfe57505050811b019055565b015460001960f88460031b161c1916905538808061178f565b8495819295850154815560018091019601940190611bde565b5050565b818114611c30578154916001600160401b03831161043457611c568383611b22565b60005260206000209060005260206000208154916000925b848410611c7c575050505050565b600191820180546001600160a01b0390921684860155939091019290611c6e56fea2646970667358221220ca9465ff995fa6668bad2255ef0ecea6ca42e881fd8e6c54a5b5860660f1cb6164736f6c63430008180033",
          "opcodes": "PUSH1 0x80 CALLVALUE PUSH2 0x66 JUMPI PUSH1 0x1F PUSH2 0x1D55 CODESIZE DUP2 SWAP1 SUB SWAP2 DUP3 ADD PUSH1 0x1F NOT AND DUP4 ADD SWAP2 PUSH1 0x1 PUSH1 0x1 PUSH1 0x40 SHL SUB DUP4 GT DUP5 DUP5 LT OR PUSH2 0x6B JUMPI DUP1 DUP5 SWAP3 PUSH1 0x20 SWAP5 PUSH1 0x40 MSTORE DUP4 CODECOPY DUP2 ADD SUB SLT PUSH2 0x66 JUMPI MLOAD PUSH1 0x0 DUP1 SLOAD PUSH1 0x1 PUSH1 0x1 PUSH1 0xA0 SHL SUB NOT AND CALLER OR DUP2 SSTORE PUSH1 0x1 SSTORE PUSH1 0x2 SSTORE PUSH1 0x40 MLOAD PUSH2 0x1CD3 SWAP1 DUP2 PUSH2 0x82 DUP3 CODECOPY RETURN JUMPDEST PUSH1 0x0 DUP1 REVERT JUMPDEST PUSH4 0x4E487B71 PUSH1 0xE0 SHL PUSH1 0x0 MSTORE PUSH1 0x41 PUSH1 0x4 MSTORE PUSH1 0x24 PUSH1 0x0 REVERT INVALID PUSH1 0x80 PUSH1 0x40 MSTORE PUSH1 0x4 CALLDATASIZE LT ISZERO PUSH2 0x12 JUMPI PUSH1 0x0 DUP1 REVERT JUMPDEST PUSH1 0x0 CALLDATALOAD PUSH1 0xE0 SHR DUP1 PUSH4 0x11498334 EQ PUSH2 0x119D JUMPI DUP1 PUSH4 0x3B8F313B EQ PUSH2 0x1107 JUMPI DUP1 PUSH4 0x42CE1488 EQ PUSH2 0x100E JUMPI DUP1 PUSH4 0x5C517234 EQ PUSH2 0xE28 JUMPI DUP1 PUSH4 0x6D49F8CC EQ PUSH2 0xE0A JUMPI DUP1 PUSH4 0x6F4E27F0 EQ PUSH2 0xB87 JUMPI DUP1 PUSH4 0x87B9C24D EQ PUSH2 0xAC2 JUMPI DUP1 PUSH4 0x8D84D7FC EQ PUSH2 0x909 JUMPI DUP1 PUSH4 0x8DA5CB5B EQ PUSH2 0x8E0 JUMPI DUP1 PUSH4 0xB027A787 EQ PUSH2 0x71D JUMPI DUP1 PUSH4 0xCED038D1 EQ PUSH2 0x5D6 JUMPI DUP1 PUSH4 0xD6E465C9 EQ PUSH2 0x56B JUMPI PUSH4 0xF3187157 EQ PUSH2 0xAB JUMPI PUSH1 0x0 DUP1 REVERT JUMPDEST CALLVALUE PUSH2 0x546 JUMPI PUSH1 0xC0 CALLDATASIZE PUSH1 0x3 NOT ADD SLT PUSH2 0x546 JUMPI PUSH1 0x4 CALLDATALOAD PUSH1 0x1 PUSH1 0x1 PUSH1 0x40 SHL SUB DUP2 GT PUSH2 0x546 JUMPI PUSH2 0xDB SWAP1 CALLDATASIZE SWAP1 PUSH1 0x4 ADD PUSH2 0x1327 JUMP JUMPDEST PUSH1 0x24 CALLDATALOAD PUSH1 0x1 PUSH1 0x1 PUSH1 0x40 SHL SUB DUP2 GT PUSH2 0x546 JUMPI PUSH2 0xFA SWAP1 CALLDATASIZE SWAP1 PUSH1 0x4 ADD PUSH2 0x1327 JUMP JUMPDEST PUSH1 0x44 CALLDATALOAD SWAP2 PUSH1 0x1 PUSH1 0x1 PUSH1 0x40 SHL SUB DUP4 GT PUSH2 0x546 JUMPI CALLDATASIZE PUSH1 0x23 DUP5 ADD SLT ISZERO PUSH2 0x546 JUMPI DUP3 PUSH1 0x4 ADD CALLDATALOAD PUSH2 0x125 DUP2 PUSH2 0x1489 JUMP JUMPDEST SWAP4 PUSH2 0x133 PUSH1 0x40 MLOAD SWAP6 DUP7 PUSH2 0x12EB JUMP JUMPDEST DUP2 DUP6 MSTORE PUSH1 0x24 PUSH1 0x20 DUP7 ADD SWAP3 PUSH1 0x5 SHL DUP3 ADD ADD SWAP1 CALLDATASIZE DUP3 GT PUSH2 0x546 JUMPI PUSH1 0x24 ADD SWAP2 JUMPDEST DUP2 DUP4 LT PUSH2 0x54B JUMPI POP POP POP PUSH1 0x64 CALLDATALOAD PUSH1 0x1 PUSH1 0x1 PUSH1 0x40 SHL SUB DUP2 GT PUSH2 0x546 JUMPI PUSH2 0x179 SWAP1 CALLDATASIZE SWAP1 PUSH1 0x4 ADD PUSH2 0x1327 JUMP JUMPDEST SWAP1 PUSH1 0x84 CALLDATALOAD SWAP3 PUSH1 0xFF DUP5 AND DUP5 SUB PUSH2 0x546 JUMPI PUSH2 0x193 CALLER ISZERO ISZERO PUSH2 0x1625 JUMP JUMPDEST DUP2 MLOAD ISZERO PUSH2 0x50C JUMPI DUP1 MLOAD ISZERO PUSH2 0x48B JUMPI PUSH2 0x1AC PUSH1 0x1 SLOAD PUSH2 0x1805 JUMP JUMPDEST SWAP1 DUP2 PUSH1 0x1 SSTORE DUP6 MLOAD SWAP4 PUSH1 0x1 DUP6 ADD DUP1 SWAP6 GT PUSH2 0x467 JUMPI PUSH2 0x1E1 PUSH2 0x1CB DUP7 PUSH2 0x1489 JUMP JUMPDEST SWAP6 PUSH2 0x1D9 PUSH1 0x40 MLOAD SWAP8 DUP9 PUSH2 0x12EB JUMP JUMPDEST DUP1 DUP8 MSTORE PUSH2 0x1489 JUMP JUMPDEST PUSH1 0x1F NOT ADD CALLDATASIZE PUSH1 0x20 DUP8 ADD CALLDATACOPY PUSH1 0x0 JUMPDEST DUP8 MLOAD DUP2 LT ISZERO PUSH2 0x21F JUMPI PUSH1 0x1 SWAP1 PUSH1 0x1 PUSH1 0x1 PUSH1 0xA0 SHL SUB PUSH2 0x20C DUP3 DUP12 PUSH2 0x1864 JUMP JUMPDEST MLOAD AND PUSH2 0x218 DUP3 DUP10 PUSH2 0x1864 JUMP JUMPDEST MSTORE ADD PUSH2 0x1EE JUMP JUMPDEST POP SWAP1 DUP5 SWAP2 PUSH1 0x1 PUSH1 0xFF DUP9 DUP11 PUSH2 0x235 CALLER SWAP2 MLOAD DUP9 PUSH2 0x1864 JUMP JUMPDEST MSTORE DUP7 PUSH1 0x0 MSTORE PUSH1 0x4 PUSH1 0x20 MSTORE PUSH1 0x40 PUSH1 0x0 KECCAK256 SWAP7 DUP8 SSTORE DUP2 DUP2 AND DUP3 NOT DUP5 DUP10 ADD SLOAD AND OR DUP4 DUP9 ADD SSTORE AND EQ PUSH1 0x0 EQ PUSH2 0x47D JUMPI PUSH8 0xDE0B6B3A7640000 DUP1 PUSH1 0xA4 CALLDATALOAD MUL SWAP1 PUSH1 0xA4 CALLDATALOAD DUP3 DIV EQ PUSH1 0xA4 CALLDATALOAD ISZERO OR ISZERO PUSH2 0x467 JUMPI PUSH2 0x2BF SWAP3 PUSH2 0x2B6 SWAP2 JUMPDEST PUSH1 0x2 DUP8 ADD SSTORE PUSH1 0x3 DUP7 ADD DUP1 SLOAD PUSH1 0x1 PUSH1 0x1 PUSH1 0xA0 SHL SUB NOT AND CALLER OR SWAP1 SSTORE PUSH2 0x2AD DUP8 PUSH1 0x4 DUP9 ADD PUSH2 0x16FB JUMP JUMPDEST PUSH1 0x5 DUP7 ADD PUSH2 0x16FB JUMP JUMPDEST PUSH1 0x6 DUP5 ADD PUSH2 0x16FB JUMP JUMPDEST TIMESTAMP PUSH1 0x7 DUP4 ADD SSTORE DUP1 MLOAD SWAP1 PUSH1 0x1 PUSH1 0x1 PUSH1 0x40 SHL SUB DUP3 GT PUSH2 0x434 JUMPI PUSH1 0x20 SWAP1 PUSH2 0x2E6 DUP4 PUSH1 0x8 DUP7 ADD PUSH2 0x1B22 JUMP JUMPDEST ADD PUSH1 0x8 DUP4 ADD PUSH1 0x0 MSTORE PUSH1 0x20 PUSH1 0x0 KECCAK256 PUSH1 0x0 JUMPDEST DUP4 DUP2 LT PUSH2 0x44A JUMPI DUP6 DUP6 PUSH1 0x0 PUSH1 0x9 DUP3 ADD SSTORE PUSH1 0x3 SLOAD PUSH1 0x1 PUSH1 0x40 SHL DUP2 LT ISZERO PUSH2 0x434 JUMPI DUP1 PUSH1 0x1 PUSH2 0x325 SWAP3 ADD PUSH1 0x3 SSTORE PUSH2 0x17CA JUMP JUMPDEST SWAP2 SWAP1 SWAP2 PUSH2 0x41E JUMPI DUP1 DUP3 SUB PUSH2 0x37A JUMPI JUMPDEST PUSH1 0x1 SLOAD PUSH1 0x40 DUP1 MLOAD DUP2 DUP2 MSTORE PUSH32 0xD3CC7C228A9442B3E32B7FB9E7AC4298594EEB118C36CBFBAF73FEEF8394627D SWAP2 PUSH2 0x36C SWAP1 DUP3 ADD DUP8 PUSH2 0x1274 JUMP JUMPDEST SWAP3 PUSH1 0x20 DUP3 ADD MSTORE DUP1 CALLER SWAP4 SUB SWAP1 LOG2 STOP JUMPDEST PUSH1 0x9 DUP2 DUP2 SWAP3 SLOAD DUP5 SSTORE PUSH1 0x1 DUP5 ADD PUSH1 0xFF PUSH1 0x1 DUP4 ADD SLOAD AND PUSH1 0xFF NOT DUP3 SLOAD AND OR SWAP1 SSTORE PUSH1 0x2 DUP2 ADD SLOAD PUSH1 0x2 DUP6 ADD SSTORE PUSH1 0x3 DUP5 ADD PUSH1 0x1 DUP1 PUSH1 0xA0 SHL SUB PUSH1 0x3 DUP4 ADD SLOAD AND PUSH12 0xFFFFFFFFFFFFFFFFFFFFFFFF PUSH1 0xA0 SHL DUP3 SLOAD AND OR SWAP1 SSTORE PUSH2 0x3D8 PUSH1 0x4 DUP3 ADD PUSH1 0x4 DUP7 ADD PUSH2 0x1B56 JUMP JUMPDEST PUSH2 0x3E8 PUSH1 0x5 DUP3 ADD PUSH1 0x5 DUP7 ADD PUSH2 0x1B56 JUMP JUMPDEST PUSH2 0x3F8 PUSH1 0x6 DUP3 ADD PUSH1 0x6 DUP7 ADD PUSH2 0x1B56 JUMP JUMPDEST PUSH1 0x7 DUP2 ADD SLOAD PUSH1 0x7 DUP6 ADD SSTORE PUSH2 0x412 PUSH1 0x8 DUP3 ADD PUSH1 0x8 DUP7 ADD PUSH2 0x1C34 JUMP JUMPDEST ADD SLOAD SWAP2 ADD SSTORE DUP2 DUP1 PUSH2 0x334 JUMP JUMPDEST PUSH4 0x4E487B71 PUSH1 0xE0 SHL PUSH1 0x0 MSTORE PUSH1 0x0 PUSH1 0x4 MSTORE PUSH1 0x24 PUSH1 0x0 REVERT JUMPDEST PUSH4 0x4E487B71 PUSH1 0xE0 SHL PUSH1 0x0 MSTORE PUSH1 0x41 PUSH1 0x4 MSTORE PUSH1 0x24 PUSH1 0x0 REVERT JUMPDEST DUP3 MLOAD PUSH1 0x1 PUSH1 0x1 PUSH1 0xA0 SHL SUB AND DUP2 DUP4 ADD SSTORE PUSH1 0x20 SWAP1 SWAP3 ADD SWAP2 PUSH1 0x1 ADD PUSH2 0x2F6 JUMP JUMPDEST PUSH4 0x4E487B71 PUSH1 0xE0 SHL PUSH1 0x0 MSTORE PUSH1 0x11 PUSH1 0x4 MSTORE PUSH1 0x24 PUSH1 0x0 REVERT JUMPDEST PUSH2 0x2B6 PUSH2 0x2BF SWAP3 PUSH1 0x0 PUSH2 0x287 JUMP JUMPDEST PUSH1 0x40 MLOAD PUSH3 0x461BCD PUSH1 0xE5 SHL DUP2 MSTORE PUSH1 0x20 PUSH1 0x4 DUP3 ADD MSTORE PUSH1 0x4D PUSH1 0x24 DUP3 ADD MSTORE PUSH32 0x446573637269626520796F757220616C62756D20746F206C6574207468652077 PUSH1 0x44 DUP3 ADD MSTORE PUSH32 0x6F726C64206B6E6F7720686F7720796F752066656C74207768656E20796F7520 PUSH1 0x64 DUP3 ADD MSTORE PUSH13 0x31B932B0BA32B2103A3434B997 PUSH1 0x99 SHL PUSH1 0x84 DUP3 ADD MSTORE PUSH1 0xA4 SWAP1 REVERT JUMPDEST PUSH1 0x40 MLOAD PUSH3 0x461BCD PUSH1 0xE5 SHL DUP2 MSTORE PUSH1 0x20 PUSH1 0x4 DUP3 ADD MSTORE PUSH1 0x12 PUSH1 0x24 DUP3 ADD MSTORE PUSH18 0x283632B0B9B29030B2321030903730B6B297 PUSH1 0x71 SHL PUSH1 0x44 DUP3 ADD MSTORE PUSH1 0x64 SWAP1 REVERT JUMPDEST PUSH1 0x0 DUP1 REVERT JUMPDEST DUP3 CALLDATALOAD PUSH1 0x1 PUSH1 0x1 PUSH1 0xA0 SHL SUB DUP2 AND DUP2 SUB PUSH2 0x546 JUMPI DUP2 MSTORE PUSH1 0x20 SWAP3 DUP4 ADD SWAP3 ADD PUSH2 0x150 JUMP JUMPDEST CALLVALUE PUSH2 0x546 JUMPI PUSH1 0x20 CALLDATASIZE PUSH1 0x3 NOT ADD SLT PUSH2 0x546 JUMPI PUSH1 0x4 CALLDATALOAD PUSH2 0x587 PUSH2 0x1814 JUMP JUMPDEST POP DUP1 ISZERO ISZERO DUP1 PUSH2 0x5CA JUMPI JUMPDEST PUSH2 0x59A SWAP1 PUSH2 0x157F JUMP JUMPDEST PUSH1 0x0 MSTORE PUSH1 0x4 PUSH1 0x20 MSTORE PUSH2 0x5C6 PUSH2 0x5B2 PUSH1 0x40 PUSH1 0x0 KECCAK256 PUSH2 0x1878 JUMP JUMPDEST PUSH1 0x40 MLOAD SWAP2 DUP3 SWAP2 PUSH1 0x20 DUP4 MSTORE PUSH1 0x20 DUP4 ADD SWAP1 PUSH2 0x136E JUMP JUMPDEST SUB SWAP1 RETURN JUMPDEST POP PUSH1 0x1 SLOAD DUP2 GT ISZERO PUSH2 0x591 JUMP JUMPDEST CALLVALUE PUSH2 0x546 JUMPI PUSH1 0x40 CALLDATASIZE PUSH1 0x3 NOT ADD SLT PUSH2 0x546 JUMPI PUSH1 0x24 CALLDATALOAD PUSH1 0x4 CALLDATALOAD PUSH2 0x5F5 PUSH2 0x1AB4 JUMP JUMPDEST POP DUP1 ISZERO ISZERO DUP1 PUSH2 0x711 JUMPI JUMPDEST PUSH2 0x608 SWAP1 PUSH2 0x157F JUMP JUMPDEST DUP2 ISZERO ISZERO DUP1 PUSH2 0x6F6 JUMPI JUMPDEST ISZERO PUSH2 0x6B1 JUMPI PUSH1 0x0 SWAP1 PUSH1 0x0 JUMPDEST DUP2 PUSH1 0x0 MSTORE PUSH1 0x4 PUSH1 0x20 MSTORE PUSH1 0x8 PUSH1 0x40 PUSH1 0x0 KECCAK256 ADD DUP1 SLOAD DUP3 LT ISZERO PUSH2 0x6A5 JUMPI DUP2 PUSH2 0x640 SWAP2 PUSH2 0x1671 JUMP JUMPDEST SWAP1 SLOAD PUSH1 0x3 SWAP2 SWAP1 SWAP2 SHL SHR PUSH1 0x1 PUSH1 0x1 PUSH1 0xA0 SHL SUB AND CALLER EQ PUSH2 0x660 JUMPI PUSH1 0x1 ADD PUSH2 0x61C JUMP JUMPDEST POP SWAP1 POP PUSH2 0x66D PUSH1 0x1 PUSH2 0x1A4C JUMP JUMPDEST PUSH1 0x0 MSTORE PUSH1 0x6 PUSH1 0x20 MSTORE PUSH1 0x40 PUSH1 0x0 KECCAK256 SWAP1 PUSH1 0x0 MSTORE PUSH1 0x20 MSTORE PUSH2 0x5C6 PUSH2 0x691 PUSH1 0x40 PUSH1 0x0 KECCAK256 PUSH2 0x1AD9 JUMP JUMPDEST PUSH1 0x40 MLOAD SWAP2 DUP3 SWAP2 PUSH1 0x20 DUP4 MSTORE PUSH1 0x20 DUP4 ADD SWAP1 PUSH2 0x1441 JUMP JUMPDEST POP POP SWAP1 PUSH2 0x66D SWAP1 PUSH2 0x1A4C JUMP JUMPDEST PUSH1 0x40 MLOAD PUSH3 0x461BCD PUSH1 0xE5 SHL DUP2 MSTORE PUSH1 0x20 PUSH1 0x4 DUP3 ADD MSTORE PUSH1 0x19 PUSH1 0x24 DUP3 ADD MSTORE PUSH32 0x5468697320696D61676520646F6573206E6F7420657869737400000000000000 PUSH1 0x44 DUP3 ADD MSTORE PUSH1 0x64 SWAP1 REVERT JUMPDEST POP DUP1 PUSH1 0x0 MSTORE PUSH1 0x4 PUSH1 0x20 MSTORE PUSH1 0x9 PUSH1 0x40 PUSH1 0x0 KECCAK256 ADD SLOAD DUP3 GT ISZERO PUSH2 0x611 JUMP JUMPDEST POP PUSH1 0x1 SLOAD DUP2 GT ISZERO PUSH2 0x5FF JUMP JUMPDEST CALLVALUE PUSH2 0x546 JUMPI PUSH1 0x20 DUP1 PUSH1 0x3 NOT CALLDATASIZE ADD SLT PUSH2 0x546 JUMPI PUSH1 0x4 CALLDATALOAD SWAP1 DUP2 ISZERO ISZERO DUP1 PUSH2 0x8D4 JUMPI JUMPDEST PUSH2 0x745 SWAP1 PUSH2 0x157F JUMP JUMPDEST DUP2 PUSH1 0x0 MSTORE PUSH1 0x4 DUP2 MSTORE PUSH1 0x40 PUSH1 0x0 KECCAK256 SWAP1 PUSH1 0x0 SWAP2 PUSH1 0x0 JUMPDEST DUP5 PUSH1 0x0 MSTORE PUSH1 0x4 DUP4 MSTORE PUSH1 0x8 PUSH1 0x40 PUSH1 0x0 KECCAK256 ADD DUP1 SLOAD DUP3 LT ISZERO PUSH2 0x8C6 JUMPI DUP2 PUSH2 0x77C SWAP2 PUSH2 0x1671 JUMP JUMPDEST SWAP1 SLOAD PUSH1 0x3 SWAP2 SWAP1 SWAP2 SHL SHR PUSH1 0x1 PUSH1 0x1 PUSH1 0xA0 SHL SUB AND CALLER EQ PUSH2 0x79C JUMPI PUSH1 0x1 ADD PUSH2 0x759 JUMP JUMPDEST POP PUSH1 0x9 SWAP2 SWAP3 POP PUSH2 0x7AC PUSH1 0x1 PUSH2 0x1A4C JUMP JUMPDEST ADD SLOAD SWAP2 PUSH2 0x7B8 DUP4 PUSH2 0x1489 JUMP JUMPDEST SWAP3 PUSH2 0x7C6 PUSH1 0x40 MLOAD SWAP5 DUP6 PUSH2 0x12EB JUMP JUMPDEST DUP1 DUP5 MSTORE PUSH2 0x7D2 DUP2 PUSH2 0x1489 JUMP JUMPDEST PUSH1 0x1F NOT ADD PUSH1 0x0 JUMPDEST DUP2 DUP2 LT PUSH2 0x8AA JUMPI POP POP PUSH1 0x1 SWAP2 PUSH1 0x1 JUMPDEST DUP3 DUP2 GT ISZERO PUSH2 0x852 JUMPI POP POP POP PUSH1 0x40 MLOAD SWAP2 DUP1 DUP4 ADD DUP2 DUP5 MSTORE DUP5 MLOAD DUP1 SWAP2 MSTORE PUSH1 0x40 DUP5 ADD SWAP2 DUP1 PUSH1 0x40 DUP4 PUSH1 0x5 SHL DUP8 ADD ADD SWAP7 ADD SWAP3 PUSH1 0x0 SWAP1 JUMPDEST DUP4 DUP3 LT PUSH2 0x825 JUMPI DUP7 DUP9 SUB DUP8 RETURN JUMPDEST SWAP1 SWAP2 SWAP3 SWAP4 SWAP5 DUP4 DUP1 PUSH2 0x841 DUP4 SWAP11 PUSH1 0x3F NOT DUP12 DUP3 SUB ADD DUP7 MSTORE DUP10 MLOAD PUSH2 0x1441 JUMP JUMPDEST SWAP10 SWAP8 ADD SWAP6 SWAP5 SWAP4 SWAP2 SWAP1 SWAP2 ADD SWAP2 ADD PUSH2 0x818 JUMP JUMPDEST DUP2 PUSH1 0x0 SWAP7 SWAP5 SWAP7 MSTORE PUSH1 0x6 DUP6 MSTORE PUSH1 0x40 PUSH1 0x0 KECCAK256 DUP2 PUSH1 0x0 MSTORE DUP6 MSTORE PUSH1 0x40 PUSH1 0x0 KECCAK256 SWAP1 PUSH1 0x0 NOT DUP2 ADD SWAP2 DUP2 DUP4 GT PUSH2 0x467 JUMPI PUSH2 0x8A2 SWAP3 PUSH2 0x88B PUSH2 0x89C SWAP3 PUSH2 0x1AD9 JUMP JUMPDEST PUSH2 0x895 DUP3 DUP10 PUSH2 0x1864 JUMP JUMPDEST MSTORE DUP7 PUSH2 0x1864 JUMP JUMPDEST POP PUSH2 0x1805 JUMP JUMPDEST SWAP5 SWAP3 SWAP5 PUSH2 0x7E8 JUMP JUMPDEST DUP5 SWAP1 PUSH2 0x8B7 SWAP7 SWAP5 SWAP7 PUSH2 0x1AB4 JUMP JUMPDEST DUP3 DUP3 DUP8 ADD ADD MSTORE ADD SWAP5 SWAP3 SWAP5 PUSH2 0x7D9 JUMP JUMPDEST POP POP PUSH2 0x7AC PUSH1 0x9 SWAP3 SWAP4 PUSH2 0x1A4C JUMP JUMPDEST POP PUSH1 0x1 SLOAD DUP3 GT ISZERO PUSH2 0x73C JUMP JUMPDEST CALLVALUE PUSH2 0x546 JUMPI PUSH1 0x0 CALLDATASIZE PUSH1 0x3 NOT ADD SLT PUSH2 0x546 JUMPI PUSH1 0x0 SLOAD PUSH1 0x40 MLOAD PUSH1 0x1 PUSH1 0x1 PUSH1 0xA0 SHL SUB SWAP1 SWAP2 AND DUP2 MSTORE PUSH1 0x20 SWAP1 RETURN JUMPDEST PUSH1 0x20 CALLDATASIZE PUSH1 0x3 NOT ADD SLT PUSH2 0x546 JUMPI PUSH1 0x4 CALLDATALOAD DUP1 ISZERO ISZERO DUP1 PUSH2 0xAB6 JUMPI JUMPDEST PUSH2 0x92A SWAP1 PUSH2 0x157F JUMP JUMPDEST DUP1 PUSH1 0x0 MSTORE PUSH1 0x4 PUSH1 0x20 MSTORE PUSH1 0x40 PUSH1 0x0 KECCAK256 SWAP1 PUSH1 0x1 DUP1 DUP4 ADD SWAP2 PUSH1 0xFF DUP4 SLOAD AND ISZERO DUP1 ISZERO PUSH2 0xAA8 JUMPI JUMPDEST ISZERO PUSH2 0xA63 JUMPI SWAP1 DUP1 SWAP3 SWAP2 PUSH1 0x8 SWAP1 PUSH2 0x965 CALLER PUSH1 0x8 DUP9 ADD PUSH2 0x1A11 JUMP JUMPDEST PUSH1 0x0 SWAP5 JUMPDEST PUSH2 0xA13 JUMPI JUMPDEST POP POP POP PUSH1 0x1 SWAP2 POP PUSH1 0xFF SWAP1 SLOAD AND EQ PUSH2 0x9AE JUMPI JUMPDEST PUSH1 0x40 MLOAD TIMESTAMP DUP2 MSTORE PUSH32 0x59A4DADCE245655CE4C5EA128F142C4034B1206DEFF52FF605866CD86433DE81 PUSH1 0x20 CALLER SWAP3 LOG2 STOP JUMPDEST PUSH1 0x0 DUP1 DUP1 DUP1 PUSH2 0xA0D SWAP5 PUSH1 0x3 PUSH2 0x9FA DUP4 DUP1 DUP1 DUP1 PUSH1 0x64 PUSH2 0x9CF PUSH1 0x2 SLOAD CALLVALUE SWAP1 PUSH2 0x1913 JUMP JUMPDEST DIV SWAP7 PUSH2 0x9DB DUP9 CALLVALUE PUSH2 0x1926 JUMP JUMPDEST SWAP7 ADD SLOAD PUSH1 0x1 PUSH1 0x1 PUSH1 0xA0 SHL SUB SWAP7 SWAP1 DUP8 AND GAS CALL PUSH2 0x9F4 PUSH2 0x1933 JUMP JUMPDEST POP PUSH2 0x1963 JUMP JUMPDEST DUP3 SLOAD AND GAS CALL PUSH2 0xA07 PUSH2 0x1933 JUMP JUMPDEST POP PUSH2 0x19BA JUMP JUMPDEST DUP1 PUSH2 0x980 JUMP JUMPDEST PUSH1 0x3 SLOAD DUP6 LT ISZERO PUSH2 0xA5E JUMPI DUP1 PUSH2 0xA27 DUP7 PUSH2 0x17CA JUMP JUMPDEST POP SLOAD EQ PUSH2 0xA38 JUMPI SWAP4 DUP3 ADD SWAP4 DUP3 PUSH2 0x969 JUMP JUMPDEST POP PUSH1 0xFF SWAP3 SWAP2 POP PUSH2 0xA56 SWAP1 PUSH2 0xA4D PUSH1 0x1 SWAP6 PUSH2 0x17CA JUMP JUMPDEST POP CALLER SWAP2 ADD PUSH2 0x1A11 JUMP JUMPDEST SWAP1 DUP5 DUP1 PUSH2 0x96E JUMP JUMPDEST PUSH2 0x96E JUMP JUMPDEST PUSH1 0x40 MLOAD PUSH3 0x461BCD PUSH1 0xE5 SHL DUP2 MSTORE PUSH1 0x20 PUSH1 0x4 DUP3 ADD MSTORE PUSH1 0x18 PUSH1 0x24 DUP3 ADD MSTORE PUSH32 0x546869732069732061207072697661746520616C62756D2E0000000000000000 PUSH1 0x44 DUP3 ADD MSTORE PUSH1 0x64 SWAP1 REVERT JUMPDEST POP PUSH1 0x2 DUP5 ADD SLOAD CALLVALUE LT ISZERO PUSH2 0x94C JUMP JUMPDEST POP PUSH1 0x1 SLOAD DUP2 GT ISZERO PUSH2 0x921 JUMP JUMPDEST PUSH1 0x20 CALLDATASIZE PUSH1 0x3 NOT ADD SLT PUSH2 0x546 JUMPI PUSH1 0x4 CALLDATALOAD DUP1 ISZERO ISZERO DUP1 PUSH2 0xB7B JUMPI JUMPDEST PUSH2 0xAE3 SWAP1 PUSH2 0x157F JUMP JUMPDEST PUSH1 0x0 MSTORE PUSH1 0x4 PUSH1 0x20 MSTORE PUSH1 0x40 PUSH1 0x0 KECCAK256 PUSH1 0xFF PUSH1 0x1 DUP3 ADD SLOAD AND ISZERO DUP1 ISZERO PUSH2 0xB6D JUMPI JUMPDEST ISZERO PUSH2 0xB28 JUMPI PUSH1 0x0 DUP1 DUP1 DUP1 PUSH2 0xB26 SWAP5 PUSH1 0x3 PUSH2 0x9FA DUP4 DUP1 DUP1 DUP1 PUSH1 0x64 PUSH2 0x9CF PUSH1 0x2 SLOAD CALLVALUE SWAP1 PUSH2 0x1913 JUMP JUMPDEST STOP JUMPDEST PUSH1 0x40 MLOAD PUSH3 0x461BCD PUSH1 0xE5 SHL DUP2 MSTORE PUSH1 0x20 PUSH1 0x4 DUP3 ADD MSTORE PUSH1 0x1E PUSH1 0x24 DUP3 ADD MSTORE PUSH32 0x546869732069732061207072697661746520616C62756D20696D6167652E0000 PUSH1 0x44 DUP3 ADD MSTORE PUSH1 0x64 SWAP1 REVERT JUMPDEST POP PUSH1 0x2 DUP2 ADD SLOAD CALLVALUE LT ISZERO PUSH2 0xB00 JUMP JUMPDEST POP PUSH1 0x1 SLOAD DUP2 GT ISZERO PUSH2 0xADA JUMP JUMPDEST CALLVALUE PUSH2 0x546 JUMPI PUSH1 0x60 CALLDATASIZE PUSH1 0x3 NOT ADD SLT PUSH2 0x546 JUMPI PUSH1 0x4 CALLDATALOAD PUSH1 0x1 PUSH1 0x1 PUSH1 0x40 SHL SUB PUSH1 0x24 CALLDATALOAD DUP2 DUP2 GT PUSH2 0x546 JUMPI PUSH2 0xBBB SWAP1 CALLDATASIZE SWAP1 PUSH1 0x4 ADD PUSH2 0x1327 JUMP JUMPDEST SWAP1 PUSH1 0x44 CALLDATALOAD SWAP1 DUP2 GT PUSH2 0x546 JUMPI PUSH2 0xBD4 SWAP1 CALLDATASIZE SWAP1 PUSH1 0x4 ADD PUSH2 0x1327 JUMP JUMPDEST DUP3 ISZERO ISZERO DUP1 PUSH2 0xDFE JUMPI JUMPDEST PUSH2 0xBE6 SWAP1 PUSH2 0x157F JUMP JUMPDEST DUP3 PUSH1 0x0 MSTORE PUSH1 0x20 SWAP2 PUSH1 0x4 DUP4 MSTORE PUSH1 0x40 PUSH1 0x0 KECCAK256 SWAP2 PUSH1 0x9 SWAP1 PUSH1 0x9 DUP5 ADD SWAP4 PUSH2 0xC09 DUP6 SLOAD PUSH2 0x1805 JUMP JUMPDEST DUP1 DUP7 SSTORE PUSH1 0x8 SWAP1 SWAP2 ADD DUP1 SLOAD PUSH1 0x0 SWAP2 DUP3 JUMPDEST DUP3 DUP2 LT PUSH2 0xDC6 JUMPI JUMPDEST POP POP POP ISZERO PUSH2 0xD62 JUMPI SWAP1 PUSH2 0xC85 SWAP7 SWAP6 SWAP5 SWAP4 SWAP3 SWAP2 PUSH2 0xC8F PUSH1 0x40 MLOAD SWAP3 PUSH2 0xC42 DUP5 PUSH2 0x12B4 JUMP JUMPDEST DUP3 DUP5 MSTORE DUP8 DUP5 ADD SWAP6 DUP7 MSTORE PUSH1 0x40 DUP5 ADD SWAP1 DUP2 MSTORE PUSH1 0x60 DUP5 ADD SWAP3 CALLER DUP5 MSTORE DUP10 PUSH1 0x0 MSTORE PUSH1 0x6 DUP10 MSTORE PUSH1 0x40 PUSH1 0x0 KECCAK256 SWAP1 PUSH1 0x0 MSTORE DUP9 MSTORE PUSH1 0x40 PUSH1 0x0 KECCAK256 SWAP4 MLOAD DUP5 SSTORE PUSH1 0x1 SWAP10 DUP11 SWAP7 MLOAD PUSH1 0x1 DUP7 ADD PUSH2 0x16FB JUMP JUMPDEST MLOAD PUSH1 0x2 DUP5 ADD PUSH2 0x16FB JUMP JUMPDEST MLOAD PUSH1 0x3 SWAP2 DUP3 ADD DUP1 SLOAD PUSH1 0x1 PUSH1 0x1 PUSH1 0xA0 SHL SUB NOT AND PUSH1 0x1 PUSH1 0x1 PUSH1 0xA0 SHL SUB SWAP3 SWAP1 SWAP3 AND SWAP2 SWAP1 SWAP2 OR SWAP1 SSTORE PUSH1 0x0 SWAP7 JUMPDEST PUSH2 0xCEF JUMPI JUMPDEST PUSH32 0x5138483D623EEF75882D5CA6ED33E44C7ECAFE842F3311844EABF67A297CE76C PUSH1 0x40 DUP8 DUP8 DUP8 SLOAD SWAP1 DUP4 MLOAD SWAP3 DUP4 MSTORE DUP3 ADD MSTORE LOG1 STOP JUMPDEST DUP1 SLOAD DUP8 LT ISZERO PUSH2 0xD5D JUMPI DUP6 PUSH2 0xD02 DUP9 PUSH2 0x17CA JUMP JUMPDEST POP SLOAD EQ PUSH2 0xD13 JUMPI SWAP6 DUP3 ADD SWAP6 DUP3 PUSH2 0xCB7 JUMP JUMPDEST POP PUSH1 0x40 SWAP5 SWAP4 SWAP3 SWAP2 POP PUSH2 0xD45 PUSH32 0x5138483D623EEF75882D5CA6ED33E44C7ECAFE842F3311844EABF67A297CE76C SWAP7 PUSH2 0x17CA JUMP JUMPDEST POP ADD PUSH2 0xD51 DUP2 SLOAD PUSH2 0x1805 JUMP JUMPDEST SWAP1 SSTORE SWAP1 SWAP2 SWAP3 DUP6 DUP1 PUSH2 0xCBC JUMP JUMPDEST PUSH2 0xCBC JUMP JUMPDEST PUSH1 0x40 MLOAD PUSH3 0x461BCD PUSH1 0xE5 SHL DUP2 MSTORE PUSH1 0x4 DUP2 ADD DUP8 SWAP1 MSTORE PUSH1 0x36 PUSH1 0x24 DUP3 ADD MSTORE PUSH32 0x4F6E6C792074686F73652077686F2068617665206A6F696E6564207468652061 PUSH1 0x44 DUP3 ADD MSTORE PUSH22 0x36313AB69031B0B71030B2321030B71034B6B0B3B297 PUSH1 0x51 SHL PUSH1 0x64 DUP3 ADD MSTORE PUSH1 0x84 SWAP1 REVERT JUMPDEST PUSH2 0xDD0 DUP2 DUP4 PUSH2 0x1671 JUMP JUMPDEST SWAP1 SLOAD PUSH1 0x3 SWAP2 SWAP1 SWAP2 SHL SHR PUSH1 0x1 PUSH1 0x1 PUSH1 0xA0 SHL SUB AND CALLER EQ PUSH2 0xDF0 JUMPI PUSH1 0x1 ADD PUSH2 0xC18 JUMP JUMPDEST POP POP POP POP PUSH1 0x1 DUP9 DUP1 DUP1 PUSH2 0xC20 JUMP JUMPDEST POP PUSH1 0x1 SLOAD DUP4 GT ISZERO PUSH2 0xBDD JUMP JUMPDEST CALLVALUE PUSH2 0x546 JUMPI PUSH1 0x0 CALLDATASIZE PUSH1 0x3 NOT ADD SLT PUSH2 0x546 JUMPI PUSH1 0x20 PUSH1 0x1 SLOAD PUSH1 0x40 MLOAD SWAP1 DUP2 MSTORE RETURN JUMPDEST CALLVALUE PUSH2 0x546 JUMPI PUSH1 0x0 CALLDATASIZE PUSH1 0x3 NOT ADD SLT PUSH2 0x546 JUMPI PUSH1 0x0 DUP1 PUSH1 0x3 DUP1 SLOAD SWAP3 JUMPDEST DUP4 DUP2 LT PUSH2 0xFA4 JUMPI POP PUSH2 0xE6C PUSH2 0xE56 DUP4 PUSH2 0x1489 JUMP JUMPDEST SWAP3 PUSH2 0xE64 PUSH1 0x40 MLOAD SWAP5 DUP6 PUSH2 0x12EB JUMP JUMPDEST DUP1 DUP5 MSTORE PUSH2 0x1489 JUMP JUMPDEST PUSH1 0x20 SWAP4 SWAP1 PUSH1 0x1F NOT ADD DUP5 PUSH1 0x0 JUMPDEST DUP3 DUP2 LT PUSH2 0xF8E JUMPI POP POP POP SWAP1 PUSH1 0x0 SWAP2 PUSH1 0x0 SWAP1 JUMPDEST DUP1 DUP3 LT PUSH2 0xEEF JUMPI PUSH1 0x40 DUP1 MLOAD DUP8 DUP2 MSTORE DUP7 MLOAD DUP2 DUP10 ADD DUP2 SWAP1 MSTORE PUSH1 0x0 SWAP3 PUSH1 0x5 DUP3 SWAP1 SHL DUP4 ADD DUP2 ADD SWAP2 DUP10 DUP12 ADD SWAP2 DUP12 SWAP1 DUP6 ADD JUMPDEST DUP3 DUP8 LT PUSH2 0xEC3 JUMPI DUP6 DUP6 SUB DUP7 RETURN JUMPDEST SWAP1 SWAP2 SWAP3 SWAP4 DUP3 DUP1 PUSH2 0xEDF PUSH1 0x1 SWAP4 PUSH1 0x3F NOT DUP11 DUP3 SUB ADD DUP7 MSTORE DUP9 MLOAD PUSH2 0x136E JUMP JUMPDEST SWAP7 ADD SWAP3 ADD SWAP7 ADD SWAP6 SWAP3 SWAP2 SWAP1 SWAP3 PUSH2 0xEB6 JUMP JUMPDEST SWAP1 SWAP3 SWAP5 PUSH1 0x0 SWAP5 SWAP3 SWAP5 JUMPDEST PUSH2 0xF01 DUP6 PUSH2 0x17CA JUMP JUMPDEST POP PUSH1 0x8 DUP1 SWAP2 ADD SLOAD DUP3 LT ISZERO PUSH2 0xF7F JUMPI DUP2 PUSH2 0xF24 SWAP2 PUSH2 0xF1D DUP9 PUSH2 0x17CA JUMP JUMPDEST POP ADD PUSH2 0x1671 JUMP JUMPDEST SWAP1 SLOAD SWAP1 DUP8 SHL SHR PUSH1 0x1 PUSH1 0x1 PUSH1 0xA0 SHL SUB AND CALLER EQ PUSH2 0xF41 JUMPI PUSH1 0x1 ADD PUSH2 0xEF8 JUMP JUMPDEST POP SWAP5 PUSH2 0xF74 PUSH1 0x1 SWAP2 PUSH2 0xF5F PUSH2 0xF59 DUP8 SWAP6 SWAP7 SWAP9 SWAP8 PUSH2 0x17CA JUMP JUMPDEST POP PUSH2 0x1878 JUMP JUMPDEST PUSH2 0xF69 DUP3 DUP10 PUSH2 0x1864 JUMP JUMPDEST MSTORE PUSH2 0x89C DUP2 DUP9 PUSH2 0x1864 JUMP JUMPDEST SWAP2 JUMPDEST ADD SWAP1 SWAP3 SWAP2 PUSH2 0xE8A JUMP JUMPDEST POP POP SWAP5 SWAP1 SWAP2 SWAP4 SWAP3 PUSH1 0x1 SWAP1 PUSH2 0xF76 JUMP JUMPDEST PUSH2 0xF96 PUSH2 0x1814 JUMP JUMPDEST DUP3 DUP3 DUP9 ADD ADD MSTORE ADD DUP6 SWAP1 PUSH2 0xE78 JUMP JUMPDEST SWAP1 SWAP2 PUSH1 0x0 JUMPDEST PUSH2 0xFB2 DUP4 PUSH2 0x17CA JUMP JUMPDEST POP PUSH1 0x8 DUP1 SWAP2 ADD SLOAD DUP3 LT ISZERO PUSH2 0x1002 JUMPI DUP2 PUSH2 0xFCE SWAP2 PUSH2 0xF1D DUP7 PUSH2 0x17CA JUMP JUMPDEST SWAP1 SLOAD SWAP1 DUP6 SHL SHR PUSH1 0x1 PUSH1 0x1 PUSH1 0xA0 SHL SUB AND CALLER EQ PUSH2 0xFEB JUMPI PUSH1 0x1 ADD PUSH2 0xFA9 JUMP JUMPDEST POP PUSH2 0xFFA PUSH1 0x1 SWAP2 SWAP4 SWAP3 SWAP4 PUSH2 0x1805 JUMP JUMPDEST SWAP3 JUMPDEST ADD PUSH2 0xE42 JUMP JUMPDEST POP POP SWAP2 SWAP1 PUSH1 0x1 SWAP1 PUSH2 0xFFC JUMP JUMPDEST CALLVALUE PUSH2 0x546 JUMPI PUSH1 0x20 CALLDATASIZE PUSH1 0x3 NOT ADD SLT PUSH2 0x546 JUMPI PUSH1 0x4 CALLDATALOAD PUSH1 0x1 PUSH1 0x1 PUSH1 0x40 SHL SUB DUP2 GT PUSH2 0x546 JUMPI PUSH2 0x103E SWAP1 CALLDATASIZE SWAP1 PUSH1 0x4 ADD PUSH2 0x1327 JUMP JUMPDEST PUSH2 0x1049 CALLER ISZERO ISZERO PUSH2 0x1625 JUMP JUMPDEST DUP1 MLOAD ISZERO PUSH2 0x10CE JUMPI CALLER PUSH1 0x0 MSTORE PUSH1 0x5 PUSH1 0x20 MSTORE PUSH1 0x40 PUSH1 0x0 KECCAK256 DUP1 SLOAD PUSH1 0x1 PUSH1 0x40 SHL DUP2 LT ISZERO PUSH2 0x434 JUMPI PUSH2 0x107B SWAP2 PUSH1 0x1 DUP3 ADD DUP2 SSTORE PUSH2 0x1671 JUMP JUMPDEST PUSH2 0x41E JUMPI DUP2 PUSH2 0x1089 SWAP2 PUSH2 0x16FB JUMP JUMPDEST PUSH32 0x34647A087C36357C4B77D3D7B4BC2B55D01C3EF8726DC75A70652D96E1510CC3 PUSH2 0x10BF PUSH1 0x40 MLOAD SWAP3 PUSH1 0x40 DUP5 MSTORE PUSH1 0x40 DUP5 ADD SWAP1 PUSH2 0x1274 JUMP JUMPDEST SWAP2 TIMESTAMP PUSH1 0x20 DUP3 ADD MSTORE DUP1 CALLER SWAP4 SUB SWAP1 LOG2 STOP JUMPDEST PUSH1 0x40 MLOAD PUSH3 0x461BCD PUSH1 0xE5 SHL DUP2 MSTORE PUSH1 0x20 PUSH1 0x4 DUP3 ADD MSTORE PUSH1 0x11 PUSH1 0x24 DUP3 ADD MSTORE PUSH17 0x283632B0B9B29030B2321030903AB93617 PUSH1 0x79 SHL PUSH1 0x44 DUP3 ADD MSTORE PUSH1 0x64 SWAP1 REVERT JUMPDEST CALLVALUE PUSH2 0x546 JUMPI PUSH1 0x20 DUP1 PUSH1 0x3 NOT CALLDATASIZE ADD SLT PUSH2 0x546 JUMPI PUSH1 0x4 CALLDATALOAD DUP1 ISZERO ISZERO DUP1 PUSH2 0x1191 JUMPI JUMPDEST PUSH2 0x112E SWAP1 PUSH2 0x157F JUMP JUMPDEST PUSH1 0x0 MSTORE PUSH1 0x4 DUP2 MSTORE PUSH2 0x1145 PUSH1 0x8 PUSH1 0x40 PUSH1 0x0 KECCAK256 ADD PUSH2 0x15CB JUMP JUMPDEST SWAP1 PUSH1 0x40 MLOAD SWAP2 DUP2 DUP4 SWAP3 DUP4 ADD DUP2 DUP5 MSTORE DUP3 MLOAD DUP1 SWAP2 MSTORE DUP2 PUSH1 0x40 DUP6 ADD SWAP4 ADD SWAP2 PUSH1 0x0 JUMPDEST DUP3 DUP2 LT PUSH2 0x1171 JUMPI POP POP POP POP SUB SWAP1 RETURN JUMPDEST DUP4 MLOAD PUSH1 0x1 PUSH1 0x1 PUSH1 0xA0 SHL SUB AND DUP6 MSTORE DUP7 SWAP6 POP SWAP4 DUP2 ADD SWAP4 SWAP3 DUP2 ADD SWAP3 PUSH1 0x1 ADD PUSH2 0x1162 JUMP JUMPDEST POP PUSH1 0x1 SLOAD DUP2 GT ISZERO PUSH2 0x1125 JUMP JUMPDEST CALLVALUE PUSH2 0x546 JUMPI PUSH1 0x0 CALLDATASIZE PUSH1 0x3 NOT ADD SLT PUSH2 0x546 JUMPI CALLER PUSH1 0x0 MSTORE PUSH1 0x20 PUSH1 0x5 DUP2 MSTORE PUSH1 0x40 PUSH1 0x0 KECCAK256 SWAP1 DUP2 SLOAD SWAP2 PUSH2 0x11CA DUP4 PUSH2 0x1489 JUMP JUMPDEST SWAP3 PUSH2 0x11D8 PUSH1 0x40 MLOAD SWAP5 DUP6 PUSH2 0x12EB JUMP JUMPDEST DUP1 DUP5 MSTORE DUP3 DUP5 ADD DUP1 SWAP3 PUSH1 0x0 MSTORE DUP4 PUSH1 0x0 KECCAK256 PUSH1 0x0 SWAP2 JUMPDEST DUP4 DUP4 LT PUSH2 0x1252 JUMPI POP POP POP POP PUSH1 0x40 MLOAD SWAP2 DUP1 DUP4 ADD SWAP4 DUP2 DUP5 MSTORE MLOAD DUP1 SWAP5 MSTORE PUSH1 0x40 DUP4 ADD SWAP4 PUSH1 0x40 DUP2 PUSH1 0x5 SHL DUP6 ADD ADD SWAP3 SWAP2 PUSH1 0x0 SWAP6 JUMPDEST DUP3 DUP8 LT PUSH2 0x1226 JUMPI DUP6 DUP6 SUB DUP7 RETURN JUMPDEST SWAP1 SWAP2 SWAP3 SWAP4 DUP3 DUP1 PUSH2 0x1242 PUSH1 0x1 SWAP4 PUSH1 0x3F NOT DUP11 DUP3 SUB ADD DUP7 MSTORE DUP9 MLOAD PUSH2 0x1274 JUMP JUMPDEST SWAP7 ADD SWAP3 ADD SWAP7 ADD SWAP6 SWAP3 SWAP2 SWAP1 SWAP3 PUSH2 0x1219 JUMP JUMPDEST PUSH1 0x1 DUP7 DUP2 SWAP3 PUSH2 0x1263 DUP6 SWAP11 SWAP10 SWAP11 PUSH2 0x14DA JUMP JUMPDEST DUP2 MSTORE ADD SWAP3 ADD SWAP3 ADD SWAP2 SWAP1 SWAP6 SWAP5 SWAP6 PUSH2 0x11EB JUMP JUMPDEST SWAP2 SWAP1 DUP3 MLOAD SWAP3 DUP4 DUP3 MSTORE PUSH1 0x0 JUMPDEST DUP5 DUP2 LT PUSH2 0x12A0 JUMPI POP POP DUP3 PUSH1 0x0 PUSH1 0x20 DUP1 SWAP5 SWAP6 DUP5 ADD ADD MSTORE PUSH1 0x1F DUP1 NOT SWAP2 ADD AND ADD ADD SWAP1 JUMP JUMPDEST PUSH1 0x20 DUP2 DUP4 ADD DUP2 ADD MLOAD DUP5 DUP4 ADD DUP3 ADD MSTORE ADD PUSH2 0x127F JUMP JUMPDEST PUSH1 0x80 DUP2 ADD SWAP1 DUP2 LT PUSH1 0x1 PUSH1 0x1 PUSH1 0x40 SHL SUB DUP3 GT OR PUSH2 0x434 JUMPI PUSH1 0x40 MSTORE JUMP JUMPDEST PUSH2 0x140 DUP2 ADD SWAP1 DUP2 LT PUSH1 0x1 PUSH1 0x1 PUSH1 0x40 SHL SUB DUP3 GT OR PUSH2 0x434 JUMPI PUSH1 0x40 MSTORE JUMP JUMPDEST SWAP1 PUSH1 0x1F DUP1 NOT SWAP2 ADD AND DUP2 ADD SWAP1 DUP2 LT PUSH1 0x1 PUSH1 0x1 PUSH1 0x40 SHL SUB DUP3 GT OR PUSH2 0x434 JUMPI PUSH1 0x40 MSTORE JUMP JUMPDEST PUSH1 0x1 PUSH1 0x1 PUSH1 0x40 SHL SUB DUP2 GT PUSH2 0x434 JUMPI PUSH1 0x1F ADD PUSH1 0x1F NOT AND PUSH1 0x20 ADD SWAP1 JUMP JUMPDEST DUP2 PUSH1 0x1F DUP3 ADD SLT ISZERO PUSH2 0x546 JUMPI DUP1 CALLDATALOAD SWAP1 PUSH2 0x133E DUP3 PUSH2 0x130C JUMP JUMPDEST SWAP3 PUSH2 0x134C PUSH1 0x40 MLOAD SWAP5 DUP6 PUSH2 0x12EB JUMP JUMPDEST DUP3 DUP5 MSTORE PUSH1 0x20 DUP4 DUP4 ADD ADD GT PUSH2 0x546 JUMPI DUP2 PUSH1 0x0 SWAP3 PUSH1 0x20 DUP1 SWAP4 ADD DUP4 DUP7 ADD CALLDATACOPY DUP4 ADD ADD MSTORE SWAP1 JUMP JUMPDEST SWAP1 PUSH2 0x140 SWAP2 DUP1 MLOAD DUP3 MSTORE PUSH1 0x20 SWAP3 PUSH1 0xFF DUP5 DUP4 ADD MLOAD AND DUP5 DUP5 ADD MSTORE PUSH1 0x40 DUP3 ADD MLOAD PUSH1 0x40 DUP5 ADD MSTORE PUSH2 0x13E5 PUSH2 0x13D3 PUSH2 0x13C1 PUSH1 0x60 DUP6 ADD MLOAD SWAP4 PUSH1 0x1 DUP1 PUSH1 0xA0 SHL SUB DUP1 SWAP6 AND PUSH1 0x60 DUP9 ADD MSTORE PUSH1 0x80 DUP7 ADD MLOAD SWAP1 DUP1 PUSH1 0x80 DUP10 ADD MSTORE DUP8 ADD SWAP1 PUSH2 0x1274 JUMP JUMPDEST PUSH1 0xA0 DUP6 ADD MLOAD DUP7 DUP3 SUB PUSH1 0xA0 DUP9 ADD MSTORE PUSH2 0x1274 JUMP JUMPDEST PUSH1 0xC0 DUP5 ADD MLOAD DUP6 DUP3 SUB PUSH1 0xC0 DUP8 ADD MSTORE PUSH2 0x1274 JUMP JUMPDEST PUSH1 0xE0 DUP4 ADD MLOAD PUSH1 0xE0 DUP6 ADD MSTORE PUSH2 0x100 SWAP5 DUP6 DUP5 ADD MLOAD SWAP6 DUP6 DUP4 SUB SWAP1 DUP7 ADD MSTORE DUP1 DUP1 DUP8 MLOAD SWAP4 DUP5 DUP2 MSTORE ADD SWAP7 ADD SWAP3 PUSH1 0x0 SWAP1 JUMPDEST DUP4 DUP3 LT PUSH2 0x1428 JUMPI POP POP POP POP POP PUSH2 0x120 DUP1 SWAP2 ADD MLOAD SWAP2 ADD MSTORE SWAP1 JUMP JUMPDEST DUP5 MLOAD DUP2 AND DUP9 MSTORE SWAP7 DUP3 ADD SWAP7 SWAP4 DUP3 ADD SWAP4 PUSH1 0x1 SWAP1 SWAP2 ADD SWAP1 PUSH2 0x140F JUMP JUMPDEST SWAP1 DUP2 MLOAD DUP2 MSTORE PUSH1 0x60 PUSH2 0x1476 PUSH2 0x1464 PUSH1 0x20 DUP6 ADD MLOAD PUSH1 0x80 PUSH1 0x20 DUP7 ADD MSTORE PUSH1 0x80 DUP6 ADD SWAP1 PUSH2 0x1274 JUMP JUMPDEST PUSH1 0x40 DUP6 ADD MLOAD DUP5 DUP3 SUB PUSH1 0x40 DUP7 ADD MSTORE PUSH2 0x1274 JUMP JUMPDEST SWAP3 DUP2 ADD MLOAD PUSH1 0x1 PUSH1 0x1 PUSH1 0xA0 SHL SUB AND SWAP2 ADD MSTORE SWAP1 JUMP JUMPDEST PUSH1 0x1 PUSH1 0x1 PUSH1 0x40 SHL SUB DUP2 GT PUSH2 0x434 JUMPI PUSH1 0x5 SHL PUSH1 0x20 ADD SWAP1 JUMP JUMPDEST SWAP1 PUSH1 0x1 DUP3 DUP2 SHR SWAP3 AND DUP1 ISZERO PUSH2 0x14D0 JUMPI JUMPDEST PUSH1 0x20 DUP4 LT EQ PUSH2 0x14BA JUMPI JUMP JUMPDEST PUSH4 0x4E487B71 PUSH1 0xE0 SHL PUSH1 0x0 MSTORE PUSH1 0x22 PUSH1 0x4 MSTORE PUSH1 0x24 PUSH1 0x0 REVERT JUMPDEST SWAP2 PUSH1 0x7F AND SWAP2 PUSH2 0x14AF JUMP JUMPDEST SWAP1 PUSH1 0x40 MLOAD SWAP2 DUP3 PUSH1 0x0 DUP3 SLOAD PUSH2 0x14ED DUP2 PUSH2 0x14A0 JUMP JUMPDEST SWAP1 DUP2 DUP5 MSTORE PUSH1 0x20 SWAP5 PUSH1 0x1 SWAP2 PUSH1 0x1 DUP2 AND SWAP1 DUP2 PUSH1 0x0 EQ PUSH2 0x155D JUMPI POP PUSH1 0x1 EQ PUSH2 0x151E JUMPI JUMPDEST POP POP POP PUSH2 0x151C SWAP3 POP SUB DUP4 PUSH2 0x12EB JUMP JUMPDEST JUMP JUMPDEST PUSH1 0x0 SWAP1 DUP2 MSTORE DUP6 DUP2 KECCAK256 SWAP6 SWAP4 POP SWAP2 SWAP1 JUMPDEST DUP2 DUP4 LT PUSH2 0x1545 JUMPI POP POP PUSH2 0x151C SWAP4 POP DUP3 ADD ADD CODESIZE DUP1 DUP1 PUSH2 0x150D JUMP JUMPDEST DUP6 SLOAD DUP9 DUP5 ADD DUP6 ADD MSTORE SWAP5 DUP6 ADD SWAP5 DUP8 SWAP5 POP SWAP2 DUP4 ADD SWAP2 PUSH2 0x152C JUMP JUMPDEST SWAP3 POP POP POP PUSH2 0x151C SWAP5 SWAP3 POP PUSH1 0xFF NOT AND DUP3 DUP5 ADD MSTORE ISZERO ISZERO PUSH1 0x5 SHL DUP3 ADD ADD CODESIZE DUP1 DUP1 PUSH2 0x150D JUMP JUMPDEST ISZERO PUSH2 0x1586 JUMPI JUMP JUMPDEST PUSH1 0x40 MLOAD PUSH3 0x461BCD PUSH1 0xE5 SHL DUP2 MSTORE PUSH1 0x20 PUSH1 0x4 DUP3 ADD MSTORE PUSH1 0x19 PUSH1 0x24 DUP3 ADD MSTORE PUSH32 0x5468697320616C62756D20646F6573206E6F7420657869737400000000000000 PUSH1 0x44 DUP3 ADD MSTORE PUSH1 0x64 SWAP1 REVERT JUMPDEST SWAP1 PUSH1 0x40 MLOAD SWAP2 DUP3 DUP2 SLOAD SWAP2 DUP3 DUP3 MSTORE PUSH1 0x20 SWAP3 PUSH1 0x20 DUP4 ADD SWAP2 PUSH1 0x0 MSTORE PUSH1 0x20 PUSH1 0x0 KECCAK256 SWAP4 PUSH1 0x0 SWAP1 JUMPDEST DUP3 DUP3 LT PUSH2 0x1602 JUMPI POP POP POP PUSH2 0x151C SWAP3 POP SUB DUP4 PUSH2 0x12EB JUMP JUMPDEST DUP6 SLOAD PUSH1 0x1 PUSH1 0x1 PUSH1 0xA0 SHL SUB AND DUP5 MSTORE PUSH1 0x1 SWAP6 DUP7 ADD SWAP6 DUP9 SWAP6 POP SWAP4 DUP2 ADD SWAP4 SWAP1 SWAP2 ADD SWAP1 PUSH2 0x15EC JUMP JUMPDEST ISZERO PUSH2 0x162C JUMPI JUMP JUMPDEST PUSH1 0x40 MLOAD PUSH3 0x461BCD PUSH1 0xE5 SHL DUP2 MSTORE PUSH1 0x20 PUSH1 0x4 DUP3 ADD MSTORE PUSH1 0x1A PUSH1 0x24 DUP3 ADD MSTORE PUSH32 0x4E6F207A65726F2061646472657373657320616C6C6F7765642E000000000000 PUSH1 0x44 DUP3 ADD MSTORE PUSH1 0x64 SWAP1 REVERT JUMPDEST DUP1 SLOAD DUP3 LT ISZERO PUSH2 0x1689 JUMPI PUSH1 0x0 MSTORE PUSH1 0x20 PUSH1 0x0 KECCAK256 ADD SWAP1 PUSH1 0x0 SWAP1 JUMP JUMPDEST PUSH4 0x4E487B71 PUSH1 0xE0 SHL PUSH1 0x0 MSTORE PUSH1 0x32 PUSH1 0x4 MSTORE PUSH1 0x24 PUSH1 0x0 REVERT JUMPDEST DUP2 DUP2 LT PUSH2 0x16AA JUMPI POP POP JUMP JUMPDEST PUSH1 0x0 DUP2 SSTORE PUSH1 0x1 ADD PUSH2 0x169F JUMP JUMPDEST SWAP2 SWAP1 PUSH1 0x1F DUP2 GT PUSH2 0x16C5 JUMPI POP POP POP JUMP JUMPDEST PUSH2 0x151C SWAP3 PUSH1 0x0 MSTORE PUSH1 0x20 PUSH1 0x0 KECCAK256 SWAP1 PUSH1 0x20 PUSH1 0x1F DUP5 ADD PUSH1 0x5 SHR DUP4 ADD SWAP4 LT PUSH2 0x16F1 JUMPI JUMPDEST PUSH1 0x1F ADD PUSH1 0x5 SHR ADD SWAP1 PUSH2 0x169F JUMP JUMPDEST SWAP1 SWAP2 POP DUP2 SWAP1 PUSH2 0x16E4 JUMP JUMPDEST SWAP2 SWAP1 SWAP2 DUP3 MLOAD PUSH1 0x1 PUSH1 0x1 PUSH1 0x40 SHL SUB DUP2 GT PUSH2 0x434 JUMPI PUSH2 0x1722 DUP2 PUSH2 0x171C DUP5 SLOAD PUSH2 0x14A0 JUMP JUMPDEST DUP5 PUSH2 0x16B6 JUMP JUMPDEST PUSH1 0x20 DUP1 PUSH1 0x1F DUP4 GT PUSH1 0x1 EQ PUSH2 0x1765 JUMPI POP DUP2 SWAP1 PUSH2 0x1756 SWAP4 SWAP5 SWAP6 PUSH1 0x0 SWAP3 PUSH2 0x175A JUMPI JUMPDEST POP POP DUP2 PUSH1 0x1 SHL SWAP2 PUSH1 0x0 NOT SWAP1 PUSH1 0x3 SHL SHR NOT AND OR SWAP1 JUMP JUMPDEST SWAP1 SSTORE JUMP JUMPDEST ADD MLOAD SWAP1 POP CODESIZE DUP1 PUSH2 0x1741 JUMP JUMPDEST SWAP1 PUSH1 0x1F NOT DUP4 AND SWAP6 DUP5 PUSH1 0x0 MSTORE PUSH1 0x20 PUSH1 0x0 KECCAK256 SWAP3 PUSH1 0x0 SWAP1 JUMPDEST DUP9 DUP3 LT PUSH2 0x17B2 JUMPI POP POP DUP4 PUSH1 0x1 SWAP6 SWAP7 SWAP8 LT PUSH2 0x1799 JUMPI JUMPDEST POP POP POP DUP2 SHL ADD SWAP1 SSTORE JUMP JUMPDEST ADD MLOAD PUSH1 0x0 NOT PUSH1 0xF8 DUP5 PUSH1 0x3 SHL AND SHR NOT AND SWAP1 SSTORE CODESIZE DUP1 DUP1 PUSH2 0x178F JUMP JUMPDEST DUP1 PUSH1 0x1 DUP6 SWAP7 DUP3 SWAP5 SWAP7 DUP7 ADD MLOAD DUP2 SSTORE ADD SWAP6 ADD SWAP4 ADD SWAP1 PUSH2 0x177A JUMP JUMPDEST PUSH1 0x3 SLOAD DUP2 LT ISZERO PUSH2 0x1689 JUMPI PUSH1 0xA SWAP1 PUSH1 0x3 PUSH1 0x0 MSTORE MUL PUSH32 0xC2575A0E9E593C00F959F8C92F12DB2869C3395A3B0502D05E2516446F71F85B ADD SWAP1 PUSH1 0x0 SWAP1 JUMP JUMPDEST PUSH1 0x0 NOT DUP2 EQ PUSH2 0x467 JUMPI PUSH1 0x1 ADD SWAP1 JUMP JUMPDEST PUSH1 0x40 MLOAD SWAP1 PUSH2 0x1821 DUP3 PUSH2 0x12CF JUMP JUMPDEST DUP2 PUSH2 0x120 PUSH1 0x0 SWAP2 DUP3 DUP2 MSTORE DUP3 PUSH1 0x20 DUP3 ADD MSTORE DUP3 PUSH1 0x40 DUP3 ADD MSTORE DUP3 PUSH1 0x60 DUP3 ADD MSTORE PUSH1 0x60 PUSH1 0x80 DUP3 ADD MSTORE PUSH1 0x60 PUSH1 0xA0 DUP3 ADD MSTORE PUSH1 0x60 PUSH1 0xC0 DUP3 ADD MSTORE DUP3 PUSH1 0xE0 DUP3 ADD MSTORE PUSH1 0x60 PUSH2 0x100 DUP3 ADD MSTORE ADD MSTORE JUMP JUMPDEST DUP1 MLOAD DUP3 LT ISZERO PUSH2 0x1689 JUMPI PUSH1 0x20 SWAP2 PUSH1 0x5 SHL ADD ADD SWAP1 JUMP JUMPDEST SWAP1 PUSH1 0x40 MLOAD PUSH2 0x1885 DUP2 PUSH2 0x12CF JUMP JUMPDEST DUP3 SLOAD DUP2 MSTORE PUSH1 0x1 DUP4 ADD SLOAD PUSH1 0xFF AND PUSH1 0x20 DUP3 ADD MSTORE PUSH1 0x2 DUP4 ADD SLOAD PUSH1 0x40 DUP3 ADD MSTORE PUSH1 0x3 DUP4 ADD SLOAD PUSH1 0x1 PUSH1 0x1 PUSH1 0xA0 SHL SUB AND PUSH1 0x60 DUP3 ADD MSTORE SWAP2 DUP3 SWAP1 PUSH2 0x120 SWAP1 PUSH1 0x9 SWAP1 PUSH2 0x18C9 PUSH1 0x4 DUP3 ADD PUSH2 0x14DA JUMP JUMPDEST PUSH1 0x80 DUP6 ADD MSTORE PUSH2 0x18DA PUSH1 0x5 DUP3 ADD PUSH2 0x14DA JUMP JUMPDEST PUSH1 0xA0 DUP6 ADD MSTORE PUSH2 0x18EB PUSH1 0x6 DUP3 ADD PUSH2 0x14DA JUMP JUMPDEST PUSH1 0xC0 DUP6 ADD MSTORE PUSH1 0x7 DUP2 ADD SLOAD PUSH1 0xE0 DUP6 ADD MSTORE PUSH2 0x1906 PUSH1 0x8 DUP3 ADD PUSH2 0x15CB JUMP JUMPDEST PUSH2 0x100 DUP6 ADD MSTORE ADD SLOAD SWAP2 ADD MSTORE JUMP JUMPDEST DUP2 DUP2 MUL SWAP3 SWAP2 DUP2 ISZERO SWAP2 DUP5 DIV EQ OR ISZERO PUSH2 0x467 JUMPI JUMP JUMPDEST SWAP2 SWAP1 DUP3 SUB SWAP2 DUP3 GT PUSH2 0x467 JUMPI JUMP JUMPDEST RETURNDATASIZE ISZERO PUSH2 0x195E JUMPI RETURNDATASIZE SWAP1 PUSH2 0x1944 DUP3 PUSH2 0x130C JUMP JUMPDEST SWAP2 PUSH2 0x1952 PUSH1 0x40 MLOAD SWAP4 DUP5 PUSH2 0x12EB JUMP JUMPDEST DUP3 MSTORE RETURNDATASIZE PUSH1 0x0 PUSH1 0x20 DUP5 ADD RETURNDATACOPY JUMP JUMPDEST PUSH1 0x60 SWAP1 JUMP JUMPDEST ISZERO PUSH2 0x196A JUMPI JUMP JUMPDEST PUSH1 0x40 MLOAD PUSH3 0x461BCD PUSH1 0xE5 SHL DUP2 MSTORE PUSH1 0x20 PUSH1 0x4 DUP3 ADD MSTORE PUSH1 0x22 PUSH1 0x24 DUP3 ADD MSTORE PUSH32 0x466565207061796D656E7420746F20616C62756D206F776E6572206661696C65 PUSH1 0x44 DUP3 ADD MSTORE PUSH2 0x3217 PUSH1 0xF1 SHL PUSH1 0x64 DUP3 ADD MSTORE PUSH1 0x84 SWAP1 REVERT JUMPDEST ISZERO PUSH2 0x19C1 JUMPI JUMP JUMPDEST PUSH1 0x40 MLOAD PUSH3 0x461BCD PUSH1 0xE5 SHL DUP2 MSTORE PUSH1 0x20 PUSH1 0x4 DUP3 ADD MSTORE PUSH1 0x22 PUSH1 0x24 DUP3 ADD MSTORE PUSH32 0x466565207061796D656E7420746F207472796265206F776E6572206661696C65 PUSH1 0x44 DUP3 ADD MSTORE PUSH2 0x3217 PUSH1 0xF1 SHL PUSH1 0x64 DUP3 ADD MSTORE PUSH1 0x84 SWAP1 REVERT JUMPDEST DUP1 SLOAD PUSH1 0x1 PUSH1 0x40 SHL DUP2 LT ISZERO PUSH2 0x434 JUMPI PUSH2 0x1A2E SWAP2 PUSH1 0x1 DUP3 ADD DUP2 SSTORE PUSH2 0x1671 JUMP JUMPDEST PUSH1 0x1 DUP1 PUSH1 0xA0 SWAP5 SWAP4 SWAP5 SHL SUB DUP1 DUP5 SLOAD SWAP3 PUSH1 0x3 SHL SWAP4 AND DUP4 SHL SWAP3 SHL NOT AND OR SWAP1 SSTORE JUMP JUMPDEST ISZERO PUSH2 0x1A53 JUMPI JUMP JUMPDEST PUSH1 0x40 MLOAD PUSH3 0x461BCD PUSH1 0xE5 SHL DUP2 MSTORE PUSH1 0x20 PUSH1 0x4 DUP3 ADD MSTORE PUSH1 0x33 PUSH1 0x24 DUP3 ADD MSTORE PUSH32 0x4F6E6C792074686F73652077686F2068617665206A6F696E6564207468652061 PUSH1 0x44 DUP3 ADD MSTORE PUSH19 0x36313AB69039B2B2903A34329030B6313AB697 PUSH1 0x69 SHL PUSH1 0x64 DUP3 ADD MSTORE PUSH1 0x84 SWAP1 REVERT JUMPDEST PUSH1 0x40 MLOAD SWAP1 PUSH2 0x1AC1 DUP3 PUSH2 0x12B4 JUMP JUMPDEST PUSH1 0x0 PUSH1 0x60 DUP4 DUP3 DUP2 MSTORE DUP2 PUSH1 0x20 DUP3 ADD MSTORE DUP2 PUSH1 0x40 DUP3 ADD MSTORE ADD MSTORE JUMP JUMPDEST SWAP1 PUSH1 0x40 MLOAD PUSH2 0x1AE6 DUP2 PUSH2 0x12B4 JUMP JUMPDEST PUSH1 0x60 DUP2 SWAP4 DUP1 SLOAD DUP4 MSTORE PUSH2 0x1AFA PUSH1 0x1 DUP3 ADD PUSH2 0x14DA JUMP JUMPDEST PUSH1 0x20 DUP5 ADD MSTORE PUSH2 0x1B0B PUSH1 0x2 DUP3 ADD PUSH2 0x14DA JUMP JUMPDEST PUSH1 0x40 DUP5 ADD MSTORE PUSH1 0x3 ADD SLOAD PUSH1 0x1 PUSH1 0x1 PUSH1 0xA0 SHL SUB AND SWAP2 ADD MSTORE JUMP JUMPDEST SWAP1 PUSH1 0x1 PUSH1 0x40 SHL DUP2 GT PUSH2 0x434 JUMPI DUP2 SLOAD SWAP1 DUP1 DUP4 SSTORE DUP2 DUP2 LT PUSH2 0x1B40 JUMPI POP POP POP JUMP JUMPDEST PUSH2 0x151C SWAP3 PUSH1 0x0 MSTORE PUSH1 0x20 PUSH1 0x0 KECCAK256 SWAP2 DUP3 ADD SWAP2 ADD PUSH2 0x169F JUMP JUMPDEST SWAP1 DUP1 DUP3 EQ PUSH2 0x1C30 JUMPI PUSH2 0x1B68 DUP2 SLOAD PUSH2 0x14A0 JUMP JUMPDEST SWAP1 PUSH1 0x1 PUSH1 0x1 PUSH1 0x40 SHL SUB DUP3 GT PUSH2 0x434 JUMPI PUSH2 0x1B8B DUP3 PUSH2 0x1B85 DUP6 SLOAD PUSH2 0x14A0 JUMP JUMPDEST DUP6 PUSH2 0x16B6 JUMP JUMPDEST PUSH1 0x0 SWAP1 PUSH1 0x1F DUP4 GT PUSH1 0x1 EQ PUSH2 0x1BC6 JUMPI PUSH2 0x1756 SWAP3 SWAP2 PUSH1 0x0 SWAP2 DUP4 PUSH2 0x1BBB JUMPI POP POP DUP2 PUSH1 0x1 SHL SWAP2 PUSH1 0x0 NOT SWAP1 PUSH1 0x3 SHL SHR NOT AND OR SWAP1 JUMP JUMPDEST ADD SLOAD SWAP1 POP CODESIZE DUP1 PUSH2 0x1741 JUMP JUMPDEST DUP2 MSTORE PUSH1 0x20 DUP1 DUP3 KECCAK256 DUP5 DUP4 MSTORE DUP2 DUP4 KECCAK256 SWAP3 SWAP2 PUSH1 0x1F NOT DUP6 AND SWAP1 DUP4 SWAP1 JUMPDEST DUP3 DUP3 LT PUSH2 0x1C17 JUMPI POP POP SWAP1 DUP5 PUSH1 0x1 SWAP6 SWAP5 SWAP4 SWAP3 LT PUSH2 0x1BFE JUMPI POP POP POP DUP2 SHL ADD SWAP1 SSTORE JUMP JUMPDEST ADD SLOAD PUSH1 0x0 NOT PUSH1 0xF8 DUP5 PUSH1 0x3 SHL AND SHR NOT AND SWAP1 SSTORE CODESIZE DUP1 DUP1 PUSH2 0x178F JUMP JUMPDEST DUP5 SWAP6 DUP2 SWAP3 SWAP6 DUP6 ADD SLOAD DUP2 SSTORE PUSH1 0x1 DUP1 SWAP2 ADD SWAP7 ADD SWAP5 ADD SWAP1 PUSH2 0x1BDE JUMP JUMPDEST POP POP JUMP JUMPDEST DUP2 DUP2 EQ PUSH2 0x1C30 JUMPI DUP2 SLOAD SWAP2 PUSH1 0x1 PUSH1 0x1 PUSH1 0x40 SHL SUB DUP4 GT PUSH2 0x434 JUMPI PUSH2 0x1C56 DUP4 DUP4 PUSH2 0x1B22 JUMP JUMPDEST PUSH1 0x0 MSTORE PUSH1 0x20 PUSH1 0x0 KECCAK256 SWAP1 PUSH1 0x0 MSTORE PUSH1 0x20 PUSH1 0x0 KECCAK256 DUP2 SLOAD SWAP2 PUSH1 0x0 SWAP3 JUMPDEST DUP5 DUP5 LT PUSH2 0x1C7C JUMPI POP POP POP POP POP JUMP JUMPDEST PUSH1 0x1 SWAP2 DUP3 ADD DUP1 SLOAD PUSH1 0x1 PUSH1 0x1 PUSH1 0xA0 SHL SUB SWAP1 SWAP3 AND DUP5 DUP7 ADD SSTORE SWAP4 SWAP1 SWAP2 ADD SWAP3 SWAP1 PUSH2 0x1C6E JUMP INVALID LOG2 PUSH5 0x6970667358 0x22 SLT KECCAK256 0xCA SWAP5 PUSH6 0xFF995FA6668B 0xAD 0x22 SSTORE 0xEF 0xE 0xCE 0xA6 0xCA TIMESTAMP 0xE8 DUP2 REVERT DUP15 PUSH13 0x54A5B5860660F1CB6164736F6C PUSH4 0x43000818 STOP CALLER "
        },
        "methodIdentifiers": {
          "addImageToAlbum(uint256,string,string)": "6f4e27f0",
          "createAlbum(string,string,address[],string,uint8,uint256)": "f3187157",
          "download(uint256)": "87b9c24d",
          "getAlbum(uint256)": "d6e465c9",
          "getAlbums()": "5c517234",
          "getImageInAlbum(uint256,uint256)": "ced038d1",
          "getImages()": "11498334",
          "getImagesInAlbum(uint256)": "b027a787",
          "getListofParticipants(uint256)": "3b8f313b",
          "joinAlbum(uint256)": "8d84d7fc",
          "owner()": "8da5cb5b",
          "totalNoOfAlbumsCreated()": "6d49f8cc",
          "upload(string)": "42ce1488"
        }
      }
    }
  }
}