{
  "contracts/Trybe.sol": {
    "Trybe": {
      "abi": [
        {
          "inputs": [
            {
              "internalType": "uint256",
              "name": "_fee",
              "type": "uint256"
            }
          ],
          "stateMutability": "nonpayable",
          "type": "constructor"
        },
        {
          "anonymous": false,
          "inputs": [
            {
              "indexed": true,
              "internalType": "address",
              "name": "creator",
              "type": "address"
            },
            {
              "indexed": false,
              "internalType": "string",
              "name": "nameOfAlbum",
              "type": "string"
            },
            {
              "indexed": false,
              "internalType": "uint256",
              "name": "albumId",
              "type": "uint256"
            }
          ],
          "name": "AlbumCreated",
          "type": "event"
        },
        {
          "anonymous": false,
          "inputs": [
            {
              "indexed": false,
              "internalType": "uint256",
              "name": "albumId",
              "type": "uint256"
            },
            {
              "indexed": false,
              "internalType": "uint256",
              "name": "imageId",
              "type": "uint256"
            }
          ],
          "name": "ImageAdded",
          "type": "event"
        },
        {
          "anonymous": false,
          "inputs": [
            {
              "indexed": true,
              "internalType": "address",
              "name": "participant",
              "type": "address"
            },
            {
              "indexed": false,
              "internalType": "uint256",
              "name": "timeJoined",
              "type": "uint256"
            }
          ],
          "name": "JoinedAlbum",
          "type": "event"
        },
        {
          "anonymous": false,
          "inputs": [
            {
              "indexed": true,
              "internalType": "address",
              "name": "user",
              "type": "address"
            },
            {
              "indexed": false,
              "internalType": "string",
              "name": "url",
              "type": "string"
            },
            {
              "indexed": false,
              "internalType": "uint256",
              "name": "createdAt",
              "type": "uint256"
            }
          ],
          "name": "Upload",
          "type": "event"
        },
        {
          "inputs": [
            {
              "internalType": "uint256",
              "name": "albumId",
              "type": "uint256"
            },
            {
              "internalType": "string",
              "name": "_url",
              "type": "string"
            },
            {
              "internalType": "string",
              "name": "_description",
              "type": "string"
            }
          ],
          "name": "addImageToAlbum",
          "outputs": [],
          "stateMutability": "nonpayable",
          "type": "function"
        },
        {
          "inputs": [
            {
              "internalType": "uint256",
              "name": "",
              "type": "uint256"
            }
          ],
          "name": "album",
          "outputs": [
            {
              "internalType": "uint256",
              "name": "id",
              "type": "uint256"
            },
            {
              "internalType": "uint8",
              "name": "visibility",
              "type": "uint8"
            },
            {
              "internalType": "uint256",
              "name": "fee",
              "type": "uint256"
            },
            {
              "internalType": "address",
              "name": "owner",
              "type": "address"
            },
            {
              "internalType": "string",
              "name": "name",
              "type": "string"
            },
            {
              "internalType": "string",
              "name": "description",
              "type": "string"
            },
            {
              "internalType": "string",
              "name": "profileImage",
              "type": "string"
            },
            {
              "internalType": "uint256",
              "name": "created",
              "type": "uint256"
            },
            {
              "internalType": "uint256",
              "name": "totalNoOfImages",
              "type": "uint256"
            }
          ],
          "stateMutability": "view",
          "type": "function"
        },
        {
          "inputs": [
            {
              "internalType": "string",
              "name": "_name",
              "type": "string"
            },
            {
              "internalType": "string",
              "name": "description",
              "type": "string"
            },
            {
              "internalType": "address[]",
              "name": "_participants",
              "type": "address[]"
            },
            {
              "internalType": "string",
              "name": "_image",
              "type": "string"
            },
            {
              "internalType": "uint8",
              "name": "visibility",
              "type": "uint8"
            },
            {
              "internalType": "uint256",
              "name": "_fee",
              "type": "uint256"
            }
          ],
          "name": "createAlbum",
          "outputs": [],
          "stateMutability": "nonpayable",
          "type": "function"
        },
        {
          "inputs": [
            {
              "internalType": "uint256",
              "name": "albumId",
              "type": "uint256"
            }
          ],
          "name": "getAlbum",
          "outputs": [
            {
              "components": [
                {
                  "internalType": "uint256",
                  "name": "id",
                  "type": "uint256"
                },
                {
                  "internalType": "uint8",
                  "name": "visibility",
                  "type": "uint8"
                },
                {
                  "internalType": "uint256",
                  "name": "fee",
                  "type": "uint256"
                },
                {
                  "internalType": "address",
                  "name": "owner",
                  "type": "address"
                },
                {
                  "internalType": "string",
                  "name": "name",
                  "type": "string"
                },
                {
                  "internalType": "string",
                  "name": "description",
                  "type": "string"
                },
                {
                  "internalType": "string",
                  "name": "profileImage",
                  "type": "string"
                },
                {
                  "internalType": "uint256",
                  "name": "created",
                  "type": "uint256"
                },
                {
                  "internalType": "address[]",
                  "name": "participants",
                  "type": "address[]"
                },
                {
                  "internalType": "uint256",
                  "name": "totalNoOfImages",
                  "type": "uint256"
                }
              ],
              "internalType": "struct Trybe.Album",
              "name": "",
              "type": "tuple"
            }
          ],
          "stateMutability": "view",
          "type": "function"
        },
        {
          "inputs": [
            {
              "internalType": "uint256",
              "name": "albumId",
              "type": "uint256"
            },
            {
              "internalType": "uint256",
              "name": "imageId",
              "type": "uint256"
            }
          ],
          "name": "getImageInPrivateAlbum",
          "outputs": [
            {
              "components": [
                {
                  "internalType": "uint256",
                  "name": "id",
                  "type": "uint256"
                },
                {
                  "internalType": "string",
                  "name": "url",
                  "type": "string"
                },
                {
                  "internalType": "string",
                  "name": "description",
                  "type": "string"
                },
                {
                  "internalType": "address",
                  "name": "owner",
                  "type": "address"
                }
              ],
              "internalType": "struct Trybe.Image",
              "name": "",
              "type": "tuple"
            }
          ],
          "stateMutability": "payable",
          "type": "function"
        },
        {
          "inputs": [
            {
              "internalType": "uint256",
              "name": "albumId",
              "type": "uint256"
            },
            {
              "internalType": "uint256",
              "name": "imageId",
              "type": "uint256"
            }
          ],
          "name": "getImageInPublicAlbum",
          "outputs": [
            {
              "components": [
                {
                  "internalType": "uint256",
                  "name": "id",
                  "type": "uint256"
                },
                {
                  "internalType": "string",
                  "name": "url",
                  "type": "string"
                },
                {
                  "internalType": "string",
                  "name": "description",
                  "type": "string"
                },
                {
                  "internalType": "address",
                  "name": "owner",
                  "type": "address"
                }
              ],
              "internalType": "struct Trybe.Image",
              "name": "",
              "type": "tuple"
            }
          ],
          "stateMutability": "view",
          "type": "function"
        },
        {
          "inputs": [],
          "name": "getImages",
          "outputs": [
            {
              "internalType": "string[]",
              "name": "",
              "type": "string[]"
            }
          ],
          "stateMutability": "view",
          "type": "function"
        },
        {
          "inputs": [
            {
              "internalType": "uint256",
              "name": "albumId",
              "type": "uint256"
            }
          ],
          "name": "getImagesInPrivateAlbum",
          "outputs": [
            {
              "components": [
                {
                  "internalType": "uint256",
                  "name": "id",
                  "type": "uint256"
                },
                {
                  "internalType": "string",
                  "name": "url",
                  "type": "string"
                },
                {
                  "internalType": "string",
                  "name": "description",
                  "type": "string"
                },
                {
                  "internalType": "address",
                  "name": "owner",
                  "type": "address"
                }
              ],
              "internalType": "struct Trybe.Image[]",
              "name": "",
              "type": "tuple[]"
            }
          ],
          "stateMutability": "payable",
          "type": "function"
        },
        {
          "inputs": [
            {
              "internalType": "uint256",
              "name": "albumId",
              "type": "uint256"
            }
          ],
          "name": "getImagesInPublicAlbum",
          "outputs": [
            {
              "components": [
                {
                  "internalType": "uint256",
                  "name": "id",
                  "type": "uint256"
                },
                {
                  "internalType": "string",
                  "name": "url",
                  "type": "string"
                },
                {
                  "internalType": "string",
                  "name": "description",
                  "type": "string"
                },
                {
                  "internalType": "address",
                  "name": "owner",
                  "type": "address"
                }
              ],
              "internalType": "struct Trybe.Image[]",
              "name": "",
              "type": "tuple[]"
            }
          ],
          "stateMutability": "view",
          "type": "function"
        },
        {
          "inputs": [
            {
              "internalType": "uint256",
              "name": "albumId",
              "type": "uint256"
            }
          ],
          "name": "getListofParticipants",
          "outputs": [
            {
              "internalType": "address[]",
              "name": "",
              "type": "address[]"
            }
          ],
          "stateMutability": "view",
          "type": "function"
        },
        {
          "inputs": [
            {
              "internalType": "address",
              "name": "",
              "type": "address"
            },
            {
              "internalType": "uint256",
              "name": "",
              "type": "uint256"
            }
          ],
          "name": "images",
          "outputs": [
            {
              "internalType": "string",
              "name": "",
              "type": "string"
            }
          ],
          "stateMutability": "view",
          "type": "function"
        },
        {
          "inputs": [
            {
              "internalType": "uint256",
              "name": "",
              "type": "uint256"
            },
            {
              "internalType": "uint256",
              "name": "",
              "type": "uint256"
            }
          ],
          "name": "imagesInAlbum",
          "outputs": [
            {
              "internalType": "uint256",
              "name": "id",
              "type": "uint256"
            },
            {
              "internalType": "string",
              "name": "url",
              "type": "string"
            },
            {
              "internalType": "string",
              "name": "description",
              "type": "string"
            },
            {
              "internalType": "address",
              "name": "owner",
              "type": "address"
            }
          ],
          "stateMutability": "view",
          "type": "function"
        },
        {
          "inputs": [
            {
              "internalType": "uint256",
              "name": "albumId",
              "type": "uint256"
            }
          ],
          "name": "joinAlbum",
          "outputs": [],
          "stateMutability": "payable",
          "type": "function"
        },
        {
          "inputs": [],
          "name": "owner",
          "outputs": [
            {
              "internalType": "address",
              "name": "",
              "type": "address"
            }
          ],
          "stateMutability": "view",
          "type": "function"
        },
        {
          "inputs": [],
          "name": "totalNoOfAlbumsCreated",
          "outputs": [
            {
              "internalType": "uint256",
              "name": "",
              "type": "uint256"
            }
          ],
          "stateMutability": "view",
          "type": "function"
        },
        {
          "inputs": [
            {
              "internalType": "string",
              "name": "url",
              "type": "string"
            }
          ],
          "name": "upload",
          "outputs": [],
          "stateMutability": "nonpayable",
          "type": "function"
        }
      ],
      "evm": {
        "bytecode": {
          "linkReferences": {},
          "object": "60803461006657601f611a3d38819003918201601f19168301916001600160401b0383118484101761006b578084926020946040528339810103126100665751600080546001600160a01b031916331781556001556002556040516119bb90816100828239f35b600080fd5b634e487b7160e01b600052604160045260246000fdfe6080604052600436101561001257600080fd5b60003560e01c80630fd59adb1461108b5780631149833414610fb45780632ac3379214610f465780633b8f313b14610ee557806340368f8514610e6457806342ce148814610d5557806351927c6d14610ccc57806356148eb114610bff57806357d47a9d14610aec5780636d49f8cc14610ace5780636f4e27f0146108d25780638d84d7fc1461079d5780638da5cb5b14610774578063d6e465c91461059c578063e89e6a00146104cc5763f3187157146100cc57600080fd5b346104a75760c03660031901126104a7576004356001600160401b0381116104a7576100fc903690600401611456565b6024356001600160401b0381116104a75761011b903690600401611456565b90604435916001600160401b0383116104a757366023840112156104a75782600401356101478161149d565b936101556040519586611322565b8185526024602086019260051b820101903682116104a757602401915b8183106104ac575050506064356001600160401b0381116104a75761019b903690600401611456565b916084359260ff841684036104a7576101b533151561181d565b81511561046d578251156103ec576101ce6001546116bf565b9081600155855193600185018095116103c8576102036101ed8661149d565b956101fb6040519788611322565b80875261149d565b602086019290601f190136843760005b8851811015610244576001906001600160a01b03610231828c6116ce565b511661023d828a6116ce565b5201610213565b50908591600160ff898b61025a339151886116ce565b528760005260036020526040600020978855828801828216831982541617905516146000146103de57670de0b6b3a76400008060a435029060a43582041460a4351517156103c8576102e3926102da915b60028801556003870180546001600160a01b031916331790556102d18860048901611880565b60058701611880565b60068501611880565b426007840155600883019051916001600160401b0383116103b257600160401b83116103b2578154838355808410610394575b5090600052602060002060005b8381106103775760006009860155600154604080518181527fd3cc7c228a9442b3e32b7fb9e7ac4298594eeb118c36cbfbaf73feef8394627d916103699082018a611197565b9260208201528033930390a2005b82516001600160a01b031681830155602090920191600101610323565b6103ac90836000528460206000209182019101611869565b85610316565b634e487b7160e01b600052604160045260246000fd5b634e487b7160e01b600052601160045260246000fd5b6102da6102e39260006102ab565b60405162461bcd60e51b815260206004820152604d60248201527f446573637269626520796f757220616c62756d20746f206c657420746865207760448201527f6f726c64206b6e6f7720686f7720796f752066656c74207768656e20796f752060648201526c31b932b0ba32b2103a3434b99760991b608482015260a490fd5b60405162461bcd60e51b8152602060048201526012602482015271283632b0b9b29030b2321030903730b6b29760711b6044820152606490fd5b600080fd5b82356001600160a01b03811681036104a757815260209283019201610172565b346104a75760203660031901126104a7576004356000526003602052604060002080549060ff6001820154169060028101549261058c60018060a01b036003840154169161057e61051f60048601611343565b61057061052e60058801611343565b9161053b60068901611343565b94600960078a0154990154976040519b8c9b610120938d5260208d015260408c015260608b01528060808b0152890190611197565b9087820360a0890152611197565b9085820360c0870152611197565b9160e08401526101008301520390f35b346104a75760203660031901126104a75760043560006101206040516105c181611306565b82815282602082015282604082015282606082015260606080820152606060a0820152606060c08201528260e08201526060610100820152015280151580610768575b61060d906114b4565b6000526003602052604060002060096040519161062983611306565b80548352600181015460ff1660208401526002810154604084015260038101546001600160a01b0316606084015261066360048201611343565b608084015261067460058201611343565b60a084015261068560068201611343565b60c0840152600781015460e08401526106a06008820161172b565b61010084015201546101208201526040518091602082528051602083015260ff60208201511660408301526040810151606083015260018060a01b036060820151166080830152608081015161012061075d61070a610140938460a0880152610160870190611197565b61073d61072960a087015192601f1993848a83030160c08b0152611197565b60c0870151838983030160e08a0152611197565b9060e08601516101008801526101008601519087830301848801526113e8565b920151908301520390f35b50600154811115610604565b346104a75760003660031901126104a7576000546040516001600160a01b039091168152602090f35b60203660031901126104a757600435801515806108c6575b6107be906114b4565b60005260036020526040600020600181019060ff8254161580156108b8575b6107e6906117d1565b600881018054600160401b8110156103b25761080b816001938460ff94018155611283565b949080549560031b848060a01b03968733831b921b191617905554161461085b575b6040514281527f59a4dadce245655ce4c5ea128f142c4034b1206deff52ff605866cd86433de8160203392a2005b6000808080936108b19561089e83808080606461087b600254349061154c565b049686600361088a8a3461155f565b920154165af161089861156c565b5061159c565b8254165af16108ab61156c565b506115f3565b808061082d565b5060028101543410156107dd565b506001548111156107b5565b346104a75760603660031901126104a7576004356001600160401b036024358181116104a757610906903690600401611456565b906044359081116104a75761091f903690600401611456565b82151580610ac2575b610931906114b4565b8260005260039060209260038452604060002091600983019361095485546116bf565b938486556000916008600092018054925b838110610a8b575b5050505015610a27579160037f5138483d623eef75882d5ca6ed33e44c7ecafe842f3311844eabf67a297ce76c9694926109f8604097956109ee8951936109b3856112eb565b8685528885019081528a850192835260608501963388528a60005260058a528b6000209060005289528a600020945185555160018501611880565b5160028301611880565b019060018060a01b039051166bffffffffffffffffffffffff60a01b82541617905554908351928352820152a1005b60405162461bcd60e51b815260048101869052603660248201527f4f6e6c792074686f73652077686f2068617665206a6f696e656420746865206160448201527536313ab69031b0b71030b2321030b71034b6b0b3b29760511b6064820152608490fd5b610a958183611283565b905490841b1c6001600160a01b03163314610ab257600101610965565b505050505060018780808061096d565b50600154831115610928565b346104a75760003660031901126104a7576020600154604051908152f35b610af536611425565b90610afe61164a565b5080151580610bf3575b610b11906114b4565b81151580610bd8575b610b2390611785565b806000526003602052610b8e600080808060408120600160ff81830154161480610bca575b610b5190611500565b600361089e838080806064610b69600254349061154c565b0496610b75883461155f565b9601546001600160a01b03969087165af161089861156c565b6000526005602052604060002090600052602052610bc6610bb260406000206116e2565b6040519182916020835260208301906111d7565b0390f35b506002810154341015610b48565b50600081815260036020526040902060090154821115610b1a565b50600154811115610b08565b346104a7576020806003193601126104a7576004359081151580610cc0575b610c27906114b4565b81600052600360205260096040600020610c4860ff600183015416156117d1565b015490610c548261166f565b9260015b83811115610c6e5760405180610bc6878261121f565b816000526005835260406000208160005283526040600020906000198101918183116103c857610cbb92610ca4610cb5926116e2565b610cae828a6116ce565b52876116ce565b506116bf565b610c58565b50600154821115610c1e565b346104a757610cda36611425565b90600052600560205260406000209060005260205260406000208054610d0260018301611343565b91610d4b610d1260028301611343565b91600360018060a01b039101541691610d3d6040519586958652608060208701526080860190611197565b908482036040860152611197565b9060608301520390f35b346104a75760203660031901126104a7576004356001600160401b0381116104a757610d85903690600401611456565b610d9033151561181d565b805115610e2b5733600052600460205260406000208054600160401b8110156103b257610dc291600182018155611283565b610e155781610dd091611880565b7f34647a087c36357c4b77d3d7b4bc2b55d01c3ef8726dc75a70652d96e1510cc3610e0660405192604084526040840190611197565b914260208201528033930390a2005b634e487b7160e01b600052600060045260246000fd5b60405162461bcd60e51b8152602060048201526011602482015270283632b0b9b29030b2321030903ab9361760791b6044820152606490fd5b346104a757610e7236611425565b90610e7b61164a565b5080151580610ed9575b610e8e906114b4565b81151580610ebe575b610ea090611785565b806000526003602052610b8e60ff60016040600020015416156117d1565b50600081815260036020526040902060090154821115610e97565b50600154811115610e85565b346104a75760203660031901126104a75760043580151580610f3a575b610f0b906114b4565b6000526003602052610bc6610f26600860406000200161172b565b6040519182916020835260208301906113e8565b50600154811115610f02565b346104a75760403660031901126104a7576004356001600160a01b038116908190036104a75760243590600052600460205260406000209081548110156104a757610f9091611283565b610e1557610fa0610bc691611343565b604051918291602083526020830190611197565b346104a75760003660031901126104a75733600052602060048152604060002090815491610fe18361149d565b92610fef6040519485611322565b8084528284018092600052836000206000915b8383106110695750505050604051918083019381845251809452604083019360408160051b85010192916000955b82871061103d5785850386f35b909192938280611059600193603f198a82030186528851611197565b9601920196019592919092611030565b600186819261107a859a999a611343565b815201920192019190959495611002565b6020806003193601126104a757600435908115158061118b575b6110ae906114b4565b81600052600360205260096040600020600160ff8183015416148061117d575b6110d790611500565b61111c600080808060646110ee600254349061154c565b04600361089e83808080611102873461155f565b958d01546001600160a01b03969087165af161089861156c565b0154906111288261166f565b9260015b838111156111425760405180610bc6878261121f565b816000526005835260406000208160005283526040600020906000198101918183116103c85761117892610ca4610cb5926116e2565b61112c565b5060028101543410156110ce565b506001548211156110a5565b919082519283825260005b8481106111c3575050826000602080949584010152601f8019910116010190565b6020818301810151848301820152016111a2565b9081518152606061120c6111fa6020850151608060208601526080850190611197565b60408501518482036040860152611197565b928101516001600160a01b031691015290565b6020808201906020835283518092526040830192602060408460051b8301019501936000915b8483106112555750505050505090565b9091929394958480611273600193603f198682030187528a516111d7565b9801930193019194939290611245565b805482101561129b5760005260206000200190600090565b634e487b7160e01b600052603260045260246000fd5b90600182811c921680156112e1575b60208310146112cb57565b634e487b7160e01b600052602260045260246000fd5b91607f16916112c0565b608081019081106001600160401b038211176103b257604052565b61014081019081106001600160401b038211176103b257604052565b90601f801991011681019081106001600160401b038211176103b257604052565b90604051918260008254611356816112b1565b908184526020946001916001811690816000146113c65750600114611387575b50505061138592500383611322565b565b600090815285812095935091905b8183106113ae5750506113859350820101388080611376565b85548884018501529485019487945091830191611395565b9250505061138594925060ff191682840152151560051b820101388080611376565b90815180825260208080930193019160005b828110611408575050505090565b83516001600160a01b0316855293810193928101926001016113fa565b60409060031901126104a7576004359060243590565b6001600160401b0381116103b257601f01601f191660200190565b81601f820112156104a75780359061146d8261143b565b9261147b6040519485611322565b828452602083830101116104a757816000926020809301838601378301015290565b6001600160401b0381116103b25760051b60200190565b156114bb57565b60405162461bcd60e51b815260206004820152601960248201527f5468697320616c62756d20646f6573206e6f74206578697374000000000000006044820152606490fd5b1561150757565b60405162461bcd60e51b815260206004820152601760248201527f546869732069732061207075626c696320616c62756d2e0000000000000000006044820152606490fd5b818102929181159184041417156103c857565b919082039182116103c857565b3d15611597573d9061157d8261143b565b9161158b6040519384611322565b82523d6000602084013e565b606090565b156115a357565b60405162461bcd60e51b815260206004820152602260248201527f466565207061796d656e7420746f20616c62756d206f776e6572206661696c65604482015261321760f11b6064820152608490fd5b156115fa57565b60405162461bcd60e51b815260206004820152602260248201527f466565207061796d656e7420746f207472796265206f776e6572206661696c65604482015261321760f11b6064820152608490fd5b60405190611657826112eb565b60006060838281528160208201528160408201520152565b906116798261149d565b6116866040519182611322565b8281528092611697601f199161149d565b019060005b8281106116a857505050565b6020906116b361164a565b8282850101520161169c565b60001981146103c85760010190565b805182101561129b5760209160051b010190565b906040516116ef816112eb565b606081938054835261170360018201611343565b602084015261171460028201611343565b6040840152600301546001600160a01b0316910152565b90604051918281549182825260209260208301916000526020600020936000905b8282106117625750505061138592500383611322565b85546001600160a01b03168452600195860195889550938101939091019061174c565b1561178c57565b60405162461bcd60e51b815260206004820152601960248201527f5468697320696d61676520646f6573206e6f74206578697374000000000000006044820152606490fd5b156117d857565b60405162461bcd60e51b815260206004820152601860248201527f546869732069732061207072697661746520616c62756d2e00000000000000006044820152606490fd5b1561182457565b60405162461bcd60e51b815260206004820152601a60248201527f4e6f207a65726f2061646472657373657320616c6c6f7765642e0000000000006044820152606490fd5b818110611874575050565b60008155600101611869565b91909182516001600160401b0381116103b25761189d82546112b1565b601f8111611948575b50602080601f83116001146118e35750819293946000926118d8575b50508160011b916000199060031b1c1916179055565b0151905038806118c2565b90601f19831695846000526020600020926000905b88821061193057505083600195969710611917575b505050811b019055565b015160001960f88460031b161c1916905538808061190d565b806001859682949686015181550195019301906118f8565b61197590836000526020600020601f840160051c8101916020851061197b575b601f0160051c0190611869565b386118a6565b909150819061196856fea26469706673582212209cb685f9d74f61c3780095be333670244a56e5d4c260fa526d68b34df6f4dcfd64736f6c63430008180033",
          "opcodes": "PUSH1 0x80 CALLVALUE PUSH2 0x66 JUMPI PUSH1 0x1F PUSH2 0x1A3D CODESIZE DUP2 SWAP1 SUB SWAP2 DUP3 ADD PUSH1 0x1F NOT AND DUP4 ADD SWAP2 PUSH1 0x1 PUSH1 0x1 PUSH1 0x40 SHL SUB DUP4 GT DUP5 DUP5 LT OR PUSH2 0x6B JUMPI DUP1 DUP5 SWAP3 PUSH1 0x20 SWAP5 PUSH1 0x40 MSTORE DUP4 CODECOPY DUP2 ADD SUB SLT PUSH2 0x66 JUMPI MLOAD PUSH1 0x0 DUP1 SLOAD PUSH1 0x1 PUSH1 0x1 PUSH1 0xA0 SHL SUB NOT AND CALLER OR DUP2 SSTORE PUSH1 0x1 SSTORE PUSH1 0x2 SSTORE PUSH1 0x40 MLOAD PUSH2 0x19BB SWAP1 DUP2 PUSH2 0x82 DUP3 CODECOPY RETURN JUMPDEST PUSH1 0x0 DUP1 REVERT JUMPDEST PUSH4 0x4E487B71 PUSH1 0xE0 SHL PUSH1 0x0 MSTORE PUSH1 0x41 PUSH1 0x4 MSTORE PUSH1 0x24 PUSH1 0x0 REVERT INVALID PUSH1 0x80 PUSH1 0x40 MSTORE PUSH1 0x4 CALLDATASIZE LT ISZERO PUSH2 0x12 JUMPI PUSH1 0x0 DUP1 REVERT JUMPDEST PUSH1 0x0 CALLDATALOAD PUSH1 0xE0 SHR DUP1 PUSH4 0xFD59ADB EQ PUSH2 0x108B JUMPI DUP1 PUSH4 0x11498334 EQ PUSH2 0xFB4 JUMPI DUP1 PUSH4 0x2AC33792 EQ PUSH2 0xF46 JUMPI DUP1 PUSH4 0x3B8F313B EQ PUSH2 0xEE5 JUMPI DUP1 PUSH4 0x40368F85 EQ PUSH2 0xE64 JUMPI DUP1 PUSH4 0x42CE1488 EQ PUSH2 0xD55 JUMPI DUP1 PUSH4 0x51927C6D EQ PUSH2 0xCCC JUMPI DUP1 PUSH4 0x56148EB1 EQ PUSH2 0xBFF JUMPI DUP1 PUSH4 0x57D47A9D EQ PUSH2 0xAEC JUMPI DUP1 PUSH4 0x6D49F8CC EQ PUSH2 0xACE JUMPI DUP1 PUSH4 0x6F4E27F0 EQ PUSH2 0x8D2 JUMPI DUP1 PUSH4 0x8D84D7FC EQ PUSH2 0x79D JUMPI DUP1 PUSH4 0x8DA5CB5B EQ PUSH2 0x774 JUMPI DUP1 PUSH4 0xD6E465C9 EQ PUSH2 0x59C JUMPI DUP1 PUSH4 0xE89E6A00 EQ PUSH2 0x4CC JUMPI PUSH4 0xF3187157 EQ PUSH2 0xCC JUMPI PUSH1 0x0 DUP1 REVERT JUMPDEST CALLVALUE PUSH2 0x4A7 JUMPI PUSH1 0xC0 CALLDATASIZE PUSH1 0x3 NOT ADD SLT PUSH2 0x4A7 JUMPI PUSH1 0x4 CALLDATALOAD PUSH1 0x1 PUSH1 0x1 PUSH1 0x40 SHL SUB DUP2 GT PUSH2 0x4A7 JUMPI PUSH2 0xFC SWAP1 CALLDATASIZE SWAP1 PUSH1 0x4 ADD PUSH2 0x1456 JUMP JUMPDEST PUSH1 0x24 CALLDATALOAD PUSH1 0x1 PUSH1 0x1 PUSH1 0x40 SHL SUB DUP2 GT PUSH2 0x4A7 JUMPI PUSH2 0x11B SWAP1 CALLDATASIZE SWAP1 PUSH1 0x4 ADD PUSH2 0x1456 JUMP JUMPDEST SWAP1 PUSH1 0x44 CALLDATALOAD SWAP2 PUSH1 0x1 PUSH1 0x1 PUSH1 0x40 SHL SUB DUP4 GT PUSH2 0x4A7 JUMPI CALLDATASIZE PUSH1 0x23 DUP5 ADD SLT ISZERO PUSH2 0x4A7 JUMPI DUP3 PUSH1 0x4 ADD CALLDATALOAD PUSH2 0x147 DUP2 PUSH2 0x149D JUMP JUMPDEST SWAP4 PUSH2 0x155 PUSH1 0x40 MLOAD SWAP6 DUP7 PUSH2 0x1322 JUMP JUMPDEST DUP2 DUP6 MSTORE PUSH1 0x24 PUSH1 0x20 DUP7 ADD SWAP3 PUSH1 0x5 SHL DUP3 ADD ADD SWAP1 CALLDATASIZE DUP3 GT PUSH2 0x4A7 JUMPI PUSH1 0x24 ADD SWAP2 JUMPDEST DUP2 DUP4 LT PUSH2 0x4AC JUMPI POP POP POP PUSH1 0x64 CALLDATALOAD PUSH1 0x1 PUSH1 0x1 PUSH1 0x40 SHL SUB DUP2 GT PUSH2 0x4A7 JUMPI PUSH2 0x19B SWAP1 CALLDATASIZE SWAP1 PUSH1 0x4 ADD PUSH2 0x1456 JUMP JUMPDEST SWAP2 PUSH1 0x84 CALLDATALOAD SWAP3 PUSH1 0xFF DUP5 AND DUP5 SUB PUSH2 0x4A7 JUMPI PUSH2 0x1B5 CALLER ISZERO ISZERO PUSH2 0x181D JUMP JUMPDEST DUP2 MLOAD ISZERO PUSH2 0x46D JUMPI DUP3 MLOAD ISZERO PUSH2 0x3EC JUMPI PUSH2 0x1CE PUSH1 0x1 SLOAD PUSH2 0x16BF JUMP JUMPDEST SWAP1 DUP2 PUSH1 0x1 SSTORE DUP6 MLOAD SWAP4 PUSH1 0x1 DUP6 ADD DUP1 SWAP6 GT PUSH2 0x3C8 JUMPI PUSH2 0x203 PUSH2 0x1ED DUP7 PUSH2 0x149D JUMP JUMPDEST SWAP6 PUSH2 0x1FB PUSH1 0x40 MLOAD SWAP8 DUP9 PUSH2 0x1322 JUMP JUMPDEST DUP1 DUP8 MSTORE PUSH2 0x149D JUMP JUMPDEST PUSH1 0x20 DUP7 ADD SWAP3 SWAP1 PUSH1 0x1F NOT ADD CALLDATASIZE DUP5 CALLDATACOPY PUSH1 0x0 JUMPDEST DUP9 MLOAD DUP2 LT ISZERO PUSH2 0x244 JUMPI PUSH1 0x1 SWAP1 PUSH1 0x1 PUSH1 0x1 PUSH1 0xA0 SHL SUB PUSH2 0x231 DUP3 DUP13 PUSH2 0x16CE JUMP JUMPDEST MLOAD AND PUSH2 0x23D DUP3 DUP11 PUSH2 0x16CE JUMP JUMPDEST MSTORE ADD PUSH2 0x213 JUMP JUMPDEST POP SWAP1 DUP6 SWAP2 PUSH1 0x1 PUSH1 0xFF DUP10 DUP12 PUSH2 0x25A CALLER SWAP2 MLOAD DUP9 PUSH2 0x16CE JUMP JUMPDEST MSTORE DUP8 PUSH1 0x0 MSTORE PUSH1 0x3 PUSH1 0x20 MSTORE PUSH1 0x40 PUSH1 0x0 KECCAK256 SWAP8 DUP9 SSTORE DUP3 DUP9 ADD DUP3 DUP3 AND DUP4 NOT DUP3 SLOAD AND OR SWAP1 SSTORE AND EQ PUSH1 0x0 EQ PUSH2 0x3DE JUMPI PUSH8 0xDE0B6B3A7640000 DUP1 PUSH1 0xA4 CALLDATALOAD MUL SWAP1 PUSH1 0xA4 CALLDATALOAD DUP3 DIV EQ PUSH1 0xA4 CALLDATALOAD ISZERO OR ISZERO PUSH2 0x3C8 JUMPI PUSH2 0x2E3 SWAP3 PUSH2 0x2DA SWAP2 JUMPDEST PUSH1 0x2 DUP9 ADD SSTORE PUSH1 0x3 DUP8 ADD DUP1 SLOAD PUSH1 0x1 PUSH1 0x1 PUSH1 0xA0 SHL SUB NOT AND CALLER OR SWAP1 SSTORE PUSH2 0x2D1 DUP9 PUSH1 0x4 DUP10 ADD PUSH2 0x1880 JUMP JUMPDEST PUSH1 0x5 DUP8 ADD PUSH2 0x1880 JUMP JUMPDEST PUSH1 0x6 DUP6 ADD PUSH2 0x1880 JUMP JUMPDEST TIMESTAMP PUSH1 0x7 DUP5 ADD SSTORE PUSH1 0x8 DUP4 ADD SWAP1 MLOAD SWAP2 PUSH1 0x1 PUSH1 0x1 PUSH1 0x40 SHL SUB DUP4 GT PUSH2 0x3B2 JUMPI PUSH1 0x1 PUSH1 0x40 SHL DUP4 GT PUSH2 0x3B2 JUMPI DUP2 SLOAD DUP4 DUP4 SSTORE DUP1 DUP5 LT PUSH2 0x394 JUMPI JUMPDEST POP SWAP1 PUSH1 0x0 MSTORE PUSH1 0x20 PUSH1 0x0 KECCAK256 PUSH1 0x0 JUMPDEST DUP4 DUP2 LT PUSH2 0x377 JUMPI PUSH1 0x0 PUSH1 0x9 DUP7 ADD SSTORE PUSH1 0x1 SLOAD PUSH1 0x40 DUP1 MLOAD DUP2 DUP2 MSTORE PUSH32 0xD3CC7C228A9442B3E32B7FB9E7AC4298594EEB118C36CBFBAF73FEEF8394627D SWAP2 PUSH2 0x369 SWAP1 DUP3 ADD DUP11 PUSH2 0x1197 JUMP JUMPDEST SWAP3 PUSH1 0x20 DUP3 ADD MSTORE DUP1 CALLER SWAP4 SUB SWAP1 LOG2 STOP JUMPDEST DUP3 MLOAD PUSH1 0x1 PUSH1 0x1 PUSH1 0xA0 SHL SUB AND DUP2 DUP4 ADD SSTORE PUSH1 0x20 SWAP1 SWAP3 ADD SWAP2 PUSH1 0x1 ADD PUSH2 0x323 JUMP JUMPDEST PUSH2 0x3AC SWAP1 DUP4 PUSH1 0x0 MSTORE DUP5 PUSH1 0x20 PUSH1 0x0 KECCAK256 SWAP2 DUP3 ADD SWAP2 ADD PUSH2 0x1869 JUMP JUMPDEST DUP6 PUSH2 0x316 JUMP JUMPDEST PUSH4 0x4E487B71 PUSH1 0xE0 SHL PUSH1 0x0 MSTORE PUSH1 0x41 PUSH1 0x4 MSTORE PUSH1 0x24 PUSH1 0x0 REVERT JUMPDEST PUSH4 0x4E487B71 PUSH1 0xE0 SHL PUSH1 0x0 MSTORE PUSH1 0x11 PUSH1 0x4 MSTORE PUSH1 0x24 PUSH1 0x0 REVERT JUMPDEST PUSH2 0x2DA PUSH2 0x2E3 SWAP3 PUSH1 0x0 PUSH2 0x2AB JUMP JUMPDEST PUSH1 0x40 MLOAD PUSH3 0x461BCD PUSH1 0xE5 SHL DUP2 MSTORE PUSH1 0x20 PUSH1 0x4 DUP3 ADD MSTORE PUSH1 0x4D PUSH1 0x24 DUP3 ADD MSTORE PUSH32 0x446573637269626520796F757220616C62756D20746F206C6574207468652077 PUSH1 0x44 DUP3 ADD MSTORE PUSH32 0x6F726C64206B6E6F7720686F7720796F752066656C74207768656E20796F7520 PUSH1 0x64 DUP3 ADD MSTORE PUSH13 0x31B932B0BA32B2103A3434B997 PUSH1 0x99 SHL PUSH1 0x84 DUP3 ADD MSTORE PUSH1 0xA4 SWAP1 REVERT JUMPDEST PUSH1 0x40 MLOAD PUSH3 0x461BCD PUSH1 0xE5 SHL DUP2 MSTORE PUSH1 0x20 PUSH1 0x4 DUP3 ADD MSTORE PUSH1 0x12 PUSH1 0x24 DUP3 ADD MSTORE PUSH18 0x283632B0B9B29030B2321030903730B6B297 PUSH1 0x71 SHL PUSH1 0x44 DUP3 ADD MSTORE PUSH1 0x64 SWAP1 REVERT JUMPDEST PUSH1 0x0 DUP1 REVERT JUMPDEST DUP3 CALLDATALOAD PUSH1 0x1 PUSH1 0x1 PUSH1 0xA0 SHL SUB DUP2 AND DUP2 SUB PUSH2 0x4A7 JUMPI DUP2 MSTORE PUSH1 0x20 SWAP3 DUP4 ADD SWAP3 ADD PUSH2 0x172 JUMP JUMPDEST CALLVALUE PUSH2 0x4A7 JUMPI PUSH1 0x20 CALLDATASIZE PUSH1 0x3 NOT ADD SLT PUSH2 0x4A7 JUMPI PUSH1 0x4 CALLDATALOAD PUSH1 0x0 MSTORE PUSH1 0x3 PUSH1 0x20 MSTORE PUSH1 0x40 PUSH1 0x0 KECCAK256 DUP1 SLOAD SWAP1 PUSH1 0xFF PUSH1 0x1 DUP3 ADD SLOAD AND SWAP1 PUSH1 0x2 DUP2 ADD SLOAD SWAP3 PUSH2 0x58C PUSH1 0x1 DUP1 PUSH1 0xA0 SHL SUB PUSH1 0x3 DUP5 ADD SLOAD AND SWAP2 PUSH2 0x57E PUSH2 0x51F PUSH1 0x4 DUP7 ADD PUSH2 0x1343 JUMP JUMPDEST PUSH2 0x570 PUSH2 0x52E PUSH1 0x5 DUP9 ADD PUSH2 0x1343 JUMP JUMPDEST SWAP2 PUSH2 0x53B PUSH1 0x6 DUP10 ADD PUSH2 0x1343 JUMP JUMPDEST SWAP5 PUSH1 0x9 PUSH1 0x7 DUP11 ADD SLOAD SWAP10 ADD SLOAD SWAP8 PUSH1 0x40 MLOAD SWAP12 DUP13 SWAP12 PUSH2 0x120 SWAP4 DUP14 MSTORE PUSH1 0x20 DUP14 ADD MSTORE PUSH1 0x40 DUP13 ADD MSTORE PUSH1 0x60 DUP12 ADD MSTORE DUP1 PUSH1 0x80 DUP12 ADD MSTORE DUP10 ADD SWAP1 PUSH2 0x1197 JUMP JUMPDEST SWAP1 DUP8 DUP3 SUB PUSH1 0xA0 DUP10 ADD MSTORE PUSH2 0x1197 JUMP JUMPDEST SWAP1 DUP6 DUP3 SUB PUSH1 0xC0 DUP8 ADD MSTORE PUSH2 0x1197 JUMP JUMPDEST SWAP2 PUSH1 0xE0 DUP5 ADD MSTORE PUSH2 0x100 DUP4 ADD MSTORE SUB SWAP1 RETURN JUMPDEST CALLVALUE PUSH2 0x4A7 JUMPI PUSH1 0x20 CALLDATASIZE PUSH1 0x3 NOT ADD SLT PUSH2 0x4A7 JUMPI PUSH1 0x4 CALLDATALOAD PUSH1 0x0 PUSH2 0x120 PUSH1 0x40 MLOAD PUSH2 0x5C1 DUP2 PUSH2 0x1306 JUMP JUMPDEST DUP3 DUP2 MSTORE DUP3 PUSH1 0x20 DUP3 ADD MSTORE DUP3 PUSH1 0x40 DUP3 ADD MSTORE DUP3 PUSH1 0x60 DUP3 ADD MSTORE PUSH1 0x60 PUSH1 0x80 DUP3 ADD MSTORE PUSH1 0x60 PUSH1 0xA0 DUP3 ADD MSTORE PUSH1 0x60 PUSH1 0xC0 DUP3 ADD MSTORE DUP3 PUSH1 0xE0 DUP3 ADD MSTORE PUSH1 0x60 PUSH2 0x100 DUP3 ADD MSTORE ADD MSTORE DUP1 ISZERO ISZERO DUP1 PUSH2 0x768 JUMPI JUMPDEST PUSH2 0x60D SWAP1 PUSH2 0x14B4 JUMP JUMPDEST PUSH1 0x0 MSTORE PUSH1 0x3 PUSH1 0x20 MSTORE PUSH1 0x40 PUSH1 0x0 KECCAK256 PUSH1 0x9 PUSH1 0x40 MLOAD SWAP2 PUSH2 0x629 DUP4 PUSH2 0x1306 JUMP JUMPDEST DUP1 SLOAD DUP4 MSTORE PUSH1 0x1 DUP2 ADD SLOAD PUSH1 0xFF AND PUSH1 0x20 DUP5 ADD MSTORE PUSH1 0x2 DUP2 ADD SLOAD PUSH1 0x40 DUP5 ADD MSTORE PUSH1 0x3 DUP2 ADD SLOAD PUSH1 0x1 PUSH1 0x1 PUSH1 0xA0 SHL SUB AND PUSH1 0x60 DUP5 ADD MSTORE PUSH2 0x663 PUSH1 0x4 DUP3 ADD PUSH2 0x1343 JUMP JUMPDEST PUSH1 0x80 DUP5 ADD MSTORE PUSH2 0x674 PUSH1 0x5 DUP3 ADD PUSH2 0x1343 JUMP JUMPDEST PUSH1 0xA0 DUP5 ADD MSTORE PUSH2 0x685 PUSH1 0x6 DUP3 ADD PUSH2 0x1343 JUMP JUMPDEST PUSH1 0xC0 DUP5 ADD MSTORE PUSH1 0x7 DUP2 ADD SLOAD PUSH1 0xE0 DUP5 ADD MSTORE PUSH2 0x6A0 PUSH1 0x8 DUP3 ADD PUSH2 0x172B JUMP JUMPDEST PUSH2 0x100 DUP5 ADD MSTORE ADD SLOAD PUSH2 0x120 DUP3 ADD MSTORE PUSH1 0x40 MLOAD DUP1 SWAP2 PUSH1 0x20 DUP3 MSTORE DUP1 MLOAD PUSH1 0x20 DUP4 ADD MSTORE PUSH1 0xFF PUSH1 0x20 DUP3 ADD MLOAD AND PUSH1 0x40 DUP4 ADD MSTORE PUSH1 0x40 DUP2 ADD MLOAD PUSH1 0x60 DUP4 ADD MSTORE PUSH1 0x1 DUP1 PUSH1 0xA0 SHL SUB PUSH1 0x60 DUP3 ADD MLOAD AND PUSH1 0x80 DUP4 ADD MSTORE PUSH1 0x80 DUP2 ADD MLOAD PUSH2 0x120 PUSH2 0x75D PUSH2 0x70A PUSH2 0x140 SWAP4 DUP5 PUSH1 0xA0 DUP9 ADD MSTORE PUSH2 0x160 DUP8 ADD SWAP1 PUSH2 0x1197 JUMP JUMPDEST PUSH2 0x73D PUSH2 0x729 PUSH1 0xA0 DUP8 ADD MLOAD SWAP3 PUSH1 0x1F NOT SWAP4 DUP5 DUP11 DUP4 SUB ADD PUSH1 0xC0 DUP12 ADD MSTORE PUSH2 0x1197 JUMP JUMPDEST PUSH1 0xC0 DUP8 ADD MLOAD DUP4 DUP10 DUP4 SUB ADD PUSH1 0xE0 DUP11 ADD MSTORE PUSH2 0x1197 JUMP JUMPDEST SWAP1 PUSH1 0xE0 DUP7 ADD MLOAD PUSH2 0x100 DUP9 ADD MSTORE PUSH2 0x100 DUP7 ADD MLOAD SWAP1 DUP8 DUP4 SUB ADD DUP5 DUP9 ADD MSTORE PUSH2 0x13E8 JUMP JUMPDEST SWAP3 ADD MLOAD SWAP1 DUP4 ADD MSTORE SUB SWAP1 RETURN JUMPDEST POP PUSH1 0x1 SLOAD DUP2 GT ISZERO PUSH2 0x604 JUMP JUMPDEST CALLVALUE PUSH2 0x4A7 JUMPI PUSH1 0x0 CALLDATASIZE PUSH1 0x3 NOT ADD SLT PUSH2 0x4A7 JUMPI PUSH1 0x0 SLOAD PUSH1 0x40 MLOAD PUSH1 0x1 PUSH1 0x1 PUSH1 0xA0 SHL SUB SWAP1 SWAP2 AND DUP2 MSTORE PUSH1 0x20 SWAP1 RETURN JUMPDEST PUSH1 0x20 CALLDATASIZE PUSH1 0x3 NOT ADD SLT PUSH2 0x4A7 JUMPI PUSH1 0x4 CALLDATALOAD DUP1 ISZERO ISZERO DUP1 PUSH2 0x8C6 JUMPI JUMPDEST PUSH2 0x7BE SWAP1 PUSH2 0x14B4 JUMP JUMPDEST PUSH1 0x0 MSTORE PUSH1 0x3 PUSH1 0x20 MSTORE PUSH1 0x40 PUSH1 0x0 KECCAK256 PUSH1 0x1 DUP2 ADD SWAP1 PUSH1 0xFF DUP3 SLOAD AND ISZERO DUP1 ISZERO PUSH2 0x8B8 JUMPI JUMPDEST PUSH2 0x7E6 SWAP1 PUSH2 0x17D1 JUMP JUMPDEST PUSH1 0x8 DUP2 ADD DUP1 SLOAD PUSH1 0x1 PUSH1 0x40 SHL DUP2 LT ISZERO PUSH2 0x3B2 JUMPI PUSH2 0x80B DUP2 PUSH1 0x1 SWAP4 DUP5 PUSH1 0xFF SWAP5 ADD DUP2 SSTORE PUSH2 0x1283 JUMP JUMPDEST SWAP5 SWAP1 DUP1 SLOAD SWAP6 PUSH1 0x3 SHL DUP5 DUP1 PUSH1 0xA0 SHL SUB SWAP7 DUP8 CALLER DUP4 SHL SWAP3 SHL NOT AND OR SWAP1 SSTORE SLOAD AND EQ PUSH2 0x85B JUMPI JUMPDEST PUSH1 0x40 MLOAD TIMESTAMP DUP2 MSTORE PUSH32 0x59A4DADCE245655CE4C5EA128F142C4034B1206DEFF52FF605866CD86433DE81 PUSH1 0x20 CALLER SWAP3 LOG2 STOP JUMPDEST PUSH1 0x0 DUP1 DUP1 DUP1 SWAP4 PUSH2 0x8B1 SWAP6 PUSH2 0x89E DUP4 DUP1 DUP1 DUP1 PUSH1 0x64 PUSH2 0x87B PUSH1 0x2 SLOAD CALLVALUE SWAP1 PUSH2 0x154C JUMP JUMPDEST DIV SWAP7 DUP7 PUSH1 0x3 PUSH2 0x88A DUP11 CALLVALUE PUSH2 0x155F JUMP JUMPDEST SWAP3 ADD SLOAD AND GAS CALL PUSH2 0x898 PUSH2 0x156C JUMP JUMPDEST POP PUSH2 0x159C JUMP JUMPDEST DUP3 SLOAD AND GAS CALL PUSH2 0x8AB PUSH2 0x156C JUMP JUMPDEST POP PUSH2 0x15F3 JUMP JUMPDEST DUP1 DUP1 PUSH2 0x82D JUMP JUMPDEST POP PUSH1 0x2 DUP2 ADD SLOAD CALLVALUE LT ISZERO PUSH2 0x7DD JUMP JUMPDEST POP PUSH1 0x1 SLOAD DUP2 GT ISZERO PUSH2 0x7B5 JUMP JUMPDEST CALLVALUE PUSH2 0x4A7 JUMPI PUSH1 0x60 CALLDATASIZE PUSH1 0x3 NOT ADD SLT PUSH2 0x4A7 JUMPI PUSH1 0x4 CALLDATALOAD PUSH1 0x1 PUSH1 0x1 PUSH1 0x40 SHL SUB PUSH1 0x24 CALLDATALOAD DUP2 DUP2 GT PUSH2 0x4A7 JUMPI PUSH2 0x906 SWAP1 CALLDATASIZE SWAP1 PUSH1 0x4 ADD PUSH2 0x1456 JUMP JUMPDEST SWAP1 PUSH1 0x44 CALLDATALOAD SWAP1 DUP2 GT PUSH2 0x4A7 JUMPI PUSH2 0x91F SWAP1 CALLDATASIZE SWAP1 PUSH1 0x4 ADD PUSH2 0x1456 JUMP JUMPDEST DUP3 ISZERO ISZERO DUP1 PUSH2 0xAC2 JUMPI JUMPDEST PUSH2 0x931 SWAP1 PUSH2 0x14B4 JUMP JUMPDEST DUP3 PUSH1 0x0 MSTORE PUSH1 0x3 SWAP1 PUSH1 0x20 SWAP3 PUSH1 0x3 DUP5 MSTORE PUSH1 0x40 PUSH1 0x0 KECCAK256 SWAP2 PUSH1 0x9 DUP4 ADD SWAP4 PUSH2 0x954 DUP6 SLOAD PUSH2 0x16BF JUMP JUMPDEST SWAP4 DUP5 DUP7 SSTORE PUSH1 0x0 SWAP2 PUSH1 0x8 PUSH1 0x0 SWAP3 ADD DUP1 SLOAD SWAP3 JUMPDEST DUP4 DUP2 LT PUSH2 0xA8B JUMPI JUMPDEST POP POP POP POP ISZERO PUSH2 0xA27 JUMPI SWAP2 PUSH1 0x3 PUSH32 0x5138483D623EEF75882D5CA6ED33E44C7ECAFE842F3311844EABF67A297CE76C SWAP7 SWAP5 SWAP3 PUSH2 0x9F8 PUSH1 0x40 SWAP8 SWAP6 PUSH2 0x9EE DUP10 MLOAD SWAP4 PUSH2 0x9B3 DUP6 PUSH2 0x12EB JUMP JUMPDEST DUP7 DUP6 MSTORE DUP9 DUP6 ADD SWAP1 DUP2 MSTORE DUP11 DUP6 ADD SWAP3 DUP4 MSTORE PUSH1 0x60 DUP6 ADD SWAP7 CALLER DUP9 MSTORE DUP11 PUSH1 0x0 MSTORE PUSH1 0x5 DUP11 MSTORE DUP12 PUSH1 0x0 KECCAK256 SWAP1 PUSH1 0x0 MSTORE DUP10 MSTORE DUP11 PUSH1 0x0 KECCAK256 SWAP5 MLOAD DUP6 SSTORE MLOAD PUSH1 0x1 DUP6 ADD PUSH2 0x1880 JUMP JUMPDEST MLOAD PUSH1 0x2 DUP4 ADD PUSH2 0x1880 JUMP JUMPDEST ADD SWAP1 PUSH1 0x1 DUP1 PUSH1 0xA0 SHL SUB SWAP1 MLOAD AND PUSH12 0xFFFFFFFFFFFFFFFFFFFFFFFF PUSH1 0xA0 SHL DUP3 SLOAD AND OR SWAP1 SSTORE SLOAD SWAP1 DUP4 MLOAD SWAP3 DUP4 MSTORE DUP3 ADD MSTORE LOG1 STOP JUMPDEST PUSH1 0x40 MLOAD PUSH3 0x461BCD PUSH1 0xE5 SHL DUP2 MSTORE PUSH1 0x4 DUP2 ADD DUP7 SWAP1 MSTORE PUSH1 0x36 PUSH1 0x24 DUP3 ADD MSTORE PUSH32 0x4F6E6C792074686F73652077686F2068617665206A6F696E6564207468652061 PUSH1 0x44 DUP3 ADD MSTORE PUSH22 0x36313AB69031B0B71030B2321030B71034B6B0B3B297 PUSH1 0x51 SHL PUSH1 0x64 DUP3 ADD MSTORE PUSH1 0x84 SWAP1 REVERT JUMPDEST PUSH2 0xA95 DUP2 DUP4 PUSH2 0x1283 JUMP JUMPDEST SWAP1 SLOAD SWAP1 DUP5 SHL SHR PUSH1 0x1 PUSH1 0x1 PUSH1 0xA0 SHL SUB AND CALLER EQ PUSH2 0xAB2 JUMPI PUSH1 0x1 ADD PUSH2 0x965 JUMP JUMPDEST POP POP POP POP POP PUSH1 0x1 DUP8 DUP1 DUP1 DUP1 PUSH2 0x96D JUMP JUMPDEST POP PUSH1 0x1 SLOAD DUP4 GT ISZERO PUSH2 0x928 JUMP JUMPDEST CALLVALUE PUSH2 0x4A7 JUMPI PUSH1 0x0 CALLDATASIZE PUSH1 0x3 NOT ADD SLT PUSH2 0x4A7 JUMPI PUSH1 0x20 PUSH1 0x1 SLOAD PUSH1 0x40 MLOAD SWAP1 DUP2 MSTORE RETURN JUMPDEST PUSH2 0xAF5 CALLDATASIZE PUSH2 0x1425 JUMP JUMPDEST SWAP1 PUSH2 0xAFE PUSH2 0x164A JUMP JUMPDEST POP DUP1 ISZERO ISZERO DUP1 PUSH2 0xBF3 JUMPI JUMPDEST PUSH2 0xB11 SWAP1 PUSH2 0x14B4 JUMP JUMPDEST DUP2 ISZERO ISZERO DUP1 PUSH2 0xBD8 JUMPI JUMPDEST PUSH2 0xB23 SWAP1 PUSH2 0x1785 JUMP JUMPDEST DUP1 PUSH1 0x0 MSTORE PUSH1 0x3 PUSH1 0x20 MSTORE PUSH2 0xB8E PUSH1 0x0 DUP1 DUP1 DUP1 PUSH1 0x40 DUP2 KECCAK256 PUSH1 0x1 PUSH1 0xFF DUP2 DUP4 ADD SLOAD AND EQ DUP1 PUSH2 0xBCA JUMPI JUMPDEST PUSH2 0xB51 SWAP1 PUSH2 0x1500 JUMP JUMPDEST PUSH1 0x3 PUSH2 0x89E DUP4 DUP1 DUP1 DUP1 PUSH1 0x64 PUSH2 0xB69 PUSH1 0x2 SLOAD CALLVALUE SWAP1 PUSH2 0x154C JUMP JUMPDEST DIV SWAP7 PUSH2 0xB75 DUP9 CALLVALUE PUSH2 0x155F JUMP JUMPDEST SWAP7 ADD SLOAD PUSH1 0x1 PUSH1 0x1 PUSH1 0xA0 SHL SUB SWAP7 SWAP1 DUP8 AND GAS CALL PUSH2 0x898 PUSH2 0x156C JUMP JUMPDEST PUSH1 0x0 MSTORE PUSH1 0x5 PUSH1 0x20 MSTORE PUSH1 0x40 PUSH1 0x0 KECCAK256 SWAP1 PUSH1 0x0 MSTORE PUSH1 0x20 MSTORE PUSH2 0xBC6 PUSH2 0xBB2 PUSH1 0x40 PUSH1 0x0 KECCAK256 PUSH2 0x16E2 JUMP JUMPDEST PUSH1 0x40 MLOAD SWAP2 DUP3 SWAP2 PUSH1 0x20 DUP4 MSTORE PUSH1 0x20 DUP4 ADD SWAP1 PUSH2 0x11D7 JUMP JUMPDEST SUB SWAP1 RETURN JUMPDEST POP PUSH1 0x2 DUP2 ADD SLOAD CALLVALUE LT ISZERO PUSH2 0xB48 JUMP JUMPDEST POP PUSH1 0x0 DUP2 DUP2 MSTORE PUSH1 0x3 PUSH1 0x20 MSTORE PUSH1 0x40 SWAP1 KECCAK256 PUSH1 0x9 ADD SLOAD DUP3 GT ISZERO PUSH2 0xB1A JUMP JUMPDEST POP PUSH1 0x1 SLOAD DUP2 GT ISZERO PUSH2 0xB08 JUMP JUMPDEST CALLVALUE PUSH2 0x4A7 JUMPI PUSH1 0x20 DUP1 PUSH1 0x3 NOT CALLDATASIZE ADD SLT PUSH2 0x4A7 JUMPI PUSH1 0x4 CALLDATALOAD SWAP1 DUP2 ISZERO ISZERO DUP1 PUSH2 0xCC0 JUMPI JUMPDEST PUSH2 0xC27 SWAP1 PUSH2 0x14B4 JUMP JUMPDEST DUP2 PUSH1 0x0 MSTORE PUSH1 0x3 PUSH1 0x20 MSTORE PUSH1 0x9 PUSH1 0x40 PUSH1 0x0 KECCAK256 PUSH2 0xC48 PUSH1 0xFF PUSH1 0x1 DUP4 ADD SLOAD AND ISZERO PUSH2 0x17D1 JUMP JUMPDEST ADD SLOAD SWAP1 PUSH2 0xC54 DUP3 PUSH2 0x166F JUMP JUMPDEST SWAP3 PUSH1 0x1 JUMPDEST DUP4 DUP2 GT ISZERO PUSH2 0xC6E JUMPI PUSH1 0x40 MLOAD DUP1 PUSH2 0xBC6 DUP8 DUP3 PUSH2 0x121F JUMP JUMPDEST DUP2 PUSH1 0x0 MSTORE PUSH1 0x5 DUP4 MSTORE PUSH1 0x40 PUSH1 0x0 KECCAK256 DUP2 PUSH1 0x0 MSTORE DUP4 MSTORE PUSH1 0x40 PUSH1 0x0 KECCAK256 SWAP1 PUSH1 0x0 NOT DUP2 ADD SWAP2 DUP2 DUP4 GT PUSH2 0x3C8 JUMPI PUSH2 0xCBB SWAP3 PUSH2 0xCA4 PUSH2 0xCB5 SWAP3 PUSH2 0x16E2 JUMP JUMPDEST PUSH2 0xCAE DUP3 DUP11 PUSH2 0x16CE JUMP JUMPDEST MSTORE DUP8 PUSH2 0x16CE JUMP JUMPDEST POP PUSH2 0x16BF JUMP JUMPDEST PUSH2 0xC58 JUMP JUMPDEST POP PUSH1 0x1 SLOAD DUP3 GT ISZERO PUSH2 0xC1E JUMP JUMPDEST CALLVALUE PUSH2 0x4A7 JUMPI PUSH2 0xCDA CALLDATASIZE PUSH2 0x1425 JUMP JUMPDEST SWAP1 PUSH1 0x0 MSTORE PUSH1 0x5 PUSH1 0x20 MSTORE PUSH1 0x40 PUSH1 0x0 KECCAK256 SWAP1 PUSH1 0x0 MSTORE PUSH1 0x20 MSTORE PUSH1 0x40 PUSH1 0x0 KECCAK256 DUP1 SLOAD PUSH2 0xD02 PUSH1 0x1 DUP4 ADD PUSH2 0x1343 JUMP JUMPDEST SWAP2 PUSH2 0xD4B PUSH2 0xD12 PUSH1 0x2 DUP4 ADD PUSH2 0x1343 JUMP JUMPDEST SWAP2 PUSH1 0x3 PUSH1 0x1 DUP1 PUSH1 0xA0 SHL SUB SWAP2 ADD SLOAD AND SWAP2 PUSH2 0xD3D PUSH1 0x40 MLOAD SWAP6 DUP7 SWAP6 DUP7 MSTORE PUSH1 0x80 PUSH1 0x20 DUP8 ADD MSTORE PUSH1 0x80 DUP7 ADD SWAP1 PUSH2 0x1197 JUMP JUMPDEST SWAP1 DUP5 DUP3 SUB PUSH1 0x40 DUP7 ADD MSTORE PUSH2 0x1197 JUMP JUMPDEST SWAP1 PUSH1 0x60 DUP4 ADD MSTORE SUB SWAP1 RETURN JUMPDEST CALLVALUE PUSH2 0x4A7 JUMPI PUSH1 0x20 CALLDATASIZE PUSH1 0x3 NOT ADD SLT PUSH2 0x4A7 JUMPI PUSH1 0x4 CALLDATALOAD PUSH1 0x1 PUSH1 0x1 PUSH1 0x40 SHL SUB DUP2 GT PUSH2 0x4A7 JUMPI PUSH2 0xD85 SWAP1 CALLDATASIZE SWAP1 PUSH1 0x4 ADD PUSH2 0x1456 JUMP JUMPDEST PUSH2 0xD90 CALLER ISZERO ISZERO PUSH2 0x181D JUMP JUMPDEST DUP1 MLOAD ISZERO PUSH2 0xE2B JUMPI CALLER PUSH1 0x0 MSTORE PUSH1 0x4 PUSH1 0x20 MSTORE PUSH1 0x40 PUSH1 0x0 KECCAK256 DUP1 SLOAD PUSH1 0x1 PUSH1 0x40 SHL DUP2 LT ISZERO PUSH2 0x3B2 JUMPI PUSH2 0xDC2 SWAP2 PUSH1 0x1 DUP3 ADD DUP2 SSTORE PUSH2 0x1283 JUMP JUMPDEST PUSH2 0xE15 JUMPI DUP2 PUSH2 0xDD0 SWAP2 PUSH2 0x1880 JUMP JUMPDEST PUSH32 0x34647A087C36357C4B77D3D7B4BC2B55D01C3EF8726DC75A70652D96E1510CC3 PUSH2 0xE06 PUSH1 0x40 MLOAD SWAP3 PUSH1 0x40 DUP5 MSTORE PUSH1 0x40 DUP5 ADD SWAP1 PUSH2 0x1197 JUMP JUMPDEST SWAP2 TIMESTAMP PUSH1 0x20 DUP3 ADD MSTORE DUP1 CALLER SWAP4 SUB SWAP1 LOG2 STOP JUMPDEST PUSH4 0x4E487B71 PUSH1 0xE0 SHL PUSH1 0x0 MSTORE PUSH1 0x0 PUSH1 0x4 MSTORE PUSH1 0x24 PUSH1 0x0 REVERT JUMPDEST PUSH1 0x40 MLOAD PUSH3 0x461BCD PUSH1 0xE5 SHL DUP2 MSTORE PUSH1 0x20 PUSH1 0x4 DUP3 ADD MSTORE PUSH1 0x11 PUSH1 0x24 DUP3 ADD MSTORE PUSH17 0x283632B0B9B29030B2321030903AB93617 PUSH1 0x79 SHL PUSH1 0x44 DUP3 ADD MSTORE PUSH1 0x64 SWAP1 REVERT JUMPDEST CALLVALUE PUSH2 0x4A7 JUMPI PUSH2 0xE72 CALLDATASIZE PUSH2 0x1425 JUMP JUMPDEST SWAP1 PUSH2 0xE7B PUSH2 0x164A JUMP JUMPDEST POP DUP1 ISZERO ISZERO DUP1 PUSH2 0xED9 JUMPI JUMPDEST PUSH2 0xE8E SWAP1 PUSH2 0x14B4 JUMP JUMPDEST DUP2 ISZERO ISZERO DUP1 PUSH2 0xEBE JUMPI JUMPDEST PUSH2 0xEA0 SWAP1 PUSH2 0x1785 JUMP JUMPDEST DUP1 PUSH1 0x0 MSTORE PUSH1 0x3 PUSH1 0x20 MSTORE PUSH2 0xB8E PUSH1 0xFF PUSH1 0x1 PUSH1 0x40 PUSH1 0x0 KECCAK256 ADD SLOAD AND ISZERO PUSH2 0x17D1 JUMP JUMPDEST POP PUSH1 0x0 DUP2 DUP2 MSTORE PUSH1 0x3 PUSH1 0x20 MSTORE PUSH1 0x40 SWAP1 KECCAK256 PUSH1 0x9 ADD SLOAD DUP3 GT ISZERO PUSH2 0xE97 JUMP JUMPDEST POP PUSH1 0x1 SLOAD DUP2 GT ISZERO PUSH2 0xE85 JUMP JUMPDEST CALLVALUE PUSH2 0x4A7 JUMPI PUSH1 0x20 CALLDATASIZE PUSH1 0x3 NOT ADD SLT PUSH2 0x4A7 JUMPI PUSH1 0x4 CALLDATALOAD DUP1 ISZERO ISZERO DUP1 PUSH2 0xF3A JUMPI JUMPDEST PUSH2 0xF0B SWAP1 PUSH2 0x14B4 JUMP JUMPDEST PUSH1 0x0 MSTORE PUSH1 0x3 PUSH1 0x20 MSTORE PUSH2 0xBC6 PUSH2 0xF26 PUSH1 0x8 PUSH1 0x40 PUSH1 0x0 KECCAK256 ADD PUSH2 0x172B JUMP JUMPDEST PUSH1 0x40 MLOAD SWAP2 DUP3 SWAP2 PUSH1 0x20 DUP4 MSTORE PUSH1 0x20 DUP4 ADD SWAP1 PUSH2 0x13E8 JUMP JUMPDEST POP PUSH1 0x1 SLOAD DUP2 GT ISZERO PUSH2 0xF02 JUMP JUMPDEST CALLVALUE PUSH2 0x4A7 JUMPI PUSH1 0x40 CALLDATASIZE PUSH1 0x3 NOT ADD SLT PUSH2 0x4A7 JUMPI PUSH1 0x4 CALLDATALOAD PUSH1 0x1 PUSH1 0x1 PUSH1 0xA0 SHL SUB DUP2 AND SWAP1 DUP2 SWAP1 SUB PUSH2 0x4A7 JUMPI PUSH1 0x24 CALLDATALOAD SWAP1 PUSH1 0x0 MSTORE PUSH1 0x4 PUSH1 0x20 MSTORE PUSH1 0x40 PUSH1 0x0 KECCAK256 SWAP1 DUP2 SLOAD DUP2 LT ISZERO PUSH2 0x4A7 JUMPI PUSH2 0xF90 SWAP2 PUSH2 0x1283 JUMP JUMPDEST PUSH2 0xE15 JUMPI PUSH2 0xFA0 PUSH2 0xBC6 SWAP2 PUSH2 0x1343 JUMP JUMPDEST PUSH1 0x40 MLOAD SWAP2 DUP3 SWAP2 PUSH1 0x20 DUP4 MSTORE PUSH1 0x20 DUP4 ADD SWAP1 PUSH2 0x1197 JUMP JUMPDEST CALLVALUE PUSH2 0x4A7 JUMPI PUSH1 0x0 CALLDATASIZE PUSH1 0x3 NOT ADD SLT PUSH2 0x4A7 JUMPI CALLER PUSH1 0x0 MSTORE PUSH1 0x20 PUSH1 0x4 DUP2 MSTORE PUSH1 0x40 PUSH1 0x0 KECCAK256 SWAP1 DUP2 SLOAD SWAP2 PUSH2 0xFE1 DUP4 PUSH2 0x149D JUMP JUMPDEST SWAP3 PUSH2 0xFEF PUSH1 0x40 MLOAD SWAP5 DUP6 PUSH2 0x1322 JUMP JUMPDEST DUP1 DUP5 MSTORE DUP3 DUP5 ADD DUP1 SWAP3 PUSH1 0x0 MSTORE DUP4 PUSH1 0x0 KECCAK256 PUSH1 0x0 SWAP2 JUMPDEST DUP4 DUP4 LT PUSH2 0x1069 JUMPI POP POP POP POP PUSH1 0x40 MLOAD SWAP2 DUP1 DUP4 ADD SWAP4 DUP2 DUP5 MSTORE MLOAD DUP1 SWAP5 MSTORE PUSH1 0x40 DUP4 ADD SWAP4 PUSH1 0x40 DUP2 PUSH1 0x5 SHL DUP6 ADD ADD SWAP3 SWAP2 PUSH1 0x0 SWAP6 JUMPDEST DUP3 DUP8 LT PUSH2 0x103D JUMPI DUP6 DUP6 SUB DUP7 RETURN JUMPDEST SWAP1 SWAP2 SWAP3 SWAP4 DUP3 DUP1 PUSH2 0x1059 PUSH1 0x1 SWAP4 PUSH1 0x3F NOT DUP11 DUP3 SUB ADD DUP7 MSTORE DUP9 MLOAD PUSH2 0x1197 JUMP JUMPDEST SWAP7 ADD SWAP3 ADD SWAP7 ADD SWAP6 SWAP3 SWAP2 SWAP1 SWAP3 PUSH2 0x1030 JUMP JUMPDEST PUSH1 0x1 DUP7 DUP2 SWAP3 PUSH2 0x107A DUP6 SWAP11 SWAP10 SWAP11 PUSH2 0x1343 JUMP JUMPDEST DUP2 MSTORE ADD SWAP3 ADD SWAP3 ADD SWAP2 SWAP1 SWAP6 SWAP5 SWAP6 PUSH2 0x1002 JUMP JUMPDEST PUSH1 0x20 DUP1 PUSH1 0x3 NOT CALLDATASIZE ADD SLT PUSH2 0x4A7 JUMPI PUSH1 0x4 CALLDATALOAD SWAP1 DUP2 ISZERO ISZERO DUP1 PUSH2 0x118B JUMPI JUMPDEST PUSH2 0x10AE SWAP1 PUSH2 0x14B4 JUMP JUMPDEST DUP2 PUSH1 0x0 MSTORE PUSH1 0x3 PUSH1 0x20 MSTORE PUSH1 0x9 PUSH1 0x40 PUSH1 0x0 KECCAK256 PUSH1 0x1 PUSH1 0xFF DUP2 DUP4 ADD SLOAD AND EQ DUP1 PUSH2 0x117D JUMPI JUMPDEST PUSH2 0x10D7 SWAP1 PUSH2 0x1500 JUMP JUMPDEST PUSH2 0x111C PUSH1 0x0 DUP1 DUP1 DUP1 PUSH1 0x64 PUSH2 0x10EE PUSH1 0x2 SLOAD CALLVALUE SWAP1 PUSH2 0x154C JUMP JUMPDEST DIV PUSH1 0x3 PUSH2 0x89E DUP4 DUP1 DUP1 DUP1 PUSH2 0x1102 DUP8 CALLVALUE PUSH2 0x155F JUMP JUMPDEST SWAP6 DUP14 ADD SLOAD PUSH1 0x1 PUSH1 0x1 PUSH1 0xA0 SHL SUB SWAP7 SWAP1 DUP8 AND GAS CALL PUSH2 0x898 PUSH2 0x156C JUMP JUMPDEST ADD SLOAD SWAP1 PUSH2 0x1128 DUP3 PUSH2 0x166F JUMP JUMPDEST SWAP3 PUSH1 0x1 JUMPDEST DUP4 DUP2 GT ISZERO PUSH2 0x1142 JUMPI PUSH1 0x40 MLOAD DUP1 PUSH2 0xBC6 DUP8 DUP3 PUSH2 0x121F JUMP JUMPDEST DUP2 PUSH1 0x0 MSTORE PUSH1 0x5 DUP4 MSTORE PUSH1 0x40 PUSH1 0x0 KECCAK256 DUP2 PUSH1 0x0 MSTORE DUP4 MSTORE PUSH1 0x40 PUSH1 0x0 KECCAK256 SWAP1 PUSH1 0x0 NOT DUP2 ADD SWAP2 DUP2 DUP4 GT PUSH2 0x3C8 JUMPI PUSH2 0x1178 SWAP3 PUSH2 0xCA4 PUSH2 0xCB5 SWAP3 PUSH2 0x16E2 JUMP JUMPDEST PUSH2 0x112C JUMP JUMPDEST POP PUSH1 0x2 DUP2 ADD SLOAD CALLVALUE LT ISZERO PUSH2 0x10CE JUMP JUMPDEST POP PUSH1 0x1 SLOAD DUP3 GT ISZERO PUSH2 0x10A5 JUMP JUMPDEST SWAP2 SWAP1 DUP3 MLOAD SWAP3 DUP4 DUP3 MSTORE PUSH1 0x0 JUMPDEST DUP5 DUP2 LT PUSH2 0x11C3 JUMPI POP POP DUP3 PUSH1 0x0 PUSH1 0x20 DUP1 SWAP5 SWAP6 DUP5 ADD ADD MSTORE PUSH1 0x1F DUP1 NOT SWAP2 ADD AND ADD ADD SWAP1 JUMP JUMPDEST PUSH1 0x20 DUP2 DUP4 ADD DUP2 ADD MLOAD DUP5 DUP4 ADD DUP3 ADD MSTORE ADD PUSH2 0x11A2 JUMP JUMPDEST SWAP1 DUP2 MLOAD DUP2 MSTORE PUSH1 0x60 PUSH2 0x120C PUSH2 0x11FA PUSH1 0x20 DUP6 ADD MLOAD PUSH1 0x80 PUSH1 0x20 DUP7 ADD MSTORE PUSH1 0x80 DUP6 ADD SWAP1 PUSH2 0x1197 JUMP JUMPDEST PUSH1 0x40 DUP6 ADD MLOAD DUP5 DUP3 SUB PUSH1 0x40 DUP7 ADD MSTORE PUSH2 0x1197 JUMP JUMPDEST SWAP3 DUP2 ADD MLOAD PUSH1 0x1 PUSH1 0x1 PUSH1 0xA0 SHL SUB AND SWAP2 ADD MSTORE SWAP1 JUMP JUMPDEST PUSH1 0x20 DUP1 DUP3 ADD SWAP1 PUSH1 0x20 DUP4 MSTORE DUP4 MLOAD DUP1 SWAP3 MSTORE PUSH1 0x40 DUP4 ADD SWAP3 PUSH1 0x20 PUSH1 0x40 DUP5 PUSH1 0x5 SHL DUP4 ADD ADD SWAP6 ADD SWAP4 PUSH1 0x0 SWAP2 JUMPDEST DUP5 DUP4 LT PUSH2 0x1255 JUMPI POP POP POP POP POP POP SWAP1 JUMP JUMPDEST SWAP1 SWAP2 SWAP3 SWAP4 SWAP5 SWAP6 DUP5 DUP1 PUSH2 0x1273 PUSH1 0x1 SWAP4 PUSH1 0x3F NOT DUP7 DUP3 SUB ADD DUP8 MSTORE DUP11 MLOAD PUSH2 0x11D7 JUMP JUMPDEST SWAP9 ADD SWAP4 ADD SWAP4 ADD SWAP2 SWAP5 SWAP4 SWAP3 SWAP1 PUSH2 0x1245 JUMP JUMPDEST DUP1 SLOAD DUP3 LT ISZERO PUSH2 0x129B JUMPI PUSH1 0x0 MSTORE PUSH1 0x20 PUSH1 0x0 KECCAK256 ADD SWAP1 PUSH1 0x0 SWAP1 JUMP JUMPDEST PUSH4 0x4E487B71 PUSH1 0xE0 SHL PUSH1 0x0 MSTORE PUSH1 0x32 PUSH1 0x4 MSTORE PUSH1 0x24 PUSH1 0x0 REVERT JUMPDEST SWAP1 PUSH1 0x1 DUP3 DUP2 SHR SWAP3 AND DUP1 ISZERO PUSH2 0x12E1 JUMPI JUMPDEST PUSH1 0x20 DUP4 LT EQ PUSH2 0x12CB JUMPI JUMP JUMPDEST PUSH4 0x4E487B71 PUSH1 0xE0 SHL PUSH1 0x0 MSTORE PUSH1 0x22 PUSH1 0x4 MSTORE PUSH1 0x24 PUSH1 0x0 REVERT JUMPDEST SWAP2 PUSH1 0x7F AND SWAP2 PUSH2 0x12C0 JUMP JUMPDEST PUSH1 0x80 DUP2 ADD SWAP1 DUP2 LT PUSH1 0x1 PUSH1 0x1 PUSH1 0x40 SHL SUB DUP3 GT OR PUSH2 0x3B2 JUMPI PUSH1 0x40 MSTORE JUMP JUMPDEST PUSH2 0x140 DUP2 ADD SWAP1 DUP2 LT PUSH1 0x1 PUSH1 0x1 PUSH1 0x40 SHL SUB DUP3 GT OR PUSH2 0x3B2 JUMPI PUSH1 0x40 MSTORE JUMP JUMPDEST SWAP1 PUSH1 0x1F DUP1 NOT SWAP2 ADD AND DUP2 ADD SWAP1 DUP2 LT PUSH1 0x1 PUSH1 0x1 PUSH1 0x40 SHL SUB DUP3 GT OR PUSH2 0x3B2 JUMPI PUSH1 0x40 MSTORE JUMP JUMPDEST SWAP1 PUSH1 0x40 MLOAD SWAP2 DUP3 PUSH1 0x0 DUP3 SLOAD PUSH2 0x1356 DUP2 PUSH2 0x12B1 JUMP JUMPDEST SWAP1 DUP2 DUP5 MSTORE PUSH1 0x20 SWAP5 PUSH1 0x1 SWAP2 PUSH1 0x1 DUP2 AND SWAP1 DUP2 PUSH1 0x0 EQ PUSH2 0x13C6 JUMPI POP PUSH1 0x1 EQ PUSH2 0x1387 JUMPI JUMPDEST POP POP POP PUSH2 0x1385 SWAP3 POP SUB DUP4 PUSH2 0x1322 JUMP JUMPDEST JUMP JUMPDEST PUSH1 0x0 SWAP1 DUP2 MSTORE DUP6 DUP2 KECCAK256 SWAP6 SWAP4 POP SWAP2 SWAP1 JUMPDEST DUP2 DUP4 LT PUSH2 0x13AE JUMPI POP POP PUSH2 0x1385 SWAP4 POP DUP3 ADD ADD CODESIZE DUP1 DUP1 PUSH2 0x1376 JUMP JUMPDEST DUP6 SLOAD DUP9 DUP5 ADD DUP6 ADD MSTORE SWAP5 DUP6 ADD SWAP5 DUP8 SWAP5 POP SWAP2 DUP4 ADD SWAP2 PUSH2 0x1395 JUMP JUMPDEST SWAP3 POP POP POP PUSH2 0x1385 SWAP5 SWAP3 POP PUSH1 0xFF NOT AND DUP3 DUP5 ADD MSTORE ISZERO ISZERO PUSH1 0x5 SHL DUP3 ADD ADD CODESIZE DUP1 DUP1 PUSH2 0x1376 JUMP JUMPDEST SWAP1 DUP2 MLOAD DUP1 DUP3 MSTORE PUSH1 0x20 DUP1 DUP1 SWAP4 ADD SWAP4 ADD SWAP2 PUSH1 0x0 JUMPDEST DUP3 DUP2 LT PUSH2 0x1408 JUMPI POP POP POP POP SWAP1 JUMP JUMPDEST DUP4 MLOAD PUSH1 0x1 PUSH1 0x1 PUSH1 0xA0 SHL SUB AND DUP6 MSTORE SWAP4 DUP2 ADD SWAP4 SWAP3 DUP2 ADD SWAP3 PUSH1 0x1 ADD PUSH2 0x13FA JUMP JUMPDEST PUSH1 0x40 SWAP1 PUSH1 0x3 NOT ADD SLT PUSH2 0x4A7 JUMPI PUSH1 0x4 CALLDATALOAD SWAP1 PUSH1 0x24 CALLDATALOAD SWAP1 JUMP JUMPDEST PUSH1 0x1 PUSH1 0x1 PUSH1 0x40 SHL SUB DUP2 GT PUSH2 0x3B2 JUMPI PUSH1 0x1F ADD PUSH1 0x1F NOT AND PUSH1 0x20 ADD SWAP1 JUMP JUMPDEST DUP2 PUSH1 0x1F DUP3 ADD SLT ISZERO PUSH2 0x4A7 JUMPI DUP1 CALLDATALOAD SWAP1 PUSH2 0x146D DUP3 PUSH2 0x143B JUMP JUMPDEST SWAP3 PUSH2 0x147B PUSH1 0x40 MLOAD SWAP5 DUP6 PUSH2 0x1322 JUMP JUMPDEST DUP3 DUP5 MSTORE PUSH1 0x20 DUP4 DUP4 ADD ADD GT PUSH2 0x4A7 JUMPI DUP2 PUSH1 0x0 SWAP3 PUSH1 0x20 DUP1 SWAP4 ADD DUP4 DUP7 ADD CALLDATACOPY DUP4 ADD ADD MSTORE SWAP1 JUMP JUMPDEST PUSH1 0x1 PUSH1 0x1 PUSH1 0x40 SHL SUB DUP2 GT PUSH2 0x3B2 JUMPI PUSH1 0x5 SHL PUSH1 0x20 ADD SWAP1 JUMP JUMPDEST ISZERO PUSH2 0x14BB JUMPI JUMP JUMPDEST PUSH1 0x40 MLOAD PUSH3 0x461BCD PUSH1 0xE5 SHL DUP2 MSTORE PUSH1 0x20 PUSH1 0x4 DUP3 ADD MSTORE PUSH1 0x19 PUSH1 0x24 DUP3 ADD MSTORE PUSH32 0x5468697320616C62756D20646F6573206E6F7420657869737400000000000000 PUSH1 0x44 DUP3 ADD MSTORE PUSH1 0x64 SWAP1 REVERT JUMPDEST ISZERO PUSH2 0x1507 JUMPI JUMP JUMPDEST PUSH1 0x40 MLOAD PUSH3 0x461BCD PUSH1 0xE5 SHL DUP2 MSTORE PUSH1 0x20 PUSH1 0x4 DUP3 ADD MSTORE PUSH1 0x17 PUSH1 0x24 DUP3 ADD MSTORE PUSH32 0x546869732069732061207075626C696320616C62756D2E000000000000000000 PUSH1 0x44 DUP3 ADD MSTORE PUSH1 0x64 SWAP1 REVERT JUMPDEST DUP2 DUP2 MUL SWAP3 SWAP2 DUP2 ISZERO SWAP2 DUP5 DIV EQ OR ISZERO PUSH2 0x3C8 JUMPI JUMP JUMPDEST SWAP2 SWAP1 DUP3 SUB SWAP2 DUP3 GT PUSH2 0x3C8 JUMPI JUMP JUMPDEST RETURNDATASIZE ISZERO PUSH2 0x1597 JUMPI RETURNDATASIZE SWAP1 PUSH2 0x157D DUP3 PUSH2 0x143B JUMP JUMPDEST SWAP2 PUSH2 0x158B PUSH1 0x40 MLOAD SWAP4 DUP5 PUSH2 0x1322 JUMP JUMPDEST DUP3 MSTORE RETURNDATASIZE PUSH1 0x0 PUSH1 0x20 DUP5 ADD RETURNDATACOPY JUMP JUMPDEST PUSH1 0x60 SWAP1 JUMP JUMPDEST ISZERO PUSH2 0x15A3 JUMPI JUMP JUMPDEST PUSH1 0x40 MLOAD PUSH3 0x461BCD PUSH1 0xE5 SHL DUP2 MSTORE PUSH1 0x20 PUSH1 0x4 DUP3 ADD MSTORE PUSH1 0x22 PUSH1 0x24 DUP3 ADD MSTORE PUSH32 0x466565207061796D656E7420746F20616C62756D206F776E6572206661696C65 PUSH1 0x44 DUP3 ADD MSTORE PUSH2 0x3217 PUSH1 0xF1 SHL PUSH1 0x64 DUP3 ADD MSTORE PUSH1 0x84 SWAP1 REVERT JUMPDEST ISZERO PUSH2 0x15FA JUMPI JUMP JUMPDEST PUSH1 0x40 MLOAD PUSH3 0x461BCD PUSH1 0xE5 SHL DUP2 MSTORE PUSH1 0x20 PUSH1 0x4 DUP3 ADD MSTORE PUSH1 0x22 PUSH1 0x24 DUP3 ADD MSTORE PUSH32 0x466565207061796D656E7420746F207472796265206F776E6572206661696C65 PUSH1 0x44 DUP3 ADD MSTORE PUSH2 0x3217 PUSH1 0xF1 SHL PUSH1 0x64 DUP3 ADD MSTORE PUSH1 0x84 SWAP1 REVERT JUMPDEST PUSH1 0x40 MLOAD SWAP1 PUSH2 0x1657 DUP3 PUSH2 0x12EB JUMP JUMPDEST PUSH1 0x0 PUSH1 0x60 DUP4 DUP3 DUP2 MSTORE DUP2 PUSH1 0x20 DUP3 ADD MSTORE DUP2 PUSH1 0x40 DUP3 ADD MSTORE ADD MSTORE JUMP JUMPDEST SWAP1 PUSH2 0x1679 DUP3 PUSH2 0x149D JUMP JUMPDEST PUSH2 0x1686 PUSH1 0x40 MLOAD SWAP2 DUP3 PUSH2 0x1322 JUMP JUMPDEST DUP3 DUP2 MSTORE DUP1 SWAP3 PUSH2 0x1697 PUSH1 0x1F NOT SWAP2 PUSH2 0x149D JUMP JUMPDEST ADD SWAP1 PUSH1 0x0 JUMPDEST DUP3 DUP2 LT PUSH2 0x16A8 JUMPI POP POP POP JUMP JUMPDEST PUSH1 0x20 SWAP1 PUSH2 0x16B3 PUSH2 0x164A JUMP JUMPDEST DUP3 DUP3 DUP6 ADD ADD MSTORE ADD PUSH2 0x169C JUMP JUMPDEST PUSH1 0x0 NOT DUP2 EQ PUSH2 0x3C8 JUMPI PUSH1 0x1 ADD SWAP1 JUMP JUMPDEST DUP1 MLOAD DUP3 LT ISZERO PUSH2 0x129B JUMPI PUSH1 0x20 SWAP2 PUSH1 0x5 SHL ADD ADD SWAP1 JUMP JUMPDEST SWAP1 PUSH1 0x40 MLOAD PUSH2 0x16EF DUP2 PUSH2 0x12EB JUMP JUMPDEST PUSH1 0x60 DUP2 SWAP4 DUP1 SLOAD DUP4 MSTORE PUSH2 0x1703 PUSH1 0x1 DUP3 ADD PUSH2 0x1343 JUMP JUMPDEST PUSH1 0x20 DUP5 ADD MSTORE PUSH2 0x1714 PUSH1 0x2 DUP3 ADD PUSH2 0x1343 JUMP JUMPDEST PUSH1 0x40 DUP5 ADD MSTORE PUSH1 0x3 ADD SLOAD PUSH1 0x1 PUSH1 0x1 PUSH1 0xA0 SHL SUB AND SWAP2 ADD MSTORE JUMP JUMPDEST SWAP1 PUSH1 0x40 MLOAD SWAP2 DUP3 DUP2 SLOAD SWAP2 DUP3 DUP3 MSTORE PUSH1 0x20 SWAP3 PUSH1 0x20 DUP4 ADD SWAP2 PUSH1 0x0 MSTORE PUSH1 0x20 PUSH1 0x0 KECCAK256 SWAP4 PUSH1 0x0 SWAP1 JUMPDEST DUP3 DUP3 LT PUSH2 0x1762 JUMPI POP POP POP PUSH2 0x1385 SWAP3 POP SUB DUP4 PUSH2 0x1322 JUMP JUMPDEST DUP6 SLOAD PUSH1 0x1 PUSH1 0x1 PUSH1 0xA0 SHL SUB AND DUP5 MSTORE PUSH1 0x1 SWAP6 DUP7 ADD SWAP6 DUP9 SWAP6 POP SWAP4 DUP2 ADD SWAP4 SWAP1 SWAP2 ADD SWAP1 PUSH2 0x174C JUMP JUMPDEST ISZERO PUSH2 0x178C JUMPI JUMP JUMPDEST PUSH1 0x40 MLOAD PUSH3 0x461BCD PUSH1 0xE5 SHL DUP2 MSTORE PUSH1 0x20 PUSH1 0x4 DUP3 ADD MSTORE PUSH1 0x19 PUSH1 0x24 DUP3 ADD MSTORE PUSH32 0x5468697320696D61676520646F6573206E6F7420657869737400000000000000 PUSH1 0x44 DUP3 ADD MSTORE PUSH1 0x64 SWAP1 REVERT JUMPDEST ISZERO PUSH2 0x17D8 JUMPI JUMP JUMPDEST PUSH1 0x40 MLOAD PUSH3 0x461BCD PUSH1 0xE5 SHL DUP2 MSTORE PUSH1 0x20 PUSH1 0x4 DUP3 ADD MSTORE PUSH1 0x18 PUSH1 0x24 DUP3 ADD MSTORE PUSH32 0x546869732069732061207072697661746520616C62756D2E0000000000000000 PUSH1 0x44 DUP3 ADD MSTORE PUSH1 0x64 SWAP1 REVERT JUMPDEST ISZERO PUSH2 0x1824 JUMPI JUMP JUMPDEST PUSH1 0x40 MLOAD PUSH3 0x461BCD PUSH1 0xE5 SHL DUP2 MSTORE PUSH1 0x20 PUSH1 0x4 DUP3 ADD MSTORE PUSH1 0x1A PUSH1 0x24 DUP3 ADD MSTORE PUSH32 0x4E6F207A65726F2061646472657373657320616C6C6F7765642E000000000000 PUSH1 0x44 DUP3 ADD MSTORE PUSH1 0x64 SWAP1 REVERT JUMPDEST DUP2 DUP2 LT PUSH2 0x1874 JUMPI POP POP JUMP JUMPDEST PUSH1 0x0 DUP2 SSTORE PUSH1 0x1 ADD PUSH2 0x1869 JUMP JUMPDEST SWAP2 SWAP1 SWAP2 DUP3 MLOAD PUSH1 0x1 PUSH1 0x1 PUSH1 0x40 SHL SUB DUP2 GT PUSH2 0x3B2 JUMPI PUSH2 0x189D DUP3 SLOAD PUSH2 0x12B1 JUMP JUMPDEST PUSH1 0x1F DUP2 GT PUSH2 0x1948 JUMPI JUMPDEST POP PUSH1 0x20 DUP1 PUSH1 0x1F DUP4 GT PUSH1 0x1 EQ PUSH2 0x18E3 JUMPI POP DUP2 SWAP3 SWAP4 SWAP5 PUSH1 0x0 SWAP3 PUSH2 0x18D8 JUMPI JUMPDEST POP POP DUP2 PUSH1 0x1 SHL SWAP2 PUSH1 0x0 NOT SWAP1 PUSH1 0x3 SHL SHR NOT AND OR SWAP1 SSTORE JUMP JUMPDEST ADD MLOAD SWAP1 POP CODESIZE DUP1 PUSH2 0x18C2 JUMP JUMPDEST SWAP1 PUSH1 0x1F NOT DUP4 AND SWAP6 DUP5 PUSH1 0x0 MSTORE PUSH1 0x20 PUSH1 0x0 KECCAK256 SWAP3 PUSH1 0x0 SWAP1 JUMPDEST DUP9 DUP3 LT PUSH2 0x1930 JUMPI POP POP DUP4 PUSH1 0x1 SWAP6 SWAP7 SWAP8 LT PUSH2 0x1917 JUMPI JUMPDEST POP POP POP DUP2 SHL ADD SWAP1 SSTORE JUMP JUMPDEST ADD MLOAD PUSH1 0x0 NOT PUSH1 0xF8 DUP5 PUSH1 0x3 SHL AND SHR NOT AND SWAP1 SSTORE CODESIZE DUP1 DUP1 PUSH2 0x190D JUMP JUMPDEST DUP1 PUSH1 0x1 DUP6 SWAP7 DUP3 SWAP5 SWAP7 DUP7 ADD MLOAD DUP2 SSTORE ADD SWAP6 ADD SWAP4 ADD SWAP1 PUSH2 0x18F8 JUMP JUMPDEST PUSH2 0x1975 SWAP1 DUP4 PUSH1 0x0 MSTORE PUSH1 0x20 PUSH1 0x0 KECCAK256 PUSH1 0x1F DUP5 ADD PUSH1 0x5 SHR DUP2 ADD SWAP2 PUSH1 0x20 DUP6 LT PUSH2 0x197B JUMPI JUMPDEST PUSH1 0x1F ADD PUSH1 0x5 SHR ADD SWAP1 PUSH2 0x1869 JUMP JUMPDEST CODESIZE PUSH2 0x18A6 JUMP JUMPDEST SWAP1 SWAP2 POP DUP2 SWAP1 PUSH2 0x1968 JUMP INVALID LOG2 PUSH5 0x6970667358 0x22 SLT KECCAK256 SWAP13 0xB6 DUP6 0xF9 0xD7 0x4F PUSH2 0xC378 STOP SWAP6 0xBE CALLER CALLDATASIZE PUSH17 0x244A56E5D4C260FA526D68B34DF6F4DCFD PUSH5 0x736F6C6343 STOP ADDMOD XOR STOP CALLER "
        },
        "methodIdentifiers": {
          "addImageToAlbum(uint256,string,string)": "6f4e27f0",
          "album(uint256)": "e89e6a00",
          "createAlbum(string,string,address[],string,uint8,uint256)": "f3187157",
          "getAlbum(uint256)": "d6e465c9",
          "getImageInPrivateAlbum(uint256,uint256)": "57d47a9d",
          "getImageInPublicAlbum(uint256,uint256)": "40368f85",
          "getImages()": "11498334",
          "getImagesInPrivateAlbum(uint256)": "0fd59adb",
          "getImagesInPublicAlbum(uint256)": "56148eb1",
          "getListofParticipants(uint256)": "3b8f313b",
          "images(address,uint256)": "2ac33792",
          "imagesInAlbum(uint256,uint256)": "51927c6d",
          "joinAlbum(uint256)": "8d84d7fc",
          "owner()": "8da5cb5b",
          "totalNoOfAlbumsCreated()": "6d49f8cc",
          "upload(string)": "42ce1488"
        }
      }
    }
  }
}