{
  "_format": "hh-sol-artifact-1",
  "contractName": "Trybe",
  "sourceName": "contracts/Trybe.sol",
  "abi": [
    {
      "inputs": [
        {
          "internalType": "uint256",
          "name": "_fee",
          "type": "uint256"
        }
      ],
      "stateMutability": "nonpayable",
      "type": "constructor"
    },
    {
      "anonymous": false,
      "inputs": [
        {
          "indexed": true,
          "internalType": "address",
          "name": "creator",
          "type": "address"
        },
        {
          "indexed": false,
          "internalType": "string",
          "name": "nameOfAlbum",
          "type": "string"
        },
        {
          "indexed": false,
          "internalType": "uint256",
          "name": "albumId",
          "type": "uint256"
        }
      ],
      "name": "AlbumCreated",
      "type": "event"
    },
    {
      "anonymous": false,
      "inputs": [
        {
          "indexed": false,
          "internalType": "uint256",
          "name": "albumId",
          "type": "uint256"
        },
        {
          "indexed": false,
          "internalType": "uint256",
          "name": "imageId",
          "type": "uint256"
        }
      ],
      "name": "ImageAdded",
      "type": "event"
    },
    {
      "anonymous": false,
      "inputs": [
        {
          "indexed": false,
          "internalType": "uint256",
          "name": "albumId",
          "type": "uint256"
        },
        {
          "indexed": false,
          "internalType": "uint256",
          "name": "imageId",
          "type": "uint256"
        }
      ],
      "name": "ImageDownloaded",
      "type": "event"
    },
    {
      "anonymous": false,
      "inputs": [
        {
          "indexed": true,
          "internalType": "address",
          "name": "participant",
          "type": "address"
        },
        {
          "indexed": false,
          "internalType": "uint256",
          "name": "timeJoined",
          "type": "uint256"
        }
      ],
      "name": "JoinedAlbum",
      "type": "event"
    },
    {
      "anonymous": false,
      "inputs": [
        {
          "indexed": true,
          "internalType": "address",
          "name": "user",
          "type": "address"
        },
        {
          "indexed": false,
          "internalType": "string",
          "name": "url",
          "type": "string"
        },
        {
          "indexed": false,
          "internalType": "uint256",
          "name": "createdAt",
          "type": "uint256"
        }
      ],
      "name": "Upload",
      "type": "event"
    },
    {
      "inputs": [
        {
          "internalType": "uint256",
          "name": "albumId",
          "type": "uint256"
        },
        {
          "internalType": "string",
          "name": "url",
          "type": "string"
        },
        {
          "internalType": "string",
          "name": "description",
          "type": "string"
        },
        {
          "internalType": "uint256",
          "name": "_fee",
          "type": "uint256"
        }
      ],
      "name": "addImageToAlbum",
      "outputs": [],
      "stateMutability": "nonpayable",
      "type": "function"
    },
    {
      "inputs": [
        {
          "internalType": "string",
          "name": "_name",
          "type": "string"
        },
        {
          "internalType": "string",
          "name": "description",
          "type": "string"
        },
        {
          "internalType": "address[]",
          "name": "_participants",
          "type": "address[]"
        },
        {
          "internalType": "string",
          "name": "_image",
          "type": "string"
        },
        {
          "internalType": "bool",
          "name": "visibility",
          "type": "bool"
        },
        {
          "internalType": "uint256",
          "name": "_fee",
          "type": "uint256"
        }
      ],
      "name": "createAlbum",
      "outputs": [],
      "stateMutability": "nonpayable",
      "type": "function"
    },
    {
      "inputs": [
        {
          "internalType": "uint256",
          "name": "albumId",
          "type": "uint256"
        },
        {
          "internalType": "uint256",
          "name": "imageId",
          "type": "uint256"
        }
      ],
      "name": "download",
      "outputs": [],
      "stateMutability": "payable",
      "type": "function"
    },
    {
      "inputs": [
        {
          "internalType": "uint256",
          "name": "albumId",
          "type": "uint256"
        }
      ],
      "name": "getAlbum",
      "outputs": [
        {
          "components": [
            {
              "internalType": "uint256",
              "name": "id",
              "type": "uint256"
            },
            {
              "internalType": "bool",
              "name": "visibility",
              "type": "bool"
            },
            {
              "internalType": "uint256",
              "name": "fee",
              "type": "uint256"
            },
            {
              "internalType": "address",
              "name": "owner",
              "type": "address"
            },
            {
              "internalType": "string",
              "name": "name",
              "type": "string"
            },
            {
              "internalType": "string",
              "name": "description",
              "type": "string"
            },
            {
              "internalType": "string",
              "name": "profileImage",
              "type": "string"
            },
            {
              "internalType": "uint256",
              "name": "created",
              "type": "uint256"
            },
            {
              "internalType": "address[]",
              "name": "participants",
              "type": "address[]"
            },
            {
              "internalType": "uint256",
              "name": "totalNoOfImages",
              "type": "uint256"
            }
          ],
          "internalType": "struct Trybe.Album",
          "name": "",
          "type": "tuple"
        }
      ],
      "stateMutability": "view",
      "type": "function"
    },
    {
      "inputs": [],
      "name": "getAlbums",
      "outputs": [
        {
          "components": [
            {
              "internalType": "uint256",
              "name": "id",
              "type": "uint256"
            },
            {
              "internalType": "bool",
              "name": "visibility",
              "type": "bool"
            },
            {
              "internalType": "uint256",
              "name": "fee",
              "type": "uint256"
            },
            {
              "internalType": "address",
              "name": "owner",
              "type": "address"
            },
            {
              "internalType": "string",
              "name": "name",
              "type": "string"
            },
            {
              "internalType": "string",
              "name": "description",
              "type": "string"
            },
            {
              "internalType": "string",
              "name": "profileImage",
              "type": "string"
            },
            {
              "internalType": "uint256",
              "name": "created",
              "type": "uint256"
            },
            {
              "internalType": "address[]",
              "name": "participants",
              "type": "address[]"
            },
            {
              "internalType": "uint256",
              "name": "totalNoOfImages",
              "type": "uint256"
            }
          ],
          "internalType": "struct Trybe.Album[]",
          "name": "",
          "type": "tuple[]"
        }
      ],
      "stateMutability": "view",
      "type": "function"
    },
    {
      "inputs": [
        {
          "internalType": "uint256",
          "name": "albumId",
          "type": "uint256"
        },
        {
          "internalType": "uint256",
          "name": "imageId",
          "type": "uint256"
        }
      ],
      "name": "getImageInAlbum",
      "outputs": [
        {
          "components": [
            {
              "internalType": "uint256",
              "name": "id",
              "type": "uint256"
            },
            {
              "internalType": "string",
              "name": "url",
              "type": "string"
            },
            {
              "internalType": "string",
              "name": "description",
              "type": "string"
            },
            {
              "internalType": "address",
              "name": "owner",
              "type": "address"
            },
            {
              "internalType": "uint256",
              "name": "created",
              "type": "uint256"
            },
            {
              "internalType": "uint256",
              "name": "fee",
              "type": "uint256"
            }
          ],
          "internalType": "struct Trybe.Image",
          "name": "",
          "type": "tuple"
        }
      ],
      "stateMutability": "view",
      "type": "function"
    },
    {
      "inputs": [],
      "name": "getImages",
      "outputs": [
        {
          "internalType": "string[]",
          "name": "",
          "type": "string[]"
        }
      ],
      "stateMutability": "view",
      "type": "function"
    },
    {
      "inputs": [
        {
          "internalType": "uint256",
          "name": "albumId",
          "type": "uint256"
        }
      ],
      "name": "getImagesInAlbum",
      "outputs": [
        {
          "components": [
            {
              "internalType": "uint256",
              "name": "id",
              "type": "uint256"
            },
            {
              "internalType": "string",
              "name": "url",
              "type": "string"
            },
            {
              "internalType": "string",
              "name": "description",
              "type": "string"
            },
            {
              "internalType": "address",
              "name": "owner",
              "type": "address"
            },
            {
              "internalType": "uint256",
              "name": "created",
              "type": "uint256"
            },
            {
              "internalType": "uint256",
              "name": "fee",
              "type": "uint256"
            }
          ],
          "internalType": "struct Trybe.Image[]",
          "name": "",
          "type": "tuple[]"
        }
      ],
      "stateMutability": "view",
      "type": "function"
    },
    {
      "inputs": [
        {
          "internalType": "uint256",
          "name": "albumId",
          "type": "uint256"
        }
      ],
      "name": "getListofParticipants",
      "outputs": [
        {
          "internalType": "address[]",
          "name": "",
          "type": "address[]"
        }
      ],
      "stateMutability": "view",
      "type": "function"
    },
    {
      "inputs": [
        {
          "internalType": "uint256",
          "name": "albumId",
          "type": "uint256"
        }
      ],
      "name": "joinAlbum",
      "outputs": [],
      "stateMutability": "payable",
      "type": "function"
    },
    {
      "inputs": [],
      "name": "owner",
      "outputs": [
        {
          "internalType": "address",
          "name": "",
          "type": "address"
        }
      ],
      "stateMutability": "view",
      "type": "function"
    },
    {
      "inputs": [],
      "name": "totalNoOfAlbumsCreated",
      "outputs": [
        {
          "internalType": "uint256",
          "name": "",
          "type": "uint256"
        }
      ],
      "stateMutability": "view",
      "type": "function"
    },
    {
      "inputs": [
        {
          "internalType": "string",
          "name": "url",
          "type": "string"
        }
      ],
      "name": "upload",
      "outputs": [],
      "stateMutability": "nonpayable",
      "type": "function"
    }
  ],
  "bytecode": "0x60803461006657601f611e4038819003918201601f19168301916001600160401b0383118484101761006b578084926020946040528339810103126100665751600080546001600160a01b03191633178155600155600255604051611dbe90816100828239f35b600080fd5b634e487b7160e01b600052604160045260246000fdfe6080604052600436101561001257600080fd5b60003560e01c8063114983341461123f5780633b8f313b146111a957806342ce1488146110f057806345a1db6714610c635780635c51723414610a7d5780636d49f8cc14610a5f5780637446434b1461078e5780638d84d7fc1461061b5780638da5cb5b146105f2578063b027a78714610419578063bce547201461025a578063ced038d11461011b5763d6e465c9146100ab57600080fd5b34610116576020366003190112610116576004356100c7611a7f565b508015158061010a575b6100da90611648565b60005260046020526101066100f26040600020611acf565b604051918291602083526020830190611427565b0390f35b506001548111156100d1565b600080fd5b346101165761012936611553565b90610132611cfa565b508015158061024e575b61014590611648565b81151580610233575b156101ee5760009060005b816000526004602052600860406000200180548210156101e2578161017d9161173a565b905460039190911b1c6001600160a01b0316331461019d57600101610159565b5090506101aa6001611c92565b60005260066020526040600020906000526020526101066101ce6040600020611d2d565b6040519182916020835260208301906114f9565b5050906101aa90611c92565b60405162461bcd60e51b815260206004820152601960248201527f5468697320696d61676520646f6573206e6f74206578697374000000000000006044820152606490fd5b5080600052600460205260096040600020015482111561014e565b5060015481111561013c565b61026336611553565b908015158061040d575b61027690611648565b80600052602090600482526040600020926006835260406000208160005283526001604060002094019260ff84541680156103ff575b156103bb57336000526005815260406000208054600160401b8110156103a5576102db9160018201815561173a565b95909561038f5760ff6040956103167f1af01386275a45a15be18388f65d960ec0439847260e1f66a817d80e8e5b0adf986001850190611938565b54161561032a575b508351928352820152a1005b600080808061038994600361037683808080606461034b60025434906118b6565b04966103578834611ba7565b9601546001600160a01b03969087165af1610370611bb4565b50611be4565b8254165af1610383611bb4565b50611c3b565b8561031e565b634e487b7160e01b600052600060045260246000fd5b634e487b7160e01b600052604160045260246000fd5b6064906040519062461bcd60e51b82526004820152601e60248201527f546869732069732061207072697661746520616c62756d20696d6167652e00006044820152fd5b5060058501543410156102ac565b5060015481111561026d565b34610116576020806003193601126101165760043590811515806105e6575b61044190611648565b816000526004815260406000209060009160005b8460005260048352600860406000200180548210156105d857816104789161173a565b905460039190911b1c6001600160a01b0316331461049857600101610455565b5060099192506104a86001611c92565b0154916104b483611410565b926104c2604051948561138d565b8084526104ce81611410565b601f190160005b8181106105bc57505060019160015b8281111561054e5750505060405191808301818452845180915260408401918060408360051b8701019601926000905b8382106105215786880387f35b9091929394838061053d839a603f198b820301865289516114f9565b999701959493919091019101610514565b816000969496526006855260406000208160005285526040600020906000198101918183116105a65761059e9261058761059892611d2d565b61059182896118a2565b52866118a2565b50611893565b9492946104e4565b634e487b7160e01b600052601160045260246000fd5b84906105c9969496611cfa565b828287010152019492946104d5565b50506104a860099293611c92565b50600154821115610438565b34610116576000366003190112610116576000546040516001600160a01b039091168152602090f35b60203660031901126101165760043580151580610782575b61063c90611648565b8060005260046020526040600020600191600182019060ff8254168015610774575b1561072f576008906106733360088601611b6c565b6000855b6106e1575b50505060ff9192505416156106ba575b6040514281527f59a4dadce245655ce4c5ea128f142c4034b1206deff52ff605866cd86433de8160203392a2005b60008080806106db94600361037683808080606461034b60025434906118b6565b8061068c565b60035481101561072a57816106f5826118fd565b50541461070457850185610677565b60ff949550610721929150610718906118fd565b50339101611b6c565b8291848061067c565b61067c565b60405162461bcd60e51b815260206004820152601860248201527f546869732069732061207072697661746520616c62756d2e00000000000000006044820152606490fd5b50600283015434101561065e565b50600154811115610633565b34610116576080366003190112610116576001600160401b03600435602435828111610116576107c29036906004016113c9565b91604435908111610116576107db9036906004016113c9565b9060643581151580610a53575b6107f190611648565b816000526020906004825260406000209360099460098101926108148454611893565b8455600080600884018054915b828110610a1b575b505050156109b75760005b6003548110156109aa5786610848826118fd565b50541461085757600101610834565b6108689097919293949596976118fd565b50016108748154611893565b90555b60ff600185549301541660001461095857509060057f5138483d623eef75882d5ca6ed33e44c7ecafe842f3311844eabf67a297ce76c966040969594936000915b61091e8951956108c787611356565b8387528887019283528a87019081526109146060880193338552608089019542875260a08a019788528c60005260068c528d600020906000528b528c6000209851895551600189016117c4565b51600287016117c4565b516003850180546001600160a01b0319166001600160a01b03929092169190911790555160048401555191015554835192835290820152a1005b670de0b6b3a7640000959493929195908181029181830414901517156105a6577f5138483d623eef75882d5ca6ed33e44c7ecafe842f3311844eabf67a297ce76c966040966103e860059304916108b8565b5090919293949550610877565b60405162461bcd60e51b815260048101869052603660248201527f4f6e6c792074686f73652077686f2068617665206a6f696e656420746865206160448201527536313ab69031b0b71030b2321030b71034b6b0b3b29760511b6064820152608490fd5b610a25818361173a565b905460039190911b1c6001600160a01b03163314610a4557600101610821565b505050506001898080610829565b506001548211156107e8565b34610116576000366003190112610116576020600154604051908152f35b346101165760003660031901126101165760008060038054925b838110610bf95750610ac1610aab83611410565b92610ab9604051948561138d565b808452611410565b60209390601f19018460005b828110610be357505050906000916000905b808210610b4457604080518781528651818901819052600092600582901b8301810191898b01918b9085015b828710610b185785850386f35b909192938280610b34600193603f198a82030186528851611427565b9601920196019592919092610b0b565b90929460009492945b610b56856118fd565b50600880910154821015610bd45781610b7991610b72886118fd565b500161173a565b905490871b1c6001600160a01b03163314610b9657600101610b4d565b5094610bc9600191610bb4610bae87959698976118fd565b50611acf565b610bbe82896118a2565b5261059881886118a2565b915b01909291610adf565b50509490919392600190610bcb565b610beb611a7f565b828288010152018590610acd565b909160005b610c07836118fd565b50600880910154821015610c575781610c2391610b72866118fd565b905490851b1c6001600160a01b03163314610c4057600101610bfe565b50610c4f600191939293611893565b925b01610a97565b50509190600190610c51565b346101165760c0366003190112610116576004356001600160401b03811161011657610c939036906004016113c9565b6024356001600160401b03811161011657610cb29036906004016113c9565b90604435916001600160401b0383116101165736602384011215610116578260040135610cde81611410565b93610cec604051958661138d565b8185526024602086019260051b8201019036821161011657602401915b8183106110d0575050506064356001600160401b03811161011657610d329036906004016113c9565b9160843515156084350361011657610d4b3315156116ee565b8051156110965781511561101557610d64600154611893565b80600155845192600184018094116105a657610d98610d8285611410565b94610d90604051968761138d565b808652611410565b601f190136602086013760005b8651811015610dd6576001906001600160a01b03610dc3828a6118a2565b5116610dcf82886118a2565b5201610da5565b5083908587610de7339151856118a2565b528360005260046020526040600020938455610e14608435600186019060ff801983541691151516179055565b60843515610fe557610e55610e5e9260005b60028701556003860180546001600160a01b03191633179055610e4c87600488016117c4565b600586016117c4565b600684016117c4565b4260078301558051906001600160401b0382116103a557602090610e8583600886016118c9565b0160088301600052602060002060005b838110610fc8578585600981019060008255600354600160401b8110156103a557806001610ec692016003556118fd565b92909261038f57818303610f1b575b600154604080518181527fd3cc7c228a9442b3e32b7fb9e7ac4298594eeb118c36cbfbaf73feef8394627d91610f0d90820188611316565b9260208201528033930390a2005b610fbc600883600994548655610f4760ff600183015416600188019060ff801983541691151516179055565b600281015460028701556003860160018060a01b036003830154166bffffffffffffffffffffffff60a01b825416179055610f886004820160048801611938565b610f986005820160058801611938565b610fa86006820160068801611938565b600781015460078701550160088501611a16565b54910155818080610ed5565b82516001600160a01b031681830155602090920191600101610e95565b670de0b6b3a76400008060a435029060a43582041460a4351517156105a657610e5e926103e8610e559204610e26565b60405162461bcd60e51b815260206004820152604d60248201527f446573637269626520796f757220616c62756d20746f206c657420746865207760448201527f6f726c64206b6e6f7720686f7720796f752066656c74207768656e20796f752060648201526c31b932b0ba32b2103a3434b99760991b608482015260a490fd5b60405162461bcd60e51b8152602060048201526012602482015271283632b0b9b29030b2321030903730b6b29760711b6044820152606490fd5b82356001600160a01b038116810361011657815260209283019201610d09565b34610116576020366003190112610116576004356001600160401b038111610116576111209036906004016113c9565b61112b3315156116ee565b33600052600560205260406000208054600160401b8110156103a5576111569160018201815561173a565b61038f5781611164916117c4565b7f34647a087c36357c4b77d3d7b4bc2b55d01c3ef8726dc75a70652d96e1510cc361119a60405192604084526040840190611316565b914260208201528033930390a2005b34610116576020806003193601126101165760043580151580611233575b6111d090611648565b600052600481526111e76008604060002001611694565b906040519181839283018184528251809152816040850193019160005b82811061121357505050500390f35b83516001600160a01b031685528695509381019392810192600101611204565b506001548111156111c7565b34610116576000366003190112610116573360005260206005815260406000209081549161126c83611410565b9261127a604051948561138d565b8084528284018092600052836000206000915b8383106112f45750505050604051918083019381845251809452604083019360408160051b85010192916000955b8287106112c85785850386f35b9091929382806112e4600193603f198a82030186528851611316565b96019201960195929190926112bb565b6001868192611305859a999a6115a3565b81520192019201919095949561128d565b919082519283825260005b848110611342575050826000602080949584010152601f8019910116010190565b602081830181015184830182015201611321565b60c081019081106001600160401b038211176103a557604052565b61014081019081106001600160401b038211176103a557604052565b90601f801991011681019081106001600160401b038211176103a557604052565b6001600160401b0381116103a557601f01601f191660200190565b81601f82011215610116578035906113e0826113ae565b926113ee604051948561138d565b8284526020838301011161011657816000926020809301838601378301015290565b6001600160401b0381116103a55760051b60200190565b906101409180518252602092838201511515848401526040820151604084015261149d61148b61147960608501519360018060a01b038095166060880152608086015190806080890152870190611316565b60a085015186820360a0880152611316565b60c084015185820360c0870152611316565b60e083015160e0850152610100948584015195858303908601528080875193848152019601926000905b8382106114e05750505050506101208091015191015290565b84518116885296820196938201936001909101906114c7565b908151815260a08061152f61151d602086015160c0602087015260c0860190611316565b60408601518582036040870152611316565b93600180831b03606082015116606085015260808101516080850152015191015290565b6040906003190112610116576004359060243590565b90600182811c92168015611599575b602083101461158357565b634e487b7160e01b600052602260045260246000fd5b91607f1691611578565b906040519182600082546115b681611569565b9081845260209460019160018116908160001461162657506001146115e7575b5050506115e59250038361138d565b565b600090815285812095935091905b81831061160e5750506115e593508201013880806115d6565b855488840185015294850194879450918301916115f5565b925050506115e594925060ff191682840152151560051b8201013880806115d6565b1561164f57565b60405162461bcd60e51b815260206004820152601960248201527f5468697320616c62756d20646f6573206e6f74206578697374000000000000006044820152606490fd5b90604051918281549182825260209260208301916000526020600020936000905b8282106116cb575050506115e59250038361138d565b85546001600160a01b0316845260019586019588955093810193909101906116b5565b156116f557565b60405162461bcd60e51b815260206004820152601a60248201527f4e6f207a65726f2061646472657373657320616c6c6f7765642e0000000000006044820152606490fd5b80548210156117525760005260206000200190600090565b634e487b7160e01b600052603260045260246000fd5b818110611773575050565b60008155600101611768565b9190601f811161178e57505050565b6115e5926000526020600020906020601f840160051c830193106117ba575b601f0160051c0190611768565b90915081906117ad565b91909182516001600160401b0381116103a5576117eb816117e58454611569565b8461177f565b602080601f831160011461182e5750819061181f939495600092611823575b50508160011b916000199060031b1c19161790565b9055565b01519050388061180a565b90601f19831695846000526020600020926000905b88821061187b57505083600195969710611862575b505050811b019055565b015160001960f88460031b161c19169055388080611858565b80600185968294968601518155019501930190611843565b60001981146105a65760010190565b80518210156117525760209160051b010190565b818102929181159184041417156105a657565b90600160401b81116103a5578154908083558181106118e757505050565b6115e59260005260206000209182019101611768565b60035481101561175257600a906003600052027fc2575a0e9e593c00f959f8c92f12db2869c3395a3b0502d05e2516446f71f85b0190600090565b90808214611a125761194a8154611569565b906001600160401b0382116103a55761196d826119678554611569565b8561177f565b600090601f83116001146119a85761181f92916000918361199d5750508160011b916000199060031b1c19161790565b01549050388061180a565b815260208082208483528183209291601f1985169083905b8282106119f95750509084600195949392106119e057505050811b019055565b015460001960f88460031b161c19169055388080611858565b84958192958501548155600180910196019401906119c0565b5050565b818114611a12578154916001600160401b0383116103a557611a3883836118c9565b60005260206000209060005260206000208154916000925b848410611a5e575050505050565b600191820180546001600160a01b0390921684860155939091019290611a50565b60405190611a8c82611371565b8161012060009182815282602082015282604082015282606082015260606080820152606060a0820152606060c08201528260e082015260606101008201520152565b90604051611adc81611371565b82548152600183015460ff16151560208201526002830154604082015260038301546001600160a01b0316606082015291829061012090600990611b22600482016115a3565b6080850152611b33600582016115a3565b60a0850152611b44600682016115a3565b60c0850152600781015460e0850152611b5f60088201611694565b6101008501520154910152565b8054600160401b8110156103a557611b899160018201815561173a565b60018060a09493941b038084549260031b9316831b921b1916179055565b919082039182116105a657565b3d15611bdf573d90611bc5826113ae565b91611bd3604051938461138d565b82523d6000602084013e565b606090565b15611beb57565b60405162461bcd60e51b815260206004820152602260248201527f466565207061796d656e7420746f20616c62756d206f776e6572206661696c65604482015261321760f11b6064820152608490fd5b15611c4257565b60405162461bcd60e51b815260206004820152602260248201527f466565207061796d656e7420746f207472796265206f776e6572206661696c65604482015261321760f11b6064820152608490fd5b15611c9957565b60405162461bcd60e51b815260206004820152603360248201527f4f6e6c792074686f73652077686f2068617665206a6f696e656420746865206160448201527236313ab69039b2b2903a34329030b6313ab69760691b6064820152608490fd5b60405190611d0782611356565b600060a08382815260606020820152606060408201528260608201528260808201520152565b90604051611d3a81611356565b60a06005829480548452611d50600182016115a3565b6020850152611d61600282016115a3565b6040850152600180841b03600382015416606085015260048101546080850152015491015256fea264697066735822122035b5f05e80579be24dc3895e6dd91201e66d378ef5dcea669f0dedc7479bfc9264736f6c63430008180033",
  "linkReferences": {},
  "deployedLinkReferences": {}
}