{
  "_format": "hh-sol-artifact-1",
  "contractName": "Trybe",
  "sourceName": "contracts/Trybe.sol",
  "abi": [
    {
      "inputs": [
        {
          "internalType": "uint256",
          "name": "_fee",
          "type": "uint256"
        }
      ],
      "stateMutability": "nonpayable",
      "type": "constructor"
    },
    {
      "anonymous": false,
      "inputs": [
        {
          "indexed": true,
          "internalType": "address",
          "name": "creator",
          "type": "address"
        },
        {
          "indexed": false,
          "internalType": "string",
          "name": "nameOfAlbum",
          "type": "string"
        },
        {
          "indexed": false,
          "internalType": "uint256",
          "name": "albumId",
          "type": "uint256"
        }
      ],
      "name": "AlbumCreated",
      "type": "event"
    },
    {
      "anonymous": false,
      "inputs": [
        {
          "indexed": false,
          "internalType": "uint256",
          "name": "albumId",
          "type": "uint256"
        },
        {
          "indexed": false,
          "internalType": "uint256",
          "name": "imageId",
          "type": "uint256"
        }
      ],
      "name": "ImageAdded",
      "type": "event"
    },
    {
      "anonymous": false,
      "inputs": [
        {
          "indexed": false,
          "internalType": "uint256",
          "name": "albumId",
          "type": "uint256"
        },
        {
          "indexed": false,
          "internalType": "uint256",
          "name": "imageId",
          "type": "uint256"
        }
      ],
      "name": "ImageDownloaded",
      "type": "event"
    },
    {
      "anonymous": false,
      "inputs": [
        {
          "indexed": true,
          "internalType": "address",
          "name": "participant",
          "type": "address"
        },
        {
          "indexed": false,
          "internalType": "uint256",
          "name": "timeJoined",
          "type": "uint256"
        }
      ],
      "name": "JoinedAlbum",
      "type": "event"
    },
    {
      "anonymous": false,
      "inputs": [
        {
          "indexed": true,
          "internalType": "address",
          "name": "user",
          "type": "address"
        },
        {
          "indexed": false,
          "internalType": "string",
          "name": "url",
          "type": "string"
        },
        {
          "indexed": false,
          "internalType": "uint256",
          "name": "createdAt",
          "type": "uint256"
        }
      ],
      "name": "Upload",
      "type": "event"
    },
    {
      "inputs": [
        {
          "internalType": "uint256",
          "name": "albumId",
          "type": "uint256"
        },
        {
          "internalType": "string",
          "name": "url",
          "type": "string"
        },
        {
          "internalType": "string",
          "name": "description",
          "type": "string"
        },
        {
          "internalType": "uint256",
          "name": "_fee",
          "type": "uint256"
        }
      ],
      "name": "addImageToAlbum",
      "outputs": [],
      "stateMutability": "nonpayable",
      "type": "function"
    },
    {
      "inputs": [
        {
          "internalType": "string",
          "name": "_name",
          "type": "string"
        },
        {
          "internalType": "string",
          "name": "description",
          "type": "string"
        },
        {
          "internalType": "address[]",
          "name": "_participants",
          "type": "address[]"
        },
        {
          "internalType": "string",
          "name": "_image",
          "type": "string"
        },
        {
          "internalType": "bool",
          "name": "visibility",
          "type": "bool"
        },
        {
          "internalType": "uint256",
          "name": "_fee",
          "type": "uint256"
        }
      ],
      "name": "createAlbum",
      "outputs": [],
      "stateMutability": "nonpayable",
      "type": "function"
    },
    {
      "inputs": [
        {
          "internalType": "uint256",
          "name": "albumId",
          "type": "uint256"
        },
        {
          "internalType": "uint256",
          "name": "imageId",
          "type": "uint256"
        }
      ],
      "name": "download",
      "outputs": [],
      "stateMutability": "payable",
      "type": "function"
    },
    {
      "inputs": [
        {
          "internalType": "uint256",
          "name": "albumId",
          "type": "uint256"
        }
      ],
      "name": "getAlbum",
      "outputs": [
        {
          "components": [
            {
              "internalType": "uint256",
              "name": "id",
              "type": "uint256"
            },
            {
              "internalType": "bool",
              "name": "visibility",
              "type": "bool"
            },
            {
              "internalType": "uint256",
              "name": "fee",
              "type": "uint256"
            },
            {
              "internalType": "address",
              "name": "owner",
              "type": "address"
            },
            {
              "internalType": "string",
              "name": "name",
              "type": "string"
            },
            {
              "internalType": "string",
              "name": "description",
              "type": "string"
            },
            {
              "internalType": "string",
              "name": "profileImage",
              "type": "string"
            },
            {
              "internalType": "uint256",
              "name": "created",
              "type": "uint256"
            },
            {
              "internalType": "address[]",
              "name": "participants",
              "type": "address[]"
            },
            {
              "internalType": "uint256",
              "name": "totalNoOfImages",
              "type": "uint256"
            }
          ],
          "internalType": "struct Trybe.Album",
          "name": "",
          "type": "tuple"
        }
      ],
      "stateMutability": "view",
      "type": "function"
    },
    {
      "inputs": [],
      "name": "getAlbums",
      "outputs": [
        {
          "components": [
            {
              "internalType": "uint256",
              "name": "id",
              "type": "uint256"
            },
            {
              "internalType": "bool",
              "name": "visibility",
              "type": "bool"
            },
            {
              "internalType": "uint256",
              "name": "fee",
              "type": "uint256"
            },
            {
              "internalType": "address",
              "name": "owner",
              "type": "address"
            },
            {
              "internalType": "string",
              "name": "name",
              "type": "string"
            },
            {
              "internalType": "string",
              "name": "description",
              "type": "string"
            },
            {
              "internalType": "string",
              "name": "profileImage",
              "type": "string"
            },
            {
              "internalType": "uint256",
              "name": "created",
              "type": "uint256"
            },
            {
              "internalType": "address[]",
              "name": "participants",
              "type": "address[]"
            },
            {
              "internalType": "uint256",
              "name": "totalNoOfImages",
              "type": "uint256"
            }
          ],
          "internalType": "struct Trybe.Album[]",
          "name": "",
          "type": "tuple[]"
        }
      ],
      "stateMutability": "view",
      "type": "function"
    },
    {
      "inputs": [
        {
          "internalType": "uint256",
          "name": "albumId",
          "type": "uint256"
        },
        {
          "internalType": "uint256",
          "name": "imageId",
          "type": "uint256"
        }
      ],
      "name": "getImageInAlbum",
      "outputs": [
        {
          "components": [
            {
              "internalType": "uint256",
              "name": "id",
              "type": "uint256"
            },
            {
              "internalType": "string",
              "name": "url",
              "type": "string"
            },
            {
              "internalType": "string",
              "name": "description",
              "type": "string"
            },
            {
              "internalType": "address",
              "name": "owner",
              "type": "address"
            },
            {
              "internalType": "uint256",
              "name": "created",
              "type": "uint256"
            },
            {
              "internalType": "uint256",
              "name": "fee",
              "type": "uint256"
            }
          ],
          "internalType": "struct Trybe.Image",
          "name": "",
          "type": "tuple"
        }
      ],
      "stateMutability": "view",
      "type": "function"
    },
    {
      "inputs": [],
      "name": "getImages",
      "outputs": [
        {
          "internalType": "string[]",
          "name": "",
          "type": "string[]"
        }
      ],
      "stateMutability": "view",
      "type": "function"
    },
    {
      "inputs": [
        {
          "internalType": "uint256",
          "name": "albumId",
          "type": "uint256"
        }
      ],
      "name": "getImagesInAlbum",
      "outputs": [
        {
          "components": [
            {
              "internalType": "uint256",
              "name": "id",
              "type": "uint256"
            },
            {
              "internalType": "string",
              "name": "url",
              "type": "string"
            },
            {
              "internalType": "string",
              "name": "description",
              "type": "string"
            },
            {
              "internalType": "address",
              "name": "owner",
              "type": "address"
            },
            {
              "internalType": "uint256",
              "name": "created",
              "type": "uint256"
            },
            {
              "internalType": "uint256",
              "name": "fee",
              "type": "uint256"
            }
          ],
          "internalType": "struct Trybe.Image[]",
          "name": "",
          "type": "tuple[]"
        }
      ],
      "stateMutability": "view",
      "type": "function"
    },
    {
      "inputs": [
        {
          "internalType": "uint256",
          "name": "albumId",
          "type": "uint256"
        }
      ],
      "name": "getListofParticipants",
      "outputs": [
        {
          "internalType": "address[]",
          "name": "",
          "type": "address[]"
        }
      ],
      "stateMutability": "view",
      "type": "function"
    },
    {
      "inputs": [
        {
          "internalType": "uint256",
          "name": "albumId",
          "type": "uint256"
        }
      ],
      "name": "joinAlbum",
      "outputs": [],
      "stateMutability": "payable",
      "type": "function"
    },
    {
      "inputs": [],
      "name": "owner",
      "outputs": [
        {
          "internalType": "address",
          "name": "",
          "type": "address"
        }
      ],
      "stateMutability": "view",
      "type": "function"
    },
    {
      "inputs": [],
      "name": "totalNoOfAlbumsCreated",
      "outputs": [
        {
          "internalType": "uint256",
          "name": "",
          "type": "uint256"
        }
      ],
      "stateMutability": "view",
      "type": "function"
    },
    {
      "inputs": [
        {
          "internalType": "string",
          "name": "url",
          "type": "string"
        }
      ],
      "name": "upload",
      "outputs": [],
      "stateMutability": "nonpayable",
      "type": "function"
    }
  ],
  "bytecode": "0x60803461006657601f611df038819003918201601f19168301916001600160401b0383118484101761006b578084926020946040528339810103126100665751600080546001600160a01b03191633178155600155600255604051611d6e90816100828239f35b600080fd5b634e487b7160e01b600052604160045260246000fdfe6080604052600436101561001257600080fd5b60003560e01c806311498334146111ef5780633b8f313b1461115957806342ce1488146110a057806345a1db6714610be75780635c51723414610a015780636d49f8cc146109e35780637446434b146107125780638d84d7fc146105a05780638da5cb5b14610577578063b027a7871461039e578063bce547201461025a578063ced038d11461011b5763d6e465c9146100ab57600080fd5b34610116576020366003190112610116576004356100c7611a2f565b508015158061010a575b6100da906115f8565b60005260046020526101066100f26040600020611a7f565b6040519182916020835260208301906113d7565b0390f35b506001548111156100d1565b600080fd5b346101165761012936611503565b90610132611caa565b508015158061024e575b610145906115f8565b81151580610233575b156101ee5760009060005b816000526004602052600860406000200180548210156101e2578161017d916116ea565b905460039190911b1c6001600160a01b0316331461019d57600101610159565b5090506101aa6001611c42565b60005260066020526040600020906000526020526101066101ce6040600020611cdd565b6040519182916020835260208301906114a9565b5050906101aa90611c42565b60405162461bcd60e51b815260206004820152601960248201527f5468697320696d61676520646f6573206e6f74206578697374000000000000006044820152606490fd5b5080600052600460205260096040600020015482111561014e565b5060015481111561013c565b61026336611503565b9080151580610392575b610276906115f8565b806000526004602052604060002090600660205260406000208360005260205260ff60016040600020930154168015610384575b1561033f577f1af01386275a45a15be18388f65d960ec0439847260e1f66a817d80e8e5b0adf926103326000808080604097600361031f8380808060646102f46002543490611866565b04966103008834611b57565b9601546001600160a01b03969087165af1610319611b64565b50611b94565b8254165af161032c611b64565b50611beb565b82519182526020820152a1005b60405162461bcd60e51b815260206004820152601e60248201527f546869732069732061207072697661746520616c62756d20696d6167652e00006044820152606490fd5b5060058201543410156102aa565b5060015481111561026d565b346101165760208060031936011261011657600435908115158061056b575b6103c6906115f8565b816000526004815260406000209060009160005b84600052600483526008604060002001805482101561055d57816103fd916116ea565b905460039190911b1c6001600160a01b0316331461041d576001016103da565b50600991925061042d6001611c42565b015491610439836113c0565b92610447604051948561133d565b808452610453816113c0565b601f190160005b81811061054157505060019160015b828111156104d35750505060405191808301818452845180915260408401918060408360051b8701019601926000905b8382106104a65786880387f35b909192939483806104c2839a603f198b820301865289516114a9565b999701959493919091019101610499565b8160009694965260068552604060002081600052855260406000209060001981019181831161052b576105239261050c61051d92611cdd565b6105168289611852565b5286611852565b50611843565b949294610469565b634e487b7160e01b600052601160045260246000fd5b849061054e969496611caa565b8282870101520194929461045a565b505061042d60099293611c42565b506001548211156103bd565b34610116576000366003190112610116576000546040516001600160a01b039091168152602090f35b60203660031901126101165760043580151580610706575b6105c1906115f8565b8060005260046020526040600020600191600182019060ff82541680156106f8575b156106b3576008906105f83360088601611b1c565b6000855b610665575b50505060ff919250541661063e575b6040514281527f59a4dadce245655ce4c5ea128f142c4034b1206deff52ff605866cd86433de8160203392a2005b600080808061065f94600361031f8380808060646102f46002543490611866565b80610610565b6003548110156106ae5781610679826118ad565b505414610688578501856105fc565b60ff9495506106a592915061069c906118ad565b50339101611b1c565b82918480610601565b610601565b60405162461bcd60e51b815260206004820152601860248201527f546869732069732061207072697661746520616c62756d2e00000000000000006044820152606490fd5b5060028301543410156105e3565b506001548111156105b8565b34610116576080366003190112610116576001600160401b0360043560243582811161011657610746903690600401611379565b916044359081116101165761075f903690600401611379565b90606435811515806109d7575b610775906115f8565b816000526020906004825260406000209360099460098101926107988454611843565b8455600080600884018054915b82811061099f575b5050501561093b5760005b60035481101561092e57866107cc826118ad565b5054146107db576001016107b8565b6107ec9097919293949596976118ad565b50016107f88154611843565b90555b60ff60018554930154166000146108dc57509060057f5138483d623eef75882d5ca6ed33e44c7ecafe842f3311844eabf67a297ce76c966040969594936000915b6108a289519561084b87611306565b8387528887019283528a87019081526108986060880193338552608089019542875260a08a019788528c60005260068c528d600020906000528b528c600020985189555160018901611774565b5160028701611774565b516003850180546001600160a01b0319166001600160a01b03929092169190911790555160048401555191015554835192835290820152a1005b670de0b6b3a76400009594939291959081810291818304149015171561052b577f5138483d623eef75882d5ca6ed33e44c7ecafe842f3311844eabf67a297ce76c966040966103e8600593049161083c565b50909192939495506107fb565b60405162461bcd60e51b815260048101869052603660248201527f4f6e6c792074686f73652077686f2068617665206a6f696e656420746865206160448201527536313ab69031b0b71030b2321030b71034b6b0b3b29760511b6064820152608490fd5b6109a981836116ea565b905460039190911b1c6001600160a01b031633146109c9576001016107a5565b5050505060018980806107ad565b5060015482111561076c565b34610116576000366003190112610116576020600154604051908152f35b346101165760003660031901126101165760008060038054925b838110610b7d5750610a45610a2f836113c0565b92610a3d604051948561133d565b8084526113c0565b60209390601f19018460005b828110610b6757505050906000916000905b808210610ac857604080518781528651818901819052600092600582901b8301810191898b01918b9085015b828710610a9c5785850386f35b909192938280610ab8600193603f198a820301865288516113d7565b9601920196019592919092610a8f565b90929460009492945b610ada856118ad565b50600880910154821015610b585781610afd91610af6886118ad565b50016116ea565b905490871b1c6001600160a01b03163314610b1a57600101610ad1565b5094610b4d600191610b38610b3287959698976118ad565b50611a7f565b610b428289611852565b5261051d8188611852565b915b01909291610a63565b50509490919392600190610b4f565b610b6f611a2f565b828288010152018590610a51565b909160005b610b8b836118ad565b50600880910154821015610bdb5781610ba791610af6866118ad565b905490851b1c6001600160a01b03163314610bc457600101610b82565b50610bd3600191939293611843565b925b01610a1b565b50509190600190610bd5565b346101165760c0366003190112610116576004356001600160401b03811161011657610c17903690600401611379565b6024356001600160401b03811161011657610c36903690600401611379565b90604435916001600160401b0383116101165736602384011215610116578260040135610c62816113c0565b93610c70604051958661133d565b8185526024602086019260051b8201019036821161011657602401915b818310611080575050506064356001600160401b03811161011657610cb6903690600401611379565b9160843515156084350361011657610ccf33151561169e565b80511561104657815115610fc557610ce8600154611843565b806001558451926001840180941161052b57610d1c610d06856113c0565b94610d14604051968761133d565b8086526113c0565b601f190136602086013760005b8651811015610d5a576001906001600160a01b03610d47828a611852565b5116610d538288611852565b5201610d29565b5083908587610d6b33915185611852565b528360005260046020526040600020938455610d98608435600186019060ff801983541691151516179055565b60843515610f9557610dd9610de29260005b60028701556003860180546001600160a01b03191633179055610dd08760048801611774565b60058601611774565b60068401611774565b4260078301558051906001600160401b038211610f6257602090610e098360088601611879565b0160088301600052602060002060005b838110610f78578585600981019060008255600354600160401b811015610f6257806001610e4a92016003556118ad565b929092610f4c57818303610e9f575b600154604080518181527fd3cc7c228a9442b3e32b7fb9e7ac4298594eeb118c36cbfbaf73feef8394627d91610e91908201886112c6565b9260208201528033930390a2005b610f40600883600994548655610ecb60ff600183015416600188019060ff801983541691151516179055565b600281015460028701556003860160018060a01b036003830154166bffffffffffffffffffffffff60a01b825416179055610f0c60048201600488016118e8565b610f1c60058201600588016118e8565b610f2c60068201600688016118e8565b6007810154600787015501600885016119c6565b54910155818080610e59565b634e487b7160e01b600052600060045260246000fd5b634e487b7160e01b600052604160045260246000fd5b82516001600160a01b031681830155602090920191600101610e19565b670de0b6b3a76400008060a435029060a43582041460a43515171561052b57610de2926103e8610dd99204610daa565b60405162461bcd60e51b815260206004820152604d60248201527f446573637269626520796f757220616c62756d20746f206c657420746865207760448201527f6f726c64206b6e6f7720686f7720796f752066656c74207768656e20796f752060648201526c31b932b0ba32b2103a3434b99760991b608482015260a490fd5b60405162461bcd60e51b8152602060048201526012602482015271283632b0b9b29030b2321030903730b6b29760711b6044820152606490fd5b82356001600160a01b038116810361011657815260209283019201610c8d565b34610116576020366003190112610116576004356001600160401b038111610116576110d0903690600401611379565b6110db33151561169e565b33600052600560205260406000208054600160401b811015610f6257611106916001820181556116ea565b610f4c578161111491611774565b7f34647a087c36357c4b77d3d7b4bc2b55d01c3ef8726dc75a70652d96e1510cc361114a604051926040845260408401906112c6565b914260208201528033930390a2005b346101165760208060031936011261011657600435801515806111e3575b611180906115f8565b600052600481526111976008604060002001611644565b906040519181839283018184528251809152816040850193019160005b8281106111c357505050500390f35b83516001600160a01b0316855286955093810193928101926001016111b4565b50600154811115611177565b34610116576000366003190112610116573360005260206005815260406000209081549161121c836113c0565b9261122a604051948561133d565b8084528284018092600052836000206000915b8383106112a45750505050604051918083019381845251809452604083019360408160051b85010192916000955b8287106112785785850386f35b909192938280611294600193603f198a820301865288516112c6565b960192019601959291909261126b565b60018681926112b5859a999a611553565b81520192019201919095949561123d565b919082519283825260005b8481106112f2575050826000602080949584010152601f8019910116010190565b6020818301810151848301820152016112d1565b60c081019081106001600160401b03821117610f6257604052565b61014081019081106001600160401b03821117610f6257604052565b90601f801991011681019081106001600160401b03821117610f6257604052565b6001600160401b038111610f6257601f01601f191660200190565b81601f82011215610116578035906113908261135e565b9261139e604051948561133d565b8284526020838301011161011657816000926020809301838601378301015290565b6001600160401b038111610f625760051b60200190565b906101409180518252602092838201511515848401526040820151604084015261144d61143b61142960608501519360018060a01b0380951660608801526080860151908060808901528701906112c6565b60a085015186820360a08801526112c6565b60c084015185820360c08701526112c6565b60e083015160e0850152610100948584015195858303908601528080875193848152019601926000905b8382106114905750505050506101208091015191015290565b8451811688529682019693820193600190910190611477565b908151815260a0806114df6114cd602086015160c0602087015260c08601906112c6565b604086015185820360408701526112c6565b93600180831b03606082015116606085015260808101516080850152015191015290565b6040906003190112610116576004359060243590565b90600182811c92168015611549575b602083101461153357565b634e487b7160e01b600052602260045260246000fd5b91607f1691611528565b9060405191826000825461156681611519565b908184526020946001916001811690816000146115d65750600114611597575b5050506115959250038361133d565b565b600090815285812095935091905b8183106115be5750506115959350820101388080611586565b855488840185015294850194879450918301916115a5565b9250505061159594925060ff191682840152151560051b820101388080611586565b156115ff57565b60405162461bcd60e51b815260206004820152601960248201527f5468697320616c62756d20646f6573206e6f74206578697374000000000000006044820152606490fd5b90604051918281549182825260209260208301916000526020600020936000905b82821061167b575050506115959250038361133d565b85546001600160a01b031684526001958601958895509381019390910190611665565b156116a557565b60405162461bcd60e51b815260206004820152601a60248201527f4e6f207a65726f2061646472657373657320616c6c6f7765642e0000000000006044820152606490fd5b80548210156117025760005260206000200190600090565b634e487b7160e01b600052603260045260246000fd5b818110611723575050565b60008155600101611718565b9190601f811161173e57505050565b611595926000526020600020906020601f840160051c8301931061176a575b601f0160051c0190611718565b909150819061175d565b91909182516001600160401b038111610f625761179b816117958454611519565b8461172f565b602080601f83116001146117de575081906117cf9394956000926117d3575b50508160011b916000199060031b1c19161790565b9055565b0151905038806117ba565b90601f19831695846000526020600020926000905b88821061182b57505083600195969710611812575b505050811b019055565b015160001960f88460031b161c19169055388080611808565b806001859682949686015181550195019301906117f3565b600019811461052b5760010190565b80518210156117025760209160051b010190565b8181029291811591840414171561052b57565b90600160401b8111610f625781549080835581811061189757505050565b6115959260005260206000209182019101611718565b60035481101561170257600a906003600052027fc2575a0e9e593c00f959f8c92f12db2869c3395a3b0502d05e2516446f71f85b0190600090565b908082146119c2576118fa8154611519565b906001600160401b038211610f625761191d826119178554611519565b8561172f565b600090601f8311600114611958576117cf92916000918361194d5750508160011b916000199060031b1c19161790565b0154905038806117ba565b815260208082208483528183209291601f1985169083905b8282106119a957505090846001959493921061199057505050811b019055565b015460001960f88460031b161c19169055388080611808565b8495819295850154815560018091019601940190611970565b5050565b8181146119c2578154916001600160401b038311610f62576119e88383611879565b60005260206000209060005260206000208154916000925b848410611a0e575050505050565b600191820180546001600160a01b0390921684860155939091019290611a00565b60405190611a3c82611321565b8161012060009182815282602082015282604082015282606082015260606080820152606060a0820152606060c08201528260e082015260606101008201520152565b90604051611a8c81611321565b82548152600183015460ff16151560208201526002830154604082015260038301546001600160a01b0316606082015291829061012090600990611ad260048201611553565b6080850152611ae360058201611553565b60a0850152611af460068201611553565b60c0850152600781015460e0850152611b0f60088201611644565b6101008501520154910152565b8054600160401b811015610f6257611b39916001820181556116ea565b60018060a09493941b038084549260031b9316831b921b1916179055565b9190820391821161052b57565b3d15611b8f573d90611b758261135e565b91611b83604051938461133d565b82523d6000602084013e565b606090565b15611b9b57565b60405162461bcd60e51b815260206004820152602260248201527f466565207061796d656e7420746f20616c62756d206f776e6572206661696c65604482015261321760f11b6064820152608490fd5b15611bf257565b60405162461bcd60e51b815260206004820152602260248201527f466565207061796d656e7420746f207472796265206f776e6572206661696c65604482015261321760f11b6064820152608490fd5b15611c4957565b60405162461bcd60e51b815260206004820152603360248201527f4f6e6c792074686f73652077686f2068617665206a6f696e656420746865206160448201527236313ab69039b2b2903a34329030b6313ab69760691b6064820152608490fd5b60405190611cb782611306565b600060a08382815260606020820152606060408201528260608201528260808201520152565b90604051611cea81611306565b60a06005829480548452611d0060018201611553565b6020850152611d1160028201611553565b6040850152600180841b03600382015416606085015260048101546080850152015491015256fea26469706673582212204e9d0422a8ebc6b0f9be09f889f9a868b1fcb55c4b6a731393c25f3ddd53c64e64736f6c63430008180033",
  "linkReferences": {},
  "deployedLinkReferences": {}
}