{
  "_format": "hh-sol-artifact-1",
  "contractName": "Trybe",
  "sourceName": "contracts/Trybe.sol",
  "abi": [
    {
      "inputs": [
        {
          "internalType": "uint256",
          "name": "_fee",
          "type": "uint256"
        }
      ],
      "stateMutability": "nonpayable",
      "type": "constructor"
    },
    {
      "anonymous": false,
      "inputs": [
        {
          "indexed": true,
          "internalType": "address",
          "name": "creator",
          "type": "address"
        },
        {
          "indexed": false,
          "internalType": "string",
          "name": "nameOfAlbum",
          "type": "string"
        },
        {
          "indexed": false,
          "internalType": "uint256",
          "name": "albumId",
          "type": "uint256"
        }
      ],
      "name": "AlbumCreated",
      "type": "event"
    },
    {
      "anonymous": false,
      "inputs": [
        {
          "indexed": false,
          "internalType": "uint256",
          "name": "albumId",
          "type": "uint256"
        },
        {
          "indexed": false,
          "internalType": "uint256",
          "name": "imageId",
          "type": "uint256"
        }
      ],
      "name": "ImageAdded",
      "type": "event"
    },
    {
      "anonymous": false,
      "inputs": [
        {
          "indexed": false,
          "internalType": "uint256",
          "name": "albumId",
          "type": "uint256"
        },
        {
          "indexed": false,
          "internalType": "uint256",
          "name": "imageId",
          "type": "uint256"
        }
      ],
      "name": "ImageDownloaded",
      "type": "event"
    },
    {
      "anonymous": false,
      "inputs": [
        {
          "indexed": true,
          "internalType": "address",
          "name": "participant",
          "type": "address"
        },
        {
          "indexed": false,
          "internalType": "uint256",
          "name": "timeJoined",
          "type": "uint256"
        }
      ],
      "name": "JoinedAlbum",
      "type": "event"
    },
    {
      "anonymous": false,
      "inputs": [
        {
          "indexed": true,
          "internalType": "address",
          "name": "user",
          "type": "address"
        },
        {
          "indexed": false,
          "internalType": "uint256",
          "name": "createdAt",
          "type": "uint256"
        }
      ],
      "name": "Upload",
      "type": "event"
    },
    {
      "inputs": [
        {
          "internalType": "uint256",
          "name": "albumId",
          "type": "uint256"
        },
        {
          "internalType": "string[]",
          "name": "urls",
          "type": "string[]"
        },
        {
          "internalType": "string",
          "name": "description",
          "type": "string"
        },
        {
          "internalType": "uint256",
          "name": "_fee",
          "type": "uint256"
        }
      ],
      "name": "addImageToAlbum",
      "outputs": [],
      "stateMutability": "nonpayable",
      "type": "function"
    },
    {
      "inputs": [
        {
          "internalType": "string",
          "name": "_name",
          "type": "string"
        },
        {
          "internalType": "string",
          "name": "description",
          "type": "string"
        },
        {
          "internalType": "address[]",
          "name": "_participants",
          "type": "address[]"
        },
        {
          "internalType": "string",
          "name": "_image",
          "type": "string"
        },
        {
          "internalType": "bool",
          "name": "visibility",
          "type": "bool"
        },
        {
          "internalType": "uint256",
          "name": "_fee",
          "type": "uint256"
        }
      ],
      "name": "createAlbum",
      "outputs": [],
      "stateMutability": "nonpayable",
      "type": "function"
    },
    {
      "inputs": [
        {
          "internalType": "uint256",
          "name": "albumId",
          "type": "uint256"
        },
        {
          "internalType": "uint256",
          "name": "imageId",
          "type": "uint256"
        }
      ],
      "name": "download",
      "outputs": [],
      "stateMutability": "payable",
      "type": "function"
    },
    {
      "inputs": [
        {
          "internalType": "uint256",
          "name": "albumId",
          "type": "uint256"
        }
      ],
      "name": "getAlbum",
      "outputs": [
        {
          "components": [
            {
              "internalType": "uint256",
              "name": "id",
              "type": "uint256"
            },
            {
              "internalType": "bool",
              "name": "visibility",
              "type": "bool"
            },
            {
              "internalType": "uint256",
              "name": "fee",
              "type": "uint256"
            },
            {
              "internalType": "address",
              "name": "owner",
              "type": "address"
            },
            {
              "internalType": "string",
              "name": "name",
              "type": "string"
            },
            {
              "internalType": "string",
              "name": "description",
              "type": "string"
            },
            {
              "internalType": "string",
              "name": "profileImage",
              "type": "string"
            },
            {
              "internalType": "uint256",
              "name": "created",
              "type": "uint256"
            },
            {
              "internalType": "address[]",
              "name": "participants",
              "type": "address[]"
            },
            {
              "internalType": "uint256",
              "name": "totalNoOfImages",
              "type": "uint256"
            }
          ],
          "internalType": "struct Trybe.Album",
          "name": "",
          "type": "tuple"
        }
      ],
      "stateMutability": "view",
      "type": "function"
    },
    {
      "inputs": [],
      "name": "getAlbums",
      "outputs": [
        {
          "components": [
            {
              "internalType": "uint256",
              "name": "id",
              "type": "uint256"
            },
            {
              "internalType": "bool",
              "name": "visibility",
              "type": "bool"
            },
            {
              "internalType": "uint256",
              "name": "fee",
              "type": "uint256"
            },
            {
              "internalType": "address",
              "name": "owner",
              "type": "address"
            },
            {
              "internalType": "string",
              "name": "name",
              "type": "string"
            },
            {
              "internalType": "string",
              "name": "description",
              "type": "string"
            },
            {
              "internalType": "string",
              "name": "profileImage",
              "type": "string"
            },
            {
              "internalType": "uint256",
              "name": "created",
              "type": "uint256"
            },
            {
              "internalType": "address[]",
              "name": "participants",
              "type": "address[]"
            },
            {
              "internalType": "uint256",
              "name": "totalNoOfImages",
              "type": "uint256"
            }
          ],
          "internalType": "struct Trybe.Album[]",
          "name": "",
          "type": "tuple[]"
        }
      ],
      "stateMutability": "view",
      "type": "function"
    },
    {
      "inputs": [
        {
          "internalType": "uint256",
          "name": "albumId",
          "type": "uint256"
        },
        {
          "internalType": "uint256",
          "name": "imageId",
          "type": "uint256"
        }
      ],
      "name": "getImageInAlbum",
      "outputs": [
        {
          "components": [
            {
              "internalType": "uint256",
              "name": "id",
              "type": "uint256"
            },
            {
              "internalType": "string",
              "name": "url",
              "type": "string"
            },
            {
              "internalType": "string",
              "name": "description",
              "type": "string"
            },
            {
              "internalType": "address",
              "name": "owner",
              "type": "address"
            },
            {
              "internalType": "uint256",
              "name": "created",
              "type": "uint256"
            },
            {
              "internalType": "uint256",
              "name": "fee",
              "type": "uint256"
            }
          ],
          "internalType": "struct Trybe.Image",
          "name": "",
          "type": "tuple"
        }
      ],
      "stateMutability": "view",
      "type": "function"
    },
    {
      "inputs": [],
      "name": "getImages",
      "outputs": [
        {
          "internalType": "string[]",
          "name": "",
          "type": "string[]"
        }
      ],
      "stateMutability": "view",
      "type": "function"
    },
    {
      "inputs": [
        {
          "internalType": "uint256",
          "name": "albumId",
          "type": "uint256"
        }
      ],
      "name": "getImagesInAlbum",
      "outputs": [
        {
          "components": [
            {
              "internalType": "uint256",
              "name": "id",
              "type": "uint256"
            },
            {
              "internalType": "string",
              "name": "url",
              "type": "string"
            },
            {
              "internalType": "string",
              "name": "description",
              "type": "string"
            },
            {
              "internalType": "address",
              "name": "owner",
              "type": "address"
            },
            {
              "internalType": "uint256",
              "name": "created",
              "type": "uint256"
            },
            {
              "internalType": "uint256",
              "name": "fee",
              "type": "uint256"
            }
          ],
          "internalType": "struct Trybe.Image[]",
          "name": "",
          "type": "tuple[]"
        }
      ],
      "stateMutability": "view",
      "type": "function"
    },
    {
      "inputs": [
        {
          "internalType": "uint256",
          "name": "albumId",
          "type": "uint256"
        }
      ],
      "name": "getListofParticipants",
      "outputs": [
        {
          "internalType": "address[]",
          "name": "",
          "type": "address[]"
        }
      ],
      "stateMutability": "view",
      "type": "function"
    },
    {
      "inputs": [
        {
          "internalType": "uint256",
          "name": "albumId",
          "type": "uint256"
        }
      ],
      "name": "joinAlbum",
      "outputs": [],
      "stateMutability": "payable",
      "type": "function"
    },
    {
      "inputs": [],
      "name": "owner",
      "outputs": [
        {
          "internalType": "address",
          "name": "",
          "type": "address"
        }
      ],
      "stateMutability": "view",
      "type": "function"
    },
    {
      "inputs": [],
      "name": "totalNoOfAlbumsCreated",
      "outputs": [
        {
          "internalType": "uint256",
          "name": "",
          "type": "uint256"
        }
      ],
      "stateMutability": "view",
      "type": "function"
    },
    {
      "inputs": [
        {
          "internalType": "string[]",
          "name": "urls",
          "type": "string[]"
        }
      ],
      "name": "upload",
      "outputs": [],
      "stateMutability": "nonpayable",
      "type": "function"
    }
  ],
  "bytecode": "0x60803461006657601f611e7c38819003918201601f19168301916001600160401b0383118484101761006b578084926020946040528339810103126100665751600080546001600160a01b03191633178155600155600255604051611dfa90816100828239f35b600080fd5b634e487b7160e01b600052604160045260246000fdfe6080604052600436101561001257600080fd5b60003560e01c806311498334146111fc57806325d72e3b146111385780633b8f313b146110a257806345a1db6714610be95780635c51723414610a035780636c4860fe146107305780636d49f8cc146107125780638d84d7fc146105a05780638da5cb5b14610577578063b027a7871461039e578063bce547201461025a578063ced038d11461011b5763d6e465c9146100ab57600080fd5b34610116576020366003190112610116576004356100c7611abb565b508015158061010a575b6100da9061183d565b60005260046020526101066100f26040600020611b0b565b604051918291602083526020830190611463565b0390f35b506001548111156100d1565b600080fd5b34610116576101293661158f565b90610132611d36565b508015158061024e575b6101459061183d565b81151580610233575b156101ee5760009060005b816000526004602052600860406000200180548210156101e2578161017d916116fa565b905460039190911b1c6001600160a01b0316331461019d57600101610159565b5090506101aa6001611cce565b60005260066020526040600020906000526020526101066101ce6040600020611d69565b604051918291602083526020830190611535565b5050906101aa90611cce565b60405162461bcd60e51b815260206004820152601960248201527f5468697320696d61676520646f6573206e6f74206578697374000000000000006044820152606490fd5b5080600052600460205260096040600020015482111561014e565b5060015481111561013c565b6102633661158f565b9080151580610392575b6102769061183d565b806000526004602052604060002090600660205260406000208360005260205260ff60016040600020930154168015610384575b1561033f577f1af01386275a45a15be18388f65d960ec0439847260e1f66a817d80e8e5b0adf926103326000808080604097600361031f8380808060646102f460025434906118f2565b04966103008834611be3565b9601546001600160a01b03969087165af1610319611bf0565b50611c20565b8254165af161032c611bf0565b50611c77565b82519182526020820152a1005b60405162461bcd60e51b815260206004820152601e60248201527f546869732069732061207072697661746520616c62756d20696d6167652e00006044820152606490fd5b5060058201543410156102aa565b5060015481111561026d565b346101165760208060031936011261011657600435908115158061056b575b6103c69061183d565b816000526004815260406000209060009160005b84600052600483526008604060002001805482101561055d57816103fd916116fa565b905460039190911b1c6001600160a01b0316331461041d576001016103da565b50600991925061042d6001611cce565b0154916104398361136b565b92610447604051948561134a565b8084526104538161136b565b601f190160005b81811061054157505060019160015b828111156104d35750505060405191808301818452845180915260408401918060408360051b8701019601926000905b8382106104a65786880387f35b909192939483806104c2839a603f198b82030186528951611535565b999701959493919091019101610499565b8160009694965260068552604060002081600052855260406000209060001981019181831161052b576105239261050c61051d92611d69565b61051682896116d0565b52866116d0565b506118e3565b949294610469565b634e487b7160e01b600052601160045260246000fd5b849061054e969496611d36565b8282870101520194929461045a565b505061042d60099293611cce565b506001548211156103bd565b34610116576000366003190112610116576000546040516001600160a01b039091168152602090f35b60203660031901126101165760043580151580610706575b6105c19061183d565b8060005260046020526040600020600191600182019060ff82541680156106f8575b156106b3576008906105f83360088601611ba8565b6000855b610665575b50505060ff919250541661063e575b6040514281527f59a4dadce245655ce4c5ea128f142c4034b1206deff52ff605866cd86433de8160203392a2005b600080808061065f94600361031f8380808060646102f460025434906118f2565b80610610565b6003548110156106ae578161067982611939565b505414610688578501856105fc565b60ff9495506106a592915061069c90611939565b50339101611ba8565b82918480610601565b610601565b60405162461bcd60e51b815260206004820152601860248201527f546869732069732061207072697661746520616c62756d2e00000000000000006044820152606490fd5b5060028301543410156105e3565b506001548111156105b8565b34610116576000366003190112610116576020600154604051908152f35b34610116576080366003190112610116576001600160401b03602435818111610116576107619036906004016113e4565b906044359081116101165761077a90369060040161139d565b6004351515806109f5575b61078e9061183d565b6004356000526004602052604060002090600080600884018054915b8281106109bd575b50505015610959576000905b8351821015610921576107d460098401546118e3565b600984015560005b60035481101561091a576107ef81611939565b505460043514610801576001016107dc565b61080f600991939293611939565b500161081b81546118e3565b90555b60098301549061082e81866116d0565b51600185015460ff16156108e85760056001936000905b6040519361085285611313565b818552602085019081526108b3604086018981526108a96060880193338552608089019542875260a08a019788526004356000526006602052604060002090600052602052604060002098518955518a890161176e565b516002870161176e565b6003850190878060a01b039051166bffffffffffffffffffffffff60a01b8254161790555160048401555191015501906107be565b670de0b6b3a7640000606435816064350204811460643515171561052b576001936103e8600592606435020490610845565b509061081e565b7f5138483d623eef75882d5ca6ed33e44c7ecafe842f3311844eabf67a297ce76c6040600985015481519060043582526020820152a1005b60405162461bcd60e51b815260206004820152603660248201527f4f6e6c792074686f73652077686f2068617665206a6f696e656420746865206160448201527536313ab69031b0b71030b2321030b71034b6b0b3b29760511b6064820152608490fd5b6109c781836116fa565b905460039190911b1c6001600160a01b031633146109e7576001016107aa565b5050505060018480806107b2565b506001546004351115610785565b346101165760003660031901126101165760008060038054925b838110610b7f5750610a47610a318361136b565b92610a3f604051948561134a565b80845261136b565b60209390601f19018460005b828110610b6957505050906000916000905b808210610aca57604080518781528651818901819052600092600582901b8301810191898b01918b9085015b828710610a9e5785850386f35b909192938280610aba600193603f198a82030186528851611463565b9601920196019592919092610a91565b90929460009492945b610adc85611939565b50600880910154821015610b5a5781610aff91610af888611939565b50016116fa565b905490871b1c6001600160a01b03163314610b1c57600101610ad3565b5094610b4f600191610b3a610b348795969897611939565b50611b0b565b610b4482896116d0565b5261051d81886116d0565b915b01909291610a65565b50509490919392600190610b51565b610b71611abb565b828288010152018590610a53565b909160005b610b8d83611939565b50600880910154821015610bdd5781610ba991610af886611939565b905490851b1c6001600160a01b03163314610bc657600101610b84565b50610bd56001919392936118e3565b925b01610a1d565b50509190600190610bd7565b346101165760c0366003190112610116576004356001600160401b03811161011657610c1990369060040161139d565b6024356001600160401b03811161011657610c3890369060040161139d565b90604435916001600160401b0383116101165736602384011215610116578260040135610c648161136b565b93610c72604051958661134a565b8185526024602086019260051b8201019036821161011657602401915b818310611082575050506064356001600160401b03811161011657610cb890369060040161139d565b9160843515156084350361011657610cd1331515611684565b80511561104857815115610fc757610cea6001546118e3565b806001558451926001840180941161052b57610d1e610d088561136b565b94610d16604051968761134a565b80865261136b565b601f190136602086013760005b8651811015610d5c576001906001600160a01b03610d49828a6116d0565b5116610d5582886116d0565b5201610d2b565b5083908587610d6d339151856116d0565b528360005260046020526040600020938455610d9a608435600186019060ff801983541691151516179055565b60843515610f9757610ddb610de49260005b60028701556003860180546001600160a01b03191633179055610dd2876004880161176e565b6005860161176e565b6006840161176e565b4260078301558051906001600160401b038211610f6457602090610e0b8360088601611905565b0160088301600052602060002060005b838110610f7a578585600981019060008255600354600160401b811015610f6457806001610e4c9201600355611939565b929092610f4e57818303610ea1575b600154604080518181527fd3cc7c228a9442b3e32b7fb9e7ac4298594eeb118c36cbfbaf73feef8394627d91610e93908201886112d3565b9260208201528033930390a2005b610f42600883600994548655610ecd60ff600183015416600188019060ff801983541691151516179055565b600281015460028701556003860160018060a01b036003830154166bffffffffffffffffffffffff60a01b825416179055610f0e6004820160048801611974565b610f1e6005820160058801611974565b610f2e6006820160068801611974565b600781015460078701550160088501611a52565b54910155818080610e5b565b634e487b7160e01b600052600060045260246000fd5b634e487b7160e01b600052604160045260246000fd5b82516001600160a01b031681830155602090920191600101610e1b565b670de0b6b3a76400008060a435029060a43582041460a43515171561052b57610de4926103e8610ddb9204610dac565b60405162461bcd60e51b815260206004820152604d60248201527f446573637269626520796f757220616c62756d20746f206c657420746865207760448201527f6f726c64206b6e6f7720686f7720796f752066656c74207768656e20796f752060648201526c31b932b0ba32b2103a3434b99760991b608482015260a490fd5b60405162461bcd60e51b8152602060048201526012602482015271283632b0b9b29030b2321030903730b6b29760711b6044820152606490fd5b82356001600160a01b038116810361011657815260209283019201610c8f565b3461011657602080600319360112610116576004358015158061112c575b6110c99061183d565b600052600481526110e06008604060002001611889565b906040519181839283018184528251809152816040850193019160005b82811061110c57505050500390f35b83516001600160a01b0316855286955093810193928101926001016110fd565b506001548111156110c0565b3461011657602080600319360112610116576004356001600160401b038111610116576111699036906004016113e4565b90611175331515611684565b60005b82518110156111ce57336000526005825260406000209061119981856116d0565b51918054600160401b811015610f64576111b8916001820181556116fa565b610f4e576001926111c89161176e565b01611178565b6040514281527fb782e3441c7b8dddc1c1f7273897e80478887bb10c5de03751a571614df7c7f260203392a2005b3461011657600036600319011261011657336000526020600581526040600020908154916112298361136b565b92611237604051948561134a565b8084528284018092600052836000206000915b8383106112b15750505050604051918083019381845251809452604083019360408160051b85010192916000955b8287106112855785850386f35b9091929382806112a1600193603f198a820301865288516112d3565b9601920196019592919092611278565b60018681926112c2859a999a6115df565b81520192019201919095949561124a565b919082519283825260005b8481106112ff575050826000602080949584010152601f8019910116010190565b6020818301810151848301820152016112de565b60c081019081106001600160401b03821117610f6457604052565b61014081019081106001600160401b03821117610f6457604052565b90601f801991011681019081106001600160401b03821117610f6457604052565b6001600160401b038111610f645760051b60200190565b6001600160401b038111610f6457601f01601f191660200190565b81601f82011215610116578035906113b482611382565b926113c2604051948561134a565b8284526020838301011161011657816000926020809301838601378301015290565b81601f82011215610116578035916020916113fe8461136b565b9361140c604051958661134a565b808552838086019160051b8301019280841161011657848301915b8483106114375750505050505090565b82356001600160401b0381116101165786916114588484809489010161139d565b815201920191611427565b90610140918051825260209283820151151584840152604082015160408401526114d96114c76114b560608501519360018060a01b0380951660608801526080860151908060808901528701906112d3565b60a085015186820360a08801526112d3565b60c084015185820360c08701526112d3565b60e083015160e0850152610100948584015195858303908601528080875193848152019601926000905b83821061151c5750505050506101208091015191015290565b8451811688529682019693820193600190910190611503565b908151815260a08061156b611559602086015160c0602087015260c08601906112d3565b604086015185820360408701526112d3565b93600180831b03606082015116606085015260808101516080850152015191015290565b6040906003190112610116576004359060243590565b90600182811c921680156115d5575b60208310146115bf57565b634e487b7160e01b600052602260045260246000fd5b91607f16916115b4565b906040519182600082546115f2816115a5565b908184526020946001916001811690816000146116625750600114611623575b5050506116219250038361134a565b565b600090815285812095935091905b81831061164a5750506116219350820101388080611612565b85548884018501529485019487945091830191611631565b9250505061162194925060ff191682840152151560051b820101388080611612565b1561168b57565b60405162461bcd60e51b815260206004820152601a60248201527f4e6f207a65726f2061646472657373657320616c6c6f7765642e0000000000006044820152606490fd5b80518210156116e45760209160051b010190565b634e487b7160e01b600052603260045260246000fd5b80548210156116e45760005260206000200190600090565b81811061171d575050565b60008155600101611712565b9190601f811161173857505050565b611621926000526020600020906020601f840160051c83019310611764575b601f0160051c0190611712565b9091508190611757565b91909182516001600160401b038111610f64576117958161178f84546115a5565b84611729565b602080601f83116001146117d8575081906117c99394956000926117cd575b50508160011b916000199060031b1c19161790565b9055565b0151905038806117b4565b90601f19831695846000526020600020926000905b8882106118255750508360019596971061180c575b505050811b019055565b015160001960f88460031b161c19169055388080611802565b806001859682949686015181550195019301906117ed565b1561184457565b60405162461bcd60e51b815260206004820152601960248201527f5468697320616c62756d20646f6573206e6f74206578697374000000000000006044820152606490fd5b90604051918281549182825260209260208301916000526020600020936000905b8282106118c0575050506116219250038361134a565b85546001600160a01b0316845260019586019588955093810193909101906118aa565b600019811461052b5760010190565b8181029291811591840414171561052b57565b90600160401b8111610f645781549080835581811061192357505050565b6116219260005260206000209182019101611712565b6003548110156116e457600a906003600052027fc2575a0e9e593c00f959f8c92f12db2869c3395a3b0502d05e2516446f71f85b0190600090565b90808214611a4e5761198681546115a5565b906001600160401b038211610f64576119a9826119a385546115a5565b85611729565b600090601f83116001146119e4576117c99291600091836119d95750508160011b916000199060031b1c19161790565b0154905038806117b4565b815260208082208483528183209291601f1985169083905b828210611a35575050908460019594939210611a1c57505050811b019055565b015460001960f88460031b161c19169055388080611802565b84958192958501548155600180910196019401906119fc565b5050565b818114611a4e578154916001600160401b038311610f6457611a748383611905565b60005260206000209060005260206000208154916000925b848410611a9a575050505050565b600191820180546001600160a01b0390921684860155939091019290611a8c565b60405190611ac88261132e565b8161012060009182815282602082015282604082015282606082015260606080820152606060a0820152606060c08201528260e082015260606101008201520152565b90604051611b188161132e565b82548152600183015460ff16151560208201526002830154604082015260038301546001600160a01b0316606082015291829061012090600990611b5e600482016115df565b6080850152611b6f600582016115df565b60a0850152611b80600682016115df565b60c0850152600781015460e0850152611b9b60088201611889565b6101008501520154910152565b8054600160401b811015610f6457611bc5916001820181556116fa565b60018060a09493941b038084549260031b9316831b921b1916179055565b9190820391821161052b57565b3d15611c1b573d90611c0182611382565b91611c0f604051938461134a565b82523d6000602084013e565b606090565b15611c2757565b60405162461bcd60e51b815260206004820152602260248201527f466565207061796d656e7420746f20616c62756d206f776e6572206661696c65604482015261321760f11b6064820152608490fd5b15611c7e57565b60405162461bcd60e51b815260206004820152602260248201527f466565207061796d656e7420746f207472796265206f776e6572206661696c65604482015261321760f11b6064820152608490fd5b15611cd557565b60405162461bcd60e51b815260206004820152603360248201527f4f6e6c792074686f73652077686f2068617665206a6f696e656420746865206160448201527236313ab69039b2b2903a34329030b6313ab69760691b6064820152608490fd5b60405190611d4382611313565b600060a08382815260606020820152606060408201528260608201528260808201520152565b90604051611d7681611313565b60a06005829480548452611d8c600182016115df565b6020850152611d9d600282016115df565b6040850152600180841b03600382015416606085015260048101546080850152015491015256fea2646970667358221220f74447b3913b6cb4c34a340de6886910d2628a3d022bf5af4558cadfde06d99364736f6c63430008180033",
  "linkReferences": {},
  "deployedLinkReferences": {}
}