{
  "_format": "hh-sol-artifact-1",
  "contractName": "Trybe",
  "sourceName": "contracts/Trybe.sol",
  "abi": [
    {
      "inputs": [
        {
          "internalType": "uint256",
          "name": "_fee",
          "type": "uint256"
        }
      ],
      "stateMutability": "nonpayable",
      "type": "constructor"
    },
    {
      "anonymous": false,
      "inputs": [
        {
          "indexed": true,
          "internalType": "address",
          "name": "creator",
          "type": "address"
        },
        {
          "indexed": false,
          "internalType": "string",
          "name": "nameOfAlbum",
          "type": "string"
        },
        {
          "indexed": false,
          "internalType": "uint256",
          "name": "albumId",
          "type": "uint256"
        }
      ],
      "name": "AlbumCreated",
      "type": "event"
    },
    {
      "anonymous": false,
      "inputs": [
        {
          "indexed": false,
          "internalType": "uint256",
          "name": "albumId",
          "type": "uint256"
        },
        {
          "indexed": false,
          "internalType": "uint256",
          "name": "imageId",
          "type": "uint256"
        }
      ],
      "name": "ImageAdded",
      "type": "event"
    },
    {
      "anonymous": false,
      "inputs": [
        {
          "indexed": true,
          "internalType": "address",
          "name": "participant",
          "type": "address"
        },
        {
          "indexed": false,
          "internalType": "uint256",
          "name": "timeJoined",
          "type": "uint256"
        }
      ],
      "name": "JoinedAlbum",
      "type": "event"
    },
    {
      "anonymous": false,
      "inputs": [
        {
          "indexed": true,
          "internalType": "address",
          "name": "user",
          "type": "address"
        },
        {
          "indexed": false,
          "internalType": "string",
          "name": "url",
          "type": "string"
        },
        {
          "indexed": false,
          "internalType": "uint256",
          "name": "createdAt",
          "type": "uint256"
        }
      ],
      "name": "Upload",
      "type": "event"
    },
    {
      "inputs": [
        {
          "internalType": "uint256",
          "name": "albumId",
          "type": "uint256"
        },
        {
          "internalType": "string",
          "name": "_url",
          "type": "string"
        },
        {
          "internalType": "string",
          "name": "_description",
          "type": "string"
        }
      ],
      "name": "addImageToAlbum",
      "outputs": [],
      "stateMutability": "nonpayable",
      "type": "function"
    },
    {
      "inputs": [
        {
          "internalType": "string",
          "name": "_name",
          "type": "string"
        },
        {
          "internalType": "string",
          "name": "description",
          "type": "string"
        },
        {
          "internalType": "address[]",
          "name": "_participants",
          "type": "address[]"
        },
        {
          "internalType": "string",
          "name": "_image",
          "type": "string"
        },
        {
          "internalType": "uint8",
          "name": "visibility",
          "type": "uint8"
        },
        {
          "internalType": "uint256",
          "name": "_fee",
          "type": "uint256"
        }
      ],
      "name": "createAlbum",
      "outputs": [],
      "stateMutability": "nonpayable",
      "type": "function"
    },
    {
      "inputs": [
        {
          "internalType": "uint256",
          "name": "albumId",
          "type": "uint256"
        }
      ],
      "name": "download",
      "outputs": [],
      "stateMutability": "payable",
      "type": "function"
    },
    {
      "inputs": [
        {
          "internalType": "uint256",
          "name": "albumId",
          "type": "uint256"
        }
      ],
      "name": "getAlbum",
      "outputs": [
        {
          "components": [
            {
              "internalType": "uint256",
              "name": "id",
              "type": "uint256"
            },
            {
              "internalType": "uint8",
              "name": "visibility",
              "type": "uint8"
            },
            {
              "internalType": "uint256",
              "name": "fee",
              "type": "uint256"
            },
            {
              "internalType": "address",
              "name": "owner",
              "type": "address"
            },
            {
              "internalType": "string",
              "name": "name",
              "type": "string"
            },
            {
              "internalType": "string",
              "name": "description",
              "type": "string"
            },
            {
              "internalType": "string",
              "name": "profileImage",
              "type": "string"
            },
            {
              "internalType": "uint256",
              "name": "created",
              "type": "uint256"
            },
            {
              "internalType": "address[]",
              "name": "participants",
              "type": "address[]"
            },
            {
              "internalType": "uint256",
              "name": "totalNoOfImages",
              "type": "uint256"
            }
          ],
          "internalType": "struct Trybe.Album",
          "name": "",
          "type": "tuple"
        }
      ],
      "stateMutability": "view",
      "type": "function"
    },
    {
      "inputs": [],
      "name": "getAlbums",
      "outputs": [
        {
          "components": [
            {
              "internalType": "uint256",
              "name": "id",
              "type": "uint256"
            },
            {
              "internalType": "uint8",
              "name": "visibility",
              "type": "uint8"
            },
            {
              "internalType": "uint256",
              "name": "fee",
              "type": "uint256"
            },
            {
              "internalType": "address",
              "name": "owner",
              "type": "address"
            },
            {
              "internalType": "string",
              "name": "name",
              "type": "string"
            },
            {
              "internalType": "string",
              "name": "description",
              "type": "string"
            },
            {
              "internalType": "string",
              "name": "profileImage",
              "type": "string"
            },
            {
              "internalType": "uint256",
              "name": "created",
              "type": "uint256"
            },
            {
              "internalType": "address[]",
              "name": "participants",
              "type": "address[]"
            },
            {
              "internalType": "uint256",
              "name": "totalNoOfImages",
              "type": "uint256"
            }
          ],
          "internalType": "struct Trybe.Album[]",
          "name": "",
          "type": "tuple[]"
        }
      ],
      "stateMutability": "view",
      "type": "function"
    },
    {
      "inputs": [
        {
          "internalType": "uint256",
          "name": "albumId",
          "type": "uint256"
        },
        {
          "internalType": "uint256",
          "name": "imageId",
          "type": "uint256"
        }
      ],
      "name": "getImageInAlbum",
      "outputs": [
        {
          "components": [
            {
              "internalType": "uint256",
              "name": "id",
              "type": "uint256"
            },
            {
              "internalType": "string",
              "name": "url",
              "type": "string"
            },
            {
              "internalType": "string",
              "name": "description",
              "type": "string"
            },
            {
              "internalType": "address",
              "name": "owner",
              "type": "address"
            }
          ],
          "internalType": "struct Trybe.Image",
          "name": "",
          "type": "tuple"
        }
      ],
      "stateMutability": "view",
      "type": "function"
    },
    {
      "inputs": [],
      "name": "getImages",
      "outputs": [
        {
          "internalType": "string[]",
          "name": "",
          "type": "string[]"
        }
      ],
      "stateMutability": "view",
      "type": "function"
    },
    {
      "inputs": [
        {
          "internalType": "uint256",
          "name": "albumId",
          "type": "uint256"
        }
      ],
      "name": "getImagesInAlbum",
      "outputs": [
        {
          "components": [
            {
              "internalType": "uint256",
              "name": "id",
              "type": "uint256"
            },
            {
              "internalType": "string",
              "name": "url",
              "type": "string"
            },
            {
              "internalType": "string",
              "name": "description",
              "type": "string"
            },
            {
              "internalType": "address",
              "name": "owner",
              "type": "address"
            }
          ],
          "internalType": "struct Trybe.Image[]",
          "name": "",
          "type": "tuple[]"
        }
      ],
      "stateMutability": "view",
      "type": "function"
    },
    {
      "inputs": [
        {
          "internalType": "uint256",
          "name": "albumId",
          "type": "uint256"
        }
      ],
      "name": "getListofParticipants",
      "outputs": [
        {
          "internalType": "address[]",
          "name": "",
          "type": "address[]"
        }
      ],
      "stateMutability": "view",
      "type": "function"
    },
    {
      "inputs": [
        {
          "internalType": "uint256",
          "name": "albumId",
          "type": "uint256"
        }
      ],
      "name": "joinAlbum",
      "outputs": [],
      "stateMutability": "payable",
      "type": "function"
    },
    {
      "inputs": [],
      "name": "owner",
      "outputs": [
        {
          "internalType": "address",
          "name": "",
          "type": "address"
        }
      ],
      "stateMutability": "view",
      "type": "function"
    },
    {
      "inputs": [],
      "name": "totalNoOfAlbumsCreated",
      "outputs": [
        {
          "internalType": "uint256",
          "name": "",
          "type": "uint256"
        }
      ],
      "stateMutability": "view",
      "type": "function"
    },
    {
      "inputs": [
        {
          "internalType": "string",
          "name": "url",
          "type": "string"
        }
      ],
      "name": "upload",
      "outputs": [],
      "stateMutability": "nonpayable",
      "type": "function"
    }
  ],
  "bytecode": "0x60803461006657601f611d5538819003918201601f19168301916001600160401b0383118484101761006b578084926020946040528339810103126100665751600080546001600160a01b03191633178155600155600255604051611cd390816100828239f35b600080fd5b634e487b7160e01b600052604160045260246000fdfe6080604052600436101561001257600080fd5b60003560e01c8063114983341461119d5780633b8f313b1461110757806342ce14881461100e5780635c51723414610e285780636d49f8cc14610e0a5780636f4e27f014610b8757806387b9c24d14610ac25780638d84d7fc146109095780638da5cb5b146108e0578063b027a7871461071d578063ced038d1146105d6578063d6e465c91461056b5763f3187157146100ab57600080fd5b346105465760c0366003190112610546576004356001600160401b038111610546576100db903690600401611327565b6024356001600160401b038111610546576100fa903690600401611327565b604435916001600160401b038311610546573660238401121561054657826004013561012581611489565b9361013360405195866112eb565b8185526024602086019260051b8201019036821161054657602401915b81831061054b575050506064356001600160401b03811161054657610179903690600401611327565b906084359260ff8416840361054657610193331515611625565b81511561050c5780511561048b576101ac600154611805565b908160015585519360018501809511610467576101e16101cb86611489565b956101d960405197886112eb565b808752611489565b601f190136602087013760005b875181101561021f576001906001600160a01b0361020c828b611864565b51166102188289611864565b52016101ee565b50908491600160ff888a61023533915188611864565b528660005260046020526040600020968755818116821984890154161783880155161460001461047d57670de0b6b3a76400008060a435029060a43582041460a435151715610467576102bf926102b6915b60028701556003860180546001600160a01b031916331790556102ad87600488016116fb565b600586016116fb565b600684016116fb565b4260078301558051906001600160401b038211610434576020906102e68360088601611b22565b0160088301600052602060002060005b83811061044a57858560006009820155600354600160401b8110156104345780600161032592016003556117ca565b91909161041e5780820361037a575b600154604080518181527fd3cc7c228a9442b3e32b7fb9e7ac4298594eeb118c36cbfbaf73feef8394627d9161036c90820187611274565b9260208201528033930390a2005b60098181925484556001840160ff60018301541660ff19825416179055600281015460028501556003840160018060a01b036003830154166bffffffffffffffffffffffff60a01b8254161790556103d86004820160048601611b56565b6103e86005820160058601611b56565b6103f86006820160068601611b56565b600781015460078501556104126008820160088601611c34565b01549101558180610334565b634e487b7160e01b600052600060045260246000fd5b634e487b7160e01b600052604160045260246000fd5b82516001600160a01b0316818301556020909201916001016102f6565b634e487b7160e01b600052601160045260246000fd5b6102b66102bf926000610287565b60405162461bcd60e51b815260206004820152604d60248201527f446573637269626520796f757220616c62756d20746f206c657420746865207760448201527f6f726c64206b6e6f7720686f7720796f752066656c74207768656e20796f752060648201526c31b932b0ba32b2103a3434b99760991b608482015260a490fd5b60405162461bcd60e51b8152602060048201526012602482015271283632b0b9b29030b2321030903730b6b29760711b6044820152606490fd5b600080fd5b82356001600160a01b038116810361054657815260209283019201610150565b3461054657602036600319011261054657600435610587611814565b50801515806105ca575b61059a9061157f565b60005260046020526105c66105b26040600020611878565b60405191829160208352602083019061136e565b0390f35b50600154811115610591565b34610546576040366003190112610546576024356004356105f5611ab4565b5080151580610711575b6106089061157f565b811515806106f6575b156106b15760009060005b816000526004602052600860406000200180548210156106a5578161064091611671565b905460039190911b1c6001600160a01b031633146106605760010161061c565b50905061066d6001611a4c565b60005260066020526040600020906000526020526105c66106916040600020611ad9565b604051918291602083526020830190611441565b50509061066d90611a4c565b60405162461bcd60e51b815260206004820152601960248201527f5468697320696d61676520646f6573206e6f74206578697374000000000000006044820152606490fd5b50806000526004602052600960406000200154821115610611565b506001548111156105ff565b34610546576020806003193601126105465760043590811515806108d4575b6107459061157f565b816000526004815260406000209060009160005b8460005260048352600860406000200180548210156108c6578161077c91611671565b905460039190911b1c6001600160a01b0316331461079c57600101610759565b5060099192506107ac6001611a4c565b0154916107b883611489565b926107c660405194856112eb565b8084526107d281611489565b601f190160005b8181106108aa57505060019160015b828111156108525750505060405191808301818452845180915260408401918060408360051b8701019601926000905b8382106108255786880387f35b90919293948380610841839a603f198b82030186528951611441565b999701959493919091019101610818565b81600096949652600685526040600020816000528552604060002090600019810191818311610467576108a29261088b61089c92611ad9565b6108958289611864565b5286611864565b50611805565b9492946107e8565b84906108b7969496611ab4565b828287010152019492946107d9565b50506107ac60099293611a4c565b5060015482111561073c565b34610546576000366003190112610546576000546040516001600160a01b039091168152602090f35b60203660031901126105465760043580151580610ab6575b61092a9061157f565b80600052600460205260406000209060018083019160ff835416158015610aa8575b15610a6357908092916008906109653360088801611a11565b6000945b610a13575b5050506001915060ff905416146109ae575b6040514281527f59a4dadce245655ce4c5ea128f142c4034b1206deff52ff605866cd86433de8160203392a2005b6000808080610a0d9460036109fa8380808060646109cf6002543490611913565b04966109db8834611926565b9601546001600160a01b03969087165af16109f4611933565b50611963565b8254165af1610a07611933565b506119ba565b80610980565b600354851015610a5e5780610a27866117ca565b505414610a38579382019382610969565b5060ff929150610a5690610a4d6001956117ca565b50339101611a11565b90848061096e565b61096e565b60405162461bcd60e51b815260206004820152601860248201527f546869732069732061207072697661746520616c62756d2e00000000000000006044820152606490fd5b50600284015434101561094c565b50600154811115610921565b60203660031901126105465760043580151580610b7b575b610ae39061157f565b6000526004602052604060002060ff600182015416158015610b6d575b15610b28576000808080610b269460036109fa8380808060646109cf6002543490611913565b005b60405162461bcd60e51b815260206004820152601e60248201527f546869732069732061207072697661746520616c62756d20696d6167652e00006044820152606490fd5b506002810154341015610b00565b50600154811115610ada565b34610546576060366003190112610546576004356001600160401b0360243581811161054657610bbb903690600401611327565b9060443590811161054657610bd4903690600401611327565b82151580610dfe575b610be69061157f565b82600052602091600483526040600020916009906009840193610c098554611805565b80865560089091018054600091825b828110610dc6575b50505015610d625790610c85969594939291610c8f60405192610c42846112b4565b828452878401958652604084019081526060840192338452896000526006895260406000209060005288526040600020935184556001998a9651600186016116fb565b51600284016116fb565b51600391820180546001600160a01b0319166001600160a01b03929092169190911790556000965b610cef575b7f5138483d623eef75882d5ca6ed33e44c7ecafe842f3311844eabf67a297ce76c604087878754908351928352820152a1005b8054871015610d5d5785610d02886117ca565b505414610d13579582019582610cb7565b5060409493929150610d457f5138483d623eef75882d5ca6ed33e44c7ecafe842f3311844eabf67a297ce76c966117ca565b5001610d518154611805565b90559091928580610cbc565b610cbc565b60405162461bcd60e51b815260048101879052603660248201527f4f6e6c792074686f73652077686f2068617665206a6f696e656420746865206160448201527536313ab69031b0b71030b2321030b71034b6b0b3b29760511b6064820152608490fd5b610dd08183611671565b905460039190911b1c6001600160a01b03163314610df057600101610c18565b505050506001888080610c20565b50600154831115610bdd565b34610546576000366003190112610546576020600154604051908152f35b346105465760003660031901126105465760008060038054925b838110610fa45750610e6c610e5683611489565b92610e6460405194856112eb565b808452611489565b60209390601f19018460005b828110610f8e57505050906000916000905b808210610eef57604080518781528651818901819052600092600582901b8301810191898b01918b9085015b828710610ec35785850386f35b909192938280610edf600193603f198a8203018652885161136e565b9601920196019592919092610eb6565b90929460009492945b610f01856117ca565b50600880910154821015610f7f5781610f2491610f1d886117ca565b5001611671565b905490871b1c6001600160a01b03163314610f4157600101610ef8565b5094610f74600191610f5f610f5987959698976117ca565b50611878565b610f698289611864565b5261089c8188611864565b915b01909291610e8a565b50509490919392600190610f76565b610f96611814565b828288010152018590610e78565b909160005b610fb2836117ca565b506008809101548210156110025781610fce91610f1d866117ca565b905490851b1c6001600160a01b03163314610feb57600101610fa9565b50610ffa600191939293611805565b925b01610e42565b50509190600190610ffc565b34610546576020366003190112610546576004356001600160401b0381116105465761103e903690600401611327565b611049331515611625565b8051156110ce5733600052600560205260406000208054600160401b8110156104345761107b91600182018155611671565b61041e5781611089916116fb565b7f34647a087c36357c4b77d3d7b4bc2b55d01c3ef8726dc75a70652d96e1510cc36110bf60405192604084526040840190611274565b914260208201528033930390a2005b60405162461bcd60e51b8152602060048201526011602482015270283632b0b9b29030b2321030903ab9361760791b6044820152606490fd5b34610546576020806003193601126105465760043580151580611191575b61112e9061157f565b6000526004815261114560086040600020016115cb565b906040519181839283018184528251809152816040850193019160005b82811061117157505050500390f35b83516001600160a01b031685528695509381019392810192600101611162565b50600154811115611125565b3461054657600036600319011261054657336000526020600581526040600020908154916111ca83611489565b926111d860405194856112eb565b8084528284018092600052836000206000915b8383106112525750505050604051918083019381845251809452604083019360408160051b85010192916000955b8287106112265785850386f35b909192938280611242600193603f198a82030186528851611274565b9601920196019592919092611219565b6001868192611263859a999a6114da565b8152019201920191909594956111eb565b919082519283825260005b8481106112a0575050826000602080949584010152601f8019910116010190565b60208183018101518483018201520161127f565b608081019081106001600160401b0382111761043457604052565b61014081019081106001600160401b0382111761043457604052565b90601f801991011681019081106001600160401b0382111761043457604052565b6001600160401b03811161043457601f01601f191660200190565b81601f820112156105465780359061133e8261130c565b9261134c60405194856112eb565b8284526020838301011161054657816000926020809301838601378301015290565b90610140918051825260209260ff848301511684840152604082015160408401526113e56113d36113c160608501519360018060a01b038095166060880152608086015190806080890152870190611274565b60a085015186820360a0880152611274565b60c084015185820360c0870152611274565b60e083015160e0850152610100948584015195858303908601528080875193848152019601926000905b8382106114285750505050506101208091015191015290565b845181168852968201969382019360019091019061140f565b908151815260606114766114646020850151608060208601526080850190611274565b60408501518482036040860152611274565b928101516001600160a01b031691015290565b6001600160401b0381116104345760051b60200190565b90600182811c921680156114d0575b60208310146114ba57565b634e487b7160e01b600052602260045260246000fd5b91607f16916114af565b906040519182600082546114ed816114a0565b9081845260209460019160018116908160001461155d575060011461151e575b50505061151c925003836112eb565b565b600090815285812095935091905b81831061154557505061151c935082010138808061150d565b8554888401850152948501948794509183019161152c565b9250505061151c94925060ff191682840152151560051b82010138808061150d565b1561158657565b60405162461bcd60e51b815260206004820152601960248201527f5468697320616c62756d20646f6573206e6f74206578697374000000000000006044820152606490fd5b90604051918281549182825260209260208301916000526020600020936000905b8282106116025750505061151c925003836112eb565b85546001600160a01b0316845260019586019588955093810193909101906115ec565b1561162c57565b60405162461bcd60e51b815260206004820152601a60248201527f4e6f207a65726f2061646472657373657320616c6c6f7765642e0000000000006044820152606490fd5b80548210156116895760005260206000200190600090565b634e487b7160e01b600052603260045260246000fd5b8181106116aa575050565b6000815560010161169f565b9190601f81116116c557505050565b61151c926000526020600020906020601f840160051c830193106116f1575b601f0160051c019061169f565b90915081906116e4565b91909182516001600160401b038111610434576117228161171c84546114a0565b846116b6565b602080601f83116001146117655750819061175693949560009261175a575b50508160011b916000199060031b1c19161790565b9055565b015190503880611741565b90601f19831695846000526020600020926000905b8882106117b257505083600195969710611799575b505050811b019055565b015160001960f88460031b161c1916905538808061178f565b8060018596829496860151815501950193019061177a565b60035481101561168957600a906003600052027fc2575a0e9e593c00f959f8c92f12db2869c3395a3b0502d05e2516446f71f85b0190600090565b60001981146104675760010190565b60405190611821826112cf565b8161012060009182815282602082015282604082015282606082015260606080820152606060a0820152606060c08201528260e082015260606101008201520152565b80518210156116895760209160051b010190565b90604051611885816112cf565b82548152600183015460ff1660208201526002830154604082015260038301546001600160a01b03166060820152918290610120906009906118c9600482016114da565b60808501526118da600582016114da565b60a08501526118eb600682016114da565b60c0850152600781015460e0850152611906600882016115cb565b6101008501520154910152565b8181029291811591840414171561046757565b9190820391821161046757565b3d1561195e573d906119448261130c565b9161195260405193846112eb565b82523d6000602084013e565b606090565b1561196a57565b60405162461bcd60e51b815260206004820152602260248201527f466565207061796d656e7420746f20616c62756d206f776e6572206661696c65604482015261321760f11b6064820152608490fd5b156119c157565b60405162461bcd60e51b815260206004820152602260248201527f466565207061796d656e7420746f207472796265206f776e6572206661696c65604482015261321760f11b6064820152608490fd5b8054600160401b81101561043457611a2e91600182018155611671565b60018060a09493941b038084549260031b9316831b921b1916179055565b15611a5357565b60405162461bcd60e51b815260206004820152603360248201527f4f6e6c792074686f73652077686f2068617665206a6f696e656420746865206160448201527236313ab69039b2b2903a34329030b6313ab69760691b6064820152608490fd5b60405190611ac1826112b4565b60006060838281528160208201528160408201520152565b90604051611ae6816112b4565b6060819380548352611afa600182016114da565b6020840152611b0b600282016114da565b6040840152600301546001600160a01b0316910152565b90600160401b811161043457815490808355818110611b4057505050565b61151c926000526020600020918201910161169f565b90808214611c3057611b6881546114a0565b906001600160401b03821161043457611b8b82611b8585546114a0565b856116b6565b600090601f8311600114611bc657611756929160009183611bbb5750508160011b916000199060031b1c19161790565b015490503880611741565b815260208082208483528183209291601f1985169083905b828210611c17575050908460019594939210611bfe57505050811b019055565b015460001960f88460031b161c1916905538808061178f565b8495819295850154815560018091019601940190611bde565b5050565b818114611c30578154916001600160401b03831161043457611c568383611b22565b60005260206000209060005260206000208154916000925b848410611c7c575050505050565b600191820180546001600160a01b0390921684860155939091019290611c6e56fea2646970667358221220ca9465ff995fa6668bad2255ef0ecea6ca42e881fd8e6c54a5b5860660f1cb6164736f6c63430008180033",
  "linkReferences": {},
  "deployedLinkReferences": {}
}